:10000000003C0220C16F000039FB021039FB0210D6
:1000100039FB021039FB021039FB021039FB0210C8
:1000200039FB021039FB021039FB021039FB0210B8
:0C00300039FB021039FB021011FB02101A
:10003C002DE9FC47D44C0F460546F80B80F00682A0
:10004C006078DFF85883B90F80F0AA81B90880F086
:10005C009D81F90A80F00281390B80F0CC8038093F
:10006C0007D2F80FC0F0288227F0804706F016FB65
:10007C0022E209F0B9FF814609F07EFA002800F06F
:10008C00B480082009F02CFF002840F0AE808020BE
:10009C0009F026FF002840F0A880684604F074FEA2
:1000AC00012803D10098002800F09F8094F84102A9
:1000BC00002840F09A8000250126E8B209F0C4FD22
:1000CC0048B1837A3BB1867290F9090006FA00F0C8
:1000DC00C0B208F07DFB6D1C032DEED3032084F819
:1000EC00200004F5CC7009F079FF48460AF094F82A
:1000FC00D34800252A460168056050F8081CD149F0
:10010C0040F8085C04F15C0009F0B6F94046006860
:10011C00006B8047A168401A010BA06AC1F1FF3245
:10012C0082422CBF08444FF0FF30A06294F82C00A0
:10013C0020B12069A16AB1EBC02F25D909F02CFAA6
:10014C00294600B13146081C1BD0BF4840F60901B6
:10015C0001804580417B06F00F0221F00F010A431C
:10016C004273017B05F00F0321F00F0143EA0102FA
:10017C0002732946416009F0FBFD418811F4406F80
:10018C00FBD084F82C60A56207F068FBCE482946AA
:10019C000560022009F07AF8022008F073FC1120A7
:1001AC0003F07AFC207818B96068483009F034FF05
:1001BC00C648007810B90E2003F06EFC94F82D00A0
:1001CC0020B184F82D50052008F05CFCC04860621A
:1001DC0084F82050B4F9B000B4F9B210884214BFBE
:1001EC000220072005F00CFC02E048460AF014F847
:1001FC0027F008073AE720B1042008F043FC002060
:10020C006070656808F0EEF938B12846ED696FF456
:10021C00807100224FF00073A847E06858B1404647
:10022C000068006B8047E2686168801AC860000B48
:10023C00C8600026E660A74904F15C00002209F0C2
:10024C001BF90221D4F89C0084F8201018B104F199
:10025C00DC0009F0E9FE27F4006707E709F0C4FEAB
:10026C00064609F089F9D4F894100028894600F064
:10027C008480002900F081809749042504F15C00FA
:10028C00002284F8205009F0F7F8304609F0C4FF3A
:10029C0004F5CC7009F0A2FE40460068006B804764
:1002AC00E0604FF0010884F80180284608F002FC59
:1002BC00D9F810006060D9F81000416AC90803D35E
:1002CC00036A294600229847404606F04BFC6068BA
:1002DC0080F81580606803F0FFFC6568D5F808A00D
:1002EC0040F60A02D01F564600F1010C00E01E46F3
:1002FC00736833B119888A4203D0884218BF8C4581
:10030C00F5D100217160727B08F00F0322F00F020F
:10031C0013437373D9F80C201288904224D0604692
:10032C00904221D02B8E03B3696305F130025180CA
:10033C0095F83C0001F00F0320F00F00034385F803
:10034C003C3095F83D0008F00F0320F00F000343FC
:10035C0085F83D307260707B01F00F0520F00F00C6
:10036C0045EA0001717300E0E160504609F000FDC0
:10037C005146404608F08AFF02E0304609F04CFF37
:10038C0027F4806798E0C0469083002001F0C2FCFF
:10039C00D4F89C0008B927F002078DE08C010010FE
:1003AC004E4A116841F08001116020B1042008F020
:1003BC0069FB0020607009F017FE8246D8F85400E3
:1003CC00016804208847D0B1287DC0B1A068B0B1C5
:1003DC008146D8F800002E69006B8047A0EB09001D
:1003EC002861000B2861B04202D2801940082861B4
:1003FC0040F6C41181422CBFB0F5967F296150465E
:10040C0009F00AFF08F0EEF880B1EE6928466FF4A7
:10041C00807100224FF00073B047D4F8940000288C
:10042C0008BF47F0020701D006F038F92846AD693D
:10043C0000214FF080630A46A84727F000573BE0A5
:10044C0014100440E96C0000E442002009F0CCFDDB
:10045C00D4F8AC6066B306F1280106C90A234FF044
:10046C00E0450B40154008BF002B21D106F12801B7
:10047C0091E8000306F1280595E8060006F128032B
:10048C0022EA090221EA080183E8060009F0C4FE09
:10049C00B16879B1B9F1000F08BFB8F1000F09D0FC
:1004AC003069B6F93010B5684B464246A84701E0B2
:1004BC0009F0B2FE27F4804727B104F1DC0039467D
:1004CC0009F0B2FDBDE8FC87000004607AB10000C1
:1004DC009D2F0000A12C000065950000CC21084048
:1004EC002DE9F047DFF8B4910E46D9F808101F46F5
:1004FC0015460446ADF1300DBEB1B5B130784FF0B4
:10050C00010808FA00F001420FD01046002109F052
:10051C0071FDA560666009F067FD614D8246287823
:10052C00022804DB504609F077FE0020B3E00028D7
:10053C006DD100F0BDFF5B495B4E086840F00200D6
:10054C00086008A8C9F8006009F032FC574E5849F9
:10055C00707808AA0A9005F1DC0006F0ABFE55494C
:10056C0005F58C7008AA06F0A5FE08A809F0EFFBAB
:10057C00192108AB3078504A099005F15C0007F05E
:10058C0002FE4E4A05F178001A2108AB07F0FBFD7C
:10059C004B49002205F5AA70134607F0F5FB4949B3
:1005AC00002205F5CC70134607F0EEFB46480068B8
:1005BC00C0F3814030B1454A05F1300004210023DD
:1005CC0008F026FDB078012802D10E2003F0E2FBE2
:1005DC0005F19C0009F0CAFA05F1940009F0C6FA7D
:1005EC00002185F82C1085F82010072085F8400292
:1005FC00A962A960364B197085F82D100526E960A3
:10060C00344A2E6104206A6208F040FE287805EB1B
:10061C008001401CC1F8B440C0B22870504609F0AB
:10062C00FBFD1FB9684609F0E7FA6F4638684FF4CE
:10063C00FA76E6602060B86941466062388A617576
:10064C00E082F869E062786800280CBF40F6C410BC
:10065C00002120612048E06120622175A061F868CA
:10066C0000B1E061786900B12062B86800B1A061A6
:10067C00C82204F13000002105F046FC04F14800CA
:10068C00002108F08BFB1549002204F1B000134641
:10069C0007F07AFB20460CB0BDE8F087CC2108406F
:1006AC009083002000200940110000E078B1000088
:1006BC007D99000055380000E96C00004D68000081
:1006CC00459500003D980000B44F0050397500006E
:1006DC00074300209D2F000087370000B79F0000C4
:1006EC002DE9F04F8246ADF11C0D00F0E1FE69489A
:1006FC00007806F0E3FC684C002615280DDC152864
:10070C0014D0012821D90C381FD0401E24D0401EF3
:10071C0001280BD9401F09D012E0173815D0801EC4
:10072C001AD0401E18BFB0F1020009D109F0F0F840
:10073C00022807D009F0ECF8012803D009F0E8F8FA
:10074C0021680DE005211F2608E009F0E1F80228D8
:10075C00F6D101210E4601E0032107262046016057
:10076C004E4AD068C0F38150012804D11268012090
:10077C00120E9040064309F017FADFF828B1DFF8A3
:10078C002081FF2240185B46401E471CC8F8000021
:10079C007F1E03F8012BFBD1DAF80020002702F0B2
:1007AC00FF03FE2B1CD0D4463B46012502F0FF0470
:1007BC00FF2C0ED0A04205D3A14203D805FA04F4B5
:1007CC00264201D0022062E002F0FF0227430BF820
:1007DC0002305CF8042F5B1C02F0FF04FE2CE7D106
:1007EC00092003F0D7FA3048C0F800A02F480121A7
:1007FC0008F0D4FA364C00254FF00109A84609FA46
:10080C0005F0064214D1074207BF05F0FF0141F481
:10081C00C0411BF805005AF82010254802F0A8F832
:10082C00E8B24FF0FF3108F067FEC4F8008001E039
:10083C00042020601A4800686D1C241D8542DED9F6
:10084C0004A809F084FA1B4C20781C4A05901A481D
:10085C00102104AB07F097FC684609F0A9FA606810
:10086C00184902901648CDF80C806A4606F022FD15
:10087C00154951F80D0C20F4F85040F4005041F893
:10088C000D0C124AC1F8FF9F4046C2F8009007B009
:10089C00BDE8F08F4D43002084A10020A84F0050EC
:1008AC0080A100206C42002078430020A44000204E
:1008BC00007FC767ACB10000C8420020059800005B
:1008CC00A8410020BD7B00000D3009402C000940E0
:1008DC00284000200EB509F0F1FA8DF800004E49C1
:1008EC00012008704D49002008804D4900200880E7
:1008FC004C49002008804C49002008704B490020CE
:10090C0008704B49002008704A4A0020002182E8F8
:10091C000300494900200860484900200860484904
:10092C0000200870474900200870474900200860E3
:10093C0046490020086046490020088045490020AF
:10094C00087045490020088044490020088044492B
:10095C00002008804349002008804349002008708B
:10096C0000200190019805280DDA01983F4A0021DA
:10097C00115401983E4A002111540198401C0190D9
:10098C0001980528F1DB002001900198242809DA50
:10099C000198384A002111540198401C019001988B
:1009AC002428F5DB9DF80000334908F023F833497F
:1009BC00012008709DF80000314906F091FD9DF86A
:1009CC000000252105F008FF2E49002008702E4953
:1009DC00002008702D49002008702D490020087057
:1009EC002C49002008702C49002008702B4900204D
:1009FC0008702B49002008702A49002008702A49E9
:100A0C00002008602949002008F046FD28490120F3
:100A1C0008F042FD0EBDC046D08D0020D28D0020C6
:100A2C00D48D0020D68D0020D88D0020E78D00209D
:100A3C00E88D0020F88D0020008E0020048E002010
:100A4C00088E0020098E0020F08D0020F48D0020EF
:100A5C00DA8D0020DC8D0020DE8D0020E08D002062
:100A6C00E28D0020E48D0020E68D0020354300202F
:100A7C003D43002020420020D6BE898E533E0020EC
:100A8C00555555000C8E0020F8A10020F9A100202E
:100A9C00FAA10020FBA10020FCA10020FDA1002058
:100AAC0069A1002068A100206CA10020C91F0000D2
:100ABC004B9F00002DE9F04F704C002704F194007F
:100ACC00ADF1140DB946B846056802978246CDF8CB
:100ADC000C9025B3D4F8A800B84203D1D4F8A400E4
:100AEC00B8421AD0D4F8A460F6B1D4F8A41028698E
:100AFC000969884218D195F83300400914D30127AD
:100B0C00D4F8A400C06840880028F9D0D4F8A40018
:100B1C00C06840880128F3D006E0012704E004F106
:100B2C00DC00022109F080FA002D43D087F0010B84
:100B3C0003A802AA594604F03BFC5FEA000809D05E
:100B4C00012F07D0039929B104F5AA7008F0CDFF45
:100B5C004D462FE0002D2DD04948066856B3B8F10C
:100B6C00000F27D0039828BBCDF800B00298019055
:100B7C00D4F8A400D4F8A8100AF108035246B047E0
:100B8C00401E02D0401E08D014E0029800B928463E
:100B9C0001214B460091014605E001230093D4F856
:100BAC00A400D4F8A4100069B1F930104A4601F041
:100BBC00EDFB60E0002F5ED0002D5CD060682969F1
:100BCC00884252D1B8F1000F0BD0039848B1D4F839
:100BDC00A40030B9D4F8A80018B9082007F0F8FD23
:100BEC0049E0082008F040FE95F8330004F1DC06DB
:100BFC00C0F3001028B9504608F0FCFBC4F8A40060
:100C0C0004E0504608F0F6FBC4F8A800A8691D499A
:100C1C00C0430860A8694A6810434860E869C0434B
:100C2C0041F8080CE86951F8042C104341F8040C05
:100C3C00EC680820294608F029FB204608F0BAFA8F
:100C4C002088A0F6020040B141F21E01401A04D0E7
:100C5C0041F6E671401A012803D80120214608F01C
:100C6C0015FB4FF08041304603E004F1DC004FF4FB
:100C7C00806109F0D9F905B0BDE8F08F90830020B0
:100C8C0074A100201010044000B5ADF1140D0192B8
:100C9C008DF80810009000208DF8090000208DF8C8
:100CAC000A006A48007848B99DF80800C00805D3C6
:100CBC0066490120087008F0B3F8C4E09DF80800FC
:100CCC004008C0F09E801C20002108F085FA1D20F1
:100CDC00002108F081FA1E20002108F07DFA00980E
:100CEC0004F0AAFBC0F3C0708DF8100001980390BB
:100CFC001AE00398C07B00F07F008DF80A009DF885
:100D0C000A00F8B101208DF809001BE0039890F857
:100D1C00240000F07F008DF80A009DF80A0088B1CD
:100D2C0001208DF809000DE003980088A0F6020060
:100D3C000028DED041F21E01401ADAD041F6E771EC
:100D4C00401AE3D09DF8090068B39DF81000012803
:100D5C0012D13F4800681C21002207F003FE3C48DA
:100D6C0000681D21322207F0FDFD394800681E2164
:100D7C002F2207F0F7FD66E0354800681C210022A1
:100D8C0007F0F0FD324800681D21002207F0EAFD53
:100D9C002F4800681E21002207F0E4FD1E200121CF
:100DAC0008F01AFA4FE09DF81000012812D12848DB
:100DBC0000681C212F2207F0D5FD254800681D2155
:100DCC00322207F0CFFD224800681E21002207F0D6
:100DDC00C9FD38E01E4800681C21002207F0C2FD46
:100DEC001B4800681D21002207F0BCFD1848006854
:100DFC001E21002207F0B6FD1C20012108F0ECF9A1
:100E0C0021E09DF8080080081DD31C20002108F06B
:100E1C00E3F91D20002108F0DFF91E20002108F065
:100E2C00DBF90B4800681C21002207F09BFD0848E9
:100E3C0000681D21002207F095FD054800681E2161
:100E4C00002207F08FFD05B000BDC04619A200209E
:100E5C00844300202DE9FC4F83F0004301E02DE991
:100E6C00FC4F1F03FF0847EAD2574FEA42284FEACC
:100E7C0043095FEA595906D147EA080A1CBF002109
:100E8C000020BDE8FC8F57F000575FF4E06E1EF1B8
:100E9C00FF0EF14505D14FF00000190D0905BDE815
:100EAC00FC8F002B05D55FF0000AD8F100086AEB27
:100EBC0007070C03E40844EAD0544FEA40254FEAF4
:100ECC004106760D08D144EA050A19BF002100201D
:100EDC00191C101CBDE8FC8F44F00054764504D15D
:100EEC000020090D0905BDE8FC8F002904D55FF031
:100EFC00000A6D426AEB0404B6EB090E08D5A24653
:100F0C003C465746AA464546D046CEF1000E4E46C4
:100F1C00BEF1360F5CBF4FF0000B23E0BEF1000FAB
:100F2C0004BF4FF0000B1AE0CEF1390ABAF12009D8
:100F3C002EBF08FA09FB07FA0AFB4BEA080BDEF195
:100F4C00200A07FA0AFA38BFBA4647FA0EF72DBF3D
:100F5C0028FA0EF8AEF1200E4AFA0EF8D04415EB32
:100F6C0008057C4154EA050A02BF00210020BDE8B7
:100F7C00FC8F002C58BF4FF0000A06D55FF0010A19
:100F8C005FF0000E6D426EEB0404A6F101066D00DD
:100F9C006441FAD515F4806E11D005F480794BEAD2
:100FAC00090B15F5806554F1000428BF761C0BD293
:100FBC0005F400795BEA090B08BF25F4006525F4FC
:100FCC00E0656D0044EB0404B61CDEBF002100207C
:100FDC00BDE8FC8F5FF4E06E1EF1FF0E76450AD380
:100FEC004FF0000013F00043FF21C900C91D090593
:100FFC001943BDE8FC8F270547EA1530210B41EA60
:10100C00065141EACA71BDE8FC8F7047F8B5074636
:10101C0061485F4C001DC26A0168B7F5C067C2F336
:10102C000722C4F81071C1F38441C4F81421C069BB
:10103C00C4F81811C0F38120C4F8280100F0A38073
:10104C0094F830616EB9C4F82C71D4F81801C4F856
:10105C002001D4F81461C4F81C61D4F82851C4F8E8
:10106C002451D4F82C01D4F81451002854BF022375
:10107C006FF0010304F59072116800EB4000C0188A
:10108C00431000EB937001EBA0011160D4F8201118
:10109C00C4F81C5100291CDD1E293DDDD4F82401A7
:1010AC0030B93429B4BF15391E21C4F8201125E0FC
:1010BC002A29BABFD4F820010B381E20C4F820010D
:1010CC00D4F81C013E28D4BF401C3F20C4F81C019E
:1010DC001FE0D4F82401032812D011F10A0FA6BF87
:1010EC00D4F820010B300120C4F82001D4F81C01E5
:1010FC000028CCBF401E0020C4F81C01032009E0CE
:10110C0011F1140FA6BFD4F8200115300120C4F83A
:10111C0020010020C4F824014FF08057D7F8A40117
:10112C00B4F81C111B4D40684FF47F42082306464F
:10113C00009128463021B047D7F8A40101214FF483
:10114C000032112340680091064604212846B0471E
:10115C00D7F8A401B4F8201140684FF4F802122318
:10116C000646009104212846B047D7F8A401B4F8EC
:10117C00241140684FF440620A2304460091202158
:10118C002846A047F8BD002084F83001F8BDC046C1
:10119C009888002000A00C4000A00C402DE9F843DA
:1011AC005F4CDFF868815B4DD4F83C0100286ED0B1
:1011BC00574E401E0AD0401E60D0401E1CD0401E10
:1011CC0053D0401E1AD0401E33D02FE04E4801257C
:1011DC000221006884F83A5170220423406800917F
:1011EC00002107464046B847356004F1500008F02E
:1011FC00F3FE2846BDE8F883022100E003214FF0FE
:10120C008059D9F8A40184F83A114068002570225D
:10121C0004232946074600954046B847D9F8A4014F
:10122C00C0687022294613460125DAE70320BDE881
:10123C00F88300262E606E6028688008FCD26868EF
:10124C008008FCD2374834490127001D06600E2067
:10125C000F6002F021FC022007F014FCC4F83C6182
:10126C0084F83B610220BDE8F8830520C4F83C01FA
:10127C000027376030688008FCD242E00320C4F8B5
:10128C003C010027376030688008FCD239E0234FDE
:10129C0001260F202E6042F62A21C7F80B004FF0D2
:1012AC008059C7F80F10D9F8A40140684FF4C072E8
:1012BC00072302218446404600910021E047D9F8DB
:1012CC00A401C06800214FF4C07207238446404635
:1012DC00E0472E6028688008FCD394F83901C7F8E1
:1012EC001B6018B9032100200E4602E00020286381
:1012FC000321C4F83C6147F8011C686068688008E9
:10130C00FCD20020BDE8F883A401001000A00C4022
:10131C0058600C4054600C4004800C4001400C4060
:10132C009888002038500C402DE9FE4F93460A68EF
:10133C00DBF8005017784FF000081C460646C246F2
:10134C00242F02F101020A602AD11778521C532F64
:10135C000A6025D1ED1C25F003052D1D55F8040C54
:10136C00E061CBF80050208B0090A168E2693068F6
:10137C005B4608F04DFF8246306838B1A068504596
:10138C00D8BFA0F1010A306850443060DBF800503F
:10139C00206846464FF00108E660A0EB0A0020608A
:1013AC00662F06D0B8F1000F6DD1E16901200F70E6
:1013BC0068E0208B012808D0ED1D25F007050835C5
:1013CC00A5F1080090E800030EE0ED1C25F00305E4
:1013DC002D1D55F8040C01909DED010A10EE100A1C
:1013EC0007F054F9804689462BA20CCA4946404660
:1013FC0004F076F928BF002705D2206989F000494E
:10140C000127401E206126A20CCA4946404604F022
:10141C00AAF934D3404606F053FC064608F0ECF823
:10142C000B46024649464046FFF714FD1EA20CCA65
:10143C0001F030FD06F044FC0146606904220A23E9
:10144C0005F088F8411EE1612E2300F8013C61692A
:10145C002269E0690A23091AE160521A314605F043
:10146C0079F8002F08BFE06105D0411EE1612D27FE
:10147C0000F8017CE0696169091A084602E004A0E1
:10148C00E0610720E060CBF800505046BDE8FE8FCD
:10149C00286572726F7229000000000000000000C5
:1014AC000000C0FFFFFFDF41000000000088C340C8
:1014BC002DE9F0435A4C94F84201ADF1140D00287B
:1014CC0040F093804B484C4E4FF00108027B336840
:1014DC00416884F84281814684F84121C3F38147F5
:1014EC00C4F86C11BFB9D9F81000A0B156F8085C5B
:1014FC0008F0A2FC64210246C5F306604143B1FB2F
:10150C00F2F23E49002304F1940006F03DFC3C4904
:10151C004FF00040086001A808F00CFD00252F4694
:10152C0004F10C00029501AB8DF80470354903955C
:10153C003A4606F029FC01A808F0FCFC04F1500026
:10154C000822029501AB8DF804702F49039506F023
:10155C001BFC2E4A04F1D80032213B4606F013FE48
:10156C002C4A2B4F04F1F4002C212B463D6006F045
:10157C000AFE294899F80D3000783068C0F3815084
:10158C001BB1032803D184F8398103281FD002280A
:10159C001DD001281BD14FF08059D9F8A4011F4C44
:1015AC00406803214FF040521C2307460091294606
:1015BC002046B847D9F8A401406829464FF4007278
:1015CC0009230746CDF800802046B84706E0386866
:1015DC0040F040003860022007F06CFA56F8040C1A
:1015EC00C00802D2284607F065FA05B00020BDE815
:1015FC00F083C0461CB10000B44F0050559A000057
:10160C0000A10C4003590000F978000095900000EF
:10161C0090220840656100004D43002000A00C4062
:10162C009888002010B5ADF1180D0192ADF810108E
:10163C00009000208DF8120008F0BEF9BDF81010D3
:10164C00019806F0DDFD444A002182E8030043497D
:10165C000120087008F032FC8DF8130000980C3053
:10166C0006F072FD02909DF81300029907F0C2F982
:10167C003B49012008700098103006F065FD03907E
:10168C0003999DF8130021F07F4105F029FF009884
:10169C00143007F005F9334908800098163007F02C
:1016AC00FFF83149088000981A3007F0F9F82F49F3
:1016BC00088000981C3002F061F800982C4990F8D2
:1016CC00210000F01F0008709DF8130007F0A8FD22
:1016DC002849087028490020087005F013FA8DF885
:1016EC0012009DF813009DF8121005F075F82349AF
:1016FC00002008601C48224902884FF47A7340F29B
:10170C00EE20504390FBF3F00860174A154812493D
:10171C00148800880B681B4A40F2E24100194143CF
:10172C0001F2E240C01810601648006806F08CFB0D
:10173C0015490120087015490120087006480A490E
:10174C000068098807F097FB11490220087007F020
:10175C00C9F906B010BDC046F88D00200A8E0020D5
:10176C00533E0020D28D0020D48D0020D68D002039
:10177C00D88D00200B8E0020E78D0020008E0020DD
:10178C00F08D0020048E0020098E0020088E002091
:10179C00D08D00202DE9FF4107467D68BE680C46C0
:1017AC0008F022FC2978012903D108F035FD00202E
:1017BC0091E00121297008F02FFD20786870607885
:1017CC00A87060686860A068A860E068E86020693C
:1017DC002861207D2875607D6875A07DA875A0693D
:1017EC00A861207F2877607F4FF000084346687718
:1017FC00A07F2B63C5F82080A8771C466C626C63B5
:10180C00AC62AC6385F82C4085F82D4085F8B84166
:10181C0085F8B941706802F0BDFA384602F016FB43
:10182C00384602F099F978B92C480068C06801462E
:10183C0030688847706802F02FF908F0D5FB2C70DF
:10184C0008F0EAFC274645E0684608F080FA327B4F
:10185C0005F17C00B1680192214A00976B4606F0B5
:10186C0092FC684608F0A4FA316902911D49009770
:10187C0005F198006A4605F01DFDA87830B905F110
:10188C00D400214607F08AFA17482861687830B9E5
:10189C0005F59270214607F081FA1448E860684615
:1018AC0008F048FB01948DF8004005F5BA7010491A
:1018BC0002970A226B4606F067FAB169F26905F1E4
:1018CC003C0008F021FA0B4A05F1680004213B4664
:1018DC0007F09EFB38460090BDE8FF81D001001058
:1018EC00751E0000AF6A0000959F0000699F000004
:1018FC00617A0000ED9D000000B5ADF1140DADF85E
:10190C0008200191009001208DF80A0000208DF82C
:10191C000B00BDF808002E2802DA00208DF80A0012
:10192C009DF80A00002800F08B800198009900783F
:10193C000870019800994078487001980099807857
:10194C00887001980099C078C8700198407800F0B0
:10195C001E008DF80C0001990098091D0A68001DE5
:10196C0002604A684260097A01720098807800210E
:10197C0000F08000C01100D001218DF80D100D2059
:10198C008DF80B0000208DF80E009DF80D0098B11D
:10199C0001980099407B48739DF80B00401C8DF812
:1019AC000B000098407B00F00F008DF80E002949C9
:1019BC009DF80E00087007E09DF80C00042803D178
:1019CC00244800788DF80E009DF80B000199009BBF
:1019DC00421C8DF80B20405C98749DF80E0000287A
:1019EC0010DD00989DF80B3001999DF80E200E30FB
:1019FC00C91802F065FF9DF80E109DF80B004018F9
:101A0C008DF80B000098407800F0600040118DF8C4
:101A1C000F009DF80F00012803D09DF80F0002283D
:101A2C000ED19DF80B200199009889180A68133083
:101A3C000260097901719DF80B00401D8DF80B00B7
:101A4C009DF80A0010B19DF80B0000E0002005B0D5
:101A5C0000BDC0464596002000B5ADF11C0DADF89B
:101A6C000C10009000980190019800788DF81000EF
:101A7C0000999DF81000401D4018029000208DF830
:101A8C0011006CE0BDF80C10009807F009FA002862
:101A9C006BD0BDF80C203F48009901F079F88DF817
:101AAC0011009DF8110000285FD03C483A4900888D
:101ABC000860384807F010FD50B13B4939480A78A6
:101ACC0000683749801808603849022008704CE0DB
:101ADC0036490120087048E0BDF80C10009807F05A
:101AEC001BF9E0B1BDF80C203148009901F002FD62
:101AFC008DF814009DF81400002836D025482C4988
:101B0C0007F04AFA002830D02A4926480A7800689B
:101B1C0023498018086025490220087025E0BDF88B
:101B2C000C10009807F0BCF9F8B1BDF80C2019485E
:101B3C00009901F02DF88DF811009DF81100A0B15D
:101B4C00144807F0C9FC80B1174916480A78006898
:101B5C0013498018086015490220087005E01348E5
:101B6C00007800288ED0401EB6D0BDF80C1000981E
:101B7C0006F071FC10B1029804F05AFDBDF80C107F
:101B8C00009805F013FCADF80E00BDF80E0007B080
:101B9C0000BDC0464E4300205C9A002050430020FC
:101BAC006C9A0020689A002053430020709A002001
:101BBC00454300204643002000B5ADF1140DADF8AF
:101BCC0008200191009001208DF80A0000208DF86A
:101BDC000B000198009900780870019800994078E2
:101BEC004870019880788DF80C009DF80C0002214B
:101BFC00C01D821000EB527001EBE0018DF80D104E
:101C0C009DF80D0006283FDC9DF80D0003283BDBFA
:101C1C009DF80D00801C8DF80B0001989DF80B10A1
:101C2C00085C8DF810009DF810000221C01D821078
:101C3C0000EB527001EBE0018DF811109DF81100D2
:101C4C0006281DDC9DF81100032819DB009801996A
:101C5C009DF80D20801C891C02F032FE00989DF826
:101C6C000B3001999DF811200830C91802F028FE9C
:101C7C009DF811109DF80B0040188DF80B0006E034
:101C8C0000208DF80A0002E000208DF80A009DF873
:101C9C000A00002835D09DF80B000199009B421CCE
:101CAC008DF80B20405C98739DF80B000199009BFC
:101CBC00421C8DF80B20405CD8730199009B9DF859
:101CCC000B00421C8DF80B20405C18740199009B92
:101CDC009DF80B00421C8DF80B20405C5874019948
:101CEC00009B9DF80B00421C8DF80B20405C9874F7
:101CFC000199009B9DF80B00421C8DF80B20405C59
:101D0C00D8749DF80A0010B19DF80B0000E000207B
:101D1C0005B000BD2DE9F84F504CD4F89C00D4F818
:101D2C009C60002800F095800546E86840F60301A9
:101D3C0008274A1C02E040687F1EFFB260B15FB109
:101D4C000388994218BF9A42F5D129692CC83031C1
:101D5C002CC189C881E8890006F1280090E80003AD
:101D6C004FF0000A06F12807D34687E8000CB1684B
:101D7C0021B357464FF0E24A07EA08001AEA090570
:101D8C0008BF002813D036A090E80C0002EA080225
:101D9C0013EA090308BF002A04D0B5683069B6F904
:101DAC003010A847504607EA080800EA0909B56848
:101DBC003069B6F930104B464246A84708F014F982
:101DCC000546B4F9B200401C6FF31F30A4F8B20002
:101DDC00214886F833B06FF00207378607F00AFB0C
:101DEC00284608F019FAB4F9B000B4F9B2108842D8
:101DFC002FD16068D4F8B460D4F8B87090F8F410AF
:101E0C0000290CBF0520072003F0FAFD58462EB11F
:101E1C0096F8F45005B9306886F8F4B05E462FB1E8
:101E2C0097F8F45005B93E6887F8F4B0864238BF8D
:101E3C00061C66B1B6F1FF3F0BD007F0FDFFB6FBF9
:101E4C00F0F104F5CC7007F050FEBDE8F88F07F008
:101E5C00EFFCBDE8F88FC0462C8400209083002056
:101E6C00F0FFFFFFFFFFFF8E2DE9F0478046D8F80B
:101E7C0008603068076CD8F8045047646A6CA96B2A
:101E8C00286C17F4F06FA0EB020937D1F8091FD2B8
:101E9C00780979D3B9B196F82100464A145C601ED2
:101EAC00814294BF0C1C641E4046214606F0D2FBB6
:101EBC00A86B001BA863A86B002865D105F19800DE
:101ECC00012108F0B1F84046494606F0CFFC5BE032
:101EDC000029F8D0404606F0BDFB014695F82D00D0
:101EEC00A96318B9A86B00284ED101E00020A863A3
:101EFC0005F19800012108F097F845E0F80A21D285
:101F0C004FF0000A544603E0A86B401EA863A96B6F
:101F1C0091B14046012106F09DFB3068446814F0F5
:101F2C000F04C0F804A0EFD0296BAB6B686B491E93
:101F3C002963401E6863EBB905F19800012108F094
:101F4C0073F813E0306844680022202904F00F0471
:101F5C004260CCBF4FF0200A8A464046514606F0FC
:101F6C0079FBCAF120008145C8BF814649464046ED
:101F7C0006F07CFCEC77404605F070FB706A18B1FB
:101F8C000246214640469047B80910D3AF6A77B154
:101F9C004046394606F096FBA862AD6A3DB996F804
:101FAC0020000549095C4046C91904F021FFBDE831
:101FBC00F087C046CCB10000D8B100000EB500903F
:101FCC0000208DF804003D480078022875D1009857
:101FDC0007F076FE3A4A002182E8030007F0ECFC99
:101FEC0038490868401C08603748007858B13748B1
:101FFC00344900880968884205D1354801F0BEFB98
:10200C003149002008703348007848B332482D49D4
:10201C0000880968884223D13148304900880880FB
:10202C0031483049008808803148304900880880A0
:10203C002849002008702F490120087020482749A2
:10204C000068098806F017FF26482B4A018810689B
:10205C0040F2E24303FB01001060284901200870A4
:10206C0007F02CFF8DF8080004F04CFD8DF80400EF
:10207C009DF808009DF8041004F0AEFB06F032FD4C
:10208C001F48007848B11F48006840F24131814236
:10209C0003D91C490868401C08601048164A01887E
:1020AC00106840F2E24303FB010010601248006824
:1020BC0005F0CAFE1249012008700EBDD08D00201B
:1020CC00F88D0020008E0020DC8D0020DA8D0020A1
:1020DC003D430020E68D0020E48D0020D48D0020AF
:1020EC00E08D0020D28D0020DE8D0020D68D0020CA
:1020FC00E28D00200A8E0020048E0020098E002024
:10210C00088E0020F48D00202DE9F0470646880F3C
:10211C00C0F09080002004F025FD474807F028FE11
:10212C00464C40F60A09A4F8009000256580207BF7
:10213C0005F00F0120F00F00014321736560607BF7
:10214C004FF0010808F00F0720F00F0047EA0001DC
:10215C003046617301F0C0FDD6F808A04A4621460E
:10216C00D01F574600F1010C00E027467C6834B1C3
:10217C0023889A4203D0984218BF9C45F5D17960C8
:10218C007A7B2F4C05F00F0322F00F0213437B7365
:10219C00D4F8943033B1DA681288904224D0604677
:1021AC00904221D0338E03B3756306F13002558013
:1021BC0096F83C0005F00F0320F00F00034386F85F
:1021CC003C3096F83D0008F00F0320F00F0003435D
:1021DC0086F83D304A60487B05F00F0620F00F0072
:1021EC0046EA00054D7300E0A56007F00FFD1548A9
:1021FC00606294F82D0080B913480068016840466D
:10220C00884701280FD0787B08F00F0120F00F00D1
:10221C00014379730D4E666205E005F0B5FE0028AA
:10222C00FBD005F087FB504607F0A2FD5146404617
:10223C0007F02CF8BDE8F08701010E04E442002001
:10224C00908300203D000000E00100106D72000042
:10225C002DE9FC4706467568D6F808802F780FB133
:10226C00AF6B1FB14FF0FF30BDE8FC872963002432
:10227C00EC77171C6C631BD005F13C0907F0B4FE1E
:10228C0082466946484605F0DFFE002820D45046B9
:10229C0007F0C2FF9DF80000296B0870686B296B72
:1022AC007F1E00F10100686301F101012963E5D192
:1022BC0069786A6B286B0129A0EB0200286305D1B1
:1022CC00E868296B0346304698476A6B144659E018
:1022DC00AF63D8F80010086B40F400700863D8F8AE
:1022EC000010886B40F4FA608863504607F094FF46
:1022FC0005F5DC7007F0A0F9687805F5DC7768BBAC
:10230C0007F072FE95F82D1069B1696B59B1A96B84
:10231C0049B1AC6307F080FF05F5DC7007F07CF980
:10232C00686BBDE8FC8707F077FF696805F5927666
:10233C00304607F0F2FC0028F2D0AC633046214660
:10234C0007F0EBFC0028EBD0384607F065F91022BB
:10235C00696B286BEA77401A2863E1E707F044FEC3
:10236C0095F82D1061B1696B51B1A96B41B1AC639A
:10237C0007F052FF05F19800012107F055FE01E02E
:10238C0007F04AFF2046BDE8FC8770472DE9FE4F59
:10239C000CAF1D468B465FEA02083E78009014BFD6
:1023AC004FF0804A4FF0005A07F01EFE0324DFF86E
:1023BC0004910190BBF1FF3F14D1D9F8A4100098FF
:1023CC0007F0DEFC58B9D9F8A810009807F0D8FC33
:1023DC0000280CBFD9F89470D9F8A87008E0D9F887
:1023EC00A47005E000985946002205F09FFF0746AF
:1023FC00002F59D097F8330030F07F0053D04C4663
:10240C00D4F8A400B84219D0D4F8A800B84215D01A
:10241C0000982A463346394602F0E2FD002842D0A5
:10242C0094F8200001283CD094F82000042838D0DF
:10243C00214904F1DC0007F0F7FD32E0D4F8A400E8
:10244C005346002205F090FFD4F8A8005346002212
:10245C0005F08AFFB8F1000F14BF1848184806F0B1
:10246C00A9FEB6B1D4F8A40000224FF0807305F099
:10247C007BFFD4F8A80000224FF0807305F074FFA6
:10248C003869C4F8D40094F8D80040F0010084F8FE
:10249C00D80035B1D4F8941000982A46334602F08F
:1024AC009FFD832400E00424019807F0B5FE20462C
:1024BC00BDE8FE8F90830020020000400100020462
:1024CC00010001042DE9F04FADF1140D02921D46EF
:1024DC000191DDF83CB00E9C009007F085FD464A5A
:1024EC006FF001084FF00109002392F840A203900D
:1024FC0009FA03F616EA0A0F6FD0B5F1FF3F18BFC1
:10250C00AB426AD1D8B207F09FFB002865D0877A1E
:10251C00002F62D192F84012B14382F840124F461C
:10252C008772009D437292F842120560491C82F832
:10253C004212019E06722E4F4760017A074601290E
:10254C001ED0022924D140F20361018290F9093096
:10255C00C17C5B1D21F00F0103F00F030B43C3740F
:10256C006379817C63F3C7018174C17CA37963F3C4
:10257C004611C174C17CE37963F30411C17407E0A3
:10258C000A20388297F90900401DB874A068786158
:10259C00BBF1000F08BF002012D09BF801009BF884
:1025AC00001097F90960134C4FF6FC75800040EA57
:1025BC004110711D40EA012005EA000144EA0100C6
:1025CC00B861029800B17860506808B938685060FA
:1025DC0004F064F897F9098002E05B1C032B87D3A5
:1025EC00039807F019FE404605B0BDE8F08FC046D1
:1025FC0087370000010004069083002000B5ADF180
:10260C00240DADF814100090009801900098801CD7
:10261C0002900198407800F03F008DF818009DF86A
:10262C00180000990830401803909DF81800009984
:10263C00801D401804900498007800F03F008DF83D
:10264C0019009DF8190005F09DF855E001980078E7
:10265C0000F00F00052855D19DF81800222851D103
:10266C000198029902F04CFD00284BD09DF81810EF
:10267C000298039AFEF7D6FF44E02948007850B13F
:10268C00039807F01CFA2749098806F0F4FB244943
:10269C000020087006E0039807F011FA2249098817
:1026AC0006F0D4FB9DF81800039901F033FE039853
:1026BC0000F05AFD0198007800F00300032821D1A6
:1026CC00029800788DF820000298401C07900AE0D0
:1026DC0001F074FE16E0079803F074FF12E00798FF
:1026EC0003F016FB0EE09DF820000028F7D0401EEA
:1026FC00F1D0401EECD005E00C480078401EA5D06F
:10270C00401EBAD0BDF814109DF81920009801F0A5
:10271C0053FCADF81600BDF8160009B000BDC0465C
:10272C000A8E0020D48D0020D68D0020D08D002064
:10273C002DE9F041454C05462078002800F08280B8
:10274C00B4F9B200B4F9B01088421DD004F1940170
:10275C0028460E4606F09CFA70B9D4F8A410284608
:10276C0007F00EFB28B906F10801284606F090FA8E
:10277C0001E0D4F8A40038B1B0F930100A224FF0BF
:10278C00E043284600F024FF07F02EFC804604F1BD
:10279C00B4000168A94219BF0026466000260660F5
:1027AC002078401EC0B2207000283BD1656094F8A0
:1027BC00200002280ED1082006F00AF8404607F047
:1027CC002BFD05F148004FF0FF3107F0A6FA07F09A
:1027DC000BFC804604F1DC0007F020FC04F15C00EB
:1027EC0007F000FC04F58C7007F018FC04F178007D
:1027FC0007F0F8FB04F5AA7007F0E6FB04F5CC70C3
:10280C0007F0E2FBE16911B104F14400884704F1DF
:10281C00300006F081FE0C480078012802D10E2011
:10282C0001F03AF9606805F14807854208BF666017
:10283C00404607F0F1FC384607F0ECFB05F1B00020
:10284C0007F0C2FBBDE8F0817AB100009083002054
:10285C002DE9F843434D444C3E4EDFF8FC80DFF845
:10286C0000910746012F44D13948006800680146A1
:10287C000120884701283CD096F83801002838D12F
:10288C0008342068C0F38140C8B940460068B0B134
:10289C0054F8080C000834BF4FF480504FF44050EB
:1028AC002E4908600A2007F089FB4846006901465A
:1028BC000120884706F1940007F08EFB01E006F03A
:1028CC0067FC0121206886F83811C0F3814010B9EB
:1028DC004046006848B907F0FDFA800905D280200F
:1028EC00A860286840F080002860032006F0E2F819
:1028FC002BE057BB03F03CFFA068C0F38140A8B9A4
:10290C004046006890B106F1940007F067FB206820
:10291C00000834BF4FF482514FF44151134A4846DA
:10292C001160006910B101460020884796F8380103
:10293C0058B12868802720F0800028600320AF6001
:10294C0006F0A0F8002086F838010020BDE8F883D6
:10295C00E0010010988800202CB10000A8A00C40C9
:10296C001CB1000090220840AC4F005028A10C4034
:10297C002DE9F84F0E4607465FFA86F9300824BF5A
:10298C003A484640DFF8E8A04FEA8908394C5AF833
:10299C00081007F4E02507EA0602B5F5E02F04EA73
:1029AC00020486EA010007EA000021EA0701C0F3ED
:1029BC00006044EA010401D1610E14D307F4E02154
:1029CC00084310D004F4E020B0F5A02007D0B0F5F7
:1029DC00803004BF24F4003444F4A02403E024F435
:1029EC00803444F4C0242448012505FA09FBC0F8BE
:1029FC0000B007F0F9FA5146220A41444A70230C00
:102A0C008B70220ECA7007F007FC1C4CDFF870802C
:102A1C0020682946002501FA09F4044218BF0D1C50
:102A2C0035B9F80D04D34146C6F3805001F80900BE
:102A3C00380E0DD307F0D8FA310E34BF0021211C0B
:102A4C000E4A1268A24311430C4A116007F0E4FBD2
:102A5C0035B1F80D04D34046C6F3805100F8091087
:102A6C000548C0F800B0BDE8F88FC046006000A073
:102A7C0000100840007F077FE0200260D020024059
:102A8C000020024008B58DF8000007F0BDFA9DF853
:102A9C000010401E884201DA002074E09DF800000E
:102AAC00394911F810008DF801009DF800003749E4
:102ABC0011F810008DF8020000208DF803009DF82D
:102ACC00010078B907F09CFA9DF80220401E002105
:102ADC00904201DA002000E0012000B101218DF8C4
:102AEC0003104EE09DF8010001280FD107F08AFA7F
:102AFC009DF80220401E0021904201DA002000E0E7
:102B0C00012000B101218DF803103AE09DF801007D
:102B1C0002280FD107F072FA9DF80220401E002106
:102B2C00904201DA002000E0012000B101218DF873
:102B3C00031026E09DF8010003280FD107F05CFA82
:102B4C009DF80220401E0021904201DA002000E096
:102B5C00012000B101218DF8031012E09DF8010055
:102B6C0004280ED107F052FA9DF80220401E0021D5
:102B7C00904201DA002000E0012000B101218DF823
:102B8C0003109DF8030008BD94AF000095AF000042
:102B9C0010B5ADF1480DADF8082001910090002062
:102BAC008DF82200BDF8082001990DF10A00FEF7FE
:102BBC00A3FE8DF823009DF8230048B19DF8230057
:102BCC00BDF808101630884202DC01208DF8220076
:102BDC009DF82200002859D09DF823100198401828
:102BEC000990BDF808009DF82310401A099982B28B
:102BFC000AA8FEF7E1FF8DF83C009DF83C0018B9DF
:102C0C0000208DF8220041E09DF82A008DF840004C
:102C1C009DF830008DF841009DF82B008DF8420096
:102C2C009DF831008DF843009DF8422000999DF8E5
:102C3C0041309DF843409DF8400012FB00F004FB2E
:102C4C0003004880009841880901418000999DF853
:102C5C000D0008709DF81C00009900F03C008010DD
:102C6C0048719DF81C10002011F0030F00D00120BA
:102C7C00009988710DF10E0005F044FE0099087161
:102C8C000098408810B900208DF822009DF8220091
:102C9C0012B010BD3F482DE9F04F001FADF1140DDF
:102CAC0000F1A40100F1940B8046029100F1A801FF
:102CBC0003914FF4804006F063FFE8B14FF00450ED
:102CCC00D0F89813D8F8046090F88503C3F38857AC
:102CDC00C1F31501C0F38002C1F31501B80501431E
:102CEC00B06841EAC2716A4600F0DEFCD8F8040014
:102CFC008168012006F0CAFA002702260DF10409AA
:102D0C00234D049759F8044F236883B320688069D6
:102D1C0006F036FF824620680023524605F024FB5D
:102D2C001AF00A0F08D1BAF1000F20D0206847F42E
:102D3C008047C8F8AC001AE020681449AB68806979
:102D4C00014023EA0100A8602068C1692A6822EAD0
:102D5C00010028602168102006F098FA21680BF118
:102D6C00080006F0A5F9049847F002072060761ECB
:102D7C00C8D127B108F1DC00394607F055F901F04C
:102D8C006FFBFDF797FE05B0BDE8F08FFDBFFFFFB1
:102D9C000C100440948300202DE9F8431D463C4B55
:102DAC009433089C1B68C3F38018DB0915D2038885
:102DBC00A3F6020343B141F21E069B1B04D000F1A3
:102DCC001A030B60C06903E000F112030B60406949
:102DDC00106000202860206056E00388A3F60203F0
:102DEC00F3B141F21E069B1B17D041F6E6769B1BF6
:102DFC0005D0876AC36A90F82460BC4603E0D0F81B
:102E0C0020C0436A002600F11A070F60C1691160E7
:102E1C00C5F800C02360007E0DE0466A836A01E0BD
:102E2C008669C36900F112070F60416911602E6059
:102E3C002360C67B007C00F00707286888B140F24D
:102E4C0003714FF6FF72052306F0BAF88146B9F10B
:102E5C00050F06DA3046394603F09DFA296841F829
:102E6C002900206880B140F203714FF6FF720523F0
:102E7C0006F0A6F80546052D06DA3046FF2103F0CC
:102E8C008AFA216841F825004046BDE8F883C0461F
:102E9C00402108402DE9FC4191EA03084CBF4FF05A
:102EAC0000484FF000084FEAC32545EA52554FEA57
:102EBC00C2264FEA43077F0D11BF45F000450021A4
:102ECC000020BDE8FC815FF4E06E1EF1FF0E77453B
:102EDC0055D04FEAC12343EA50534FEAC0224FEA80
:102EEC004104640D11BF43F0004300210020BDE8F4
:102EFC00FC81744543D0E419A3FB0501A3FB06E751
:102F0C00A2FB06631EEB030E57F1000751F1000103
:102F1C00A2FB05631EEB060E57F1000751F10001F1
:102F2C00FF1851F10001C01951F100014CBF4FF4D1
:102F3C00806E4FF4007E10EB0E0051F1000148BF83
:102F4C00641C01D4400049415FF44077FF37E41B17
:102F5C00DEBF00210020BDE8FC8117F58067BC4274
:102F6C000DD24FEAD02040EA41504FEA41014FEADE
:102F7C00113141EA045141EA0801BDE8FC8100200D
:102F8C00FF21C900C91D090551EA0801BDE8FC81F2
:102F9C0070B5324C0D46A80850D2E8085DD3012517
:102FAC000420657005F086FD2D480068006B804795
:102FBC00A060606804F194060146306870B1006945
:102FCC00064649B18E4207D0716AC90803D3036A19
:102FDC000421002298477575314661604868214983
:102FEC0000780860022005F065FD112000F0D2FE8B
:102FFC001D48007884F8205010B90E2000F0CAFE4D
:10300C0060684168886808B9C86810B1174806F04C
:10301C00AFFE17490720002608601649174B0E60B3
:10302C00154D4E600A68636245EA020008601A207A
:10303C0006F0DCFF192006F0D9FF70BDFEF76AFE22
:10304C00204600F19C01096811B903F027FB70BD03
:10305C00DC3045F0020106F0E7FF70BD90830020E4
:10306C008C010010D02108407AB1000051000706F5
:10307C0000000460141004400240004015210000C0
:10308C000EB5009000208DF8040055E0354800780E
:10309C00022864D006F046F88DF80400314902206D
:1030AC0008705CE02F480078032858D006F0A0FE8A
:1030BC008DF804002B490320087050E0009900980B
:1030CC00B1F80310401D04F0BFF98DF8040046E080
:1030DC0000990098B1F80310401D04F03FF98DF8E9
:1030EC0004003CE000990098B1F80310401D05F075
:1030FC0069F88DF8040032E000990098B1F80310DB
:10310C00401D03F08FFD8DF8040028E000208DF8A1
:10311C00040024E013480078022820D0009900987D
:10312C00B1F80310401D01F0A3FF8DF8040016E068
:10313C0003208DF8040012E0009880784038E5D028
:10314C00401EA3D0401EADD0C01EB7D0801EBFD035
:10315C000938D1D01038DDD01038C3D0E8E79DF84D
:10316C0004000EBD739A002000B5ADF1140D009053
:10317C000020019000200290002003902B48007842
:10318C00002850D02A4800680190009806F097FC5F
:10319C0003900398029027480399008840F2E2427A
:1031AC0002FB00100390214900200870224800689F
:1031BC0005F0DEFE04902148007801280DD11F494E
:1031CC000020087003981E4908601B490020086005
:1031DC001B48006804F038FE25E0019A0298049917
:1031EC00801A814210D21448006840F24131814269
:1031FC0003D911490868401C086012490320087063
:10320C001149032008700EE00D48039900688842AC
:10321C0009D003980A49086007490020086008484B
:10322C00006804F011FE05B000BDC046088E0020F9
:10323C00F88D0020D48D0020F48D0020098E002004
:10324C00048E002069A1002068A100202DE9F84F10
:10325C00994692460C46054606F0C6FE834605F096
:10326C00F1FF0AAF061C56D0DFF8BC8008F5CC7015
:10327C0006F0B4FEF460B8F9B00086F832A0401C39
:10328C006FF31F30A8F8B000C6F808903561B8F895
:10329C00B000308697E80300022303432348002242
:1032AC0042EA010720213940184006F1180713465D
:1032BC0087E8030006F1200787E80C0033648021BF
:1032CC0086F8331086F84430736386F838304FF044
:1032DC00FF37F763B364F36486F8503086F85130E7
:1032EC00207B00F00F00022804D1012086F8380062
:1032FC00A0687063444685F8F430314604F19400BC
:10330C0005F0D6FED4F89400864201D103F0C6F93C
:10331C00B6F9304001E06FF00104584606F07CFF2E
:10332C002046BDE8F88FC04690830020FFEFFF9F3A
:10333C0090B503AFADF1140D8DF81230ADF810202F
:10334C000191009038883A889DF81230BDF81040F1
:10335C000830411000EB917121F00301401A121A50
:10336C000C325A43A24201DD01204FE0388808306C
:10337C00411000EB917121F00301401AC0F10400DF
:10338C008DF8130001980290002003909DF8120014
:10339C00039988422DDD9DF813103888039B029AFF
:1033AC004018083000FB03200190019800210171A6
:1033BC000199487920F003004871019801994079EE
:1033CC0020F00C0040F00800487138880199C88042
:1033DC003B889DF8132001980199C018801808307B
:1033EC0008600398401C03909DF8120003998842D2
:1033FC00D1DC029801990860029800990860009845
:10340C0000214160024902980860002005B090BD7F
:10341C00804300202DE9F84307467D68BE6890463E
:10342C000C4606F0E1FD814630682B78026B02F405
:10343C00807203B11AB1484606F0EEFE56E005F56F
:10344C00BA7006F0CBFD2C620024EC776C6231680C
:10345C00086B40F480700863484606F0DDFE05F208
:10346C00B91006F0E9F84146384605F02BF905F29B
:10347C00B919A862A8B93846414603F0B9FCA87836
:10348C00D0B9A96805F1D40006F047FCE8B1AC62EC
:10349C001020E8773146284601F0C2FC05F2B9103D
:1034AC0022E006F0A1FD3268916B41F0200191639E
:1034BC0006F0B2FEA87810B12046BDE8F883A968E2
:1034CC0005F1D40006F029FC10B9686ABDE8F88350
:1034DC003846414603F08CFC1020AC623146E8774C
:1034EC00284601F09DFC484606F096F84FF0FF3058
:1034FC00BDE8F88300B5ADF1340DADF808200191AD
:10350C00009000208DF82200BDF8082001990DF1E3
:10351C000A00FEF7F1F98DF823009DF8230048B15D
:10352C009DF82300BDF808101630884202DC0120FB
:10353C008DF822009DF82200002844D09DF80D0043
:10354C00009908709DF81C00009900F03C00801058
:10355C0048709DF81C10002011F0030F00D00120C2
:10356C00009988709DF80B0000F0600040118DF8F8
:10357C0024009DF8240030BB9DF8231001984018BE
:10358C000A900A9800990078C8700A9800994078B7
:10359C00087100990A98801C0088491D08800A98B7
:1035AC0000990079C8710A98401D0B900098C07959
:1035BC00252805DC0098C1790B9804F0B5FA02E0D7
:1035CC0000208DF822009DF822000DB000BD704740
:1035DC002DE9F8430446994690460E1C44BF002042
:1035EC00011C5CD406F01CFD0546314680222046A9
:1035FC0004F09CFE071C04D097F8331031F07F01C7
:10360C0006D1284606F000FE02200021BDE8F88312
:10361C004FF0E0400A2107F1200640EA090941EA8F
:10362C00080896E8030008EA000019EA010608BF3A
:10363C0000281CD0284606F0E7FD07F1200003C83F
:10364C0004F1A80604F1A80508EA000809EA010932
:10365C0086E8000395E80C0007F1200696E80300C5
:10366C0007F120059943904385E8030014E00D48C9
:10367C00B968884203D0B968C4F8A010B86004F1E6
:10368C00980080E80003284606F0BEFD04F14800CF
:10369C004FF0FF3106F041FBA83494E80300BDE87D
:1036AC00F883C0464D6A0000F0B50E460021ADF11E
:1036BC00140D0191029103911446049103AB02AADB
:1036CC0004A9009101A9FFF767FB8325310824D2D7
:1036DC00E0B1039F87B10499C6F3150271B101984B
:1036EC0040F22B210280384605F019FC029804990F
:1036FC0002F0E0FD039826E0C6F3150240B10198F4
:10370C0000884FF6FF71814202D132E0C6F31502F8
:10371C00019802806280102029E0002829D00399AA
:10372C00A9B10499C6F3150699B101984FF6FF7229
:10373C000280084632462B2105F0F1FB02980499D1
:10374C0002F09AFE049815212180606012E0C6F305
:10375C00150670B102982B21324605F0E0FBFF28CC
:10376C0007D001984FF6FF7101806660142020800D
:10377C0000E00325284605B0F0BD7047ADF1100DF3
:10378C00009000208DF80400284900200870009853
:10379C0027490078087000982649407808700098EE
:1037AC0025498078087000982449C07808700098E2
:1037BC0023490079087000208DF808009DF8080056
:1037CC00252831DA9DF80800811000EB5170C010EB
:1037DC008DF80C009DF80800811000EB517121F060
:1037EC000701401A8DF80D0011499DF80C009DF849
:1037FC000D20095C01209040084207D00B4A10783C
:10380C00104B411C11709DF8041019549DF80400C4
:10381C00401C8DF804009DF80800401C8DF8080031
:10382C009DF808002528CDDB04B07047E88D0020FA
:10383C003543002036430020374300203843002016
:10384C0039430020204200202DE9FE4FDFF8C080D4
:10385C0098F8410200284FD0002501212C4698F8F9
:10386C00412201FA04F0104203D1641C032CF6D35C
:10387C0042E098F841221020A040104218BF0D1CC5
:10388C0006F0B2FB98F841221121A1408A4388F836
:10389C00412206F0C1FCE0B206F0D6F960B3877A9B
:1038AC0057B390F9099019490768012D446851F8EC
:1038BC002960019710D0017A02290DD100F1100175
:1038CC0091E8000C00274FF0805317EA0B0703EA2E
:1038DC000A0108BF002901D102F096FA012D04D08B
:1038EC00009600224FF0006303E000224FF00073BB
:1038FC00009201984946A04798F8410220B108F57A
:10390C008C70002106F090FBBDE8FE8F94300440D3
:10391C009083002000B5ADF1240D0392ADF8141086
:10392C0002900020049001208DF8160006F0CCFACD
:10393C00022803D006F0C8FA03280AD1BDF81400F7
:10394C00001F069002980699401804F0FDFB0490A5
:10395C002BE006F0B9FA04280DD1BDF81400401F75
:10396C00069002980699401804F0EEFB0490002093
:10397C008DF8160019E0BDF81400401F0690BDF834
:10398C001400401EADF81C0002980699401804F073
:10399C00DBFB0490BDF81C100298085C8DF81E002F
:1039AC00069A02999DF81E0050540498042104F0C4
:1039BC0043FF8DE80300039A9DE8030003F0A4FC89
:1039CC009DF8160020B1BDF81400001FADF81400CE
:1039DC00BDF8140009B000BD08B58DF800009DF8C5
:1039EC00000090B92B4800681C21002204F080FCD8
:1039FC00284800681D21002204F07AFC2548006844
:103A0C001E21012204F074FC43E09DF80000012803
:103A1C0012D1204800681C21002204F069FC1D48CA
:103A2C0000681D21002204F063FC1A4800681E2166
:103A3C00012204F05DFC2CE09DF80000022812D15C
:103A4C00144800681C21012204F052FC1148006843
:103A5C001D21002204F04CFC0E4800681E2100229F
:103A6C0004F046FC15E09DF80000032811D109482C
:103A7C0000681C21012204F03BFC064800681D2153
:103A8C00002204F035FC034800681E21002204F0DB
:103A9C002FFC08BD7C4300202DE9B043044606F002
:103AAC00A3FA28498146621892F84A01401EC7B20F
:103ABC00002F82F84A713ED1264800EB840004782E
:103ACC00408834F07F07804614D1E0090BD21E48A1
:103ADC0000688069014640468847404603F018FB61
:103AEC000228FAD121E001EB8801D1F86011002005
:103AFC0088471AE04FF08055D5F8B801006A0146A6
:103B0C0040468847D5F8B801806A01464046884748
:103B1C00D5F8B801006B01464046884701210B4A95
:103B2C000B48116001688908FCD304F03F0015288C
:103B3C0001DAFFF7B1FF484606F06EFB0020BDE846
:103B4C00B083C04698880020B80100102820086077
:103B5C002820084060AE0000F0B585686A7D2C49CD
:103B6C00ADF1140D42F000462B7DAC7D00964668FD
:103B7C000027FF2C41EA03024FF00203019202D00E
:103B8C00E87DFF2800D13FB1EA7DA87D11430423D5
:103B9C00039140F000400290FE2106F154004DF8D4
:103BAC002310694600F05EFA3066306E002808BFBC
:103BBC00381C2AD0174C29688C4214BF13220F22B0
:103BCC00697D04F0CFFE2868844214BF14221022B1
:103BDC00297D306E04F0C6FEA97DFF2902D0E87D58
:103BEC00FF2800D187B12868844214BF1522112206
:103BFC00306E04F0B7FE2868844214BF16221222DD
:103C0C00E97D306E04F0AEFE012005B0F0BDC0467B
:103C1C000000C0A00010004000B5ADF1140DADF8CF
:103C2C0008100090009845F2403101800098C021A6
:103C3C008170BDF808000099801DA1F8030006F002
:103C4C0043F9022808D1BDF80810009840180A3032
:103C5C000390039805F005F806F036F9032814D103
:103C6C00BDF80800401EADF808000099B1F803003B
:103C7C00401EA1F803000098BDF8081040180A3047
:103C8C000390039804F0D6FF16E006F01DF9042803
:103C9C0009D1BDF80810009840180930039003981A
:103CAC0004F02CFD08E0BDF80810009840180A300C
:103CBC000390039804F022FDBDF8081000984018FA
:103CCC000B300190019844F2405105F03DF9BDF8DC
:103CDC00080005B000BD7047034630B50020ADF1BB
:103CEC00140D019002460292039298685C7D42800A
:103CFC0001880492A1F60201C9B141F21E05491BCB
:103D0C0015D041F6E675491B012920D8417E012CBE
:103D1C0062F38201417606D0018B21F47C7141F46F
:103D2C003471018313E0018B62F30911F9E7417CD3
:103D3C00012C62F38201417405D0018A21F47C715B
:103D4C0041F4347102E0018A62F3091101825A755F
:103D5C0004A902AA03AB009101A9FFF71DF850B109
:103D6C00019800884FF6FF71814204D102980499A2
:103D7C0002F082FB03E00298049902F09BFA0448DB
:103D8C001830016809B10298884705B030BDC046AB
:103D9C0090830020F8B5064606F026F9264D074616
:103DAC00711991F84A01421C002881F84A213DD131
:103DBC00224C04EB8604267806F03F00152801DA25
:103DCC00FFF7E8FF648836F07F0014D1F0090BD2BE
:103DDC001B4800684069014620468847204603F08E
:103DEC0059FB0128FAD121E005EB8405D5F86011C7
:103DFC00012088471AE04FF08055D5F8B801C0690A
:103E0C00014620468847D5F8B801406A014620464D
:103E1C008847D5F8B801C06A014620468847012179
:103E2C00084A0948116001688908FCD3384606F035
:103E3C00F3F90020F8BDC0469888002060AE000061
:103E4C00B80100102820086028200840FEB54FF06B
:103E5C00805684684568D6F8D0112068C9688847B0
:103E6C00216822488A6B1040886340F2F271206806
:103E7C00204B41641E4994F8210094F82020085CE2
:103E8C009A5C216810434863684606F09FF81C4F03
:103E9C00DFF868E0D6F8D0112B7FDFF85CC06A7FC2
:103EAC00A87F496857F823705EF82260AA695CF80D
:103EBC0020300D46206801993E433343A8472168C2
:103ECC00C86A40F01000C8622168086B40F001001D
:103EDC000863A07D0027FF2802D0E07DFF2800D1D9
:103EEC001FB1086B40F440400863FEBD0DF8FFFFA6
:103EFC00D2B10000DEB1000030B10000B4B100005E
:103F0C0068B1000000B5ADF1240D03F0B7FE2048F8
:103F1C0005F06AFD1F49002008701F490020087039
:103F2C001E49002008701E49002008701D494FF4DE
:103F3C00612008601C4944F6206008601449002088
:103F4C0004F0A2F8194908601848006810B90AA0D2
:103F5C0006F056F9684605F0DEFD01208DF81800D4
:103F6C00134801216A4606F047F9114805F0D6FFBF
:103F7C001049086009B000BD4572726F72206F70F5
:103F8C00656E696E6720746865205541525400C097
:103F9C00484200205E4200205D4200205C4200202E
:103FAC005F420020604200204C4200206043002011
:103FBC00AC420020644300201FB58DF80A20ADF8F8
:103FCC000810009008208DF80B000098019000203C
:103FDC000390BDF80800039988421ADDBDF808204B
:103FEC0000980399BDF808409DF80B308018401AD2
:103FFC00039A009910F8010C0919C918891A01F8CB
:10400C00010C0398401C0390BDF8080003998842EA
:10401C00E4DC9DF80A00019908700198401C01909D
:10402C000D480188019804F08FFF0198801C0190C5
:10403C000A480199007808700198401C01900849C1
:10404C000198096804F0EAF99DF80B10BDF8080016
:10405C00401880B200901FBD008E002069A1002086
:10406C00EC8D00202DE9F0470E46071C14BF002EE6
:10407C00002042D0DFF888A04FF0FF31504605F009
:10408C004CFE3178DFF87C90FE2910D01F48026876
:10409C000020FF2906D08A422AD31E2928DC59F891
:1040AC0021502DBB401C16F82010FE29F1D1002404
:1040BC003C607C60BC603178FE291AD0351D4FF015
:1040CC000108FF290ED01F290CDA08FA01F049F873
:1040DC0021707A680C49104356F8242078603846D1
:1040EC0004F010FA15F8041B641CFE29E9D100E059
:1040FC000027504605F090FF3846BDE8F087C046D3
:10410C00A440002028400020007FC76780A1002029
:10411C00ADF1080DADF80210ADF800004FF0FF3016
:10412C008DF80400BDF8020010B14FF0FF3043E0F1
:10413C00BDF8000040F66211814203D125208DF8B4
:10414C00040037E0BDF8000040F67A11814203D13B
:10415C0026208DF804002DE0BDF80000B0F51B6F93
:10416C0003D127208DF8040024E0BDF8000040F6B0
:10417C00641181420FDCBDF8000040F678118142D9
:10418C0009DBBDF80000A0F6641000EBD070401005
:10419C008DF804000EE0BDF8000040F67C11814261
:1041AC0008DCBDF80000A0F6661000EBD0704010E3
:1041BC008DF804009DF9040002B07047244A2DE9E3
:1041CC00F0418046254C5068800806D2106804F1F6
:1041DC004D01000C40F0F00008701F484FF0012119
:1041EC004FF08057C0F8041407F5F8760088D7F81C
:1041FC00F0019568174F016828468847A80E03D22E
:10420C00680E24BF02202070306842682946404660
:10421C00904713480068C0F305313970410A39BF23
:10422C00402184F823104021E174800900F038000B
:10423C0040F46050A7F85C003068816828468847D5
:10424C00022004F091FA074901200860BDE8F081D2
:10425C00AC4F00500EB00C4000A00C40096208405E
:10426C000C140050940460420EB50191009005F0BE
:10427C0017FB23482349FFF7F5FE204908601F4828
:10428C00006810B914A005F0BBFF1F4805F0B0FF83
:10429C001E481E2104F04EFA182005F07BFC00226B
:1042AC00002100B1012101B9012214480068182134
:1042BC0004F01EF81648006801210022002305F0C6
:1042CC0093FF029002984008DFD30C48006805F079
:1042DC0020FA05F085FFD8E74572726F7220696E7F
:1042EC00697469616C697A696E6720626F61726466
:1042FC00204C45442070696E730A00C0884300202E
:10430C001443002078A10020A0860100BCB000005E
:10431C008C43002000B5ADF1140D0091ADF80C00EC
:10432C00009805F0CCFB0190BDF80C10009803F040
:10433C0067FF02901C480078012803D11B4900201C
:10434C00087027E01A48007818B118490120087045
:10435C0020E018480078032803D114490320087082
:10436C0018E0154901980968401AFA2803D90F4931
:10437C00032008700EE00F480078012803D10B4988
:10438C000220087006E00B480078022802D1074989
:10439C000120087005480749007808700298064902
:1043AC00086005B000BDC046D08D002069A100207A
:1043BC00088E002068A100206CA1002000B5ADF192
:1043CC00140D002004F092FC05F0F6FA00210622F0
:1043DC00684601F099FD00208DF80C009DF80C004A
:1043EC00062810DA9DF80C001B499DF80C20085C7F
:1043FC0002F80D009DF80C00401C8DF80C009DF887
:10440C000C000628EEDBFCF765FA05F057FD8DF87D
:10441C00080012499DF80800097802F0DDF9002027
:10442C008DF80C009DF80C00062810DA9DF80C0095
:10443C009DF80C10084A10F80D0050549DF80C0013
:10444C00401C8DF80C009DF80C000628EEDB04F0E7
:10445C0049FB05B000BDC046F8A100200B8E002022
:10446C002DE9F047254EDFF89890002501244FF0F8
:10447C00020A4FF01108E8B205F0E6FB071C38D031
:10448C00B87A012835D197F90900113004FA00F0F7
:10449C00C14346F8041C31680843306097F90900A1
:1044AC0004FA00F0C0B205F0DFF907F110000021AA
:1044BC0004F05EFC0146812909D1B86918B10021CC
:1044CC0004F056FC0146812908BF87F80AA081290F
:1044DC000FD0A9F1040097F9091090F8412208FABD
:1044EC0001F1114380F84112002100F58C7005F0A8
:1044FC009BFD6D1C032DBED3BDE8F0870C10044052
:10450C009483002008B502F0D9FD8DF8000028E056
:10451C0041F2103045E041F2503042E042F220606E
:10452C003FE042F230603CE04FF4195039E042F287
:10453C00506036E042F2526033E041F2523030E0EB
:10454C0041F253302DE041F212302AE042F2526037
:10455C0027E041F2533024E041F2123021E00020F8
:10456C001FE09DF900000B280EDC0B28E2D0002880
:10457C00CED0401ECFD0401ED0D0401ED1D0401E39
:10458C00D2D0401ED3D0EAE70C38DCD0401ED4D0B9
:10459C00401ED5D00938DFD0C01EDAD0401ED5D091
:1045AC00DDE708BD0EB50090009805F089FB1F49AA
:1045BC00086000208DF804001D480078022810D1F6
:1045CC001D481C490068096888420AD1012004F082
:1045DC00B9FB04F0B9FD8DF80400154903200870EF
:1045EC0003E003F073FF8DF8040013490868401CC6
:1045FC00086005F0E1F905F061FC8DF805009DF807
:10460C0004109DF8050000F06DF804F075FE04F040
:10461C0069FA0A480A490068096805F045FA074929
:10462C0008600648006804F050FC0EBD609A00203B
:10463C00709A00206C9A0020689A0020589A0020EA
:10464C005C9A00200EB58DF8040025499DF80420D5
:10465C00900000EB02100858009005F089FC0099BE
:10466C0088620099C87B40F00100C8730099C87B30
:10467C0020F00200C8730098FF2101830099887B09
:10468C0040F0020088730099887B40F00400887326
:10469C000099887B40F0080088730099887B40F073
:1046AC002000887300986FF0020181770099C87B15
:1046BC0040F08000C8730099C87B40F02000C8739C
:1046CC000099C87B40F04000C8730099C87B40F04B
:1046DC001000C8730099C87B40F00800C8730EBD69
:1046EC0010B100000EB58DF803108DF802000020FB
:1046FC00ADF8000001208DF804009DF8030025287A
:10470C0004D140F66210ADF8000030E09DF80300D3
:10471C00262804D140F67A10ADF8000027E09DF869
:10472C000300272804D14FF41B60ADF800001EE0F5
:10473C009DF803000A2807DC9DF80300400000F6F2
:10474C006410ADF8000012E09DF803000B280BDBA1
:10475C009DF80300242807DC9DF80300400000F6B8
:10476C006610ADF8000002E000208DF804009DF802
:10477C00040030B19DF80200BDF80010002203F0D7
:10478C00F9FE0EBDF0B520480127F84201D002F029
:10479C008BFF204D204F214EBD4206D203CD047815
:1047AC00A4003459401CA047F6E71D48002800D04F
:1047BC008047164D164FBD4202D210CDA047FAE7E6
:1047CC00F0BD03251BE0416808300A1C2A400BD1C0
:1047DC001A1C2A40AB4305D0046804300C60043129
:1047EC00043BF9D1131C05D0047801300C70013155
:1047FC00013BF9D1021C2A4001D0A84304300368C4
:10480C00002BE0D17047C046FFFFFFFF0000000007
:10481C000000000000B9000028B90000D4B8000066
:10482C0075F4021000B5ADF1140D8DE80C008DF887
:10483C000C1002909DE80C004FF000600021184015
:10484C0001EA020100D100292BD001F0DDFD04901A
:10485C001548006868B115489DF90C1090F90000D6
:10486C00884206D11048006801460498884702F037
:10487C0083FE0F489DF90C1090F90000884204D17A
:10488C000C4800680146049888470B489DF90C10A9
:10489C0090F90000884204D1084800680146049849
:1048AC00884705B000BDC04650A100204DA1002096
:1048BC00E0A00020DCA00020E8A00020E4A0002064
:1048CC00002A4AD05FEA000C8B071CD1830722D147
:1048DC00102A08D370B4103A78C978C0103AFBD2B9
:1048EC0070BC103238D0042A2CD3082A05D30C2AD9
:1048FC0024BF08C908C008C908C008C908C0920765
:10490C002AD0920F22E00B780370491C401C521ED7
:10491C0022D08B07F7D1C30714D18307D8D0121F2D
:10492C0012D308C903801B0C4380001D121FF8D240
:10493C000AE008C903701B0A43701B0A83701B0A28
:10494C00C370001D121FF4D2121D05D00B7803701A
:10495C00491C401C521EF9D16046704708B51948D5
:10496C0005F0E4F8184901200860184815490022A0
:10497C0005F032FC164805F0D9F8164902200860FB
:10498C0015481349002205F027FC144805F0CEF811
:10499C0013490320086013481049002205F01CFC41
:1049AC00114805F0C3F811490420086010494FF470
:1049BC00407008600F480C49002205F00DFC03F014
:1049CC0019F908BD6C41002084410020719300004E
:1049DC003041002048410020A16D0000E44100203E
:1049EC00FC41002075420000F44000200C410020E6
:1049FC0014410020D16B0000234838B5F03804680E
:104A0C00B4F1FF3F08BF002405F0F9F91F48154B1E
:104A1C000025103805601868806C804712480068C3
:104A2C0020B1124800682046FFF7C8FB1048114916
:104A3C000560114C0A686FF35B4244EA020008609F
:104A4C000E490868C0F30130012806D10A680C48E9
:104A5C00104040F400320A6008600A4908680028D7
:104A6C00FCD138BDF00100108001284380052043A3
:104A7C008C210840482003400000390128000940DF
:104A8C00EFFFFCFC0C0068420C14005094046042D4
:104A9C001E48007838B91F481D490278900000EB79
:104AAC000210085830E019480078012807D119483D
:104ABC0019490278900000EB0210085824E01348C2
:104ACC000078022807D1134814490278900000EBB3
:104ADC000210085818E00D480078032807D10D483B
:104AEC000F490278900000EB021008580CE00748C0
:104AFC000078042807D107480A490278900000EB97
:104B0C000210085800E000207047C046719A00203F
:104B1C0000AE0000729A0020D4AC000070AF000010
:104B2C0048AF00000CB100001E48007838B91F488F
:104B3C001D490278900000EB0210085830E019482B
:104B4C000078012807D1194819490278900000EB28
:104B5C000210085824E013480078022807D11348A3
:104B6C0014490278900000EB0210085818E00D4828
:104B7C000078032807D10D480F490278900000EB0C
:104B8C00021008580CE007480078042807D10748A1
:104B9C000A490278900000EB0210085800E000204F
:104BAC007047C046719A00200CAE0000729A00202B
:104BBC00E0AC00007CAF000054AF000018B1000066
:104BCC001E48007838B91F481D490278900000EB48
:104BDC000210085830E019480078012807D119480C
:104BEC0019490278900000EB0210085824E0134891
:104BFC000078022807D1134814490278900000EB82
:104C0C000210085818E00D480078032807D10D4809
:104C1C000F490278900000EB021008580CE007488E
:104C2C000078042807D107480A490278900000EB65
:104C3C000210085800E000207047C046719A00200E
:104C4C0004AE0000729A0020D8AC000074AF0000D3
:104C5C004CAF000010B100001E48007838B91F4856
:104C6C001D490278900000EB0210085830E01948FA
:104C7C000078012807D1194819490278900000EBF7
:104C8C000210085824E013480078022807D1134872
:104C9C0014490278900000EB0210085818E00D48F7
:104CAC000078032807D10D480F490278900000EBDB
:104CBC00021008580CE007480078042807D1074870
:104CCC000A490278900000EB0210085800E000201E
:104CDC007047C046719A0020FCAD0000729A00200B
:104CEC00D0AC00006CAF000044AF000008B1000075
:104CFC001E48007838B91F481D490278900000EB17
:104D0C000210085830E019480078012807D11948DA
:104D1C0019490278900000EB0210085824E013485F
:104D2C000078022807D1134814490278900000EB50
:104D3C000210085818E00D480078032807D10D48D8
:104D4C000F490278900000EB021008580CE007485D
:104D5C000078042807D107480A490278900000EB34
:104D6C000210085800E000207047C046719A0020DD
:104D7C0008AE0000729A0020DCAC000078AF000096
:104D8C0050AF000014B100002DE9F84F814600210E
:104D9C0000200A46C9F80000684600F009FBDFF85D
:104DAC007C8000264FF0FF354FF0190A3446074639
:104DBC00E0B204F049FFC8B1837ABBB1017A012695
:104DCC00022917D04246516892F842324069CA8A89
:104DDC000969891813FB0A1104F02EF9834605F0B2
:104DEC002BF8BBFBF0F0854288BF051C641C032C20
:104DFC00DED300E000251FB1012E04D0012F05D019
:104E0C00012E04D005E00098854200D9009DC9F818
:104E1C0000503E43F0B2BDE8F88FC04690830020AE
:104E2C00F8B50C46054605F0DFF82268916B21F0C9
:104E3C002001916305F0F0F9286E217D012202F02A
:104E4C0031FD286E217D012203F052FA286E217D5E
:104E5C00002203F087FD286EA17D002203F082FD65
:104E6C00A878012807D005F1D4004FF0FF3104F0E9
:104E7C0054FF206803E0206881690909FCD20D4EBB
:104E8C0086420CBF10221422217D286E03F06AFD8D
:104E9C00A17D0027FF2902D0E07DFF2800D13FB182
:104EAC002068864214BF15221122286E03F05AFD89
:104EBC00F8BDC046001000408B4208BF824204D9A6
:104ECC000B1C021C002100207047002B08BF002A7D
:104EDC000BD10B1C021C00210020002B08BF002A48
:104EEC001CBFC943C04301F048B8F0B51C46154679
:104EFC000B46024600200021B4FA84F6202E04BF93
:104F0C00B5FA85F62036B3FA83F7202F04BFB2FA30
:104F1C0082F72037F61BB6F1200727BF05FA07F4F6
:104F2C0000257F42B4403EBF25FA07F73C43B5400D
:104F3C00A34208BFAA4201D3521BA341404149419D
:104F4C006D0845EAC4756408761EF1D5F0BD2DE9EF
:104F5C00F04106467468B56805F046F88046A06ACC
:104F6C0058B928688169090907D2006B400A04D234
:104F7C00404605F051F9BDE8F08104F5BA7005F032
:104F8C002DF800274046A76205F046F9A97D384662
:104F9C00FF2902D0E97DFF2900D118B1204629460E
:104FAC00FFF73EFF05F020F82A68916B21F02001F5
:104FBC0091632A68116B21F48071116305F02CF94F
:104FCC0004F2B91004F028FB616A206A2769626A4E
:104FDC00401A2062216A3B4630469847BDE8F08172
:104FEC002DE9FE4F0190214800F19406376899464F
:104FFC0092460D460024804600E03F6897B3BD42C0
:10500C00FBD1D7F800B00198394604F0B9FE18B3BB
:10501C00384600224FF0805303F0A6F906F1080041
:10502C00B9F1000F00900ED0384600224FF080737B
:10503C0003F09AF9286998F8D830C8F8D40043F0EE
:10504C00010088F8D8003046394604F057F800982B
:10505C00394604F02DF8641CBAF1000F18BF5FEA52
:10506C000B07CED12046BDE8FE8FC04690830020B2
:10507C0000B5ADF1140DADF80810009002F0A2FAD5
:10508C00BDF80800062807DBBDF8080000EBD0715E
:10509C0021F00101401A03D004F09EFA03202BE00A
:1050AC00164840F2FF7102F08DFC009801900198B7
:1050BC000088ADF80A0000200390BDF80A0003999F
:1050CC00884216DDBDF80810009800F0F9F98DF84B
:1050DC0010009DF8100020B104F07EFA9DF810002D
:1050EC000AE00398401C0390BDF80A00039988421B
:1050FC00E8DC04F071FA002005B000BD903100200E
:10510C00ADF1080D0191009000980078800901D351
:10511C0000202BE01648007838B316480199007827
:10512C00097888421FD1144801990078497888423F
:10513C0019D11248019900788978884213D1104806
:10514C0001990078C97888420DD10E4801990078F0
:10515C000979884207D10C4801990078497988422D
:10516C0001D1012002E0002000E0012002B07047D4
:10517C000C8E0020F8A10020F9A10020FAA100203B
:10518C00FBA10020FCA10020FDA1002000B5ADF189
:10519C00140D8DE80C00ADF8101002900020039057
:1051AC009DE80C004FF400010020184001EA0201B8
:1051BC0000D1002903D0039840F0010003909DE832
:1051CC000C0000204FF48001184001EA020100D1CC
:1051DC0000290FD0039840F00200039004F074FEF5
:1051EC00022807D10A490948B1F9001000680022C9
:1051FC0004F0B2FB039838B10648006820B10548AA
:10520C00006801460398884705B000BD7043002034
:10521C007443002054A10020F8B51C4ED6F8600150
:10522C0001680120884701282ED0D6F82401184D9A
:10523C00C4683C21012200232846A047002808BF4F
:10524C00002022D02F8817F0010704D14FF0012045
:10525C00C5F80404288830688047012F04BF4FF03C
:10526C008070C5F804040D4A0A480B4F9369016815
:10527C001069D161A0EB9000C91A07FB01F3190C5E
:10528C00814228BF081C10610120F8BD800000106D
:10529C0000A00C403020094040420F0048960020EE
:1052AC000EB58DF804001F499DF80420900000EB0A
:1052BC0002100858009004F05BFE009949690860E0
:1052CC0000984169087920F0010008710098416943
:1052DC00087920F00200087100984169087920F0E3
:1052EC000400087100984169087940F008000871C1
:1052FC0000984169087940F01000087100984169E4
:10530C00087940F02000087100984169087940F054
:10531C004000087100984169087940F080000871DC
:10532C000EBDC0464CAF00000EB58DF804001F49F1
:10533C009DF80420900000EB02100858009004F037
:10534C0017FE009988620099C87B40F00100C87371
:10535C000099C87B20F00200C873009840F2FF71DE
:10536C0001830099887B40F0020088730099887B48
:10537C0040F0040088730099C87B40F00800C873A3
:10538C000099C87B40F02000C8730099C87B40F09E
:10539C004000C8730099C87B40F08000C873009926
:1053AC00C87B40F01000C8730EBDC046D8AC0000DE
:1053BC00DFF880C0F8B50B1C04464FF000050FD089
:1053CC00DCF894702E466FB1F868007B00F00F008B
:1053DC00022803D03F68002FF6D103E03E4601E0DF
:1053EC00DCF8946016B302B11660F068007B0125FE
:1053FC0000F00F00022819D1012B09D03069C28AA4
:10540C009CF8423200691921801813FB010103E05A
:10541C003169088DC9680918706B03F00DFE2060A6
:10542C0004F00AFD2168B1FBF0F000E000202060E0
:10543C002846F8BD9083002030B5204D45EA040184
:10544C00ADF11C0DC1F315040021019102910391E2
:10545C00049104A90091806802AA03AB01A9FDF78D
:10546C009BFC0146019802884FF6FF7090421DD1BB
:10547C0001B3039808B1049840B9D9B102982B2113
:10548C0005AA04F0E3F9FF2806D113E02B2105AAA5
:10549C0004F0DCF9FF280DD0C4F38850059C80057E
:1054AC006FF39F54044344F0004403E0A8052040EC
:1054BC0042EA0004204607B030BDC046FFFF3F0063
:1054CC0000B5ADF11C0DADF804100090BDF8040052
:1054DC00801E411000EB91708010ADF8060000208A
:1054EC000290BDF80600029988422ADD0098801CC3
:1054FC0003900299039800EB8100039003980490A9
:10550C0004980088ADF818000398801C0590059845
:10551C000088ADF81A00BDF8180040F2FF71814206
:10552C0001DA03200EE0BDF81800BDF81A1002F0E5
:10553C0083FB0298401C0290BDF806000299884239
:10554C00D4DC002007B000BDF8B51F4CA0F5C0603E
:10555C00D4F81011C4F82C010029B8BF4942002816
:10556C00B8BF404281422BDA4FF08057D7F8A401E4
:10557C00B4F81411154D40684FF47F4208230646C9
:10558C00009128463021B047D7F8A401B4F818117F
:10559C0040684FF4F8021223064600910421284675
:1055AC00B047D7F8A401B4F8281140684FF4406212
:1055BC000A230646009120212846B047012000E02E
:1055CC00002084F83001F8BD9888002000A00C4021
:1055DC007CB5204C3C3CE06B0068014604208847BD
:1055EC001B4D02281AD0032818D001282FD120686F
:1055FC00406803214FF040521C2306460091284678
:10560C000021B0472068406801214FF40072092343
:10561C000446009128460021A0477CBD20684068C4
:10562C0003214FF040521C230646009128460021CE
:10563C00B0472068406801214FF4007209230446EA
:10564C00009128460021A047022003F01BFA7CBDE4
:10565C0000A00C40E00100101B49B0B509684BF2EA
:10566C00F52250430027040A01F44021B1F5802FA4
:10567C0003D116480068800C00D38FB14FF08055D1
:10568C00D5F8EC010068804702F0FEFBD5F8E0117C
:10569C00C96888472111C01000B2484304EBE034BC
:1056AC000B48007830B90B48006820F07F40241874
:1056BC00640802E0084880F8407108480460210C36
:1056CC00416001278760B0BDB44F00508C1300506F
:1056DC00D889002010200940988800207C600C405C
:1056EC0010B5994201D1904233D050EA020404D152
:1056FC0041EA03046400002C2BD050EA410401D190
:10570C009C4226E04C006415641C07D15C006415B7
:10571C00641C03D1DC0FB4EBD1741AE0002B0CD455
:10572C00002916D4994214D190EA020401D4904273
:10573C000FE0002A0DD101240BE0002909DC8B427B
:10574C0007D190EA020401D4824202E0002800D181
:10575C000124EFF3008454BF44F0005424F00054AF
:10576C0084F3008810BD10B58B4201D1824233D036
:10577C0052EA000404D143EA01046400002C2BD04B
:10578C0052EA430401D18C4226E05C006415641C8F
:10579C0007D14C006415641C03D1CC0FB4EBD3744B
:1057AC001AE000290CD4002B16D48B4214D192EAA7
:1057BC00000401D482420FE000280DD101240BE03B
:1057CC00002B09DC994207D192EA000401D49042E3
:1057DC0002E0002A00D10124EFF3008454BF44F00E
:1057EC00005424F0005484F3008810BDADF1080D72
:1057FC008DF800009DF80000272802DC9DF80000C1
:10580C0035E09DF80000662801D125202FE09DF899
:10581C0000007E2801D1262029E09DF80000B42844
:10582C0001D1272023E09DF8000068280BDB9DF8B0
:10583C0000007C2807DC9DF80000683800EBD07075
:10584C004010C0B213E09DF8000080280DDB9DF8DD
:10585C000000B22809DC9DF800000B21803800EB19
:10586C00D07001EB6001C8B201E09DF8000002B0FD
:10587C0070470EB58DF8041000900098002214218A
:10588C0002F036FD00208DF805009DF80500082873
:10589C0022DA00980A21002202F02AFD9DF8050068
:1058AC009DF80420C0F1070002410098092102F084
:1058BC00010202F01DFD00980A21012202F018FDE0
:1058CC00082004F06FFB9DF80500401C8DF80500C6
:1058DC009DF805000828DCDB00980A21002202F064
:1058EC0007FD00981421012202F002FD4FF42F70E5
:1058FC0004F058FB0EBD704700B5ADF1140D04F06B
:10590C0013F8009004F064FC0190009840F60B0131
:10591C000B3001F011FAADF808000098009ABDF8B0
:10592C0008100B30FDF7F6FFADF8080004F096FAFE
:10593C008DF80E00104A9DF80E10009852F8312088
:10594C00BDF808100B309047ADF808000098BDF872
:10595C00081004F03DF9ADF80A00BDF80A000D304E
:10596C00ADF80C00019804F02FFCBDF80C10009859
:10597C0003F028F805B000BDDCB0000000B5ADF1B7
:10598C00140DADF80A20ADF808108DF80C001A496A
:10599C009DF80C20900000EB02100858009017495D
:1059AC009DF80C20900000EB021008580190BDF8F7
:1059BC0008000099C881BDF80A0000990882BDF85A
:1059CC000800BDF80A10FEF7A3FB8DF80D009DF939
:1059DC000D00B0F1FF3F06D09DF80C009DF80D10A6
:1059EC0000F0FAFE05E0BDF808000199A0F6FC00F5
:1059FC00887305B000BDC04648AF00004CAF000036
:105A0C00F8B5054604F0F0FA1D4C064604F1D80131
:105A1C000878A84304F1B40508702868002808BF6A
:105A2C00002706D02868B03004F089F9002700B1AF
:105A3C000127686838B1B03004F081F9002538438B
:105A4C0018BF01252F4694F8D800A0B9012F12D009
:105A5C00D4F8D40078B1416A89080CD3056A304671
:105A6C0004F0DAFBD4F8D40002210022A84700206D
:105A7C00C4F8D400F8BD304604F0CEFBF8BDC046E7
:105A8C0090830020F8B507460024081C08BF0124A9
:105A9C00002302B90123002F33D01AB197F84460C8
:105AAC00002E2ED080B190F844606EB17D6B016CED
:105ABC00AD08A5EB9105394604F0A8F92D1AB5F1FE
:105ACC00704F04DB002D02DC012C01D019E0012405
