:100000000040012059A5000039FB021039FB021005
:1000100039FB021039FB021039FB021039FB0210C8
:1000200039FB021039FB021039FB021039FB0210B8
:1000300039FB021039FB021011FB02100846704711
:1000400070477047FEE7808A7047704701488068B4
:10005000704700BFE4100020F2060001F315010014
:1000600001F00207D6BE898E2B52FF1983FF010CC7
:10007000F19F01930128B970010100300E90020335
:10008000FF18641B2002785634120F33BAAB15B533
:100090003FA10D43C5A70D63698415C4060100D4B3
:1000A0000B0020C5A7216110E118A101F50BA410D8
:1000B000031C08C0801D04121E0452FE28100349B0
:1000C0009C00006704126904129D041003319B0018
:1000D000004F041251041287041003099F00001BF3
:1000E00004121D04123704130D761811041289042A
:1000F00043EF764583C99975100383880F00FF018C
:1001000030062B7A5002030732050C2005E06EFD05
:100110000307C2010CA702083C21AE10051E944C37
:100120000300205404126004B20320636509D2A3C3
:10013000012C18A3001EE7A180300E464488509C75
:10014000601A00A38802000200DF7D804008FE04E0
:10015000000307311128601A9C10046CA882030761
:10016000C110321F10A307385C100921030F008053
:1001700000520798E0081E12CC94100393030080ED
:10018000052312E00CF200F0A46393030EB20448BE
:10019000500308B84E905511F4030010580000FCAD
:1001A0009BC2033062100E8138F103DC1220DC3276
:1001B00008DC1001D388FF0843F80CE4C200E4F027
:1001C000010FFC03FCE43251E410093F00A80400D5
:1001D00020B10100800A2312C40CE3D404E4F30626
:1001E000B101E4F23FF8E4400268500001E8F62A69
:1001F00017C42408A1000F3333004C02A0E8C454F4
:10020000038C05002064C412A40CE3B405E0F606D8
:1002100064C48388B80EF11DE0A101F105E0F63257
:100220001DC8A1E884023F006C06C8128C0CF717A9
:100230009C06C8F141E8300D2460204C6302500157
:1002400028530000538AFFBC900D2053A005A30241
:100250007B019860F825A06026148319010C33D126
:1002600007F8FD064004A3201888210C10051E94F1
:10027000540700206804127C04128804129404E3DA
:10028000A007FCA36209B44F7801A8063C015555AC
:10029000558604B229582325E50E12F044C1E8F230
:1002A0000318F73186B2054080028CD124083CFD4A
:1002B00044A004280104A000DC8B6C08DC12800C34
:1002C000FB099008DCB2014820041814DE510B939E
:1002D00012C20218228818F80100FFAABB04FD4CC4
:1002E0008C0431D088023F003409C412500CFB0941
:1002F0006009C4F13BD0FD3D78042720289C870489
:100300000A9C121C0CF7192C0A9C610EE1CC210EE0
:10031000F119CCFD3B640421D484023F00D00AA033
:1003200012F00CF719000BA0F11FD4D003070880BE
:1003300080FE15FE0EFF350A12CC902104612613B3
:1003400065A4EC110D43FF007F12EC1C210452F454
:10035000049EC0CA044181F006050100100C002073
:10036000100C1C122C18F2062C1C124818210452D6
:100370005004525804D003C011000008B7211012D5
:10038000781C210443A410046301004C4101300196
:10039000A3DF026612A024210452A80452B0045222
:1003A000B80452C00452C80470013DC5029E297CA5
:1003B000DDC504400100200D1312F82C2104430078
:1003C0000D045208045210045218045220045228FA
:1003D00004523004830000B0620464400302000051
:1003E000904F1C8339EC886101E5E5127C482104BB
:1003F000528404528C04529404529C0452A404610A
:1004000078F1BF01A518F20E01E15008C1470000C4
:10041000214800008B472903250152000110077075
:10042000020020C80C00200111C301000112801835
:100430002104D2000153FF7F1260016CDC021C1208
:10044000342852030DF004017F840000C58450213C
:100450000152F850A11CA10CF3017C0D7052AC1498
:1004600020023411002004523C04120815839C56CB
:100470003012820C12B804F300BC564413200165FC
:10048000F3019C545C25000002001000000002C033
:090490001300000002801000209E
:1010000001000000000000000000000000000000DF
:10101000FFFFFFFFA00C0020040000000000000004
:101020000000000014000000B0A400001800000040
:10103000F0A50000C0100000F40B00200400000028
:1010400000000000000000002400000098A4000040
:1010500018000000B582000008000000B011000078
:1010600074100000C1C8021001BB021091EB021005
:10107000DDE5021081E00210B9E5021071E5021011
:10108000300000000100000002000000F8A5000090
:1010900000000000FFFFFFFF780C002004000000AC
:1010A000000000000000000028000000C4A20000B2
:1010B000240000001E0000001800000000000000D6
:1010C00028130000D41000009BEC021025E202104F
:1010D00005EB021025DE0210FDE10210E1E4021032
:1010E000350000003400000024002900000000004A
:1010F000D40B0020FFFFFFFFC00C00200400000005
:10110000000000000000000038000000D8A100002E
:10111000280000000100000010000000600C00200A
:101120000000000079A3000000001A001000000079
:1011300004000000D4A50000BA130000080000005D
:1011400036000000800C0020C80C002009001D00A3
:1011500043000000180C00200100000000001200F5
:10116000FFFFFFFFB00C00200400000000000000A3
:101170000000000010000000C8A4000018000000DB
:101180000000000000001300FFFFFFFF280D0020FB
:1011900004000000000000000000000054000000F7
:1011A0009C9F00003C000000000001003400000093
:1011B000041000004B0000002F000000C59B000041
:1011C000B0110000D811000059D20210D9DB021072
:1011D00059EC0210CDD6021085DE02104DE502104A
:1011E00029E502102F000000000016000200000098
:1011F00000000000FF7F0000300D0020FFFFFFFF18
:10120000A80C002004000000000000000000000006
:101210005800000010A000003400000039FB02104C
:101220000100350006000000000000002000000062
:10123000010000001BF80210280000002813000025
:101240005012000093EC02106DEB02104DEC0210F6
:1012500029E00210BDE4021099E4021034000000FD
:1012600000000000500C00200400000000000000FE
:101270000000000010000000DCA000002C000000B6
:10128000000000000000030000000F003C00000010
:1012900000000000000000002FF902101000000004
:1012A0000800000070A50000FFFFFFFFB80C002041
:1012B0000400000000000000000000001C0000000E
:1012C000E8A20000240000003C120000EC0B00200B
:1012D0000400000000000000000000000C000000FE
:1012E00080A4000018000000B913000001000000F5
:1012F00000000000080000000100000004000000E1
:10130000000000000000140000000000F8A400002D
:101310000000190000001800240000002DA60000A5
:101320000040000000020000041000000000100057
:1013300055F002100C000000EB82000000000000DD
:10134000CC0B0020040000000000000000000000A2
:1013500020000000ACA000003000000010A500003C
:101360000100000061840000450000000000000052
:101370000000170000020000300000000000230001
:101380000000150001000000C0110000580C0020F2
:101390000400000000000000000000002000000029
:1013A000A0A200002400000028A50000600C00207E
:0E13B000200000000CA30000704700027047F0
:1013C0002D820000EB840000EF840000F384000015
:1013D000F7840000FB840000FF840000A99A00004D
:1013E00045A00000599F000079A0000029A400003A
:1013F00035A1000065A4000009A1000041A500007E
:10140000C1A50000F988000070B504460D4602F041
:101410000EFD2968002604E00A69A24208BF0E46B4
:1014200009680029F8D102F023FD304670BDDFF8CD
:10143000840C90F833200021130604D401EB8102C0
:1014400000EB0210704790F8832001211306F5D5B8
:1014500090F8D32002211306F0D590F82321032120
:101460001306EBD590F8732104211306E6D590F806
:10147000C32105211306E1D590F813220621130696
:10148000DCD590F8632207211306D7D500207047DA
:101490002DE97043064614461D4602F0C8FC6EB1A5
:1014A000D6E90A2322432B43C6E90A23D6E9088951
:1014B00048EA040449EA0505C6E90845BDE8704361
:1014C00002F0D6BC10B50129044698BF012102F0F4
:1014D00027FD2046BDE8104002F024BD38B5044683
:1014E0000D4602F070FAA04231BF241A641E241A7D
:1014F000641CA40805F57A70A04238BFB4F1405FBF
:1015000005D2641B012C98BF0124204632BD002067
:1015100032BDDFF8081C0A680020D30705D5DFF8C4
:10152000000C0068C00900F001007047F8B50446DF
:1015300002F07DFC0546002C1CBFA07A00282AD0B2
:1015400094F909600127FFF7E4FF07FA06F658B19E
:1015500094F90900DFF8CC1B4A68113007FA00F053
:10156000C04302404A6008600020A07220722060E0
:101570006060C4E90400DFF8781CA06194F90900F8
:101580000A788740174388780F7008B1401E88702A
:10159000F0B200F0E1F938E12DE9F84FDFF8884BBF
:1015A000DFF8806BDFF84C8C04F198000027009086
:1015B0004FF011094FF0010AF8B203283EDA08EBA8
:1015C000401000F52075A97A012937D195F9090055
:1015D00011300AFA00F0C143316072681043706044
:1015E00095F909000AFA00FB02F021FC217C4BEA84
:1015F0000101217402F03CFC002105F1100001F012
:1016000056FE81280DD1A86940B12178022908D160
:1016100002F096FC00F0FF00012802D10220A8721F
:101620000CE098F8E10295F9091009FA01F1084374
:1016300088F8E1020021009802F050FD7F1C032F82
:10164000BAD3BDE8F18F2DE9F84F05460E46934613
:10165000994602F0ECFBDFF85C2A009002F5387343
:101660006FF0010893F800A00024012101FA04FEA4
:101670001AEA0E0F28D04FF0FF37B94518BFA14521
:1016800022D1E0B203281FDA02EB401707F52077DA
:10169000B87AC8B92AEA0E001870B9727C729878C4
:1016A000401C98703D603E72DFF84C0B7860397AD0
:1016B0000A9801290CD10A21398297F90920521D73
:1016C000BA74806878611EE0641C032CCED33DE0C0
:1016D000022918D140F20361398297F909107A8AF8
:1016E000491D61F30B227A8241797A8A61F3C7023C
:1016F0007A8281797A8A61F34E327A82C079798AE4
:1017000060F30C31798200220B9878B1027841782D
:1017100097F90900520142EA8102401D42EA002283
:101720004FF6FC710A40DFF8EC0B0243BA615FEA46
:101730000B02DFF8F41918BFC7F804B0486B08B9FA
:101740003A684A6300F085F997F90980009802F039
:101750008FFB4046BDE8F28F38B504281ED1DFF874
:10176000C84904F58275284602F0CBFBB0B1284683
:1017700002F0C5FBDFF8A01B0A685043B0F5967F66
:101780000CD2284602F0D0FB052002F013FE012007
:101790006073042104F1480002F0A0FC002032BD77
:1017A000F8B5044602F043FBDFF80879054697F8E0
:1017B0000C0320EA040407F53A7687F80C4300246A
:1017C000306820B1803002F09CFB00B101247068C9
:1017D00020B1803002F095FB044316D197F80C033A
:1017E000002808BF002C10D1306A70B190F8241086
:1017F0008A070AD5046A284602F03AFB306A0022BA
:101800000221A04700203062F1BD2846BDE8F24029
:1018100002F02EBBF0B400290CBF01230023002AE4
:101820000CBF01250025002839D02C0004BF90F8FA
:101830004440002C33D000291CBF91F84440002CB8
:1018400012D0446B0E6C07690969A408A4EB9604D6
:101850000026B94218BFFE68A41B04F18054B4F1FD
:10186000805F88BF012301D8190018D0BAB1D168B0
:101870000C7B04F00F04022C11D1516B046C126923
:1018800000698908A1EB94010024904218BFD46834
:10189000091B01F18051B1F1805F88BF012503EA86
:1018A0000500F0BC7047F8B51E466FF002078DF8D2
:1018B0000070054634682246FFF7ACFF10B10120E6
:1018C0008DF800009DF90000B84201BFE968087B6F
:1018D00000F00F0002280CD100E024684CB122680F
:1018E00021462846FFF796FF0028F6D002208DF803
:1018F00000009DF90010B94204D1E86B10B1042139
:101900008DF800109DF90070012F04D12946304652
:1019100003F085F80FE0022F07D12268002A29463C
:10192000304606D003F053F805E0042F03D12946D2
:10193000304603F05FF83846F2BD0020704710B51E
:10194000044602F074FADFF8E0170A7C14430C74C2
:10195000BDE8104002F08CBA38B5044602F067FAD0
:101960000546DFF8C407017C21EA04040474027C04
:10197000110703D40821483002F0B0FB2846BDE827
:10198000324002F075BA2DE9F84F81460020C9F8BF
:1019900000000024DFF890677069D0B1C1680A7B4D
:1019A000012402F00F02022A13D10169DFF8043783
:1019B0000A69C98A93F8E232406B5118192212FB66
:1019C0000311FFF78BFDDFF850190A68B0FBF2FB3B
:1019D00001E04FF0000B00254FF0FF3A0027DFF841
:1019E000D486F8B203281DDA08EB401101F5207205
:1019F000907AB8B1107A012502281CD0706B016969
:101A0000C08A98F8E2320918192010FB03115069B6
:101A1000FFF764FDDFF800190A68B0FBF2F05045EB
:101A200098BF82467F1C032FDBD32C4206D0D345C0
:101A300005D9D34603E04FF0000AF6E714B1C9F820
:101A400000B002E00DB1C9F800A02C43E0B2BDE83F
:101A5000F28F7CB5DFF8D0462178022903D1192016
:101A600002F0E9F973BD217801291CBF2078042810
:101A70001ED002F0DCF905466846FFF784FF04F546
:101A8000827678B1009820B101463046FFF71AFD02
:101A90000BE0304602F048FA042104F1480002F05D
:101AA0001DFB02E0304602F03FFA284602F0E0F962
:101AB00073BDF0B585B001460022039201920492F5
:101AC00002920025487DDFF8302C136803F4402390
:101AD000B3F5802F05D1DFF8782C13689C0358BF2D
:101AE00001258C680022628040F6020623889B1B39
:101AF00009D041F21E069B1B05D041F6E6769B1BE2
:101B0000012B11D920E0238A4FF6FF3213402382A4
:101B100020B14FF60F400340238215E02D201A46D6
:101B200060F3091222820FE0238B4FF6FF3213403D
:101B3000238320B14FF60F400340238304E02D2080
:101B40001A4660F3091222830020487502AE0096FF
:101B500004AB01AA03A9204601F067FC50B1039829
:101B600001884FF6FF72914204D10299019801F069
:101B7000F8FB03E00299019801F024FCBDB3019C3D
:101B800004B9FEE750234FF6FF720B21204602F006
:101B900001FA0546502D2ADADFF8D87BF86801688B
:101BA000884702F0E3FF0646DFF87C0546643046CE
:101BB0003968CA689047000440F00B0044F82500DB
:101BC00044F20403DFF8B00B016801F54071816253
:101BD0000268DFF8D41CA2F54072C26244F20C0025
:101BE0000A8802409A4204BF304602F0D8FF05B08E
:101BF000F0BD2DE9FC41DFF830556869040000F0C4
:101C0000D481A96A002940F03882696A91B1696A71
:101C10000A6921698A4215D194F83320D10611D579
:101C20006A6AD36859880029FAD0696ACA685188F3
:101C30000129F5D021696A6B914200F0B8814FF417
:101C4000806114E2C1680A7B02F00F02022A04D00C
:101C500000680028F6D1BDE8F3810A7B02F00F028C
:101C6000022A07460ED10169CA68098D406B5118D6
:101C7000FFF734FCDFF8A0160A68B0FBF2F1002988
:101C800040F08D81DFF8240C4468002C00F0F581D1
:101C9000A96A686A05F11C0305F11402A04702282D
:101CA000DFF8106440F0C080686A696AB0F93040BB
:101CB000D1F8108002F0BBF84FF0FF318C4207469C
:101CC0000FD1686A20B10069404508BF6C6A5DD0D9
:101CD000A86A20B10069404508BFAC6A56D06C695B
:101CE00054E0B6F930100020A14202BF33690093DE
:101CF000434547D006F180010120B1F90020A242FE
:101D000002BF326E009242453CD0B1F95020022011
:101D1000A24202BF096B0091414533D006F58071A4
:101D20000320B1F92020A24202BF0A680092424576
:101D300028D0B1F970200420A24202BF096D0091A1
:101D400041451FD006F5D0710520B1F92020A242EF
:101D500002BF0A680092424514D0B1F970200620F3
:101D6000A24202BF096D009141450BD006F51071EA
:101D70000720B1F92020A24202BF09680091414525
:101D800040F0088100EB800106EB0114002C00F00C
:101D9000018194F83300010640F1FC80686A8442B6
:101DA0001CBFA96A8C4214D001230122214640465F
:101DB00001F045F900281FBF287801282978042957
:101DC00000F0E880DFF8DC1B05F1480002F086F93E
:101DD000E0E0686A00224FF00053FFF759FBA86A61
:101DE00000224FF00053FFF753FBDFF8BC0B02F06B
:101DF000A7F8686A00224FF08073FFF749FBA86AD2
:101E000000224FF08073FFF743FB06F54270216913
:101E10000279016042F00102027101236969012225
:101E2000404601F00CF9B5E0012840F02681B7F9F1
:101E30003040D7F8108001F0FAFF4FF0FF318C42AC
:101E400007460FD1686A20B10069404508BF6C6A37
:101E50005CD0A86A20B10069404508BFAC6A55D083
:101E60006C6953E0B6F930100020A14202BF33691B
:101E70000093434546D006F180010120B1F90020CE
:101E8000A24202BF326E009242453BD0B1F95020CF
:101E90000220A24202BF096B0091414532D006F5F3
:101EA00080710320B1F92020A24202BF0A6800928B
:101EB000424527D0B1F970200420A24202BF096D2B
:101EC000009141451ED006F5D0710520B1F92020C2
:101ED000A24202BF0A680092424513D0B1F97020B5
:101EE0000620A24202BF096D009141450AD006F5C5
:101EF00010710720B1F92020A24202BF09680091A9
:101F0000414547D100EB800106EB0114002C41D084
:101F100094F8330001063DD5686A84421CBFA96A63
:101F20008C4213D0012300222146404601F087F85D
:101F300000281FBF28780128297804292AD0DFF833
:101F4000641A05F1480002F0C9F823E0686A00222B
:101F50004FF00053FFF79CFAA86A00224FF000539D
:101F6000FFF796FADFF8400A01F0EAFF686A0022FC
:101F70004FF08073FFF78CFAA86A00224FF080734D
:101F8000FFF786FA06F5427002792169016042F096
:101F9000010202713846BDE8F64101F069BF05F55E
:101FA0008270BDE8FC41FFF78DBA02215FE000F1CD
:101FB0000C063068017B01F00F0102291BD170680B
:101FC0003C4A0169C08A92F8E2320918192010FBD4
:101FD0000311B06AFFF782FACF490A68B0FBF2F04A
:101FE00048B1686A002804BFA86A002803D1BDE888
:101FF000F64100F048BC0820FFF7A1FC94F833003C
:10200000C10605F1140003D502F0CDFCA86202E080
:1020100002F0C9FC6862D4E90601424FC043B860CF
:10202000FA68D4E906010243FA60D4E90623DB43E7
:102030003B607A68D4E9060141EA020078603468BE
:10204000204601F07DFF208840F60201401A08D0AA
:1020500041F21E01401A04D041F6E671401A0128EF
:1020600003D82146012000F01CFB4FF0804105F110
:102070004800BDE8FC4102F031B8BDE8F381DFF86B
:10208000D00A416B8A6801F1300300E002465068D3
:10209000002818BF9842F9D1507B10F00F0F02BFF3
:1020A000488E40F60901884201D101207047002086
:1020B00070470000284A0020F8B51B4EDFF8940A4C
:1020C000756A01F0BAFF0446DFF88C0A02680768F7
:1020D00002F02002224018BF002D07F460270BD029
:1020E0001346F56200222846FFF7D2F94FF48041EB
:1020F00006F1480001F0F2FF3C400ED0DFF85C0A28
:1021000090F8E11241EA544480F8E14206F1980067
:10211000BDE8F440002101F0E1BFF1BD40210840DD
:102120000000044008100440C40E00202DE9F843CC
:10213000DFF8E89199F8E102002400284CD099F8E2
:10214000E1020026C1073DD599F8E1021021B14016
:10215000084218BF012401F06AFE99F8E112112229
:10216000B240914389F8E11201F082FE032E33DA86
:1021700009EB461101F52072907A68B392F9098053
:10218000DFF8DC1901EB8801002C0D681668576830
:1021900004BF107A022803D1D2E90401C30009D494
:1021A0001046FFF7C3F92CB10020009000224FF039
:1021B000007303E0009500224FF000634146304673
:1021C000B84709E099F8E10201268107BCD499F8E3
:1021D000E10202264107B7D499F8E10230B1BDE827
:1021E000F4430021DFF87C0901F078BFBDE8F183FA
:1021F000084D0020284A0020C72600002DE9F84F8E
:102200000FF21C1284B0D2E90030CDE900304FF05B
:10221000000A4FF4804001F08DFEB8B1DFF84809A4
:10222000D0F813100078C1F31501800841EAC0719D
:10223000DFF81C09436B986802AA01F08DF9DFF8FA
:102240001009416B8968012000F02BFA6C464FF0B1
:102250000209DFF80469DFF8F8B827683868002851
:1022600045D03868D0E90623104601F063FE3D688A
:102270000021CDE90201804601F0D9FD84467DB1FF
:10228000D5E90A23DDE9020110431943C5E90A0132
:10229000D5E90823DDE9020110431943C5E9080126
:1022A000604601F0E5FD18F00A0F18D03868B268F2
:1022B000DFF8B838D0E9060118408243B2604AF02E
:1022C000020A38683268D0E906018A4332600BF1AD
:1022D0001C00396802F08EFB0020386007E0B8F17E
:1022E000000F04D03868CBF82C004AF4804A241D33
:1022F000B9F10109B1D15FEA0A011CBF0BF1480035
:1023000001F0ECFEFFF748F9FFF773FC05B0BDE8FC
:10231000F08F000001000406C0560020284A00206B
:10232000E80E0020EC0E00202DE9F04FDFF8487495
:10233000DFF84044DFF8185883B0B869F9690840FD
:102340000290E0680168884702F010FC8346686CE0
:10235000834500F02581C5F844B058462168CA6815
:1023600090470646287802281CBF2978042940F0A7
:102370000B81686A002804BFA86A002800F0F98071
:10238000686A696AB0F93040D1F810A0DFF8CC97DC
:1023900001F04DFD4FF0FF318C4201900FD1686A82
:1023A00020B10069504508BF6C6A5FD0A86A20B1AF
:1023B0000069504508BFAC6A58D06C6956E0B9F95D
:1023C00030100020A14202BFD9F8103000935345CD
:1023D00048D009F180010120B1F90020A24202BFDA
:1023E000D9F86020009252453CD0B1F9502002202B
:1023F000A24202BF096B0091514533D009F58071AB
:102400000320B1F92020A24202BF0A68009252457F
:1024100028D0B1F970200420A24202BF096D0091BA
:1024200051451FD009F5D0710520B1F92020A242F5
:1024300002BF0A680092524514D0B1F970200620FC
:10244000A24202BF096D009151450BD009F51071F0
:102450000720B1F92020A24202BF0968009151452E
:1024600040F0848000EB800109EB0114002C7DD04A
:1024700094F83300010679D5686A84421CBFA96AC2
:102480008C424FD06869A046044600E02468002CC6
:102490006CD04445FAD12069504567D101F0C7FCA2
:1024A0000246D4E90A0141F08053C4E90A03D4E9A1
:1024B000080141F08053C4E90803104601F0D8FC3C
:1024C00001F0B5FC0246D4E90A0141F08073C4E989
:1024D0000A03D4E9080141F08073C4E908031046F7
:1024E00001F0C6FC09F54270D8F8101002790160BD
:1024F00042F001020271214605F1140002F0A4FA33
:10250000214605F11C0002F075FA287801281CBF4D
:10251000297804292AD0DFF88C1405F1480001F04D
:10252000DDFD23E0686A00224FF00053FEF7B0FFA4
:10253000A86A00224FF00053FEF7AAFFDFF86804F4
:1025400001F0FEFC686A00224FF08073FEF7A0FFE6
:10255000A86A00224FF08073FEF79AFF09F54270D7
:1025600002792169016042F001020271019801F0D3
:102570007FFC4FF6FC70064046F0C166686B002297
:1025800046F0010100F0A7FEC7490A8844F20C009A
:10259000024044F204039A4204BF584602F0FFFA94
:1025A000386800F54070B8623968A1F54071F96289
:1025B0000298F9690140F961FA690242F9D100F023
:1025C00073BE38B5DFF88845B4F93000B4F932107D
:1025D000884210D101F02BFC0546207C00F0F7006A
:1025E0002074207C010704D4082104F1480001F084
:1025F00075FDFFF7C3B931BD0720FFF7D1B8F8B5B6
:1026000007460E46D7F870C014461D46BCF1000FB1
:1026100018BFE047D7E91A0104EA000215EA0103EE
:1026200008BF002A2DD0DFF83445002504F1100C36
:10263000BCF92000B04204BFDCF80000B84203D16E
:102640009CF8230000061DD40CF150006D1CB0F95D
:102650002010B14204BF0068B84203D19CF8730057
:1026600000060FD46D1C082D0CF1A00CE0D3C7E9B7
:102670001E230020386707F14800BDE8F24002F051
:1026800003BBF1BD05EB8506C7E91E2304EB061469
:10269000D4E9080190439943C4E908013A6FA26064
:1026A000E7E730B40A46DFF8441A4B681C001CBF49
:1026B0008968014205D0DFF898540146686B30BC48
:1026C000184730BC7047704780B501F005FDDFF852
:1026D000342C0146506B5268BDE808401047DFF8C3
:1026E000240C0FF28D424168914208BFFFF7B1B947
:1026F0000421483001F0F2BCB44F005038B54FF01F
:10270000FF3001F017FCDFF848540FF26541044632
:10271000686888420FD10022DFF8EC1B05F17C00CD
:1027200001F08BFB02202870FFF7A9FC18B9FEF717
:1027300033FFFFF75EFA9B48044207D005F14800DB
:10274000BDE834404FF0005101F0C8BC31BD00007D
:102750008C13005080B54FF0FF3001F0EBFB800789
:1027600007D5BDE804404FF40061DFF8A00B01F08D
:10277000B5BC01BDE0010010305009402DE9F04129
:10278000DFF8CC73FC69002C7BD0E168082040F6B0
:10279000040240F6030301E04968401E61B1C5B27E
:1027A00055B10D889D4218BF9542F5D12369182275
:1027B00003F1300002F07AFAD4E90A234FF000085E
:1027C000C4E90A88A06858B1B4F9301013F0E240A7
:1027D0002069A5681CBF02F0000203F0E243A8478D
:1027E00001F025FB0546788E401CC0F30B0078866F
:1027F00084F833806FF00201218607F11C0002F09B
:10280000D2F8284601F034FBB7F93200B7F930109E
:10281000884236D1DFF8F80A7A6B0568466892F884
:10282000A4100024052001B10720FEF7B9FF2DB147
:1028300095F8A40000B92C6885F8A4803EB196F8FC
:10284000A40008B9D6F80080002086F8A40044450A
:1028500038BF444644B9B7F93000B7F9321088425E
:102860000FD1BDE8F0410EE014F1010F09D010487E
:102870000168B4FBF1F107F59470BDE8F041FEF793
:1028800021BEBDE8F0810820FFF766B8DFF8742AA2
:1028900011780020022904BF516A002902D1916AEF
:1028A00001B901207047000000A00C4008A60000FC
:1028B000C056002038B50D46A807A54C0FD5FFF728
:1028C0005DFFE06938B145F0020104F14800BDE860
:1028D000344001F003BCBDE83140FFF7BAB86807E7
:1028E0005ED50121A174042001F064FDDFF8240A03
:1028F00001680A6B9047A063606988B10569606BE5
:10290000002818BFA8420AD095F82400410704D532
:102910002B6A0022042128469847012068756563C8
:10292000606B4168DFF8F0090A780260022001F06C
:1029300041FD112001F053FD0121DFF8B027217086
:10294000907810B90E2001F04AFD606B41688868EC
:10295000002804BFC868002806D0DFF8C009DFF8E7
:10296000C0290021C16102600720DFF8B8190860A2
:102970000021DFF8A80942694161826981614269E9
:1029800042F0402242F0020242610FF221006060F8
:102990001A2001F04EFABDE83240192001F049BA80
:1029A00031BD000002000040010001042DE9F047A4
:1029B0008046880040F1A380654D686B4168486897
:1029C0008C68D1F80C90010018BF8047200008BF28
:1029D0005FEA0900DFF844690FD0F0690028FCD0F5
:1029E0000021F161200018BFA0475FEA090018BF6D
:1029F000C847DFF8340901F0A3FA0020F061DFF8DE
:102A00002C19DFF82C79316040F60A0AA7F800A0EB
:102A10007880397B01F0F001397378604046797B2A
:102A200001F0F00141F001017973FFF742F8D8F8A5
:102A300008904C4640F6040140F6030200E00446CC
:102A4000606828B1038853451CBF93428B42F6D17E
:102A50006760607B00F0F00060736869C0B1C068B7
:102A60000088904218BF884212D10021A963F06902
:102A70000028FCD00021F1610FF2F502687B6A604A
:102A800018B301F0DBFD0028FBD001F0F2FD2DE0D2
:102A9000B8F830000028EAD00021A8F83210C8F8B1
:102AA000341008F13C004278017802F0F00201F0A5
:102AB000F00142F001020170427008F130007860CC
:102AC000797B01F0F0017973D1E7DFF868180A68C3
:102AD000136801209847012808D0607B00F0F000BF
:102AE00040F0010060730FF21D0068600021F16189
:102AF000C6F800904946BDE8F0470120D1E5BDE8A1
:102B0000F0870000DFF83008014200D17047DFF89D
:102B10002418012010B50A680D4C13689847012845
:102B20000AD10FF24D00DFF8082860600021DFF8BD
:102B3000EC07C161026010BDDFF800180A6832209E
:102B4000B0FBF2F104F58270BDE81040FEF7BABCAC
:102B5000C40E002020000E000C100440284A002063
:102B6000943004405C0F002085030021FDBFFFFF6F
:102B70002DE9F84F044689465FEA4940DFF884773B
:102B800029D501F054F9FD6A05B3D5E90A2302F00D
:102B90000A0413F0E04108BF002C17D1D5E90A461A
:102BA000D5E90A23A243B343C5E90A2301F060F93A
:102BB000A86868B1002E08BF002C09D0B5F9301004
:102BC00028692246AC683346A04701E001F050F97D
:102BD00029F4804929E25FEA89005AD5DFF86007C5
:102BE000016841F080010160B87C20B1042001F04F
:102BF00075FB0020B87401F01AF9DFF818A7DAF8AD
:102C000054100A6880460420904700281CBF207D8D
:102C100000281ED0B86BE0B10646DAF8000025693E
:102C2000016B8847864231BF861B401E861B761C7F
:102C3000360BAE42266102D2AD196D08256140F611
:102C400099012069A0F59670884224BF40F6C4100F
:102C50002061404601F00CF9FFF711FA78B1D4F881
:102C60001C8000224FF000736FF480712046C04733
:102C7000786910B1FEF7EDFE01E049F00209204647
:102C8000A46900224FF080630021A04729F0005979
:102C9000CBE15FEA897008D5FFF770FDF86900287D
:102CA00040F0C38129F00209BFE15FEA495040F1D9
:102CB000A78001F0BCF80546FFF7E8FD7C69012814
:102CC00040F09880002C00F095800420387000229D
:102CD000DFF8C41B07F17C0001F0AFF8284601F0D3
:102CE000C7F807F5947001F01FF9DFF828060168AE
:102CF0000A6B9047F8630120B874042001F05AFB76
:102D00002069786390F824104A0703D5036A0022EB
:102D100004219847786BDFF8048641688D68CE6897
:102D20004868002D08BF002E06D00021C8F81C10EE
:102D3000DFF8EC25C8F8002008B1C046C046002DD9
:102D400008BF002E0ED0D8F81C000028FBD00021B0
:102D5000C8F81C1005B1A84706B1B047DFF8C80590
:102D600001F0EEF8786B0121417540F60A05FEF797
:102D7000A0FE7A6B91680B4640F6040C40F6030EF9
:102D800000E00346586828B10688AE421CBF76456D
:102D90006645F6D1002058605D7B05F0F00545F0F2
:102DA00001055D73E0680088704518BF604502D179
:102DB0000020F86315E0108E98B102F13000002277
:102DC00042804260027B02F0F0020273427B02F01A
:102DD000F00242F0010242735860587B00F0F000AC
:102DE00058730020C8F81C00C8F800100120FFF735
:102DF00058FC02E0284601F03BF829F4806914E110
:102E00005FEA095138D5B87C20B1042001F066FA98
:102E10000020B874FFF733F938B1786BC469002229
:102E20004FF000736FF48071A047F86B80B1DFF84A
:102E3000E4140868026B9047F96B814231BF401A75
:102E4000401E401A401C796B000BC8600020F863DC
:102E50000022DFF8B41407F17C0000F0EEFF02213D
:102E60003970F86918B107F1480001F037F9FEF739
:102E7000F0FD29F40069D8E05FEA097040F1CE80E6
:102E800000F0D5FF0446FFF701FD002800F0BE80EA
:102E9000387C010700F1BA80387C010600F1B68069
:102EA0006846FEF770FD18B10098002800F0AE806B
:102EB0000026DFF86C8B0125F0B202281CDC08EB41
:102EC000401101F52071887AB0B18D7291F9090035
:102ED00005FA00FA00F0ABFF8346387C20EA0A00CE
:102EE0003874397C080704D4082107F1480001F040
:102EF000F5F8584600F0BCFF761C032EDCD3032007
:102F0000387007F5947001F00FF8204600F0B0FF1C
:102F1000DFF808446069002161610022E068E16037
:102F200007F17C00DFF8C01B00F087FFDFF8E40347
:102F300001680A6B9047B96B814231BF401A401E4D
:102F4000401A401CB9684FF0FF32A2EB10328A429F
:102F500034BF4FF0FF3001EB1030B860387B20B148
:102F6000386CB968C00288421DD2FEF7D2FAB8B1F7
:102F7000DFF8BC0340F60901018000224280417B5A
:102F800001F0F00141F001014173017B01F0F0011A
:102F900001734260E2612060418811F4406FFBD010
:102FA0003D730021B96000F0D8FFDFF878130020EE
:102FB000086000210220FFF774FB022001F08EF967
:102FC000112001F0A4F9787C18B9786B483001F031
:102FD0005BFE4649887810B90E2001F098F9787B9D
:102FE00020B100217973052001F078F9DFF8FC0A9F
:102FF0007860002139700220B7F93210B7F930201B
:10300000914208BF0720FEF7CBFB02E0204600F00C
:103010002FFFFEF71EFD29F0080906E05FEA4900D0
:1030200003D5FEF716FD29F08049B9F1000F04D051
:10303000494607F1480001F051F8BDE8F18F2DE94C
:10304000F54CB04E746981B09B4600258A4600E07D
:103050002468002C45D05445FAD1002C41D0206979
:1030600001992768884236D100F0E1FED4E90A23AD
:1030700043F08051C4E90A21D4E9082343F0805188
:10308000C4E9082100F0F4FEBBF1000F18D000F0F5
:10309000CEFED4E90A2343F08071C4E90A21D4E9C1
:1030A000082343F08071C4E9082100F0E1FEDFF855
:1030B0001C0B0279DAF81010016042F00102027173
:1030C000214606F1140001F0BFFC214606F11C0068
:1030D00001F090FC6D1C9DF80800002818BF3C46CC
:1030E000BBD1284603B0BDE8F08C0000E4A5000089
:1030F0002DE9F74F8146032710009B4619BF002496
:103100004FF0804800244FF000580E4600F08FFE2C
:103110004FF0FF318E420190DFF804A9794D31D193
:10312000686A30B30069484523D16E6A002E00F00A
:10313000B78096F83300010640F1B1800C9F686AB1
:1031400086421CBFA96A8E4240F09480686A0022C1
:103150004346FEF79DF9A86A00224346FEF798F918
:103160009DF80800002814BFDFF8640ADFF8640A3D
:103170005FE0A86A20B10069484508BFAE6AD5D0B3
:103180006E69D3E7BAF930100020B14202BFDAF815
:10319000103000934B4504D100EB80020AEB02167D
:1031A000C4E70AF1800101200A5FB24202BFDAF8E7
:1031B000602000924A45EFD0B1F950200220B2427F
:1031C00002BF096B00914945E6D00AF580710320E2
:1031D000B1F92020B24202BF0A6800924A45DBD012
:1031E000B1F970200420B24202BF096D0091494537
:1031F000D2D00AF5D0710520B1F92020B24202BF29
:103200000A6800924A45C7D0B1F970200620B24240
:1032100002BF096D00914945BED00AF51071072023
:10322000B1F92020B24202BF09680091494537D167
:10323000B2E700F085FE9FB1686A00224FF080730C
:10324000FEF726F9A86A00224FF08073FEF720F9F6
:103250000AF5427002793169016042F0010202719F
:10326000BBF1000F19D069693B465A464846FFF743
:10327000E6FE12E03B465A4631464846FFF7DFFE7F
:1032800068B1287801281CBF2978042905D0DFF807
:10329000D41905F1480000F021FF832700E004273E
:1032A000019800F0E5FD384603B0BDE8F08F10B599
:1032B0000C4614490A78022A0BD100F041FE04B1F1
:1032C000206000F0FF00012801D1812010BD022004
:1032D00010BD012010BDF8B504460D46164600F09D
:1032E000A6FD07460748416B8C4218BF032404D152
:1032F00031462846FFF7DBFF0446384600F0B8FDAC
:103300002046F2BDC40E0020FD2100000C0F00205D
:10331000104D00208C010010D02108400010044006
:1033200051000706000004600100070601010E04B9
:1033300034560020E001001004000020C056002098
:10334000CC21084038B514460546502340F2FF32E0
:1033500000F020FE24B1014655F82110890A2160B1
:1033600032BD71B30A0E202A08BF10221AD0212ABA
:1033700008BF202216D0A02A08BF302212D00AB9D6
:1033800040220FE0102A08BF50220BD0112A08BF9C
:10339000602207D0402A08BF702203D0502A0CBFF9
:1033A000802290228901090A42EA012141F00F019D
:1033B00000E0001D026812F1010F18BF8A42F8D127
:1033C0000160704781B30A0E202A08BF10221AD06C
:1033D000212A08BF202216D0A02A08BF302212D0EE
:1033E0000AB940220FE0102A08BF50220BD0112A40
:1033F00008BF602207D0402A08BF702203D0502A9D
:103400000CBF802290228901090A42EA012141F081
:103410000F0100E0001D026812F1010F18BF8A427F
:10342000F8D14FF0FF31016070472DE9F843089C57
:1034300007460D4691461E4601F092FC0E2803D029
:1034400001F08EFC0F2845D1388840F602018842F1
:103450004FF0010858D0B0F5C15F62D043F60601C5
:1034600088426DD007F11A022A60F869C9F8000095
:1034700007F12400416831608268226005783F7E50
:10348000306807F0070788B105234FF6FF7240F256
:10349000037100F07FFD8146B9F1050F06DA394668
:1034A000284600F08DFD316841F82900206840B3BE
:1034B00005234FF6FF7240F2037100F06BFD0646E4
:1034C000052E1EDAFF21284600F07AFD216841F81A
:1034D000260016E0388840F60201884218BFB0F591
:1034E000C15F07BF07F11200796907F11A00F96996
:1034F000C9F800104FF000082860C6F80080C4F832
:1035000000804046BDE8F28307F112022A60786924
:10351000C9F80000B9693160F8692060FD7B3F7C23
:10352000AEE707F11200286007F124007969C9F8B5
:1035300000100268326040682060FD7B3F7C9FE79E
:1035400007F11A0028600025F969C9F80010386AE7
:103550003060796A216092E72DE9F84185B015461F
:103560000C460022029204920392019201A900915A
:1035700003AB04AA02A9FFF758FF8326E20F29D163
:1035800010B3039800281CBF0198002816D0029899
:10359000048040F22B28039F41463846FFF7D2FEB5
:1035A000FF281CBF48EA842147F82010019904989D
:1035B000FFF708FF1520288003992BE00298018867
:1035C0004FF6FF72914240D002980480102129806A
:1035D0006C803BE0002838D0039800281CBF01987D
:1035E000002819D002984FF6FF7101800022019F38
:1035F0002B213846FFF7A6FEFF2804D0A40244F092
:103600002B0447F8204001990498FFF7AAFE1520E3
:1036100028800199696019E0049F00222B21384617
:10362000FFF790FEFF2804D0A10241F02B0147F8DC
:103630002010FF2809D002994FF6FF70088014224D
:103640002A80C4F315046C6000E00326304606B0FF
:10365000BDE8F0812DE9F843DFF88C8688B00C00D6
:103660001546D8F8081018BF002D1F4600F010812D
:103670002278D140CB0740F10B8106460021284635
:103680000020C046B560746000F0D1FBDFF85C96A6
:10369000054699F81100022880F2F780002840F0D2
:1036A000A38000F03CFDDFF8B806DFF8B8460168FB
:1036B00041F002010160DFF8B006C8F8000068467A
:1036C00000F0DEFC6078DFF8A416DFF8A486029034
:1036D0006A4609F1480000F0DBFC6A46DFF8941600
:1036E00009F1980000F0D4FC684600F0B9FB20789E
:1036F000DFF8F42301906B46192109F17C0000F0FA
:1037000073FB6B46DFF870261A2109F1CC0000F03C
:103710006BFBD8F8000000F44020B0F5802F1CD1DE
:10372000DFF8580601688A0317D46B46DFF8502685
:10373000352109F1E80000F057FBDFF84806016881
:1037400001F5407181620C210268A2F54072C262EB
:10375000C161826942F00C02826100230022DFF81D
:10376000281609F5827000F0A1FB00230022DFF883
:103770001C1609F5947000F099FBD8F80000C0F30E
:10378000814038B10023DFF80826042109F5A6702E
:1037900000F08EFDA078012804BF0E2000F01FFE6F
:1037A00009F11C0001F0F4F809F1140001F0F0F83F
:1037B000002089F80000A9F80C00C9F808000721CA
:1037C000974A82F8E012C9F8380000210520C9F8AC
:1037D0003C10C9F8400089F81010DFF81003C9F850
:1037E00004000420FEF75DFF99F811008C4901EBFD
:1037F0008003401CC3F8E86289F811003C46284663
:1038000000F036FB3CB90FF2304191E8BC516846FC
:1038100080E8BC516C46206830604FF4FA71F1606A
:10382000A06970620120218AF1827075E169F162FC
:103830006068002812BF002140F6C41001213175D4
:103840003061DFF85015E0680A460B4600B10146CA
:10385000F161606900B102463262A06800B10346BE
:10386000B361782106F1300001F0D6FA002106F1AB
:10387000480001F0E7F900230022DFF81C1506F1EB
:10388000800000F013FB304603E0284600F0F0FA19
:10389000002009B0BDE8F0835527000070B5DFF8BF
:1038A0004C44617C002900F08D80B4F93010B4F9EB
:1038B00032209142054619D004F11401FDF7A4FD10
:1038C00058B9606A20B10069A84208BF606A04D094
:1038D00004F11C012846FDF797FD38B1B0F930100E
:1038E0000A224FF0E043284600F002F900F09FFA68
:1038F0000646DFF8A80401688D4207BF0022026077
:1039000000214160607C401E6074C0B2002847D135
:103910006563207802280ED10820FEF71DF8304696
:1039200000F0A6FA4FF0FF3105F1480001F0A1F9CF
:1039300000F07DFA064604F1480000F0C9FB04F1EE
:103940007C0000F072FA04F1980000F0C1FB04F171
:10395000CC0000F06AFA04F5827000F0CCFA04F5AD
:10396000947000F0C8FADFF80804016801F44021FF
:10397000B1F5802F08D1DFF8040401688A035CBF29
:1039800004F1E80000F051FA04F5A67000F034FEEE
:10399000DFF8D0038178012904BF0E2000F0B7FCC6
:1039A000606BA84204BF00216163304600F060FAFA
:1039B00005F1480001F05BF905F18000BDE87040B9
:1039C00000F099BA70BDF8B500F031FADFF81C13B9
:1039D0000A78022A1CBF0978042905D1DFF8C02320
:1039E000146800F045FA18E000F042FADFF8B4037A
:1039F000DFF8B44301680A6B904710F5003041F1DD
:103A00000001A4FB0067DFF8A42304FB0177116920
:103A10000020341847EB01052C462046F2BD00007B
:103A2000284A00202DE9F84F07460D4693469A464E
:103A300000F0FDF98046FDF7FAFC04006FF0010686
:103A40004CD0DDE90A690097DFF8A07207F59470A1
:103A500000F06AFA388E401CC0F30B00388604F17F
:103A60003202E56082F800B0C4F808A02021388E48
:103A7000208609EA0101009BDFF83403236130400E
:103A800040F00200C4E9060100200021C4E9080159
:103A9000802304F134005370C1600174016000237D
:103AA0004FF0FF324161816103718260297B01F037
:103AB0000F01022903D101210171AA68026007F1F7
:103AC0001400009981F8A430214600F093FF786932
:103AD000A04208BFFDF7BDFFB4F93060404600F0DA
:103AE000C7F93046BDE8F28FFD260000B52800007A
:103AF000F8B507460E46300014461D4602D5002094
:103B00000021F4BD00F0E6FADFF8A822002302F15C
:103B1000100C3946BCF92070B74204BFDCF80070C5
:103B20008F4203D19CF823703F0617D40CF1500745
:103B30005B1CB7F920E0B64504BF3F688F4203D154
:103B40009CF873703F0609D45B1C082B0CF1A00C89
:103B5000E0D300F0C5FA02200021F4BD0E4603EBCD
:103B6000830102EB011797F833201106F1D5D7E94D
:103B7000082344F00A0445F0E04522402B4008BFEA
:103B8000002A0ED000F0ACFAD7E908012040294005
:103B9000C6E91E01D7E9082382438B43C7E90823FE
:103BA00011E0BA68DFF810128A4202D0BA683267B0
:103BB000B960C6E91A4500F093FA4FF0FF3106F1FB
:103BC000480001F056F8D6E91E01F4BD304D002042
:103BD0000100020401000104DCB5DDE90667CDE95E
:103BE00000670446FFF71EFFFFE70146204602B0CC
:103BF000BDE8D0400A224FF0E04379E780B5930852
:103C000003F001030093530803F0010302F00102E3
:103C100007E080B5930803F00103009302F001026E
:103C20000123FFF765FA02BDF0B500BF02A191E8DC
:103C3000FC5080E8FC50F0BDFFFFFFFF00000000DB
:103C400000000000000000003A013A0100000000FE
:103C5000000000000000000000E000000022FFF76C
:103C60003ABB000002000040E0B50192009191F9DA
:103C700004300A680121FFE7FDF7E5FC03B000BD51
:103C8000F8B504460E46802700F0D1F8F6B2032EB0
:103C9000054623DADFF81C0100EB461101F520761A
:103CA000B07AD8B111490878022811D196F90910D3
:103CB000491D0906090C41F08161002241F0010112
:103CC0002046FFF708FB07463046FDF72FFC05E0CE
:103CD0003046FDF72BFCFDF7BCFE8127284600F09F
:103CE000C7F83846F2BD0000CC210840C40E0020C1
:103CF00030B585B00FF2C402002301AD14680493FF
:103D0000039302930193009502AB806803AA04A970
:103D1000FFF78BFB049909884FF6FF72914219D186
:103D2000D8B1029800281CBF0198002802D06A462A
:103D30002B2102E003986A462B21FFF703FBFF28A3
:103D40000BD00098A40DC0F3150040EA845444F051
:103D5000004402E0A40D41EA8454204605B030BD81
:103D600000200940E4A50000110000E0C926000081
:103D7000B44F00502D210000B92000008C130050DA
:103D80002923000030500940DF260000C325000031
:103D900059170000C7260000F9250000104D00202B
:103DA000043004408C01001000093D00345600200E
:103DB000FFEFFF9F284A0020FF250000FFFF3F0084
:103DC000DFF800F055EB0210DFF800F047EC0210CE
:103DD000DFF800F049EB0210DFF800F075E40210A4
:103DE000DFF800F01DD90210F0B51C008DB00546BB
:103DF0000E46174604D1002301F016F80DB0F0BDB1
:103E00000823302200216846FFF7E2FF2068059072
:103E10006B46606808903A46207AADF81800314643
:103E2000284601F001F80DB0F0BDFFF7D5BFFFF750
:103E3000C7BFFFF7D5BF01F017B8F0B581B0044692
:103E40000D461646FFF7BCFF074632462946204678
:103E500081604260384601B0BDE8F040FFF7B4BF72
:103E6000002101604FF0FF3201234260037270476E
:103E7000FFF7AABFDFF800F0C3EC0210DFF800F094
:103E8000E7E90210DFF800F0C5E20210DFF800F009
:103E90008DDD0210DFF800F09DEB0210DFF800F07E
:103EA00049E60210DFF800F0FDE90210F0B51C0051
:103EB00089B005460E46174603D10023FFF7E6FFFB
:103EC00012E00823242200216846FFF7E3FFA168DF
:103ED00006916B462278ADF810203A46606805904E
:103EE00031462846FFF7D2FF1048114A0168116099
:103EF000284609B0F0BDFFF7D1BFFFF7D3BF00F0F0
:103F0000C1BF00B581B0FCF79EF8401E8041C043A0
:103F1000C00F01B000BD0021816001704160704799
:103F2000FFF7A8BFFFF7AABFFFF7ACBF1CA60000B2
:103F3000C056002044490A681040C2430A607047D6
:103F4000424A11680029FCD10023D3611060D06976
:103F50000028FCD0D161506870473D48016821F0CD
:103F6000020141F40871016003213A48016041F205
:103F70003002C260012343605021C16043604FF4AE
:103F8000CA61C16043604FF48651C16043603249E9
:103F90000B60704730B40446002000E0401C98429B
:103FA0000ADA54F8205015F1010F05D015408D4262
:103FB000F4D130BCC0B2704730BCFF207047000065
:103FC0001E281DD8DFE800F0101C131C1619161C43
:103FD0001C1C191C161C1C191C1C1C1C1C1C1C1C2D
:103FE0001C1C1C1C1C1C190040F2025209E04FF45E
:103FF000817206E04FF2011203E041F2011200E08B
:104000000022FF2909D14FF6FF30024042F0C002E2
:1040100040F2037040EA02407047080008BF42F0D7
:10402000300205D0C8074CBF42F0100242F0200217
:1040300040F2037040EA0240704708490A681040A5
:10404000C2430A6070470000101004400010044092
:104050000000046054600440004104400810044023
:10406000DFF800F025EA0210DFF800F061DB021053
:10407000DFF800F0F1EB0210DFF800F0BDE802100D
:10408000002101604160C1604FF0FF3181607047E5
:1040900070B514008AB005460E4604D1002200F027
:1040A0000DFF0AB070BD0823282200216846FFF7E3
:1040B000DFFF206804906A46606805903146E0683A
:1040C0000790A0680690284600F0F8FE0AB070BD80
:1040D000FFF7D2BFFFF7C4BFFBF7B8BF00F0FEBECB
:1040E000FFF7C2BFDFF84C08806870470246002027
:1040F000022904D1012A06D140F2EE207047012A9C
:1041000008BF4FF47A707047DFF8281891F8E10083
:1041100020B1D1F80C01002818BF004770472DE9E5
:10412000F041DFF81418DFF8143884B00968A1FBF7
:104130000332520B42F2107000FB121140F2AB241A
:10414000A14200D2FEE7DFF8EC4794F8E200002835
:1041500040F0AA800121DFF8E867DFF8E85784F82B
:10416000E210307B84F8E1007168C4F80C11A86893
:10417000C0F3814098B9306988B12868DFF8C87702
:104180003A68C0F30661642010FB01F1B1FBF2F262
:1041900000230FF2957104F15400FFF787FE01A888
:1041A000FFF7B9FE002002908DF804000022039270
:1041B00001AB0FF2D551DFF8947704F10C00FFF753
:1041C00075FE01A8FFF7A7FE002002908DF80400FD
:1041D000039001AB0822DFF8781704F13000FFF7F5
:1041E00065FE00230FF2E542322104F17800FFF76B
:1041F000FBFD002038600023DFF858272C2104F154
:104200009400FFF7F1FDDFF850070178A968707B93
:10421000C1F3815128B1032903D1012084F8D900C9
:1042200021E0032918BF02291DD001291AD1DFF886
:104230002C67DFF82C77032000901C23D6F800C0F1
:10424000DCF804804FF0405200213846C04701207E
:10425000009038463668776809234FF400720021D1
:10426000B84711E081B9386840F040003860FFF786
:10427000DEFDA16841F00401A16094F8E510491C3D
:1042800084F8E510FFF7F4FD686840070CD4FFF7E9
:10429000CEFDA16841F00101A16094F8E310491C32
:1042A00084F8E310FFF7E4FD002004B0BDE8F081DE
:1042B00030B581B0002408B1150004D16FF00204BC
:1042C000204601B030BD8160C26003610146DFF865
:1042D000640600F08FFB204601B030BD10B50446E7
:1042E000FFF7A5FDDFF84C160A1992F8E3305B1EC4
:1042F00082F8E330DBB233B98A68012303FA04F4AD
:1043000022EA04048C60FFF7B3FD002010BDF0B575
:1043100081B00546FFF78BFD0446DFF818164819F3
:1043200090F8EA20521E80F8EA20D2B27ABBDFF879
:10433000340600EB850210F825505688280617D55C
:10434000DFF8247639680A6A3046904739688A6A05
:104350003046904739680A6B30469047DFF80C16B4
:1043600001200860DFF8080601688907FCD507E02E
:10437000680612D501EB86010020D1F80021904794
:1043800005F03F05152DBCBF2846FFF7C0FF2046AE
:10439000FFF76EFD002001B0F0BDDFF8CC75396885
:1043A0008A693046904739684A6B30469047022800
:1043B000F9D1E5E710B50446FFF739FDDFF87415CC
:1043C0008A680123A3401A438A60214491F8E320BC
:1043D000521C81F8E320FFF74BFD002010BD2DE9B2
:1043E000F0410646FFF723FD0446DFF84855A819BB
:1043F00090F8EA104A1C80F8EA2081BBDFF8648557
:1044000018F8260000F03F001428D8BFFFF7E7FF98
:1044100008EB8600478818F82600010617D5DFF854
:1044200048552A68D169384688472A68516A38460B
:1044300088472A68D16A38468847DFF83025012046
:104440001060DFF82C0501688907FCD507E04006FD
:104450000BD505EB87010120D1F8002190472046BC
:10446000FFF706FD0020BDE8F081DFF8FC54296865
:104470004A693846904729684A6B38469047012870
:10448000F9D1ECE72DE9F04F00260024012881B096
:10449000A24618BF6FF0010940F0AA80DFF894B47B
:1044A000DBF8D400012832D10221CBF8D41000F07F
:1044B0007CFD012000F06BF95FEA00092DD1FFF7C8
:1044C00009FE80469BF8FB0008B14FF0010A9BF8FB
:1044D000FA0008B14AF0020A9BF8F90008B14AF064
:1044E000040ADFF88474B96A0A6801209047012839
:1044F0001CBF9BF8D800012803D1002000F090F9E0
:1045000001249BF80800C10710D5012616E06FF0C2
:104510000409484601B0BDE8F08F0120CBF8D40073
:1045200000F04CFD484601B0BDE8F08F396ADFF875
:1045300048048A6890470546042DF7D04FF0FF32B3
:104540000021304600F064FD6EB9012D05D13A6AB4
:10455000DFF82404536801219847DFF8200401683C
:1045600041F00301016050463A68516988479BF861
:10457000F50020B13968CA6A4FF4806090479BF813
:10458000F40020B13968CA6A4FF481609047DFF8BF
:10459000DC13DFF8EC330120086000221A600320EE
:1045A000CBF8D40039684A6B504690470128F9D1BE
:1045B000DFF8C0532868042000F0E9F80646DFF869
:1045C000C413012008602A680CB100F029F900F03A
:1045D000CFFD082000F0DBF806430120CBF8D40023
:1045E0004046FFF77DFD00F0E9FC0EB14FF0FF39CA
:1045F000484601B0BDE8F08F30B581B00446FFF702
:1046000016FC05462146DFF82C0300F01DFA28466B
:1046100001B0BDE83040FFF72BBC10B500240228E4
:1046200002D0032805D008E000F0AAFD0446204689
:1046300010BD00F08DFE204610BDFEE7F0B581B044
:10464000FFF7F5FBBB49054691F8D800012450B1AE
:10465000C24EC3483768D7F80CC0002301223C2162
:10466000E04700B900242846FFF702FC204601B0CD
:10467000F0BD30B581B0FFF7DAFB044600F03AFA3E
:10468000AC4D002085F8D800FFF7D1FB95F8E61077
:10469000491E85F8E610C9B219B9A96821F00801C8
:1046A000A960FFF7E5FB2046FFF7E2FBA44884681A
:1046B0000220A0470546102000F069F8012D04BF34
:1046C0000320A04701B030BD000000002DE9F041FB
:1046D0009E4C82B06568206820EA050105406A06A4
:1046E000216049D59D4EF16B0A680420904702284D
:1046F00018BF032819D001283ED1032000901C23A5
:10470000D6F800C0964FDCF804804FF040520021EC
:104710003846C0470120009038463668776809233C
:104720004FF400720021B84726E0032000901C23BC
:10473000D6F800C08A4FDCF804804FF040520021C8
:104740003846C0470120009038463668776809230C
:104750004FF400720021B847FFF769FB754991F8E3
:10476000E520521E81F8E520D2B21AB98A6822F0FB
:1047700004028A60FFF77CFB280648BF00F022F89D
:10478000A56002B0BDE8F08170470020704730B5E9
:1047900005466848046881B05CB1A068284205D02D
:1047A0002269E36800212846984728B92468002C2C
:1047B000F3D1002001B030BD4FF0FF3001B030BD6B
:1047C0000020704730B581B0FFF731FB4FEA00049D
:1047D00000F090F90028FBD0FFF729FB554D95F824
:1047E000E610491E85F8E610C9B219B9A96821F08A
:1047F0000801A960FFF73CFB002085F8D80020469F
:10480000FFF736FB4E4884680220A047054610207B
:10481000FFF7BDFF012D04BF0320A04701B030BD4D
:1048200030B5012881B04AD157490A6813689847C2
:10483000012876D03F4C94F8D800002871D1414D22
:10484000A868C0F38140A0B93D48016989B1012041
:1048500088474E494FF00040886540220A6028682A
:10486000C00F1CBF4FF40050086004F15400FFF764
:1048700059FB00F033F9012084F8D800A868C0F390
:10488000814010B92E49086948B9207A810606D4BA
:104890002E4880228260016841F080010160FFF7AC
:1048A000C6FAA16841F00801A16094F8E610491C1D
:1048B00084F8E610FFF7DCFA002001B030BD80BBC1
:1048C00000F03DF91F498868C0F3814060B908686D
:1048D000C00F04D02D494FF40050C1F88000184893
:1048E000016909B100208847124C94F8D800C0B182
:1048F0001648016821F08001016080218160FFF786
:1049000096FA94F8E610491E84F8E610C9B219B96F
:10491000A16821F00801A160FFF7AAFA002084F83D
:10492000D800002001B030BD18494FF48050086015
:1049300048E70000B00D00201C1400505917B7D1F3
:1049400084A50000AC4F0050C056002090220840C3
:104950000B550000F1510000CD560020A4010010BD
:1049600000A00C40649E0000B801001028200860E0
:10497000282008402C200940004003402422084001
:10498000800104430C400940E0010010A8A00C4045
:1049900010B50446FFF74BFA002161602160BDE8C5
:1049A0001040FFF765BA30B581B00546FFF73FFA12
:1049B0002C683CB121682960216800291ABF0022B7
:1049C0004A606960FFF754FA204601B030BD70B507
:1049D00004460D461646FFF72AFA2E607168696094
:1049E0007168002914BF0D6025607560BDE87040D6
:1049F000FFF73EBA30B581B004460D46FFF717FA0F
:104A00000021296062686A606168002914BF0D6036
:104A10002560656001B0BDE83040FFF729BA30B5C8
:104A200081B004460D46FFF702FA21682960002292
:104A30006A602168002914BF4D606560256001B07F
:104A4000BDE83040FFF714BA30B581B004460D46DA
:104A5000FFF7EDF929686A6800290CBF62604A60B7
:104A600069682A6800290CBF22600A6001B0BDE8AD
:104A70003040FFF7FDB930B4002513E050F8042BA7
:104A8000D30744BFA9F101039A18091F042942F86A
:104A9000045BFAD213468C0744BF15809B1CC907E0
:104AA00048BF1D7050F8041B0029E7D130BC704787
:104AB00038B5DFF83C01DFF83C51048814F00104FC
:104AC00003D14FF0012129600088DFF82C01016833
:104AD000884714B14FF08071296031BD10B54B4A41
:104AE00013685C6801210120A047454845490068DA
:104AF000886010BD38B5414CE16B0A6801209047D1
:104B000001281AD024683A48E568002301223C2194
:104B1000A84798B1FFF7CCFF39483A4B026899682B
:104B200039481C68DA60A4EB9404521A4243120C10
:104B30001A60A24238BF22461A60012032BD38B541
:104B4000324C2268536800210120984721680A6886
:104B50000120904708B1FFF7ABFF2948294D0068B5
:104B60006860E06801688847286131BD30B5284B2E
:104B7000B3F90240B3F90450A0F11B01B3F90000EE
:104B800001FB01F24C43514300EBE4005543B3F900
:104B9000062000EBA520514300EBA14030BD10B52D
:104BA0001C49002882B081FB002304D412F50010B8
:104BB00043F1000103E0B2F5001063F100014FF48E
:104BC0008002002300F082FD00F1377000F5DE4026
:104BD0004FF4C061B0FBF1F200230020402100F04F
:104BE00075FD0D4B1C68616CBDE81C40084700005A
:104BF00000A00C4004A40C4080000010A401001090
:104C0000302009404856002040420F00E0010010CB
:104C1000AC560020006CDC02F0010010DFF800F060
:104C2000E5EB0210DFF800F0C1DD0210DFF800F064
:104C3000B1BF0210DFF800F021CD0210DFF800F064
:104C4000FDE6021030B589B004460D460823242243
:104C500000216846FFF7E2FF01218DF818106A462F
:104C600029462046FFF7DEFF204609B030BDFFF79A
:104C7000E5BF00B581B0FFF7D9FF00280CBF4FF0AA
:104C8000FF30002001B000BDFFF7D4BF62B38B0737
:104C900008D0521E11F8013B00F8013B00F02480BF
:104CA0008B07F6D1830740F0208000BF103A07D36E
:104CB00030B4B1E83810103AA0E83810F9D230BC5E
:104CC000530724BFB1E80810A0E8081044BF51F80A
:104CD000043B40F8043BD20724BF31F8022B20F8F4
:104CE000022B44BF0B7803707047121F17D35B0071
:104CF00009D151F8043B20F8023B1B0C121F20F88D
:104D0000023BF6D20BE051F8043B00F8013B1B0AD2
:104D100020F8023B1B0C121F00F8013BF3D238BFF6
:104D2000121D521E24BF11F8013B00F8013BF8D8B8
:104D3000704700002F480068000C00F007000628AC
:104D400028BF4FF0FF3070472B490968C1F30F317E
:104D50004BF641324FF0FF30914208BF04207047BC
:104D600010B5FFF7F1FF23490A68D30D04284FF06F
:104D7000FF34C2F340611AD1120B02F00F02082A6D
:104D800014D0092A0DD00F2A11D1D80704D5002933
:104D90000CBF0D240E240AE000290CBF0B240F24A5
:104DA00005E000290CBF09240A2400E00C24204659
:104DB00010BD00001048114970B505680E682D0F30
:104DC00006F0FF06802E28BF0026FFF7BDFF04284F
:104DD0004FF0FF340CD1032D0AD8DFE805F00202B2
:104DE00004070A2404E006F10B0401E006F11504AF
:104DF00060B270BD9412005018130050A010005003
:104E000080B5FFF7A1FF042804D1FFF7D3FF1428D2
:104E100000DB01BDFEE70000002200F091BD0000B4
:104E2000DFF800F021D40210F8B504460B480C4F0F
:104E30000668F8690D4650F82510B1420AD10948B4
:104E4000009029462046FFF7EBFFF86950F825103F
:104E5000B14201D10020F2BD2046F2BD1C1200007B
:104E600050110020AC0B0020102803D30249103849
:104E7000C1F8000F704700BF00E000E0DFF800F06D
:104E800011DC021070B5044600F070FD0646A08AE1
:104E90000025012808D1FFF7F1FF0546E068A16869
:104EA000451BA94238BF0025304600F060FD28466A
:104EB00070BD0000DFF800F019D7021010B50446ED
:104EC000034BFFF7F7FFA06800B90024204610BD90
:104ED000AC0B0020DFF800F091D8021038B5044682
:104EE0000D4600F04FFD616A0D43656200F04BFD19
:104EF0002046BDE83240FFF7EDBF0000DFF800F0CC
:104F00004DEA0210DFF800F045DF021030BF7047B5
:104F100070B500F029F92E4C206941688847FFF7E9
:104F2000E1F8054605F00C000C2838D0680721D4BC
:104F300000F068FD064601210120FFF7D7F825495A
:104F4000096801FB06F2904214D2F020B0FBF1F0A8
:104F5000214C311A04F10C00FEF78CFF04F10C0017
:104F6000FEF78CFF0120FFF78DFA04F10C00FEF72D
:104F700089FF16E0280712D4216818488A689047EC
:104F80000428F9D0E90600D408B9012000E0002087
:104F900000F02AF8124801210160006801E0FFF7E3
:104FA000B5FFBDE8704000F0E3B810B50D4CFFF759
:104FB000A5FF2060FFF754F8606010BD10B5094CE4
:104FC0006068FFF751F82068BDE81040FFF79ABF0E
:104FD000D80100101CA60000B00D002000400340C6
:104FE0002C200940A456002010B54F494F4C0860B2
:104FF0004F48016841F003010160202021688A695F
:1050000090474C4801682168886BBDE81040004714
:105010002DE9F843054688469146002000F05DF8EA
:10502000424C454A434F454E002111603868216883
:105030008A69272090477169414801407161F06D8C
:1050400020F48070F0654FF4806021680A6B90470F
:1050500021680A6B4FF48160904721680A6B4FF416
:10506000C06090473749012008602F493648C1F891
:1050700000800121016035480268910748BF002186
:1050800004D419F1010F03D14FF04041C16001E098
:10509000C0F80C90386830688007FCD521684A6BEE
:1050A000072090470228F9D195B9216A284D8A68CE
:1050B000284690470428F8D0012804D1226A536872
:1050C0000321284698471A48016889088900016029
:1050D0002068816BBDE8F143084710B51D4804689E
:1050E000A10220D41C4801680A6890472417C0F127
:1050F0003E00641CC0100728C8BF07208442B8BF08
:10510000044616480068C0F30320041B0F2CC8BFD8
:105110000F2402DC012CB8BF0124114844F0F00434
:1051200004701048017810BD8C210840B8010010AF
:10513000242208402C2009400C4009402820084027
:10514000FFFFFEFE28200860800104431000094094
:1051500000400340B44F0050EC0100100C1300500D
:105160005A6208400D620840EFF3108072B6704733
:10517000EFF3108062B670470138FDD17047704779
:1051800030B5DFF8085595F8D900002481B0002823
:1051900002BFDFF8FC14887B00280CD0FEF747FE26
:1051A00095F8DB10002906BF012285F8DB200124D9
:1051B000FEF75EFE14B1002001B030BD0220FFF703
:1051C000F9F80E20FFF70BF9DFF8C814086810B1E2
:1051D000012001B030BDDFF8C0044022026042600F
:1051E0000120C861002185F8DA10002001B030BD2F
:1051F000F0B5DFF8A81481B000200860DFF88C4417
:1052000094F8DA00002841D001284BD1DFF890143F
:105210000D68DFF890140A684BF2F52045432D0A1B
:1052200002F44022B2F5802F13D1DFF87C0401682C
:105230008A030ED4DFF87464B06C01688847FFF706
:1052400095FCF16BCA6890472F09C010474305EBE6
:10525000E73594F8E00018B1002184F8E01006E08A
:10526000DFF84C04006820F07F402D186D08DFF84F
:105270004404DFF81C24056001212D0C4560816089
:10528000907B58B10221C4F8DC1000BF00F06CF82C
:105290000028FBD0401E012858D9FEE70620C4F89C
:1052A000DC00F3E702280BD1DFF8F4030568284699
:1052B00000F042F9A5F2FF55022DEFD90421E2E7F3
:1052C0000328E3D1DFF8D8030068D4F8B010A0F5C4
:1052D000C0600029C4F8CC0048BF4942002848BF3C
:1052E00040428142A8BF00202ADADFF8C053D4F838
:1052F000B400DFF8C46380B2009008232F68D7F8A9
:1053000004C04FF47F4230213046E047D4F8B80063
:1053100080B2009012232F68D7F804C04FF4F8022F
:1053200004213046E047D4F8C80080B200903046EF
:105330002D686E680A234FF440622021B047012097
:1053400084F8D0000620C4F8DC009FE701B0F0BD6F
:1053500000B581B000F008F80028FBD0401E0128FD
:1053600001D801B000BDFEE72DE9F043C74CD4F8E9
:10537000DC00062881B000F2C480DFE800F00443BE
:10538000515E7582A300CD4DCD4EC84FDFF8288306
:10539000012129600F20F06042F62A2131610220AC
:1053A00000900723D7F800C0DCF804904FF4C072D7
:1053B00000214046C8473F68D7F80CC007234FF488
:1053C000C07200214046E047012028602968880714
:1053D000FCD50121F16194F8D90028B1002129639D
:1053E0000120C4F8DC0002E00321C4F8DC10032033
:1053F00030600021696068688107FCD4002001B03A
:10540000BDE8F083A94D0120022184F8DA00009163
:1054100004232E68A848776870220021B84746E028
:105420000320C4F8DC000021A448416041688A07D9
:10543000FCD4002001B0BDE8F08302209B4D9E4EBD
:1054400084F8DA0004230020009070222F68D7F837
:1054500004C000213046E0472D683046EE687023D6
:1054600070220021B04722E00520C4F8DC000021B2
:105470009248416041688A07FCD4002001B0BDE831
:10548000F0830320894D8C4E84F8DA000423002039
:10549000009070222F68D7F804C000213046E04702
:1054A0002D683046EE68702370220021B047834992
:1054B0000120486004F13000FEF734FD012001B006
:1054C000BDE8F0837D4800210160416001688A07E2
:1054D000FCD441688A07FCD4002070496D4B0860F9
:1054E00001221A600E20FEF712FF0220FEF7F6FEE0
:1054F0000020C4F8DC0084F8DB0001B00220BDE825
:10550000F083032001B0BDE8F0836E4801688A078C
:10551000FCD55E496A48D1F8DC20012A07BF20216A
:105520008161012282610021016008225A490A60DA
:105530004A60012101607047F0B56349534C81B066
:10554000CA6AC2F30722C4F8B420B0F5C0600A6882
:10555000C2F38442C4F8B820C969C4F8B000C1F3EA
:105560008121C4F8C81008BF84F8D00000F08C80F6
:10557000D4F8C02094F8D01059B9D4F8B410D4F8A5
:10558000C830D4F8B820C4F8BC10C4F8C430C4F88B
:10559000CC00D4F8CC0000284CBF6FF001010221F0
:1055A00000EB40000818411000EB917002EBA002E4
:1055B000D4F8B410C4F8BC10002A18DCD4F8C40025
:1055C000032808D1012015329042A8BF01220021F2
:1055D000C4F8C41023E001200B329042A8BF01227E
:1055E000491E48BF0021C4F8BC10032015E01E2A44
:1055F00015DDD4F8C40028B9153A1E2AC8BF1E22EA
:1056000003200AE00B3A1E2AC8BF1E22491C3F296C
:10561000C8BF3F21C4F8BC100020C4F8C400D4F8AF
:10562000BC70224D244EC4F8C020BFB2009708239E
:105630002F68D7F804C04FF47F4230213046E0474E
:105640000120009011232F68D7F804C04FF40032D6
:1056500004213046E047D4F8C00080B20090122305
:105660002F68D7F804C04FF4F80204213046E04711
:10567000D4F8C40080B200900A232C6865684FF407
:10568000406220213046A84701B0F0BDB00D002097
:1056900084A5000004800C4038500C403C500C4065
:1056A00008400C40B44F00508C130050A40100106F
:1056B000102009407C600C4000A00C4054600C405D
:1056C00000400C4058600C4004A00C4013F0004C0B
:1056D00003D55B42524263F100039CEA210C00F0C7
:1056E000178010B5644603D34942404261F100017E
:1056F00000F00EF8640004D34942404261F1000119
:10570000244203D55B42524263F1000310BD000006
:10571000BBBBE1B1B2F5803F80F07E80022A1ED98A
:105720008C46B1FBF2F102FB11C31B0443EA1043A8
:10573000B3FBF2FC02FB1C3380B240EA0343B3FB31
:10574000F2F002FB103240EA0C4000237047022ABC
:1057500005D98446B0FBF2F002FB10C270474AB193
:1057600005D100F0010249085FEA300070470022CD
:1057700000237047FBF722BE0B000200002100202F
:105780007047904271EB030CF6D3B3F5803F2FD2F4
:10579000F0B5B3FA83F7B1FA81F4A7F10F0E3D1B10
:1057A0005340CEF1200602FA0EF2F3415340B5F118
:1057B0000F0746D80F3C2C444140C4F12006A040BE
:1057C000F1414140B1FBF3F603FB1611A2FB064584
:1057D000001BA94102D2761E8018594180EA0102BD
:1057E00021FA0EF362FA0EF200215A403046F0BD63
:1057F00030B4B1FBF3FC03FB1C11A2FB0C45001BF6
:10580000A94103D2ACF1010C8018594130BC0246C9
:105810000B46604600217047B2F1807F65D3F0B53A
:10582000B2FA82F7B1FA81F4C7F10F063D1B22FAF2
:1058300006F307F1110EF24120355A40B5F10F077A
:10584000B8D94140C4F12006A040F1414140B1FB2C
:10585000F3FC03FB1C11A2FB0C45001BA94103D266
:10586000BCF1010C801859410F2F12D30F3FC9030F
:1058700041EA5041B1FBF3F603FB1611A2FB0645CA
:10588000D4EBC030A94102D2761E8018594146EAB5
:10589000CC3C07B34140C7F12006B840F14141403C
:1058A000B1FBF3F603FB1611A2FB0645001BA94151
:1058B00002D2761E8018594180EA010221FA0EF3C5
:1058C000C7F1200462FA0EF20CFA07F05A402CFAE3
:1058D00004F13043F0BD80EA010221FA0EF3002109
:1058E00062FA0EF260465A40F0BD8C46B1FBF2F10E
:1058F00002FB11C31B0243EA1063B3FBF2FC02FB81
:105900001C331B024CEA002043EA1063B3FBF2FC99
:1059100002FB1C331B024CEA002043EA1063B3FB7A
:10592000F2FC02FB1C331B024CEA002043EA10632A
:10593000B3FBF2FC02FB1C324CEA00200023704750
:105940004018491C1CBFB1F1010100F8012DF9D12B
:1059500070470000DFF800F075E20210DFF800F099
:10596000E7EC0210DFF800F01DF8021000E006E09E
:10597000EFF31180202181F311887047000080F33C
:1059800011887047F4E7FAE7F2E7F8E71849C20729
:1059900044BF01230B60820744BF4FF480730B6048
:1059A000400744BF4FF480320A60704710B5114A77
:1059B000C30748BF1160840748BF5160400748BF14
:1059C000916010BDFFF7C6BF10B5044604F110008A
:1059D000FFF734F9E06818B104F10C00FFF7BEFFDF
:1059E000214605480068BDE810405422FFF7BABFC1
:1059F000042009401820094020A60000DFF800F02C
:105A0000C5EA021070B5FFF7B1FF094E0446B06851
:105A10000021FFF7F3FF05467069B169451BA942F4
:105A200038BF00252046FFF7A2FF284670BD00BF03
:105A3000801000204068CC30FFF726B94068E8307D
:105A4000FFF722B9F0B581B00C004568876811D026
:105A5000DFF8586B2A6A3368117838689A6990477A
:105A600040B1286A641E411C686A2962401C002CEF
:105A70006862EFD1204601B0F0BDF0B581B00C00F6
:105A80004568876812D0DFF8246B316838680A6986
:105A9000904710F1010F09D0296B0870286B421C48
:105AA000686B2A63401C641E6863EED1204601B017
:105AB000F0BDF0B581B00C004568866810D0DFF805
:105AC000EC7A396830680A69904710F1010F07D005
:105AD000C1B205F13C0000F0DCFD641E002CF0D1E9
:105AE000204601B0F0BD30B581B045680C4605F5E3
:105AF0008270FEF719FA287F6A7FDFF8B41A096806
:105B00001218D21D5443DFF8AC0AAA694443B4FB0F
:105B1000F2F28A186332B2FBF1F1491C05F582708A
:105B2000FEF7FEF905F5827001B0BDE83040FEF7E2
:105B3000F9B910B544688068016851F8180F00077A
:105B400013D5DFF86C2A10684FF4FA71B1FBF0F14D
:105B5000012998BF012104F58270FEF7E1F904F5EF
:105B60008270BDE81040FEF7DDB904F19800BDE891
:105B700010400221FEF7B2BA70B505460C46FEF79A
:105B800056F9216851F8382F22F020020A60FEF7FA
:105B90006FF9217D286E012201F0AEF8217D286E7B
:105BA000012201F0CBF8217D286E002201F0E8F8F7
:105BB000A17D286E002201F0E3F8A878012805D124
:105BC000216851F8180F0007FAD405E04FF0FF31B3
:105BD00005F1CC00FFF74DF82068DFF8DC69217D86
:105BE000B042286E0CBF1022142201F0C9F8A17D2A
:105BF000FF291CBFE07DFF2809D0286E2268B24231
:105C0000BDE870400CBF1122152201F0B9B870BD7B
:105C10002DE9F04F83B08046D8F80450D8F808102A
:105C2000009100200A6802F1400102F144030E686D
:105C30001E602C6C6B6CA96B16F4F06FA4EB03095F
:105C40007AD0730540F1C68052F8040F00F00F00BF
:105C50000190002010602029D8F804A0D8F808B0DE
:105C6000CCBF20270F46D7B14FEA0704DFF83C1915
:105C70000A68DBF800001369984710F1010F0ED095
:105C8000DAF830100870DAF83000421CDAF8340024
:105C9000CAF83020401C641ECAF83400E6D1C7F1AF
:105CA00020074F45C8BF4F46394635E0A16B491E16
:105CB000A163A16B002900F09080DFF8F018D8F8FC
:105CC00008000A68D8F8045000681369984710F172
:105CD000010F07D0296B0870286B421C2A63686B80
:105CE000401C68630022396851F8040F0A6000F014
:105CF0000F000028DAD0019025460097296B4A1E34
:105D00002A63686B401E6863A86B40B9012105F1E6
:105D10009800FEF7E3F949464046FFF7CAFE0198AE
:105D2000E877404600F06BFB0098426A002A38D0C2
:105D300001994046904734E0700613D500292CD0D5
:105D40004046FFF79AFEA86395F82D0010B1002198
:105D5000A96301E0A86B20BB012105F19800FEF7C3
:105D6000BDF91EE0F0061CD5B9B100990FF6C400CC
:105D700091F82120845CA86B641E844288BF04468D
:105D800021464046FFF779FEA86B041BAC6308D19F
:105D9000012105F19800FEF7A1F949464046FFF7B9
:105DA00088FEB00613D5AC6A8CB121464046FFF799
:105DB00049FEA86258B900980FF6700190F82020AB
:105DC000895C6118404603B0BDE8F04F8BE603B034
:105DD000BDE8F08F009F2C466BE7019025460097A9
:105DE00094E72DE9F0410546FEF776F907466C6821
:105DF000AE68F80716D5FEF71AF8804694F8280121
:105E000028B10220FEF76AFA002084F828014046F3
:105E1000FEF72EF8626B206BE36851420144216368
:105E200028469847B80724D5FEF701F8074694F8A6
:105E3000290128B10220FEF751FA002084F8290137
:105E40003846FEF715F8306800F138010A6822F08C
:105E500020020A6050F8301F21F480710160626AEC
:105E6000206A23695142014421622846BDE8F0417D
:105E70001847BDE8F0814068002101707047F0B517
:105E8000064685B07468B5680F46FDF7D0FF2178E7
:105E9000012943D001212170FDF7EAFF38786070B5
:105EA0007978A17078686060B968A160F868E0608E
:105EB00039692161387D2075797D6175B87DA0755E
:105EC000B969A161387F2077797F61770021B87F38
:105ED000A0772162216361626163A162A16384F89A
:105EE0002C1084F82D1084F8281184F82911686882
:105EF000FEF775FA304600F0B9FA304600F006FBBE
:105F000088B9DFF8A8160A682868D36898476868CF
:105F1000FEF7FDF9FDF78BFF00212170FDF7A8FFCB
:105F2000002005B0F0BD6846FDF79AFF00966B466D
:105F3000287BDFF88826019004F17C00A968FDF732
:105F400053FF6846FEF79CF800966A462869DFF81A
:105F50007016029004F19800FEF79AF8A07838B90C
:105F6000002104F1CC00FEF76DFEDFF85806206139
:105F7000607838B9002104F1E800FEF763FEDFF82D
:105F80004806E0606846FDF7C6FF002001908DF8E6
:105F9000000002966B460A22DFF8301604F5827084
:105FA000FDF784FFEA69A96904F13C0000F046FBB3
:105FB00033460FF22962042104F16800FEF778F9F4
:105FC000304605B0F0BD70B506467468B568206E01
:105FD00000F081FE2968DFF8F80551F8382F0240FB
:105FE0000A6000212170304600F0E8F8304600F0E9
:105FF00006FA296801F12C00026822F01002026002
:1060000051F8303FDFF8CC0503400B606868FEF7BD
:106010007EF904F17C00FDF708FF04F19800FEF71B
:1060200057F8A07818B904F1CC00FEF720FE60788C
:1060300018B904F1E800FEF71AFE04F58270FDF7C6
:106040005AFF04F16800BDE87040FEF7D5BAF0B51C
:1060500081B0446820296FF001020AD025D322299B
:106060000BD03EBF002084F82D000022104601B066
:10607000F0BD012084F82D0016E08668DFF82C754D
:10608000FDF7D5FE0546396830680A69904710F17A
:10609000010FF8D1216C00206064491EE064A06308
:1060A000A1642846FDF7E4FE0022104601B0F0BDD1
:1060B0002DE9F043044681B06668A7680D46914615
:1060C000FDF7B5FE3968303180460968307808B18F
:1060D000C80501D540465FE006F58270FDF724FF54
:1060E0000020F07735627062386850F8301F41F454
:1060F000807101604046FDF7BBFEFDF798FE054646
:1061000096F8290128B90220FEF754F9012086F8F3
:1061100029012846FDF7ACFE49462046FFF792FCD0
:10612000B06270B949462046FFF7DDFCB078002820
:106130003DD1B16806F1CC00FEF79BFD002832D0BE
:1061400015E0FDF774FE396851F8382F42F020024F
:106150000A60FDF78DFEB07848BBB16806F1CC004F
:10616000FEF787FDF8B149462046FFF7BCFC00204A
:106170001021B062F17730463946FFF7FDFCFDF79C
:1061800056FE044696F8290128B10220FEF7A6F82B
:10619000002086F829012046FDF76AFE4FF0FF3007
:1061A00001B0BDE8F083706A01B0BDE8F083002063
:1061B00001B0BDE8F0834FF0FF307047F0B5044602
:1061C00081B06568A668FDF732FE0746A86A78B90F
:1061D000306800F1180109680A0709D430300068F6
:1061E000C10505D4384601B0BDE8F040FDF740BE1A
:1061F00005F58270FDF798FE0020A8623846FDF78D
:1062000037FEB07DFF281CBFF07DFF2803D031464C
:106210002846FFF7B1FCFDF70AFE316801F13802AC
:10622000136823F02003136051F8302F22F480729A
:106230000A60FDF71DFEFDF7FAFD064695F82901F7
:1062400028B10220FEF74AF8002085F829013046DF
:10625000FDF70EFE6A6A286A2B69514201442962E1
:10626000204601B0BDE8F040184700002DE9F0419C
:10627000074682B07C68BE682078154608B1A06BDE
:1062800020B14FF0FF3002B0BDE8F0812163E0772C
:106290000021C4F83410C5B1FDF7C9FD8046694638
:1062A00004F13C0000F0D3F900281DD44046FDF76E
:1062B000DFFD216B9DF800000870206B421C606BB5
:1062C0002263401C6D1E6063E6D1626B206B6378B5
:1062D00051420144012B216302D1E36838469847BB
:1062E000606B02B0BDE8F081A563306800F1300159
:1062F0000A6842F400720A6050F8381F41F4FA61EB
:1063000001604046FDF7B4FDFDF791FD054694F8A8
:10631000280128B90220FEF74DF8012084F8280151
:106320002846FDF7A5FD6078002847D1FDF77FFDE1
:1063300094F82D1000291CBF616B002915D0A16BAA
:1063400099B10022A263FDF793FDFDF770FD0546AC
:1063500094F8280128B10220FDF7C0FF002084F83E
:1063600028012846FDF784FDBAE7FDF781FD616845
:1063700004F1E800FEF77DFC0028B1D00020A06306
:10638000002104F1E800FEF774FC0028A8D0FDF716
:106390004EFD054694F8280128B10220FDF79EFF26
:1063A000002084F828012846FDF762FD616B206B10
:1063B0004942014410202163E07791E7FDF737FD62
:1063C00094F82D1000291CBF616B00290ED0A16B21
:1063D00061B10022A263FDF74BFD012104F1980099
:1063E000FDF77CFE002002B0BDE8F081FDF740FD26
:1063F000002002B0BDE8F0814FF0FF307047F0B5EB
:10640000044681B06568A768FDF711FD0646386847
:1064100050F8381F21F4FA610160FDF708FD0746C6
:1064200095F8280128B10220FDF758FF002085F8D3
:1064300028013846FDF71CFDA86B28B9304601B08D
:10644000BDE8F040FDF714BD0020A863686B296B20
:106450004042084428633046FDF70AFD6A6B296B09
:10646000EB68204601B0BDE8F0401847F0B54F4E4C
:1064700083B08568316844682868CA68904729688D
:10648000534801F1380201F14407136803401360D7
:1064900040F2F272C7F8002095F820005FA31A5C62
:1064A00095F821705FA3D85D024341F8342F684608
:1064B000FDF723FD4EA0217F50F8213050A0617FD1
:1064C00050F8210050A2A17F034352F82100A26995
:1064D00034680199666803432868B047286800F16A
:1064E0002C010A6842F010020A6050F8301F41F097
:1064F00001010160AA7DFF2A1CBFE97DFF2903D0AD
:10650000026842F44042026003B0F0BD70B586B04C
:1065100085684468687D40F00040009069462A7DA7
:106520002D4802434A600822AB7DFF2B1CBFEE7D45
:10653000FF2E06D043F000438B60EA7D10430390AA
:106540001022FE238B5004F1540000F065FA2066FF
:1065500048B32968184EB142697D0CBF0F2213223F
:1065600000F00EFC2868297DB042206E0CBF10227E
:10657000142200F005FCA97DFF291CBFE87DFF283F
:1065800010D02A68206EB2420CBF1122152200F0F2
:10659000F7FB2868E97DB042206E0CBF122216225C
:1065A00000F0EEFB012006B070BD0000D00100102D
:1065B000C056002040420F0000100040115C000057
:1065C000E35D0000355A00003D5A0000335B0000D7
:1065D0000DF8FFFFFEFCFFFF0000C0A000B581B07A
:1065E000042804BF1046FFF741FF002001B000BDA2
:1065F00000000000200000004000000060000000DB
:10660000000000000800000000000000060000007C
:10661000020000008600000082000000000001026D
:1066200003040000100008101820000004040810E3
:10663000181C000010040810181C000001604260C3
