:20000000003C0220E96E01009D7901009D7901009D7901009D7901009D7901009D790100A0
:1C0020009D7901009D7901009D7901009D7901009D7901009D79010011AD00007C
:04003C0000000000C0
:2000400038B586B004468DF805104FF6FF720120ADF80220090ADFF8C05AADF8000002232D
:200060008DF806108DF8043069462A7820461AF003F9162803D1297820461AF0F9F807B0A4
:2000800030BD3EB504000D461ED0DFF8900A006822461AF0E9F8FF2815D000200090002330
:2000A00001AA294620460EF0ABFB60B99DF8040000F071F9C00606D59DF8040000F06BF982
:2000C00010F0040000D001203EBDFEB5164615244FF6FF7290420D4615D100208DF804007E
:2000E000DFF8347A9DF80400F97988421AD23246294600F03EF800B100249DF80400401CE3
:200100008DF80400EEE71AF0ABF850B100F09DFB40B99DF804003246294600F02AF800249C
:2001200000E014242046FEBD7CB50D46044606214C43164620346A460821204617F0F6FC1A
:20014000A8B900F078F890B99DF80700002E14BF054320EA0505E9B2814206D08DF807508C
:200160006A460821204617F0F5FC012076BD002076BD2DE9FC410646344606238846154636
:200180005C436A46082104F1200017F0CFFC00284ED100F050F800284AD100F028FA040028
:2001A00002D100F01CFA43E0397AE03689062246090E304617F0BAFC002835D1204600F0B5
:2001C00052F85FEA08000ED13A7A9206120E0021204618F069FA38BB3A7A92000021204687
:2001E00018F05AFF16E0214600F02AF858B9280004D02146002000F023F810B900F00FFCCC
:2002000016E0A0F800808178A9420DD085700DB900210180204600F026F8397A8906224694
:20022000090E304617F096FC00F0F9FB012000E00020BDE8F6810622FF21684618F034BA8B
:2002400070B5DFF8D4381D7A002200E0521CD4B2AC4206D231F824608642F7D101EB840096
:2002600070BD002070BD10B50021DFF8AC280AE030F82130DB4320F8213000EB8103491CB5
:200280009C78E4439C70137A9942F1DB10BD2DE9FE4FDFF884480646207A0F4691469A461E
:2002A000800019F0E3F85FEA000803D100F097F90A206EE00C9D02974FF0060B37461BFB98
:2002C00007FB029A08210BF1200017F043FC8DF80400304600F09AF8227A00F07BF99DF8DF
:2002E000040000904246217A8906090E06F1E00017F030FC009E02990643206A082200EB76
:20030000C70018F0D3FEF5B110220021284618F0CBF9C0B90299887900232A4600F0010071
:2003200019F09AFF00281CBF9DF93C00002803D0DFF8EC17012008702A4610210BF1230018
:2003400017F008FC06435FEA090205D01C210BF1210017F0FFFB06435FEA0A0205D01C2115
:200360000BF1220017F0F6FB06430D9A4AB110210BF1240017F0EEFB06430EAA00F032F91F
:200380000643A07D08B100F095FA404619F076F8F0B2BDE8FE8FE0B5062358436A460821BC
:2003A000203017F0C3FB10B99DF807000EBD00200EBDDFF86407007808210DF03FB938B548
:2003C0000025DFF8544718E0206A06236B4300EBC5022033082198B217F0A8FB58B1206A78
:2003E0000622FF2100EBC50018F056FE206A00EBC5010022CA716D1CEDB2E1798D42E3DB02
:20040000A07D10B1BDE8314054E231BDF8B5DFF80817DFF81037C9791E680C460A4600E0B9
:200420002A46D5B23DB1551ED2B2324412F8017C8742F5D12C46E4B220464D1E07E0171865
:20044000165C7F7817541A680244401C5670A8421A68F4DBAC4204DABDE8F840052017F0CE
:2004600079BBF1BD70B50024DFF8AC5600E0641CE879E3B283420BD22B6AE6B20622FF210B
:2004800003EBC60018F010F90028F0D0E0B270BDDFF89426117839B1DFF8880601680C789A
:2004A000204600F013F8204670BD38B500200024DFF8645603E0E0B200F008F8641CEA793E
:2004C000E1B2914201D20100F5D032BD2DE9F84F8146CB46062313FB0BFB8EB00BF120055D
:2004E00001AA0821284617F021FB002869D10622FF2101A818F0D8F8002862D100F077F8B2
:200500005FEA000803D100F06AF80A205BE01C22FF2103A818F0C0FD3A7A00F05BF80BF13E
:2005200023060AAA1021304617F000FB60B91022FF210AA818F0B8F830B99DF80A0001A92E
:2005400000F0010019F084FE082200F03FF801AA0821284617F0FEFA054603AA1C210BF15C
:20056000210017F0F7FA8DF8000003AA1C210BF1220017F0EFFA044603AA1021304617F040
:20058000E9FA064603AA10210BF1240017F0E2FA824603AA00F026F89DF800100D4325436B
:2005A0003543397A4AEA0505054389064246090E09F1E00017F0CEFA0543404618F05EFF80
:2005C00000E0002528460FB0BDE8F08FFF2101A818F062BD9200FF21404618F05DBD042057
:2005E00017F07EB804210BF1250017F0B3BADFF82875387A800018F039BF2DE9F84187B0D8
:20060000FF208DF80000DFF81055E87918F02EFF040003D1FFF7E3FF0A2030E01022FF2128
:2006200003A818F039FDEA79FF21204618F034FD0622FFF7CBFF03AA1021022017F08AFA3C
:20064000064603AA1021032017F084FA06436A460121042017F07EFA0746E97922460520CE
:2006600017F078FA054601AA0621062017F072FA804600F0D4F93E432E4348EA060008B0E6
:20068000BDE8F081DFF890144088097817F0FEB9F0B5A9B006460D46144619F0E1FD08B923
:2006A0001420A6E0A4220021684618F0F5FCADF80060DFF86464F078F17B279A8DF8040030
:2006C0005208307C8DF8A0004B0801F0010040EA420222F0020203F0010342EA43020809AD
:2006E00022F4807200F0010042EA0022480922F4007200F0010042EA4022880922F48062D2
:2007000000F0010042EA8022890822F0040201F00101707C42EA8102279202280CBF012014
:2007200000200DF12607787419F08EFD412807DB707C00B108209DF8991008438DF8990037
:20074000F07CB8B10121B974202206F188010DF1390018F0ABFC202206F1A8010DF1590094
:2007600018F0A4FC202206F1C8010DF1790018F09DFC00E0B874707B8DF8050090B1DFF81E
:20078000AC73102207F110010DF1060018F08EFC9DF89900082805D1102239460DF1160070
:2007A00018F084FC307B8DF8260030B11022DFF880130DF1270018F079FC307948B1022D6B
:2007C00018BF032D03D1279840F002002790012100E000219DF899000143B0788DF89910AB
:2007E00000B1042001438DF899106846214619F027FD29B0F0BD2DE9FC41154615244FF6BE
:20080000FF72904288460ED10027DFF80C63F179F8B2884216D22A464146FFF785FC00B196
:2008200000247F1CF3E719F01BFD50B100F00DF840B99DF804002A464146FFF775FC0024F4
:2008400000E014242046BDE8F681002100910023417901AA01F00101801D0DF0D1BF70B582
:2008600004460D4606204543082B88B0164603D1300758BF223500D521351C220021FFF76D
:20088000A6FE01AA1C21284617F050F980B99DF81E00C01F0A280BD29DF830000090F208E5
:2008A00001AB02F0010206F00101204619F0C4FC08B070BD38B519F0BBFC0024964D0FE0E8
:2008C000286A0622FF2100EBC40017F0EDFE28B9286A00EBC401002019F0A6FC641CE4B299
:2008E000E8798442ECDB31BDF0B5924D0646686885B04FF6FF7438B9009502238E4A2146A5
:20090000012019F08DFC6860696819B30222FF2002920023039001930DF112072A8800973E
:2009200004AB304606F040F860B99DF810009DF8111000EB0122100004D0686841893046EE
:20094000FFF7C3FB2A8868680023214619F064FC686008B9012000E0002005B0F0BD3EB56F
:200960000C46002501460095002301AA20460DF047FF38B99DF80400FFF70DFDC00601D488
:2009800001203EBD00203EBD2DE9F0416B4F3C6806468846154603E02089B04224D0246808
:2009A000002CF9D10C2018F061FD040019D0268184F80A8000202060E07245B10821284696
:2009C00018F036F8606018B900F029F80AE06060396811B93C6004E0014608680028FBD1FF
:2009E0000C600CB9152018E019F012FC08B1002013E00120E0722A4641463046FFF748FE9A
:200A000004464548C06900281CBF4368002B03D000220021304698472046BDE8F0812046B0
:200A200018F02CBD38B505464448046803E02089A84204D02468002CF9D1012032BDE07A5F
:200A4000012807D100F05CF820B13348007804210CF0F4FDE17A491CE1722846C9B200F08F
:200A600002F8002032BD38B5022904462A4D02D003290DD01EE042F6C921FFF7E1FA0200C6
:200A80001CBFE869002818D04368B3B105210CE042F6A621FFF7D4FA01001CBFE9690029DF
:200AA0000BD04B684BB102460421204601B0BDE830401847BDE8324000E031BD10B51F4AA1
:200AC0001468002101E0214624686CB123898342F9D1206800290CBF10600860606808B178
:200AE00018F0CCFCFFF79BFF002010BD024604201249096819B10B899342FAD1C87A70477A
:200B00000E48006828B1006818B1C17A0029FAD17047002070470000741A0020680F00200B
:200B2000F33C0020843C0020F23C00205C3A00208C3A0020343C00209ACD0100883C0020C0
:200B400038B584B0044619F08BFB0622417901F001018DF80E10811D02A818F0A7FA002012
:200B6000009000239DF80E1001AA02A80DF048FE9DF80400FFF7AAFC05460521204619F062
:200B800043FB284605B030BD8EB0DFF8EC49211D204613F0F7F904F1180018F0D4FCDFF86A
:200BA000DC39A06000200021802906D04FF6FF725A525A181031D060F6E7DFF8C409DFF8C3
:200BC000C419DFF8C469002215234FF0000900901020B04744F26820FB211B224FF4A4736A
:200BE000CDE90010DFF8A4191020B047DFF8A0191020B0472178DFF89C595020A847DFF822
:200C0000981902461020B047DFF8901910200122B047DFF88C1910204FF0FF32B04721783E
:200C20005020A847DFF87C1902461020B0470CF099FEDFF87489DFF87419102008F1100274
:200C4000B047DFF86C19102000220023B04721785020A847DFF85C1902461020B047217889
:200C60005020A8470346DFF8500902210822CDE90010DFF848191020B0474FF0FF3000219B
:200C800013F09EFBDFF8383900210022C8F80C0018F0ABF8D8F80C00DFF82839012100225E
:200CA00018F0A3F8D8F80C000021002218F0DAFD18F0ECFD07A8811C08300391049060682E
:200CC00000214FF040424FF0FF330CF019F80028F5D08346CDF8149006A80DF11B0105AA1E
:200CE00015F0A9FE002840F0D682BDF81800102840F0C98220789DF81B10814240F0C38288
:200D0000DDF814A04FF6FF71BAF80000884200F0BC82C1B2912900F08680B02900F0A480DB
:200D2000D02940F0B0829AF80200072800F2B680DFE810F00800A902A902A902A9022801C9
:200D40005C018301DFF8EC18DFF8EC28DFF8385810200023A847DFF8E41810204FF4860275
:200D6000A8474FF44870DFF8D81801220123CDE900001020A847DFF8CC7806200022ADF89E
:200D80001C00102007AB3946A84701200DF13706394601228DF8370010203346A847012074
:200DA0003946062233468DF837001020A84740F6020039460322ADF81C00102007ABA847CA
:200DC000DFF88478502610200122022300963946A84710203946012203230096A847BAF81F
:200DE0000400D8F80C6060800AF1060014F096FDDFF85818DFF858380022CDE9001030462F
:200E000018F0C1FD002019F0FBF90120DFF8441840F6B832002300900920019004F12000F9
:200E200013F058F92FE2000A3E2855D00F2867D0102800F082800E2840F02582BAF804005D
:200E400041F20541884240F01E82DAF80800D8F80C6090F90350B0F8010016F0EBFCDFF820
:200E60009037CDE9000509E2BAF8020019F0C4F968B99AF80110162964D19AF80410D8F8DD
:200E80000C00DFF894370022009118F07CFD9AF804100AF1080019F0ABF9F4E1112800F01C
:200EA0003981152840F0EF8198F80000002800F0EA81E168002900F0B48104F1100017F0E5
:200EC00014FEE06818F0AEFD98F80100C4F80C90411E88F80110A6E19AF802000C2840F0AD
:200EE000D281BAF80400D8F80C609AF8035016F0A1FC002D00F06C81DFF8D0360090BDE110
:200F0000BAF8041040F20640814200F0BC8142F23200814240F033819AF80210D8F80C0016
:200F20001A2903BF00210022DFF8BC3600911EBF00210022DFF8AC36A3E1082000210CF06D
:200F400037FEA0E19AF804007F2800F04C810B2800F05081132800F056817E2800F05A817A
:200F6000012840F015819AF80820122A00F0AA820A2A40F00D819AF80C10D8F80C00DFF81D
:200F8000843680E798F80000BAF80A500AF10406D0B1E068C0B100F108013046062217F0B6
:200FA00039FD88B104F11007E168384617F09DFDE168384617F087FFE068C4F80C90817C5D
:200FC000058241F001018174DFF8B00500218DF81C100430082900F0CC8230F8042C4FF6C4
:200FE000FF739A4270D010300131F3E798F80000BAF8047000283FD004F11006304618F0A1
:201000009FFD8246C0B3BAF81000B84211D13046514617F06AFD3046514617F05FFF4FF629
:20102000FF70AAF810009AF8120000F0FE008AF81200504618F086FDE3E7BAF80420DFF8D1
:20104000DC15102007AB0FF02DFE002840F005819AF80300D8F80C600028039800F0ED80C4
:201060009AF8025014F05AFCDFF8B435CDE90050304600210022EEE0384617F0BDF808287B
:2010800080F07782DFF8F41401EB001555F80C0F78B118F02BFD286818F046FD286818F0D3
:2010A000C1FCD8F80C0000210022C5F8009018F0D9FBDFF8C8140020082845D00A88BA4285
:2010C00044D010310130F7E720F8045C32680260B288828098F80320013211F0F80F88F88E
:2010E000032040F0468220F8029C14F017FCDFF83C1510204FF4806207AB0FF0D3FD98F87A
:201100000000002800F0BF809DF81C00022840F0A780B8E001208DF82700BAF80400ADF886
:201120001C009AF80E008DF82600DAF80A10DAF80600CDF82210DFF8F014CDF81E0010209F
:2011400007AA0FF0AFFD88E0082508E04FF6FF72C5B20A8098F80310013988F8031098F8FF
:20116000000008B111F016FA082D80F00282DFF80C0400EB0510043014F0D0FB83E09AF89D
:201180000220D8F80C00DFF86434CDE9001276E098F80420032A00F09B81022A00F0B48186
:2011A000012A08BF03287FF472AE4FF6FF700225217888F804500F38ADF81C00BAF802601B
:2011C000502016F043F9DFF84814CDE90050CAE19AF80720DFF8F813012A4BD0022A42D159
:2011E000DFF8F01346E0BAF80810D8F80C00DFF8043448E6DAF80C10D8F80C00DFF808342F
:201200000022097840E698F80210D8F80C00DFF8EC3338E69AF80810D8F80C00DFF8D8330B
:2012200031E698F80110C9B2D8F80C00DFF800340022009118F0A7FB12E014F06FFBBDF822
:201240003010DFF8E033002201EB81014900CDE900013046002117F0C8FD98F8000090B1A0
:2012600011F098F90FE0DFF87413032ADFF8682308BF1146DFF86833CDE900013046002122
:20128000002217F0B2FDDDF814A0BAF1000F02D0504618F06CFB5FEA4B00DFF8E0B27FF5EB
:2012A0000EADA06817F0BEFC00283FF408AD064600880338072800F2AD80DFE800F004077B
:2012C0002D475A19AB6B18F0E1FAA3E07568A869002800F09F8001781E2906D181784C2981
:2012E00003D1C178002900F0CE8018F09BFB91E07568B54F687A38B1D8F80C00D64B0021A1
:201300000022009717F071FDEA88D4491020002300970FF0C7FC7DE001202178B8F8065047
:20132000C8F8089088F8040060880438ADF81C00502016F08BF8D349009010202A4607ABF5
:201340000FF0B0FC002017F0DDF963E0B07801013BF801704FF6FF718F425BD00BEB00101D
:20136000C06818F0C1FBC64910203A460FF09AFC50E07768B0788DF83790B978032849D82D
:20138000DFE800F002121A3AD8F80C00BB4B002100223DE0D8F80C00BB4B18F0ACFABB4958
:2013A00010200FF07FFC35E0E1B3D8F80C00B04B0091002100220BE00029D8F80C0003BF7D
:2013C00000210022A94B00911EBF00210022A64B17F00BFD954910204FF480620DF13703BA
:2013E0000FF060FC98F80000A0B19DF83700022810D111F0CFF80DE00029D8F80C001FBF42
:20140000009100210022964B02BF00210022954B17F0EBFC706808B118F004FB304618F02F
:2014200001FB3EE7D8F80C00924B18F064FA3A887A49102007AB0FF035FC0028CAD19DF87D
:201440001D0000F0FE000228C4D104980021062217F00DFD0028BDD1039DD8F80CA028468C
:2014600014F05CFA844B0090504618F044FA388816F0C2FE08287CD2A9880BEB001001811A
:2014800029684160A6E70179072908D012297FF42CAF81797F4F10297FF427AF04E081795A
:2014A0007B4F05297FF421AFD8F80CA0A81C14F035FA00905046002100223B4617F095FCFC
:2014C000A86912E79AF80C10D8F80C004C4BDAE4092816D1BAF8080098B1B8F8060016F04C
:2014E0008BFE082845D225494A4B002201EB0010DAF80C10B1F803104180D8F80C0018F0AC
:2015000042FA88F80490C2E407280CD1BAF808203AB1DAF80C201388A8F808305288A8F819
:201520000A201A2902D001287FF4B1ACB8F8080000283FF4ACAC0321ADF81C00B8F80A0069
:2015400088F80410FF218DF822104FF20211ADF81E005020ADF820102178BAF8026015F012
:2015600075FF2A4900901020324607AB0FF09AFB8DE417F0A9FF00BF74200020F832002029
:20158000B8220020312F0100A50C01000D3D0210397F01104D740100F16C0210817F0100E7
:2015A0005D6001002D6D021088220020598001001D5A0100D96C0210EC230020419E000040
:2015C00030BD01003FBD010040E20100C0BD0100EDBD0100F4BD0100FBBD010001BE0100A9
:2015E000D7BD010083BD010054BD01009DBD010009BF0100EBBE0100DBBE0100C8BE010014
:20160000B9BE01009ABE0100A8BE01002565021039BD0110F8BE010087BE0100F9DC01100C
:2016200070BE010054BE0100D9570110D9C4000025BE01008961021069630100C56901109E
:20164000F5F9011095390110D5F4011022BE010016BE0100A56A010020C00100816E01003B
:201660000BC00100F9BF0100E3BF0100D0BF0100BFBF01009EBF0100AEBF01008EBF010019
:201680000D2B0210ED0702107ABF0100F17101004EBF010019BF01002DE9F84FDFF8B0573B
:2016A000696884B0019121B905B0BDE8F04F18F09BBD0978DFF89C67DFF89C7746F2A81A81
:2016C00040F6C41941F64C58012918BF02290AD004291CBF0829102905D0402918BF8029E6
:2016E00000F0C981ABE318F073F80028FAD0012015F0A6F820B1012015F0DAF815F068F8CB
:20170000082015F09DF820B1082015F0D1F815F05FF8102015F094F820B1102015F0C8F85D
:2017200015F056F80198007802F052F80090002460B1007801281CBF0828102802D10098F5
:20174000446803E0009815F043F80446DFF80C174878002800F0F88018F0D4F917F092FC24
:201760008246DFF8F816DAF800000190002CD0F804B09AF80600C87004D00199009818F0D3
:20178000BFF9022800F0B38000990A78012A08D0022A12D0042A5DD0082A0CD0102A54D051
:2017A0004DE320B918F01CFD8044C4F808800120A870112135E1082004E105223A70D0B90F
:2017C00018F00EFD8044C4F808806069A168DFF890261368DE69DFF88C361B78B21D03EBE4
:2017E0008303D25A09FB0219C0F82090A068DFF870160A6810615246DFF864060168CB69F2
:20180000DFF860160E78981D06EB8606815B00980EF05AFB61696269D27F02F0EF02CA77F2
:20182000002861696269D27F42F08002CA770CBF0121022162696369DB7F03F0F003194362
:20184000D1776169486202204FE01021A9701320387028E206213970D0B918F0C1FC80446A
:20186000C4F808806069A168DFF8FC2513685E69DFF8F8351B7806F10C021B01D25A09FB30
:201880000219C0F82090A068DFF8DC150A68D060DFF8D4653068007C0EF016FD30684169DC
:2018A000DFF8C805067801F10C0336010098995B52460EF009FB61696269D27F02F0EF02DF
:2018C000CA77002861696269D27F42F08002CA770CBF0121022162696369DB7F03F0F003DD
:2018E0001943D177616948620420A870DBE10198017880290CD10820DFF8741538700A788E
:20190000DBF81400012A1ABF716A0978012113E0072038709AF8060017F060FD0446207BBB
:20192000C10700F1CF80DFF848050178DBF8140001291CBF716A4978C1729AF80600DFF8D8
:201940001C158870019875E20098002823D00199009A0078DFF81065914212D1012809D00B
:2019600002280DD0042800F08180082802D0102806D002E0002C03D167E2002015F0B0FE35
:2019800091E1012808D002281FD004284BD0082816D0102841D052E2002CEDD018F020FCD4
:2019A0000146A068514416F0B7FD20B918F018FC8044C4F80880112038700121A97072E125
:2019C000002CD9D0A87012212BE0052038700222AA7018F005FC0146A068514416F09CFD45
:2019E00008B100F060B918F0FBFB8044C4F808806069A168DFF868241368DD69DFF86434BA
:201A00001B78AE1D03EB8303F55A09FB0519C0F82090A0681168086145E1002CACD0A8704B
:201A2000132139703FE1062038700422AA7018F0D7FB0146A068514416F06EFDB0B918F0FB
:201A4000CFFB8044C4F808806069A16832685369DFF81824127803F10C051201AB5A09FBCE
:201A60000319C0F82090A0683168C8603068007C0EF02AFC17E1DFF8E4134878002800F043
:201A80003B8118F03FF817F0FDFA8246DAF800000290D0F804B0DFF8C403807817F0F2FA1C
:201AA0000390DFF8B8139AF80600C87001980178402913D19AF8060017F090FC0446207BB2
:201AC000C1070BD59AF8060017F0DCFA052115F0F1FF207B00F0FE002073B6E117F072FEA4
:201AE00010F01F0F32D0012014F0AAFE20B1012014F0DEFE14F06CFE082014F0A1FE20B10D
:201B0000082014F0D5FE14F063FE102014F098FE20B1102014F0CCFE14F05AFEA87801F05B
:201B200057FE0090007801281CBF0828102802D10098446803E0009814F04AFE0446002C88
:201B400004D00299009817F0DBFF022800F0B08000990A78012A08D0022A17D0042A5CD0C8
:201B6000082A0ED0102A53D09FE020B918F038FB8044C4F808801120387001210098A970B1
:201B800058E10820A870122139708CE005213970B44EB34FB0B918F023FB8044C4F808801A
:201BA0006069A1683A68D369327803F1060C02EB82023CF8023009FB0319C0F82090A0685E
:201BC0003968086152463868C16930788B1D00EB8000195A00980EF077F961696269D27F7F
:201BE00002F0EF02CA77002861696269D27F42F08002CA770CBF0121022162696369DB7FBD
:201C000003F0F0031943D17761694862022049E01020A8701321397045E006213970934E80
:201C2000B0B918F0DDFA8044C4F808806069A1688D4A13685B6903F10C0233781B01D25A77
:201C400009FB0219C0F82090A06887490A68D060854F3868007C0EF037FB38684169307871
:201C600001F10C0300015246195A00980EF02CF961696269D27F02F0EF02CA7700286169A0
:201C80006269D27F42F08002CA770CBF0121022162696369DB7F03F0F0031943D1776169DE
:201CA00048620420A8700098C4E0002015F018FD039850451ED002996D480A78802A0AD153
:201CC0000821397000780128DBF814001ABF716A0978012109E007223A7000780128DBF823
:201CE00014000EBF0121716A4978C1729AF806005A49887002989DE017F064FD10F01F0F32
:201D000035D0012014F09CFD20B1012014F0D0FD14F05EFD082014F093FD20B1082014F025
:201D2000C7FD14F055FD102014F08AFD20B1102014F0BEFD14F04CFDA87801F049FD06461E
:201D4000307801281CBF0828102801D1746803E0304614F03DFD04463078012808D002280D
:201D600017D004283DD008280ED0102834D06CE0002C6AD018F034FA8044C4F808801120D8
:201D800038700121A97054E0002C5ED0A870122125E00520387018F023FA0146A0685144AC
:201DA00016F0BAFBB0B918F01BFA8044C4F808806069A1682A4A1368DB699F1D294B1B7812
:201DC00003EB8303FB5A09FB0319C0F82090A0681168086102202BE0BCB3A8701321397037
:201DE00027E00620387018F0FBF90146A0681E4F514416F091FBB0B918F0F2F98044C4F853
:201E000008806069A1683A685369184A127803F10C0C12013CF8023009FB0319C0F8209011
:201E2000A0683968C8603868007C0EF04DFA0420A870304605B0BDE8F04F0AF0D1BF05B0E6
:201E4000BDE8F04F002015F04BBC05B0BDE8F08F043C00209CC80100C80F0020780E002037
:201E6000500F0020D80F0020540F0020D90F0020CC0F00202DE9F04F054687B0A978DFF887
:201E8000E066002710294FF0060A3CD8DFE811F0110063036303630363033C00CC0063035A
:201EA0006303C7021201FD00180363039902DE025B036878002826D118F08EF9044618F0A9
:201EC00087F9054618F080F98DF8000022461021022015F03FFE2A461021032015F03AFE33
:201EE0006A460121042015F035FE9DF80000012818BF032807D1012018F082F90246062109
:201F0000062015F027FE26E368780028FBD195F80CB06C8900900023E97801AA01F00101A4
:201F2000281D0CF06DFC00284FF0010872D19DF80400FEF730FA8146BBF1080F08BFB8463D
:201F4000307A800017F092FA050003D1042015F0C7FB00E3707802280CBF0120002000906F
:201F60005B469DF804104A462046FEF778FC1422002102A817F090F89DF804001AFB00F08A
:201F800002AA1021243015F0D1FDA8B91022FF2102A816F089FB78B99DF804001AFB00FA7D
:201FA00006AA04210AF1250015F0C0FD02AA09F00101204618F004F9317A9DF80400890685
:201FC0002A46090EE03015F0B1FD98B92846FEF74AF9BA4609E005EB8000018819B182781A
:201FE000204616F069FA0AF1010A317A5FFA8AF08842F0D3B07A30B95FEA897003D531782B
:20200000204615F043FD9DF80400FEF7FFF9284617F034FA7078022805D1B8F1000F02D07A
:20202000204611F0F5FA96E2A888FEF747FD18F0C3F80028F7D1F07D012808D1FEF735FA23
:20204000F279706AF775002117F026F817E0307E012803D1FEF7D1FA377610E000240AE07C
:20206000706AE5B2415D012904D1E0B2FEF72EFA716A4F55641CE0B2F1798842F0D35020AB
:2020800016F08AFAFEF79BF965E218F0C1F800280CD0F06900281CBF0468002C07D02869C5
:2020A00000906B7B2A7B6989E81CA04752E26889012145E268780024002840F0DA80A879E3
:2020C000C10740F1D6800822002105A816F0E4FFA88818F0C5F8040000F08E806F694FB3FF
:2020E0000622002107F1110016F0DEFA68B310220021384616F0D8FAD0B9387C00F00108B6
:202100004FF0000909F1010987F811900020009000230022414607F111000CF071FB00283E
:202120005FFA89F002D10028ECD101E000280CD1002068610622607900F001008DF81A00B5
:20214000A11D05A816F0B2FF1FE06F69EFB1387C00F001008DF81A00062207F1110105A8C3
:2021600016F0A4FF6079012805D10622A11D04F10C0016F09BFF062207F11101A01D16F062
:2021800095FF387C40F002006071A879410720794CBF40F0020000F0FD002071A9790A0704
:2021A00054BF00F0DF0040F020002071A9799DF81B00DFF8B083890801F0010108438DF82C
:2021C0001B004FF0FF09A979C90801F0010140EAC1008DF81B00FF2469691E2779B3102294
:2021E000684616F063FF1021684617F0E1FF4FF0000BDFF874930CE0FEF782FC0028D5D0AF
:20220000307804210BF01AFAD0E70BF101005FFA80FB99F80000834510DAD8F8001007FB35
:202220000BF00A5CFF2AF0D0084400F10D011022684616F0EFFB0128E7D15C46A1460020AF
:20224000009000239DF81A1004AA05A80CF0D8FAB9F1FF0F5DD034285BD1707D30B301287D
:2022600057D1A888052117F0CFFF0124A888FEF725FC68780B2804BFA888FEF761FCF069EF
:2022800000281CBF4368002B0FD06A78A888012198476878002808D1A879C10705D5F36973
:2022A000A88822465C680321A0474CE1D8F80000002117FB09F90091002310F80910401C54
:2022C00004AA48440CF09CFA18BB9DF81000FEF7FDF8F0B9FEF773F8FEF7C4F88DF8100081
:2022E000E86800280CBF00210169002201900392029105A9686900902B69AA689DF81000DB
:20230000FDF7C5FF0446A888FEF7EEFA200046D14BE00020009000239DF81A1004AA05A85F
:202320000CF06EFA20B1FEF79DF88DF8100019E06869B8B19DF810001AFB00FA6A46102181
:202340000AF1230015F0F2FB60B91022FF21684616F0AAF930B99DF81A0005A900F0010074
:2023600017F076FF9DF81000F179884227D2E86800280CBF00210169002201900392029166
:2023800005A9686900902B69AA689DF81000FDF77EFF0446A888FEF7A7FA200005D09DF8D8
:2023A0001000FEF793F8FEF70AF8200008D1707A0028A8887FF45BAFFEF734FB59E7152441
:2023C00054E7687806281FD1A88817F049FFD8B1317D491E032917D8DFE801F0020E0813A9
:2023E0004179A8880022FEF7CFFA0DE00022002140F2094002F0E8FAA888052117F004FF34
:2024000002E0A888FEF79CFBF06900281CBF4368002B03D06A78A888022198479AE00097F4
:202420000023E97801AA01F00101281D0CF0E8F90028F3D19DF804001AFB00FA05F10C02C0
:2024400004210AF1250015F085FB83E0F06900281CBF4368002B03D0A888002200219847F8
:20246000707810B9A88805216AE0A88817F0F8FE040070D0A87AC10712D500970023617935
:20248000002201F00101A01D0CF0BAF900281EBF60790028012803D0E868C0F3402028B17D
:2024A000707C022807D1A87A010704D4A888032117F07AFE4FE06179A88805F1080227E019
:2024C0002F7BAD88284617F0CBFE040042D017F09FFE00283ED100900023617901AA01F0C5
:2024E0000101A01D0CF08CF928BB9DF80400FDF752FF07F00C07042F11D0082F0BD00C2F70
:202500000FD100F0090109290BD0617900222846FEF73AFA1EE010F0090F02D1F5E7C107B4
:20252000F3D501220092A37C9DF8041002462846FEF795F90EE070780028E6D105212846D4
:2025400017F032FE06E0FEF7DBFA18B1307804210BF074F80127384607B0BDE8F08F00BF57
:20256000741A0020680F0020ED3C00202DE9F04F85B00D460295044615F8011B8DF8011050
:202580000022DFF8E81488788DF8002004F1660B16F024FF01902C219DF80100DFF8D024D3
:2025A000032804F1F40604F5B07A04F59C7704F5C87804F2171900F0E180072800F015826C
:2025C000082818BF092811D00C2800F0D9810F2811D0112800F04681182800F094811A28D5
:2025E00000F059811B2800F07E811CE2294620460FF058FB17E2707ADFF8788481070AD49E
:202600000F2089F80200204617F0CAFD002872D198F80000DEE12878697800EB01223A82CF
:20262000A878E97800EB01227A822879697900EB0122BA82A879E97900EB0122FA82287A93
:202640003876697AA87A01EB00227A83E87A297B00EB0122BA83687BA97B00EB0122FA83D9
:20266000E87B297C00EB01223A84687CA97C00EB01227A84E87C297D00EB0122BA84687D36
:20268000A97D00EB0122DFF8F003FA8401788A0658BF4FF01A0A13D504F5AA700490798BA8
:2026A0000391387E029021890191F88A0090BB8A7A8A398A204617F06FFDE8B14FF01E0A0B
:2026C000707A41070AD40F2089F80200204617F067FD00280FD198F800007BE152460F21AB
:2026E000204617F055FDF88A0090BB8A7A8AA179504611F043FD74E104F18600798A8180FB
:202700000023BA8AC2800222F98A018102704380A18EC91DABF81E10628E8188B1EB520FD6
:2027200002BFC188A28E914202BF0089E18EB0EB111F21D09BF81000012804BF9BF81100E4
:202740000F280CD09BF8150000281CBF9BF811001A2804D00F218BF81A10FE217EE0FC218A
:20276000204617F011FDF88A0090BB8A7A8A398AA07917F005FD34E110216FE0707AC10757
:2027800009D431781A200129707002D1FF220D213DE00D2162E000208BF800008BF8060094
:2027A000012232712946082204F1B00017F0E4FC0146022204F1B80017F0DEFC04F1A80593
:2027C00001460822284617F0D7FC07460821284617F0EEFC04F19C0504223946284617F0BB
:2027E000CBFC0421284617F0E3FC04F1A00017F0BFFC04F1980017F0B7FCA048018841F059
:20280000800101803078012805D1FF220421204617F0A6FCE5E09BF811600F2E18BF142E9B
:2028200007D00E2E18BF0C2E03D01A2E18BF162E13D19BF81070204617F08EFC04212046C5
:2028400017F0A2FC012F06D18BF81A601A2E14BFFD21FB2102E0314600E00421204617F0AF
:2028600093FCBEE028788AF800001A286B788AF8013040F0D8801068A679431C4E43002002
:202880009855A379126811FB03F111440871A1799AF80100C0E0A77910682E784F4307447F
:2028A00006F01F0317F8210FB60938B17878F040C00703D598F80600042805D120221A2145
:2028C000204617F065FC8CE0FB701068A27911FB02F10144204681F82360002117F0DEF81C
:2028E0000028F0D174E0A37910684B430344D88808B900265E701068A27911FB02F1014446
:20290000002008716DE069782878884204BF084010F0070F6DD19BF81100162806D198F8DE
:202920000620A179134600200AF022FE022088F80200012101984177012398F8060098F863
:202940000A1088F80000BAF81C2017F001FCBAF81810814209D3BAF81C2098F80A1098F84A
:202960000000012317F0F4FB0146AAF82E10012198F8080040F0400088F80800397030E0AB
:20298000707E012810D015F8011B31770222294604F5897017F0F0FB0146022204F58A709A
:2029A00017F0EAFB012070769BF8060030B93D21012289F8011089F8002012E0F07E002866
:2029C00004BFB07E00280CD1204617F0BDFB30B9284800784FF480410AF030FE01E00120DD
:2029E000F07601218DF8001021E028780F2816D01A2818D1A0791368484318440023437080
:202A0000A079126811FB00F150180371F07A00F0FB00F0721A20A1790CF019FFE1E7707A79
:202A200000F0FD0070722046029917F089FB9BF811001A2815D19BF8120017281CBF102878
:202A4000FC280ED19BF81060204617F085FB012E03BF1A208BF81A00FB211A21204617F0F7
:202A600093FB9DF8000005B0BDE8F08F780E0020603C0020C70F0020200E00209C0F0020E9
:202A80002DE9F84305460C46480413D4A00024D4A0075CD460057ED4200500F1068120072B
:202AA00000F13B81600040F1F68010F015F924F08044F0E016F0B4FDDFF81C140F6D3FB182
:202AC000D7E90A1202F0E04201F00A01891849D016F047FF24F48044DDE0BB48DFF8FC7322
:202AE000016841F080010160B878012804D1042014F05AF80020B87016F092FD0646042065
:202B000016F0C4FDDFF8D8130A68904219D12A7EBAB1FA68AAB1DFF8C003806C002800F090
:202B20009780C16840F603020988914206D0C06840F604010088884240F08A8005F11400E7
:202B400088E040F6C4120860C5E9042284E006F0EDFEDFF88403006C002840F09D8024F02D
:202B6000020498E0D7E90A65D7E90A12AA43B143C7E90A1216F0F5FEB8680028AAD056EA24
:202B80000500A7D0D7F808C03869B7F9301032462B46E0479EE716F043FD054615F060F90D
:202BA000002800F0B780CC48876B002F00F0B280DFF828830420CB49002288F81800C648ED
:202BC00016F029F916F0E2FEC74816F0BEFEC7480068006B8047C8F810000125042088F8D3
:202BE000025014F045FA386990F82810C8F80400490703D5436A042100229847012010F0FF
:202C000089FFD8F8040045760CF002FBD8F8040081680B461A465B684BB11E88A6F603062C
:202C2000072EF7D805FA06F616F0830FF2D0537B03F0F003013353730023FD6853602D889D
:202C4000A5F60305012D00F28A80C8F810309FE005F1100012F00AFC304616F082FE14F01A
:202C60001FFA78B12E6A28466FF4807100224FF00073B0479848806B10B110F02DF801E05B
:202C800044F00204EE692846002100224FF08063B04724F0005434B1974821462830BDE849
:202CA000F84316F019BFBDE8F8838C4EB078012804D1042013F078FF0020B07014F0F0F910
:202CC00038B170686FF4807100224FF00073056AA847306950B185480068006B8047326911
:202CE0007168801A000BC860002030617A4D81490022284616F08FF802203076286C20B1A2
:202D00007D480221283016F0E7FE0FF0E5FF24F40064C0E716F03AFE41E016F081FC054655
:202D200015F09EF8A0B1DFF8B48198F8000000070ED498F9000000280AD468460CF05EFB88
:202D400008B1009820B1DFF8B49199F8610048B316F01CFE0FF0C0FF24F008049BE703467F
:202D600033F8385FA5B190F8445090F8456005F0F00580F8445006F0F005013580F84550CE
:202D800000255360C5634587507B00F0F000507357480022C2610160012015F0FDFA24F47F
:202DA000806478E700260127602E0FD009EB0600817A31B18772407A07FA00F0C0B213F025
:202DC0000DFF2036F0E700BFCC210840032088F81800454816F0B9FD16F0D8FD444F3E4DC9
:202DE0000022786900207861F968F8602846444916F011F83D480068006B8047D8F80C1009
:202E0000D8F82020411A02EB1130B0EB113F38BF4FF0FF3098F82410C8F8200021B1D8F883
:202E20000810B0EBC12F20D915F0C6FAB8B140F60900414621F83C0F002048804A7B02F0FF
:202E4000F00201324A730A7B02F0F0020A734860F8613960B8F83E0010F4406FFAD0002085
:202E6000C8F82000012088F8240012F019F82548002101600220002115F08EFA022013F0B6
:202E800093FE10200BF0AEFB98F8010020B9D8F80400503016F01CFE1B48807810B90D209E
:202EA0000BF0A0FB98F8250028B1002088F82500052013F079FE002088F818001348C8F8B7
:202EC0001C000220B5F85610B5F85420914208BF07200FF045F93DE7781F00200C1D00205E
:202EE000D82300203D7E0100203800208C0100100010044021BE0000B01E00206835002008
:202F00003D2D01000000046084CC01000DB800002DE9FE4F0546DFF82C04DFF82C64027836
:202F2000002A4CD0052A73D0062A00F08080072A18BF082A00F0F5800A2A00F0D681112A64
:202F400002D0132A70D0F4E1DFF800341878002117F0F2F804001EBF606D407810F00C0F1F
:202F60002DD0216DC0064CBF886CC86E016801F108050622A91C684616F098F8287800F0A2
:202F80000F0105291BD145096946C0F3801017F0CFF8002813D03168684617F0C5F8074696
:202FA000316804F1380017F0BFF887420DD0606D4178C80604D440F2014017F0B1F8BEE1F9
:202FC000607B40F002006073B9E133681E2010FB07F6981906226946C01D16F067F8606DFF
:202FE0004178C806F0D5A17B0129EDD1DFF860038178480605D5E90703D4206D41F20A4154
:2030000002E0206D41F2044141804183418696E116F040FD0028FAD10EF0D4FD012802D006
:20302000012017F079F88AE110F011F987E1DFF82453286817F06CF80400F7D02079032842
:20304000F4D1207A00F00F01072937D1C24800684169497A4A1E11425CD0617A04F10A0336
:203060005A5C02F03F02252A54DBA17A8A09012A50D111F03F0F4DD0007C16F003F8E17AAB
:20308000CA074CBF04F1110204F10B028B0748BF921D0B0748BF921CC90648BFD21C1278ED
:2030A000520916214A43AD498B180A31EB608A5A428699898186DA89C2862BE000F00F0048
:2030C000082827D1A17A880924D119B3A2480168087C15F0D7FFE17A074688071AD506225B
:2030E00001F001015143601800F10C01684615F0DDFF207AC009694617F01AF850B1306880
:2031000000F10D01684616F0FFFF18B90521384614F0D0FC2079032802D0002014F0E0FA25
:2031200003E1DFF83CB29BF802000024FF281BD015F0A8FF804608F16C09D9F8040016F060
:20314000E7FF2A460179032901D011000CD08368197801F003008D06009003D5012400988D
:2031600018B9BFE01000FAD0E9E05D7803F1020A34B31AF8010B7B4B01902C2098F806C069
:203180001F6810FB0CFC67444FF0010E87F805E0002A1F6898F806E007F11A0C019F10FB48
:2031A0000EFE07F01F070CF80E7098F806701B6810FB07F01844019BC3F38113C3761AD173
:2031C0000098032808F217171AD0ADB199F8000068B108F1F4000278012A0DD1594B1A786C
:2031E000072A04D0082A04BFC078012804D13D21797001203870A2E05B4A1378012BFAD0E7
:2032000098F8940070B32D1FEDB253462A4640460DF08AFC00281EBF54490878002807D148
:203220003D21797001203870306816F069FF86E04F4801688847064698F80610DBF804205A
:203240004FF4D07041435018002280F8412108F59E700168807949080DF0FCFF45490A684D
:2032600030469047009803281ED043494869007882070DD598F89400002814BF281D28465E
:203280004A691178CA0748BFC01C1AF8000000E0812089F808002A460098C3B29BF8020010
:2032A000514604F0BDFC1DE09AF800001CB11B2804BF022D01251C2803D230490B5C9D423B
:2032C00005D0B8700721404616F05EFF0AE01D48017808295146404602D116F09DFB01E078
:2032E000FFF744F9D9F8040020E0254C207830B3244D286816F00CFF08B3017903291ED178
:20330000017A8A0611D5807AE178C0F38112914202BF217900F01F00814206D1A07800280C
:2033200001BF607800280121A170286816F0E4FE05E0002014F0D4F9862016F0D9FEBDE824
:20334000F78F00BFC80F0020680F0020D50F0020C00C0020BC0A0020540F0020E00700203A
:20336000780E0020603C0020D20F0020EE3C0020D4220020D82200209CC801005CCB0100E3
:20338000EC3B0020AC0C00202DE9F04F0F46380589B018D5DFF8E4532888FF280ED0C0B2CC
:2033A00015F070FE040009D0A079162116F09CFE204615F05DFE204609F006F9FF202880E2
:2033C00087F40060D6E1F80504D512F084FC87F48070CFE1B80604D516F030FB87F0200089
:2033E000C8E1F8070CD516F021F830B100218160DFF88C03006800B1804787F00100B9E1EA
:20340000380704D516F01CFB87F00800B2E1F8060FD50021002200230691059204910393C4
:20342000029101920091022016F05AFE87F01000A0E1B8070FD500210023069105910491A4
:20344000039302910191009101223C2016F048FE87F002008EE179074FF01E08C94EDFF89A
:2034600028A340F1CD80C9480022002108920791007816F061FE0446C5488178FF2904BF65
:20348000002014F02DF9A07A15F0FCFD05469AF8000095F82E91002805F5947B69D0606D6A
:2034A000807A022818BF032807D130680D3016F013FE10B93068C11D07915946484616F018
:2034C00037FEA0B3606D807C3368002818BF012804D11946584616F027FE04E05A464946C8
:2034E000184616F0C1FEFF2843D018FB00F83068404406225946C01D15F0D8FD306810F82A
:203500000810404400F1010BC01D41F0020908900622616DC87A00F0010085F82E01606DBF
:2035200000F10C0105F5947015F0C0FD21E05946484616F0CDFDE0B130685A46494616F071
:2035400093FEFF2815D018FB00F8306840440D3016F0C2FD58B9306840440D3016F0BCFD7C
:20356000002801BF30684044417F012901D149F0020905F12C004B4601780691428912099E
:2035800005920122698C0491C0880899029140080390CDF800B0079801900020A97916F0A3
:2035A0009FFDD5F89C017B4988420CBF00210121A87916F089FD7848AB7902682C214B4393
:2035C000134401221A73AB7904684B4323445A73AB7904684B4323449A73AB7904684B43E2
:2035E0002344DA73AB79006811FB03F10144002008740720A9790EF0A4FC87F00400B9E0AF
:2036000038060FD500210023069105910491039302910191009101223B2016F061FD87F0DD
:203620008000A7E0F8045DD55C4930680C680D3016F052FD002844D13068C11D0D3016F01C
:203640003FFD3EE0606D4178480704F13E0526D5287802281EBF03286878012830D169784B
:20366000306804F1380216F0FFFD8146B9F1FF0F15D0306818FB09F948440D3016F02CFD78
:2036800068B930684844C11D0D3016F019FD30684844C11D062204F1380015F007FD2878AE
:2036A000022818BF03280BD130680D3016F014FD30B93068C11D062204F1300015F0F6FC73
:2036C0002468002CBED13648DAF8042000784FF4805111F0FDFF10B18E2016F0EDFC87F4CD
:2036E000805047E0B80505D515F0B8FF2D4901200860FEE7780504D516F039FA87F48060B2
:2037000038E0780405D5812016F0D6FC87F4804030E0B9042DD5244C206810B1002013F0DC
:20372000DFFF4FF0FF3020600020204C0DF01AFD216851F8202F684690471D494A6B086BE9
:20374000C96A24681B4B019200900293ADF810106B46194A19491A4803921A4A07922568D0
:20376000194AA8471949086003F020FA87F4005000E0002009B0BDE8F08F00BF0024002075
:20378000480F0020680F0020880E0020D70F0020780E00204DE50110603C00204C0F00203F
:2037A000C70F00207C052043380F0020200F0020141F00200D9401001D940100CC3B0020AB
:2037C000582F00201EFB0080EC0A00201C0F00202DE9F041FF2806462AD115F0F3FF10F09C
:2037E0001F0F22D0042013F02BF808B1042016E0012013F025F808B1012010E0022013F05C
:203800001FF808B102200AE0102013F019F808B1102004E0082013F013F820B10820BDE8E7
:20382000F04113F045B813F05BFF0020BDE8F08113F03EF85FEA000814BFD8F8045000251E
:20384000012E46F2A81740F6C4140BD0022E69D0042E00F0B780082E00F01081102E00F0B2
:203860005781E2E7012012F0EBFF00281EBFDFF86803006800281CBF8788BF00102012F0E8
:20388000DFFF18B3102013F013F8040002D066685EB900E00026022012F0D2FF28B1022090
:2038A00013F006F8040018BF66686DB1012012F0C7FF002818BF002E06D0B068C11BA86850
:2038C00014F02AFE00282BD02046AFE7022012F0B7FF38B1022012F0EBFF040014BF666827
:2038E00000260AE0042012F0ABFF50B1042012F0DFFF040014BF66680026002DE4D0012016
:203900003EE1082012F09CFF28B1082012F0D0FF040005D052E0012012F092FF002885D0B5
:20392000404683E7022012F08BFF58B1AB480168AB48CA69017801EB81015318DF886743FB
:2039400007F51667042012F07BFF38B1042012F0AFFF040014BF6668002622E0082012F09A
:203960006FFF98B1082012F0A3FF040002D06668BEB900E00026012012F062FF88B10120C5
:2039800012F096FF040018BF66680AE0012012F057FF50B1012012F08BFF040014BF666831
:2039A0000026002D90D00220EAE0102012F048FF30B1102012F07CFF0400B1D06068EAE04A
:2039C0000220A9E7042012F03BFF50B18548016885484A69017802EB01139F89674307F5D6
:2039E0001667082012F02CFF98B1082012F060FF040002D06668DEBB00E00026012012F0BD
:203A00001FFFA8B3012012F053FF040018BF66682EE0012012F014FF38B1012012F048FF78
:203A2000040014BF6668002622E0102012F008FF98B1102012F03CFF040002D06668BEB9AF
:203A400000E00026022012F0FBFE88B1022012F02FFF040018BF66680AE0022012F0F0FE13
:203A600050B1022012F024FF040014BF66680026002D23D0042083E004204DE716F002F834
:203A800008B1D0F89070042012F0DAFE38B1042012F00EFF040014BF6668002632E001208D
:203AA00012F0CEFE58B1012012F002FF002D044604D0082012F0C4FE00286ED104E7102052
:203AC00012F0BEFE98B1102012F0F2FE040002D06668BEB900E00026022012F0B1FE88B190
:203AE000022012F0E5FE040018BF66680AE0022012F0A6FE50B1022012F0DAFE040014BF90
:203B000066680026002DD9D0082039E0082003E7032015F0B9FF08B1D0F89870022012F0FB
:203B20008FFE38B1022012F0C3FE002D0446C5D01020BFE7042012F083FE38B1042012F092
:203B4000B7FE04000CBF0026666816E0082012F077FE18B3082012F0ABFE040002D0666816
:203B60005EB900E00026012012F06AFE28B1012012F09EFE040018BF6668002D9ED0102091
:203B800012F05EFE002818BF002E97D0B068C11BA86814F0C1FC002890D1C1E6012012F01B
:203BA0004FFEB0B1012012F083FE040014BF66680026002D05D0102012F042FE002818BF75
:203BC000002E3FF481AEB068C11BA86814F0A4FCE1E71020A0E600BF743C0020500F002021
:203BE000D80F0020540F0020D90F00202DE9F84FDFF884730446386808B90720B9E1C07A62
:203C0000012804D0042012F037FE012801D10C20AFE1DFF868030078092818BF0A2804D0CD
:203C20000B281CBF0C280D2801D12120A1E1002C00F0BE802078002818BF012807D1A0786E
:203C4000002818BF012804D0022818BF032840F0AF806078002818BF012803D0022818BF09
:203C6000032873D1607A10F0050F6FD00025AA4640F67B4243F6FD7340F67746607A012108
:203C8000A940084236D004EB0A104189A1F1040E9E453EBFB0F80CC0ACF1040E9E4510D2AC
:203CA000614522BF018BB0F816C061450BD3C189A1F1060E96453EBFB0F810C0ACF1060EFE
:203CC000964575D28C4573D3B0F812C0BCF5FA7F6EDA808AA0F10A0EB6453FBF0CF1010C09
:203CE000490001FB0CF1B1EBC00F61D20AF101005FFA80FA6D1CE8B20228BFDD39684C61DE
:203D0000607A06280CBF012000209D49087001F073FF050008BF092009D03968A8790874C2
:203D2000E11CA278402006F065FE08B10B2020E105F16101284616F0BBF905F12C0898F894
:203D40000E00012803DC28460BF016F930E039686078DFF830A2DFF830B2DFF830928C4E77
:203D600088726078002818BF012807D1C00754BF594651463B680622181D3BE030680D3071
:203D800016F0AAF930B999F80010002904BF2078002813D16078C10754BF5946514616F071
:203DA00097F928B16078C10754BF5946514601E01220DEE038680622001D0CE030683B68D4
:203DC000C11D0622181D15F071F972480168086833680622D91D15F069F96078316800F025
:203DE000010008706078C10754BF5946514630680622401C15F05AF9207888BBA07885F87D
:203E00002E0105F5947A0622E11C504615F04EF9A1783068E21C01F0010116F025FA8346D4
:203E2000BBF1FF0F1CBF99F80000002818D0A07840F0020085F82E011E21326811FB0BFB6B
:203E400002EB0B01487F58B901F10D0016F044F930B930685844C11D0622504615F026F972
:203E600016F022F9A86214F061FF686204F11001DFF80CA19AF80000000104F114030A5A5C
:203E8000A8F80620195AA8F80A102044428AA8F8082002223868417C88F80010002088F886
:203EA0000220A8F8040015F014FD0C2290FBF2F20C2101FB1200401D88F80F00042009F045
:203EC00097FF3968344A08608261344941603449416106200EF069FE39680120C872A879FD
:203EE00012F08EF999F80000002801BF386841690A78012A0DD1807A02280AD1316801F161
:203F00000D0016F0E9F820B92648417941F0040141711A4C2078C8B999F8001049B1224840
:203F2000006816F0BDF838680068816941F4802181613868007C0CF0C7F906202070012203
:203F400000210DF0FEFF15F0DFFD11E03A68117ED06852699AF8004002F10C03240140F621
:203F6000C4121D5B02FB050000F5166009F0BEFD0020BDE8F28F00BF540F0020C80F002053
:203F8000D90F0020480E0020400E0020880E0020680F0020803C002002008080040C0020DA
:203FA000E9230100BC0A00206C0F00202DE9F84785B004468A4611F8010B00272C22072816
:203FC00004F5A47504F1660804F1FD06DFF86C93DFF86C3300F07081092810D00C2800F012
:203FE00033810E280BD00F280DD0112800F0DE801A2800F0F0801B2800F0188179E1204633
:204000000DF050FE75E13378980705D40F213177204616F0C5F806E198F81000012804BF68
:2040200098F811000F2811D098F8150010B198F811201AB198F81C20012A09D1580705D4CC
:204040000F213177204616F0ABF8ECE0232268E018B198F81100012804D004F18607B87A05
:20406000012809D1580705D40F213177204616F097F8D8E02A2254E008784A7800EB0223A8
:204080002B808878CA7800EB02236B8008794A7900EB0223AB808879CA7900EB0223EB80FA
:2040A000087A28724A7A887A02EB00236B81C87A0A7B00EB0223AB81487B8A7B00EB022347
:2040C000EB81C87B0A7C00EB02232B82487C8A7C00EB02236B82C87C0A7D00EB0223AB821F
:2040E000487D897D00EB0122EA8204F5AA70049069890391287A029021890191E8880090DE
:20410000AB886A882988204616F046F8B0B13078410705D40F203077204616F041F882E018
:204120001E220F21204616F033F8E8880090AB886A88A179002010F021F8BBE06888B8803D
:204140000022A988F9800221E888388139707A80A08EC01DA8F81E00618EB888B0EB510FB1
:2041600002BFF888A18E884202BF3889E18EB0EB111F19D098F8150000281CBF98F8110017
:204180001A2804D00F2188F81A10FE2181E0FC21204615F0F9FFE8880090AB886A88298859
:2041A000A07915F0EDFF85E0002172E0087828761A284978697640F09C801868A679411CD5
:2041C00056438F551968A37912FB03F20A441771A179687E86E094F806C018680E7812FB22
:2041E0000CFC604400F1210506F01F012878B60938B16878F040C00703D594F896010428A0
:2042000005D120221A21204615F0C2FF52E0E970A179186812FB01F28118204681F82360FF
:20422000002115F03BFC002844D13AE0A179186851430144C88800B94F70A179186812FBE8
:2042400001F281180F7135E0327C012A0FD011F8010BF074022204F5897015F08DFF01461E
:20426000022204F58A7015F087FF0120307498F8060020B93D210120F176B0761AE0B07C36
:20428000002804BF717C002914D198F8000020B90C21204615F078FF0CE0204615F054FF16
:2042A00030B999F800004FF4804109F0C7F901E00120B074012720E008780F2815D01A289B
:2042C00017D1A0791968504308444770A0791B6812FB00F298180771B07800F0FB00B070D0
:2042E0001A20A1790BF0B3FAE4E7307800F0FD0030705146204615F0CFFE98F811001A2810
:2043000018D198F81200182818BF002803D0152818BFFC280ED198F81060204615F01CFF63
:20432000012E03BF1A2088F81A00FD211A21204615F02AFF384606B0BDE8F087C70F002085
:20434000603C00202DE9F84F054605F14C0AE87D9AF80010DAF8047081424FF00008C0F0A6
:20436000918105F1280407F1900907F17306C34640F08C80A87F7075E97FB175DAF808202E
:204380005278930710D5EA7FD30604D5C01E707501F0EF01B175C7F874B086F800800022EC
:2043A000B17D01F0FE0168E1910608D4E08B00B1E07E3076E08B00B1206AC9F80000DAF8CA
:2043C00008004178CA070DD5E08B00281CBF206A002807D0C9F80000A17EE08B814238BF6D
:2043E00008463076E87FC1060CD5B86B217800EB8100B863B86BA98CA63100EB81007867FD
:20440000022002E0C7F874B000203070DAF80800417811F0030F22D1007815F037FB5FEA64
:2044200000081CD098F8B000032809D1E87F810615D440F02000E877B07D40F020000DE053
:2044400068B9E87F81060AD500F0DF00E877707DA0F112017175B07D00F0DF00B075E97F40
:20446000002201F0FC01284608F008FEB8F1000F36D0E87F810633D598F8B00002282FD1A2
:2044800041462846BDE8F44F15F00ABBE87F81060AD500F0DF00E877707DA0F11201717503
:2044A000B07D00F0DF00B075DAF808004178C80717D5B07D717D00F0F700891E01F03F01B3
:2044C00082075CBF891D40F00200420644BF491E00F0BF00B0757175C9F800B086F818806D
:2044E000D0E09AF80020E87D121AD2B28907009240F18080012A07F140083ED1B86BA98C20
:2045000000EB8100B863A87F00F03F00A8777075E97FB175DAF8082053785A0703D5801F8F
:20452000707501F0FD01B1750023717D98F80000E27E01F03F018A18C0F38001521C00F01B
:20454000030015F0A5FD00F59B70A8841E2180B290FBF1F0B17D82B201F0FE01284608F0F0
:204560008DFD86F800B0E08B00B1E07E3076E08B00B1206AC9F8000084E0B86BA98C022A14
:2045800000EB8100B86325D1E87FC10706D5707D811F7175B07D00F0FE00B0750023717DD0
:2045A00098F80000E27E01F03F018A18C0F38001521C00F0030015F06BFD00F59B70A8840A
:2045C0000022B17D01F0FE01284608F057FD607FA8F81A00617F0098491C081AC0B20128AE
:2045E0001CDDB96BAA8CA63201EB820179670221317014E0B86BA98C00EB8100B863617FCA
:204600000098081AE97FCA06C0B207D5B96BAA8CA63201EB820179670221317090B395F845
:204620001F80A97FD9F80020E37E1A44C9F8002028F00108DAF808205278530748BF28F0C4
:204640000208920748BF28F00808012807D1207F3076C7F874B028F0100886F800B001F010
:20466000C004404615F010FD00F03F002043707586F81680002208F0FC012846BDE8F84FE2
:2046800008F0FCBCBDE8F18F2DE9F04F8FB0074618984FF0000C002A01938DF8200000F016
:2046A0008D810AA80E464FF0200A002400F1100ECDF800E0114611F8010B25280E910CD071
:2046C000002800F07781022EC0F00C81013E002F00F0078107F8010B04E15378901C0E9072
:2046E0002D2B07D14FF00109D01C8DF80D900E90937803E04FF000098DF80D90302B05D10C
:204700000121069110F8011B0E9002E01946CDF818C04FF0FF322A29CDF808C004922CD15D
:20472000019D29680A1D2A60D1F80080CDF80880B8F1FF3F10F8011B0E9007DC4FF001092E
:20474000C8F100088DF80D90CDF808802E2925D1CDF810C0024612F8011B2A290E9220D1F5
:20476000019D29680A1D2A60096821EAE17BCDF810B0417802300E9027E04FF00008A1F193
:204780003002092AE0D810F8012B08EB880501EB4501A1F130080E901146F0E74FF0FF3B07
:2047A00013E04FF0000BA1F1300009280AD812F8010B0BEB8B0501EB4501A1F1300B0E92AC
:2047C0000146F0E71046CDF810B0302B41F0200306BFCDF81880424600226C2B06D10121D5
:2047E0008DF80C1010F8011B0E9001E08DF80CC0CDF81CE00AAB6929CDF814C0099301D016
:2048000064290CD1019B1868011D19609345C8BF5A46016870466FF0090306921EE07529BE
:204820000AD0A1F16F03092B5FD8DFE803F0058C6A6AA76A6A6A6A05019D2868031D2B60E3
:2048400078294FF0080308BF1023752908BF0A239345C8BF5A460168069270460DF042F9F3
:20486000DDF800E00990AEEB00010591A8EB01004FF0000CB9F1000F02901CD109E0022E8A
:2048800006D3013E1FB107F801AB029800E00027013401380290F2DA0DE00998022E07D380
:2048A000013E27B1007807F8010B099800E000270130013409900598411E00280591ECD140
:2048C0009DF80D0078B10298013802900BDB022E05D3013E17B107F801AB00E000270134CC
:2048E000F1E7002701340E9AE4E6632909D1019A1068011D11600121006805918DF828003D
:20490000B4E70138022E0E9052D36FF000400BF1010186426FF0004038BF30460246B3451F
:2049200038BF0A46002908BF024604920EA9019A02AB05F0A1F8DDF800E09DF80D90DDF819
:204940000880059992E7019A10231068011D11600821082206919DF82010002901687046EC
:204960000DF0C0F8DDF800E0A0F101014FF04002099100F8012CAEEB010176E7019A1068EF
:20498000011D11609DF82010006800290D49002808BF0846099014F0E4FD0146834538BF1B
:2049A00059461BF1010208BF0146DDF800E05CE700215BE70FB100203870A44660460FB009
:2049C000BDE8F08FACB50100F8B5144600254FF48067DFF89862C21B84B006F1880337D090
:2049E000921E3CD0521E44D0521E4AD0521E50D0521E54D0521E00F07A80921E00F07C80D3
:204A0000D21E00F0AC80521E00F0B780921E00F0C080521E00F07B80521E00F0C180521EA7
:204A200000F0CF80521E00F0D280521E3ED0521E56D0521E4BD0921E00F0DE80921E00F048
:204A4000E280521E00F0ED80521E00F0F98000E101290FD12078022817DC707003E10129C0
:204A600008D12078022810DA0028B070F6D1B074E3E0012940F0EB802078052805DAF070F2
:204A8000F1E001296CD12078022880F2E0807073E9E0102964D110222146754814E00129BC
:204AA0005ED12078022863DA3071DCE0012957D1207802285CDA00287071F6D00120F074CD
:204AC000602206F12801184614F0F0FACBE00129FCD12078022802DAB07114F0AFFCC2E036
:204AE00001293DD12078022842DAF072BBE0012936D12078F073B6E0002931D115F05CFB5A
:204B000010B9FBF7D2FC1DE00120F075ABE0072926D10622611C02A814F02CF900950023A7
:204B2000217801AA02A809F06BFEB0B9F07A10B915F042FB10B1F07A012808D19DF8040081
:204B4000FBF7C4FC0546502013F026FD1EE0716A9DF804200120885485E0342583E00129E8
:204B600075D1717C2078022903D0C11F0A2902D36DE010286BD1307475E0012967D1B17D3A
:204B80002078B075002908BF01286CD1FBF717FC69E001295BD12078052858DA307562E080
:204BA000012954D12078022851DC00284FD07074022803BF102030740120002015F060FA2C
:204BC00051E0012943D1207813F008FF4BE0707900283CD1602908D1002C38D060222146FC
:204BE000184614F063FA012004E001292FD1002C2DD02078F07436E0012928D13CB32078E2
:204C00001C4908702FE011BB15F0D6FA30B9FBF7F4FC0546502013F0BFFC24E001203076F8
:204C200021E0012913D12178022910DA012904BFB078002816D0B174084614F007FC12E028
:204C4000012904D120780228B8BF70750BDB182509E00F2806DA022904D1218810F0DEFE8F
:204C6000054600E00225284605B0F0BD741A00206C3A0020F23C00202DE9F04F89B0A04ED4
:204C80000546A04F30780328387040F0AC8000203070387002AC204614F093FE204600216B
:204CA00013F0C6FC984CB8602E21204614F018FA4FF0FF30A0822061E06012F009FC0020F0
:204CC000294610F011F907F11001F86014F058FED7E905128D4DB1FBF2F0C0B2022828BFDE
:204CE000022020702870B2F5005F7AD1B1EB403F77D3F968002974D04FF6FF7100274FF0CB
:204D000088586FF0030B61808149616087426DD2FEB2002108AA0423304614F0AFFA07EB13
:204D2000470004EB800A0898D14600F47C0129F8160FB1F5402F04D000F07F41B1F1164FA5
:204D40003ED1C0F301418AF819106FF0FD0151FA80F21021022A31D3C2B27E2A2ED003A864
:204D600011F002FC304600214FF088524FF400534FF4005514F082FA1BFA85F5A8B250F8A5
:204D800008104A1C01D10328F6D801220126D3B2042B06D8CBB2FF2B18BF16460132090ACE
:204DA000F5E740F808105C480399006842685B48904755FA86F199F80000544DAAF81C1035
:204DC000C0B2702807D0782803D0FE2805D07C2804D1E77002E0277100E0A770287801376B
:204DE00094E70120307009B0BDE8F08FE178FF2903D0DFF81081012529E02179FF2904D019
:204E0000DFF80081E170022521E0A178DFF8F480FF290ED00131B1FBF0F202FB101000EB8F
:204E2000400104EB8101898B09B1E070EBE7FF20A07000250020E5700AF00AFD98F8001066
:204E400008437E2188F80000002011F079FEA078FF2813D12D48E17800780131B1FBF0F227
:204E600002FB1010A0700AF0F3FC98F800100843FE2188F80000A07811F062FE2548E27852
:204E8000022D057002EB4200627004EB8000818BE18028D0012D2BD103AD002788B218281E
:204EA00026D30739D0B22A4689B20BF079FC9DF81700400717D5E088BDF81A10E6782A4628
:204EC00003230097401A073881B2304605F072FCE27820B9BDF8181009B196420BD096421B
:204EE00006D0E188DAE701206071002000F042FD98F8000077E79DF81C000FF075FDF7E783
:204F0000062400201822002080390020F73C0020FF000020F83C0020D801001000400340E2
:204F20002DE9F04F8DB0044600209A4616460F46CDE90B00CDE909008748856880460DF0E5
:204F4000F9FB1C2803D00DF0F5FB1B281BD1308840F60201884218BFB0F5C15F03D1F07B94
:204F6000022810D93EE043F6070188420BD196F82400032807D33069784940F0806020F0E8
:204F8000604088422ED100206FB366B3387825FA00F0C00726D03046002114F085FD7048FC
:204FA000C4E90176006880B109A800900CA90BAA0AAB304606F074F80B980B214FF6FF7277
:204FC000502313F069F9FF280CD014F029FB654F06467878012802D840B1012070E0304603
:204FE00014F0BFFC00200DB0BDE8F08F05F0CCFF5D480DF10409016841F0020101605B48E0
:20500000C8F80000484614F089F9DFF864B15A494A469BF801009BF800500390554828309E
:2050200011F010FE554856494A4611F00BFE484614F0FCF8DFF84C81534A19214B46029562
:20504000404610F067FE514A08F11C001A214B4610F060FE4E484F4914F055FC4E484F49DA
:2050600014F051FC4E48006810F4402F06D04D4A07F128000421002312F0BCFE9BF8020048
:2050800010B10D2009F016FC08F1400013F0CEFE08F1380013F0CAFE434900200722387690
:2050A000B8843862386181F860200521C7E902103E49F96138700420002113F06DF9787879
:2050C0002C4941F8204001307870304614F049FCBAF1000F06D10DF1040A354920225046F7
:2050E00014F038FDDAE90012BAF81000DAE90635002AB2FA82F608BF40F6C412626121607D
:2051000060832563760926764FF4FA76C4E9036201226276274AC4E90722C4E90923DAF857
:205120000C0000B12062DAF8140000B16062DAF8080000B1E06104F13800C82113F0D0FF23
:2051400004F15000002113F057F91B4904F1B80014F0D9FB204646E7CC2108400F000005D1
:205160008C2300200C1D002000200940110000E084CC0100B01E002071880100A838002084
:20518000B1DE0000781F00203D2D01001915010064380020197E0100203800201D880100BD
:2051A000B44F005061440100683500200DB80000A8CA0100F38E0100939901002DE9FF47F6
:2051C000A048017806294FF0010840F035819E4E9E4F30689E4C016801F108054FF0FF0907
:2051E000297801F00F00072802BFA8788309012B40F08480002800F08180E878C30707D5F3
:205200000622291D684613F051FF2878C0F38019E978880735D5062201F001012B1D514342
:20522000194402A813F042FF2878C00902A914F07FFF002800F07E802068807A022818BFF4
:20524000032804D138680D3014F046FF002840F0EE80386800F10D0102A814F055FF002899
:2052600063D02068062202A9001D13F01FFF707940F0040070710622386802A9C01D13F011
:2052800015FF4846FF2867D0694614F051FF1E25002800F097803968684614F045FF226878
:2052A000014650690078FF2971D0002815FB01F553D1107C13F0E6FE814699F82E01022897
:2052C00018BF032801BF3B68595D00F00100814242D1206841695B190622C91C581C13F0C2
:2052E00099FB002838D0707940F0080070710622694609F5947013F0D9FE42E011F00F0FF4
:205300001CBF01F00F02012A26D10622A91C684613F0CCFE2878C0F3801900F00F00012812
:20532000AFD1062205F108017BE73068016800220A7183E02168887A022818BF032805D1D6
:2053400038680D3014F0C8FE00289AD12068807A002818BF012894D069E0706939684A5D9B
:205360004919491C083814F087FE3A490A7890425DD07069396849196A46C91D083814F0E3
:2053800077FE3868401906226946C01D4DE000284DD1107C13F076FE0746206840698278FD
:2053A000914544D1C11C0622684613F033FB00283DD0707969F3C30070710622694607F52D
:2053C000947032E021684A69107880BB087C13F059FE82469AF82E01022818BF032826D12E
:2053E00038686A46494614F03FFFFF281FD015FB00F5386841194A7F012A04D00D30401919
:2054000014F06AFE98B120684169386840190622C91C401C13F0FEFA48B1707969F3C30047
:205420007071062269460AF5947013F03FFE306801680020087101E04FF00008404604B075
:20544000BDE8F087C80F0020BC0A0020680F0020540F0020EC3C002082492DE9F043824C0F
:20546000824E20700A22002008600D2380484FF40A7102704380818085B07E480660B77E96
:205480007D480770FF2FF17E4170327F8270737FC370B57F0571F67F467108BFFF2914D110
:2054A000FF2A08BFFF2B10D1FF2D08BFFF2E0CD172490A7802704B7843708A788270CB7898
:2054C000C3700A790271497941716D4902786D4D6D4E6E4F0A7043784B7082788A70C378AE
:2054E000CB7002790A714079694A4871FF2028706870A870E870287168710020654908808F
:20550000F06B6549407808706449F06B007808701388634863490380F06BC06C086062494B
:20552000F06B90F83C0008706049F06B90F83D0008705F49F06B90F860000870F06B40692C
:2055400001795C484A1E0270F06B5B49C0783870F06B8069086008B912F0C2F8F06B574950
:20556000C069086008B912F0BBF8F06B416D54480C2213F09BFD14F077FDF06B5149006ADF
:20558000086008B912F0ACF8F06BDFF83C81406AC8F8000008B912F0A3F8F06B4B49806AAC
:2055A000086008B912F09CF8F06BC06D00B101200BF039FB00F0CAFF07280AD105F0AAFA47
:2055C00020784FF4804108F039F8002012F088F844E03F480168884781460CF0F7FDD8F8FA
:2055E000000001688847684613F0A0FED8F8002004208DF80000694652F8043F0020984750
:20560000344908600FF044F8F068334A01883878324B014311804846196888470C21304887
:2056200014F086FA284614F01BFD14F015FD2D4800214FF6FF72016082808171F06B90F8C2
:2056400058102948006813F0C1FE0121FF2014F00FFA20784FF4005107F0F0FF05B0BDE88D
:20566000F08300BF380F0020C70F0020B64F0050700E00203C0F0020400E0020E812005085
:20568000500E0020480E00209CC80100C40F0020022400209E0F0020C60F0020D40F0020B3
:2056A000D83C0020643C0020EC3C0020ED3C0020EA3C0020CB0F0020200F0020240F002083
:2056C000F83B0020280F00202C0F0020300F0020D42200206C3C0020A00F0020D82200209F
:2056E000FC0D0020800E0020803C00202DE9FE4F0422FF2101A813F0CFFC984EB078FF28A2
:205700004FF0000900F0288113F0BCFC0546B07813F064FE064605F217100178012908BF41
:20572000417800F0D38005F5927BBBF80E1019B19BF80C0007F082FF08200DF036FA68896E
:20574000288105F1740898F80E00022818D16A8EE88E347FA979AB8E52080009C4F3C00423
:20576000002C009007D0002014F072FC307F00F0F700307702E0302014F06AFC88F80E900D
:2057800095F89201022808BF85F8929198F81C00022808BF88F81C90714CA17AE079227BC1
:2057A00040188218E07A1018627B05F58D7700EB020AB888401CB8803A8852443A807888BD
:2057C00008187880DBF80000E0B1664B95F806C01B681C2203F10E0B12FB0CFC0E331BF812
:2057E0000CB030F81BE0D64420F81BE095F806B012FB0BF29A5C00EB4200B0F84A30C9182A
:20580000A0F84A1011F024FDE079002804BFE07A002805D1207B002804BF607B002825D05A
:20582000F07E0021C009CB46F1810BD0307F10F0070F04D1411C61F30200307702E0A879BB
:2058400014F02AF92989E88985F810904118A9810122A97908200CF074FB434948690078D1
:20586000810737D5A07B802834D034E0A979002208200CF066FB307F10F0070F02D1F07EEA
:20588000C00903D0A879002114F006F9A07A40B1287C4FF0010B08B1E889A88185F81090BD
:2058A00004E0F888401C4FF0020BF880A8892989814206D08842D0D2081A41F2AB018842B1
:2058C000CBDA388800280CBF3E210821284612F0F1F841E0812088F80000244991F8200037
:2058E00018B12946012014F0CBF8284606F07CFD02281DD198F80700022805DB01AA1C49E2
:2059000028460DF025FE8146284614F09DFB012822D05FEA09000DD04A4601A928460EF038
:20592000D5F938B9284606F05FFD012802D113E0012811D00121284614F082FB02F01EFED0
:20594000012809D0284611F0ACF814F0DDF82A465146584606F0AEFEBDE8F78F780E002041
:20596000980C0020980E00209CC80100D8390020C42300202DE9F04F97B081469948406814
:2059800018B18047002800F0CE80974F01200021042300247E78F873BD7808AA304613F0DD
:2059A0006DFC089800F44030B0F5403F03D17879002800F0B98030460621F8224FF0F8084A
:2059C00012F010FF06EB460407EB840080F818809DF82000702803D03046702111F0B0F825
:2059E000CDF81090069608AA2846002104234FF0000813F043FC9DF82000FE2803D0284699
:205A0000FE2111F09DF828460621FE22FE2612F0E9FE07F1160097F80190BA78059500EB2A
:205A20008401C988019279826E4981F8008005EB4501039100EB810101F8026F029109EB2A
:205A4000490100EB8101B1F806B002EB420100EB810030F8061F079100900EA810F084FDE8
:205A60000FAD1FFA8BF7172F54D35E480078002853D1ABF10706484609AAB1B20AF090FE23
:205A8000BDF8324004F11000B8420FD89DF82E0096280BD1A6EB040A9DF82D2021464B4623
:205AA0001FFA8AF840460CF00BFDF0B1ABF1010B5C46A0B216282DD93628A4F116074846A2
:205AC0002A4688BF2027E41BBBB2A1B213F0D6FB3804EED015FA87F010F8010C962801D011
:205AE000013FF5E707EB040BBBE79DF82F00C1070ED180070CD50734079E3E49A3B213FA4B
:205B000086F00A1A4846414613F0B8FB26440796D346A6E73348007850B134480E990068F4
:205B2000426833489047002420B217B0BDE8F08F079F019E1021C7F50052A7F1100083B227
:205B4000C1F20012304610F02BFD264C217808430E99207025480068426825489047224D23
:205B600000980123B5F91220697B07803046A5F814B02F8211F096FCB5F91420A97B304687
:205B8000022311F08FFC049A002A08BF1022288A7C21C0F500509042B8BF7821059F38463B
:205BA00010F0CEFF069E304609F052FE207038460621FC22FC2412F015FE0298FE21AE7056
:205BC000EF706F700470039805EB8000808BE880304610F0B5FF00206871E888C0F50054F9
:205BE000A2E700BF1822002080390020D80100100040034000200011F8B58D488D4D0178B8
:205C00002A788A4200F012816A68002400E0641C8C4280F208814FF4D07363431344187960
:205C20000028F4D1E0B213F02DFA0121017100224271426200F161018471012200F16803E7
:205C40004A711A71012400221A609A6000F1900602814281047480F8392082610277C2838C
:205C6000327000F592749A76227580271F739A730027FF22DF741A7600F20D131F70DF707F
:205C8000BC46BE4600F5897783F801C083F802E0A7F800C0A7F802C087F805E000F1E70371
:205CA00086F804C083F800C083F801C000F1EC03C3F800C0C3F804C083F80AE083F80CC0A5
:205CC00083F808C083F80DC083F80EC083F80FC0A7F808C0A7F80AC0A7F80CC0A7F80EC0FE
:205CE00047F23057A76100F5C676C4F800C02273A4F80EC084F81CC084F81DC0A27701273E
:205D0000B7720227F77286F80EE086F80CC04A4FDFF828E13F78777386F806C084F80AC06E
:205D200084F804C084F805C084F806C084F807C084F808C084F809C000F5B374404F84F8AD
:205D400000C086F800C04FF01B0C3F88E7803D4F3F882781BEF8007067803B4F3F88A78031
:205D6000A4F80AC04FF4A477E7812782A4F80CC0E7822783A4F812C0A4F814C06783A783E1
:205D8000E78327846784A784A6F802C00127377100240719641C042C87F87720F9DB2B4A55
:205DA00014780C7057784F7094788C700446D778CF7012790A710021254A50186718407838
:205DC00087F8FD00491C0829F7DB587C214900F0FB005874316100201874A07913F0FEFA98
:205DE0000646A0790DF073FC1B480178307C717300F0FC0030740022B069F28100F00040F8
:205E000040F4853040F04000B061307F00F0F80030772878401C2870C0B2012804BFA079CF
:205E2000A8702046F2BD002011F05AFC0020F2BDD40F0020780E0020C50F00208A0F002099
:205E40008C0F0020980F0020960F00201C3C0020C00C00204DE50110192400202DE9F047AA
:205E60000D4629048F4EDFF8408240F1F2808F4F38780BF0BFFF040018D021780120B029C3
:205E800017D0B12908D0C22900F0B580D02904BF2046FBF7EFFFD2E0207920B92289E1881F
:205EA0006088FAF712F9204612F00DFC85F40040F6E02179787A012910D009294CD01E29D3
:205EC00000F08D807D2908BF002806D16088FAF70DFE01466088FAF7C6FD86E00028FCD137
:205EE000207AB4F8029008283BD14846FAF7FEFD02280FD0032834D1002204214846FAF715
:205F00007AFC0246F86900281CBF4368002B28D004211EE0002210214846FAF76CFC82466C
:205F2000484614F09DF960B198F8001039B9811D4079012200F0010014F07EF801E00120AF
:205F40003070F86900281CBF4368002B09D0524605214846984704E0002846D160781A2826
:205F600003D16088FAF75EFD3FE06088FAF7BEFD022819D0032838D120896688012804BF9C
:205F80006089032806D1E068827804213046FAF732FC00E01820F96900291CBF4B68002BBE
:205FA00023D00246042117E0218966880120012904BF6189032907D1E268917821B90122A6
:205FC00010213046FAF717FCF96900291CBF4B68002B0AD0024605213046984705E0B87A1E
:205FE00018B9608800210AF0D9FE217904F1080014F0FEF857E7A07818BB0121F974B97381
:206000002022E11C07F1880013F050F8202204F1230107F1A80013F049F8202204F14301BC
:2060200007F1C80013F042F8F86900281CBF4368002B06D0627806210020984701E000284A
:20604000D8D11B480078FF2802D0214612F04AFB2CE7690716D5174A106880B1FAF750FD5F
:2060600004000CD0E07A50B90121E1726268A17A2089FAF70DFB606808B113F0FFF985F0F0
:2060800004000DE028070AD53178012902BF98F80000002808F016FD85F0080000E000202D
:2060A000BDE8F087F33C0020AA0F0020741A00201E240020883C00202DE9F04F93B0814649
:2060C000C08990468B46073086B230460DF0AEFF0746FF280AD13046FFF74CFCB04205DA6D
:2060E00086480078002808BF052004E1DFF80CA29AF80000F8B9B8F1000F04D0B8F1020F53
:2061000019D1FF2F17D199F80800002203238DF83C00D9F8040000920E907948C188C07896
:206120000DAA04F047FB9DF8440089F81000BDF84000A9F80C00B9F80C1039B3B9F80E00EE
:2061400020B3A1EB0008002505AEACB280B208EB05013246001B89B22028A8BF202087B281
:2061600099F810003B4613F089F81BFA85F130463A4611F0FEFF48B93D19B9F80E00A9B289
:206180008142E2D30020A9F80C00B2E05C4C00210423E678B4F8068012AA304613F06EF80D
:2061A0009DF848007E2805D130467C2110F0C8FC9DF848007C2865D1B9F80E7007F1070AC0
:2061C00018FA8AF0B0F5005F5ED8B9F80410C7F385120490B9F80600BB0007EB08058DF859
:2061E000183042EA811289088DF81500C0F301208DF8161099F808101FFA8AF98DF81720ED
:20620000B9F10D0F40EA81008DF8140042D23B48029559463A46039300F11C05284613F00E
:2062200099FC059805EB070B0022E8519DF818008BF80400781D81B2284613F01BFA0599AF
:206240002A464B46E95196218DF81A10039912F08DFEDDF81700CBF80300304610F0A0F9B3
:206260002649049A087006EB460104EB81018A83E1885144E180D0B3029881B230460EF0C0
:20628000B3FB34E0012002E0DFF870A005208AF800002EE058463946002213F0EBF90DF179
:2062A00014090522494612F0FFFA96215A463B468DF81A109DF8181012F058FE304610F0FE
:2062C0006FF90E4FA9B24A4607233870304610F067F9397808433870000608D106EB4600AC
:2062E000049904EB80008183E0885044E080DFF80CA09AF8000013B0BDE8F08F18220020DC
:20630000803900202DE9F041824D04462868002818BF002C4CD0C17A002904BF2278012A81
:2063200046D07D4E3178092918BF0A2904D00B291CBF0C290D2901D12120E9E021780029AB
:2063400018BF012934D1617800291CBF012902292ED161884FF4A06761B3A28822B10A2395
:206360004B437A43934223D2C2699378012B18BF042B09D1B2F804E0BEEB011F3CBFB2F8CA
:206380000680B8EB011F13D2052B13D19388B3EB011F3CBFD388B3EB011F09D2B2F8093010
:2063A000B3EB011F3CBFB2F80B20B2EB011F01D31220ADE0C0698178022904BF002011F0CE
:2063C0008FF929680C62207801285ED1087B012846D0022007F00CFD2968504A504B086034
:2063E000426083614F4A42610020087609212A689176296848762968086A828843886FF0F4
:206400000900434307FB02324A6110F009FF0100CFD105200CF0C9FB2A680121117330789E
:20642000F8B94149087850B140494869083813F037FE28680068816941F480218161002232
:206440000021032009F080FB394900200870052232700021012205200BF073FD13F054FB7B
:2064600055E02A68334C92F824101069D2692578931D05EB850540F6C4125B5B02FB0300DB
:2064800000F5166007F032FB41E0087B2A4C58B9487E01283BD12078202110F05DFA0021F6
:2064A000092013F0C5FD32E02448254F0168884706462078202110F04FFA2968002008732A
:2064C00012F0B4FF29680A68904210D110F0C0FE40F2014013F024FE1A491B4808600121AB
:2064E000207807F0ABF83968304688470FE013F09BFD3968304688472868016A888830B920
:206500000021092013F094FD2968002008620020BDE8F081500F0020C80F0020E80B0020C3
:2065200002008080D1EC0000880E00208C0A0020DA0F0020D80F0020C70F0020D422002014
:20654000D8220020480F00202591000070B5754D754C687912F08AFF0028206063D00021E4
:20656000016001732068C1610162A8796F4C12F07DFF0028206056D000210160C17200203C
:206580002168087405222068427400212268684C5161E87A12F06AFF0028206043D0654C47
:2065A00021782878644E491D10FB01F080B212F05DFF0028B06036D0207800286DD06988D2
:2065C0005E4E11FB00F080B212F050FF0028706029D05B48227801785A4D11FB02F012F042
:2065E00045FF002828601ED000250BE0E8B212F0F5FE0021418081808160018002238371BC
:2066000001736D1C2078E9B28142EFD34E4D12F02DFF0028286006D020784C4D400012F003
:2066200025FF0028286076D02078494D1C2110FB01F012F01BFF002828606CD02078454DA7
:20664000400112F013FF0028286064D01020424D12F00CFF002828605DD020783F4D000133
:2066600012F004FF0028286055D030203C4D12F0FDFE002828604ED020783A4D2C2110FB25
:2066800001F012F0F3FE0028286044D02078364D12F0ECFE002828603DD0344C344E2178F3
:2066A0003078344D00EB4100C000103012F0DEFE286080B300F108014160307821782E4D95
:2066C00000EB4100C000103012F0D0FE286010B300F1080141601E212078284D401C10FB25
:2066E00001F012F0C3FE2860A8B10820244C12F0BDFE206078B1062012F0B8FE2168086038
:206700002168086838B10020486006201D4C12F0ADFE206008B9072070BD13F0A5F900B1AC
:20672000002070BD68230020500F0020540F0020440F0020D40F0020043C0020780E0020E3
:206740001B240020683C0020340F0020703C0020980E00209C0E0020A00E0020A40E0020B7
:20676000A80E0020603C0020783C0020ED3C0020EC3C00206C0F0020700F0020680F002051
:20678000803C0020400F00202DE9F04F85B0814C8146056820684169132088477E4FDFF84B
:2067A000FC814FF0020AD9F80060707D01380B281FD8DFE800F021060B48060B580E15745F
:2067C0000E153069027B0168806806E03069806808E03069027C0168C06807F0F5FD80E0EF
:2067E0003069C0680178042908BF80F800A0002077E04FF0FF3074E0206DC36A306900685F
:206800000169826938469847206D406A80470828FAD0206D4068804706286AD1206DD0F814
:2068200020C030693E460068D0E906E1026A4368D0E90270CDF80C80CDE9010E30460097EE
:206840003746E04743E0306901688869202804D111F074FF306901688869266DD1E9012389
:20686000C969F66D2FE0206DBA460AF1600BD0F854C030690068C1680769D0E90123806945
:20688000CDE900170AF1C007029058463946E04790B357466FF005004FF0020A21E030696A
:2068A00001688869202808D1F86F20F00040F86711F044FF306901688869D1E90123216DA4
:2068C000CE6D07F16001CDE900083846B0472068016A1320884720680169132088476FF0A9
:2068E0001F00697D68600131213069753FF45BAF17E06FF00300F4E7206DD0F820C030692B
:206900000068D0E90131C2688069CDE90012CDE90208504659463A46E04757464FF0020AC5
