:100000005084002041CF0000B1BE0000B1BE00000E
:10001000B1BE0000B1BE0000B1BE0000B1BE000024
:10002000B1BE0000B1BE0000B1BE0000B1BE000014
:0C003000B1BE0000B1BE000071BE0000B7
:1000400053B94AB9002908BF00281CBF4FF0FF313F
:100050004FF0FF3000F074B9ADF1080C6DE904CE3B
:1000600000F006F8DDF804E0DDE9022304B0704793
:100070002DE9F047089D04468E46002B4DD18A425B
:10008000944669D9B2FA82F252B101FA02F3C2F18E
:10009000200120FA01F10CFA02FC41EA030E94401F
:1000A0004FEA1C48210CBEFBF8F61FFA8CF708FB40
:1000B00016E341EA034306FB07F199420AD91CEB18
:1000C000030306F1FF3080F01F81994240F21C814A
:1000D000023E63445B1AA4B2B3FBF8F008FB103392
:1000E00044EA034400FB07F7A7420AD91CEB0404C7
:1000F00000F1FF3380F00A81A74240F20781644497
:10010000023840EA0640E41B00261DB1D44000231B
:10011000C5E900433146BDE8F0878B4209D9002D7F
:1001200000F0EF800026C5E9000130463146BDE809
:10013000F087B3FA83F6002E4AD18B4202D3824273
:1001400000F2F980841A61EB030301209E46002D22
:10015000E0D0C5E9004EDDE702B9FFDEB2FA82F277
:10016000002A40F09280A1EB0C014FEA1C471FFAD5
:100170008CFE0126200CB1FBF7F307FB131140EABC
:1001800001410EFB03F0884208D91CEB010103F189
:10019000FF3802D2884200F2CB804346091AA4B24B
:1001A000B1FBF7F007FB101144EA01440EFB00FE1F
:1001B000A64508D91CEB040400F1FF3102D2A64584
:1001C00000F2BB800846A4EB0E0440EA03409CE723
:1001D000C6F12007B34022FA07FC4CEA030C20FAD0
:1001E00007F401FA06F31C43F9404FEA1C4900FAF0
:1001F00006F3B1FBF9F8200C1FFA8CFE09FB18116D
:1002000040EA014108FB0EF0884202FA06F20BD9DF
:100210001CEB010108F1FF3A80F08880884240F22F
:100220008580A8F102086144091AA4B2B1FBF9F073
:1002300009FB101144EA014100FB0EFE8E4508D96E
:100240001CEB010100F1FF346CD28E456AD90238F3
:10025000614440EA0840A0FB0294A1EB0E01A142D8
:10026000C846A64656D353D05DB1B3EB080261EB46
:100270000E0101FA07F722FA06F3F1401F43C5E920
:10028000007100263146BDE8F087C2F12003D84056
:100290000CFA02FC21FA03F3914001434FEA1C4798
:1002A0001FFA8CFEB3FBF7F007FB10360B0C43EA8A
:1002B000064300FB0EF69E4204FA02F408D91CEB3A
:1002C000030300F1FF382FD29E422DD90238634438
:1002D0009B1B89B2B3FBF7F607FB163341EA0341D8
:1002E00006FB0EF38B4208D91CEB010106F1FF3827
:1002F00016D28B4214D9023E6144C91A46EA00461E
:1003000038E72E46284605E70646E3E61846F8E6AF
:100310004B45A9D2B9EB020864EB0C0E0138A3E7F8
:100320004646EAE7204694E74046D1E7D0467BE7D9
:10033000023B614432E7304609E76444023842E751
:10034000704700BF00000000000000000000000037
:1003500001F0FF01102A2BDB10F0070F08D010F876
:10036000013B013A8B422DD010F0070F42B3F6D17A
:10037000F0B441EA012141EA014122F007047FF093
:1003800000070023F0E80256083C85EA010586EAEA
:10039000010685FA47F5A3FA87F586FA47F6A5FA26
:1003A00087F68EB9EED1F0BC01F0FF0102F0070232
:1003B00032B110F8013B013A83EA010313B1F8D1DD
:1003C0000020704701387047002D06BF35460338BE
:1003D000073815F0010F07D1013015F4807F02BFF7
:1003E000013015F4C03F0130F0BC0138704700BF48
:1003F000704700BF30B50B4611F0010183B01ED12C
:100400009B0701D403B030BD1C20019109F0EAF92B
:1004100001991D2009F0E6F901991E2009F0E2F981
:1004200001991C2009F0D0F901991D2009F0CCF99F
:1004300001991E2003B0BDE8304009F0C5B905465A
:1004400000211C20144609F0CDF900211D2009F0DF
:10045000C9F900211E2009F0C5F9284608F050FE10
:100460002388B3F5C15F4FEAD07039D043F6070255
:10047000934217D040F60202934231D030BB0021A4
:100480001C2009F0A1F900211D2009F09DF900218F
:100490001E2009F099F901211C2003B0BDE830406D
:1004A00009F0A0B994F824305A06E7D00021E8B941
:1004B0001C2009F089F900211D2009F085F900218F
:1004C0001E2009F081F901211E20E6E72F211C20C2
:1004D00009F07AF932211D2009F076F90021A8E708
:1004E000E37B5906E2D10028C9D0EFE71C2009F0D0
:1004F0006BF932211D2009F067F92F2199E700BF20
:1005000070B504460D461646FFF772FF324629467F
:100510002046FFF76FFF70BD38B52C49142009F055
:1005200013F90021142009F05DF901200BF02AFFD6
:100530000121142009F056F94FF40C700BF022FF42
:100540002249142009F000F921490A2009F0FCF899
:100550001F49092009F0F8F81E49082009F0F4F8AD
:100560000021142009F03EF90724B92500210A20B2
:1005700009F038F945FA04F101F00101092009F008
:1005800031F901210A2009F02DF9013C08200BF076
:10059000F9FE631CEAD100210A2009F023F90121A8
:1005A000142009F01FF94FF42F700BF0EBFE14200C
:1005B00009F0A0F80A2009F09DF8092009F09AF83E
:1005C000BDE83840082009F095B800BF016200205E
:1005D0000062002002200020704700BF08B509F02B
:1005E000C1FA0AF057FFFFF797FFFFF7F5FF08BDC5
:1005F0000649074B074891F808C001220A724FF0DC
:10060000030C197A80F814C01A727047D0030020C6
:10061000F8030020D4020020024A0121D0E9060399
:1006200051601847002009400120704708B5034C6D
:100630002368984763689847FAE700BFC003002023
:100640002021EFF3118281F31188037C022B02D069
:1006500082F311887047436870B404681C600368B3
:1006600044685C600024047483680C48DD6CC468D2
:100670009E6934436E681D605E6033606B60C46069
:10068000012483F82040047482F31188EFF311836E
:1006900081F3118882F3118870BC7047F803002041
:1006A00010B54FF0200EEFF3118C8EF311880C4A29
:1006B0008368D168D86C9C692143446818605C6089
:1006C00023604360D160012183F8201011748CF302
:1006D0001188EFF311838EF311888CF3118810BD0C
:1006E000F8030020FEE700BF2DE9F04F2A4C83B04D
:1006F000D4F818A0E268B2FA82F1C1F11F01E369EF
:10070000264D03EBC10321690091616995F81490AE
:100710000191002701264FF020082EE0D0E90C219E
:10072000C36AD4F818B02261C4E90501036380F8F4
:10073000287027722E7540F2000CEFF311828CF3B3
:1007400011884269D0E906019047EFF3118288F3DE
:100750001188019BE2686361009B85F81490267202
:10076000C4F818B02361A2B1B2FA82F1C1F11F013D
:10077000E36903EBC1039A450BD21868016819605D
:100780004B6019688B42C9D1436A22EA0303E360D4
:10079000C4E703B0BDE8F08FD0030020D4020020EE
:1007A0002DE9F041836D066CDFF86480C76D9E19FA
:1007B0004FF00103C8F80430436C044647EB0307CD
:1007C000350C0BF0D7FDD8F8303045EA0745EA1A6A
:1007D000B2F1004F0ED99D1D0D4B9D61A8B1D4E91A
:1007E0001601E369A665C4E91401E765A069BDE8DF
:1007F000F041184706335A1B002AEDDB9D4238BFF3
:100800001D46034B9D610028E9D10BF0B7FDE6E7DB
:10081000002009402DE9F04F334CE36883B0002BF2
:100820005CD040F2000CEFF311838CF311884FF091
:100830002008EFF3118388F31188D4F81890E26848
:10084000B2FA82F1C1F11F01E36903EBC1039945DB
:1008500044D22169254D0091616995F814A0019158
:10086000002701262EE0D0E90C12C36AD4F818B094
:100870002161C4E90502036380F8287027722E7590
:1008800040F2000CEFF311828CF311884269D0E939
:1008900006019047EFF3118288F31188019BE2680B
:1008A0006361009B85F814A02672C4F818B0236118
:1008B000A2B1B2FA82F1C1F11F01E36903EBC103F6
:1008C00099450BD21868016819604B601968994204
:1008D000C9D1436A22EA0303E360C4E70023237219
:1008E00003B0BDE8F08F00BFD0030020D402002089
:1008F0002DE9F04F202383B0EFF3118483F31188A7
:100900004FF08053DFF8A881D3F88C311B6B9847E8
:10091000654BD3E9106532462B46FFF791FB06FB8A
:1009200001F105FB0015002188F85D10D8F80830AA
:10093000D8F85470D8F80820A7EB030CA6FB0036B3
:100940002E44594D821AC5E9123694454FF00103E1
:1009500088F85C3000F29280A0EB070984F31188DC
:100960008A46D8F80040CDF804906668B4425744EF
:10097000A9EB0A094FF0FF3B09D117E02B7D23B10A
:10098000EB68DB1B9B4528BF9B46A6420ED0254645
:1009900024682B7D002BF8D0EB689F42EED12B69A9
:1009A00043B92B75D5E906309847E7E7D94505D314
:1009B000DA46D6E7F818E8602B62F3E72023EFF376
:1009C000118483F3118898F85D309BB1D8F800301A
:1009D0005D68AB424ED04FF0FF3B1A461B68107D5E
:1009E00030B1107D20B1D268D21B934528BF934609
:1009F0009D42F2D1BBF1FF3F3CD0019BAAEB030625
:100A0000D8F858305E449E4228BF1E46F519264845
:100A1000D0E91031826CA3FB063B13EB020AC36CD6
:100A200006FB01B141EB030B4FEA1A4343EA0B43C8
:100A300001930BF09FFC1D4A019B126B991AB1F1B7
:100A4000004F22D9931D194A936148B3164BC8F839
:100A50005060C3E914AB012388F85E300023C8F866
:100A6000545088F85C30C8F8087084F3118803B0DB
:100A7000BDE8F08FD8F85860F519C8E788F85C1021
:100A800084F3118803B0BDE8F08F0632D11A002933
:100A9000D9DB934238BF1346044A93610028D5D16D
:100AA0000BF06CFCD2E700BF200F002000200940B3
:100AB000580300200BF036BB2022EFF3118382F3A2
:100AC000118842680168116002684168516083F3CF
:100AD00011887047034A034692E8030083E8030045
:100AE000704700BFD40200200A207047F8B52023C9
:100AF000EFF3118683F31188027DB2B1C568044615
:100B0000EFF3118783F311884FF08053D3F88C31C2
:100B10001B6B9847074BD3E91023FFF791FA87F334
:100B20001188236A281A984200D9002086F3118878
:100B3000F8BD00BF200F0020007D704700238360B8
:100B400003704360704700BF8160704700230375E6
:100B5000704700BFB0F90E30002BB8BF5B420F2BBF
:100B600010B420D9A3F110014A09920002F1E02249
:100B7000012001F01F0100FA01F1D2F80001C2F8D2
:100B800080110D4A0D48116A51F82340844218BF64
:100B900041F823004FEA830C536A5DF8044B0022AE
:100BA00043F80C207047ECD14FF0E0221169116935
:100BB00021F002011161E4E70C030020B1BE000046
:100BC0002023EFF3118083F3118870470F280ED98B
:100BD000103843099B0003F1E023012200F01F00BD
:100BE00002FA00F0D3F80021C3F80001704700D0EA
:100BF00070474FF0E0231A691A6942F002021A6145
:100C0000704700BF0F2804D94FF0E0231038C3F815
:100C1000000F70474FF0200CEFF311838CF3118815
:100C2000C0E9002183F31188704700BF00214FF015
:100C3000FF320123C0E900120372704780F311886C
:100C4000704700BF89B2418210B4012200F1140440
:100C50000021C0E902128461027444612022EFF392
:100C6000118182F31188064A026054684460546816
:100C70002060506081F311885DF8044B704700BF1D
:100C8000C803002000F11403836120224361EFF3C5
:100C9000118382F31188426801681160026841681B
:100CA000516083F31188704700234FF0FF32C0E991
:100CB0000033C0E90223704770B4002A42D0936821
:100CC000052B30D901332BD1D2E90053D4684161CF
:100CD00000214060C361856100604FF0280C202234
:100CE000052301610362224B4262002180F8281033
:100CF000D9696144C0E90B4400F108024163202432
:100D0000EFF3118184F3118883605C68C4605C68D0
:100D100022605A6081F3118843690BB170BC70473F
:100D2000002070BC7047D2E90065D468416101229F
:100D30000021406086610060C5619A4001614FEA10
:100D4000C30CCFE70A4B4161D969406005252024D7
:100D50002831C0E90622C0E90B22026180F8282070
:100D6000C0E908540060416300F10802C8E700BF11
:100D7000D00300202022EFF3118382F31188C26890
:100D8000816811608268C168516083F3118870477F
:100D9000024B0122187A1A72704700BFD00300205C
:100DA000014B1869704700BFD00300200749084B6A
:100DB0000848012210B40C7A0A7207490460187AB4
:100DC0005DF8044B08601A72704700BFF8030020FA
:100DD000D0030020100E00200C0E0020014B1A78CA
:100DE000FDE700BF54120020014BDB69184700BF2C
:100DF000D402002030B48468B0F90E30A50702D5C3
:100E0000027B1F2A2CD8264A4168126A52F82350C6
:100E10008D4218BF42F823105A42C2810F2B027B29
:100E20000BD9103B03F1E02181F80024E10724D421
:100E30000023836030BC18467047032B04D9191F68
:100E400001F1E02181F8182DE207F1D50F2BEFD148
:100E50004FF0E0231A691A6942F002021A61E7E7CB
:100E60000F4A516A41F82300126A0E4952F8235082
:100E70008D4218BF42F82310D0E75A09920002F1C0
:100E8000E022012103F01F0301FA03F3D2F800115D
:100E9000C2F800310023836030BC1846704700BFA1
:100EA0000C03002095BD0000012931D0B0F90E30AF
:100EB000002BB8BF5B420F2B10B420D9A3F1100157
:100EC0004A09920002F1E022012001F01F0100FA1C
:100ED00001F1D2F80001C2F880110E4A0E48116AE1
:100EE00051F82340844218BF41F823004FEA830C95
:100EF000536A5DF8044B002243F80C207047ECD194
:100F00004FF0E0221169116921F002011161E4E75B
:100F1000704700BF0C030020B1BE000030B4202396
:100F2000EFF3118283F311881E4B1F4C196A1F4D7A
:100F30004FF0E020C0F8081DD0F8080D5C611C4C93
:100F4000DD618442596311D01A480A46012304E046
:100F5000362B10600AD001330432591E0E29F7D8FF
:100F600004EB830151F8041C1160F4E74FF0E02218
:100F70002020D2F80C3D23F47F4303F1BF6303F537
:100F800000334FF40071C2F80C3D82F8220DC2F814
:100F9000141DD2F8343F23F0404330BCC2F8343F34
:100FA000704700BF0C0300205084002000040000A4
:100FB00000000000B1BE00000F280FD9103843090F
:100FC0009B0003F1E02300F01F00D3F80021012172
:100FD000814002EA0100C3F88011704701D000206F
:100FE00070474FF0E02318691A6922F0020200F0FE
:100FF00002001A61704700BF2DE9F0411E46044609
:101000002023EFF3118083F31188664FBD68002D14
:101010007ED1BC6080F31188E160E261002E46D091
:101020007368A36100224FF48033C4E908230023CE
:101030000022C4E91223337B012B6FD1B0686061B9
:10104000C4E910053378022B7DD1C4E91405C4E945
:101050001605554A554B526B126D14209A42E08684
:1010600004F1280500F09A8001212846FFF71CFFB3
:1010700000252023EFF3118283F3118882F3118876
:10108000227C002A68D0002D00F086802022EFF319
:10109000118382F3118827607A6862607A6814602D
:1010A0007C6083F3118825462846BDE8F081002244
:1010B0004FF48033C4E9082300220023C4E912233B
:1010C000C4E914233A4B3A4A63610023C4E910236C
:1010D000C4E91623A661344A344B526B126D1420B6
:1010E0009A42E08604F12805BED1FFF765FF314A38
:1010F0003149E02384F834300323C4E90A422363EE
:101100002846FFF777FE0028B3D0811CB1D0ACE7AA
:1011100080F3118800252846BDE8F081D6F80880C4
:10112000264A002328464146FEF78AFF244B606189
:101130004FF0FF32002A73EB0803C4E91001B3D368
:101140003378022B81D0C4E9160500210020C4E9C0
:101150001401002BBFD07CE7EFF3118683F31188D5
:10116000184A63694FF08051B3F5802FD1F884019C
:10117000116B2CBF1B0C04230B444FF00108C2F869
:101180000480936103682321002098470E4BC3F825
:10119000808286F3118876E7BD6085E7FFF70CFF54
:1011A0000A4AA5E7000300200C030020B1BE00009E
:1011B00037894100A10700004412002040420F007F
:1011C0003F420F00002009400000244319060000A0
:1011D00070B5354A354C92F82430646001218AB0EC
:1011E00084F865102460C3B9D36982F8241003F130
:1011F000080003F110015B601B60D86098605961C2
:1012000003F11800196103F12001D8619861596256
:10121000196203F12801D9629962D169244B636193
:101220002831616423496162002505202021C4E939
:101230000A55C4E90F55C4E90C012562236184F8FD
:101240003850EFF3118081F31188A2615168E16198
:10125000566803F108013160516080F31188164E21
:10126000E3640A2305930223039529468DF80C3085
:10127000124A009503AB3046CDE90655CDE9085535
:101280000495FFF7B9FED6E91023002047F69061D8
:10129000FEF7D6FE4FF0FF33834275EB010238BFF5
:1012A0001846A0650AB070BDD00300205803002086
:1012B00068030020F1080000200F00203D210000FD
:1012C0002DE9F04FDFF89C80244F1646D8F83420E3
:1012D00083B052F8212004460D465BB3BA4220D1B8
:1012E000352922DCD3E900A993F808B0E18108464A
:1012F000FFF762FEC4E900A6BBF1000F84F80C9072
:1013000014BF032302231649A3602046FFF772FD92
:1013100000BBD8F8343053F82530BB4218BF204604
:1013200000D1002003B0BDE8F08F01212046FFF777
:10133000BBFDF6E7BA42F4D135290193F5DCE18132
:101340000846FFF739FE019B2360E02323736660A4
:101350000323D8E7811CDCD0E8E700BFB1BE000062
:10136000441200200C03002030B5514A51499368C3
:10137000097D1970046A1C61446A5C61846A9C611D
:10138000C46ADC6104681C6244685C6284689C62B4
:10139000C468DC6204691C6344695C6384699C639F
:1013A000C469DC63046B1C6400F140045C64446B3E
:1013B0009C64D0E90E40C3E91340032974D8DFE8E8
:1013C00001F0605A540200215469D5695960D1680E
:1013D000C3E9024551B34DB3621C881A022858D99B
:1013E000681E072855D925F0030E2246A644084654
:1013F00052F804CB40F804CB7245F9D125F0030232
:10140000954205F0030004EB020E01EB020C0DD037
:10141000A45C8C54012809D09EF801208CF801208E
:10142000022803D09EF802208CF802204FF0E02220
:10143000D2F8041D596592F8281D996592F8290D76
:10144000B2F82A1DD2F82C5DD2F8304D89B2C3E92A
:101450001701D2F8340DD2F8381DD2F83C2D5A6756
:10146000C3E91954C3E91B0130BD134989695960A7
:10147000D1E90A54ABE7114954694969D569596002
:10148000A5E7516A5469D569C0B251F82010596076
:101490009DE701392C4400E0013212F8010C01F8FB
:1014A000010FA242F8D1C1E70022C3E90222BDE741
:1014B0000C030020D4020020F8030020D0030020F9
:1014C00000B5094B9A6801219FB019714AB1FFF725
:1014D0004BFF064B4FF0E0210322D1F8041D1A7593
:1014E000FEE7C3F808D0F2E70C030020D402002086
:1014F00008B5024B01221A71FFF7E2FF0C0300202E
:101500002DE9F0412027EFF3118387F31188154966
:10151000154B0D7A154E01220A724FF0E0211C7A0C
:101520001A72D1F8043D124A96F81480526A0021CA
:10153000DBB2317552F82330EDB2E4B2986040F27C
:10154000000CEFF311828CF31188D3E9000290476D
:10155000EFF3118387F3118886F8148004EB0520DC
:10156000BDE8F081F8030020D0030020D402002061
:101570000C030020C0B208B9FFF74CB9704700BF98
:10158000890800B501F1FF3C019940F82C1000EBEF
:101590008C014FEA8C0C8646ACF1740C41F8082C97
:1015A000029A41F8043C41F8102C4FF0FF331248E6
:1015B000039A41F8140C41E9073341E9093341E941
:1015C0000B3341E90D3341E90F3341E9113341E96F
:1015D000133341E9153341E9173341E9193341E93F
:1015E0001B3341F8703C0EEB0C0041F80C2C4EF80C
:1015F0000C305DF804FB00BF7DBD0000836A30B590
:101600005C1E144218BF1A460C4004D00B441B1B2E
:10161000994229D81946036A00F1200543B302F123
:10162000FF3C03E018681D46B0B1034613EA0C0402
:1016300018BF141B586814BF04EB010E8E4670458A
:10164000F0D3401A021B18193CB15C6022B1441857
:101650001D68455062601C6030BD1B6832B143504C
:1016600001444A60296030BD002030BD2B6030BD90
:10167000184630BD2DE9F84F404D826895F85E3030
:101680000262044613B195F85C30EBB13C4E202366
:10169000EFF3118783F311884FF08053D3F88C3127
:1016A0001B6B9847D6E91023FEF7CAFC87F3118815
:1016B000A36895F85C1003440122E360227509B128
:1016C00085F85D20BDE8F88F4FF080532C4ED3F89D
:1016D0008C311B6B9847D6E910783A464346FEF7A3
:1016E000AFFCAB68D5F854E0AA6807FB01F1A0EBAA
:1016F000030C08FB0011A7FB0093AEEB0202194498
:101700009445C6E91291C2D8D4F808A0AEEB000EF9
:101710000AEB000B0123F245C4F80CB02375D1D2BB
:10172000AAFB077217EB09070AFB082241EB020428
:101730000AF020FE134B4FEA17481B6B48EA044897
:10174000A8EB0302B2F1004F0CD903F106080D4BD0
:10175000C3F8188078B1C6E91474C5F850A0C5F86C
:1017600054B0AFE70633A3EB0802002AEFDB98453D
:1017700038BF9846EBE70AF001FEECE7580300207B
:10178000200F002000200940F8B50AF0F3FD0AF010
:1017900073F808F051F800F00C030C2B47D010F050
:1017A0000405044622D12023EFF3118783F3118827
:1017B0004FF08053324ED3F88C311B6B9847314B2E
:1017C000D3E91023FEF73CFC736D181AB36D9842F1
:1017D0009DBF00EB8006760005462E4687F31188F4
:1017E0000121084608F02EF8B04229D3AFF300805B
:1017F000230706D530BFAFF30080BDE8F8400AF0FC
:10180000BDBD214E4FF08055D5F8D83130469B688C
:1018100098470428F8D014F0100400D160BB0120D0
:101820000AF030F8194B0122DA62DB6AE3E7AFF322
:10183000008030BFAFF30080BDE8F8400AF09EBDE5
:10184000134C183D65612023EFF3118583F3118854
:1018500004F10C00FFF70EFF85F31188AFF3008051
:10186000012008F08FFAAFF30080002384F82030C5
:10187000BDE8F8400AF082BD20460AF003F8D1E73F
:1018800058030020200F00200040034000200940A2
:101890006004002010B52023EFF3118483F3118836
:1018A000FFF7E8FE84F3118810BD00BFF8B50446C9
:1018B0001BB3D3E901761D78826000230761816143
:1018C000C66103752022EFF3118182F31188154B55
:1018D00003605E6846605E683060586081F311881E
:1018E0000DB92046F8BDEFF3118582F31188FFF79B
:1018F000C1FE85F311882046F8BDC0E906130361D7
:10190000037582602023EFF3118283F31188054B66
:1019100003605968416059680860586082F3118813
:101920002046F8BD580300202DE9F84306460F462F
:10193000154642B3294BD2F80890186892F80080F7
:1019400055680468264B08222421A0470446B8B1F4
:101950000023876005618661C0F81C900375202212
:10196000EFF3118182F311881E4B03605D684560BF
:101970005D682860586081F31188B8F1000F22D1AA
:101980002046BDE8F883154B1868154B04680822FB
:101990002421A04704460028F2D087600561C0E9F1
:1019A000066505752023EFF3118283F311880D4B33
:1019B00003605968416059680860586082F3118873
:1019C0002046BDE8F883EFF3118582F31188FFF715
:1019D00051FE85F311882046BDE8F883501200209F
:1019E00044120020580300202DE9F0411B4B1F68D2
:1019F00084B0144680460D4613463E6808221C21DA
:101A00003846B047F0B105B12D780574002200F1D9
:101A100014031FFA88F6826001224682C260836145
:101A200043612023EFF3118283F311880C4B036091
:101A30005968416059680860586082F3118804B0A1
:101A4000BDE8F081074B9C42F9D02CB1064AC4E9AD
:101A500000271C23A360FEE701ACF7E7501200202B
:101A6000C80300204412002088D00000F0B52A4CA2
:101A700083B00025202601AF2574E368ABB940F29E
:101A8000000CEFF311838CF311880095009B2BB9A8
:101A9000009B01330093009B002BF9D0EFF31183DF
:101AA00086F31188E368002BE9D0E368B3FA83F387
:101AB000C3F11F03D4E9070101EBC302904204D331
:101AC000237C002BD8D103B0F0BDA06951F83310AE
:101AD000A161E261D0B1C36A1A78BE2A00D0FEE7E4
:101AE000D1F82CC09CF80020BE2A00D0FEE7BB42F3
:101AF0000BD8826A13449F4207D8CB698A6A9C45F7
:101B000002D89444634501D9FEE7FEE71C311C303E
:101B10000AF020F9D4E700BFF803002010B5074C05
:101B2000237C43B90023237240F2000CEFF31183AE
:101B30008CF3118810BDFFF799FFF3E7F80300203D
:101B400010B52023EFF3118283F31188084C237C16
:101B500013B1084B1B7A43B10023237240F2000CEF
:101B6000EFF311838CF3118810BDFFF77FFFF3E7CC
:101B7000F8030020D0030020F0B54B1E03338FB0D4
:101B80001CD800233F4A09930B928DF82830079107
:101B9000CDF830D0022205AB03938DF8102020231E
:101BA000EFF3118483F31188438A9BB2002B56D143
:101BB00039B984F3118808460FB0F0BD0322002321
:101BC000EAE7314A01219369157A1172D2F80CC003
:101BD0005E681F68D96CD3F818E00293C3F824D06C
:101BE00037601E685F6877600E68B14204BF2CEAF8
:101BF0000E01D160022183F8201001231374836940
:101C00000021D16100F1140200920193C3F800D0C9
:101C10009DF81030C0F818D0022BEDB228D084F314
:101C200011880DB9FFF78CFF2023EFF3118283F3A6
:101C30001188039B3BB159681868086018685B6895
:101C4000436000210391029B0021596282F31188B5
:101C50009DF81010081E18BF01200FB0F0BD438A78
:101C6000013B9BB2438284F3118801200FB0F0BD89
:101C7000064B03985A680360426010605860FFF793
:101C8000F9FCCCE741060000F803002058030020CF
:101C900008B5FFF771FF80F00100404240B208BD77
:101CA000204A117A70B4012400F11405C9B21472EB
:101CB0002023EFF3118C83F3118843699D4226D0D2
:101CC00043691E684661D86875601C7408B10024B9
:101CD00004759B68D068DC6C9D69284365681C604E
:101CE0005D602B606360D060012083F82000107479
:101CF0008CF311882023EFF3118283F311888CF386
:101D0000118809B170BC704770BCFFF719BF037C24
:101D1000DB0701D54482F2E7438A01339BB2438259
:101D2000EDE700BFF8030020FFF7BABFF8B5214B7D
:101D30001D7A9C6901221A72EDB22022EFF31186FE
:101D400082F31188DF6861682068E26CD4F818C0FB
:101D5000086021686068486011688A429A6904BF17
:101D600027EA0C07DF60944204BF0022DA610122F7
:101D70001A74032284F8202094F8482052B12022BB
:101D8000EFF3118782F3118858690138586150B117
:101D900087F3118886F31188646024604DB9BDE82B
:101DA000F840FFF7CDBE87F31188034B1B6A9847B5
:101DB000EEE7F8BDF8030020D4020020F0B52C496E
:101DC0008FB0002301AC05AA09938DF82830CDE926
:101DD0000B14079004922023EFF3118783F31188EB
:101DE000244A01219369157A1172D2F80CC05868FF
:101DF0001E68D96CD3F818E00393066018685E6813
:101E000046600868814204BF2CEA0E01D1600120BF
:101E1000194910744E6804984FF0000CC2F81CC0A9
:101E2000022283F820200160466030604860FFF79E
:101E300021FC039B0294EDB25C62019487F311884C
:101E40000DB9FFF77DFE2023EFF3118183F3118895
:101E5000049B58681C68046018685B684360002233
:101E6000049281F31188039B5A620FB0F0BD00BF4A
:101E7000A1060000F8030020580300202DE9F041DE
:101E800086B0002203238DF8143004922023EFF350
:101E9000118583F31188438A9BB2002B4BD12F4AC3
:101EA00001219369147A1172D2F80CE05F68D3F8BB
:101EB00000C0DE6CD3F81880039301A95962C7F8FB
:101EC00000C01F68D3F804C0C7F804C03768BE421A
:101ED00004BF2EEA0806D660022683F8206001239C
:101EE000137483690026D66100F1140201920293F3
:101EF00019609DF814308161022BE4B224D085F37F
:101F000011880CB9FFF71CFE2023EFF3118283F335
:101F10001188049B3BB159681868086018685B68B1
:101F2000436000210491039B0021596282F31188D0
:101F300006B0BDE8F081438A013B9BB2438285F342
:101F4000118806B0BDE8F081054B04985A6803601B
:101F5000426010605860FFF78DFBD0E7F803002067
:101F6000580300202DE9F0412E4FDFF8C0801546C0
:101F7000D8F81830BA689A4206460C463ED14FF05F
:101F8000010CB26A531E2B401CBFAD18ED1A336A08
:101F900006F12002002B3BD09C4202D83AE09C4242
:101FA00012D919461B68002BF9D100236560236004
:101FB0000C608A4203D04B68CA18944210D0BCF11E
:101FC000000F14D0BDE8F08160198342C4E90035E8
:101FD0000C60EED158681B680544C4E90035E8E799
:101FE00022682B44C1E90023BCF1000FEAD1C7F8F5
:101FF00008C00D48BDE8F041FFF752BE07F10C00E4
:10200000FFF73CFFD8F81830BB604FF0000CB8E782
:102010001146CAE761198B42C4E900353462CED15A
:102020001146D7E7F40E0020000F0020F80300202F
:102030002DE9F047DFF87880DFF878A0D8F808407D
:102040001D46DAF818309C4284B007460E4607D188
:10205000FFF7D4FA0446DCB1204604B0BDE8F087AF
:10206000914608F10C00FFF709FFDAF81830C8F8BC
:1020700008304A4631463846FFF7C0FA0023044686
:1020800008F10C00C8F80830FFF70AFE002CE3D175
:10209000054B9D42E0D025B1044BAE60C5E9003749
:1020A000FEE701ADF8E700BF441200201CD100009C
:1020B000F40E0020F80300202DE9F0411C4FDFF85A
:1020C0007880436ABA680B60D8F8183000249A42C6
:1020D000C1E9014406460D4616D1036A93B1204674
:1020E00001215A681B68A242104407D9AA603BB17B
:1020F00014465A681B68A2421044F7D8002BF0D14E
:10210000686071B1BDE8F08107F10C00FFF7B6FE21
:10211000336AD8F81820BA601BB121466868AC68E9
:10212000DFE70023BB600348BDE8F041FFF7B8BD1F
:10213000F40E0020000F0020F8030020F8B5244B17
:102140002020DB6CEFF3118E80F3118893F82820A8
:102150004ABB204C596BE2685E6A257A4FF0010C4D
:1021600084F808C032434E6883F828C01960EDB285
:102170005E6033604B60E2608EF3118805B1F8BD9C
:10218000A169EFF3118680F31188E368B3FA83F253
:10219000C2F11F02E36903EBC203994206D3257221
:1021A00086F31188F8BD8EF31188F8BD0A4B0B48F1
:1021B0001F7A83F808C0FFB209F08EFE257286F3FD
:1021C0001188002FDBD1BDE8F840FFF7B9BC00BF94
:1021D00058030020D0030020F8030020E906000087
:1021E000F8B52022EFF3118482F31188036B0B43BF
:1021F000036384F31188EFF3118E82F3118890F852
:1022000028304BBB1E4C416BE368466A257A4FF081
:10221000010C84F808C033434E6880F828C0016080
:10222000EDB2466030604860E3608EF3118805B11E
:10223000F8BDA169EFF3118682F31188E368B3FA60
:1022400083F2C2F11F02E36903EBC203994206D392
:10225000257286F31188F8BD8EF31188F8BD094BFD
:1022600009481F7A83F808C0FFB209F035FE2572CD
:1022700086F31188002FDBD1BDE8F840FFF760BC82
:10228000D0030020F8030020E906000000B17047E9
:102290002DE9F0412022EFF3118182F311881D4DC9
:1022A000EB686BB92B7281F311881B4E337A0122D4
:1022B00032721BB9BDE8F041FFF742BCBDE8F081C6
:1022C000044681F31188A969EFF3118782F311881D
:1022D000EB68B3FA83F2C2F11F02EB6903EBC203AE
:1022E000994204D3287287F311880B4EDEE70A4E19
:1022F0000A4896F80880012333725FFA88F809F0DB
:10230000EBFD2C7287F31188B8F1000FCED1FFF7E7
:1023100017FCCBE7D0030020F8030020E9060000FB
:10232000244B2DE9F0411C688CB92022EFF3118178
:1023300082F31188204DEB6893B92B7281F31188D9
:102340001E4E337A012232720BB9FFF7F9FB1C4B98
:102350001B681BB9BDE8F041FFF7F2BBBDE8F08197
:1023600081F31188A969EFF3118782F31188EB6873
:10237000B3FA83F2C2F11F02EB6903EBC203994285
:1023800004D32C7287F311880C4EDAE70B4E0D48FC
:1023900096F80880012333725FFA88F809F09CFDF3
:1023A0002C7287F31188B8F1000FCAD1FFF7C8FB70
:1023B000C7E700BF0C0E0020D0030020F803002068
:1023C000100E0020E9060000030A09D110B5064CE2
:1023D000237C13B1054B1B7A1BB10023237210BD64
:1023E0007047FFF743FBF8E7F8030020D003002015
:1023F00070B5202198B0EFF3118381F31188204C40
:10240000E268AAB940F2000CEFF311838CF3118853
:102410000192019B2BB9019B01330193019B002B7E
:10242000F9D0EFF3118381F31188E368002BE9D031
:10243000E268B2FA82F2C2F11F02236A114953F82C
:102440003200A06103EBC203E361002602230B7597
:10245000267440F2000CEFF311838CF311882023D3
:10246000EFF3118283F31188074D286909F044FDC9
:10247000A1692E6009A81C3109F06CFC18B070BD70
:10248000F8030020D40200200C030020F8B52E4BE6
:102490001B78002B55D02023EFF3118183F3118893
:1024A0002A4A5368072B1DDD81F3118840F2000C86
:1024B000EFF311838CF311882022EFF3118182F363
:1024C0001188234CE368A3B9237281F31188214D4D
:1024D0002B7A01222A720BB9FFF732FBBDE8F840D4
:1024E000FFF786BF10681C4C40F82340013353604F
:1024F000DAE781F31188A169EFF3118682F311887D
:10250000E368B3FA83F2C2F11F02E36903EBC2038B
:10251000994205D30023237286F311880D4DD7E726
:102520000C4D0E482F7A01232B7209F0D5FC0023A5
:10253000FFB2237286F31188002FC9D1FFF700FB89
:10254000C6E7FEF74BFC00BF541200203404002005
:10255000D0030020F8030020F1050000E906000088
:1025600000B97047FFF72ABC2DE9F0430446D0E9D3
:102570000A2085B022B1BE210AF028F8D4E90A2049
:10258000D4E90E31CDE9013132490091324B111FAE
:10259000626BFEF7F5FFE061002856D0626900200B
:1025A0000123824284F82030606239DB61692B4A62
:1025B000656903FA01F1A161116A01EBC501157AA0
:1025C000E16413725FFA85F92021EFF3118881F33A
:1025D0001188EFF3118C81F31188E76CD668A56937
:1025E000D7F804E027602E43C4F804E0CEF800409A
:1025F0007C60D66084F8203013748CF31188EFF37C
:10260000118381F311888CF3118888F31188B9F153
:10261000000F02D1FFF794FA484605B0BDE8F083F9
:102620000E4BA06103F12C02E2642025EFF311812F
:1026300085F3118822601A6B62601A6B14601C6348
:1026400081F3118805B0BDE8F083012005B0BDE835
:10265000F08300BF1D1B00002D1D0000F8030020AB
:102660002DE9F04315461268AF690261EA684261DC
:1026700087B004468946002F44D069692A692763D8
:10268000002908BF4FF40071002A3ED0D01D20F071
:102690000700121A0A4422F00702A2624FF0FF322A
:1026A000E06222636968A86895F82020A163E9695F
:1026B000C4F83490C4E90F0184F84820CAB9002254
:1026C000626519462046FFF74FFFB8B904F10802CA
:1026D0002023EFF3118183F311881D4BA3605D6804
:1026E000E5605C6822605A6081F3118807B0BDE83C
:1026F000F08317494A6901324A61E0E7023007B0C6
:10270000BDE8F083134A1768B7E7CA1D22F007082F
:10271000C4F828804FB13E680193082241463846EC
:10272000B047019B20B1E062BCE70B4A1768F2E7B3
:102730000A4A934206D043B1094AC3F80880C3E964
:102740000027FEE7E0620120D0E703ABF4E700BF1B
:10275000F803002010120020501200204412002024
:1027600088D000002DE9F0410446002941D1394BC1
:102770001D7A01212022EDB21972EFF3118682F346
:10278000118890F820208A4237D0022A52D1426A1A
:102790006AB15168106808601068D1685268426078
:1027A00029B14A68086810600A684968516094F85D
:1027B00048207AB12022EFF3118782F311885869FB
:1027C0000138586120B987F31188234B1B6A984759
:1027D00087F3118886F311880DB9FFF7B1F9206BE3
:1027E000431C08D0D4E90A21F0B1BDE8F0414368A8
:1027F00018470129F3D1BDE8F081426801681160F2
:102800000168C26C4068486011688A421BD0626AE5
:10281000002ACCD0D268002AC9D05168106808605C
:10282000116852684A60C2E70C4B1868BDE8F04175
:1028300043681847032ABAD1436802681A600368DC
:1028400042685A60C6E7DA68A16922EA0102DA60E2
:10285000DDE700BFF8030020D40200205012002062
:102860002DE9F043804D8BB0FEF758FB6B69019367
:1028700001ACA34204D2BE2203F8012BA342FBD138
:102880007A4B93F82810002968D0794A794B7A4915
:1028900011601A7A0AB901221A72784B93F86530DE
:1028A0000BB9FEF795FC764A92F82430CBB9D36980
:1028B000012182F8241003F1080103F110025B608A
:1028C0001B60D96099605A6103F118011A6103F124
:1028D0002002D96199615A621A6203F12802DA6210
:1028E0009A62684F97F83830CBB93B6A012287F873
:1028F000382003F108025B601B60DA609A6003F124
:1029000010025A611A6103F11802DA619A6103F147
:1029100020025A621A6203F12802DA629A625A4B62
:102920001E78002E7CD095F838308BB9012385F8BD
:1029300038302023EFF3118283F31188EB696A6941
:10294000083B22F0070213444FF0FF322B612A604C
:102950004E4B01221A700BB0BDE8F083012083F8C2
:1029600028004B4B4B4E4C4AD883986103F1200012
:10297000586219775961921B18622027EFF3118E64
:1029800087F311884548D860D0F804C0C3F810C058
:10299000D0F8048003F10C0CC8F800C0C0F804C0E3
:1029A0008EF311889960EFF3118087F311883C4909
:1029B00019604F685F604F683B604B6080F311881F
:1029C000384B0821996216F00701DE6105D00A44F0
:1029D000C1F108010E44DE61083A22F007025A6292
:1029E0002022EFF3118082F311882F4A1A61516877
:1029F000596156682D493160516080F31188DA6958
:102A000000211160596A51602949196029491A62E7
:102A10005960294A294999602949D960136034E7E6
:102A20004FF001092022314602A883F80090DFF818
:102A3000A08009F0CBFD234905914FF40070224995
:102A40000191069021498DF8249033462246404654
:102A5000FFF706FE10B9C7F8348064E70146404628
:102A6000FFF780FEF7E700BF0C030020D402002030
:102A7000180E002034040020200F002058030020EE
:102A8000D0030020F8030020800F00205412002003
:102A9000F40E00205044002050840020C803002081
:102AA00048030020E00D002050030020F00D00201E
:102AB00031200000651F0000501200202906000090
:102AC000B9200000880F002068D000002D0600000B
:102AD00088110020234A2449137A70B50C6801201C
:102AE000DBB21072002C37D022680A600BB9FFF7F6
:102AF00027F804F12403A36220226362EFF3118319
:102B000082F3118861692069086021696069486001
:102B100083F31188E068E8B1EFF3118382F3118841
:102B2000C268816811608268C168516083F311884E
:102B30000E4D0021FFF716FE2868E1684368582211
:102B400098470023E360286821464368BDE8704049
:102B500050221847054DF6E71BB9BDE87040FEF757
:102B6000EFBF70BDF8030020140E002050120020AB
:102B700010B524220446002109F028FD01234FF45A
:102B80000072E360626184F8203010BD2DE9F043EB
:102B9000044687B089461546002A52D0D5E9051764
:102BA00012680261EA684261002F75D02A692763C2
:102BB000002908BF4FF40071002A4BD0D01D20F02F
:102BC0000700121A0A4422F00702A2624FF0FF32F5
:102BD000E06222636968A86895F82020A163E9692A
:102BE000C4F83490C4E90F0184F84820D2B9002217
:102BF000626519462046FFF7B7FCC0B904F1080228
:102C00002023EFF3118183F31188254BA3605868CB
:102C1000E060586802605A6081F31188204607B06E
:102C2000BDE8F0831E494A6901324A61DFE7811C31
:102C3000F4D02046FFF796FD0024204607B0BDE8FB
:102C4000F083184A056101211768174D4161076338
:102C50004FF40071CA1D22F00708C4F828804FB154
:102C60003E680193082241463846B047019B20B197
:102C7000E062AFE70D4A1768F2E70D4A934206D0CB
:102C800043B10C4AC3F80880C3E90027FEE7E062BD
:102C90000121CEE703ABF4E7024A176886E700BFDD
:102CA000F803002010120020B8D1000050120020BC
:102CB0004412002088D0000089B138B511F1080411
:102CC0000BD2084A084B1068214605680822A8471D
:102CD00018B1C0E90004083038BD002038BD00201C
:102CE000704700BF501200204412002071B10B4603
:102CF000074A10B453F8084D106851F8042C1B1BF8
:102D00001A44214643685DF8044B1847704700BFDA
:102D1000501200202DE9F0411446002938D00D460C
:102D20003AB312F1080645D2244F254B38680822E1
:102D3000D0F800803146C04700283BD0466055F8A7
:102D4000042C0060083AA24200F1080628BF22467F
:102D50002946304609F012FC2B46386853F8081D06
:102D600055F8042C5B1A1A44436898473046BDE86E
:102D7000F0810B46114A53F8081D106855F8042CD1
:102D80005B1A1A442646436898473046BDE8F081EE
:102D900082B108340ED2094A094B106821460568F1
:102DA0000822A84730B100F10806C0E90004304607
:102DB000BDE8F08100263046BDE8F08150120020C9
:102DC000441200202023EFF3118283F31188FEE7E1
:102DD00008B52023EFF3118283F31188074E74683E
:102DE000002C09DD0546013C3368284653F82430A1
:102DF000013C9847631CF7D1FDF774FC34040020B4
:102E000008B5024B03221A75FFF7E2FFD402002037
:102E100010B50A4C0A4A2368D0F800E003EB430CD3
:102E200042F81CE002EB4C028088908005485A1C56
:102E3000C15402F00F02226010BD00BF78120020C2
:102E40008C1200207C120020F8B50E4B0E4F1E682D
:102E5000741E054604F00F0403E003F00F04A642BD
:102E60000DD004EB4401062207EB4101284609F08E
:102E700075FB631E0028F0D1044B185DF8BDFF20E0
:102E8000F8BD00BF781200208C1200207C120020B8
:102E900040684B68C01A70472DE9F04F15466F4ADD
:102EA00089B01668029380460F46002E00F0D3804A
:102EB000082E52D06A4A03924FF0000C144605EBDC
:102EC000030A07E09D4257D30CF1010C664504F15B
:102ED0000C046DD08DF814808DF815702388BDF822
:102EE00014209A4220466368ECD1A2680093E91A44
:102EF00003EB0209CDF804A02AD4A3EB050EBEF122
:102F0000000F1DDB9D422A4628BF1A46A91AAAEBCC
:102F1000020BA3EB020E7145A9EB020212D2F3459C
:102F2000D0D3934580F08480A9EB0502C0E901521B
:102F30004C4B4B4831460C2209F088FB012018E02D
:102F4000AAEB030B9142BDD293456BD2012010E056
:102F5000DDF808B02A460021DBE7414B8DF814006C
:102F60008DF81510BDF8142003931B889A4231D0B8
:102F7000002009B0BDE8F08F039BA6EB0C020CF11A
:102F8000010C0CEB4C0C02EB420203EB8C009200A8
:102F9000214609F001FB029BA360304B84F80080BE
:102FA00001360120677065601E6009B0BDE8F08FD2
:102FB000039A06EB460302EB83030136274A83F8A4
:102FC00000801660029A5F7001205D609A6009B00F
:102FD000BDE8F08F224A02995368926800936C18FA
:102FE00003EB020919461846EB1A01942ED4491B2B
:102FF000002910DBA842024628BF2A46AB1AA4EBE0
:10300000020B0099891A8B42A9EB020206D259459C
:10301000AED8134885E70098A4EB000B9342A7D2E3
:103020000F4891E7DDE900239B1A83600120A0E7A8
:10303000029A826080F8008047704560094B08481A
:1030400031460C2209F002FB012092E7DDF808B0BE
:103050002A460023D5E7024B0126AFE74C13002098
:10306000EC120020912E00002DE9F84FDFF87CB122
:10307000DBF800508246884691467DB300245A4EC4
:10308000234603EB430106EB8100D0E901273A44D4
:1030900092454FEA810110D80134AC422346F0D367
:1030A0007068A0EB0A03002B1CDDFF22002388F8C8
:1030B000002089F80030BDE8F88FEB1A03EB4303DA
:1030C0009A000C31013D0C3A314409F065FAA542F1
:1030D000CBF800502346D4D8002DE1D10AF10040AE
:1030E0000138E2E7012D51D03269A2EB0A03002B2F
:1030F00051DC022D52D0F069A0EB0A03002B56DC04
:10310000032D57D0B26AA2EB0A03002B57DC042D23
:1031100053D0706BA0EB0A03002B55DC052D50D06B
:10312000326CA2EB0A03002B53DC062D4FD0F36C5C
:10313000A3EB0A01002954DC072D4FD0B06DA0EBA2
:103140000A0ABAF1000F46DC0821072303EB430209
:1031500006EB82028D42926810444FEA430209D97D
:1031600001EB410106EB810149680C1A30EA2400A9
:1031700028BF0846134406EB830216F8233088F86C
:103180000030537889F80030BDE8F88FB3681844F0
:1031900000231A46EEE70023591CD7E7012303EB6F
:1031A000430106EB8101886810445A00E2E71046AB
:1031B0000123F1E702460223F1E70323EFE70223AD
:1031C000EAE702460423EAE710460323E4E705237F
:1031D000E5E70423E0E718460623DDE71A46062361
:1031E000DDE710460523D7E7EC1200204C13002042
:1031F000034B044800216022196009F0E7B900BFC1
:103200004C130020EC120020002A56D02DE9F04388
:1032100000F1020C2B4D0024C0F102062DE00B5CE6
:10322000724504F103044FEA032348D911F80E0054
:1032300043EA07439F0C1843C3F3053315F807907F
:1032400015F80380C0F385174FF0000E00F03F0023
:10325000EF5D2B5C69F3070E68F30F2E67F3174ED3
:1032600063F31F6E94424CF802EC674606EB0C00C9
:103270000CF101030CF1040C0AD2601C82420F5DB8
:1032800004F1020E4FF00003C9D804461846CFE7F8
:103290000D4CA4FB021424F0010101EB5401521A5D
:1032A000012A05D0022A01D13D221A70BDE8F0831F
:1032B0003D221A703A70BDE8F0831046704774469C
:1032C0000020B5E7DCD10000ABAAAAAA2DE9F0479F
:1032D000DFF840811F4698F80030054689461646BB
:1032E000C3B94FF48072FF21484809F06FF9484B89
:1032F000464903F140029E460EF1010EF446964502
:103300001CF80149ACEB030C01F804C0F4D1012313
:1033100088F80030B3076DD1B00800EB400026B943
:103320000FB100233B60BDE8F08709EB060313F8FB
:10333000012C3D2A06D113F8023C3D2B14BF00F1AD
:10334000FF3002380024DFF8C4E04B46A4461FE0FB
:10335000A04217D9090341EA8A4141EA891104F1DF
:10336000010941EA080848454FEA1141295549D960
:10337000A21C4FEA1821904205F8091044D905F81B
:10338000028003340CF1040C664503F10403C7D931
:103390001A7893F802803D2A18BF1EF802A05A78C6
:1033A00008BF4FF0000A3D2A15BF1EF80210524612
:1033B0004AEA01020021B8F13D0F18BF1EF808903B
:1033C00093F8038014BF42EA09024FF00009B8F1F4
:1033D0003D0F1ABF1EF8088042EA08024FF00008AD
:1033E00012F0C00FB4D017B16FF001033B600020A2
:1033F000BDE8F087002FFAD04FF0FF333B6000208C
:10340000BDE8F0874C46BDE71446BBE750130020EB
:10341000DBD100005014002070B5744C744E82B0A3
:10342000A51C204600F072FB0128FADD6378103BF2
:10343000132BF6D8DFE803F0C9A7BB5EC39DB140EC
:10344000978853496F677F37271A150A0328E8D1F1
:10345000A178032986BF00210120002002F01CFC76
:10346000DFE70228DDD102F04FFBDAE7023810284F
:10347000D7D88110284602F0BBFB011ED1DA3046B6
:1034800000F02AFACDE7002200230728CDE9002327
:10349000C7D128682B7900908DF80430DDE9000150
:1034A00002F060FBBDE70328BBD1A078003818BF4D
:1034B000012002F051FBB4E70228B2D108F05AFF14
:1034C0004C4B0122C3F87C25FEE70928A9D1A0783E
:1034D0004949003818BF012002F084FAA1E71F28EB
:1034E0009FD1A078454A003818BF0120911F02F0F3
:1034F0008BFA96E7082813BF0021294601200846C9
:1035000000F096FD8DE704288BD16088132888D9B8
:1035100002F01CFB85E7422883D1A1781F2980D8BF
:1035200094F822301F2B3FF67CAF354AA2F12000E1
:1035300002F0ACFA75E7122813BF002129460120DA
:10354000084600F089FD6CE705287FF76AAF6379CC
:103550009A1D82427FF465AF2A4A21791846638812
:1035600003F042FD5DE702287FF45BAF02F026FA2C
:1035700057E703287FF455AFA078003818BF012023
:1035800002F0E0F94DE703287FF44BAFA078003854
:1035900018BF012002F000FA43E703287FF441AF8F
:1035A000A078003818BF012002F000FA39E703289C
:1035B0007FF437AF94F9020000F034FD31E70228C0
:1035C0007FF42FAF02F0C4F92BE70C287FF429AF6A
:1035D000A07827283FF625AFE279032A3FF621AFEE
:1035E000A368D4F8031002F073F91AE7D01800208A
:1035F0001CD2000000002043D3180020D91800205E
:10360000F3180020D618002070B5094C094D20464B
:10361000FFF7AEFA4FF4806003226061E26025613B
:10362000224605490548BDE870400023FFF7AEBAC1
:10363000AC140020D01400201934000054140020D1
:103640000649074ABFF35B8F00230B60BFF35B8F14
:10365000BFF35B8F1360BFF35B8F7047D01A0020FE
:10366000D41A002010B5184A184CBFF35B8F1368AA
:10367000BFF35B8FBFF35B8F2468BFF35B8F1B1BB4
:10368000062B00D910BDBFF35B8F52E8003F5C1CD6
:1036900042E8004CBCF1000FF7D1BFF35B8F03F0A1
:1036A00007020B4B02EB420E03EBCE0E094B8C468E
:1036B00023F81200BCE80F00AEE80F009CE80300FE
:1036C0008EE8030010BD00BFD01A0020D41A0020DD
:1036D000001A0020C01A002010B51D4B1D4CBFF36E
:1036E0005B8F1A68BFF35B8FBFF35B8F2368BFF3F9
:1036F0005B8F9A4201D1002010BDBFF35B8F23681E
:10370000154ABFF35B8F03F0070332F813208242A0
:1037100002D0101A0204EED5104A03EB430302EB69
:10372000C30E8C46BEE80F00ACE80F009EE8030015
:103730008CE80300BFF35B8F54E8003F013344E89B
:103740000032002AF8D1BFF35B8F012010BD00BF0B
:10375000D01A0020D41A0020C01A0020001A00201D
:103760000E4B0F4ABFF35B8F1968BFF35B8FBFF33C
:103770005B8F1268BFF35B8F91420DD0BFF35B8FFD
:103780001B680848BFF35B8F013B03F0070303EBA3
:10379000430300EBC300704700207047D01A00209D
:1037A000D41A0020001A00202DE9F043DFF86880C9
:1037B000DFF86890002187B2060C88F800100D46EB
:1037C0000C46C1F1200EA1F1200C22FA01F003FAFF
:1037D0000EFE23FA0CFC40EA0E0040EA0C00C00783
:1037E0005FFA81FC01F1010104D5601C09F804C0F5
:1037F0000125C4B22529E4D10DB188F80040044860
:1038000004497E40C1E900230680BDE8F08300BF83
:10381000D81A0020E01A0020E81A0020EC1A002034
:10382000274B28491B885840C0F30722C0B210B468
:103830008C5C0A5C42EA042202EB02121A44C2F3D4
:103840000720D2B2085C8A5C42EA002202EB021234
:103850001A44C2F30720D2B20C5C8A5C1A481B4996
:1038600042EA042202EB02121A4453409BB2A0FB2C
:1038700003201A1A00EB5200400900EBC00200EBD3
:103880008200181AD1E9002480B2C0F1200104FAA4
:1038900001F1C2400A43A0F1200124FA01F10A43D8
:1038A000D20709D40A4A0B4912785DF8044B02FB8F
:1038B00003F31B14C85C7047C0B25DF8044B70473B
:1038C000D81A002038D200004D91CFBAE01A00205B
:1038D000E81A0020EC1A00200FB400B5A7B028ABFE
:1038E0009DF80D1053F8042B0193002060F3C711CD
:1038F0004FF4205C02908DF80D1006A88021ADF8E1
:1039000010C0059009F01EF8BDF80C30024662F3B5
:103910000E0302A8ADF80C3000F0B2FA27B05DF843
:1039200004EB04B0704700BF024B00221A7002F093
:1039300027BB00BF1C1B002000B585B001A806F006
:1039400095FD084B02930020642201A90392ADF873
:10395000040006F039FE044B186010B105B05DF8A4
:1039600004FBFEE729390000181B002008B902F00B
:1039700007BB38B50A4D024604460021286806F008
:103980007DFD084B01221A7004F078FB064B00EB1A
:1039900084041C602868BDE8384006F0A3BD00BF61
:1039A000181B00201C1B0020141B00200D4B1B7833
:1039B00003B9704770B50C4E0446306806F0B6FD8A
:1039C0000A4B1D6804F05AFB05EB8404221A920886
:1039D0003068002106F052FD3068BDE8704006F006
:1039E00081BD00BF1C1B0020181B0020141B0020E1
:1039F000024B00221A7002F0CBBD00BF281B002032
:103A000010B584B001A806F031FD6424074B029381
:103A1000002201A901200394ADF8042006F0D4FD92
:103A2000034B186008B104B010BDFEE7F139000087
:103A3000241B00202DE9F041044678B9194D2B785C
:103A40001BB9BDE8F04102F0A3BD174B186806F0A2
:103A50006DFD2C70BDE8F04102F09ABD114FDFF80A
:103A60004C8004F00BFB3B7800EB84052BB1D8F8BD
:103A700000305B1BB3F1004F11D80B4E306806F0DD
:103A800055FD30682246002106F0F8FC012330681D
:103A90003B70C8F80050BDE8F04106F023BDBDE81A
:103AA000F08100BF281B0020241B0020201B0020C9
:103AB00008B5FCF793FD01F04DFD00F08BF9FFF721
:103AC000A3FDFFF739FFFFF79BFFFDF78DF90020FE
:103AD00008BD00BF00B58BB006F054FE01A806F08B
:103AE00099FE00204FF4612301A90793ADF804006B
:103AF000069006F06DFE044AB0FA80F35B09106090
:103B000058420BB05DF804FB541E0020F0B54D4E3A
:103B10004D4C83B0074606223146206806F088FEE9
:103B200001AB042231463846FFF7D0FB019B002B46
:103B30006DDB3D784B2D50DC012D05DD6A1E2068C4
:103B40009200B11D06F074FE16F825300D2B4FEAD9
:103B5000850228D1164473780A2B24D101AB394948
:103B60003846FFF7B3FB019B002B01DB03B0F0BD30
:103B700000238DF803300DF103052068012229464A
:103B800006F056FE9DF803300D2BF6D12068012279
:103B9000294606F04DFE9DF803300A2BF4D101981A
:103BA0000A3803B0F0BD00238DF803300DF1030592
:103BB00020680122294606F03BFE9DF803300D2BBC
:103BC000F6D120680122294606F032FE9DF8033026
:103BD0000A2BF4D16FF00200C8E700238DF8033000
:103BE0000DF1030520680122294606F021FE9DF80B
:103BF00003300D2BF6D120680122294606F018FE6D
:103C00009DF803300A2BF4D16FF00100AEE70023DA
:103C10008DF803300DF1030520680122294606F0D6
:103C200007FE9DF803300D2BF6D1206801222946AE
:103C300006F0FEFD9DF803300A2BF4D14FF0FF3063
:103C400094E700BFC01C0020541E0020F8B50D4EA4
:103C50000A4601463046FFF7D7FA33180D210A22EB
:103C6000841C31545A700CD0074F002501E0241AEF
:103C700007D071193868224606F0DEFD0028054499
:103C8000F5DAF8BD2C1B0020541E00202DE9F84F5A
:103C9000484CDFF83881484E484D494FDFF83091A5
:103CA00004F10C0A3BE02A2A6FD02B2A75D0FB586E
:103CB000C4F802304379C168DB094EEAC33EC388C9
:103CC0002381037AA3720CF0C003CCF3050C43EA02
:103CD0000C0C5A4610235046A4F806E084F80BC09A
:103CE000637008F04BFC0AEB0B01091B8A1C89FB73
:103CF0000203A3EBE273DBB220462370FFF7A6FFBB
:103D00003068002105F072FCBFF35B8F55E8003F7F
:103D1000013345E80032002AF8D1BFF35B8F4FF042
:103D2000FF31D8F80000FDF727FF3068012105F0CA
:103D30005DFCBFF35B8F2B68BFF35B8F03F0070362
:103D400007EB03101B018188C1F30E0EBEF5827FC5
:103D5000F346D5D890F809C00CF03F02282A09D0C4
:103D6000292AA0D1FB58C4F8023012226270062121
:103D70000223C1E7C168134811237246637008F03B
:103D8000FDFB104B03EB0B01AFE7C368132262701E
:103D90001B78A37003210123AEE7C1680A4884F8A9
:103DA00002E014237246637008F0E8FB064B03EB55
:103DB0000B019AE7601E00205C1E0020302C0020C2
:103DC000342C0020621E0020631E00208C1F002067
:103DD0005655555530B5214B214A03F5027103F56F
:103DE0008270D16203F58261D360D061D16403F245
:103DF000145003F5C36103F5437403F21C7383B0DD
:103E0000D065D166D367D46305F07AFA694600209D
:103E100005F022FB134B1860D8B100221146104662
:103E2000FDF7E2FD104C114B114D1860FFF752FEEB
:103E30002046FEF79DFE4FF4806003226061E26041
:103E40000C490D48256100232246FEF79FFE03B072
:103E500030BD0A48FEF7B6FFDFE700BF0C240020A4
:103E6000342C00205C1E0020E81F00208C1F002046
:103E70000C2000208D3C0000901F002038D3000053
:103E8000F8B5437A03F03F03272B04460DD8242BC3
:103E90005FD8594A43791178584A61F3C71343717F
:103EA0001368C380204601F071FBA388C3F30E039F
:103EB000B3F5827F00D9F8BD514A5249BFF35B8FF9
:103EC0001368BFF35B8FBFF35B8F0968BFF35B8F32
:103ED0005B1A03F00703072BEDD0BFF35B8F52E8AB
:103EE000003F591C42E800100028F8D1BFF35B8F57
:103EF000454FA288E16803F0070307EB0315C2F3FF
:103F00000E02E8681E0108F039FBA288AB883F4921
:103F100062F30E03AB8063796A79DB0963F3C7123E
:103F20006A71E388EB8094F908302B722368BB51E7
:103F30006B7A627A0868083562F305036B70637AFE
:103F40006A789B0963F387126A70BDE8F840FDF751
:103F5000A7BE2F4B90F9082093F900309A42AADBB4
:103F60002C4B1A781AB92C4B1B78002B9AD0A388AB
:103F7000C3F30E03012B9ED9E068057805F00F010D
:103F8000072998D801A656F821F000BFAD3F0000E0
:103F9000AD3F0000AD3F0000D93F0000AD3F000045
:103FA000D93F0000AD3F0000A53E0000072B82D99D
:103FB000831CC5F38015B2B9174A1278002A3FF462
:103FC00071AF002D3FF477AF1448194602F0EAFABA
:103FD00000287FF467AFF8BD0D2B7FF66CAF00F1C2
:103FE0000803ED09E7E70E490622184608F0B6FA7D
:103FF00000283FF457AFF8BD312D0020F02C0020F1
:104000002C2C0020302C0020342C00208C1F002071
:1040100040040020581E0020591E0020B42C00200F
:10402000C42C0020014B1870704700BF40040020D2
:10403000034621B1054A08681060898891800448C8
:10404000044A037000211170704700BFC42C002087
:10405000581E0020591E002010B4844631B10B4672
:1040600008689A68064C4968DB680FC40549064B26
:104070005DF8044B81F800C000221A70704700BF41
:10408000B42C0020591E0020581E002008B50D4BEE
:104090001A783AB90C4A127812B159B9084608BDD3
:1040A000012008BD0949062208F058FAB0FA80F04C
:1040B000400908BD034619460548BDE8084002F01E
:1040C00071BA00BF581E0020591E0020C42C0020C9
:1040D000B42C002000680B68C01A704710B586B079
:1040E0000D49BDF80C2003464FF0010C6CF30E0295
:1040F0000B708DF807304FF428510DF107030024A1
:1041000002A80294ADF810100593ADF80C20FFF74B
:10411000B7FE06B010BD00BF713200202A4B1B78DD
:1041200033B12A4B2A49D3E900230868FFF73CBB87
:1041300030B5264AD2E900408BB09E46C3F1200C30
:10414000A3F1200124FA03F200FA0CFC20FA01F199
:1041500042EA0C020A43D507D9B203F1010308D59C
:104160000EF128026A440EF1010E02F8281C5FFAD3
:104170008EFE252BE2D1174D0023C3F1200CA3F1B5
:10418000200124FA03F200FA0CFC20FA01F142EAC1
:104190000C020A43D207D9B20FD4B1FBFEF20EFBD8
:1041A00012110AAA52FA81F1013311F8282C05F8EC
:1041B000012F252BE1D10BB030BD0133252B05F8A4
:1041C000011FDAD10BB030BD76320020183200204A
:1041D00044040020532D00202DE9F0411546304ABB
:1041E000304C98462B6813606A7D6B6807462E48F2
:1041F00002F01F0202702D480E4623F07F4101603D
:104200002B482C49027000220A7000200021C4E9CA
:104210000001637D286920602A7D227143F002033A
:104220006375FFF77BFFB8F1000F35D0BB1E43F677
:10423000982142F21072012B88BF1146627D6B8972
:10424000B5F808C0277522F0050241F2883042F027
:104250000502A6F5FA6600FB03F3627500FB0C6627
:10426000AA8962821E440E441349EA890E60134DE6
:10427000A36049F6404103EB430301FB02F206EB66
:1042800043030F480F49E2602B600022BDE8F04174
:1042900002600A60FFF7D4B941F28831CEE700BF6F
:1042A0004404002018320020332D0020242D00204B
:1042B000282D0020502D00207C2D00201C2D0020BA
:1042C000F02C0020942D00202DE9F04F0C4689B0F1
:1042D000054603F0D3FE002C78D0974C974AE3684C
:1042E0001844637D10609E071AD5002D79D0944F35
:1042F000DFF89082934B1B78002B00F0CA80924B22
:104300001A78002A00F0B480627DD00740F1B080B6
:104310008E4AA368116838688D4E0B44136065E0BF
:10432000002D5ED08B4B1B78002B40F0C280DFF855
:104330005482894A98F80030814FD05C824BDFF874
:1043400028A21978A0F120060123C0F1200203FA67
:1043500006F623FA02F2164303FA00F9DAE900320C
:1043600031B103EA090002EA0601014300F0A0812D
:1043700049EA030316431F2E08BFB3F1FF3FCAE902
:104380000036B7D1637D6268039243F00203637520
:1043900023689DF80C200293CDF80130BDF814304D
:1043A0008DF80520062262F30E03ADF814300123C8
:1043B0008DF800300023049304A84FF42C53CDF85B
:1043C0001CD0ADF81830FFF75BFD93E75B4B1B6823
:1043D000181AB0F1004F73D8574C637D9E0784D4F0
:1043E0009EE7574FDFF89C813868594E5B4B98F831
:1043F00000201B781A445A4B83FB021313445B11B1
:1044000003EBC301013003EB81033860D31A4A493F
:1044100088F8003080B2FFF75FF968B92DB1637D8D
:10442000DA0702D53B689B0736D03268A36813448D
:10443000336009B0BDE8F08F3368228A41F28831D9
:1044400001FB02333360FFF769FE3E4B1B7833B14B
:10445000637DD80703D4434B4FF0FF321A60637D6E
:104460009907DBD4404B00200021C3E90001D5E7C8
:104470001B782BB9637D5907C3F3800240F1868016
:10448000637D13F00106C3F3000902D15B0700F15D
:10449000C68038682E4EA9E7344D354B04221146AC
:1044A000284608F0D3F8AA6833681344A3F5FA62E3
:1044B000BCE7234FDFF8CC803868FFF7B1F93DE760
:1044C0002C4B2D4D1B782B708DF8083002AB0793C9
:1044D000BDF814300494012666F30E034FF42857F8
:1044E00004A8ADF81430ADF81870FFF7C9FC2B78AC
:1044F000224A23491160042B9BD0DFF88C8098F866
:104500000030002B95D0BDF814302E7002AA66F34F
:104510000E0304A804948DF80860ADF81870079293
:10452000ADF81430FFF7ACFC88F8006009B0BDE8C6
:10453000F04F02F02DB800BF183200201C2D0020D3
:10454000F02C002049040020302D0020482D0020B0
:104550007C2D002076320020542D0020332D0020A9
:10456000A7C867DD442D0020E82C0020D02C0020B7
:10457000D540000070320020713200204404002039
:10458000D6BE898E282D0020CA2C002013F00109E8
:1045900040F0F6808F4ADFF85CA216888E4A3868B1
:1045A0001188BAF80020861B9142B6B200F08D80C7
:1045B00043F004036375BDF81430CDF810904FF04C
:1045C000030A8A1A6AF30E0392B28DF80920ADF835
:1045D0001430120A02AB4FF42C5B04A807938DF839
:1045E0000A208DF808A0ADF818B0FFF749FC02AB1F
:1045F0000793BDF814308DF809606AF30E03360A8C
:10460000ADF8143004A80423CDF81090ADF818B01C
:104610008DF80A608DF80830FFF732FC39E76F4BF0
:104620001B68033B05333FF634AFDFF8CCA16C4B7E
:1046300050460422032108F009F8DAF80430694AE8
:10464000BDF81410049603F6C413A2FB0323627D85
:104650008DF8089042F001021B0B627541F288321E
:1046600003FB02F28DF80930C3F307238DF80A30FB
:10467000032363F30E014FF42C5304A8ADF8183054
:1046800002ABA260ADF814100793FFF7F9FB564B8D
:10469000564A1968A368564E38684FF4FA6A4FF4C0
:1046A000FA6B0B44C2E900ABC2E902AB33609DE692
:1046B000236823EA09032360636823EA060363602F
:1046C000FFF72CFDDAE9003252E60C2E7FF6E2AE5F
:1046D00023F0050343F005036375434BBDF8140055
:1046E0001B68434E8DF80A9041F2883201FB02F2BA
:1046F0004FF0030B13446BF30E00A260ADF81400EF
:104700004FF42C52336004A802ABADF81820079385
:10471000CDF81090ADF808B0FFF7B2FBBDF814105B
:104720008DF80A906BF30E014FF42C5202ABADF8EA
:10473000141004A80421ADF818200793ADF8081050
:10474000CDF81090FFF79CFB02AB0793BAF800304E
:104750008DF809301B0A8DF80A30BDF814308DF839
:1047600008904FF42C5204A86BF30E03ADF81820F8
:10477000CDF81090ADF81430FFF782FB386835E6BD
:1047800043F00403049263751A4A134B12881B8882
:10479000174E9B1ABDF81420032161F30E02ADF8E9
:1047A000142032688DF808109BB241F2883101FB69
:1047B00003228DF809301B0A8DF80A304FF42C5370
:1047C000ADF8183004A802AB32600793FFF758FB2E
:1047D00038680BE6202D002074320020442D002084
:1047E000D54000005917B7D1482D0020D02C00200B
:1047F0007C2D0020982D0020382D00202DE9F0433D
:10480000A74B1A7889B004460AB100297CD0A54D7F
:104810002B78032B04D1A44A137883F0010313707F
:10482000A388C3F30E03012B22D9E3681A7893F807
:10483000018093F8029002F00307D20609D49A4B44
:104840009A491A78012303FA02F20B7823EA020349
:104850000B70974E33784BB1964B1B7833B1934B1B
:104860001B781BB92B78032B00F08580032F02D017
:1048700009B0BDE8F083A388C3F30E03023B4345B0
:10488000F6D1FEF76DFF8C4F3378002818BF07462E
:10489000002B40F06381B9F1180FE9D801A353F858
:1048A00029F000BFED4A0000574A0000834900008C
:1048B00071480000714800007D4900007148000007
:1048C0007148000071480000714800007148000004
:1048D00071480000714800007148000071480000F4
:1048E00071480000714800007148000071480000E4
:1048F00071480000714800007148000071480000D4
:10490000714800000B4A000019706B4E694B6B4AEE
:104910006B491F781268B3680568D1F800C09A1A0D
:1049200002EB8502A8000CF10103664D03F00303BE
:1049300045F82C200B60644A6FB1717D13684E07F7
:10494000A0EB030309D4614D614903F6C413A5FB31
:1049500003531B0B0B80106059E7CD07FBD44907AD
:10496000F9D55C4D296802299CBF5B4E46F8213081
:1049700001312960EFE701F00BFE77E70123337087
:1049800076E7B8F1020F7FF473AF544B1B782B70AE
:104990008DF80730BDF80C30012464F30E034FF09E
:1049A00000084FF428570DF1070602A8ADF80C30A7
:1049B000CDF80880ADF810700596FFF761FA2B78F6
:1049C000474A48491160042B3FF452AFDFF8189171
:1049D00099F80030002B3FF44BAFBDF80C302C7031
:1049E00064F30E0302A8CDF808808DF80740ADF8F7
:1049F00010700596ADF80C30FFF742FA89F80040C8
:104A000009B0BDE8F04301F0C3BDB8F1050F7FF474
:104A10002FAF3E460FCE02AD0FC596E8030085E8E6
:104A20000300E4684FF0000CADF818C0E37803F021
:104A30000703022B00F05181042B00F04A81012B67
:104A400000F044813B7D8DF81C30B4F8050002A9CC
:104A5000FEF708FE0CE7B8F1080F7FF409AF0FCF9F
:104A600002AD0FC597E803000022002385E803008C
:104A7000CDE90223E4689DF81D30D4F803000290CC
:104A8000E2798DF80C20002643F002038DF81D30EA
:104A9000ADF81860208902A9FEF7E4FDE8E600BF42
:104AA000302D002071320020312D0020792D002082
:104AB000502D002049040020183200207C2D0020B9
:104AC000E02C0020D02C0020482D00205917B7D111
:104AD00074320020442D0020382D00207032002038
:104AE00044040020D6BE898ECA2C0020B8F10C0FD9
:104AF0007FF4BEAE0FCF02AD0FC597E8030085E887
:104B00000300E4689DF81D30A288ADF8182023F05A
:104B1000050343F00503E2888DF81D30E388ADF806
:104B20001A306389A08941F2883C49F6404606FB69
:104B300003F30CFB02F202A9CDE90423FEF792FD78
:104B4000684B1B68002B3FF493AE67490A68013B32
:104B500093427FF68DAE01320A6089E6B8F1090F03
:104B600047D0B8F10C0F62D0B8F1100F7FF480AECF
:104B70005C4B1E68002E00F081805B4A1368013E8A
:104B80009E4202D9591C11601E46584BE28833F8E8
:104B900026E003EB8601BC464E8841F2883316447A
:104BA00003FB0EFEBCE80F0002AD0FC59CE803003E
:104BB00085E803009DF81D30CDF810E023F00703D1
:104BC0004FF0000843F00303B0B202A9ADF818801B
:104BD0008DF81D30FEF746FDBB6845484549464AFD
:104BE00003F6C413A0FB03031B0BE08808801380AB
:104BF0003EE6424B1D78002D7FF43AAE404A3B7DA5
:104C000092F800C063453FF433AE0FCF02AE0FC63B
:104C1000E48897E80300073486E8030002A9A0B2FD
:104C2000ADF818508DF81CC0FEF71CFD20E62B785F
:104C3000062B3FF41DAE7B7DDB077FF519AE0FCF52
:104C400002AD0FC597E8030085E80300E4889DF8EE
:104C50001D30093423F007034FF4202C4FF0FF36AA
:104C60001F2743F0050302A9A0B2CDE90267CDF8E2
:104C700018C08DF81D30FEF7F5FCF9E52B78062BF2
:104C8000AAD0204B1B78002BA6D0BC46BCE80F0056
:104C900002AD0FC59CE8030085E80300B4F806E008
:104CA0009DF81D30DFF86080ADF818600EF1060E3B
:104CB00023F0070343F002031FFA8EF002A9CDF898
:104CC00010808DF81D30FEF7CDFC85E78DF81CC0F7
:104CD000BBE602238DF81C30B7E601238DF81C30AB
:104CE000B3E600BF802D0020942D0020F42C00207E
:104CF0005917B7D1202D0020982D0020342D0020E9
:104D00004A04002049040020804F1200F0B58FB003
:104D100004460F4603F0B2F9294B1B7880080022A5
:104D200000908DF80820002B44D1264B264A1B7892
:104D3000D35C264A2468127D03F03F0343EA8213C2
:104D400004AA8DF809300392002C31D087B3204E8D
:104D5000002501E0AF422BD0E3885A1E262A23D833
:104D6000A1680A7802F00302032A1DD1CA5A02B9C7
:104D70003288BDF80400ADF80620013363F30E005D
:104D8000ADF80400039B0A781A70E388039A013B8C
:104D900053700398A16842780131023007F0EEFBAE
:104DA00001216846FFF72AFD24680135002CD1D186
:104DB0000FB0F0BD064B1868FEF732FD0346B8E7AA
:104DC00076320020282D0020542D0020183200209B
:104DD000F02C00202DE9F04F2DED028B97B000F064
:104DE000ADFF02F093F8DFF80C93AA4CDFF80883CC
:104DF000DFF8DCA20DF1480B10AF2378002589F80D
:104E0000005023BB98F80030002B00F0AA8003F07C
:104E100035F95A4639460546FEF726F9451BB5F5DC
:104E2000FA6FEAD49DF84010FF2900F0F3809DF856
:104E30004830994ACDE9000A1846984B1B6800F0A3
:104E4000ADFF2378002589F80050002BDAD02378B5
:104E5000012B2DD02378022B00F093802378042B94
:104E600000F013812378032B00F0DF802378052BDB
:104E700000F083812378062B00F040812378072BF4
:104E800000F0BA812378082B00F0B2822378092B36
:104E9000B3D1834BCDF804A01B780093814B1978D4
:104EA000814B4FF0FF321878804B01F073F8A4E784
:104EB0007F4B1D7098F80030002B40F0E28003F02B
:104EC000DDF800F5370000F5D850CDE9000A794B40
:104ED000714A2521002000F061FF2378012B8CD13D
:104EE000734B1B7823B998F80030002B40F04182B7
:104EF0006F4B1B78002B80D06F4B704A1B68159747
:104F000036335B0193609B08CDF84130BDF84C30DF
:104F1000052262F30E030225ADF84C3000265846F8
:104F20004FF42C53ADF850308DF840501296FEF7E8
:104F3000A7FFBDF84C301296012262F30E03ADF8C4
:104F40004C305D4B5E4A1B68136058464FF4285343
:104F500025708DF840501597ADF85030FEF790FF52
:104F60004BE74FF0FF330093564A4C4B4D494E48A8
:104F7000CDF804A01B6812680978007800F00EFFD5
:104F80003BE74B4B1D70504B1D7098F80030002BC9
:104F900037D003F073F85A4639460546FEF764F8F1
:104FA000451BB5F5FA6F06463FF527AF9DF8401053
:104FB000FF2920D0CDE9000A3E4B9DF84800364A33
:104FC00000F0ECFE2378022B7FF417AF384B1B78F0
:104FD000002B3FF412AF384B1A68394B1B689A42CA
:104FE0003FF40BAF0120FFF779F8384A0123137023
:104FF00001F0CEFA01E703F041F8301A8008FEF71D
:1050000019FD2E4B324A98684FF4FA51C83800F017
:1050100017FFD7E7234B2B4A1978234B12681B78CD
:105020008DF840108DF8483004E72A4B1B78002B90
:1050300040F01581284B294A1B78D15C1F4A284D26
:10504000537D1E485E0758BF9368264ACDF804A0DA
:10505000126848BF002313440093234B007D4FF098
:1050600001021A70214A1368164A032612682E702C
:1050700000F094FE1C4B197801204140FFF724F901
:10508000BBE61B48FEF7D6FC19E76420FDF768FA7B
:10509000B3E600BF71320020D6BE898E50040020D6
:1050A0008A2D00205404002072320020842D00201C
:1050B000322D0020555555004C2D0020183200206F
:1050C0002C2D002044040020932D0020CA2C002009
:1050D000813E000076320020282D0020542D002033
:1050E000792D00207C2D0020302D0020242D002043
:1050F000C0C62D00312D0020E42C0020A44B0D95BE
:105100001B78002B40F02E81A24BA34A1B78D35C66
:1051100008EE103A0EA801F0A3FFA04BA04EA14844
:105120001A68B368757D00210170012189F80010AB
:1051300002F5FA61C91A0EA8099103C815F0040511
:1051400087E8030000F0AD800DAB04930EABCDE912
:1051500001A300920999944B944A03911B68126829
:10516000307D18EE101A00F083FF03462278062ADD
:105170007BD00D9801F09AFF3FE60DABCDE90573AA
:105180008B4B04938B4B02938B4B00938B4B8C4A32
:105190001B7803938B4B1B78019311788A4A8B4BB6
:1051A000107801264FF0FF3289F8006001F098F87E
:1051B0002378052B7FF421AE0028C0F27281744A57
:1051C000CCBF01230023012813709DF83400784AD6
:1051D000D4BF002301232946FEF7FEFF704B109A2F
:1051E0009B6813446D4AA3F5FA63136001F06CF8F1
:1051F0000620FEF773FF00E6694A537D5907644BAA
:1052000058BF95681B78002B40F01381614B624AB0
:105210001B78D65C384601F023FFCDE901A70EAB21
:1052200004935E4B5F481B68604A1D440023039350
:1052300000950121017097E803005B4B12681B6821
:105240008BE8030056483146007D00F09FFF23782D
:10525000072B064662D00E9801F028FFCDE55C4B87
:105260001868FEF7DDFA0146E8E60D99089338461E
:10527000FFF74CFD0D9801F019FF484B1D6802F037
:10528000FDFE544A089B281A6FF4FA6541199142B1
:1052900040F2D580B3FA83F149090020FFF714F8F2
:1052A000ABE54D4A0B9500200021A2FB0323CDE97D
:1052B0000E01C3F30F3318EE101A0A93284641F279
:1052C0008833AEB203FB06F62378062B40F0E78066
:1052D0000DAB04930EABCDE901A3304B334A1B68F1
:1052E0002F48089133440093099BF31803932E4BE6
:1052F00012681B68007D00F0BBFE0899002800F0D2
:10530000A5800A9A0135ABB293420B93D7D90346D5
:1053100032480893FEF7E0FA089B27E70E995846B3
:10532000FFF7F4FC0E9801F0C1FE1C4B1D6802F063
:10533000A5FE284A2D1A6FF4FA63E91891420AD89B
:10534000274B1A7812B1274B1A7822B92820B5FBBF
:10535000F0F0FDF705F9B6FA86F149090120FEF7EC
:10536000B3FF4AE51A4B1868FEF75AFA08EE100A1E
:10537000D0E60B4A1C484FF42C6393601B4A202351
:105380001360FEF7A9FA0220FEF7A8FE35E500BF7C
:1053900076320020282D0020542D00207C2D002066
:1053A00018320020302D0020242D0020440400203D
:1053B000042D00208C2D0020842D0020922D002013
:1053C000540400208A2D002072320020813E00000B
:1053D000F02C00202DF8FF7F5917B7D18CD3000097
:1053E000502D00204904002064D300002C2D002003
:1053F000494B1E8802F042FE484B0193484B494AF4
:105400001B780293484B49491B7800931278484B0C
:105410000546484801F018F82378082B7FF4EDACD6
:1054200005F007052E44642006FB00F0FDF798F810
:10543000E3E4414B1868FEF7F3F90646EAE6282252
:10544000B0FBF2F0FDF78CF8089B23E70CAB15934B
:105450003A4B8DF831505A7D0B9D129042F0040268
:105460005A75BDF84C200890032161F30E02ADF887
:105470004C202A0A8DF8322058464FF42C52ADF8B1
:1054800050208DF83010FEF7FBFC2D4B1A6832448B
:105490001A600A9BAB42089BBFF468AE38E703462C
:1054A00064E60EAB1593BDF84C30129566F30E030F
:1054B000ADF84C30234B1B7823708DF838305846AC
:1054C0004FF42853ADF85030FEF7DAFC1E4B1F4A5C
:1054D0001A602378042B3FF490AC1D4B1B78002BF3
:1054E0003FF48BAC0EAB1593BDF84C30267066F3D1
:1054F0000E03ADF84C300023129358464FF4285356
:10550000ADF850308DF83860FEF7BAFC104B1E70C5
:1055100001F03EF871E400BF4C040020503200203E
:105520006F3200208A2D00204F320020842D002071
:1055300030320020813E0000F02C00201832002084
:105540007C2D00207032002044040020D6BE898EBD
:10555000CA2C002070B5094C094D2046FDF708FB08
:105560004FF4806003226061E260256122460549B4
:105570000548BDE870400023FDF708BBF42D00206E
:10558000182E0020D54D00009C2D00202DE9F04361
:10559000B24D2A78032A89B0044603D0D3B2063B21
:1055A000012B05D8637A03F03F03242B40F2C88017
:1055B000A388C3F30E03012B18D9E2685778591E4C
:1055C000B94213DD92F8008008F00F06022E10D9C0
:1055D000062E0ED0032E14D1637A03F03F03252B41
:1055E00000F0BE8018F00E0F00F0CA8009B0BDE8D0
:1055F000F083627A02F03F02252A00F0A880032E91
:10560000F0D018F00E0F00F0BB80072E40F0D880CD
:10561000934B1B78002BE9D02B78012BE6D0002F81
:10562000E4D0E268967806F03F018F42DED916F0AA
:105630003E0FDBD0D07810F0010800F03A8102F183
:10564000040810234FF00A0C10F0020F08BF634645
:1056500010F0040F1CBF0133DBB210F0080F1CBFA9
:105660000233DBB210F0100905D003F1030C02EB9A
:1056700003095FFA8CF310F0200F1CBF1233DBB26A
:10568000400644BF0133DBB2023B8B42D8BF4B1C08
:105690009F42ABDBB8F1000F0BD011784046C1F34D
:1056A0008011FEF7F3FC0028A0D0B609012E00F00F
:1056B000CE80B9F1000F99D02B78092B96D099F8AC
:1056C000022099F8005099F8013024685F2A4FEAC7
:1056D00052114FEA022202F4F85288BF012115F05C
:1056E000800F134414BF4FF496721E2202FB03F383
:1056F000B3F5167FACBFA3F5167300231C4405F069
:105700003F00A400002900F0D880564A42F6A003CA
:10571000012918BF13462246FDF7BEFB02F0AEFC7E
:10572000201AB0F1004F00F2CB8044F61F6398427C
:1057300000F2C880800809B0BDE8F043FEF77AB9EE
:105740000021204609B0BDE8F043FFF757B82A789A
:10575000022A1DD02A78012A1AD0032E7FF451AFD5
:105760002B78022B7FF43EAF3F4D2B78002B7FF43C
:1057700039AF4FF4C870FEF719F901232B7031E7E8
:10578000E06810F8021B09B0BDE8F043FDF740BB2C
:10579000364A01211170364A13602A788A4253D062
:1057A0002268920002EB431303F6481902F066FCEC
:1057B000B9EB000054BF80080020FEF7D7F809E7D6
:1057C000052E7FF413AF2B4B1B78002B3FF40EAF4D
:1057D000222F7FF40BAF607A297800F03F02242A51
:1057E0008CBF0023012308294FEA68184DD0224EB0
:1057F000242A337002D918F0010F4CD1E2682168D5
:105800000E3289008009FEF7E7FC2B78082B35D093
:10581000BDF814300121032261F30E032A708DF8C4
:105820000F204FF428510DF10F02002404A8049416
:10583000ADF818100792ADF81430FEF721FB09B04F
:10584000BDE8F04300F0A4BE00F0A2FEC2E6E368AB
:1058500040461978FDF7DCFA2BE700BF71320020D3
:10586000E42C0020E0410100932D0020322D002087
:105870004C2D0020480400207632002000F024FD4A
:10588000BDF8143001210722C6E7104A08F00108CC
:1058900082F80080B2E7E06801930830FDF7D4FA9F
:1058A000FF28019B03D0820644BF01223270607A38
:1058B000A4E70A234FF0040CC6E64FF461532AE72D
:1058C000002037E741F2883035E700BF763200200C
:1058D000272800D9704730B50D4614490A7014497D
:1058E00087B008701348BDF80C20134923F07F439C
:1058F0000360012363F30E024FF428530024ADF834
:10590000103002A80DF107030593ADF80C200C70C0
:105910008DF807400294FEF7B3FA084A084B156069
:105920001C7007B0BDE8304000F032BE723200207B
:105930005404002050040020713200204404002050
:10594000CA2C0020014B1870704700BF480400208B
:1059500010B586B00E48BDF80C300124002264F367
:105960000E034FF428510470029202A80DF10702B1
:10597000ADF80C308DF80740ADF810100592FEF729
:105980007FFA044B1C7006B0BDE8104000F000BE6A
:1059900071320020CA2C00200028034B14BF0422BF
:1059A00000221A70704700BF70320020024B18703E
:1059B00000B17047FDF71CBCE42C002000B585B099
:1059C00002F05CFB002283084FF4245168460093E8
:1059D000ADF808100392ADF80420FEF751FA05B0B7
:1059E0005DF804FB064B8446086810B41860054C4B
:1059F0008A889A8084F800C05DF8044B704700BF25
:105A0000842D00208A2D002030B51C4B1C4C0546EF
:105A10000868186094468A889A801A4BDCF800005F
:105A2000DCF80410DCF808201D70DCF80C300FC422
:105A300087B0DCF810001449BDF80C302060052256
:105A40000A700120BCF81410A18060F30E034FF41B
:105A500028518DF8072002A80DF107020025ADF8A6
:105A600010100592ADF80C300295FEF709FA00F01F
:105A70008FFD07B0BDE8304001F048BA8C2D002002
:105A8000042D0020922D00207132002070B58C462C
:105A90001C46184E184B86F800C086B001461546C5
:105AA00016481C70624606F069FD224629461448D5
:105AB00006F064FDBDF80C3012490822012060F3A5
:105AC0000E030A700DEB02004FF428518DF80720E9
:105AD00000240DF10702ADF810100592ADF80C305E
