:100000000040012019CF000039FB021039FB02101B
:1000100039FB021039FB021039FB021039FB0210C8
:1000200039FB021039FB021039FB021039FB0210B8
:1000300039FB021039FB021011FB02100846704711
:1000400070470000002206F06FBAF2060001F315B7
:10005000010001F00207D6BE898E2B52FF1983FFE3
:10006000010CF1EF019701280970010100300E9099
:100070000203FF18641B2002785634120F33BAAB08
:1000800015B58FA10D43C5A70D6345A815C406017D
:1000900000B0050020C5A7716110E118A101F50BA2
:1000A000F44301031DC3283C251001252627BC303D
:1000B000040000500300201A5002250000700C625A
:1000C0005414F11601100349C500006704126904B5
:1000D000129D04100331C400004F04125104128712
:1000E0000410032DC800003F04124104125B0410E9
:1000F000032D9F0000A70412A90410070FA0000001
:1001000021B700003304123504436FB77A83B9C1B5
:10011000821007D388F30083880F000B1312FF01AE
:100120009302089E2201FE10011772FCB4B203185C
:100130006765091AA3012C18A3001EDCA1682160C1
:10014000216C201E2460202E630228012853000009
:10015000A38408005B00A31E8386050005400140C0
:10016000303C183884800E2053C003A302530198FA
:1001700060F825A0602600142004F100A460007D32
:1001800010400287340101144003E6069C601B24E2
:10019000B2188C110110051772640400209004122B
:1001A000A404E3B404C8A36209B04F7801BC0330CF
:1001B00001555555FAB229502325E50EE70405C02F
:1001C000F302180001317EB2054090018CD1383C19
:1001D000D00307088080FE3AFE0EFF110412A840EB
:1001E00092A8443BA1CD671D480432141312C81CC9
:1001F000210452D00483C0105055AE1300EC18F205
:1002000006EC1CF004050806002008061C12241841
:100210002104522C04523404D003C011000008B74A
:10022000211012541C210443A410046301004C410A
:10023000013001A3DF0266127C242104528404529F
:100240008C04529404529C0452A40470013DC502D3
:100250009E120509ED4D0343FC061312D408210438
:1002600052DC0452E40452EC0452F40452FC044301
:10027000040704520C04830000B06204641602EE0A
:10028000424A1C8339EC886101ED2C041258482144
:10029000045260045268045270045278045280047C
:1002A00021781A4F34F001FFEF180001F11401A575
:1002B00080F60E01431003514F0000B104431B4F61
:1002C000298C01FA00067E0300012502015200017B
:1002D0001007C0020020A40600200111C301000184
:1002E000125C182104D2000153FF7F1260016CDC04
:1002F000021C12102852030DF004015BA80000A19B
:10030000A850210152D450A11CA10CF30158077030
:1003100052881420023411002004523C0422081593
:100320008253301003EE5200200C10F3001053449F
:1003300013200165F3010C515C2500000200100040
:0D034000000002C013000000028010002029
:1010000001000000000000000000000000000000DF
:10101000FFFFFFFF7C06002004000000000000002E
:101020000000000014000000ECCD000018000000DB
:1010300040CF0000C0100000D005002004000000D8
:10104000000000000000000024000000D4CD0000DB
:101050001800000089A6000008000000B011000080
:1010600074100000C1C8021001BB021091EB021005
:10107000DDE5021081E00210B9E5021071E5021011
:1010800030000000010000000200000048CF000016
:1010900000000000FFFFFFFF5406002004000000D6
:1010A00000000000000000002800000000CC00004C
:1010B000240000001E0000001800000000000000D6
:1010C00028130000D41000009BEC021025E202104F
:1010D00005EB021025DE0210FDE10210E1E4021032
:1010E000350000003400000024002900000000004A
:1010F000B0050020FFFFFFFF9C0600200400000059
:10110000000000000000000038000000C4CA000019
:101110002800000001000000100000003C06002034
:1011200000000000B5CC000000001A001000000014
:101130000400000008CF00006A64000008000000FE
:10114000360000005C060020A406002009001D00F7
:10115000B9130000F4050020010000000000120097
:10116000FFFFFFFF8C0600200400000000000000CD
:10117000000000001000000004CE00001800000075
:101180000000000000001300FFFFFFFF0407002025
:1011900004000000000000000000000054000000F7
:1011A000C0C800003C000000000001003400000046
:1011B000041000007B5D00002F000000C5C400008B
:1011C000B0110000D811000081C70000D9DB021067
:1011D00059EC0210CDD6021085DE02104DE502104A
:1011E00029E502102F000000000016000200000098
:1011F00000000000FF7F00000C070020FFFFFFFF42
:101200008406002004000000000000000000000030
:1012100058000000FCC800003400000039FB021038
:101220000100350006000000000000002000000062
:10123000010000001BF80210280000002813000025
:101240005012000093EC02106DEB02104DEC0210F6
:1012500029E00210BDE4021099E4021034000000FD
:10126000000000002C060020040000000000000028
:101270000000000010000000C8C900002C000000A1
:10128000000000000000030000000F003C00000010
:1012900000000000000000002FF902101000000004
:1012A000080000007CCE0000FFFFFFFF9406002036
:1012B0000400000000000000000000001C0000000E
:1012C00024CC0000240000003C120000C8050020CF
:1012D0000400000000000000000000000C000000FE
:1012E000BCCD0000180000001F63000001000000DA
:1012F00000000000080000000100000004000000E1
:101300000000000000001400000000001CCE0000DF
:1013100000001900000018002400000079CF000030
:101320000040000000020000041000000000100057
:1013300055F002100C000000BFA6000000000000E5
:10134000A8050020040000000000000000000000CC
:101350002000000098C900003000000034CE0000DA
:10136000010000003DA80000275D00000000000013
:101370000000170000020000300000000000230001
:101380000000150001000000C0110000340600201C
:101390000400000000000000000000002000000029
:1013A000DCCB0000240000004CCE00003C060020F6
:0E13B0002000000048CC00007047808A704783
:1013C00001A60000C7A80000CBA80000CFA800001D
:1013D000D3A80000D7A80000DBA80000A9C3000024
:1013E00031C900007DC8000065C9000065CD00005E
:1013F00021CA0000A1CD0000F5C9000065CE0000A3
:10140000F5CE000091AC000070B504460D4603F027
:1014100062F92968002631B10A69A24208BF0E4666
:1014200009680029F8D103F077F9304670BDDFF87C
:10143000DC1691F833000022030604D4582010FB78
:1014400002F28818704791F88B0001220306F5D547
:1014500091F8E30002220306F0D591F83B01032244
:101460000306EBD591F8930104220306E6D591F823
:10147000EB0105220306E1D591F84302062203069B
:10148000DCD591F89B0207220306D7D500207047D0
:101490002DE97043064614461D4603F01CF96EB153
:1014A000D6E90A2322432B43C6E90A23D6E9088951
:1014B00048EA040449EA0505C6E90845BDE8704361
:1014C00003F02AB930B581B004460D4602F024FE7F
:1014D000A04231BF241A641E241A641CA40805F516
:1014E0007A70A04238BFB4F1405F06D2641B012C71
:1014F00098BF0124204601B030BD002001B030BDAE
:10150000F0B5DFF8083604460025D3F8500301296A
:1015100081B022D100E00068002844D0C668377B43
:1015200007F00F07022F18D0006800283BD0C668CC
:10153000377B07F00F07022F0FD0006898B3C668FB
:10154000377B07F00F07022F07D0006858B3C66833
:10155000377B07F00F07022FDDD120B3012502B141
:101560001060C268167B06F00F06022E1BD10269BE
:10157000012903D1D168128D891807E01169D68A33
:101580008E1993F82213192212FB0161406BFFF7A9
:1015900099FF206003F005F92168B1FBF0F02060AD
:1015A00001B02846F0BD0020206001B02846F0BD03
:1015B000F0B581B0044603F08EF80546002C1CBF40
:1015C000A07A002833D0DFF8483594F909001E6866
:1015D0000122F70702FA00F10ED5DFF838351B6853
:1015E0001E0609D5DFF830355E68113002FA00F0CA
:1015F000C04306405E6018600020A0722072206028
:101600006060C4E90400DFF80435A06194F90900C2
:1016100093F820638240324393F8220383F8202317
:1016200010B1401E83F82203C8B200F062F92846C8
:1016300001B0BDE8F04003F06FB800002DE9F047BD
:1016400000261124DFF8D054DFF8C0944FF00108D1
:10165000F0B2032848DA09EB401000F53077B97A88
:10166000012941D197F90900113008FA00F0C1436E
:1016700029606A681043686097F9090008FA00FA5F
:1016800003F029F899F894134AEA010189F89413B0
:1016900003F042F899F88403022817D107F11000EB
:1016A00003F0A2F800F0FF0001280FD1B86948B19B
:1016B00099F88413022909D103F096F800F0FF008D
:1016C000012803D10220B8720EE000BF99F821036F
:1016D00097F9091004FA01F1084389F82103002160
:1016E00009F2044003F05AF9761C032EB0D3BDE88A
:1016F000F08730B5042881B020D1DFF8104404F21F
:10170000544003F053F8C8B103F04BF8054604F217
:10171000544003F049F84543B5F5967F0ED204F2E4
:10172000544003F056F8052003F086FA012084F8AF
:101730009103042104F56D7003F030F9002001B02D
:1017400030BD70B5044602F0C6FFDFF8C063054641
:1017500096F84C0320EA040486F84C430024D6F89B
:10176000280320B1B03003F021F800B10124D6F8ED
:101770002C0320B1B03003F019F8044319D196F8C6
:101780004C03002808BF002C13D1D6F8480380B1C1
:1017900090F824108A070CD5046A284602F0BCFF92
:1017A000D6F8480300220221A0470020C6F84803CB
:1017B00070BD2846BDE8704002F0AEBFF0B400290D
:1017C0000CBF01230023002A0CBF0125002500289F
:1017D00039D02C0004BF90F84440002C33D00029AD
:1017E0001CBF91F84440002C12D0446B0E6C07696A
:1017F0000969A408A4EB96040026B94218BFFE6844
:10180000A41B04F18054B4F1805F88BF012301D888
:10181000190018D0BAB1D1680C7B04F00F04022C67
:1018200011D1516B046C126900698908A1EB940114
:101830000024904218BFD468091B01F18051B1F116
:10184000805F88BF012503EA0500F0BC7047F0B552
:1018500081B01E466FF002078DF8007005463468AF
:101860002246FFF7ABFF10B101208DF800009DF973
:101870000000B84201BFE968087B00F00F000228B1
:101880000CD100E024684CB1226821462846FFF7BD
:1018900095FF0028F6D002208DF800009DF9001079
:1018A000B94204D1E86B10B104218DF800109DF904
:1018B0000070012F06D12946304603F07EFC3846E1
:1018C00001B0F0BD022F09D12268002A2946304616
:1018D00008D003F04AFC384601B0F0BD042F03D114
:1018E0002946304603F054FC384601B0F0BD0020D4
:1018F000704730B581B0044602F0EDFE05468348DE
:1019000090F8941321EA040480F8944390F8942307
:10191000110704D4082100F56D7003F03FF8284644
:1019200001B0BDE8304002F0F7BE2DE9F04FDFF81E
:10193000ECAB81B09AF88413022905D101B0BDE85F
:10194000F04F192002F0CBBE9AF8840301281CBF87
:101950009AF8840304287BD002F0BDFE0090002694
:10196000DAF850030024C0B1C1680A7B012402F0F8
:101970000F02022A11D101690A69C98A9AF8223331
:10198000406B5118192212FB0311FFF79BFD05460E
:1019900002F007FFB5FBF0F800E0B04600254FF07D
:1019A000FF390027F8B203281EDA0AEB401101F5CF
:1019B0003072907AC0B1107A012502281DD0DAF871
:1019C00098030169C08A9AF822330918192010FB7C
:1019D00003115069FFF776FD834602F0E2FEBBFB80
:1019E000F0F0484598BF81467F1C022FDAD92C427F
:1019F00005D046464E4507D905E0B146F7E70CB19C
:101A0000464601E005B14E462C4317D066B1012E83
:101A100098BF012631460AF2544002F0D6FE0AF27F
:101A2000544002F0D4FE0DE00AF2544002F0D1FE20
:101A300004210AF56D7002F0B1FF03E00AF2544090
:101A400002F0C7FE009801B0BDE8F04F02F064BE9E
:101A500001B0BDE8F08F30B585B001460022039299
:101A600001920492029240F602058C68487D6280E1
:101A700023885B1B09D041F21E055B1B05D041F694
:101A8000E6755B1B012B0FD91CE0238A4FF6FF3252
:101A900013402382002819BF4FF60F4003402D202A
:101AA00060F3091323820DE0238B4FF6FF321340BE
:101AB0002383002819BF4FF60F4003402D2060F309
:101AC000091323830020487502AD009504AB01AAD9
:101AD00003A9204602F01BF850B1039801884FF685
:101AE000FF72914204D10299019801F082FF03E054
:101AF0000299019801F0C3FFDFF8200AD0F8AC1377
:101B000009B10198884705B030BD000028090020C0
:101B10004021084000000440081004402DE9F0472F
:101B200084B00025DFF8F4890395D8F85063029556
:101B3000002E64D0D8F86403002804BFD8F86003EE
:101B4000002840D1012585F0010903AA494602A8D1
:101B5000FFF7D6FC040054D1DFF8C4094768002F12
:101B600018BF002C00F005830298002840F0018384
:101B7000D8F8641303980190CDF8009008F55673D7
:101B8000D8F8600308F55472B847012800F0C48102
:101B9000022840F0EE82D8F86003D8F86013B0F95C
:101BA00030400D6902F097FD4FF0FF318C420190FB
:101BB00047D1D8F86003002837D00069A84234D153
:101BC000D8F8606393E0D8F860030028BBD0D8F859
:101BD0006003016930698142B5D196F83310C806B7
:101BE000B1D50125D8F86003C16848880028F9D02C
:101BF000D8F86003C16848880128F3D0A3E7022120
:101C00003FE3002DA8D102980028A5D00146022963
:101C100038BF012108F2544002F0D7FD08F25440C9
:101C200002F0D5FD04B0BDE8F087D8F8640328B110
:101C30000069A84208BFD8F8646358D0D8F8506348
:101C400055E0B8F930000021A04202BFD8F81030AA
:101C50000093AB4246D0B8F988000121A04202BFF0
:101C6000D8F868300093AB423CD0B8F9E0000221CC
:101C7000A04202BFD8F8C0300093AB4232D0B8F9CE
:101C800038010321A04202BFD8F818310093AB42BB
:101C900028D0B8F990010421A04202BFD8F87031D1
:101CA0000093AB421ED0B8F9E8010521A04202BF63
:101CB000D8F8C8310093AB4214D0B8F940020621DD
:101CC000A04202BFD8F820320093AB420AD0B8F944
:101CD00098020721A04202BFD8F878220092AA42B7
:101CE00040F01881582010FB01F108EB0106002E8E
:101CF00000F0108196F83300010640F10B81D8F80E
:101D0000600386421CBFD8F864138E426AD0D8F8AC
:101D100050434FF0000A00E02468002C00F0FA80E5
:101D2000B44211D02468002C00F0F480B4420BD0EF
:101D30002468002C00F0EE80B44205D02468002C0A
:101D400000F0E880B442E7D120692768A84234D186
:101D500002F0C1FCD4E90A2343F08051C4E90A210E
:101D60000AF1010AD4E9082343F08051C4E90821AB
:101D700002F0D2FC02F0AFFCD4E90A2343F08071F8
:101D8000C4E90A21D4E9082343F08071C4E9082199
:101D900002F0C2FC98F84C133069C8F8480341F0CF
:101DA000010188F84C1308F55470214603F01AFA23
:101DB000214608F5567003F0EBF93C00C4D1BAF1A6
:101DC000000F1FBF98F88403012898F884030428A3
:101DD00000F0A080DFF8181C08F56D7002F0DEFD41
:101DE0000198F1E1D8F8600300224FF00053FFF7AB
:101DF0004FFBD8F8640300224FF00053FFF748FB75
:101E0000DFF8940C02F0F0FCD8F8604302F063FCB9
:101E10005CB1D4E90A2343F08071C4E90A21D4E912
:101E2000082343F08071C4E9082102F075FCD8F85A
:101E3000644302F050FC5CB1D4E90A2343F08071A2
:101E4000C4E90A21D4E9082343F08071C4E90821D8
:101E500002F062FC98F84C133069D8F85063C8F867
:101E6000480341F0010188F84C13344600E024682F
:101E7000002C4FD0B4420ED02468002C4AD0B4427B
:101E800009D02468002C45D0B44204D02468002C2A
:101E900040D0B442EBD1002C3CD020692768A84246
:101EA00036D102F018FC0246D4E90A0141F0805311
:101EB000C4E90A03D4E9080141F08053C4E90803E6
:101EC000104602F029FC02F006FC0246D4E90A01A1
:101ED00041F08073C4E90A03D4E9080141F080733A
:101EE000C4E90803104602F017FC98F84C13306957
:101EF000C8F8480341F0010188F84C1308F5547004
:101F0000214603F06FF9214608F5567003F040F9B9
:101F10003C00C2D1019857E1039800B10646B6F9DA
:101F20003040356902F0D7FB4FF0FF318C42074655
:101F300014D1D8F8600328B10069A84208BFD8F8C6
:101F4000606361D0D8F8640328B10069A84208BF73
:101F5000D8F8646358D0D8F8506355E0B8F9300029
:101F60000021A04202BFD8F810300093AB4246D007
:101F7000B8F988000121A04202BFD8F86830009368
:101F8000AB423CD0B8F9E0000221A04202BFD8F831
:101F9000C0300093AB4232D0B8F938010321A042DF
:101FA00002BFD8F818310093AB4228D0B8F990019D
:101FB0000421A04202BFD8F870310093AB421ED07A
:101FC000B8F9E8010521A04202BFD8F8C831009352
:101FD000AB4214D0B8F940020621A04202BFD8F8A3
:101FE00020320093AB420AD0B8F998020721A042F0
:101FF00002BFD8F878220092AA4240F0B880582058
:1020000010FB01F108EB0106002E00F0B08096F8FD
:102010003300010640F1AB80D8F8600386421CBF54
:10202000D8F864138E4261D0D8F8504300E0246899
:10203000002C00F09C80B44211D02468002C00F0E9
:102040009680B4420BD02468002C00F09080B442FB
:1020500005D02468002C00F08A80B442E7D12069C2
:10206000A84240F0848002F036FBD4E90A2343F012
:102070008051C4E90A21D4E9082343F08051C4E91E
:10208000082102F049FB02F026FBD4E90A2343F0C1
:102090008071C4E90A21D4E9082343F08071C4E9BE
:1020A000082102F039FB98F84C133069C8F848034E
:1020B00041F0010188F84C1308F55470214603F0F3
:1020C00091F8214608F5567003F062F898F88403F9
:1020D00001281CBF98F88403042848D0DFF81019A1
:1020E00008F56D7002F05AFC38466DE0D8F86003D0
:1020F00000224FF00053FFF7CBF9D8F86403002219
:102100004FF00053FFF7C4F9DFF88C0902F06CFBC5
:10211000D8F8604302F0DFFA5CB1D4E90A2343F057
:102120008071C4E90A21D4E9082343F08071C4E92D
:10213000082102F0F1FAD8F8644302F0CCFA5CB15D
:10214000D4E90A2343F08071C4E90A21D4E90823C1
:1021500043F08071C4E9082102F0DEFA98F84C13CC
:102160003069C8F8480341F0010188F84C1338463B
:102170002AE0002D00F089803069D8F89813884251
:1021800018BF4FF480617CD1002C1CBF029800283E
:102190001FD0D8F86003002804BFD8F864030028D3
:1021A00017D102F098FA044698F8940300F0F7006B
:1021B00088F8940398F89403010704D4082108F5DB
:1021C0006D7002F0EBFB204602F0A6FA04B0BDE809
:1021D000F08702F080FA98F8941341F0080188F82B
:1021E000941302F099FA96F83300C10608F554707A
:1021F00004D502F0A6FFC8F8640303E002F0A1FFD3
:10220000C8F86003D6E90601DFF84C4BC043A06074
:10221000E268D6E906010243E260D6E90623DB4321
:1022200023606768D6E906010F436760DFF8AC7C7E
:102230007D68F4682B46180007D0387A010704D56A
:10224000D8F89803324608219847204602F0CCFA85
:10225000208840F60201401A08D041F21E01401ABF
:1022600004D041F6E671401A012808D83DB1387A09
:10227000C10704D5D8F8980322460121A8474FF09A
:10228000804108F56D7002F089FB04B0BDE8F0876D
:102290002DE9F04FDFF88492DFF8440C81B0D9F8D3
:1022A000608302F020FB0646DFF8980C046807689C
:1022B00004F02004344018BFB8F1000F07F4602781
:1022C00016D0C9F8688302F006FAD8E90A23234336
:1022D000C8E90A23D8E908AB4BEA0405C8E908A510
:1022E00002F01AFA4FF4804109F56D7002F056FBC6
:1022F0003E400DD099F8211341EA564089F8210358
:1023000001B009F20440BDE8F04F002102F046BBE5
:1023100001B0BDE8F08F2DE9F043DFF8009281B005
:1023200099F82103002400284CD099F821030026B5
:10233000C1073DD599F821031021B140084218BFCB
:10234000012402F0C8F999F821131122B2409143F7
:1023500089F8211302F0E0F9032E33DA09EB461174
:1023600001F53072907A68B392F90980DFF8D81BD2
:1023700001EB8801002C0D681668576804BF107ABD
:10238000022803D1D2E90401C30009D41046FFF7A3
:102390000FF92CB10020009000224FF0007303E0F1
:1023A000009500224FF0006341463046B84709E0EF
:1023B00099F8210301268107BCD499F8210302264C
:1023C0004107B7D499F8210338B109F2044001B0AC
:1023D000BDE8F043002102F0E1BA01B0BDE8F083AE
:1023E0002DE9F0430FF23C1285B0D2E90034CDE97B
:1023F00000344FF4804002F0F1F94FF00008F0B1E2
:10240000DFF8480BD0F813100078C1F315018008ED
:1024100041EAC0714148D0F89833986802AA01F0A7
:102420003FFC3E48DFF8B41AD0F898034B68826846
:102430001C0004D00C7AE10744BF012198476E4686
:102440004FF0020937683868002855D03868D0E95D
:10245000060102F0C3F93D680021CDE902010446FE
:1024600002F039F984467DB1D5E90A23DDE902019C
:1024700010431943C5E90A01D5E90823DDE9020142
:1024800010431943C5E90801604602F045F914F00C
:102490000A0F2AD03868DFF8AC1ADFF8B43A8A6835
:1024A000DFF8A04AD0E9060118408243A2603868EC
:1024B0002368D0E906018B4323603A68DFF81C0AE1
:1024C0004368190007D0017AC80604D5134CD4F824
:1024D0009803102198473968DFF8780A02F058FE0F
:1024E0000020386048F0020806E02CB138680B493B
:1024F000C1F8680348F48048361DB9F10109A1D13B
:102500005FEA08011CBFDFF8500A02F047FAFFF744
:1025100095F8FFF703FB05B0BDE8F083280900201C
:102520008C070020880C00208C0C00202DE9F04F37
:1025300081B00646994603F034F9DFF8207AD7F8DF
:10254000A813884200F05981DFF8142AC7F8A803BD
:102550001168CB689847804697F8840302281CBF0F
:1025600097F88403042840F04881D7F860030028D6
:1025700004BFD7F86403002800F03281D7F8600365
:10258000D7F86013B0F93040D1F810A002F0A3F8EA
:102590004FF0FF318C42834614D1D7F8600328B145
:1025A0000069504508BFD7F860535ED0D7F8640380
:1025B00028B10069504508BFD7F8645355D0D7F803
:1025C000505352E0B7F930100020A14202BF3B69DE
:1025D0000093534545D0B7F988100120A14202BFAE
:1025E000BB6E009353453CD0B7F9E0100220A142E6
:1025F00002BFD7F8C0300093534532D0B7F9381135
:102600000320A14202BFD7F818310093534528D0C8
:10261000B7F990110420A14202BFD7F8703100939E
:1026200053451ED0B7F9E8110520A14202BFD7F8E3
:10263000C8310093534514D0B7F940120620A14287
:1026400002BFD7F82032009353450AD0B7F9981249
:102650000720A14202BFD7F878220092524540F0ED
:10266000BC80582111FB00F03D18002D00F0B58012
:1026700095F83300010640F1B080D7F86003854239
:102680001CBFD7F864138D4263D0D7F8504300E0E5
:102690002468002C00F0A180AC4211D02468002CEA
:1026A00000F09B80AC420BD02468002C00F0958099
:1026B000AC4205D02468002C00F08F80AC42E7D1FA
:1026C0002069504540F0898002F005F80246D4E9BF
:1026D0000A0141F08053C4E90A03D4E9080141F03A
:1026E0008053C4E90803104602F016F801F0F3FF26
:1026F0000246D4E90A0141F08073C4E90A03D4E92F
:10270000080141F08073C4E90803104602F004F8A0
:1027100097F84C132869C7F8480341F0010187F87E
:102720004C1307F55470214602F05CFD214607F575
:10273000567002F02DFD97F8840301281CBF97F80E
:102740008403042849D0AA4907F56D7002F026F9E0
:1027500043E0D7F8600300224FF00053FEF798FEE5
:10276000D7F8640300224FF00053FEF791FECA48E9
:1027700002F03AF8D7F8604301F0ADFF02465CB1D1
:10278000D4E90A0141F08073C4E90A03D4E90801DD
:1027900041F08073C4E90803104601F0BDFFD7F88B
:1027A000644301F098FF02465CB1D4E90A0141F0AC
:1027B0008073C4E90A03D4E9080141F08073C4E9D5
:1027C0000803104601F0A8FF97F84C132869C7F8D2
:1027D000480341F0010187F84C13584601F09CFF73
:1027E0004FF6FC7000EA080040F0C16040F00101C3
:1027F000D7F89803002201F0C5F800210091F21EDD
:10280000F61C4846DFF85C3712B231B203F037F9F4
:1028100000B1FEE701B0BDE8F08F30B5DFF83C470E
:1028200081B0B4F96C03B4F96E13884217D101F08A
:1028300052FF054694F8940300F0F70084F89403DF
:1028400094F89403010704D4082104F56D7002F094
:10285000A5F8284601B0BDE8304001F05DBF01B0E9
:1028600030BD0720FEF76DBF2DE9F041074682B06D
:10287000D7F8A060884614461D4606B1B047D7E990
:1028800026012040294008BF002800F08E80DFF894
:10289000CC56B5F930600024464502BF2A69009243
:1028A000BA4203D195F83320160663D4B5F988608F
:1028B0000124464502BFAA6E0092BA4203D195F8A0
:1028C0008B20160656D4B5F9E0600224464502BFB7
:1028D000D5F8C0200092BA4203D195F8E32016063D
:1028E00048D4B5F938610324464502BFD5F818210C
:1028F0000092BA4203D195F83B2116063AD4B5F9B5
:1029000090610424464502BFD5F870210092BA4276
:1029100003D195F8932116062CD4B5F9E861052466
:10292000464502BFD5F8C8210092BA4203D195F8B6
:10293000EB2116061ED4B5F940620624464502BFB7
:10294000D5F820220092BA4203D195F84322160608
:1029500010D4B5F998620724464502BFD5F878220D
:102960000092BA4203D195F89B22160602D4C7E919
:102970002A0110E0582616FB04F4C7E92A012C446A
:10298000D4E9082322EA000023EA0101C4E908018E
:10299000D7F8A050A5600020C7F8A00002B007F14A
:1029A0004800BDE8F04103F0F5B802B0BDE8F081A1
:1029B000704700B581B001F0EFFFDFF8A0250146B8
:1029C000D2F89803D2F8882301B05DF804EB1047E1
:1029D000DFF888050FF29552D0F88813914208BFAE
:1029E000FEF7A3BF042100F56D7001F0D7BF000012
:1029F0000200004030B581B04FF0FF3001F0EEFE34
:102A0000DFF858550FF265510446D5F8880388421F
:102A100032D10022DFF8001C05F57A7001F061FE6A
:102A2000022085F88403D5F898138A6801F13003F1
:102A300000E00246506890B198421EBF02465068BE
:102A400000280CD098421EBF02465068002806D0CD
:102A500098421FBF0246506800289842E9D1507B37
:102A600010F00F0F02BF488E40F60901884203D0D4
:102A7000FEF7E4FDFFF752F8DFF8700C044208D0CF
:102A800005F56D7001B0BDE830404FF0005101F028
:102A900085BF01B030BD00000100010400B581B068
:102AA0004FF0FF3001F09AFE800708D501B05DF8C5
:102AB00004EB4FF40061DFF8A00401F06FBF01B038
:102AC00000BD2DE9F041DFF89474D7F85863002E6B
:102AD00000F0AB80F068082140F6040240F60303E2
:102AE00001E04068491E68B1CCB25CB104889C42E8
:102AF00018BF9442F5D1316901F130021AC81AC2E7
:102B00001AC81AC2D6E90A450022C6E90A22B068E4
:102B1000D0B115F0E24310D024F00F0235F0E243BB
:102B200008BF002A05D0B6F930103069D6F808C0C1
:102B3000E04704F0000405F0E245B6F930103069D2
:102B40002246B4682B46A04701F0C5FD0446B7F8FD
:102B50006E03401CC0F30B00A7F86E036FF0020178
:102B6000002086F83300318607F5567002F0E9FA46
:102B7000204601F0D1FDB7F96E03B7F96C13884216
:102B800053D1D7F89823D7F82863D7F82C5392F865
:102B9000F4100024A046052001B10720FEF7D1FD66
:102BA0002EB196F8F40000B9346886F8F4803DB18F
:102BB00095F8F40008B9D5F80080002085F8F400F5
:102BC000444538BF4446E4B9B7F96C03B7F96E130E
:102BD00088422AD101F07FFD044697F8940300F063
:102BE000F70087F8940397F89403010704D40821A9
:102BF00007F56D7001F0D2FE2046BDE8F04101F00E
:102C00008BBD14F1010F10D001F0CBFDB4FBF0F13E
:102C1000012998BF012107F5936001F0D6FD07F562
:102C20009360BDE8F04101F0D2BDBDE8F081CB4A30
:102C300092F884130020022904BFD2F860130029FF
:102C400003D1D2F8641301B90120704730B50D46A5
:102C5000A80781B0C14C12D5FFF733FFD4F8580351
:102C600040B145F0020104F56D7001B0BDE830409F
:102C700001F094BE01B0BDE83040FEF756BE6807D3
:102C800067D5012184F89613042001F0D5FFDFF801
:102C9000600A01680A6B9047C4F89C03D4F850039B
:102CA00098B10569D4F89803002818BFA8420AD043
:102CB00095F82400410704D52B6A002204212846F8
:102CC000984701206875C4F89853D4F89803416870
:102CD000DFF8200A0A780260022001F0ADFF11201F
:102CE00001F0BFFF012084F884037C49887810B983
:102CF0000E2001F0B6FFD4F89803416888680028D8
:102D000004BFC868002806D0DFF8AC0CDFF8402C00
:102D10000021C16102600720DFF8641C0860002107
:102D2000DFF8940C4269416182698161426942F035
:102D3000402242F0020242610FF22100C4F88803EF
:102D40001A2001F0CAFC01B0BDE83040192001F0A2
:102D5000C4BC01B030BD0000081004402DE9F043B0
:102D60000446880081B040F1B680DFF8F081D8F8E1
:102D70009803416848688E68CF68010018BF804793
:102D80003000DFF8345C01D138000ED0E86900284B
:102D9000FCD00021E961300018BFB047380018BFEF
:102DA000B847DFF8180C01F01FFD0020E86140F67D
:102DB0000A09DFF80C1C2960A8F87093A8F87203C0
:102DC00098F87C1301F0F00188F87C13C8F87403BC
:102DD000204698F87D1301F0F00141F0010188F8D8
:102DE0007D13FEF738FEA668374640F6040140F62C
:102DF000030200E00746786828B103884B451CBFF2
:102E000093428B42F6D17B7B08F55C70786003F0CF
:102E1000F0037B73D8F85003D8B1C06800889042A3
:102E200018BF884215D10021C8F89C13E869002812
:102E3000FCD00021E9610FF2351298F89103C8F82F
:102E4000882328B301F0ABFF0028FBD001F0C4FFBA
:102E50002FE0208E0028E9D000216186616394F87C
:102E60003D0094F83C1000F0F00040F0010084F8C0
:102E70003D0001F0F00184F83C1004F13000C8F886
:102E8000740398F87D1301F0F00188F87D13CDE705
:102E900033490A68136801209847012809D0787BD4
:102EA00000F0F00040F0010078730FF23900C8F82C
:102EB00088030021E9612E602B48436819000AD07D
:102EC000007AC10707D5D8F89803324601B0BDE8AB
:102ED000F0430121184701B0BDE8F08328CF00007E
:102EE00020000E00DFF8DC2A114200D1704710B537
:102EF0001B490A6813680120984701280DD1DFF8A3
:102F0000C80A0FF26901C0F888130022DFF8A81A76
:102F1000CA6100F55C70086010BD01F042FC32210E
:102F2000B1FBF0F10129DFF8A04A98BF012104F2BA
:102F3000544001F04AFC04F25440BDE8104001F056
:102F400046BC00000C10044094300440850300216E
:102F5000FDBFFFFF800C0020DC0C002028090020B2
:102F6000E00100102D25000028CF00002DE9F04FD2
:102F7000044688465FEA484083B0DFF84C9A2CD577
:102F800001F0A9FBD9F8686316B3D6E90A2302F069
:102F90000A0413F0E04508BF002C19D1D6E90A4510
:102FA000D6E90A23A243AB43C6E90A2301F0B4FBE6
:102FB000B06878B1002D08BF002C0BD0B6F93010E6
:102FC00030692246B4682B46A04728F4804815E3B0
:102FD00001F0A2FB28F4804810E35FEA880040F18A
:102FE0008280DFF8E809D0F88C1041F08001C0F849
:102FF0008C1099F8960328B1042001F0B2FD00204E
:1030000089F8960301F067FBDFF8E4A6DAF85410BC
:103010000A6805460420904700281CBF207D002830
:103020001FD0D9F89C03E0B10746DAF80000266902
:10303000016B8847874231BFC71B401EC71B7F1CDF
:103040003F0BB742276102D2F6197608266140F697
:1030500099012069A0F59670884224BF40F6C410FB
:103060002061284601F058FBD9F898138A6801F1CD
:10307000300300E00246506890B198421EBF0246FD
:10308000506800280CD098421EBF024650680028A5
:1030900006D098421FBF0246506800289842E9D1E6
:1030A000507B10F00F0F02BF488E40F6090290428D
:1030B0000FD1E56900224FF000736FF48071204654
:1030C000A847D9F8500310B1FEF72FFC01E048F0F3
:1030D00002082046A46900224FF080630021A04727
:1030E00028F000588AE25FEA887009D5FFF7E9FC0A
:1030F000D9F85803002840F0818228F002087DE2C8
:103100005FEA485040F1B48001F0E5FA0546FFF768
:103110008EFDD9F85043012840F0A480002C00F027
:10312000A180042089F884030022DFF86C1B09F5D4
:103130007A7001F0D6FA284601F0EEFA09F59360AC
:1031400001F047FBDFF8A80501680A6B9047C9F852
:10315000A003012089F89603042001F06DFD206989
:10316000C9F8980390F824104A0703D5036A00228F
:1031700004219847D9F89803DFF83C5841688E68D5
:10318000CF684868002E08BF002F04D00021E961F5
:10319000DFF8BC272A6008B1C046C046002E08BF31
:1031A000002F0CD0E8690028FCD00021E96106B1AD
:1031B000B04707B1B847DFF8040801F015FBD9F8AC
:1031C00098030121417540F60A06FEF744FCD9F840
:1031D00098339A68114640F6040C40F6030E00E05E
:1031E0000146486828B10788B7421CBF7745674544
:1031F000F6D1002048604E7B06F0F00646F001064E
:103200004E73E0680088704518BF604503D1002008
:10321000C9F8A00315E0188E98B103F1300000241E
:1032200044804460047B04F0F0040473447B04F0A5
:10323000F00444F0010444734860487B00F0F0005F
:1032400048730020E8612A60DFF8500A44682100D2
:103250000BD0007AC10708D501211846A04728F4F1
:103260008068CBE1284601F057FA28F48068C5E170
:103270005FEA085163D599F8960328B1042001F05C
:1032800070FC002089F89603D9F8984304F10801EE
:1032900004F130050B6800E00346586890B1A8427D
:1032A0001EBF0346586800280CD0A8421EBF034624
:1032B0005868002806D0A8421FBF03465868002857
:1032C000A842E9D1587B10F00F0F02BF488D40F69D
:1032D0000902904207D12046E46900224FF00073B2
:1032E0006FF48071A047D9F8A00398B1DFF80014FB
:1032F0000868026B9047D9F8A013814231BF401A89
:10330000401E401A401CD9F89813000BC8600020DA
:10331000C9F8A0030022C04909F57A7001F0E1F96B
:10332000022189F88413D9F8580318B109F56D7092
:1033300001F034FBFEF7F9FA28F400685EE15FEA79
:10334000087040F1548101F0C6F90190FFF76FFC5D
:10335000002800F0448199F89403010700F13F81AF
:1033600099F89403010600F13A81D9F8500300243A
:103370000025C8B1C1680A7B012502F00F02022AAC
:1033800012D101690A69C98A99F82233406B511830
:10339000192212FB0311FEF795F8064601F001FA17
:1033A000B6FBF0F1009100E0009400264FF0FF37EB
:1033B0004FEA040A5FFA8AF002281FDC09F530712F
:1033C00001EB4012907AC8B1107A0126022820D071
:1033D000D9F898030169C08A99F82233091819208D
:1033E00010FB03115069FEF76DF8834601F0D9F91F
:1033F000BBFBF0F0B84298BF074600BF0AF1010AD4
:10340000BAF1030FD6D3354205D0009CBC4207D990
:1034100005E00027F7E70DB1009C01E006B13C464E
:10342000354302D0002C00F0DA8099F821030028FF
:1034300040F0D58000260125F0B202281FDC09F5F6
:10344000307101EB4011887AC8B18D7291F9097021
:1034500001F041F9044699F8940305FA07F720EAC8
:10346000070789F8947399F89413080704D408217E
:1034700009F56D7001F092FA204601F04DF9761CC5
:10348000032ED9D3032089F8840309F5936001F052
:10349000A0F90198DFF8204501F03EF960690021AC
:1034A00061610022E068E16009F57A70DFF8641C70
:1034B00001F017F98E4801680A6B9047D9F89C1300
:1034C000814231BF401A401E401A401CD9F88C136B
:1034D0004FF0FF32A2EB10328A4234BF4FF0FF3080
:1034E00001EB1030C9F88C0399F8900330B1D9F88A
:1034F000A403D9F88C13C00288422FD2DFF8CC0481
:103500000268D10725D5DFF8740C0068010620D5C4
:1035100040F60900A9F870030021A9F8721399F880
:103520007D0300F0F00040F0010089F87D0399F878
:103530007C0300F0F00089F87C03C9F87413E161A2
:1035400009F55C71216000BFB9F8720310F4406F97
:10355000FAD0002189F89053C9F88C1301F051F981
:10356000DFF81C14DFF83447002008606368180097
:1035700007D0207A810704D5D9F8980300220221C8
:103580009847022001F0EDFA112001F003FB99F8B1
:10359000950320B9D9F89803483002F0FBFAA078D7
:1035A00010B90E2001F0F6FA99F8910328B1002124
:1035B00089F89113052001F0D4FADFF89C0CC9F8C2
:1035C0008803002189F884130220B9F96E13B9F930
:1035D0006C23914208BF0720FEF7B3F802E0019880
:1035E00001F09AF8FEF7A1F928F0080806E05FEA72
:1035F000480003D5FEF799F928F08048B8F1000F8C
:1036000007D0414609F56D7003B0BDE8F04F01F0F9
:10361000C5B903B0BDE8F08FE12300002DE9F54CFA
:10362000DFF8A4A3DAF8504381B09B4600250E468C
:1036300000E02468002C55D0B4420ED02468002C41
:1036400050D0B44209D02468002C4BD0B44204D0EE
:103650002468002C46D0B442EBD1002C42D0206923
:1036600001992768884237D101F035F8D4E90A2357
:1036700043F08051C4E90A21D4E9082343F0805182
:10368000C4E9082101F048F8BBF1000F18D001F09F
:1036900022F8D4E90A2343F08071C4E90A21D4E96D
:1036A000082343F08071C4E9082101F035F89AF845
:1036B0004C133069CAF8480341F001018AF84C13F1
:1036C00021460AF5547001F08DFD21460AF5567029
:1036D00001F05EFD15F101059DF80800002818BFF6
:1036E0003C46BAD1284603B0BDE8F08C0200004049
:1036F0008C010010D02108402DE9F04792460326A6
:10370000BAF1000F84B081461D4614BF4FF08047C8
:103710004FF000570C4600F0DEFF4FF0FF318C42B7
:103720000190DFF8A48256D1D8F86003002846D073
:103730000069484543D1D8F86043002C00F001816E
:1037400094F83300010640F1FB808DF800500C9E88
:10375000D8F8600384421CBFD8F864138C4240F050
:10376000D880D8F8605300F0B6FF84464DB1D5E953
:103770000A013943C5E90A01D5E908233B43C5E9F4
:103780000823604600F0C8FFD8F8645300F0A3FF98
:1037900084464DB1D5E90A013943C5E90A01D5E9A5
:1037A00008233B43C5E90823604600F0B5FFBAF1A2
:1037B000000F14BFDFF8A40ADFF8A40A67E0D8F806
:1037C000640328B10069484508BFD8F86443B4D001
:1037D000D8F85043B1E7B8F930100020A14202BF39
:1037E000D8F8103000934B4505D1582111FB00F05B
:1037F00008EB0004A1E7B8F988100120A14202BF3C
:10380000D8F8683000934B45EFD0B8F9E0100220AB
:10381000A14202BFD8F8C03000934B45E5D0B8F9BB
:1038200038110320A14202BFD8F8183100934B454C
:10383000DBD0B8F990110420A14202BFD8F8703152
:1038400000934B45D1D0B8F9E8110520A14202BF41
:10385000D8F8C83100934B45C7D0B8F940120620BC
:10386000A14202BFD8F8203200934B45BDD0B8F931
:1038700098120720A14202BFD8F8782200924A4548
:103880005FD1582111FB00F008EB000455E700F070
:10389000ABFF96B3D8F8605300F01DFF02465DB150
:1038A000D5E90A0141F08073C5E90A03D5E90801A9
:1038B00041F08073C5E90803104600F02DFFD8F8E9
:1038C000645300F008FF02465DB1D5E90A0141F0FA
:1038D0008073C5E90A03D5E9080141F08073C5E9A1
:1038E0000803104600F018FF98F84C132069C8F838
:1038F000480341F0010188F84C139DF80000E8B13D
:103900000246D8F8501333464846FFF787FE832611
:1039100017E033462A4621464846FFF77FFE78B136
:1039200098F8840301281CBF98F88403042805D064
:10393000DFF8AC1A08F56D7001F030F8832600E06E
:103940000426019800F0E8FE304604B0BDE8F08798
:103950005100070610B50C461B4991F88423022A32
:103960000BD100F041FF04B1206000F0FF000128FE
:1039700001D1812010BD022010BD012010BD00002A
:1039800000000460F0B581B004460D46164600F014
:10399000A2FE07460C48D0F898138C4218BF0324A7
:1039A00004D131462846FFF7D5FF0446384600F0DB
:1039B000B3FE204601B0F0BD001004400100070630
:1039C00001010E04040000202809002040210840C5
:1039D00030B5144681B00546502340F2FF3200F066
:1039E0002DFF24B1014655F82110890A216001B04C
:1039F00030BD002942D00A0E202A08BF10221AD05A
:103A0000212A08BF202216D0A02A08BF302212D0B7
:103A10000AB940220FE0102A08BF50220BD0112A09
:103A200008BF602207D0402A08BF702203D0502A66
:103A30000CBF802290228901090A42EA012141F04B
:103A40000F0100E0001D026812F1010F18BF8A4249
:103A50001CBF50F8042F12F1010F0ED08A421CBF78
:103A600050F8042F12F1010F07D08A421EBF50F800
:103A7000042F12F1010F8A42E4D10160704700293E
:103A800044D00A0E202A08BF10221AD0212A08BFCB
:103A9000202216D0A02A08BF302212D00AB9402214
:103AA0000FE0102A08BF50220BD0112A08BF602255
:103AB00007D0402A08BF702203D0502A0CBF8022B2
:103AC00090228901090A42EA012141F00F0100E038
:103AD000001D026812F1010F18BF8A421CBF50F886
:103AE000042F12F1010F0ED08A421CBF50F8042F90
:103AF00012F1010F07D08A421EBF50F8042F12F1B5
:103B0000010F8A42E4D14FF0FF31016070472DE987
:103B1000F04381B00546089C0E461746994602F0D0
:103B200051F80E2803D002F04DF80F2849D128880B
:103B300040F6020188424FF0010860D0B0F5C15F45
:103B40006AD043F60601884273D005F11A0232604A
:103B5000E8693860A96AC9F80010E86A206095F839
:103B600024702D7ED9F8000005F0070588B10523E3
:103B70004FF6FF7240F2037100F060FE0646052E1C
:103B800007DA2946384600F071FED9F8001041F8EE
:103B90002600206878B305234FF6FF7240F20371C8
:103BA00000F04CFE8146B9F1050F24DAFF213846BA
:103BB00000F05CFE216841F82900404601B0BDE8F4
:103BC000F083288840F60201884218BFB0F5C15F33
:103BD0004FF0000839D043F60601884207BF05F1CF
:103BE0001A00306005F11A023260E8693860C9F8DD
:103BF0000080C4F80080404601B0BDE8F08305F1C4
:103C00001202326068693860A969C9F80010E86971
:103C10002060EF7B2D7CA5E705F11200306069691B
:103C20003960686AC9F80000A96A2160EF7B2D7CC1
:103C300098E705F11A003060E96939600027286AC1
:103C4000C9F80000696A21608BE705F11200306055
:103C50006869CBE730B5040081B01CD050234FF623
:103C6000FF720B2100F0EAFD0546502D11DA01F03C
:103C7000FDFE01F096FDDFF8F817DFF8F827C1F830
:103C8000A8031368D9688847000440F00B0044F883
:103C9000250001B030BDFEE79D2A000028CF0000BE
:103CA0002DE9F04186B015460C460022029204929E
:103CB0000392019201A9009103AB04AA02A9FFF7A4
:103CC00026FF8326E20F30D130B3039800281CBFB3
:103CD000019800281AD00298048040F22B28039FF4
:103CE00041463846FFF774FEFF281CBF48EA84218E
:103CF00047F8201001990498FFF7C1FE152028808D
:103D000030460399696006B0BDE8F08102980188E9
:103D10004FF6FF72914249D0029804801021298009
:103D20006C80304606B0BDE8F08100283ED0039894
:103D300000281CBF019800281CD002984FF6FF7184
:103D400001800022019F2B213846FFF741FEFF280A
:103D500004D0A40244F02B0447F8204001990498B1
:103D6000FFF747FE1520288030460199696006B0AC
:103D7000BDE8F081049F00222B213846FFF728FE82
:103D8000FF2804D0A10241F02B0147F82010FF28A2
:103D90000CD002994FF6FF70088014222A80C4F3D9
:103DA00015046C60304606B0BDE8F081032630464D
:103DB00006B0BDE8F0812DE9F043DFF8A08789B0B7
:103DC0000C001546D8F8081018BF002D1F4600F04B
:103DD000F4802278D140CB0740F1EF8006460021E5
:103DE00028460020C046B560746000F074FCDFF81F
:103DF0008096054699F89503022880F2DB8000281A
:103E000040F0868000F0DBFDDFF85407DFF8544710
:103E1000016841F002010160DFF84C07C8F80000BA
:103E2000684600F083FD6078DFF8401702906A462C
:103E300009F56D7000F082FD6A46DFF8341709F26B
:103E4000044000F07BFD684600F05EFC2078B14A3B
:103E500001906B46192109F57A7000F019FC6B4648
:103E6000DFF810271A2109F5876000F011FC002304
:103E70000022DFF8041709F2544000F06BFC002325
:103E80000022DFF8F81609F5936000F063FCDFF814
:103E9000F0060168C1F3814038B10023DFF85827EC
:103EA000042109F2DC4000F046FEA078012804BF9E
:103EB0000E2000F0D6FE09F5567001F037F909F52D
:103EC000547001F033F9002089F88403C9F88C0399
:103ED0000021072089F8901389F8911389F82003AD
:103EE000C9F89C1300200521C9F8A003C9F8A41340
:103EF00089F89403D849C9F888136368180007D073
:103F0000207A410704D5D9F8980300220421984764
:103F100099F8950309EB8002401CC2F8286389F8E0
:103F200095033C46284600F0F7FB3CB90FF22051C0
:103F300091E8BC51684680E8BC516C46206830600E
:103F40004FF4FA71F160A06970620120218AF18258
:103F50007075E169F162606818B1306100203075F8
:103F600004E040F6C410012130613175DFF88C06A1
:103F7000F0613062B061E06800B1F061606900B189
:103F80003062A06800B1B061C82106F13000FCF7D2
:103F900059F8002106F1480001F0DAFD0023002263
:103FA000DFF85C1606F1B00000F0D4FB304609B033
:103FB000BDE8F083284600F0AFFB002009B0BDE863
:103FC000F083F0B5DFF8A84494F89513002981B088
:103FD00000F09E80B4F96C13B4F96E23914205464B
:103FE0001BD004F55471FDF70FFA68B9D4F86003DB
:103FF00028B10069A84208BFD4F8600304D004F5D2
:1040000056712846FDF700FA38B1B0F930100A228F
:104010004FF0E043284600F025F900F05CFB06462F
:10402000D4F82803854207BF0021C4F828130020D4
:10403000C4F82C0394F89503401E84F89503C0B28D
:10404000002850D1C4F8985394F88403022820D152
:1040500000F041FB074694F8940300F0F70084F861
:10406000940394F89403010704D4082104F56D70B7
:1040700000F094FC384600F04FFB304600F04CFB5B
:104080004FF0FF3105F1480001F079FD00F023FB0E
:10409000064604F56D7000F07BFC04F57A7000F0C4
:1040A00018FB04F2044000F073FC04F5876000F094
:1040B00010FB04F2544000F070FB04F5936000F034
:1040C0006CFBD4F8B01311B104F59E60884704F27C
:1040D000DC4000F018FEDFF88C048178012904BF71
:1040E0000E2000F057FDD4F89803A84204BF002129
:1040F000C4F89813304600F00FFB05F1480001F0BA
:104100003CFD05F1B00001B0BDE8F04000F045BB5A
:1041100001B0F0BDF52900002DE9F04D00F0DBFA0B
:10412000DFF84C4394F8841302291CBF94F88413DD
:10413000042907D1DFF8CC24146800F0EDFA2046FA
:10414000BDE8F08D00F0E8FADFF8BC04DFF8BC84CD
:1041500001680A6B904710F5003641F1000AD4F867
:104160008013A8FB067B002008FB0ABB3C184BEB26
:1041700001052C462046BDE8F08D000000000440FB
:104180002DE9F04F81B005460F4693469A4600F060
:10419000A2FA8146FDF74BF904006FF0010654D0F6
:1041A0000095DDE90A68DFF8C85205F5936000F074
:1041B00010FBB5F86C03DFF85824401CC0F30B006B
:1041C000A5F86C03E76084F832B0C4F808A0202397
:1041D000B5F86C03208632400099216108EA030398
:1041E00042F00206C4E9066300200021C4E9080188
:1041F000802284F833202064606384F8441084F8BB
:1042000038104FF0FF30A164E16484F8501084F856
:104210005110E063397B01F00F01022904D1012024
:1042200084F83800B96861630020009981F8F400CF
:10423000214605F5547000F0ABFFD5F85003A042BD
:1042400008BFFDF772FBB4F93060484600F064FA2D
:10425000304601B0BDE8F08F4D2C00000100020493
:1042600001000104F0B506460F46380081B014463F
:104270001D4603D50020002101B0F0BD00F08AFBEF
:10428000DFF8EC21B2F930300021BB4202BF1369E4
:104290000093B34203D192F833301B0660D4B2F9D5
:1042A00088300121BB4202BF936E0093B34203D119
:1042B00092F88B301B0653D4B2F9E0300221BB4296
:1042C00002BFD2F8C0300093B34203D192F8E3307A
:1042D0001B0645D4B2F938310321BB4202BFD2F8E4
:1042E00018310093B34203D192F83B311B0637D407
:1042F000B2F990310421BB4202BFD2F87031009371
:10430000B34203D192F893311B0629D4B2F9E831B4
:104310000521BB4202BFD2F8C8310093B34203D19A
:1043200092F8EB311B061BD4B2F940320621BB4296
:1043300002BFD2F820320093B34203D192F8433245
:104340001B060DD4B2F998320721BB4202BFD2F846
:1043500078720097B7420BD192F89B723B0607D553
:10436000582313FB01F1571897F833100A0605D4A8
:1043700000F016FB0220002101B0F0BDD7E90823B0
:1043800044F00A0445F0E04522402B4008BF002AD3
:104390000ED000F005FBD7E9080120402940C6E90E
:1043A0002A01D7E9082382438B43C7E9082312E097
:1043B000BA68DFF89C128A4203D0BA68C6F8A02017
:1043C000B960C6E9264500F0EBFA4FF0FF3106F17F
:1043D000480001F0D4FBD6E92A0101B0F0BD00008D
:1043E00002000040D0B582B00446DDE90667CDE9A1
:1043F0000067FFF7C5FE0146204602B0BDE8D04089
:104400000A224FF0E0432DE700B581B0930803F096
:1044100001030093530803F0010302F00102FFF7C8
:104420006BF901B000BD00B581B0930803F0010342
:10443000009302F001020123FFF75EF901B000BD15
:10444000F0B500BF02A191E8FC5080E8FC50F0BD3F
:10445000FFFFFFFF00000000000000000000000060
:104460003A013A01000000000000000000000000D6
:1044700028090020E00100102DE9F04B0E4682B023
:1044800096F9048034688346174600F024F9DFF873
:10449000C42192F8201300906FF001094FF0000C36
:1044A0005FF0010303FA0CFE11EA0E0F50D04FF03B
:1044B000FF35A84518BFE0454AD15FFA8CF00328C4
:1044C00046DA02EB401505F53075A87A00283FD191
:1044D00021EA0E0082F82003AB7285F809C00A2198
:1044E00092F82203401C82F82203C5F800B02B7218
:1044F000002342486860298295F90900401DA8748C
:10450000B06868617FB13B7878785B0143EA8003EB
:1045100095F90900401D43EA00234FF6FC710B405A
:10452000DFF834010343AB6104B16C60D2F8980347
:1045300010B92968C2F89813FDF7F7F995F90990B1
:10454000009800F0E9F8484602B0BDE8F08B00BFE3
:104550000CF1010CBCF1030FA4D3F1E7CC2108400E
:104560000020094028CF0000110000E0B32900001E
:104570001723000091220000D12900001B28000011
:10458000B44F0050F0B581B006460F46802400F0CD
:10459000A2F8FFB2032F054627DADFF8B83003EBA5
:1045A000471101F53077B87AF8B13968B1421CD1BA
:1045B00093F88403022812D197F90910D3F89803CD
:1045C000491D0906090C41F08161002241F00101F9
:1045D000FFF7D8F904463846FCF7EAFF05E038460D
:1045E000FCF7E6FFFDF7A1F98124284600F094F8D6
:1045F000204601B0F0BD0000F3160000B129000014
:1046000063280000043004408C01001000093D00C4
:10461000FFEFFF9F10B582B001F0F9F901F026FA23
:10462000014600200090CA1E0A4C0C4BC91C12B255
:1046300009B204F59E6001F022FA0949094AC4F85A
:10464000AC13C4F8B02300B1FEE702B010BD000007
:104650006928000028090020010004062D2500001B
:10466000553C0000C95A0000DFF800F055EB02107D
:10467000DFF800F047EC0210DFF800F049EB021021
:10468000DFF800F075E40210DFF800F01DD9021029
:10469000F0B51C008DB005460E46174604D1002328
:1046A00001F0FAFA0DB0F0BD08233022002168466F
:1046B000FFF7E2FF206805906B46606808903A4675
:1046C000207AADF818003146284601F0E5FA0DB021
:1046D000F0BDFFF7D5BFFFF7C7BFFFF7D5BF01F0AC
:1046E000FBBAF0B581B004460D461646FFF7BCFF95
:1046F000074632462946204681604260384601B06E
:10470000BDE8F040FFF7B4BF002101604FF0FF3279
:104710000123426003727047FFF7AABFDFF800F081
:104720008DDD0210DFF800F09DEB0210DFF800F0E5
:1047300049E60210DFF800F0FDE90210DFF800F0B2
:10474000C3EC0210DFF800F0E7E90210DFF800F038
:10475000C5E20210F0B51C0089B005460E461746AA
:1047600005D10023FFF7DAFF284609B0F0BD082382
:10477000242200216846FFF7D5FFA16806916B4609
:104780002278ADF810203A466068059031462846F8
:10479000FFF7C4FF284609B0F0BDFFF7C7BFFFF71A
:1047A000C9BF0D480068704701F0A4BA00B581B0D8
:1047B000FCF703FE401E8041C043C00F01B000BDA6
:1047C00000218160017041607047FFF7B7BFFFF7BC
:1047D000B9BFFFF7BBBF000064CF000045490A68BE
:1047E0001040C2430A607047434A11680029FCD157
:1047F0000023D3611060D0690028FCD0D1615068DB
:1048000070473E48016821F0020141F408710160DF
:1048100003213B48016041F23002C2600123436042
:104820005021C16043604FF4CA61C16043604FF4DE
:104830008651C160436033490B60704770B40446D1
:10484000002000E0401C98420BDA256815F1010FAA
:1048500007D054F8046B16408E42F3D170BCC0B23E
:10486000704770BCFF207047000000001E281DD854
:10487000DFE800F0101C131C1619161C1C1C191C58
:10488000161C1C191C1C1C1C1C1C1C1C1C1C1C1C71
:104890001C1C190040F2025209E04FF4817206E03C
:1048A0004FF2011203E041F2011200E00022FF2961
:1048B00009D14FF6FF30024042F0C00240F20370CF
:1048C00040EA02407047080008BF42F0300205D0BD
:1048D000C8074CBF42F0100242F0200240F20370C1
:1048E00040EA0240704708490A681040C2430A6023
:1048F00070470000101004400010044000000460E5
:10490000546004400041044008100440DFF800F007
:1049100025EA0210DFF800F061DB0210DFF800F09A
:10492000F1EB0210DFF800F0BDE802100021016099
:104930004160C1604FF0FF318160704770B5140075
:104940008AB005460E4604D1002201F0F1F90AB002
:1049500070BD1449A0680A68904204D310F1010F99
:1049600018BF002012D10823282200216846FFF733
:10497000D5FF206804906A46606805903146E0687B
:104980000790A0680690284601F0D2F90AB070BDE1
:10499000FFF7C8BFFFF7BABF01F0D6B901F0DEB923
:1049A000FFF7B8BF24120000DFF8381791F8410173
:1049B00020B1D1F86C01002818BF004770472DE9DD
:1049C000F041DFF8204794F84201002884B040F01D
:1049D000AE800121DFF81067DFF8105784F842112C
:1049E000307B84F841017168C4F86C11A868C0F389
:1049F0008140B8B93069A8B12F68FFF7D2FEC7F37C
:104A00000662642111FB02F2B2FBF0F200230FF206
:104A1000BD6104F19400FFF79DFEDFF8D4164FF05E
:104A20000040086001A8FFF7CBFE002002908DF83F
:104A300004000022039201AB0FF2DD41DFF8B476EF
:104A400004F10C00FFF786FE01A8FFF7B9FE002075
:104A500002908DF80400039001AB0822DFF898164D
:104A600004F15000FFF776FE00230FF2F1323221FD
:104A700004F1D800FFF70CFE002038600023DFF8B7
:104A80007C262C2104F1F400FFF702FEDFF870060B
:104A90000178A968707BC1F3815128B1032903D142
:104AA000012084F8390121E0032918BF02291DD013
:104AB00001291AD1DFF84C66DFF84C76032000900C
:104AC0001C23D6F800C0DCF804804FF040520021CF
:104AD0003846C04701200090384636687768092379
:104AE0004FF400720021B84711E081B9386840F0F6
:104AF00040003860FFF7EFFDA16841F00401A160BC
:104B000094F84511491C84F84511FFF705FE6868C3
:104B100040070CD4FFF7DFFDA16841F00101A1605F
:104B200094F84311491C84F84311FFF7F5FD002068
:104B300004B0BDE8F08130B581B0002408B11500A3
:104B400004D16FF00204204601B030BD8160C26024
:104B500003610146DFF88C0500F01AFB204601B026
:104B600030BD10B50446FFF7B6FDDFF878150A1919
:104B700092F843315B1E82F84331DBB233B98A6865
:104B8000012303FA04F422EA04048C60FFF7C4FD55
:104B9000002010BDF0B581B00546FFF79CFD04462E
:104BA000DFF84015481990F84A21521E80F84A2132
:104BB000D2B232BBDFF8540500EB850210F8255065
:104BC0005688280623D5DFF8487539680A6A3046C2
:104BD000904739688A6A3046904739680A6B304690
:104BE0009047DFF8301501200860DFF82C050168D8
:104BF0008907FCD505F03F05152DBCBF2846FFF7FA
:104C0000C9FF2046FFF788FD002001B0F0BD68060F
:104C100006D501EB86010020D1F860219047E9E735
:104C2000DFF8EC140B689A6930469047304601F083
:104C3000A5F80228FAD1DDE710B50446FFF74BFDD1
:104C4000DFF8A0148A680123A3401A438A60214434
:104C500091F84321521C81F84321FFF75DFD0020AC
:104C600010BD2DE9F0410646FFF735FD0446DFF89B
:104C70007454A81990F84A114A1C80F84A2139BB8B
:104C8000DFF8888418F8260000F03F001428D8BF09
:104C9000FFF7E7FF08EB8600478818F826000106B3
:104CA0001CD5DFF86C542A68D169384688472A68D1
:104CB000516A384688472A68D16A38468847DFF8FB
:104CC000542401201060DFF8500401688907FCD5E6
:104CD0002046FFF721FD0020BDE8F081400606D503
:104CE00005EB87010120D1F860219047F0E7DFF85C
:104CF00020140B685A6938469047384601F05BF833
:104D00000128FAD1E4E730B581B00446FFF7E3FCAF
:104D100005462146DFF8CC0300F064FA284601B0CE
:104D2000BDE83040FFF7F8BCDFF8DC130A8844F236
:104D30000C00024044F204039A4200D0704710B5C0
:104D400082B000F064FE00F091FE044600F0E1FC49
:104D5000204600F026FD00F040FD00200090E21EFD
:104D6000E41C0FF2CD03DFF8B80312B221B200F059
:104D700086FE00B1FEE702B010BD10B50024022887
:104D800002D0032805D008E001F034F8044620469C
:104D900010BD01F0B9F9204610BDFEE70000F0B5E6
:104DA00081B0FFF798FCCF49054691F838010124FE
:104DB00060B1DFF85063DFF850033768D7F80CC0F4
:104DC000002301223C21E04700B900242846FFF7D8
:104DD000A3FC204601B0F0BD30B581B0FFF77BFCED
:104DE000044600F058FABF4D002085F83801FFF75F
:104DF00072FC95F84611491E85F84611C9B219B9D9
:104E0000A96821F00801A960FFF786FC2046FFF79A
:104E100083FCB54884680220A0470546102000F0B6
:104E20007EF8012D04BF0320A04701B030BD000073
:104E300030B581B004461D4600F0B3FC00F0CDFC57
:104E400000200090E21EE41CB64B12B221B22846AC
:104E500000F015FE00B1FEE701B030BD2DE9F041D4
:104E6000A44C82B06568206820EA050105406A0606
:104E7000216049D5A34EF16B0A68042090470228AF
:104E800018BF032819D001283ED1032000901C230D
:104E9000D6F800C09C4FDCF804804FF0405200214F
:104EA0003846C047012000903846366877680923A5
:104EB0004FF400720021B84726E0032000901C2325
:104EC000D6F800C0904FDCF804804FF0405200212B
:104ED0003846C04701200090384636687768092375
:104EE0004FF400720021B847FFF7F5FB7D4991F8B8
:104EF0004521521E81F84521D2B21AB98A6822F0A2
:104F000004028A60FFF708FC280648BF00F022F878
:104F1000A56002B0BDE8F08170470020704730B551
:104F200005467048046881B05CB1A068284205D08D
:104F30002269E36800212846984728B92468002C94
:104F4000F3D1002001B030BD4FF0FF3001B030BDD3
:104F50000020704730B581B0FFF7BDFB4FEA000479
:104F600000F099F90028FBD0FFF7B5FB5D4D95F8EF
:104F70004611491E85F84611C9B219B9A96821F030
:104F80000801A960FFF7C8FB002085F8380120461A
:104F9000FFF7C2FB544884680220A0470546102052
:104FA000FFF7BDFF012D04BF0320A04701B030BDB6
:104FB00070B501284CD15C490A68136898470128EC
:104FC00000F08180474D95F8380100287BD1474E8D
:104FD000B068C0F38140B0B9434804699CB13068FF
:104FE0004E49C00F19BF4FF4405008604FF4805233
:104FF0000A60502001F07EF90120A04705F19400DD
:10500000FFF7E5FB01E000F037F9012085F83801F2
:10501000B068C0F3814010B93349086948B9287AAB
:10502000810606D4334880228260016841F0800105
:105030000160FFF750FBA96841F00801A96095F8ED
:105040004611491C85F84611FFF766FB002070BD2C
:10505000002838D100F04AF9244E224DB068C0F340
:105060008140A0B9204804698CB105F19400FFF794
:10507000B0FB30682949C00F19BF4FF44150C1F847
:1050800080004FF48252C1F880200020A04795F89C
:105090003801C0B11748016821F08001016080210A
:1050A0008160FFF718FB95F84611491E85F84611F7
:1050B000C9B219B9A96821F00801A960FFF72CFB52
:1050C000002085F83801002070BD000000B51349AC
:1050D00081B04020086000F0CFF801B05DF804EB2B
:1050E00038E7000094070020CCCE0000AC4F005001
:1050F00000A10C409022084075620000655E00002F
:105100001C530020A401001000A00C40D8C70000D0
:10511000B80100102820086028200840A8A00C40F2
:1051200094520020314E0000E001001010B50446FA
:10513000FFF7D1FA002161602160BDE81040FFF760
:10514000EBBA30B581B00546FFF7C5FA2C683CB123
:1051500021682960216800291ABF00224A6069601D
:10516000FFF7DAFA204601B030BD70B504460D46AF
:105170001646FFF7B0FA2E60716869607168002901
:1051800014BF0D6025607560BDE87040FFF7C4BABC
:1051900030B581B004460D46FFF79DFA0021296025
:1051A00062686A606168002914BF0D6025606560EF
:1051B00001B0BDE83040FFF7AFBA30B581B004466A
:1051C0000D46FFF788FA2168296000226A6021688D
:1051D000002914BF4D606560256001B0BDE8304016
:1051E000FFF79ABA30B581B004460D46FFF773FA5F
:1051F00029686A6800290CBF62604A6069682A6889
:1052000000290CBF22600A6001B0BDE83040FFF702
:1052100083BA30B4002513E050F8042BD30744BF01
:10522000A9F101039A18091F042942F8045BFAD274
:1052300013468C0744BF15809B1CC90748BF1D70CF
:1052400050F8041B0029E7D130BC704738B5DFF8AF
:10525000D805DFF8D855048814F0010403D14FF0C5
:10526000012129600088DFF8C8251168884714B13A
:105270004FF08070286031BD10B5DFF8C825136885
:105280005C6801210120A047DFF8AC05DFF8AC1510
:105290000068886010BD38B5DFF89845E16B0A6892
:1052A0000120904701281FD02468DFF87C05E568BD
:1052B000002301223C21A847B8B1FFF7C7FFDFF860
:1052C0007805DFF8783502689968DFF874051C689E
:1052D000DA60A4EB9404521A4243120C1A60196863
:1052E0008C4238BF0C461C60012032BD38B5DFF857
:1052F00054452268536800210120984721680A68B4
:105300000120904708B1FFF7A1FFDFF82C05DFF877
:105310002C5500686860E06801688847286131BDE5
:10532000243080F30600020900F00F000F21C2F1C3
:1053300003024FF6FF73C0F10F00D140C340DFF806
:10534000080543EA014303607047DFF80005DFF812
:1053500000250168DFF8FC0402EA9122824208D1AC
:10536000DFF8F414096800208A035CBF0804001603
:10537000D6E770472DE9F04F04460F4615461E4606
:10538000D4E9028900F031F8C5E90001D4E90489C3
:10539000D7E9022300F02BF8C5E90201D4E900891E
:1053A00000F023F8C5E90401D4E90489D7E9002312
:1053B00000F01DF8C5E90601D4E90089D7E9022308
:1053C00000F015F8C5E90801D4E902ABD7E90023DC
:1053D000A2FB0A0102FB0B1103FB0A11324600F08B
:1053E0008DFFC5E90A01BDE8F08FD7E90423A2FBD0
:1053F000080102FB091103FB0811324600F07EBFD1
:105400002DE9F04F0C460268D4E90051D4E9026A54
:10541000D317AF1B61EB0A0BA7FB026A07FB03AABA
:105420000BFB02AAD4E90623D4E90459551B4268B0
:1054300063EB0909A2FB057BD31702FB09BB03FB46
:1054400005BBF219D4E908658068D4E90A484AEB3B
:105450000B03C117341B65EB0808A4FB005904FBC0
:10546000019908FB0099501943EB0901BDE8F08F41
:105470002DE9F84F8A465FEA020B9EB0DFF8DC1395
:1054800013D10268891802910846C1178907DAE921
:10549000002341EA9001800700F042FF064689465A
:1054A0000024A046002000216FE0002202AD50F849
:1054B00022400C1945F82240521C032AF7DB0093C6
:1054C0000A23009906AA5846FFF754FF06AADDE909
:1054D0000663D2E90248DAE90001351B63EB0807ED
:1054E000A5FB004805FB018807FB0088DDE90C01EE
:1054F000D2E90423821A61EB0303DAE90201A0FB7B
:10550000026900FB039901FB0299A21948EB090308
:10551000DDE90E45DDE91069DAE90401A61B65EB5A
:105520000909A6FB005706FB0177009909FB0077E4
:105530005846551912AA5F410023FFF71BFF12A915
:1055400002A82D0DFFF75CFF45EA073500F078F85B
:10555000894606460099002312AA5046FFF70AFF23
:1055600012A902A8FFF74CFF00F06AF8444261EB71
:105570004108002312AA59465046FFF7FBFE12A924
:1055800002A8FFF73DFF00F05BF8289DDFF8D0721E
:10559000CDE90648CDE9086982468B46002405EB33
:1055A000C408DDE90823D8E90469A2FB060102FB6F
:1055B000091103FB06112E5DA6F1140200F09EFEF8
:1055C000CDE90001D8E90C69DDE90623A2FB06015B
:1055D00002FB09112A1903FB06111679A6F1140220
:1055E00000F08CFEDDE90023161843EB0109D8E931
:1055F0001423AAFB02010AFB03110BFB02112A1957
:1056000092F808C0ACF1140200F078FE301849EBB3
:105610000101800A40EA81508912032C04DA6142B8
:1056200007EB8101C86005E0000940EA01708D4A7E
:1056300080183860641C032CB1DD1FB0BDE8F08F0A
:105640002A463B1500F06CBE2DE9FE4F0026804631
:105650000F4602928DF800304CE0029850F82690E8
:1056600009FB09F20192D8E900AB09FB02F4A4FBA3
:105670000A013A78E51704FB0B1105FB0A11143AED
:1056800000F03CFED8E9024582468B46019AA2FB17
:105690000401D31702FB051103FB04117C78A4F16C
:1056A000140200F02BFE1AEB00044BEB0105D8E9C5
:1056B00004014A4682468B46A2FB0A0197F802C0C3
:1056C0004FEAE97302FB0B1103FB0A11ACF1140260
:1056D00000F014FE24184D41D8E90601FA78143A76
:1056E00000F00CFE0C9B201803EBC6026941C2E9D6
:1056F0000001761C9DF800008642AEDBBDE8F78F06
:1057000010B50068040424160C6003EB20431360FA
:1057100010BD80B5B6B000F023F81AA85249702227
:1057200000F0B4FE6FF00F0304AA01A94F48FFF781
:10573000E7FF6FF0160305AA02A94D48FFF7E0FF47
:10574000052306AA03A94B48FFF7DAFF00F022F869
:1057500000F019F800F010F800F007F837B000BDBD
:105760001822002108A800F0D4BE1AA8009008ABA7
:105770000EAA14A904A87BE608A80090032301AA96
:105780001CA92EA860E70EA80090032301AA1BA95C
:1057900026A859E714A80090032301AA1AA91EA855
:1057A00052E770B52E4CA268E5681B3800FB00F18B
:1057B00000FB01F681FB0223C6FB05236568C0FBE5
:1057C00005232068120942EA0372C117101841EB41
:1057D0002311000C40EA014070BD10B5264A002894
:1057E00082FB002304D412F5001043F1000103E012
:1057F000B2F5001063F100014FF48002002300F0C5
:105800008FFD00F1377000F5DE404FF4C061B0FB52
:10581000F1F200230020402100F082FD174B1C68AC
:10582000616CBDE81040084700A00C4004A40C4087
:1058300080000010A401001030200940140900204D
:1058400040420F00E001001018A00C40501300501F
:10585000F1FF0F00F0010700B44F00506079FEFF28
:10586000BC5200200000A08638C60000C0100050C6
:10587000BC100050B8100050006CDC02F0010010A9
:1058800070B5FEF728FF06469B484068FA246FF083
:10589000F90560B1B0F90C108C42C8BF0C46B0F9E4
:1058A0000E1000688D42B8BF0D460028F2D129467F
:1058B000204600F005F83046BDE87040FEF72CBFEA
:1058C000F0B48D4BB3F90040A0421ADA8B4D8C4CEA
:1058D0002E782568A5F5407576B2821C7543D705EC
:1058E0002D1105EBE735803D12F1F90F2ADA4FF45F
:1058F000803505F47F4525631880206A40F0040058
:105900002062B3F9020088421ADA7C4C7C4A25787E
:105910001468A4F540746DB2881E6C43C60524114A
:1059200004EBE634803C10F1F90F15DA4FF48034C3
:1059300004F47F4454635980106A40F008001062F8
:10594000F0BC7047FA2AA8BF4FF47F45D1DA002D8A
:10595000CFD56C4A1540CEE7FA28A8BF4FF47F4454
:10596000E6DA002CE4D567480440E3E72DE9F04788
:105970006248634D01782A685F4E634F4FF47F435E
:105980002B63FA2131802A6A22F004022A62002263
:10599000007829686A636FF0F9007080296A21F045
:1059A00008012962F86B7468D0F8001088470FFA74
:1059B00080FAE4B1B4F90E90D4F80080D145BCBFB0
:1059C000B4F90C108A450FDBD145B8BFB4F90C907F
:1059D0002146301DFFF706FC002022692075234672
:1059E000A46849465046A0475FEA0804E2D1FFF7A1
:1059F00047FF686A00F00C006862686A10F00C0FDC
:105A0000F7D139680A6ABDE8F0473520104770B50C
:105A100084B0FEF760FE3D4D0446287808BB68461A
:105A2000FEF772FE3A490A78019201218DF80810BA
:105A30000023384A3521281DFEF72AFE3648374B09
:105A4000816C21F0040181640322816C21F0080142
:105A50008164026009211A6816680220B04701209B
:105A600028702046FEF758FE04B070BD00B52C48E3
:105A700081B001680A68904700B201B000BD2DE90D
:105A8000F04381B00446089F0D4616469846FEF73F
:105A900022FEA581E681C4F8088081462761207D29
:105AA00028B921461F48FFF773FB01202075B4F980
:105AB0000E10B4F90C00FFF703FF4846FEF72CFE6A
:105AC000002001B0BDE8F08330B581B00446FEF798
:105AD00002FE0546207D012805D121461148FFF729
:105AE00081FB00202075FFF7CBFE2846FEF714FE51
:105AF000002001B030BD0000040900200C1300504C
:105B00002850094000FF0100B0010010745200202D
:105B10006B6400006D5900000050094084010010C2
:105B2000EC01001008090020DFF800F0E5EB02109E
:105B3000DFF800F0C1DD0210DFF800F0B1BF0210A5
:105B4000DFF800F021CD0210DFF800F0FDE60210D2
:105B500030B589B004460D4608232422002168464A
:105B6000FFF7E2FF01218DF818106A46294620460A
:105B7000FFF7DEFF204609B030BDFFF7E5BF00B5F7
:105B800081B0FFF7D9FF00280CBF4FF0FF30002095
:105B900001B000BDFFF7D4BF34480068000C00F02E
:105BA0000700072828BF4FF0FF30704730490968C9
:105BB000C1F30F314BF641324FF0FF30914208BF35
:105BC0000420704738B5FFF7F1FF28490B68DD0D59
:105BD00004284FF0FF34C3F34061C3F3006221D1C6
:105BE0001B0B03F00F03082B1BD0092B14D00F2B1A
:105BF00018D1E80704D500290CBF0D240E2411E0AC
:105C0000114218BF11240DD109B10F240AE0002A56
:105C10000CBF0B24102405E000290CBF09240A2422
:105C200000E00C24204632BD00000000104811495D
:105C300070B505680E682D0F06F0FF06802E28BF90
:105C40000026FFF7B3FF04284FF0FF340CD1032DDB
:105C50000AD8DFE805F0020204070A2404E006F18E
:105C60000B0401E006F1150460B270BD94120050FF
:105C700018130050A010005080B5FFF797FF0428BC
:105C800004D1FFF7D3FF142800DB01BDFEE70000BD
:105C9000DFF800F021D40210F8B504460B480C4F91
:105CA0000668F8690D4650F82510B1420AD1094836
:105CB000009029462046FFF7EBFFF86950F82510C1
:105CC000B14201D10020F2BD2046F2BD1C120000FD
:105CD0005011002088050020102803D302491038F5
:105CE000C1F8000F704700BF00E000E0DFF800F0EF
:105CF00011DC021070B5044600F02CFC0646A08AA8
:105D0000002501280AD1FFF7F1FF0546E068A168E8
:105D1000451BA9423EBF2069A8420025304600F03D
:105D20001AFC284670BDFEE7DFF800F019D7021014
:105D300010B50446034BFFF7F7FFA06800B9002435
:105D4000204610BD8805002001488068704700BFCC
:105D5000E4100020DFF800F091D8021038B50446B6
:105D60000D4600F003FC616A0D43656200F0FFFB25
:105D70002046BDE83240FFF7EDBF704730B51C4B01
:105D80001A685B6D0021C50704D5D40701D45B07F1
:105D900000D50121830703D5540804F001042143F1
:105DA000400703D5920802F00102114309B1012016
:105DB00030BD022030BD30B50D4B1A685B6D01213E
:105DC000C50704D5D40702D45B0758BF0021830759
:105DD00003D5540804F001042140400703D592087C
:105DE00002F00102114009B1012030BD022030BD96
:105DF0004021084030B5DFF8AC5495F83901002453
:105E000081B0002802BFDFF8A014887B00280CD0E6
:105E1000FEF761FC95F83B11002906BF012285F8C9
:105E20003B210124FEF778FC14B1002001B030BD05
:105E30000220FEF701FF0E20FEF713FFDFF86C14BF
:105E4000086810B1012001B030BDDFF864044022C1
:105E5000026042600120C861002185F83A110020EB
:105E600001B030BD2DE9F041DFF8481482B00020C8
:105E70000860DFF8304494F83A01002800F04081CF
:105E800001283FD1DFF830140D68DFF830140A68BC
:105E90004BF2F52045432D0A02F44022B2F5802F43
:105EA00013D1DFF81C0401688A030ED4DFF81464F0
:105EB000B06C01688847FFF774FCF16BCA689047C3
:105EC0002F09C010474305EBE73594F8400118B19E
:105ED000002184F8401106E0DFF8EC03006820F0B0
:105EE0007F402D186D08DFF8E403DFF8BC23056060
:105EF00001212D0C45608160907B002800F0B88066
:105F00000221FBE0022840F0B980DFF8AC0305680D
:105F1000DFF8BC03C16AC1F30721C4F8141101689A
:105F2000C1F38441C4F81811B5F5C061C069C4F863
:105F30001011C0F38120C4F8280103D1002084F897
:105F4000300191E094F8300168B9D4F81801D4F820
:105F50001421C4F82001C4F81C21C4F82C11D4F871
:105F60002801C4F82401D4F82C0100284CBF6FF09C
:105F70000101022100EB40000818D4F82011421062
:105F800000EB9270D4F81421C4F81C2101EBA0019D
:105F90000029C4F8201115DCD4F82401032805D108
:105FA0001531D8BF0121C4F8201124E00B31D8BF2E
:105FB0000121521E48BF0022C4F82011C4F81C2140
:105FC000032019E01E2919DDD4F8240138B9153948
:105FD0001E29C8BF1E21C4F8201103200CE00B3974
:105FE0001E29C8BF1E21521C3F2AC8BF3F22C4F829
:105FF0002011C4F81C210020C4F824010823B14E4C
:10600000D4F81C01B34F80B200904FF47F42D6F811
:1060100000C0DCF8048030213846C04701200090E1
:106020001123D6F800C0DCF804804FF400320421BC
:106030003846C047D4F8200180B200901223D6F829
:1060400000C0DCF804804FF4F80204213846C04751
:10605000D4F8240180B200903846366877680A2365
:106060004FF440622021B847A5F2FF55032D03D21B
:106070000620C4F83C0143E004213FE003283FD15F
:106080008D480068D4F81011A0F5C0600029C4F84C
:106090002C0148BF4942002848BF40428142A8BF66
:1060A000002028DA874DD4F814018A4E80B200907F
:1060B00008232F68D7F804C04FF47F4230213046C0
:1060C000E047D4F8180180B2009012232F68D7F867
:1060D00004C04FF4F80204213046E047D4F8280108
:1060E00080B2009030462D686E680A234FF44062FB
:1060F0002021B047012084F830010621C4F83C116A
:1061000002B0BDE8F04100BF2DE9F04782B0724C0B
:106110006C4DDFF8C081714EDFF8889142F62A2776
:1061200009E000BFC9F83C01032121600020706034
:1061300070688107FCD4D9F83C01062800F29980E8
:10614000DFE800F0048A6F774C542F0001213160A2
:106150000F22E2602761022000900723D5F800C0DB
:10616000DCF804A04FF4C07200214046D047D5F8B7
:1061700000C0DCF80CA007234FF4C0720021404699
:10618000D0470120306031688807FCD50121E161EA
:1061900099F8390100281DBF002131630120032037
:1061A000C0E700213160716031688807FCD47168F4
:1061B0008807FCD400213F4A3C4B11600120186045
:1061C0000E20FEF7E7FC0220FEF7CBFC0020C9F80A
:1061D0003C0189F83B0102B0BDE8F0870520C9F811
:1061E0003C010021716070688107FCD4002100919E
:1061F000032089F83A0104232C686768702240461E
:10620000B8472C68E5687023702200214046A847F3
:106210000120706002B009F15000BDE8F047FEF7C0
:10622000D6BA0320C9F83C0100217160706881076B
:10623000FCD400210091022089F83A0104232C6843
:10624000676870224046B8472C68E5687023702262
:1062500000214046A847DBE70120022189F83A01E6
:10626000009104232C686568702200214046A847ED
:10627000CEE7FEE71A4801688A07FCD509491648A7
:10628000D1F83C21012A07BF2021816101228261CE
:1062900000210160082206490A604A60012101606C
:1062A0007047000094070020CCCE000004800C4012
:1062B00038500C403C500C4008400C40B44F00504B
:1062C0008C130050A4010010102009407C600C4089
:1062D00004A00C4000A00C4000400C4054600C4056
:1062E00058600C40EFF3108072B67047EFF31080E7
:1062F00062B670470138FDD170477047D2B2203A7C
:1063000022BF41FA02F0C91770472032D141D04074
:1063100048409140D14048409140114170477047FA
:1063200013F0004C03D55B42524263F100039CEA38
:10633000210C00F0178010B5644603D34942404257
:1063400061F1000100F00EF8640004D349424042BC
:1063500061F10001244203D55B42524263F1000324
:1063600010BD0000D3BBD9B1B2F5803F5BD2022A89
:106370001ED98C46B1FBF2F102FB11C31B0443EAA8
:106380001043B3FBF2FC02FB1C3380B240EA034330
:10639000B3FBF2F002FB103240EA0C4000237047DE
:1063A000022A05D98446B0FBF2F002FB10C2704706
:1063B0004AB105D100F0010249085FEA3000704798
:1063C00000220023704700F00DB90B0002000021ED
:1063D00000207047F7D3002200237047904271EBF2
:1063E000030CF2D370B5B1FA81F4B3FA83F52C1B28
:1063F000A340C4F1200532FA05F63343A2405FF012
:106400000046E64002E05B085FEA3202841A71EB64
:10641000030524BF204629467641F4D302000B0031
:106420003000002170BD70B5B1FA81F4B2FA82F586
:10643000C4F120046419B4F12006DAD3B2405FF04D
:106440000044F440002502E052085FEA3303C61A14
:1064500071EB020E24BF3046714664416D41F3D3A7
:1064600002000B002000290070BD00FF62B38B0703
:1064700008D0521E11F8013B00F8013B00F02480C7
:106480008B07F6D1830740F0208000BF103A07D376
:1064900030B4B1E83810103AA0E83810F9D230BC66
:1064A000530724BFB1E80810A0E8081044BF51F812
:1064B000043B40F8043BD20724BF31F8022B20F8FC
:1064C000022B44BF0B7803707047121F17D35B0079
:1064D00009D151F8043B20F8023B1B0C121F20F895
:1064E000023BF6D20BE051F8043B00F8013B1B0ADB
:1064F00020F8023B1B0C121F00F8013BF3D238BFFF
:10650000121D521E24BF11F8013B00F8013BF8D8C0
:10651000704710B5044610460A460146204600F072
:1065200003F8204610BD01004018491C1CBFB1F102
:10653000010100F8012DF9D170470000DFF800F0EB
:1065400075E20210DFF800F0E7EC0210DFF800F06F
:106550001DF8021000E006E0EFF31180202181F326
:1065600011887047000080F311887047F4E7FAE75C
:10657000F2E7F8E71849C20744BF01230B6082071E
:1065800044BF4FF480730B60400744BF4FF4803228
:106590000A60704710B5114AC30748BF11608407ED
:1065A00048BF5160400748BF916010BDFFF7C6BFAC
:1065B00010B5044604F11000FFF7C6FAE06818B100
:1065C00004F10C00FFF7BEFF214605480068BDE856
:1065D00010405422FFF7BABF042009401820094098
:1065E00068CF000070470000CD4400219940002191
:1065F000B54000211F410021E1400021414500211B
:106600007D45002145410021514100215D4100218E
:106610007941002127460021C5410021DD410021AB
:10662000F5410021314200219B460021DB5A002127
:10663000074B0021DB0705D000F003F80249087082
:1066400070BD70B5014D2847E00400211D240200F3
:10665000074C657900F009F861796940490703D56D
:106660000121044A8903116070BD70B502490847D1
:1066700080030021081104402D59000000F019F892
:10668000E1B26C290BD0042801D0062807D10E49AD
:106690000978C90703D12178090700D402200B49E2
:1066A0000A780C21114202D0094980220A6003B005
:1066B000F0BDF0B583B0074908470448017840228F
:1066C0009143017004480047C800002133010021B4
:1066D00000E200E041160300231B030070B50047F1
:1066E00000F042FA00480047577F000000F042FAED
:1066F000004800471B8800000599880A802805D1BA
:10670000134988788007800F00F04CFA0048004752
:10671000D96E00000FB41048C188002902D010467D
:1067200000F040FA079B9B0A084D832B08D1084CC8
:1067300023899B0604D500F005F8002800D04235D7
:106740000FBC284770B50548004700001F0B02002A
:10675000600100211F0B020080030021EB090200F1
:10676000094B1A780824A243002800D022431A704B
:10677000004A1047838E000003490878000701D4BF
:106780000248004770470000800300215F7E000040
