:1000000000400120E9C2000039FB021039FB021058
:1000100039FB021039FB021039FB021039FB0210C8
:1000200039FB021039FB021039FB021039FB0210B8
:1000300039FB021039FB021011FB02100846704711
:1000400070470000002205F0B3BBF2060001F31573
:10005000010001F00207D6BE898E2B52FF1983FFE3
:10006000010CF1EF019701280970010100300E9099
:100070000203FF18641B2002785634120F33BAAB08
:1000800015B58FA10D43C5A70D63719B15C406015E
:10009000007C060020C5A7716110E118A101F50BD5
:1000A000F4611CC3283C251001252627BC30040020
:1000B00000500300201A5002250000700C625414F6
:1000C000F11601100375B90000930412950412C9CA
:1000D0000410035DB800007B04127D0412B3041009
:1000E00003E9BB0000FB0412FD04100B17BC000069
:1000F000B19100002B9200002D04129304100341D3
:10010000AA00005304125504438FAA7A83E5B582EE
:100110001007D388F30083880F00FF019302089A29
:100120002201DE10011772FCB0B20318636509FAF0
:10013000A3012C18A3001ED8E16410082460202E0F
:1001400063022801285390338AFF70900D2053C01A
:1001500003A30253019860F825A060261492F10CC5
:100160004003A9079C601B10B218701101100517FD
:1001700072600400207804128C04E39804ACA3623B
:1001800009944F78019C033001555555DEB2295032
:100190002325E50EE7E404A0F302180001317EB246
:1001A000054080028CD118053CF50B00500F1381DF
:1001B000200005200140B71DC104510004C0FF010B
:1001C0006510F51D0845A812607C1288041294047D
:1001D000E7A00508769208A3033818670010B52039
:1001E00002DE510B930BC2042020030091D391D364
:1001F000128803FF00184000F3B101D00307088004
:1002000080FE19FE0EFFDD041E7490038774063015
:100210003F85C13303116832141312941C21045218
:100220009C0483C01050597E1300B818F206B81C05
:1002300012D418F206D41C12F018210452F8044308
:10024000000704D003C011000008B7211012201CC1
:10025000210443A41004D601093001A3DF02661271
:100260004824210452500452580452600452680435
:1002700052700470013DC5029E220568D17C43C8BE
:10028000071312A008210452A80452B00452B80463
:1002900052C00452C80452D00452D804830000B0A3
:1002A0006204641A02DA424A1C8339EC886101E56F
:1002B000E920022408002004522C04523404523C49
:1002C00004524404524C0421781A4FA8F001FFEF65
:1002D000180001F11401A580F60E01431F514BF8DF
:1002E000051104531B4B2900012502015200011086
:1002F00007C0020020700700200111C30100011295
:1003000028182104D2000153FF7F1260016CDC0227
:100310001C5003DC060020030DF00401879B000045
:10032000CD9B50210152A050A11CA10CF301240827
:100330007052541420023411002004523C0412085C
:100340001583C8523012B60C12D404F300D85244AC
:1003500013200165F3010C515C2500000200100020
:0D036000000002C013000000028010002009
:1010000001000000000000000000000000000000DF
:10101000FFFFFFFF48070020040000000000000061
:101020000000000014000000D0C100001800000003
:1010300010C30000C01000009C0600200400000047
:10104000000000000000000024000000B8C1000003
:1010500018000000B599000008000000B011000061
:1010600074100000C1C8021001BB021091EB021005
:10107000DDE5021081E00210B9E5021071E5021011
:1010800030000000010000000200000018C3000052
:1010900000000000FFFFFFFF200700200400000009
:1010A000000000000000000028000000E4BF000075
:1010B000240000001E0000001800000000000000D6
:1010C00028130000D41000009BEC021025E202104F
:1010D00005EB021025DE0210FDE10210E1E4021032
:1010E000350000003400000024002900000000004A
:1010F0007C060020FFFFFFFF6807002004000000BF
:1011000000000000000000003800000080BE000069
:101110002800000001000000100000000807002067
:101120000000000099C0000000001A00100000003C
:1011300004000000D8C20000E281000008000000A6
:1011400036000000280700207007002009001D005D
:10115000B9130000C00600200100000000001200CA
:10116000FFFFFFFF58070020040000000000000000
:101170000000000010000000E8C10000180000009E
:101180000000000000001300FFFFFFFFD007002059
:1011900004000000000000000000000054000000F7
:1011A0007CBC00003C000000000001003400000096
:1011B00004100000975000002F000000F1B800005C
:1011C000B0110000D81100003DBB0000D9DB0210B7
:1011D00059EC0210CDD6021085DE02104DE502104A
:1011E00029E502102F000000000016000200000098
:1011F00000000000FF7F0000D8070020FFFFFFFF76
:101200005007002004000000000000000000000063
:1012100058000000B8BC00003400000039FB021088
:101220000100350006000000000000002000000062
:10123000010000001BF80210280000002813000025
:101240005012000093EC02106DEB02104DEC0210F6
:1012500029E00210BDE4021099E4021034000000FD
:1012600000000000F806002004000000000000005C
:10127000000000001000000084BD00002C000000F1
:10128000000000000000030000000F003C00000010
:1012900000000000000000002FF902101000000004
:1012A0000800000060C20000FFFFFFFF6007002091
:1012B0000400000000000000000000001C0000000E
:1012C00008C00000240000003C120000940600202A
:1012D0000400000000000000000000000C000000FE
:1012E000A0C1000018000000C3570000010000006A
:1012F00000000000080000000100000004000000E1
:1013000000000000000014000000000000C2000007
:101310000000190000001800240000004DC3000068
:101320000040000000020000041000000000100057
:1013300055F002100C000000EB99000000000000C6
:1013400074060020040000000000000000000000FF
:101350002000000054BD00003000000018C2000052
:1013600001000000699B00004350000000000000E5
:101370000000170000020000300000000000230001
:101380000000150001000000C0110000000700204F
:101390000400000000000000000000002000000029
:1013A000C0BF00002400000030C200000807002079
:0E13B000200000002CC000007047808A7047AB
:1013C0002D990000F39B0000F79B0000FB9B0000A1
:1013D000FF9B0000039C0000079C0000D5B70000A5
:1013E000EDBC000039BC000021BD000049C1000077
:1013F000DDBD000085C10000B1BD000049C2000094
:10140000C5C20000BD9F000070B504460D4602F045
:10141000A2FF2968002631B10A69A24208BF0E4620
:1014200009680029F8D102F0B7FF304670BDDFF837
:10143000DC1691F833000022030604D4582010FB78
:1014400002F28818704791F88B0001220306F5D547
:1014500091F8E30002220306F0D591F83B01032244
:101460000306EBD591F8930104220306E6D591F823
:10147000EB0105220306E1D591F84302062203069B
:10148000DCD591F89B0207220306D7D500207047D0
:101490002DE97043064614461D4602F05CFF6EB10E
:1014A000D6E90A2322432B43C6E90A23D6E9088951
:1014B00048EA040449EA0505C6E90845BDE8704361
:1014C00002F06ABF30B581B004460D4602F08AFCD6
:1014D000A04231BF241A641E241A641CA40805F516
:1014E0007A70A04238BFB4F1405F06D2641B012C71
:1014F00098BF0124204601B030BD002001B030BDAE
:10150000F0B5DFF8083604460025D3F8500301296A
:1015100081B022D100E00068002844D0C668377B43
:1015200007F00F07022F18D0006800283BD0C668CC
:10153000377B07F00F07022F0FD0006898B3C668FB
:10154000377B07F00F07022F07D0006858B3C66833
:10155000377B07F00F07022FDDD120B3012502B141
:101560001060C268167B06F00F06022E1BD10269BE
:10157000012903D1D168128D891807E01169D68A33
:101580008E1993F82213192212FB0161406BFFF7A9
:1015900099FF206002F045FF2168B1FBF0F0206068
:1015A00001B02846F0BD0020206001B02846F0BD03
:1015B000F0B581B0044602F0CEFE0546002C1CBFFB
:1015C000A07A002833D0DFF8483594F909001E6866
:1015D0000122F70702FA00F10ED5DFF838351B6853
:1015E0001E0609D5DFF830355E68113002FA00F0CA
:1015F000C04306405E6018600020A0722072206028
:101600006060C4E90400DFF80435A06194F90900C2
:1016100093F820638240324393F8220383F8202317
:1016200010B1401E83F82203C8B200F062F92846C8
:1016300001B0BDE8F04002F0AFBE00002DE9F04778
:1016400000261124DFF8D054DFF8C0944FF00108D1
:10165000F0B2032848DA09EB401000F53077B97A88
:10166000012941D197F90900113008FA00F0C1436E
:1016700029606A681043686097F9090008FA00FA5F
:1016800002F069FE99F894134AEA010189F894136B
:1016900002F082FE99F88403022817D107F11000A6
:1016A00002F0E2FE00F0FF0001280FD1B86948B156
:1016B00099F88413022909D102F0D6FE00F0FF0048
:1016C000012803D10220B8720EE000BF99F821036F
:1016D00097F9091004FA01F1084389F82103002160
:1016E00009F2044002F09AFF761C032EB0D3BDE845
:1016F000F08730B5042881B020D1DFF8104404F21F
:10170000544002F093FEC8B102F08BFE054604F28D
:10171000544002F089FE4543B5F5967F0ED204F29F
:10172000544002F096FE052003F0C6F8012084F82C
:101730009103042104F56D7002F070FF002001B0E8
:1017400030BD70B5044602F006FEDFF8C063054602
:1017500096F84C0320EA040486F84C430024D6F89B
:10176000280320B1B03002F061FE00B10124D6F8A8
:101770002C0320B1B03002F059FE044319D196F881
:101780004C03002808BF002C13D1D6F8480380B1C1
:1017900090F824108A070CD5046A284602F0FCFD54
:1017A000D6F8480300220221A0470020C6F84803CB
:1017B00070BD2846BDE8704002F0EEBDF0B40029CF
:1017C0000CBF01230023002A0CBF0125002500289F
:1017D00039D02C0004BF90F84440002C33D00029AD
:1017E0001CBF91F84440002C12D0446B0E6C07696A
:1017F0000969A408A4EB96040026B94218BFFE6844
:10180000A41B04F18054B4F1805F88BF012301D888
:10181000190018D0BAB1D1680C7B04F00F04022C67
:1018200011D1516B046C126900698908A1EB940114
:101830000024904218BFD468091B01F18051B1F116
:10184000805F88BF012503EA0500F0BC7047F0B552
:1018500081B01E466FF002078DF8007005463468AF
:101860002246FFF7ABFF10B101208DF800009DF973
:101870000000B84201BFE968087B00F00F000228B1
:101880000CD100E024684CB1226821462846FFF7BD
:1018900095FF0028F6D002208DF800009DF9001079
:1018A000B94204D1E86B10B104218DF800109DF904
:1018B0000070012F06D12946304603F07AFA3846E7
:1018C00001B0F0BD022F09D12268002A2946304616
:1018D00008D003F046FA384601B0F0BD042F03D11A
:1018E0002946304603F050FA384601B0F0BD0020DA
:1018F000704730B581B0044602F02DFD054683489F
:1019000090F8941321EA040480F8944390F8942307
:10191000110704D4082100F56D7002F07FFE2846FF
:1019200001B0BDE8304002F037BD2DE9F04FDFF8DF
:10193000ECAB81B09AF88413022905D101B0BDE85F
:10194000F04F192002F00BBD9AF8840301281CBF48
:101950009AF8840304287BD002F0FDFC0090002656
:10196000DAF850030024C0B1C1680A7B012402F0F8
:101970000F02022A11D101690A69C98A9AF8223331
:10198000406B5118192212FB0311FFF79BFD05460E
:1019900002F047FDB5FBF0F800E0B04600254FF03F
:1019A000FF390027F8B203281EDA0AEB401101F5CF
:1019B0003072907AC0B1107A012502281DD0DAF871
:1019C00098030169C08A9AF822330918192010FB7C
:1019D00003115069FFF776FD834602F022FDBBFB41
:1019E000F0F0484598BF81467F1C022FDAD92C427F
:1019F00005D046464E4507D905E0B146F7E70CB19C
:101A0000464601E005B14E462C4317D066B1012E83
:101A100098BF012631460AF2544002F016FD0AF240
:101A2000544002F014FD0DE00AF2544002F011FDA2
:101A300004210AF56D7002F0F1FD03E00AF2544052
:101A400002F007FD009801B0BDE8F04F02F0A4BC21
:101A500001B0BDE8F08F30B585B001460022039299
:101A600001920492029240F602058C68487D6280E1
:101A700023885B1B09D041F21E055B1B05D041F694
:101A8000E6755B1B012B0FD91CE0238A4FF6FF3252
:101A900013402382002819BF4FF60F4003402D202A
:101AA00060F3091323820DE0238B4FF6FF321340BE
:101AB0002383002819BF4FF60F4003402D2060F309
:101AC000091323830020487502AD009504AB01AAD9
:101AD00003A9204601F0A3FE50B1039801884FF6F8
:101AE000FF72914204D10299019801F00AFE03E0CD
:101AF0000299019801F04BFEDFF8200AD0F8AC13F0
:101B000009B10198884705B030BD0000E809002000
:101B10004021084000000440081004402DE9F0472F
:101B200084B00025DFF8F4890395D8F85063029556
:101B3000002E64D0D8F86403002804BFD8F86003EE
:101B4000002840D1012585F0010903AA494602A8D1
:101B5000FFF7D6FC040054D1DFF8C4094768002F12
:101B600018BF002C00F005830298002840F0018384
:101B7000D8F8641303980190CDF8009008F55673D7
:101B8000D8F8600308F55472B847012800F0C48102
:101B9000022840F0EE82D8F86003D8F86013B0F95C
:101BA00030400D6902F0D7FB4FF0FF318C420190BD
:101BB00047D1D8F86003002837D00069A84234D153
:101BC000D8F8606393E0D8F860030028BBD0D8F859
:101BD0006003016930698142B5D196F83310C806B7
:101BE000B1D50125D8F86003C16848880028F9D02C
:101BF000D8F86003C16848880128F3D0A3E7022120
:101C00003FE3002DA8D102980028A5D00146022963
:101C100038BF012108F2544002F017FC08F254408A
:101C200002F015FC04B0BDE8F087D8F8640328B1D1
:101C30000069A84208BFD8F8646358D0D8F8506348
:101C400055E0B8F930000021A04202BFD8F81030AA
:101C50000093AB4246D0B8F988000121A04202BFF0
:101C6000D8F868300093AB423CD0B8F9E0000221CC
:101C7000A04202BFD8F8C0300093AB4232D0B8F9CE
:101C800038010321A04202BFD8F818310093AB42BB
:101C900028D0B8F990010421A04202BFD8F87031D1
:101CA0000093AB421ED0B8F9E8010521A04202BF63
:101CB000D8F8C8310093AB4214D0B8F940020621DD
:101CC000A04202BFD8F820320093AB420AD0B8F944
:101CD00098020721A04202BFD8F878220092AA42B7
:101CE00040F01881582010FB01F108EB0106002E8E
:101CF00000F0108196F83300010640F10B81D8F80E
:101D0000600386421CBFD8F864138E426AD0D8F8AC
:101D100050434FF0000A00E02468002C00F0FA80E5
:101D2000B44211D02468002C00F0F480B4420BD0EF
:101D30002468002C00F0EE80B44205D02468002C0A
:101D400000F0E880B442E7D120692768A84234D186
:101D500002F001FBD4E90A2343F08051C4E90A21CF
:101D60000AF1010AD4E9082343F08051C4E90821AB
:101D700002F012FB02F0EFFAD4E90A2343F080717B
:101D8000C4E90A21D4E9082343F08071C4E9082199
:101D900002F002FB98F84C133069C8F8480341F090
:101DA000010188F84C1308F55470214603F016F829
:101DB000214608F5567002F0E7FF3C00C4D1BAF1A5
:101DC000000F1FBF98F88403012898F884030428A3
:101DD00000F0A080DFF82C1908F56D7002F01EFCF1
:101DE0000198F1E1D8F8600300224FF00053FFF7AB
:101DF0004FFBD8F8640300224FF00053FFF748FB75
:101E0000DFF8A80902F030FBD8F8604302F0A3FA2B
:101E10005CB1D4E90A2343F08071C4E90A21D4E912
:101E2000082343F08071C4E9082102F0B5FAD8F81C
:101E3000644302F090FA5CB1D4E90A2343F0807164
:101E4000C4E90A21D4E9082343F08071C4E90821D8
:101E500002F0A2FA98F84C133069D8F85063C8F829
:101E6000480341F0010188F84C13344600E024682F
:101E7000002C4FD0B4420ED02468002C4AD0B4427B
:101E800009D02468002C45D0B44204D02468002C2A
:101E900040D0B442EBD1002C3CD020692768A84246
:101EA00036D102F058FA0246D4E90A0141F08053D3
:101EB000C4E90A03D4E9080141F08053C4E90803E6
:101EC000104602F069FA02F046FA0246D4E90A0125
:101ED00041F08073C4E90A03D4E9080141F080733A
:101EE000C4E90803104602F057FA98F84C13306919
:101EF000C8F8480341F0010188F84C1308F5547004
:101F0000214602F06BFF214608F5567002F03CFFB7
:101F10003C00C2D1019857E1039800B10646B6F9DA
:101F20003040356902F017FA4FF0FF318C42074616
:101F300014D1D8F8600328B10069A84208BFD8F8C6
:101F4000606361D0D8F8640328B10069A84208BF73
:101F5000D8F8646358D0D8F8506355E0B8F9300029
:101F60000021A04202BFD8F810300093AB4246D007
:101F7000B8F988000121A04202BFD8F86830009368
:101F8000AB423CD0B8F9E0000221A04202BFD8F831
:101F9000C0300093AB4232D0B8F938010321A042DF
:101FA00002BFD8F818310093AB4228D0B8F990019D
:101FB0000421A04202BFD8F870310093AB421ED07A
:101FC000B8F9E8010521A04202BFD8F8C831009352
:101FD000AB4214D0B8F940020621A04202BFD8F8A3
:101FE00020320093AB420AD0B8F998020721A042F0
:101FF00002BFD8F878220092AA4240F0B880582058
:1020000010FB01F108EB0106002E00F0B08096F8FD
:102010003300010640F1AB80D8F8600386421CBF54
:10202000D8F864138E4261D0D8F8504300E0246899
:10203000002C00F09C80B44211D02468002C00F0E9
:102040009680B4420BD02468002C00F09080B442FB
:1020500005D02468002C00F08A80B442E7D12069C2
:10206000A84240F0848002F076F9D4E90A2343F0D4
:102070008051C4E90A21D4E9082343F08051C4E91E
:10208000082102F089F902F066F9D4E90A2343F045
:102090008071C4E90A21D4E9082343F08071C4E9BE
:1020A000082102F079F998F84C133069C8F8480310
:1020B00041F0010188F84C1308F55470214602F0F4
:1020C0008DFE214608F5567002F05EFE98F88403F6
:1020D00001281CBF98F88403042848D0DFF8241690
:1020E00008F56D7002F09AFA38466DE0D8F8600392
:1020F00000224FF00053FFF7CBF9D8F86403002219
:102100004FF00053FFF7C4F9DFF8A00602F0ACF976
:10211000D8F8604302F01FF95CB1D4E90A2343F018
:102120008071C4E90A21D4E9082343F08071C4E92D
:10213000082102F031F9D8F8644302F00CF95CB1DF
:10214000D4E90A2343F08071C4E90A21D4E90823C1
:1021500043F08071C4E9082102F01EF998F84C138D
:102160003069C8F8480341F0010188F84C1338463B
:102170002AE0002D00F089803069D8F89813884251
:1021800018BF4FF480617CD1002C1CBF029800283E
:102190001FD0D8F86003002804BFD8F864030028D3
:1021A00017D102F0D8F8044698F8940300F0F7002D
:1021B00088F8940398F89403010704D4082108F5DB
:1021C0006D7002F02BFA204602F0E6F804B0BDE88C
:1021D000F08702F0C0F898F8941341F0080188F8ED
:1021E000941302F0D9F896F83300C10608F554703C
:1021F00004D502F0A2FDC8F8640303E002F09DFDDF
:10220000C8F86003D6E90601DFF86048C043A06063
:10221000E268D6E906010243E260D6E90623DB4321
:1022200023606768D6E906010F436760DFF8C0796D
:102230007D68F4682B46180007D0387A010704D56A
:10224000D8F89803324608219847204602F00CF946
:10225000208840F60201401A08D041F21E01401ABF
:1022600004D041F6E671401A012808D83DB1387A09
:10227000C10704D5D8F8980322460121A8474FF09A
:10228000804108F56D7002F0C9F904B0BDE8F0872F
:102290002DE9F04FDFF88492DFF8580981B0D9F8C2
:1022A000608302F060F90646DFF8AC09046807684D
:1022B00004F02004344018BFB8F1000F07F4602781
:1022C00016D0C9F8688302F046F8D8E90A232343F8
:1022D000C8E90A23D8E908AB4BEA0405C8E908A510
:1022E00002F05AF84FF4804109F56D7002F096F94A
:1022F0003E400DD099F8211341EA564089F8210358
:1023000001B009F20440BDE8F04F002102F086B9A7
:1023100001B0BDE8F08F2DE9F043DFF8009281B005
:1023200099F82103002400284CD099F821030026B5
:10233000C1073DD599F821031021B140084218BFCB
:10234000012402F008F899F821131122B2409143B8
:1023500089F8211302F020F8032E33DA09EB461135
:1023600001F53072907A68B392F90980DFF8EC18C1
:1023700001EB8801002C0D681668576804BF107ABD
:10238000022803D1D2E90401C30009D41046FFF7A3
:102390000FF92CB10020009000224FF0007303E0F1
:1023A000009500224FF0006341463046B84709E0EF
:1023B00099F8210301268107BCD499F8210302264C
:1023C0004107B7D499F8210338B109F2044001B0AC
:1023D000BDE8F043002102F021B901B0BDE8F0836F
:1023E0002DE9F0430FF23C1285B0D2E90034CDE97B
:1023F00000344FF4804002F031F84FF00008F0B1A3
:10240000DFF85C08D0F813100078C1F315018008DC
:1024100041EAC0714148D0F89833986802AA01F0A7
:10242000A5FA3E48DFF8C817D0F898034B688268D1
:102430001C0004D00C7AE10744BF012198476E4686
:102440004FF0020937683868002855D03868D0E95D
:10245000060102F003F83D680021CDE902010446BF
:1024600001F079FF84467DB1D5E90A23DDE9020157
:1024700010431943C5E90A01D5E90823DDE9020142
:1024800010431943C5E90801604601F085FF14F0C7
:102490000A0F2AD03868DFF8C017DFF8C8378A6813
:1024A000DFF8B447D0E9060118408243A2603868DB
:1024B0002368D0E906018B4323603A68DFF83007D0
:1024C0004368190007D0017AC80604D5134CD4F824
:1024D0009803102198473968DFF88C0702F054FC04
:1024E0000020386048F0020806E02CB138680B493B
:1024F000C1F8680348F48048361DB9F10109A1D13B
:102500005FEA08011CBFDFF8640702F087F8FFF7F5
:1025100095F8FFF703FB05B0BDE8F083E80900205C
:1025200058080020480D00204C0D002030B5DFF881
:10253000404781B0B4F96C03B4F96E13884217D1E7
:1025400001F009FF054694F8940300F0F70084F8C1
:10255000940394F89403010704D4082104F56D70E2
:1025600002F05CF8284601B0BDE8304001F014BF2D
:1025700001B030BD0720FFF7E4B82DE9F041074670
:1025800082B0D7F8A060884614461D4606B1B04711
:10259000D7E926012040294008BF002800F08E809E
:1025A000DFF8CC56B5F930600024464502BF2A69F1
:1025B0000092BA4203D195F83320160663D4B5F9D8
:1025C00088600124464502BFAA6E0092BA4203D138
:1025D00095F88B20160656D4B5F9E06002244645DE
:1025E00002BFD5F8C0200092BA4203D195F8E3208B
:1025F000160648D4B5F938610324464502BFD5F81C
:1026000018210092BA4203D195F83B2116063AD41C
:10261000B5F990610424464502BFD5F870210092B7
:10262000BA4203D195F8932116062CD4B5F9E86186
:102630000524464502BFD5F8C8210092BA4203D10D
:1026400095F8EB2116061ED4B5F9406206244645DE
:1026500002BFD5F820220092BA4203D195F8432256
:10266000160610D4B5F998620724464502BFD5F87E
:1026700078220092BA4203D195F89B22160602D422
:10268000C7E92A0110E0582616FB04F4C7E92A011D
:102690002C44D4E9082322EA000023EA0101C4E91A
:1026A0000801D7F8A050A5600020C7F8A00002B02C
:1026B00007F14800BDE8F04102F0FABB02B0BDE806
:1026C000F081704700B581B001F0A6FFDFF8A025CA
:1026D0000146D2F89803D2F8882301B05DF804EBE4
:1026E0001047DFF88C050FF29552D0F8881391420D
:1026F00008BFFFF71AB9042100F56D7001F08EBF15
:10270000000000000200004030B581B04FF0FF3003
:1027100001F0A4FEDFF858550FF261510446D5F8D8
:102720008803884232D10022DFF8FC1B05F57A705D
:1027300001F017FE022085F88403D5F898138A6803
:1027400001F1300300E00246506890B198421EBF8C
:102750000246506800280CD098421EBF02465068BE
:10276000002806D098421FBF0246506800289842B1
:10277000E9D1507B10F00F0F02BF488E40F60901DF
:10278000884203D0FEF75AFFFFF7C8F9DFF86C0C58
:10279000044208D005F56D7001B0BDE830404FF03F
:1027A000005101F03BBF01B030BD00000100010449
:1027B00000B581B04FF0FF3001F050FE800708D522
:1027C00001B05DF804EB4FF40061DFF8A00401F004
:1027D00025BF01B000BD2DE9F041DFF89474D7F8B2
:1027E0005863002E00F0AB80F068082140F6040228
:1027F00040F6030301E04068491E68B1CCB25CB109
:1028000004889C4218BF9442F5D1316901F130022D
:102810001AC81AC21AC81AC2D6E90A450022C6E95D
:102820000A22B068D0B115F0E24310D024F00F02B4
:1028300035F0E24308BF002A05D0B6F93010306900
:10284000D6F808C0E04704F0000405F0E245B6F908
:10285000301030692246B4682B46A04701F07BFD5A
:102860000446B7F86E03401CC0F30B00A7F86E03D4
:102870006FF00201002086F83300318607F55670AC
:1028800002F05BFA204601F087FDB7F96E03B7F955
:102890006C13884253D1D7F89823D7F82863D7F818
:1028A0002C5392F8F4100024A046052001B1072013
:1028B000FEF747FF2EB196F8F40000B9346886F8A9
:1028C000F4803DB195F8F40008B9D5F800800020F7
:1028D00085F8F400444538BF4446E4B9B7F96C03C1
:1028E000B7F96E1388422AD101F035FD044697F8F6
:1028F000940300F0F70087F8940397F89403010716
:1029000004D4082107F56D7001F088FE2046BDE86B
:10291000F04101F041BD14F1010F10D001F081FD33
:10292000B4FBF0F1012998BF012107F5936001F094
:102930008CFD07F59360BDE8F04101F088BDBDE86E
:10294000F081CB4A92F884130020022904BFD2F808
:102950006013002903D1D2F8641301B90120704734
:1029600030B50D46A80781B0C14C12D5FFF733FF33
:10297000D4F8580340B145F0020104F56D7001B080
:10298000BDE8304001F04ABE01B0BDE83040FEF77E
:10299000CCBF680767D5012184F89613042001F0A5
:1029A0008BFFDFF85C0A01680A6B9047C4F89C0350
:1029B000D4F8500398B10569D4F89803002818BFDB
:1029C000A8420AD095F82400410704D52B6A0022BA
:1029D00004212846984701206875C4F89853D4F814
:1029E00098034168DFF81C0A0A780260022001F0AF
:1029F00063FF112001F075FF012084F884037C49F6
:102A0000887810B90E2001F06CFFD4F89803416863
:102A10008868002804BFC868002806D0DFF8A80C22
:102A2000DFF83C2C0021C16102600720DFF8601C48
:102A300008600021DFF8900C426941618269816180
:102A4000426942F0402242F0020242610FF221004C
:102A5000C4F888031A2001F080FC01B0BDE83040C2
:102A6000192001F07ABC01B030BD0000081004400C
:102A70002DE9F0430446880081B040F1B680DFF8CC
:102A8000F081D8F89803416848688E68CF680100E3
:102A900018BF80473000DFF8305C01D138000ED01D
:102AA000E8690028FCD00021E961300018BFB04778
:102AB000380018BFB847DFF8140C01F0D5FC00202F
:102AC000E86140F60A09DFF8081C2960A8F870934D
:102AD000A8F8720398F87C1301F0F00188F87C13D1
:102AE000C8F87403204698F87D1301F0F00141F016
:102AF000010188F87D13FEF7AEFFA668374640F661
:102B0000040140F6030200E00746786828B1038814
:102B10004B451CBF93428B42F6D17B7B08F55C7022
:102B2000786003F0F0037B73D8F85003D8B1C06825
:102B30000088904218BF884215D10021C8F89C1324
:102B4000E8690028FCD00021E9610FF2311298F801
:102B50009103C8F8882328B301F038FF0028FBD080
:102B600001F051FF2FE0208E0028E9D0002161867E
:102B7000616394F83D0094F83C1000F0F00040F0E0
:102B8000010084F83D0001F0F00184F83C1004F1EC
:102B90003000C8F8740398F87D1301F0F00188F84C
:102BA0007D13CDE733490A6813680120984701284F
:102BB00009D0787B00F0F00040F0010078730FF24C
:102BC0003900C8F888030021E9612E602A4843686B
:102BD00019000AD0007AC10707D5D8F89803324601
:102BE00001B0BDE8F0430121184701B0BDE8F08312
:102BF000F8C2000020000E00DFF8D82A114200D1F0
:102C0000704710B51B490A681368012098470128CE
:102C10000DD1DFF8C40A0FF26501C0F88813002255
:102C2000DFF8A41ACA6100F55C70086010BD01F0FD
:102C3000F8FB3221B1FBF0F10129DFF89C4A98BF83
:102C4000012104F2544001F000FC04F25440BDE8BC
:102C5000104001F0FCBB00000C1004409430044014
:102C600085030021FDBFFFFF400D00209C0D0020CB
:102C7000E8090020E0010010F8C200002DE9F04F43
:102C8000044688465FEA484083B0DFF84C9A2CD56A
:102C900001F061FBD9F8686316B3D6E90A2302F0A4
:102CA0000A0413F0E04508BF002C19D1D6E90A4503
:102CB000D6E90A23A243AB43C6E90A2301F06CFB21
:102CC000B06878B1002D08BF002C0BD0B6F93010D9
:102CD00030692246B4682B46A04728F4804815E3A3
:102CE00001F05AFB28F4804810E35FEA880040F1C5
:102CF0008280DFF8E809D0F88C1041F08001C0F83C
:102D00008C1099F8960328B1042001F06AFD002088
:102D100089F8960301F01FFBDFF8E4A6DAF85410F7
:102D20000A6805460420904700281CBF207D002823
:102D30001FD0D9F89C03E0B10746DAF800002669F5
:102D4000016B8847874231BFC71B401EC71B7F1CD2
:102D50003F0BB742276102D2F6197608266140F68A
:102D600099012069A0F59670884224BF40F6C410EE
:102D70002061284601F010FBD9F898138A6801F108
:102D8000300300E00246506890B198421EBF0246F0
:102D9000506800280CD098421EBF02465068002898
:102DA00006D098421FBF0246506800289842E9D1D9
:102DB000507B10F00F0F02BF488E40F60902904280
:102DC0000FD1E56900224FF000736FF48071204647
:102DD000A847D9F8500310B1FEF7A7FD01E048F06D
:102DE00002082046A46900224FF080630021A0471A
:102DF00028F000588AE25FEA887009D5FFF7EBFCFB
:102E0000D9F85803002840F0818228F002087DE2BA
:102E10005FEA485040F1B48001F09DFA0546FFF7A3
:102E200090FDD9F85043012840F0A480002C00F018
:102E3000A180042089F884030022DFF8281B09F50B
:102E40007A7001F08EFA284601F0A6FA09F593602F
:102E500001F0FFFADFF8A80501680A6B9047C9F88E
:102E6000A003012089F89603042001F025FD2069C4
:102E7000C9F8980390F824104A0703D5036A002282
:102E800004219847D9F89803DFF83C5841688E68C8
:102E9000CF684868002E08BF002F04D00021E961E8
:102EA000DFF8BC272A6008B1C046C046002E08BF24
:102EB000002F0CD0E8690028FCD00021E96106B1A0
:102EC000B04707B1B847DFF8040801F0CDFAD9F8E8
:102ED00098030121417540F60A06FEF7BCFDD9F8BA
:102EE00098339A68114640F6040C40F6030E00E051
:102EF0000146486828B10788B7421CBF7745674537
:102F0000F6D1002048604E7B06F0F00646F0010640
:102F10004E73E0680088704518BF604503D10020FB
:102F2000C9F8A00315E0188E98B103F13000002411
:102F300044804460047B04F0F0040473447B04F098
:102F4000F00444F0010444734860487B00F0F00052
:102F500048730020E8612A60DFF80C0A4468210009
:102F60000BD0007AC10708D501211846A04728F4E4
:102F70008068CBE1284601F00FFA28F48068C5E1AB
:102F80005FEA085163D599F8960328B1042001F04F
:102F900028FC002089F89603D9F8984304F1080129
:102FA00004F130050B6800E00346586890B1A84270
:102FB0001EBF0346586800280CD0A8421EBF034617
:102FC0005868002806D0A8421FBF0346586800284A
:102FD000A842E9D1587B10F00F0F02BF488D40F690
:102FE0000902904207D12046E46900224FF00073A5
:102FF0006FF48071A047D9F8A00398B1DFF80014EE
:103000000868026B9047D9F8A013814231BF401A7B
:10301000401E401A401CD9F89813000BC8600020CD
:10302000C9F8A0030022C04909F57A7001F099F9A6
:10303000022189F88413D9F8580318B109F56D7085
:1030400001F0ECFAFEF771FC28F400685EE15FEA3B
:10305000087040F1548101F07EF90190FFF771FC96
:10306000002800F0448199F89403010700F13F81A2
:1030700099F89403010600F13A81D9F8500300242D
:103080000025C8B1C1680A7B012502F00F02022A9F
:1030900012D101690A69C98A99F82233406B511823
:1030A000192212FB0311FEF70DFA064601F0B9F9D9
:1030B000B6FBF0F1009100E0009400264FF0FF37DE
:1030C0004FEA040A5FFA8AF002281FDC09F5307122
:1030D00001EB4012907AC8B1107A0126022820D064
:1030E000D9F898030169C08A99F822330918192080
:1030F00010FB03115069FEF7E5F9834601F091F9E1
:10310000BBFBF0F0B84298BF074600BF0AF1010AC6
:10311000BAF1030FD6D3354205D0009CBC4207D983
:1031200005E00027F7E70DB1009C01E006B13C4641
:10313000354302D0002C00F0DA8099F821030028F2
:1031400040F0D58000260125F0B202281FDC09F5E9
:10315000307101EB4011887AC8B18D7291F9097014
:1031600001F0F9F8044699F8940305FA07F720EA04
:10317000070789F8947399F89413080704D4082171
:1031800009F56D7001F04AFA204601F005F9761C48
:10319000032ED9D3032089F8840309F5936001F045
:1031A00058F90198DFF8204501F0F6F86069002130
:1031B00061610022E068E16009F57A70DFF8201CA7
:1031C00001F0CFF88E4801680A6B9047D9F89C133C
:1031D000814231BF401A401E401A401CD9F88C135E
:1031E0004FF0FF32A2EB10328A4234BF4FF0FF3073
:1031F00001EB1030C9F88C0399F8900330B1D9F87D
:10320000A403D9F88C13C00288422FD2DFF8CC0473
:103210000268D10725D5DFF8300C0068010620D5FB
:1032200040F60900A9F870030021A9F8721399F873
:103230007D0300F0F00040F0010089F87D0399F86B
:103240007C0300F0F00089F87C03C9F87413E16195
:1032500009F55C71216000BFB9F8720310F4406F8A
:10326000FAD0002189F89053C9F88C1301F009F9BC
:10327000DFF81C14DFF8F0460020086063681800CF
:1032800007D0207A810704D5D9F8980300220221BB
:103290009847022001F0A5FA112001F0BBFA99F835
:1032A000950320B9D9F89803483001F001FEA078C1
:1032B00010B90E2001F0AEFA99F8910328B100215F
:1032C00089F89113052001F08CFADFF8580CC9F841
:1032D0008803002189F884130220B9F96E13B9F923
:1032E0006C23914208BF0720FEF72BFA02E00198F9
:1032F00001F052F8FEF719FB28F0080806E05FEA33
:10330000480003D5FEF711FB28F08048B8F1000F04
:1033100007D0414609F56D7003B0BDE8F04F01F0EC
:103320007DB903B0BDE8F08FE12300002DE9F54C35
:10333000DFF8A4A3DAF8504381B09B4600250E467F
:1033400000E02468002C55D0B4420ED02468002C34
:1033500050D0B44209D02468002C4BD0B44204D0E1
:103360002468002C46D0B442EBD1002C42D0206916
:1033700001992768884237D100F0EDFFD4E90A238C
:1033800043F08051C4E90A21D4E9082343F0805175
:10339000C4E9082101F000F8BBF1000F18D000F0DB
:1033A000DAFFD4E90A2343F08071C4E90A21D4E9A1
:1033B000082343F08071C4E9082100F0EDFF9AF87A
:1033C0004C133069CAF8480341F001018AF84C13E4
:1033D00021460AF5547001F001FD21460AF55670A8
:1033E00001F0D2FC15F101059DF80800002818BF76
:1033F0003C46BAD1284603B0BDE8F08C020000403C
:103400008C010010D02108402DE9F0479246032698
:10341000BAF1000F84B081461D4614BF4FF08047BB
:103420004FF000570C4600F096FF4FF0FF318C42F2
:103430000190DFF8A48256D1D8F86003002846D066
:103440000069484543D1D8F86043002C00F0018161
:1034500094F83300010640F1FB808DF800500C9E7B
:10346000D8F8600384421CBFD8F864138C4240F043
:10347000D880D8F8605300F06EFF84464DB1D5E98E
:103480000A013943C5E90A01D5E908233B43C5E9E7
:103490000823604600F080FFD8F8645300F05BFF1B
:1034A00084464DB1D5E90A013943C5E90A01D5E998
:1034B00008233B43C5E90823604600F06DFFBAF1DD
:1034C000000F14BFDFF8600ADFF8600A67E0D8F881
:1034D000640328B10069484508BFD8F86443B4D0F4
:1034E000D8F85043B1E7B8F930100020A14202BF2C
:1034F000D8F8103000934B4505D1582111FB00F04E
:1035000008EB0004A1E7B8F988100120A14202BF2E
:10351000D8F8683000934B45EFD0B8F9E01002209E
:10352000A14202BFD8F8C03000934B45E5D0B8F9AE
:1035300038110320A14202BFD8F8183100934B453F
:10354000DBD0B8F990110420A14202BFD8F8703145
:1035500000934B45D1D0B8F9E8110520A14202BF34
:10356000D8F8C83100934B45C7D0B8F940120620AF
:10357000A14202BFD8F8203200934B45BDD0B8F924
:1035800098120720A14202BFD8F8782200924A453B
:103590005FD1582111FB00F008EB000455E700F063
:1035A00063FF96B3D8F8605300F0D5FE02465DB1D4
:1035B000D5E90A0141F08073C5E90A03D5E908019C
:1035C00041F08073C5E90803104600F0E5FED8F825
:1035D000645300F0C0FE02465DB1D5E90A0141F036
:1035E0008073C5E90A03D5E9080141F08073C5E994
:1035F0000803104600F0D0FE98F84C132069C8F874
:10360000480341F0010188F84C139DF80000E8B12F
:103610000246D8F8501333464846FFF787FE832604
:1036200017E033462A4621464846FFF77FFE78B129
:1036300098F8840301281CBF98F88403042805D057
:10364000DFF8681A08F56D7000F0E8FF832600E0E7
:103650000426019800F0A0FE304604B0BDE8F087D3
:103660005100070610B50C461B4991F88423022A25
:103670000BD100F0F9FE04B1206000F0FF0001283A
:1036800001D1812010BD022010BD012010BD00001D
:1036900000000460F0B581B004460D46164600F007
:1036A0005AFE07460C48D0F898138C4218BF0324E2
:1036B00004D131462846FFF7D5FF0446384600F0CE
:1036C0006BFE204601B0F0BD00100440010007066B
:1036D00001010E0404000020E809002040210840F8
:1036E00030B5144681B00546502340F2FF3200F059
:1036F000E5FE24B1014655F82110890A216001B088
:1037000030BD002942D00A0E202A08BF10221AD04C
:10371000212A08BF202216D0A02A08BF302212D0AA
:103720000AB940220FE0102A08BF50220BD0112AFC
:1037300008BF602207D0402A08BF702203D0502A59
:103740000CBF802290228901090A42EA012141F03E
:103750000F0100E0001D026812F1010F18BF8A423C
:103760001CBF50F8042F12F1010F0ED08A421CBF6B
:1037700050F8042F12F1010F07D08A421EBF50F8F3
:10378000042F12F1010F8A42E4D101607047002931
:1037900044D00A0E202A08BF10221AD0212A08BFBE
:1037A000202216D0A02A08BF302212D00AB9402207
:1037B0000FE0102A08BF50220BD0112A08BF602248
:1037C00007D0402A08BF702203D0502A0CBF8022A5
:1037D00090228901090A42EA012141F00F0100E02B
:1037E000001D026812F1010F18BF8A421CBF50F879
:1037F000042F12F1010F0ED08A421CBF50F8042F83
:1038000012F1010F07D08A421EBF50F8042F12F1A7
:10381000010F8A42E4D14FF0FF31016070472DE97A
:10382000F04381B00546089C0E461746994601F0C4
:1038300057FB0E2803D001F053FB0F2849D12888ED
:1038400040F6020188424FF0010860D0B0F5C15F38
:103850006AD043F60601884273D005F11A0232603D
:10386000E8693860A96AC9F80010E86A206095F82C
:1038700024702D7ED9F8000005F0070588B10523D6
:103880004FF6FF7240F2037100F018FE0646052E57
:1038900007DA2946384600F029FED9F8001041F829
:1038A0002600206878B305234FF6FF7240F20371BB
:1038B00000F004FE8146B9F1050F24DAFF213846F5
:1038C00000F014FE216841F82900404601B0BDE82F
:1038D000F083288840F60201884218BFB0F5C15F26
:1038E0004FF0000839D043F60601884207BF05F1C2
:1038F0001A00306005F11A023260E8693860C9F8D0
:103900000080C4F80080404601B0BDE8F08305F1B6
:103910001202326068693860A969C9F80010E86964
:103920002060EF7B2D7CA5E705F11200306069690E
:103930003960686AC9F80000A96A2160EF7B2D7CB4
:1039400098E705F11A003060E96939600027286AB4
:10395000C9F80000696A21608BE705F11200306048
:103960006869CBE7B1270000F8C200002DE9F041FB
:1039700086B015460C4600220292049203920192F0
:1039800001A9009103AB04AA02A9FFF748FF83260F
:10399000E20F30D130B3039800281CBF01980028F3
:1039A0001AD00298048040F22B28039F41463846E3
:1039B000FFF796FEFF281CBF48EA842147F8201035
:1039C00001990498FFF7E3FE1520288030460399FB
:1039D000696006B0BDE8F081029801884FF6FF7279
:1039E000914249D002980480102129806C80304691
:1039F00006B0BDE8F08100283ED0039800281CBF27
:103A0000019800281CD002984FF6FF710180002217
:103A1000019F2B213846FFF763FEFF2804D0A40244
:103A200044F02B0447F8204001990498FFF769FE01
:103A30001520288030460199696006B0BDE8F08104
:103A4000049F00222B213846FFF74AFEFF2804D0AE
:103A5000A10241F02B0147F82010FF280CD0029959
:103A60004FF6FF70088014222A80C4F315046C609E
:103A7000304606B0BDE8F0810326304606B0BDE80A
:103A8000F0812DE9F043DFF89C8789B00C001546E2
:103A9000D8F8081018BF002D1F4600F0F4802278D7
:103AA000D140CB0740F1EF80064600212846002098
:103AB000C046B560746000F04EFCDFF880960546A5
:103AC00099F89503022880F2DB80002840F0868078
:103AD00000F0B5FDDFF85007DFF85047016841F00E
:103AE00002010160DFF84807C8F80000684600F0EE
:103AF0005DFD6078DFF83C1702906A4609F56D704D
:103B000000F05CFD6A46DFF8301709F2044000F06F
:103B100055FD684600F038FC2078B14A01906B46AC
:103B2000192109F57A7000F0F3FB6B46DFF80C27DA
:103B30001A2109F5876000F0EBFB00230022DFF873
:103B4000001709F2544000F045FC00230022DFF882
:103B5000F41609F5936000F03DFCDFF8EC0601680F
:103B6000C1F3814038B10023DFF85427042109F262
:103B7000DC4000F020FEA078012804BF0E2000F0F9
:103B8000B0FE09F5567001F0CDF809F5547001F05A
:103B9000C9F8002089F88403C9F88C0300210720A4
:103BA00089F8901389F8911389F82003C9F89C13B8
:103BB00000200521C9F8A003C9F8A41389F89403CB
:103BC000D849C9F888136368180007D0207A4107DC
:103BD00004D5D9F8980300220421984799F8950351
:103BE00009EB8002401CC2F8286389F895033C4623
:103BF000284600F0D1FB3CB90FF2205191E8BC51AE
:103C0000684680E8BC516C46206830604FF4FA7119
:103C1000F160A06970620120218AF1827075E1690A
:103C2000F162606818B130610020307504E040F640
:103C3000C410012130613175DFF88806F06130620F
:103C4000B061E06800B1F061606900B13062A06805
:103C500000B1B061C82106F13000FCF7F3F9002192
:103C600006F1480001F002F900230022DFF858169F
:103C700006F1B00000F0AEFB304609B0BDE8F083BD
:103C8000284600F089FB002009B0BDE8F083F0B5BC
:103C9000DFF8A84494F89513002981B000F09E80C5
:103CA000B4F96C13B4F96E23914205461BD004F5A8
:103CB0005471FDF7A9FB68B9D4F8600328B1006915
:103CC000A84208BFD4F8600304D004F55671284612
:103CD000FDF79AFB38B1B0F930100A224FF0E043FB
:103CE000284600F025F900F036FB0646D4F82803F4
:103CF000854207BF0021C4F828130020C4F82C0314
:103D000094F89503401E84F89503C0B2002850D162
:103D1000C4F8985394F88403022820D100F01BFBC8
:103D2000074694F8940300F0F70084F8940394F89D
:103D30009403010704D4082104F56D7000F06EFCB3
:103D4000384600F029FB304600F026FB4FF0FF31EB
:103D500005F1480001F0A1F800F0FDFA064604F56F
:103D60006D7000F055FC04F57A7000F0F2FA04F280
:103D7000044000F04DFC04F5876000F0EAFA04F21C
:103D8000544000F04AFB04F5936000F046FBD4F881
:103D9000B01311B104F59E60884704F2DC4000F0D6
:103DA000F2FDDFF888048178012904BF0E2000F0BD
:103DB00031FDD4F89803A84204BF0021C4F8981339
:103DC000304600F0E9FA05F1480001F064F805F129
:103DD000B00001B0BDE8F04000F01FBB01B0F0BD85
:103DE000092700002DE9F04D00F0B5FADFF84C434B
:103DF00094F8841302291CBF94F88413042907D172
:103E0000DFF8C824146800F0C7FA2046BDE8F08D3A
:103E100000F0C2FADFF8B804DFF8B88401680A6B72
:103E2000904710F5003641F1000AD4F88013A8FB42
:103E3000067B002008FB0ABB3C184BEB01052C4617
:103E40002046BDE8F08D0000000004402DE9F04F51
:103E500081B005460F4693469A4600F07CFA8146AB
:103E6000FDF7E5FA04006FF0010654D00095DDE996
:103E70000A68DFF8C85205F5936000F0EAFAB5F871
:103E80006C03DFF85424401CC0F30B00A5F86C034E
:103E9000E76084F832B0C4F808A02023B5F86C03BA
:103EA000208632400099216108EA030342F00206AD
:103EB000C4E9066300200021C4E90801802284F8D7
:103EC00033202064606384F8441084F838104FF085
:103ED000FF30A164E16484F8501084F85110E0636D
:103EE000397B01F00F01022904D1012084F8380048
:103EF000B96861630020009981F8F400214605F556
:103F0000547000F041FFD5F85003A04208BFFDF700
:103F10000CFDB4F93060484600F03EFA304601B07E
:103F2000BDE8F08F612900000100020401000104D6
:103F3000F0B506460F46380081B014461D4603D53D
:103F40000020002101B0F0BD00F064FBDFF8EC219F
:103F5000B2F930300021BB4202BF13690093B34273
:103F600003D192F833301B0660D4B2F988300121B6
:103F7000BB4202BF936E0093B34203D192F88B30E1
:103F80001B0653D4B2F9E0300221BB4202BFD2F883
:103F9000C0300093B34203D192F8E3301B0645D4FE
:103FA000B2F938310321BB4202BFD2F81831009375
:103FB000B34203D192F83B311B0637D4B2F99031AA
:103FC0000421BB4202BFD2F870310093B34203D147
:103FD00092F893311B0629D4B2F9E8310521BB428E
:103FE00002BFD2F8C8310093B34203D192F8EB314B
:103FF0001B061BD4B2F940320621BB4202BFD2F8E5
:1040000020320093B34203D192F843321B060DD401
:10401000B2F998320721BB4202BFD2F878720097FA
:10402000B7420BD192F89B723B0607D5582313FB7E
:1040300001F1571897F833100A0605D400F0F0FA8A
:104040000220002101B0F0BDD7E9082344F00A04A2
:1040500045F0E04522402B4008BF002A0ED000F07A
:10406000DFFAD7E9080120402940C6E92A01D7E94B
:10407000082382438B43C7E9082312E0BA68DFF8BC
:104080005C128A4203D0BA68C6F8A020B960C6E9BB
:10409000264500F0C5FA4FF0FF3106F1480000F068
:1040A000FCFED6E92A0101B0F0BD0000020000408C
:1040B000D0B582B00446DDE90667CDE90067FFF7B9
:1040C000C5FE0146204602B0BDE8D0400A224FF0AE
:1040D000E0432DE700B581B0930803F0010300939E
:1040E000530803F0010302F00102FFF78DF901B05C
:1040F00000BD00B581B0930803F00103009302F006
:1041000001020123FFF780F901B000BDF0B500BF47
:1041100002A191E8FC5080E8FC50F0BDFFFFFFFFDA
:104120000000000000000000000000003A013A0119
:10413000000000000000000000000000E80900206E
:104140002DE9F04B0E4682B096F904803468834620
:10415000174600F000F9DFF8882192F8201300904C
:104160006FF001094FF0000C5FF0010303FA0CFE41
:1041700011EA0E0F50D04FF0FF35A84518BFE045AB
:104180004AD15FFA8CF0032846DA02EB401505F5B8
:104190003075A87A00283FD121EA0E0082F820036A
:1041A000AB7285F809C00A2192F82203401C82F8FC
:1041B0002203C5F800B02B720023424868602982B0
:1041C00095F90900401DA874B06868617FB13B781B
:1041D00078785B0143EA800395F90900401D43EAC2
:1041E00000234FF6FC710B40DFF8F8000343AB618E
:1041F00004B16C60D2F8980310B92968C2F898131A
:10420000FDF793FB95F90990009800F0C5F8484632
:1042100002B0BDE8F08B00BF0CF1010CBCF1030F44
:10422000A4D3F1E7CC21084000200940F8C20000E7
:10423000110000E0C52600001723000091220000B5
:10424000E32600002D250000B44F0050F0B581B0EA
:1042500006460F46802400F07EF8FFB2032F054685
:1042600027DADFF87C3003EB471101F53077B87AB5
:10427000F8B13968B1421CD193F88403022812D1F5
:1042800097F90910D3F89803491D0906090C41F064
:104290008161002241F00101FFF7FCF90446384634
:1042A000FDF786F905E03846FDF782F9FDF73DFB9D
:1042B0008124284600F070F8204601B0F0BD0000CF
:1042C000F3160000C32600007525000004300440EA
:1042D0008C01001000093D00FFEFFF9F7B250000CF
:1042E000E809002001000406DFF800F055EB021099
:1042F000DFF800F047EC0210DFF800F049EB0210A5
:10430000DFF800F075E40210DFF800F01DD90210AC
:10431000F0B51C008DB005460E46174604D10023AB
:1043200000F048FE0DB0F0BD0823302200216846A1
:10433000FFF7E2FF206805906B46606808903A46F8
:10434000207AADF818003146284600F033FE0DB053
:10435000F0BDFFF7D5BFFFF7C7BFFFF7D5BF00F030
:1043600049BEF0B581B004460D461646FFF7BCFFC6
:10437000074632462946204681604260384601B0F1
:10438000BDE8F040FFF7B4BF002101604FF0FF32FD
:104390000123426003727047FFF7AABFDFF800F005
:1043A0008DDD0210DFF800F09DEB0210DFF800F069
:1043B00049E60210DFF800F0FDE90210DFF800F036
:1043C000C3EC0210DFF800F0E7E90210DFF800F0BC
:1043D000C5E20210F0B51C0089B005460E4617462E
:1043E00005D10023FFF7DAFF284609B0F0BD082306
:1043F000242200216846FFF7D5FFA16806916B468D
:104400002278ADF810203A4660680590314628467B
:10441000FFF7C4FF284609B0F0BDFFF7C7BFFFF79D
:10442000C9BF0D480068704700F0F2BD00B581B00B
:10443000FCF7C3FF401E8041C043C00F01B000BD68
:1044400000218160017041607047FFF7B7BFFFF73F
:10445000B9BFFFF7BBBF00003CC3000045490A6875
:104460001040C2430A607047434A11680029FCD1DA
:104470000023D3611060D0690028FCD0D16150685E
:1044800070473E48016821F0020141F40871016063
:1044900003213B48016041F23002C26001234360C6
:1044A0005021C16043604FF4CA61C16043604FF462
:1044B0008651C160436033490B60704770B4044655
:1044C000002000E0401C98420BDA256815F1010F2E
:1044D00007D054F8046B16408E42F3D170BCC0B2C2
:1044E000704770BCFF207047000000001E281DD8D8
:1044F000DFE800F0101C131C1619161C1C1C191CDC
:10450000161C1C191C1C1C1C1C1C1C1C1C1C1C1CF4
:104510001C1C190040F2025209E04FF4817206E0BF
:104520004FF2011203E041F2011200E00022FF29E4
:1045300009D14FF6FF30024042F0C00240F2037052
:1045400040EA02407047080008BF42F0300205D040
:10455000C8074CBF42F0100242F0200240F2037044
:1045600040EA0240704708490A681040C2430A60A6
:104570007047000010100440001004400000046068
:10458000546004400041044008100440DFF800F08B
:1045900025EA0210DFF800F061DB0210DFF800F01E
:1045A000F1EB0210DFF800F0BDE80210002101601D
:1045B0004160C1604FF0FF318160704770B51400F9
:1045C0008AB005460E4604D1002200F03FFD0AB035
:1045D00070BD1449A0680A68904204D310F1010F1D
:1045E00018BF002012D10823282200216846FFF7B7
:1045F000D5FF206804906A46606805903146E068FF
:104600000790A0680690284600F020FD0AB070BD13
:10461000FFF7C8BFFFF7BABF00F024BD00F02CBD04
:10462000FFF7B8BF24120000DFF8B81691F8410177
:1046300020B1D1F86C01002818BF004770472DE960
:10464000F041DFF8A04694F84201002884B040F021
:10465000AE800121DFF89066DFF8905684F84211B1
:10466000307B84F841017168C4F86C11A868C0F30C
:104670008140B8B93069A8B12F68FFF7D2FEC7F3FF
:104680000662642111FB02F2B2FBF0F200230FF28A
:104690003D6104F19400FFF79DFEDFF854164FF0E2
:1046A0000040086001A8FFF7CBFE002002908DF8C3
:1046B00004000022039201AB0FF25D41DFF8347673
:1046C00004F10C00FFF786FE01A8FFF7B9FE0020F9
:1046D00002908DF80400039001AB0822DFF8181651
:1046E00004F15000FFF776FE00230FF27132322101
:1046F00004F1D800FFF70CFE002038600023DFF83B
:10470000FC252C2104F1F400FFF702FEDFF8F00590
:104710000178A968707BC1F3815128B1032903D1C5
:10472000012084F8390121E0032918BF02291DD096
:1047300001291AD1DFF8CC65DFF8CC750320009091
:104740001C23D6F800C0DCF804804FF04052002152
:104750003846C047012000903846366877680923FC
:104760004FF400720021B84711E081B9386840F079
:1047700040003860FFF7EFFDA16841F00401A1603F
:1047800094F84511491C84F84511FFF705FE686847
:1047900040070CD4FFF7DFFDA16841F00101A160E3
:1047A00094F84311491C84F84311FFF7F5FD0020EC
:1047B00004B0BDE8F08130B581B0002408B1150027
:1047C00004D16FF00204204601B030BD8160C260A8
:1047D00003610146DFF80C0500F0D6FA204601B06F
:1047E00030BD10B50446FFF7B6FDDFF8F8140A191E
:1047F00092F843315B1E82F84331DBB233B98A68E9
:10480000012303FA04F422EA04048C60FFF7C4FDD8
:10481000002010BDF0B581B00546FFF79CFD0446B1
:10482000DFF8C014481990F84A21521E80F84A2136
:10483000D2B232BBDFF8D40400EB850210F8255069
:104840005688280623D5DFF8C87439680A6A3046C6
:10485000904739688A6A3046904739680A6B304613
:104860009047DFF8B01401200860DFF8AC0401685D
:104870008907FCD505F03F05152DBCBF2846FFF77D
:10488000C9FF2046FFF788FD002001B0F0BD680693
:1048900006D501EB86010020D1F860219047E9E7B9
:1048A000DFF86C140B689A6930469047304600F088
:1048B000F3FB0228FAD1DDE710B50446FFF74BFD04
:1048C000DFF820148A680123A3401A438A60214438
:1048D00091F84321521C81F84321FFF75DFD002030
:1048E00010BD2DE9F0410646FFF735FD0446DFF81F
:1048F000F453A81990F84A114A1C80F84A2139BB90
:10490000DFF8088418F8260000F03F001428D8BF0C
:10491000FFF7E7FF08EB8600478818F82600010636
:104920001CD5DFF8EC532A68D169384688472A68D5
:10493000516A384688472A68D16A38468847DFF87E
:10494000D42301201060DFF8D00301688907FCD56B
:104950002046FFF721FD0020BDE8F081400606D586
:1049600005EB87010120D1F860219047F0E7DFF8DF
:10497000A0130B685A6938469047384600F0A9FBE7
:104980000128FAD1E4E730B581B00446FFF7E3FC33
:1049900005462146DFF84C0300F020FA284601B016
:1049A000BDE83040FFF7F8BC10B50024022802D063
:1049B000032805D008E000F0ABFB0446204610BDFC
:1049C00000F030FD204610BDFEE70000F0B581B0DC
:1049D000FFF7C1FCC349054691F83801012460B1D5
:1049E000DFF82063DFF820033768D7F80CC0002316
:1049F00001223C21E04700B900242846FFF7CCFC07
:104A0000204601B0F0BD30B581B0FFF7A4FC0446EC
:104A100000F01BFEB34D002085F83801FFF79BFC2A
:104A200095F84611491E85F84611C9B219B9A96809
:104A300021F00801A960FFF7AFFC2046FFF7ACFCAE
:104A4000A94884680220A0470546102000F067F8B6
:104A5000012D04BF0320A04701B030BD2DE9F04176
:104A6000A44C82B06568206820EA050105406A060A
:104A7000216049D5A34EF16B0A68042090470228B3
:104A800018BF032819D001283ED1032000901C2311
:104A9000D6F800C09C4FDCF804804FF04052002153
:104AA0003846C047012000903846366877680923A9
:104AB0004FF400720021B84726E0032000901C2329
:104AC000D6F800C0904FDCF804804FF0405200212F
:104AD0003846C04701200090384636687768092379
:104AE0004FF400720021B847FFF735FC7D4991F87B
:104AF0004521521E81F84521D2B21AB98A6822F0A6
:104B000004028A60FFF748FC280648BF00F022F83C
:104B1000A56002B0BDE8F08170470020704730B555
:104B200005467048046881B05CB1A068284205D091
:104B30002269E36800212846984728B92468002C98
:104B4000F3D1002001B030BD4FF0FF3001B030BDD7
:104B50000020704730B581B0FFF7FDFB4FEA00043D
:104B600000F073FD0028FBD0FFF7F5FB5D4D95F8D5
:104B70004611491E85F84611C9B219B9A96821F034
:104B80000801A960FFF708FC002085F838012046DD
:104B9000FFF702FC544884680220A0470546102015
:104BA000FFF7BDFF012D04BF0320A04701B030BDBA
:104BB00070B501284CD15A490A68136898470128F2
:104BC00000F08180474D95F8380100287BD1474E91
:104BD000B068C0F38140B0B9434804699CB1306803
:104BE0004E49C00F19BF4FF4405008604FF4805237
:104BF0000A60502000F0D8FD0120A04705F1940084
:104C0000FFF725FC01E000F011FD012085F83801D7
:104C1000B068C0F3814010B93349086948B9287AAF
:104C2000810606D4334880228260016841F0800109
:104C30000160FFF790FBA96841F00801A96095F8B1
:104C40004611491C85F84611FFF7A6FB002070BDF0
:104C5000002838D100F024FD244E224DB068C0F366
:104C60008140A0B9204804698CB105F19400FFF798
:104C7000F0FB30682949C00F19BF4FF44150C1F80B
:104C800080004FF48252C1F880200020A04795F8A0
:104C90003801C0B11748016821F08001016080210E
:104CA0008160FFF758FB95F84611491E85F84611BB
:104CB000C9B219B9A96821F00801A960FFF76CFB16
:104CC000002085F83801002070BD000000B51349B0
:104CD00081B04020086000F0A9FC01B05DF804EB51
:104CE00038E70000600800209CC20000AC4F005074
:104CF00000A10C4090220840915500008151000015
:104D0000E4520020A401001000A00C4094BB00005D
:104D1000B80100102820086028200840A8A00C40F6
:104D2000E001001010B50446FFF715FB002161609B
:104D30002160BDE81040FFF72FBB30B581B00546BC
:104D4000FFF709FB2C683CB1216829602168002924
:104D50001ABF00224A606960FFF71EFB204601B0BF
:104D600030BD70B504460D461646FFF7F4FA2E60C6
:104D7000716869607168002914BF0D6025607560F5
:104D8000BDE87040FFF708BB30B581B004460D4662
:104D9000FFF7E1FA0021296062686A606168002912
:104DA00014BF0D602560656001B0BDE83040FFF7BD
:104DB000F3BA30B581B004460D46FFF7CCFA21684E
:104DC000296000226A602168002914BF4D60656077
:104DD000256001B0BDE83040FFF7DEBA30B581B0E4
:104DE00004460D46FFF7B7FA29686A6800290CBF28
:104DF00062604A6069682A6800290CBF22600A6004
:104E000001B0BDE83040FFF7C7BA30B4002513E069
:104E100050F8042BD30744BFA9F101039A18091FC6
:104E2000042942F8045BFAD213468C0744BF15806C
:104E30009B1CC90748BF1D7050F8041B0029E7D10F
:104E400030BC7047DFF800F0E5EB0210DFF800F04F
:104E5000C1DD0210DFF800F0B1BF0210DFF800F092
:104E600021CD0210DFF800F0FDE6021030B589B068
:104E700004460D460823242200216846FFF7E2FF7E
:104E800001218DF818106A4629462046FFF7DEFFFB
:104E9000204609B030BDFFF7E5BF00B581B0FFF790
:104EA000D9FF00280CBF4FF0FF30002001B000BD3B
:104EB000FFF7D4BF34480068000C00F00700072853
:104EC00028BF4FF0FF30704730490968C1F30F31F8
:104ED0004BF641324FF0FF30914208BF042070473B
:104EE00038B5FFF7F1FF28490B68DD0D04284FF0B6
:104EF000FF34C3F34061C3F3006221D11B0B03F005
:104F00000F03082B1BD0092B14D00F2B18D1E80747
:104F100004D500290CBF0D240E2411E0114218BF46
:104F200011240DD109B10F240AE0002A0CBF0B2473
:104F3000102405E000290CBF09240A2400E00C24F9
:104F4000204632BD000000001048114970B50568C8
:104F50000E682D0F06F0FF06802E28BF0026FFF7F3
:104F6000B3FF04284FF0FF340CD1032D0AD8DFE83B
:104F700005F0020204070A2404E006F10B0401E034
:104F800006F1150460B270BD941200501813005061
:104F9000A010005080B5FFF797FF042804D1FFF759
:104FA000D3FF142800DB01BDFEE70000DFF800F0AE
:104FB00021D40210F8B504460B480C4F0668F86976
:104FC0000D4650F82510B1420AD1094800902946F3
:104FD0002046FFF7EBFFF86950F82510B14201D1E8
:104FE0000020F2BD2046F2BD1C120000501100202E
:104FF00054060020102803D302491038C1F8000FCE
:10500000704700BF00E000E0DFF800F011DC0210A4
:1050100070B5044600F0E2FB0646A08A0025012890
:105020000AD1FFF7F1FF0546E068A168451BA942D8
:105030003EBF2069A8420025304600F0D0FB28463C
:1050400070BDFEE7DFF800F019D7021010B5044676
:10505000034BFFF7F7FFA06800B90024204610BDFE
:105060005406002001488068704700BFE41000200B
:10507000DFF800F091D8021038B504460D4600F074
:10508000B9FB616A0D43656200F0B5FB2046BDE8DF
:105090003240FFF7EDBF704730B51C4B1A685B6DAF
:1050A0000021C50704D5D40701D45B0700D5012131
:1050B000830703D5540804F001042143400703D5B6
:1050C000920802F00102114309B1012030BD022013
:1050D00030BD30B50D4B1A685B6D0121C50704D595
:1050E000D40702D45B0758BF0021830703D55408B7
:1050F00004F001042140400703D5920802F00102A8
:10510000114009B1012030BD022030BD40210840CE
:1051100030B5DFF8AC5495F83901002481B000288F
:1051200002BFDFF8A014887B00280CD0FFF713F92A
:1051300095F83B11002906BF012285F83B21012487
:10514000FFF72AF914B1002001B030BD0220FFF7AB
:10515000B3FB0E20FFF7C5FBDFF86C14086810B135
:10516000012001B030BDDFF86404402202604260DB
:105170000120C861002185F83A11002001B030BD3E
:105180002DE9F041DFF8481482B000200860DFF814
:10519000304494F83A01002800F0408101283FD1C2
:1051A000DFF830140D68DFF830140A684BF2F52090
:1051B00045432D0A02F44022B2F5802F13D1DFF8C7
:1051C0001C0401688A030ED4DFF81464B06C016813
:1051D000884700F0A9FAF16BCA6890472F09C01000
:1051E000474305EBE73594F8400118B1002184F8F6
:1051F000401106E0DFF8EC03006820F07F402D1836
:105200006D08DFF8E403DFF8BC23056001212D0CF5
:1052100045608160907B002800F0B8800221FBE0AF
:10522000022840F0B980DFF8AC030568DFF8BC0362
:10523000C16AC1F30721C4F814110168C1F38441A4
:10524000C4F81811B5F5C061C069C4F81011C0F3F5
:105250008120C4F8280103D1002084F8300191E0B6
:1052600094F8300168B9D4F81801D4F81421C4F8BE
:105270002001C4F81C21C4F82C11D4F82801C4F86A
:105280002401D4F82C0100284CBF6FF00101022149
:1052900000EB40000818D4F82011421000EB927087
:1052A000D4F81421C4F81C2101EBA0010029C4F892
:1052B000201115DCD4F82401032805D11531D8BFFD
:1052C0000121C4F8201124E00B31D8BF0121521E66
:1052D00048BF0022C4F82011C4F81C21032019E0A3
:1052E0001E2919DDD4F8240138B915391E29C8BF83
:1052F0001E21C4F8201103200CE00B391E29C8BF61
:105300001E21521C3F2AC8BF3F22C4F82011C4F8F6
:105310001C210020C4F824010823B14ED4F81C013C
:10532000B34F80B200904FF47F42D6F800C0DCF853
:10533000048030213846C047012000901123D6F860
:1053400000C0DCF804804FF4003204213846C04726
:10535000D4F8200180B200901223D6F800C0DCF807
:1053600004804FF4F80204213846C047D4F82401E1
:1053700080B200903846366877680A234FF440625E
:105380002021B847A5F2FF55032D03D20620C4F80B
:105390003C0143E004213FE003283FD18D480068F1
:1053A000D4F81011A0F5C0600029C4F82C0148BF42
:1053B0004942002848BF40428142A8BF002028DA65
:1053C000874DD4F814018A4E80B2009008232F68CC
:1053D000D7F804C04FF47F4230213046E047D4F87C
:1053E000180180B2009012232F68D7F804C04FF440
:1053F000F80204213046E047D4F8280180B200903A
:1054000030462D686E680A234FF440622021B04771
:10541000012084F830010621C4F83C1102B0BDE837
:10542000F04100BF2DE9F04782B0724C6C4DDFF8BF
:10543000C081714EDFF8889142F62A2709E000BF4B
:10544000C9F83C0103212160002070607068810769
:10545000FCD4D9F83C01062800F29980DFE800F07E
:10546000048A6F774C542F00012131600F22E260D3
:105470002761022000900723D5F800C0DCF804A0C3
:105480004FF4C07200214046D047D5F800C0DCF888
:105490000CA007234FF4C07200214046D0470120E2
:1054A000306031688807FCD50121E16199F8390144
:1054B00000281DBF0021316301200320C0E7002127
:1054C0003160716031688807FCD471688807FCD44A
:1054D00000213F4A3C4B1160012018600E20FFF76D
:1054E00099F90220FFF77DF90020C9F83C0189F8FD
:1054F0003B0102B0BDE8F0870520C9F83C0100215E
:10550000716070688107FCD400210091032089F844
:105510003A0104232C68676870224046B8472C681B
:10552000E5687023702200214046A8470120706082
:1055300002B009F15000BDE8F047FEF788BF032034
:10554000C9F83C010021716070688107FCD400211A
:105550000091022089F83A0104232C6867687022C0
:105560004046B8472C68E568702370220021404609
:10557000A847DBE70120022189F83A0100910423C2
:105580002C686568702200214046A847CEE7FEE7F8
:105590001A4801688A07FCD509491648D1F83C2108
:1055A000012A07BF2021816101228261002101605F
:1055B000082206490A604A60012101607047000024
:1055C000600800209CC2000004800C4038500C4051
:1055D0003C500C4008400C40B44F00508C1300501D
:1055E000A4010010102009407C600C4004A00C4075
:1055F00000A00C4000400C4054600C4058600C402F
:1056000038B5DFF85C01DFF85C51048814F0010460
:1056100003D14FF0012129600088DFF84C21116887
:10562000884714B14FF08070286031BD10B5DFF8A5
:105630004C2113685C6801210120A047DFF830018C
:10564000DFF830110068886010BD38B5DFF81C4104
:10565000E16B0A680120904701281FD02468DFF819
:105660000001E568002301223C21A847B8B1FFF7FB
:10567000C7FFDFF8FC00DFF8FC3002689968DFF84C
:10568000F8001C68DA60A4EB9404521A4243120C2E
:105690001A6019688C4238BF0C461C60012032BD6C
:1056A00038B5DFF8D84022685368002101209847B8
:1056B00021680A680120904708B1FFF7A1FFDFF8D1
:1056C000B000DFF8B05000686860E06801688847A3
:1056D000286131BD243080F30600020900F00F007C
:1056E0000F21C2F103024FF6FF73C0F10F00D1404A
:1056F000C340DFF88C0043EA014303607047DFF8E2
:105700008400DFF884200168DFF8800002EA91223B
:10571000824208D1DFF87810096800208A035CBF54
:1057200008040016D6E7704770B51A4CA268E56801
:105730001B3800FB00F100FB01F681FB0223C6FBD6
:1057400005236568C0FB05232068120942EA03723D
:10575000C117101841EB2311000C40EA014070BD45
:1057600000A00C4004A40C4080000010A401001014
:1057700030200940D409002040420F00E001001011
:1057800018A00C4050130050F1FF0F00F00107006B
:10579000B44F005084520020EFF3108072B670476F
:1057A000EFF3108062B670470138FDD17047704743
:1057B0004018491C1CBFB1F1010100F8012DF9D1BD
:1057C00070477047DFF800F075E20210DFF800F074
:1057D000E7EC0210DFF800F01DF8021000E006E030
:1057E000EFF31180202181F311887047000080F3CE
:1057F00011887047F4E7FAE7F2E7F8E71849C207BB
:1058000044BF01230B60820744BF4FF480730B60D9
:10581000400744BF4FF480320A60704710B5114A08
:10582000C30748BF1160840748BF5160400748BFA5
:10583000916010BDFFF7C6BF10B5044604F110001B
:10584000FFF710FBE06818B104F10C00FFF7BEFF92
:10585000214605480068BDE810405422FFF7BABF52
:10586000042009401820094040C30000CD44002115
:1058700099400021B54000211F410021E140002155
:10588000414500217D450021454100215141002134
:105890005D4100217941002127460021C5410021B9
:1058A000DD410021F5410021314200219B460021CC
:1058B000DB5A0021074B0021DB0705D000F003F87D
:1058C0000249087070BD70B5014D2847E004002101
:1058D0001D240200074C657900F009F861796940E0
:1058E000490703D50121044A8903116070BD70B5D1
:1058F0000249084780030021081104402D59000087
:1059000000F019F8E1B26C290BD0042801D0062868
:1059100007D10E490978C90703D12178090700D4B6
:1059200002200B490A780C21114202D00949802239
:105930000A6003B0F0BDF0B583B0074908470448DA
:10594000017840229143017004480047C8000021BB
:105950003301002100E200E041160300231B030095
:1059600070B5004700F042FA00480047577F00003A
:1059700000F042FA004800471B8800000599880A99
:10598000802805D1134988788007800F00F04CFAF1
:1059900000480047D96E00000FB41048C1880029A4
:1059A00002D0104600F040FA079B9B0A084D832B5B
:1059B00008D1084C23899B0604D500F005F800287F
:1059C00000D042350FBC284770B50548004700009D
:1059D0001F0B0200600100211F0B02008003002149
:1059E000EB090200094B1A780824A243002800D0D2
:1059F00022431A70004A1047838E0000034908783A
:105A0000000701D4024800477047000080030021CE
:105A10005F7E00000848094A03689A420AD1084894
:105A20000289084BD21A01D0012A03D1406E0649DF
:105A300088470399054B1847A8020021BD030200BF
:105A40006001002121180000F1350000BD060000B2
:105A5000044A282090470448012141600348044A31
:105A6000416010474F420000005004400060044075
:105A70008542000070B51F4D2878C4B21E4880478B
:105A80002878032834D1032C32D01C488068400D7C
:105A9000C2071A48014660318030002A03D01F2413
:105AA0000C57458802E01E240C570588002C1FD097
:105AB0001348154A41690079414348101149496921
:105AC000401810494039497F9047400540156942C8
:105AD00088420DDBA8420BDC0C4B996988B2024668
:105AE000090C624309045212801880B2084398617D
:105AF00070BD0000E402002179410000280000216F
:105B00008003002100030021CB81000040400440BD
:105B100010B5864C21464031087D012834D1844897
:105B2000C07D4008C0072FD020466030427952081F
:105B3000D20729D04089800B012825D1087E410950
:105B4000C9070CD0A16F00070988C00F40020904E3
:105B500008436066A06F801C01F08CFC13E0744861
:105B600020308069406800280ED0724A00230178F6
:105B7000D356591A08D4C90008184178C90703D068
:105B8000016861664068A0666B48804710BDF8B543
:105B9000664C6A4926462036707B25464035009083
:105BA0002F79B800401880688047002828D16049C4
:105BB000C97D0909C90723D022466432152F20D098
:105BC000297E00234F09FF0703D06D7D002D00D0F3
:105BD0000123009FA56FBB4312D0737B002B0FD016
:105BE000237D5B060CD5D288920B012A08D1C90807
:105BF000C90705D0A988890B012901D1002171733A
:105C0000F8BDAB7EE97D012BE3D00023E1E770B561
:105C1000464C2546606A803500281DD15420005D21
:105C20000022002817D06420005D8008C00712D031
:105C3000A9688888800B01280DD13D48C07D4008A7
:105C4000C00708D03A48203080690068002802D098
:105C50002962A86000E02A6239488047616A002909
:105C600003D1296A002900D0A96070BDF8B52F4C76
:105C7000344920464030027D002A2FD0807E2546C0
:105C80008035032802D0042803D027E00120E875DE
:105C900024E06420005D8008C0071FD0A8688088C9
:105CA000800B01281AD12248EA7DC07D002A13D03A
:105CB000C008C00712D026462036777B88470146A9
:105CC000394308D1217D090605D56988890B012949
:105CD00001D100217173F8BD8008EAE78847F8BD5B
:105CE000124880300021C175174800470F494031E4
:105CF0000871262814D006DC152813D01B280BD0D9
:105D00001F2804D10AE03D280ED047280AD00B49AD
:105D100080004018806870470C4870470C487047F6
:105D20000C4870470C4870470C48704760010021D0
:105D3000C8000021E004002159490200005502007A
:105D40008F3D020075300200152A0200C144002177
:105D50004D440021EF4300216F430021F142002117
:105D600010B50C4988470C4A0621515E002907D01E
:105D7000022905D0092903D0102901D0112907D102
:105D80007721C943884201DD002801DD7F20C0431F
:105D900010BD0000A96500008003002110B5104867
:105DA000C1881048052918D00F4C21684A085200B4
:105DB0002260A26B52085200A2632160FFF7D0FD5F
:105DC000A06B000708D40120206060600020401C08
:105DD0000C28FCDB1420206210BDFFF7C1FD10BDB4
:105DE000800300213F5B000000600440806B0C4991
:105DF0000007000F48717047094A0A491823507973
:105E0000CB56497EC018814201DD084602E00F28CA
:105E100000DD0F20D189090909010143D1817047B3
:105E2000E0020021880000210849C979CA08D20788
:105E300008D0C1400648C90701D0064900E006491C
:105E4000491CC1607047002070470000E800002135
:105E50002800002188010000500100000122274B8A
:105E600002212548184710B5254880472548406A33
:105E700000280DD124490A200856002809DA401CC0
:105E800007D008462038406A2049884200D1804720
:105E900010BDFFF7E3FF10BD00211E4B1C4A084652
:105EA000184701201C49400208601C48FB22017869
:105EB000114001701248EC38004710B51849884766
:105EC00011492039012807D0020404D50020088593
:105ED00014484862012010BD4A6A094BEC3B9A42C3
:105EE00001D1114A05E007494A6A104B9A42F2D1A2
:105EF0000F4A4A6210BD0000060800009F0600001D
:105F0000A1920200080100215401002163920200C5
:105F100047460021B5B4020080E100E08003002183
:105F2000F79602003D460021834600216995020054
:105F3000794600218307FF22DB0E9A408907090E6C
:105F4000994000280BDA0007000F083883089B00EF
:105F5000FF481818C36993430B43C3617047830814
:105F6000FC489B001818036893430B430360704779
:105F700010B5F9488047F94C616C002919D0217B94
:105F80000909C90714D10022214640310A73E2737E
:105F9000626CA26412784A76A26C52784A70A26C43
:105FA000D2780A76A26C12894A83A16C496861632F
:105FB00010BD812001F06EFA0B20C002208102206A
:105FC000A07210BD70B5E54A014614460020203489
:105FD000002901D0062100E0217AE37B9D08ED072E
:105FE00004D0157B2D09ED0700D0491CDD08ED0715
:105FF00000D0891C1D09ED0704D0D94D6D7CED1D25
:10600000ED0869185D09ED0700D0491C9D09ED07F1
:1060100000D0491CDB0900D0091D136B0025002BA3
:106020000BD01846CF4B1C3298472321084202D090
:106030000121E17202E0E57200E0D561410703D57C
:106040000121C94AC905916070BDF8B50646C74827
:10605000C24C00210160617CC44F4A1E403FFA637C
:106060004068800754D5786BC14DEA699047696AEA
:10607000607C8847054620462030002E09DA6905F5
:10608000090E01724122125D914203D90120C043E1
:10609000F8BD0672027AA17C0646D0000818386264
:1060A000B24801218160062A0BD9206B01F0F8F972
:1060B0000020FFF787FF2121084208D00220C043BB
:1060C000F8BD062A03D2E169206B01F055F9E069B9
:1060D00000281BD0F17B8908C90708D0217B09095A
:1060E000C90704D00146E27B401CE0610A70F07BE6
:1060F000C008C0070AD0E069E910421CE2610170E3
:106100006A07E069520F411CE16102702846F8BD40
:106110000020C043F8BD70B5904C0020217BC043E7
:106120008908944DC90700D16878FFF78EFF0028D1
:1061300008DBA88321680F20884760608E49002013
:1061400088471FE0811C08D0C01C1DD08B4910203F
:1061500008608B490860012070BDA06B002802D048
:106160004179491C417101207F498006886001F016
:10617000F2F88448804700212C20015521680C202A
:1061800088476060002070BD0B20C0022081022083
:10619000A072032070BD6E49086170476C490869A0
:1061A0000A6910231A430A61704770B5FFF7F6FFBA
:1061B000FF21724A01311160734900E020BFCA6AB1
:1061C000D207FBD0624A1061704842690F231A431C
:1061D00042618269D208D200121D826163480225A1
:1061E00080384560012282600024046084608A60F7
:1061F0000C608C60082141604160614964488031D5
:1062000008606449204688476348804763480570B2
:10621000554805635C484030046055486049447007
:10622000782088474E488030407B002801D001F01C
:106230003DF970BD70B54A4C8034207B002801D0F8
:10624000584988474648403001888A0AD20702D117
:10625000C07A002805D00809C00702D04E487A3815
:106260008047514800210177404840380162434847
:106270001022026004220260950105605202026051
:106280003F4E32604048C16214210162E07A364CD0
:10629000C00703D060690121084360613D490120C6
:1062A00088473E49062008702063384841689D2091
:1062B00001F002F9356070BD00B5FFF76FFFFF21F7
:1062C0002E4A01311160304900E020BFCA6AD2076E
:1062D000FBD01F4908612D4841690F2211434161DC
:1062E0008169C908C900091D816125492848803193
:1062F00008601E4900204039C86200BD1B4982B2B7
:1063000080318A62020CCA621549CA79D30709D161
:10631000920889880240D00701D0C84381B213484F
:10632000403841627047F8B50C4C204925468879C1
:106330002035002870D01D4B096800205A791F793C
:10634000002956D0EB7B5B09DB0733D06B7B2FE05A
:1063500000ED00E000E400E023DB0200600100212A
:10636000280000219B3600000011044080500440AA
:1063700080030021A0010021C10F000080E200E0A5
:1063800000E100E0295B00000060044000300440B0
:10639000040D0000BD850000FD90000018000021E4
:1063A0003D4200006F580000A0020021F45C002173
:1063B0000B70491CEB7B9B09DB070CD04C231B5D4E
:1063C000AE7B3343DB06DB0ED6013343FE07760E8E
:1063D00033430B70491CEB7BDB090AD0E36B0B707A
:1063E000E36B1B0A4B70E36B1B0C8B70E36B1B0E98
:1063F000CB70216B002600291FD0002A0DD0EA7B2C
:106400005208D20709D0EA7A002A02D00021E972A4
:106410000FE00846F9490BE04AE0002F02D0EA7B82
:10642000D207F6D1EA7A002A03D10846F349B639F1
:106430008847400701D50126F605E87A002802D0F2
:10644000012080050EE0EE484179002902D00120AC
:10645000400407E00079002802D00120800401E018
:10646000012000040643A06B00281CD0710203D554
:106470000179491C017110E0B10303D58178491CF1
:1064800081700AE0710303D5C178491CC17004E032
:10649000F10302D54178491C4170A16B687BC8713A
:1064A000A06BE16B8160D7488660D5490020887178
:1064B000D34A08329079002871D010685179009140
:1064C000002820D0E97B4909C90702D0697B017007
:1064D000401CE97B8909C9070AD000992E7ACB01B3
:1064E0000121002E00D0002189010B430370401CC4
:1064F000E97BC90907D0E16B01700B0A43700B0CF3
:106500008370090EC170BE49002608310F79216BD6
:10651000304600291ED0009A002A07D0EA7B520894
:10652000D20709D102E00846B4490EE02A7A002ACF
:1065300006D1EA7BD20703D0002FF4D0002705E074
:10654000002F03D10846AD49B6398847400701D529
:106550000126F605002F02D0012080050CE00098EE
:10656000002802D00120400406E0A5480830C07988
:1065700000280BD0012000040643A06B00281ED089
:10658000710206D50179491C017114E001208004D3
:10659000F2E7B10304D58178491C81700BE015E066
:1065A000710303D5C178491CC17004E0F10302D521
:1065B0004178491C4170697BC171E16B81609148F0
:1065C000866000208E4928730831887101208E4929
:1065D000400408608D490860F8BD8D48C16AC9074C
:1065E00004D10169C907FCD101210162704770B56E
:1065F000884D00202862854914200860854C0120C0
:10660000403C6060082060606060002000BF401C6B
:106610000A28FBDB8048804780488149406882B275
:106620004A61000C8861022666607E498878000213
:10663000C01CA861764B7C4A4033DA620878840635
:1066400003D51A63DF22104008704E7070BDFEB58E
:106650006B4F764C3F1F787825464035002812D185
:10666000207B4008C0070ED02978E07CC900411883
:106670006F48C28DC08C5143226E0909101808184A
:1066800001217970E0636348C06AC0077FD0614927
:10669000032040394860FFF7AAFFFFF79EFF00265E
:1066A00058497E7010208860A06B002802D00178C5
:1066B000491C0170287EE7210840617B491C89073D
:1066C000C90E08432876A069002802D05949606B9A
:1066D0008847A16C287EC870A16C688B08814A48E5
:1066E00080300068800301D5FFF71DFE52488047C7
:1066F000524DE87AE97AC90704D051482081A67240
:10670000802006E0400707D54D48001F2081A67273
:106710008E2000F0BFFE32E0207B4008C00729D069
:106720007E70206DFFF7EAFDFFF7C6FD45490020AA
:106730008847FFF77FFD00F00EFEE87AFB21084056
:10674000E872002304223A4801930092A030408A64
:10675000E16B3D4D0A1882211846A847002802D057
:10676000972000F097FE21680C2088476060012088
