:20000000003C0120157B0100598601005986010059860100598601005986010059860100B2
:1C00200059860100598601005986010059860100598601005986010085B6000049
:04003C0000000000C0
:2000400038B586B004468DF805104FF6FF720120ADF80220090ADFF8C05AADF8000002232D
:200060008DF806108DF8043069462A7820461AF07BFF162803D1297820461AF071FF07B0A7
:2000800030BD3EB504000D461ED0DFF8900A006822461AF061FFFF2815D0002000900023B1
:2000A00001AA294620460FF067F860B99DF8040000F071F9C00606D59DF8040000F06BF9C8
:2000C00010F0040000D001203EBDFEB5164615244FF6FF7290420D4615D100208DF804007E
:2000E000DFF8347A9DF80400F97988421AD23246294600F03EF800B100249DF80400401CE3
:200100008DF80400EEE71AF023FF50B100F09DFB40B99DF804003246294600F02AF800241D
:2001200000E014242046FEBD7CB50D46044606214C43164620346A460821204618F068FBA8
:20014000A8B900F078F890B99DF80700002E14BF054320EA0505E9B2814206D08DF807508C
:200160006A460821204618F067FB012076BD002076BD2DE9FC4106463446062388461546C4
:200180005C436A46082104F1200018F041FB00284ED100F050F800284AD100F028FA0400B6
:2001A00002D100F01CFA43E0397AE03689062246090E304618F02CFB002835D1204600F043
:2001C00052F85FEA08000ED13A7A9206120E0021204619F0D7F838BB3A7A9200002120461A
:2001E00019F0D6FD16E0214600F02AF858B9280004D02146002000F023F810B900F00FFC51
:2002000016E0A0F800808178A9420DD085700DB900210180204600F026F8397A8906224694
:20022000090E304618F008FB00F0F9FB012000E00020BDE8F6810622FF21684619F0A2B8AC
:2002400070B5DFF8D4381D7A002200E0521CD4B2AC4206D231F824608642F7D101EB840096
:2002600070BD002070BD10B50021DFF8AC280AE030F82130DB4320F8213000EB8103491CB5
:200280009C78E4439C70137A9942F1DB10BD2DE9FE4FDFF884480646207A0F4691469A461E
:2002A000800019F05FFF5FEA000803D100F097F90A206EE00C9D02974FF0060B37461BFB15
:2002C00007FB029A08210BF1200018F0B5FA8DF80400304600F09AF8227A00F07BF99DF86E
:2002E000040000904246217A8906090E06F1E00018F0A2FA009E02990643206A082200EB05
:20030000C70019F04FFDF5B110220021284619F039F8C0B90299887900232A4600F0010087
:200320001AF012FE00281CBF9DF93C00002803D0DFF8EC17012008702A4610210BF12300A0
:2003400018F07AFA06435FEA090205D01C210BF1210018F071FA06435FEA0A0205D01C2132
:200360000BF1220018F068FA06430D9A4AB110210BF1240018F060FA06430EAA00F032F93B
:200380000643A07D08B100F095FA404619F0F2FEF0B2BDE8FE8FE0B5062358436A4608213A
:2003A000203018F035FA10B99DF807000EBD00200EBDDFF86407007808210DF0F7BD38B51A
:2003C0000025DFF8544718E0206A06236B4300EBC5022033082198B218F01AFA58B1206A06
:2003E0000622FF2100EBC50019F0D2FC206A00EBC5010022CA716D1CEDB2E1798D42E3DB87
:20040000A07D10B1BDE8314054E231BDF8B5DFF80817DFF81037C9791E680C460A4600E0B9
:200420002A46D5B23DB1551ED2B2324412F8017C8742F5D12C46E4B220464D1E07E0171865
:20044000165C7F7817541A680244401C5670A8421A68F4DBAC4204DABDE8F840052018F0CD
:20046000EBB9F1BD70B50024DFF8AC5600E0641CE879E3B283420BD22B6AE6B20622FF219B
:2004800003EBC60018F07EFF0028F0D0E0B270BDDFF89426117839B1DFF8880601680C7826
:2004A000204600F013F8204670BD38B500200024DFF8645603E0E0B200F008F8641CEA793E
:2004C000E1B2914201D20100F5D032BD2DE9F84F8146CB46062313FB0BFB8EB00BF120055D
:2004E00001AA0821284618F093F9002869D10622FF2101A818F046FF002862D100F077F8CC
:200500005FEA000803D100F06AF80A205BE01C22FF2103A819F03CFC3A7A00F05BF80BF1C2
:2005200023060AAA1021304618F072F960B91022FF210AA818F026FF30B99DF80A0001A948
:2005400000F001001AF0FCFC082200F03FF801AA0821284618F070F9054603AA1C210BF173
:20056000210018F069F98DF8000003AA1C210BF1220018F061F9044603AA1021304618F05B
:200580005BF9064603AA10210BF1240018F054F9824603AA00F026F89DF800100D43254388
:2005A0003543397A4AEA0505054389064246090E09F1E00018F040F90543404619F0DAFD93
:2005C00000E0002528460FB0BDE8F08FFF2101A819F0DEBB9200FF21404619F0D9BB042061
:2005E00017F0F0BE04210BF1250018F025B9DFF82875387A800019F0B5BD2DE9F84187B073
:20060000FF208DF80000DFF81055E87919F0AAFD040003D1FFF7E3FF0A2030E01022FF21AD
:2006200003A819F0B5FBEA79FF21204619F0B0FB0622FFF7CBFF03AA1021022018F0FCF8D5
:20064000064603AA1021032018F0F6F806436A460121042018F0F0F80746E97922460520EC
:2006600018F0EAF8054601AA0621062018F0E4F8804600F0D4F93E432E4348EA060008B004
:20068000BDE8F081DFF890144088097818F05CB8F0B5A9B006460D4614461AF059FC08B94D
:2006A0001420A6E0A4220021684619F071FBADF80060DFF86464F078F17B279A8DF80400B4
:2006C0005208307C8DF8A0004B0801F0010040EA420222F0020203F0010342EA43020809AD
:2006E00022F4807200F0010042EA0022480922F4007200F0010042EA4022880922F48062D2
:2007000000F0010042EA8022890822F0040201F00101707C42EA8102279202280CBF012014
:2007200000200DF1260778741AF006FC412807DB707C00B108209DF8991008438DF89900BF
:20074000F07CB8B10121B974202206F188010DF1390019F027FB202206F1A8010DF1590018
:2007600019F020FB202206F1C8010DF1790019F019FB00E0B874707B8DF8050090B1DFF826
:20078000AC73102207F110010DF1060019F00AFB9DF89900082805D1102239460DF11600F4
:2007A00019F000FB307B8DF8260030B11022DFF880130DF1270019F0F5FA307948B1022D74
:2007C00018BF032D03D1279840F002002790012100E000219DF899000143B0788DF89910AB
:2007E00000B1042001438DF89910684621461AF09FFB29B0F0BD2DE9FC41154615244FF647
:20080000FF72904288460ED10027DFF80C63F179F8B2884216D22A464146FFF785FC00B196
:2008200000247F1CF3E71AF093FB50B100F00DF840B99DF804002A464146FFF775FC00247D
:2008400000E014242046BDE8F681002100910023417901AA01F00101801D0EF08DBC70B5C8
:2008600004460D4606204543082B88B0164603D1300758BF223500D521351C220021FFF76D
:20088000A6FE01AA1C21284617F0C2FF80B99DF81E00C01F0A280BD29DF830000090F2086D
:2008A00001AB02F0010206F0010120461AF03CFB08B070BD38B51AF033FB0024964D0FE0F8
:2008C000286A0622FF2100EBC40018F05BFD28B9286A00EBC40100201AF01EFB641CE4B2B3
:2008E000E8798442ECDB31BDF0B5924D0646686885B04FF6FF7438B9009502238E4A2146A5
:2009000001201AF005FB6860696819B30222FF2002920023039001930DF112072A880097C6
:2009200004AB304606F0BEFB60B99DF810009DF8111000EB0122100004D06868418930466D
:20094000FFF7C3FB2A886868002321461AF0DCFA686008B9012000E0002005B0F0BD3EB5F8
:200960000C46002501460095002301AA20460EF003FC38B99DF80400FFF70DFDC00601D4CE
:2009800001203EBD00203EBD2DE9F0416B4F3C6806468846154603E02089B04224D0246808
:2009A000002CF9D10C2019F0DDFB040019D0268184F80A8000202060E07245B1082128461B
:2009C00018F0B2FE606018B900F029F80AE06060396811B93C6004E0014608680028FBD17D
:2009E0000C600CB9152018E01AF08AFA08B1002013E00120E0722A4641463046FFF748FE23
:200A000004464548C06900281CBF4368002B03D000220021304698472046BDE8F0812046B0
:200A200019F0A8BB38B505464448046803E02089A84204D02468002CF9D1012032BDE07AE4
:200A4000012807D100F05CF820B13348007804210DF0ACFAE17A491CE1722846C9B200F0D9
:200A600002F8002032BD38B5022904462A4D02D003290DD01EE042F6C921FFF7E1FA0200C6
:200A80001CBFE869002818D04368B3B105210CE042F6A621FFF7D4FA01001CBFE9690029DF
:200AA0000BD04B684BB102460421204601B0BDE830401847BDE8324000E031BD10B51F4AA1
:200AC0001468002101E0214624686CB123898342F9D1206800290CBF10600860606808B178
:200AE00019F048FBFFF79BFF002010BD024604201249096819B10B899342FAD1C87A7047FE
:200B00000E48006828B1006818B1C17A0029FAD17047002070470000741A0020680F00200B
:200B20001F3F0020B03E00201E3F0020883C0020B83C0020603E002012D80100B43E0020F9
:200B400038B584B004461AF003FA0622417901F001018DF80E10811D02A819F023F900201E
:200B6000009000239DF80E1001AA02A80EF004FB9DF80400FFF7AAFC0546052120461AF0A7
:200B8000BBF9284605B030BD8EB0DFF8DC49211D204614F003F804F1180019F050FBDFF87C
:200BA000CC39A06000200021B1F5007F06D04FF6FF725A525A181031D060F5E7DFF8B00943
:200BC000DFF8B019DFF8B069002215234FF0000900901020B04744F26820FB211B224FF4D2
:200BE000A473CDE90010DFF894191020B047DFF890191020B0472178DFF888595020A84716
:200C0000DFF8841902461020B047DFF88019102001220127B047DFF8781910204FF0FF3207
:200C2000B04721785020A847DFF8681902461020B0470DF0B1FBDFF86089DFF86019102015
:200C400008F11002B047DFF85819102000220023B04721785020A847DFF848190246102036
:200C6000B04721785020A8470346DFF83C09DFF83C190822CDE900701020B0474FF0FF300F
:200C8000002114F0A9F9DFF8283900210022C8F80C0018F026FFD8F80C00DFF818390121F3
:200CA000002218F01EFFD8F80C000021002219F055FC19F067FC07A8811C0830039104905C
:200CC000606800214FF040424FF0FF330CF0D0FC0028F5D08346CDF8149006A80DF11B014A
:200CE00005AA16F0D8FC002840F0CD82BDF81800102840F0C08220789DF81B10814240F002
:200D0000BA82DDF814A04FF6FF71BAF80000884200F0B382C1B2912900F07680B02900F0DC
:200D20009480D02940F0A7829AF80200072800F2A780DFE810F00800A002A002A002A0021A
:200D400019014D017401DFF8DC18DFF8DC28DFF8285810200023A847DFF8D01810204FF445
:200D60008602A8474FF44870DFF8C41801220123CDE900001020A847DFF8B86806200022F3
:200D8000ADF81C00102007AB3146A84701200DF13707314601228DF8370010203B46A847F7
:200DA0000120314606223B468DF837001020A84740F6020031460322ADF81C00102007ABA0
:200DC000A847DFF874784FF4486610200122022300963946A8471020394601220323009666
:200DE000A847BAF80400D8F80C6060800AF1060015F0C4FBDFF84418DFF844380022CDE90F
:200E000000103046002134E2000A3E2856D00F2868D0102800F083800E2840F02C82BAF81F
:200E2000040041F20541884240F02582DAF80800D8F80C6090F90350B0F8010017F020F9D9
:200E4000DFF89C37CDE9000510E2BAF802001AF04FF870B99AF80110162965D19AF804104F
:200E6000D8F80C00DFF8A03700220091002118F038FE9AF804100AF108001AF035F8FAE11B
:200E8000112800F03981152840F0F58198F80000002800F0F081E168002900F0B98104F1E2
:200EA000100018F09EFCE06819F032FC98F80100C4F80C90411E88F80110ABE19AF8020008
:200EC0000C2840F0D881BAF80400D8F80C609AF8035017F0D5F8002D00F07181DFF8DC36B2
:200EE0000090C3E1BAF8041040F20640814200F0C28142F23200814240F026819AF80210E6
:200F0000D8F80C001A2903BF00210022DFF8C83600911EBF00210022DFF8B836A9E10820B0
:200F200000210EF093FBA6E19AF804007F2800F051810B2800F05581132800F05B817E28D8
:200F400000F05F81012840F01A819AF80820122A00F0B0820A2A40F012819AF80C10D8F840
:200F60000C00DFF890367FE798F80000BAF80A500AF10406D0B1E068C0B100F10801304617
:200F8000062218F0C3FB88B104F11007E168384618F027FCE168384618F011FEE068C4F84A
:200FA0000C90817C058241F001018174DFF8BC0500218DF81C100430202900F0D38230F895
:200FC000042C4FF6FF739A4270D010300131F3E798F80000BAF8047000283FD004F11006CA
:200FE000304619F025FC8246C0B3BAF81000B84211D13046514618F0F4FB3046514618F05F
:20100000E9FD4FF6FF70AAF810009AF8120000F0FE008AF81200504619F00CFCE3E7BAF83B
:201020000420DFF8E815102007AB10F05BFC002840F00B819AF80300D8F80C600028039807
:2010400000F0F3809AF8025015F098FADFF8C035CDE90050304600210022F4E0384617F0CE
:2010600029FF202880F07E82DFF8001501EB001555F80C0F78B119F0AFFB286819F0CAFB01
:20108000286819F045FBD8F80C0000210022C5F8009019F063FADFF8D4140020202838D076
:2010A0000A88BA4237D010310130F7E720F8045C32680260B288828098F80420013211F0B3
:2010C000E00F88F8042040F04D8220F8029C15F055FADFF8481510204FF4806207AB10F039
:2010E00001FC98F80000002800F0C5809DF81C00022840F0AD80BEE0BAF80400ADF81C00B9
:201100009AF80E008DF8260098F8020028B300202CE0202508E04FF6FF72C5B20A8098F877
:201120000410013988F8041098F8000008B112F0D1F8202D80F01682DFF8300400EB051059
:20114000043015F01BFA96E09AF80220D8F80C00DFF88834CDE9001289E0DAF80600DAF8CD
:201160000A10CDF81E000120CDF82210DFF8A8148DF82700102007AA10F0B4FB65E098F8B6
:201180000520032A00F09C81022A00F0B681012A08BF03287FF46DAE4FF6FF70022521787E
:2011A00088F805500F38ADF81C00BAF80260502016F0A8FFDFF84814CDE90050CCE19AF8A9
:2011C0000720DFF8FC13012A4CD0022A43D1DFF8F41347E0BAF80810D8F80C00DFF80434C1
:2011E00042E6DAF80C10D8F80C00DFF80C34002209783AE698F80310D8F80C00DFF8EC33AE
:2012000032E69AF80810D8F80C00DFF8DC332BE698F80110C9B2D8F80C00DFF80434002210
:201220000091002118F05DFC12E015F0A7F9BDF83010DFF8E033002201EB81014900CDE996
:2012400000013046002118F04CFC98F8000090B112F040F80FE0DFF87413032ADFF86823BF
:2012600008BF1146DFF86833CDE9000130460021002218F036FCDDF814A0BAF1000F02D01F
:20128000504619F0ECF95FEA4B00DFF8E0B27FF517ADA06818F042FB00283FF411AD0646E3
:2012A00000880338072800F2AD80DFE800F004072D475A19AB6B19F065F9A3E07568A86986
:2012C000002800F09F8001781E2906D181784C2903D1C178002900F0CE8019F019FA91E0D1
:2012E0007568B54F687A38B1D8F80C00D54B00210022009718F0F5FBEA88D3491020002393
:20130000009710F0EFFA7DE001202178B8F80650C8F8089088F8050060880438ADF81C006E
:20132000502016F0EFFED249009010202A4607AB10F0D8FA002018F053F863E0B07801019B
:201340003BF801704FF6FF718F425BD00BEB0010C06819F03FFAC54910203A4610F0C2FA4E
:2013600050E07768B0788DF83790B978032849D8DFE800F002121A3AD8F80C00BA4B00214C
:2013800000223DE0D8F80C00BA4B19F030F9BA49102010F0A7FA35E0E1B3D8F80C00AF4BA8
:2013A0000091002100220BE00029D8F80C0003BF00210022A84B00911EBF00210022A54BD0
:2013C00018F08FFB954910204FF480620DF1370310F088FA98F80000A0B19DF837000228B7
:2013E00010D111F077FF0DE00029D8F80C001FBF009100210022954B02BF00210022944B2E
:2014000018F06FFB706808B119F082F9304619F07FF93EE7D8F80C00914B19F0E8F83A88C6
:201420007A49102007AB10F05DFA0028CAD19DF81D0000F0FE000228C4D1049800210622A9
:2014400018F091FB0028BDD1039DD8F80CA0284615F094F8834B0090504619F0C8F83888AA
:2014600017F028FD20287DD2A9880BEB0010018129684160A6E70179072908D012297FF401
:201480002CAF81797E4F10297FF427AF04E081797A4F05297FF421AFD8F80CA0A81C15F0CB
:2014A0006DF800905046002100223B4618F019FBA86912E79AF80C10D8F80C004C4BD3E4DF
:2014C000092817D1BAF80800A0B1B8F8060017F0F1FC202846D225494A4B002201EB0010BD
:2014E000DAF80C10B1F803104180D8F80C00002118F0F7FA88F80590BBE407280CD1BAF819
:2015000008203AB1DAF80C201388A8F808305288A8F80A201A2902D001287FF4AAACB8F8EC
:20152000080000283FF4A5AC0321ADF81C00B8F80A0088F80510FF218DF822104FF2021198
:20154000ADF81E005020ADF820102178BAF8026016F0D8FD294900901020324607AB10F09F
:20156000C1F986E418F02CFE70220020282E0020FC220020093C0100E51801000D3D02100F
:20158000397F011005810100F16C02103D8C0100BD6C01002D6D0210CC220020158D01003B
:2015A0007D660100D96C02101824002091A6000020CA01002FCA010040E20100B0CA0100DA
:2015C000DDCA0100E4CA0100EBCA0100F1CA0100C7CA010073CA010044CA01008DCA01000B
:2015E000FACB0100DCCB0100CCCB0100B9CB0100AACB01008BCB010099CB01002565021092
:2016000039BD0110E9CB010078CB0100F9DC011061CB010045CB0100D95701104DCE00004A
:2016200016CB010089610210C96F0100C5690110F5F9011095390110D5F4011012CB0100BE
:2016400006CB010011CD0100AD7A0100FCCC0100EACC0100D4CC0100C1CC0100B0CC010085
:201660008FCC01009FCC01007FCC01000D2B0210ED0702106BCC01001D7E01003FCC010026
:201680000ACC01002DE9F84FDFF8B057696884B0019121B905B0BDE8F04F19F021BC0978C7
:2016A000DFF89C67DFF89C7746F2A81A40F6C41941F64C58012918BF02290AD004291CBF70
:2016C0000829102905D0402918BF802900F0C981ABE318F0F9FE0028FAD0012015F0E0FE25
:2016E00020B1012015F014FF15F0A2FE082015F0D7FE20B1082015F00BFF15F099FE102065
:2017000015F0CEFE20B1102015F002FF15F090FE0198007802F096FA0090002460B100788E
:2017200001281CBF0828102802D10098446803E0009815F07DFE0446DFF80C1748780028FF
:2017400000F0F88019F054F818F018FB8246DFF8F816DAF800000190002CD0F804B09AF867
:201760000600C87004D00199009819F03FF8022800F0B38000990A78012A08D0022A12D06C
:20178000042A5DD0082A0CD0102A54D04DE320B919F0A2FB8044C4F808800120A870112160
:2017A00035E1082004E105223A70D0B919F094FB8044C4F808806069A168DFF89026136832
:2017C000DE69DFF88C361B78B21D03EB8303D25A09FB0219C0F82090A068DFF870160A68C9
:2017E00010615246DFF864060168CB69DFF860160E78981D06EB8606815B00980FF0C4F8CE
:2018000061696269D27F02F0EF02CA77002861696269D27F42F08002CA770CBF01210221AB
:2018200062696369DB7F03F0F0031943D1776169486202204FE01021A9701320387028E239
:2018400006213970D0B919F047FB8044C4F808806069A168DFF8FC2513685E69DFF8F835CC
:201860001B7806F10C021B01D25A09FB0219C0F82090A068DFF8DC150A68D060DFF8D4657F
:201880003068007C0FF080FA30684169DFF8C805067801F10C0336010098995B52460FF0FC
:2018A00073F861696269D27F02F0EF02CA77002861696269D27F42F08002CA770CBF0121C3
:2018C000022162696369DB7F03F0F0031943D177616948620420A870DBE101980178802943
:2018E0000CD10820DFF8741538700A78DBF81400012A1ABF716A0978012113E0072038702E
:201900009AF8060018F0E6FB0446207BC10700F1CF80DFF848050178DBF8140001291CBFD0
:20192000716A4978C1729AF80600DFF81C158870019875E20098002823D00199009A0078F1
:20194000DFF81065914212D1012809D002280DD0042800F08180082802D0102806D002E06D
:20196000002C03D167E2002016F02CFD91E1012808D002281FD004284BD0082816D01028AE
:2019800041D052E2002CEDD019F0A6FA0146A068514417F02FFC20B919F09EFA8044C4F860
:2019A0000880112038700121A97072E1002CD9D0A87012212BE0052038700222AA7019F0F9
:2019C0008BFA0146A068514417F014FC08B100F060B919F081FA8044C4F808806069A16867
:2019E000DFF868241368DD69DFF864341B78AE1D03EB8303F55A09FB0519C0F82090A068A1
:201A00001168086145E1002CACD0A870132139703FE1062038700422AA7019F05DFA01464C
:201A2000A068514417F0E6FBB0B919F055FA8044C4F808806069A16832685369DFF818241D
:201A4000127803F10C051201AB5A09FB0319C0F82090A0683168C8603068007C0FF094F9EE
:201A600017E1DFF8E4134878002800F03B8118F0BFFE18F083F98246DAF800000290D0F8CF
:201A800004B0DFF8C403807818F078F90390DFF8B8139AF80600C87001980178402913D11F
:201AA0009AF8060018F016FB0446207BC1070BD59AF8060018F062F9052116F06DFE207BBB
:201AC00000F0FE002073B6E118F0F8FC10F01F0F32D0012015F0E4FC20B1012015F018FDB0
:201AE00015F0A6FC082015F0DBFC20B1082015F00FFD15F09DFC102015F0D2FC20B110208F
:201B000015F006FD15F094FCA87802F09BF80090007801281CBF0828102802D100984468F8
:201B200003E0009815F084FC0446002C04D00299009818F05BFE022800F0B08000990A7862
:201B4000012A08D0022A17D0042A5CD0082A0ED0102A53D09FE020B919F0BEF98044C4F810
:201B600008801120387001210098A97058E10820A870122139708CE005213970B44EB34F9D
:201B8000B0B919F0A9F98044C4F808806069A1683A68D369327803F1060C02EB82023CF824
:201BA000023009FB0319C0F82090A0683968086152463868C16930788B1D00EB8000195AC9
:201BC00000980EF0E1FE61696269D27F02F0EF02CA77002861696269D27F42F08002CA7783
:201BE0000CBF0121022162696369DB7F03F0F0031943D17761694862022049E01020A87053
:201C00001321397045E006213970934EB0B919F063F98044C4F808806069A1688D4A136817
:201C20005B6903F10C0233781B01D25A09FB0219C0F82090A06887490A68D060854F386876
:201C4000007C0FF0A1F838684169307801F10C0300015246195A00980EF096FE61696269B2
:201C6000D27F02F0EF02CA77002861696269D27F42F08002CA770CBF012102216269636945
:201C8000DB7F03F0F0031943D177616948620420A8700098C4E0002016F094FB039850458F
:201CA0001ED002996D480A78802A0AD10821397000780128DBF814001ABF716A097801212E
:201CC00009E007223A7000780128DBF814000EBF0121716A4978C1729AF806005A498870CF
:201CE00002989DE018F0EAFB10F01F0F35D0012015F0D6FB20B1012015F00AFC15F098FB21
:201D0000082015F0CDFB20B1082015F001FC15F08FFB102015F0C4FB20B1102015F0F8FB57
:201D200015F086FBA87801F08DFF0646307801281CBF0828102801D1746803E0304615F014
:201D400077FB04463078012808D0022817D004283DD008280ED0102834D06CE0002C6AD0D8
:201D600019F0BAF88044C4F80880112038700121A97054E0002C5ED0A870122125E0052089
:201D8000387019F0A9F80146A068514417F032FAB0B919F0A1F88044C4F808806069A168F5
:201DA0002A4A1368DB699F1D294B1B7803EB8303FB5A09FB0319C0F82090A06811680861F2
:201DC00002202BE0BCB3A8701321397027E00620387019F081F80146A0681E4F514417F0C3
:201DE00009FAB0B919F078F88044C4F808806069A1683A685369184A127803F10C0C1201BB
:201E00003CF8023009FB0319C0F82090A0683968C8603868007C0EF0B7FF0420A870304681
:201E200005B0BDE8F04F0BF093BC05B0BDE8F04F002016F0C7BA05B0BDE8F08F303E002018
:201E400000D30100C80F0020780E0020500F0020D80F0020540F0020D90F0020CC0F002005
:201E60002DE9F04F054687B0A978DFF8E066002710294FF0060A3CD8DFE811F0110063034B
:201E80006303630363033C00CC0063036303C7021201FD00180363039902DE025B03687829
:201EA000002826D119F014F8044619F00DF8054619F006F88DF8000022461021022016F0FE
:201EC000BBFC2A461021032016F0B6FC6A460121042016F0B1FC9DF80000012818BF032866
:201EE00007D1012018F0E8FF02460621062016F0A3FC26E368780028FBD195F80CB06C89A5
:201F000000900023E97801AA01F00101281D0DF033F900284FF0010872D19DF80400FEF760
:201F20003AFA8146BBF1080F08BFB846307A800018F018F9050003D1042016F043FA00E3B8
:201F4000707802280CBF0120002000905B469DF804104A462046FEF782FC1422002102A81F
:201F600017F016FF9DF804001AFB00F002AA1021243016F04DFCA8B91022FF2102A817F0C3
:201F800001FA78B99DF804001AFB00FA06AA04210AF1250016F03CFC02AA09F0010120462D
:201FA00018F086FF317A9DF8040089062A46090EE03016F02DFC98B92846FEF754F9BA46FA
:201FC00009E005EB8000018819B18278204617F0D1F80AF1010A317A5FFA8AF08842F0D314
:201FE000B07A30B95FEA897003D53178204616F0ABFB9DF80400FEF709FA284618F0BAF840
:202000007078022805D1B8F1000F02D0204612F039F996E2A888FEF751FD18F045FF002855
:20202000F7D1F07D012808D1FEF73FFAF279706AF775002117F0ACFE17E0307E012803D116
:20204000FEF7DBFA377610E000240AE0706AE5B2415D012904D1E0B2FEF738FA716A4F55C5
:20206000641CE0B2F1798842F0D3502017F002F9FEF7A5F965E218F043FF00280CD0F06964
:2020800000281CBF0468002C07D0286900906B7B2A7B6989E81CA04752E26889012145E2D7
:2020A00068780024002840F0DA80A879C10740F1D6800822002105A817F06AFEA88818F05B
:2020C00047FF040000F08E806F694FB30622002107F1110017F056F968B31022002138464A
:2020E00017F050F9D0B9387C00F001084FF0000909F1010987F811900020009000230022F9
:20210000414607F111000DF037F800285FFA89F002D10028ECD101E000280CD10020686182
:202120000622607900F001008DF81A00A11D05A817F038FE1FE06F69EFB1387C00F001004A
:202140008DF81A00062207F1110105A817F02AFE6079012805D10622A11D04F10C0017F00C
:2021600021FE062207F11101A01D17F01BFE387C40F002006071A879410720794CBF40F03D
:20218000020000F0FD002071A9790A0754BF00F0DF0040F020002071A9799DF81B00DFF820
:2021A000B083890801F0010108438DF81B004FF0FF09A979C90801F0010140EAC1008DF8E0
:2021C0001B00FF2469691E2779B31022684617F0E9FD1021684618F063FE4FF0000BDFF848
:2021E00074930CE0FEF78CFC0028D5D0307804210BF0DCFED0E70BF101005FFA80FB99F8E7
:202200000000834510DAD8F8001007FB0BF00A5CFF2AF0D0084400F10D011022684617F0AE
:2022200075FA0128E7D15C46A1460020009000239DF81A1004AA05A80CF09EFFB9F1FF0F87
:202240005DD034285BD1707D30B3012857D1A888052118F051FE0124A888FEF72FFC6878A6
:202260000B2804BFA888FEF76BFCF06900281CBF4368002B0FD06A78A888012198476878D8
:20228000002808D1A879C10705D5F369A88822465C680321A0474CE1D8F80000002117FB87
:2022A00009F90091002310F80910401C04AA48440CF062FF18BB9DF81000FEF707F9F0B93E
:2022C000FEF77DF8FEF7CEF88DF81000E86800280CBF00210169002201900392029105A9ED
:2022E000686900902B69AA689DF81000FDF7CFFF0446A888FEF7F8FA200046D14BE000208D
:20230000009000239DF81A1004AA05A80CF034FF20B1FEF7A7F88DF8100019E06869B8B194
:202320009DF810001AFB00FA6A4610210AF1230016F06EFA60B91022FF21684617F022F842
:2023400030B99DF81A0005A900F0010018F0F8FD9DF81000F179884227D2E86800280CBF34
:2023600000210169002201900392029105A9686900902B69AA689DF81000FDF788FF0446D8
:20238000A888FEF7B1FA200005D09DF81000FEF79DF8FEF714F8200008D1707A0028A8880D
:2023A0007FF45BAFFEF73EFB59E7152454E7687806281FD1A88818F0CBFDD8B1317D491E22
:2023C000032917D8DFE801F0020E08134179A8880022FEF7D9FA0DE00022002140F2094080
:2023E00002F02CFDA888052118F086FD02E0A888FEF7A6FBF06900281CBF4368002B03D034
:202400006A78A888022198479AE000970023E97801AA01F00101281D0CF0AEFE0028F3D19C
:202420009DF804001AFB00FA05F10C0204210AF1250016F001FA83E0F06900281CBF436840
:20244000002B03D0A888002200219847707810B9A88805216AE0A88818F07AFD040070D0E8
:20246000A87AC10712D5009700236179002201F00101A01D0CF080FE00281EBF60790028A5
:20248000012803D0E868C0F3402028B1707C022807D1A87A010704D4A888032118F0FCFCC0
:2024A0004FE06179A88805F1080227E02F7BAD88284618F04DFD040042D018F021FD0028D9
:2024C0003ED100900023617901AA01F00101A01D0CF052FE28BB9DF80400FDF75CFF07F0F7
:2024E0000C07042F11D0082F0BD00C2F0FD100F0090109290BD0617900222846FEF744FAE4
:202500001EE010F0090F02D1F5E7C107F3D501220092A37C9DF8041002462846FEF79FF9A6
:202520000EE070780028E6D10521284618F0B4FC06E0FEF7E5FA18B1307804210BF036FD1C
:202540000127384607B0BDE8F08F00BF741A0020680F0020193F00202DE9F04F85B00D46A1
:202560000295044615F8011B8DF801100022DFF8E81488788DF8002004F1660B17F0AAFD0D
:2025800001902C219DF80100DFF8D024032804F1F40604F5B07A04F59C7704F5C87804F284
:2025A000171900F0E180072800F01582082818BF092811D00C2800F0D9810F2811D01128FC
:2025C00000F04681182800F094811A2800F059811B2800F07E811CE22946204610F038FABC
:2025E00017E2707ADFF8788481070AD40F2089F80200204618F04CFC002872D198F800005C
:20260000DEE12878697800EB01223A82A878E97800EB01227A822879697900EB0122BA8258
:20262000A879E97900EB0122FA82287A3876697AA87A01EB00227A83E87A297B00EB012219
:20264000BA83687BA97B00EB0122FA83E87B297C00EB01223A84687CA97C00EB01227A84C2
:20266000E87C297D00EB0122BA84687DA97D00EB0122DFF8F003FA8401788A0658BF4FF044
:202680001A0A13D504F5AA700490798B0391387E029021890191F88A0090BB8A7A8A398A4D
:2026A000204618F0F1FBE8B14FF01E0A707A41070AD40F2089F80200204618F0E9FB002884
:2026C0000FD198F800007BE152460F21204618F0D7FBF88A0090BB8A7A8AA179504612F019
:2026E0002FFB74E104F18600798A81800023BA8AC2800222F98A018102704380A18EC91DC0
:20270000ABF81E10628E8188B1EB520F02BFC188A28E914202BF0089E18EB0EB111F21D070
:202720009BF81000012804BF9BF811000F280CD09BF8150000281CBF9BF811001A2804D0EE
:202740000F218BF81A10FE217EE0FC21204618F093FBF88A0090BB8A7A8A398AA07918F0C7
:2027600087FB34E110216FE0707AC10709D431781A200129707002D1FF220D213DE00D2159
:2027800062E000208BF800008BF80600012232712946082204F1B00018F066FB01460222F3
:2027A00004F1B80018F060FB04F1A80501460822284618F059FB07460821284618F070FBD5
:2027C00004F19C0504223946284618F04DFB0421284618F065FB04F1A00018F041FB04F137
:2027E000980018F039FBA048018841F0800101803078012805D1FF220421204618F028FBE3
:20280000E5E09BF811600F2E18BF142E07D00E2E18BF0C2E03D01A2E18BF162E13D19BF8C8
:202820001070204618F010FB0421204618F024FB012F06D18BF81A601A2E14BFFD21FB2194
:2028400002E0314600E00421204618F015FBBEE028788AF800001A286B788AF8013040F0D4
:20286000D8801068A679431C4E4300209855A379126811FB03F111440871A1799AF801005B
:20288000C0E0A77910682E784F43074406F01F0317F8210FB60938B17878F040C00703D5BF
:2028A00098F80600042805D120221A21204618F0E7FA8CE0FB701068A27911FB02F1014406
:2028C000204681F82360002117F05EFF0028F0D174E0A37910684B430344D88808B9002624
:2028E0005E701068A27911FB02F10144002008716DE069782878884204BF084010F0070FE1
:202900006DD19BF81100162806D198F80620A179134600200BF0E4FA022088F802000121D8
:2029200001984177012398F8060098F80A1088F80000BAF81C2018F083FABAF81810814252
:2029400009D3BAF81C2098F80A1098F80000012318F076FA0146AAF82E10012198F80800F6
:2029600040F0400088F80800397030E0707E012810D015F8011B31770222294604F5897059
:2029800018F072FA0146022204F58A7018F06CFA012070769BF8060030B93D21012289F86C
:2029A000011089F8002012E0F07E002804BFB07E00280CD1204618F03FFA30B9284800786F
:2029C0004FF480410BF0F2FA01E00120F07601218DF8001021E028780F2816D01A2818D104
:2029E000A07913684843184400234370A079126811FB00F150180371F07A00F0FB00F07263
:202A00001A20A1790DF037FCE1E7707A00F0FD0070722046029918F00BFA9BF811001A28BD
:202A200015D19BF8120017281CBF1028FC280ED19BF81060204618F007FA012E03BF1A2019
:202A40008BF81A00FB211A21204618F015FA9DF8000005B0BDE8F08F780E00208C3E002007
:202A6000C70F0020200E00209C0F00202DE9F84305460C46480413D4A00024D4A0075CD4B7
:202A800060057ED4200500F10681200700F13B81600040F1F68010F08BFF24F08044F0E0D5
:202AA00017F03AFCDFF81C140F6D3FB1D7E90A1202F0E04201F00A01891849D017F0C9FDF3
:202AC00024F48044DDE0BB48DFF8FC73016841F080010160B878012804D1042014F07AFECA
:202AE0000020B87017F018FC0646042017F04AFCDFF8D8130A68904219D12A7EBAB1FA6851
:202B0000AAB1DFF8C003806C002800F09780C16840F603020988914206D0C06840F60401A4
:202B20000088884240F08A8005F1140088E040F6C4120860C5E9042284E007F07BFADFF8A8
:202B40008403006C002840F09D8024F0020498E0D7E90A65D7E90A12AA43B143C7E90A12C3
:202B600017F077FDB8680028AAD056EA0500A7D0D7F808C03869B7F9301032462B46E04724
:202B80009EE717F0C9FB054615F0C8FF002800F0B780CC48876B002F00F0B280DFF82883A6
:202BA0000420CB49002288F81800C64816F0AFFF17F061FDC74817F040FDC7480068006BC7
:202BC0008047C8F810000125042088F8025015F065F8386990F82810C8F80400490703D593
:202BE000436A042100229847012011F09FFDD8F8040045760DF020F8D8F8040081680B4692
:202C00001A465B684BB11E88A6F60306072EF7D805FA06F616F0830FF2D0537B03F0F0033D
:202C2000013353730023FD6853602D88A5F60305012D00F28A80C8F810309FE005F1100058
:202C400013F044FA304617F004FD15F03FF878B12E6A28466FF4807100224FF00073B0472B
:202C60009848806B10B110F0A3FE01E044F00204EE692846002100224FF08063B04724F0D7
:202C8000005434B1974821462830BDE8F84317F099BDBDE8F8838C4EB078012804D10420DC
:202CA00014F098FD0020B07015F010F838B170686FF4807100224FF00073056AA84730694E
:202CC00050B185480068006B804732697168801A000BC860002030617A4D81490022284679
:202CE00016F015FF02203076286C20B17D480221283017F067FD10F05BFE24F40064C0E766
:202D000017F0B9FC41E017F007FB054615F006FFA0B1DFF8B48198F8000000070ED498F911
:202D2000000000280AD468460DF07CF808B1009820B1DFF8B49199F8610048B317F09BFCA5
:202D400010F036FE24F008049BE7034633F8385FA5B190F8445090F8456005F0F00580F891
:202D6000445006F0F005013580F8455000255360C5634587507B00F0F00050735748002296
:202D8000C2610160012016F065F924F4806478E700260127602E0FD009EB0600817A31B13D
:202DA0008772407A07FA00F0C0B214F02DFD2036F0E700BFCC210840032088F81800454866
:202DC00017F03BFC17F057FC444F3E4D0022786900207861F968F8602846444916F097FEF2
:202DE0003D480068006B8047D8F80C10D8F82020411A02EB1130B0EB113F38BF4FF0FF30DF
:202E000098F82410C8F8200021B1D8F80810B0EBC12F20D916F02EF9B8B140F60900414674
:202E200021F83C0F002048804A7B02F0F00201324A730A7B02F0F0020A734860F86139602D
:202E4000B8F83E0010F4406FFAD00020C8F82000012088F8240012F02FFE25480021016024
:202E60000220002116F0F6F8022014F0B3FC10200CF074F898F8010020B9D8F804005030F0
:202E800017F09CFC1B48807810B90D200CF066F898F8250028B1002088F82500052014F06C
:202EA00099FC002088F818001348C8F81C000220B5F85610B5F85420914208BF072010F077
:202EC00025F83DE7F41F0020F01D002024240020F98A0100E03900208C010010001004403B
:202EE00099C70000901F002028370020153A010000000460F4D6010081C100002DE9F84312
:202F0000DFF82C54DFF82C842968DFF82C74087C16F034FF044628680021C17204F12E09B4
:202F200028680DF06FF80120607104F5977598F80100401C88F8010080200BF013FC20600E
:202F4000DFF8F823B8692168C860162097F82F104143501801894900A9F80210C079B9F84D
:202F60000410400089F800004900B9F80800A9F804100001A9F808004946204617F054FFCC
:202F80000520A081204617F04BFF3868016800200871386817F040FF00F108063078C0F352
:202FA0008010287004F59470317811F00F0F1CBF01F00F02012A08D001F00F03022B1EBF37
:202FC000042A01F00F01062902D10622B11C01E00622311D16F0E6FED94FA2793868520154
:202FE00041F6220181520023A17900EB411253800022A17900EB411042603178D14811F079
:203000000F0F1CBF01F00F02012A08D001F00F03022B1EBF042A01F00F0106290AD1CA4959
:203020008A78510608D5C94A138841F20A418B4208BFC748C4F89C01D4F89C112046884784
:203040003A68A17902EB411398733868A17900EB41120020D0733968A27901EB4210817B17
:2030600089F80B10307810F00F0F1CBF00F00F01012908D000F00F02022A1EBF042900F0EA
:203080000F00062803D170783018C07800E0707C04F5CB71002818BF012810D13A6802F118
:2030A0001003A279520198543A68A37902EB431300225A74401C08700A71A64816E0042259
:2030C0000A70A2793B685201032804D1103306209854012002E01033022098540871A17929
:2030E000386800EB4112202050749B480188E9870088A179994DA4F87401386800EB41119C
:20310000974800780CF042F9A07939682B68400101F11402034413503868A17900EB4112E9
:2031200090489061A0790BF039FCA279296852018850A27929685201885820B90721204660
:2031400015F02AFBEFE0A079874E01EB40111F220A762868A17900EB411200205076316823
:20316000A07901EB001017F053FEA079296833687E4E01EB401203EB00105060A17928683B
:2031800000EB4112516804F168021160A3795B01C158916071690978CA074CBF1F210F213F
:2031A00072691278930748BF41F0200172691278530748BF41F0400172691278130748BFF9
:2031C00041F08001A27900EB421001722968A07901EB40120B2151722868A27900EB4211B2
:2031E0000420634A88721178012907D12868A27900F10B0152010120885407E0706A29682F
:20320000A379007801F10B025B01D0542968A07901F10C024001616A11502868A17900F1E9
:2032200010024901A06A50542968A27901EB4210A16A090A41742868A17900EB4112A06AD5
:20324000000C907408214B4A10780AF0AFFE3868A17900EB41122068C16891604FF0640C28
:203260002068C168C26801618260A0793968400101F10C020C31135C03F0EF030B54A0792B
:203280003968400101F10C020C31135C03F07F030B54A0793968400101F10C020C31135C25
:2032A00003F0F00343F002030B543868A27900EB4210417B01F0F00141F001014173306B79
:2032C0002968B9F80460A37901F11402016801FB06F0B0FBFCFC40F6C4105B0100FB0CF0C9
:2032E000A0F5966C42F803C02968A07901EB4010C17C01F0F00141F00401C1743868A17910
:2033000000EB4112206842600821204617F0B4FD194908200870A279184988F80220206856
:20332000174A41618261BDE8F14317F063BA00BF540F0020780E0020BC0A0020E0070020D5
:20334000980E002081010210C00C00209A0F00204DE501108E0F0020900F00209C0E0020D5
:20336000CA0F0020980C0020A40E002000D30100CC0F0020C70F0020C80F002089C20000B7
:20338000020480802DE9FE4F0546DFF82C04DFF82C640278002A4CD0052A73D0062A00F0B9
:2033A0008080072A18BF082A00F0F5800A2A00F0D681112A02D0132A70D0F4E1DFF8003489
:2033C0001878002117F020FD04001EBF606D407810F00C0F2DD0216DC0064CBF886C486F90
:2033E000016801F108050622A91C684616F0DAFC287800F00F0105291BD145096946C0F384
:20340000801017F0FDFC002813D03168684617F0F3FC0746316804F1380017F0EDFC874208
:203420000DD0606D4178C80604D440F2014017F0DFFCBEE1607B40F002006073B9E133687A
:203440001E2010FB07F6981906226946C01D16F0A9FC606D4178C806F0D5A17B0129EDD1F9
:20346000DFF860038178480605D5E90703D4206D41F20A4102E0206D41F2044141804183B3
:20348000418696E117F07CF90028FAD10FF070FA012802D0012017F0A7FC8AE111F053FB96
:2034A00087E1DFF82453286817F0B6FC0400F7D020790328F4D1207A00F00F01072937D1E7
:2034C000C24800684169497A4A1E11425CD0617A04F10A035A5C02F03F02252A54DBA17AC7
:2034E0008A09012A50D111F03F0F4DD0007C16F045FCE17ACA074CBF04F1110204F10B027D
:203500008B0748BF921D0B0748BF921CC90648BFD21C1278520916214A43AD498B180A315B
:20352000EB608A5A428699898186DA89C2862BE000F00F00082827D1A17A880924D119B321
:20354000A2480168087C16F019FCE17A074688071AD5062201F001015143601800F10C012E
:20356000684616F01FFC207AC009694617F048FC50B1306800F10D01684617F031FC18B9D4
:203580000521384615F008F92079032802D0002014F018FF03E1DFF83CB29BF8020000244E
:2035A000FF281BD016F0EAFB804608F16C09D9F8040017F031FC2A460179032901D01100D9
:2035C0000CD08368197801F003008D06009003D50124009818B9BFE01000FAD0E9E05D78FF
:2035E00003F1020A34B31AF8010B7B4B01902C2098F806C01F6810FB0CFC67444FF0010E3A
:2036000087F805E0002A1F6898F806E007F11A0C019F10FB0EFE07F01F070CF80E7098F81B
:2036200006701B6810FB07F01844019BC3F38113C3761AD10098032808F217171AD0ADB1F6
:2036400099F8000068B108F1F4000278012A0DD1594B1A78072A04D0082A04BFC0780128BF
:2036600004D13D21797001203870A2E05B4A1378012BFAD098F8940070B32D1FEDB25346F2
:203680002A4640460EF032F800281EBF54490878002807D13D21797001203870306817F03B
:2036A0009BFB86E04F4801688847064698F80610DBF804204FF4D07041435018002280F84D
:2036C000412108F59E700168807949080EF05EFC45490A6830469047009803281ED04349E8
:2036E0004869007882070DD598F89400002814BF281D28464A691178CA0748BFC01C1AF862
:20370000000000E0812089F808002A460098C3B29BF80200514604F009FE1DE09AF800006C
:203720001CB11B2804BF022D01251C2803D230490B5C9D4205D0B8700721404617F09CFB40
:203740000AE01D48017808295146404602D116F0D9FF01E0FEF700FFD9F8040020E0254C87
:20376000207830B3244D286817F056FB08B3017903291ED1017A8A0611D5807AE178C0F32E
:203780008112914202BF217900F01F00814206D1A078002801BF607800280121A1702868FC
:2037A00017F016FB05E0002014F00CFE862017F00BFBBDE8F78F00BFC80F0020680F0020B3
:2037C000D50F0020C00C0020BC0A0020540F0020E0070020780E00208C3E0020D20F0020F8
:2037E0001A3F0020182300201C23002000D30100CCD50100183E0020AC0C00202DE9F04F7D
:203800000F46380589B018D5DFF8E4532888FF280ED0C0B216F0B2FA040009D0A0791621DC
:2038200017F0CEFA204616F09FFA204609F086FBFF20288087F40060D6E1F80504D513F0A2
:203840007AF887F48070CFE1B80604D516F06CFF87F02000C8E1F8070CD516F063FC30B16D
:2038600000218160DFF88C03006800B1804787F00100B9E1380704D516F058FF87F00800FA
:20388000B2E1F8060FD50021002200230691059204910393029101920091022017F08CFA8E
:2038A00087F01000A0E1B8070FD500210023069105910491039302910191009101223C208C
:2038C00017F07AFA87F002008EE179074FF01E08C94EDFF828A340F1CD80C9480022002115
:2038E00008920791007817F08FFA0446C5488178FF2904BF002014F065FDA07A16F03EFA75
:2039000005469AF8000095F82E91002805F5947B69D0606D807A022818BF032807D13068B1
:203920000D3017F045FA10B93068C11D07915946484617F065FAA0B3606D807C33680028BB
:2039400018BF012804D11946584617F055FA04E05A464946184617F0FFFAFF2843D018FB81
:2039600000F83068404406225946C01D16F01AFA306810F80810404400F1010BC01D41F02E
:20398000020908900622616DC87A00F0010085F82E01606D00F10C0105F5947016F002FAE4
:2039A00021E05946484617F0FFF9E0B130685A46494617F0D1FAFF2815D018FB00F8306801
:2039C00040440D3017F0F4F958B9306840440D3017F0EEF9002801BF30684044417F0129EC
:2039E00001D149F0020905F12C004B46017806914289120905920122698C0491C0880899DB
:203A0000029140080390CDF800B0079801900020A97917F0D1F9D5F89C017B4988420CBFBD
:203A200000210121A87917F0BBF97848AB7902682C214B43134401221A73AB7904684B4319
:203A400023445A73AB7904684B4323449A73AB7904684B432344DA73AB79006811FB03F142
:203A60000144002008740720A9790FF00AFF87F00400B9E038060FD500210023069105916D
:203A80000491039302910191009101223B2017F093F987F08000A7E0F8045DD55C4930684B
:203AA0000C680D3017F084F9002844D13068C11D0D3017F071F93EE0606D4178480704F188
:203AC0003E0526D5287802281EBF03286878012830D16978306804F1380217F03DFA81461F
:203AE000B9F1FF0F15D0306818FB09F948440D3017F05EF968B930684844C11D0D3017F0EE
:203B00004BF930684844C11D062204F1380016F049F92878022818BF03280BD130680D3045
:203B200017F046F930B93068C11D062204F1300016F038F92468002CBED13648DAF80420A1
:203B400000784FF4805112F0F3FB10B18E2017F01FF987F4805047E0B80505D516F0FAFB57
:203B60002D4901200860FEE7780504D516F077FE87F4806038E0780405D5812017F008F91E
:203B800087F4804030E0B9042DD5244C206810B1002014F017FC4FF0FF3020600020204CB1
:203BA0000DF0E2FB216851F8202F684690471D494A6B086BC96A24681B4B0192009002931A
:203BC000ADF810106B46194A19491A4803921A4A07922568194AA8471949086003F064FBBB
:203BE00087F4005000E0002009B0BDE8F08F00BF1E240020480F0020680F0020880E002038
:203C0000D70F0020780E00204DE501108C3E00204C0F0020C70F00207C052043380F00200F
:203C2000200F0020801D002005A1010015A10100F83D0020983100201EFB0080703B002078
:203C40001C0F00202DE9F041FF2806462AD116F035FC10F01F0F22D0042013F021FC08B110
:203C6000042016E0012013F01BFC08B1012010E0022013F015FC08B102200AE0102013F0F7
:203C80000FFC08B1102004E0082013F009FC20B10820BDE8F04113F03BBC14F093FB0020A1
:203CA000BDE8F08113F034FC5FEA000814BFD8F804500025012E46F2A81740F6C4140BD03F
:203CC000022E69D0042E00F0B780082E00F01081102E00F05781E2E7012013F0E1FB002874
:203CE0001EBFDFF86803006800281CBF8788BF00102013F0D5FB18B3102013F009FC040062
:203D000002D066685EB900E00026022013F0C8FB28B1022013F0FCFB040018BF66686DB142
:203D2000012013F0BDFB002818BF002E06D0B068C11BA86815F05EFA00282BD02046AFE724
:203D4000022013F0ADFB38B1022013F0E1FB040014BF666800260AE0042013F0A1FB50B133
:203D6000042013F0D5FB040014BF66680026002DE4D001203EE1082013F092FB28B10820A7
:203D800013F0C6FB040005D052E0012013F088FB002885D0404683E7022013F081FB58B196
:203DA000AB480168AB48CA69017801EB81015318DF88674307F51667042013F071FB38B129
:203DC000042013F0A5FB040014BF6668002622E0082013F065FB98B1082013F099FB0400B8
:203DE00002D06668BEB900E00026012013F058FB88B1012013F08CFB040018BF66680AE0B8
:203E0000012013F04DFB50B1012013F081FB040014BF66680026002D90D00220EAE0102021
:203E200013F03EFB30B1102013F072FB0400B1D06068EAE00220A9E7042013F031FB50B1A8
:203E40008548016885484A69017802EB01139F89674307F51667082013F022FB98B108202E
:203E600013F056FB040002D06668DEBB00E00026012013F015FBA8B3012013F049FB0400B0
:203E800018BF66682EE0012013F00AFB38B1012013F03EFB040014BF6668002622E0102003
:203EA00013F0FEFA98B1102013F032FB040002D06668BEB900E00026022013F0F1FA88B1F4
:203EC000022013F025FB040018BF66680AE0022013F0E6FA50B1022013F01AFB040014BFF3
:203EE00066680026002D23D0042083E004204DE716F03EFC08B1D0F89470042013F0D0FA19
:203F000038B1042013F004FB040014BF6668002632E0012013F0C4FA58B1012013F0F8FAB4
:203F2000002D044604D0082013F0BAFA00286ED104E7102013F0B4FA98B1102013F0E8FAC6
:203F4000040002D06668BEB900E00026022013F0A7FA88B1022013F0DBFA040018BF66689E
:203F60000AE0022013F09CFA50B1022013F0D0FA040014BF66680026002DD9D0082039E0CA
:203F8000082003E7032016F0F5FB08B1D0F89C70022013F085FA38B1022013F0B9FA002DD7
:203FA0000446C5D01020BFE7042013F079FA38B1042013F0ADFA04000CBF0026666816E042
:203FC000082013F06DFA18B3082013F0A1FA040002D066685EB900E00026012013F060FA7F
:203FE00028B1012013F094FA040018BF6668002D9ED0102013F054FA002818BF002E97D0DD
:20400000B068C11BA86815F0F5F8002890D1C1E6012013F045FAB0B1012013F079FA04001B
:2040200014BF66680026002D05D0102013F038FA002818BF002E3FF481AEB068C11BA868BF
:2040400015F0D8F8E1E71020A0E600BFA03E0020500F0020D80F0020540F0020D90F00203F
:204060002DE9F84FDFF884730446386808B90720B9E1C07A012804D0042013F02DFA0128FB
:2040800001D10C20AFE1DFF868030078092818BF0A2804D00B281CBF0C280D2801D1212040
:2040A000A1E1002C00F0BE802078002818BF012807D1A078002818BF012804D0022818BF77
:2040C000032840F0AF806078002818BF012803D0022818BF032873D1607A10F0050F6FD0E6
:2040E0000025AA4640F67B4243F6FD7340F67746607A0121A940084236D004EB0A10418914
:20410000A1F1040E9E453EBFB0F80CC0ACF1040E9E4510D2614522BF018BB0F816C06145FC
:204120000BD3C189A1F1060E96453EBFB0F810C0ACF1060E964575D28C4573D3B0F812C0FD
:20414000BCF5FA7F6EDA808AA0F10A0EB6453FBF0CF1010C490001FB0CF1B1EBC00F61D257
:204160000AF101005FFA80FA6D1CE8B20228BFDD39684C61607A06280CBF012000209D493F
:20418000087002F0B9F8050008BF092009D03968A8790874E11CA278402007F0E5F808B1F4
:2041A0000B2020E105F16101284616F0EDFD05F12C0898F80E00012803DC28460BF0F0FBF9
:2041C00030E039686078DFF830A2DFF830B2DFF830928C4E88726078002818BF012807D1AF
:2041E000C00754BF594651463B680622181D3BE030680D3016F0DCFD30B999F8001000292D
:2042000004BF2078002813D16078C10754BF5946514616F0C9FD28B16078C10754BF594657
:20422000514601E01220DEE038680622001D0CE030683B68C11D0622181D15F0B3FD724860
:204240000168086833680622D91D15F0ABFD6078316800F0010008706078C10754BF5946F3
:20426000514630680622401C15F09CFD207888BBA07885F82E0105F5947A0622E11C50468B
:2042800015F090FDA1783068E21C01F0010116F063FE8346BBF1FF0F1CBF99F8000000286C
:2042A00018D0A07840F0020085F82E011E21326811FB0BFB02EB0B01487F58B901F10D0065
:2042C00016F076FD30B930685844C11D0622504615F068FD16F054FDA86215F0A3FB686274
:2042E00004F11001DFF80CA19AF80000000104F114030A5AA8F80620195AA8F80A102044DA
:20430000428AA8F8082002223868417C88F80010002088F80220A8F8040016F056F90C220F
:2043200090FBF2F20C2101FB1200401D88F80F0004200AF017FA3968344A086082613449D1
:2043400041603449416106200FF089FD39680120C872A87912F084FD99F80000002801BFD9
:20436000386841690A78012A0DD1807A02280AD1316801F10D0016F01BFD20B926484179B2
:2043800041F0040141711A4C2078C8B999F8001049B12248006816F0EFFC38680068816966
:2043A00041F4802181613868007C0CF0EDFC06202070012200210FF064FA16F01BFA11E0E1
:2043C0003A68117ED06852699AF8004002F10C03240140F6C4121D5B02FB050000F51660CF
:2043E0000AF09EF80020BDE8F28F00BF540F0020C80F0020D90F0020480E0020400E0020C2
:20440000880E0020680F0020AC3E002002008080683C0020591A0100BC0A00206C0F00208A
:204420002DE9F84785B004468A4611F8010B00272C22072804F5A47504F1660804F1FD06B2
:20444000DFF86C93DFF86C3300F07081092810D00C2800F033810E280BD00F280DD01128E8
:2044600000F0DE801A2800F0F0801B2800F0188179E120460EF0ECFA75E13378980705D463
:204480000F213177204616F003FD06E198F81000012804BF98F811000F2811D098F8150007
:2044A00010B198F811201AB198F81C20012A09D1580705D40F213177204616F0E9FCECE0B1
:2044C000232268E018B198F81100012804D004F18607B87A012809D1580705D40F21317721
:2044E000204616F0D5FCD8E02A2254E008784A7800EB02232B808878CA7800EB02236B800D
:2045000008794A7900EB0223AB808879CA7900EB0223EB80087A28724A7A887A02EB00236B
:204520006B81C87A0A7B00EB0223AB81487B8A7B00EB0223EB81C87B0A7C00EB02232B82C2
:20454000487C8A7C00EB02236B82C87C0A7D00EB0223AB82487D897D00EB0122EA8204F54E
:20456000AA70049069890391287A029021890191E8880090AB886A882988204616F084FCD5
:20458000B0B13078410705D40F203077204616F07FFC82E01E220F21204616F071FCE88819
:2045A0000090AB886A88A179002010F0C9FBBBE06888B8800022A988F9800221E88838816D
:2045C00039707A80A08EC01DA8F81E00618EB888B0EB510F02BFF888A18E884202BF388989
:2045E000E18EB0EB111F19D098F8150000281CBF98F811001A2804D00F2188F81A10FE2140
:2046000081E0FC21204616F037FCE8880090AB886A882988A07916F02BFC85E0002172E089
:20462000087828761A284978697640F09C801868A679411C56438F551968A37912FB03F216
:204640000A441771A179687E86E094F806C018680E7812FB0CFC604400F1210506F01F01E0
:204660002878B60938B16878F040C00703D594F89601042805D120221A21204616F000FC39
:2046800052E0E970A179186812FB01F28118204681F82360002116F077F8002844D13AE00D
:2046A000A179186851430144C88800B94F70A179186812FB01F281180F7135E0327C012A1E
:2046C0000FD011F8010BF074022204F5897016F0CBFB0146022204F58A7016F0C5FB01205B
:2046E000307498F8060020B93D210120F176B0761AE0B07C002804BF717C002914D198F8FF
:20470000000020B90C21204616F0B6FB0CE0204616F092FB30B999F800004FF4804109F01A
:2047200045FC01E00120B074012720E008780F2815D01A2817D1A0791968504308444770F4
:20474000A0791B6812FB00F298180771B07800F0FB00B0701A20A1790BF08DFDE4E7307817
:2047600000F0FD0030705146204616F001FB98F811001A2818D198F81200182818BF002800
:2047800003D0152818BFFC280ED198F81060204616F05AFB012E03BF1A2088F81A00FD218B
:2047A0001A21204616F068FB384606B0BDE8F087C70F00208C3E00202DE9F84F054605F121
:2047C0004C0AE87D9AF80010DAF8047081424FF00008C0F0918105F1280407F1980907F1B7
:2047E0007B06C34640F08C80A87F7075E97FB175DAF808205278930710D5EA7FD30604D5FB
:20480000C01E707501F0EF01B175C7F87CB086F800800022B17D01F0FE0168E1910608D4E9
:20482000E08B00B1E07E3076E08B00B1206AC9F80000DAF808004178CA070DD5E08B002818
:204840001CBF206A002807D0C9F80000A17EE08B814238BF08463076E87FC1060CD5F86B89
:20486000217800EB8100F863F86BA98CA63100EB8100F867022002E0C7F87CB000203070EF
:20488000DAF80800417811F0030F22D1007815F073FF5FEA00081CD098F8B400032809D10A
:2048A000E87F810615D440F02000E877B07D40F020000DE068B9E87F81060AD500F0DF004B
:2048C000E877707DA0F112017175B07D00F0DF00B075E97F002201F0FC01284609F086F884
:2048E000B8F1000F36D0E87F810633D598F8B40002282FD141462846BDE8F44F15F046BFAF
:20490000E87F81060AD500F0DF00E877707DA0F112017175B07D00F0DF00B075DAF808002A
:204920004178C80717D5B07D717D00F0F700891E01F03F0182075CBF891D40F00200420665
:2049400044BF491E00F0BF00B0757175C9F800B086F81880D0E09AF80020E87D121AD2B235
:204960008907009240F18080012A07F144083ED1F86BA98C00EB8100F863A87F00F03F00B1
:20498000A8777075E97FB175DAF8082053785A0703D5801F707501F0FD01B1750023717DDD
:2049A00098F80000E27E01F03F018A18C0F38001521C00F0030016F0D7F900F59B70A8849D
:2049C0001E2180B290FBF1F0B17D82B201F0FE01284609F00BF886F800B0E08B00B1E07E96
:2049E0003076E08B00B1206AC9F8000084E0F86BA98C022A00EB8100F86325D1E87FC10796
:204A000006D5707D811F7175B07D00F0FE00B0750023717D98F80000E27E01F03F018A1834
:204A2000C0F38001521C00F0030016F09DF900F59B70A8840022B17D01F0FE01284608F073
:204A4000D5FF607FA8F81E00617F0098491C081AC0B201281CDDF96BAA8CA63201EB820171
:204A6000F9670221317014E0F86BA98C00EB8100F863617F0098081AE97FCA06C0B207D59F
:204A8000F96BAA8CA63201EB8201F9670221317090B395F81F80A97FD9F80020E37E1A44CA
:204AA000C9F8002028F00108DAF808205278530748BF28F00208920748BF28F008080128BC
:204AC00007D1207F3076C7F87CB028F0100886F800B001F0C004404616F042F900F03F00C5
:204AE0002043707586F81680002208F0FC012846BDE8F84F08F07ABFBDE8F18F2DE9F04F3E
:204B00008FB0074618984FF0000C002A01938DF8200000F08D810AA80E464FF0200A00241A
:204B200000F1100ECDF800E0114611F8010B25280E910CD0002800F07781022EC0F00C8110
:204B4000013E002F00F0078107F8010B04E15378901C0E902D2B07D14FF00109D01C8DF880
:204B60000D900E90937803E04FF000098DF80D90302B05D10121069110F8011B0E9002E014
:204B80001946CDF818C04FF0FF322A29CDF808C004922CD1019D29680A1D2A60D1F800800D
:204BA000CDF80880B8F1FF3F10F8011B0E9007DC4FF00109C8F100088DF80D90CDF80880A3
:204BC0002E2925D1CDF810C0024612F8011B2A290E9220D1019D29680A1D2A60096821EA45
:204BE000E17BCDF810B0417802300E9027E04FF00008A1F13002092AE0D810F8012B08EB27
:204C0000880501EB4501A1F130080E901146F0E74FF0FF3B13E04FF0000BA1F13000092896
:204C20000AD812F8010B0BEB8B0501EB4501A1F1300B0E920146F0E71046CDF810B0302B03
:204C400041F0200306BFCDF81880424600226C2B06D101218DF80C1010F8011B0E9001E060
:204C60008DF80CC0CDF81CE00AAB6929CDF814C0099301D064290CD1019B1868011D1960B8
:204C80009345C8BF5A46016870466FF0090306921EE075290AD0A1F16F03092B5FD8DFE847
:204CA00003F0058C6A6AA76A6A6A6A05019D2868031D2B6078294FF0080308BF10237529EC
:204CC00008BF0A239345C8BF5A460168069270460DF0DEFDDDF800E00990AEEB00010591D4
:204CE000A8EB01004FF0000CB9F1000F02901CD109E0022E06D3013E1FB107F801AB029857
:204D000000E00027013401380290F2DA0DE00998022E07D3013E27B1007807F8010B0998ED
:204D200000E000270130013409900598411E00280591ECD19DF80D0078B1029801380290C6
:204D40000BDB022E05D3013E17B107F801AB00E000270134F1E7002701340E9AE4E6632945
:204D600009D1019A1068011D11600121006805918DF82800B4E70138022E0E9052D36FF0C4
:204D800000400BF1010186426FF0004038BF30460246B34538BF0A46002908BF02460492AC
:204DA0000EA9019A02AB05F08FFADDF800E09DF80D90DDF80880059992E7019A10231068D5
:204DC000011D11600821082206919DF820100029016870460DF05CFDDDF800E0A0F10101AF
:204DE0004FF04002099100F8012CAEEB010176E7019A1068011D11609DF820100068002983
:204E00000D49002808BF0846099015F026FA0146834538BF59461BF1010208BF0146DDF8AA
:204E200000E05CE700215BE70FB100203870A44660460FB0BDE8F08F9CC20100F8B514468B
:204E400000254FF48067DFF89862C21B84B006F1880337D0921E3CD0521E44D0521E4AD0CE
:204E6000521E50D0521E54D0521E00F07A80921E00F07C80D21E00F0AC80521E00F0B78075
:204E8000921E00F0C080521E00F07B80521E00F0C180521E00F0CF80521E00F0D280521E65
:204EA0003ED0521E56D0521E4BD0921E00F0DE80921E00F0E280521E00F0ED80521E00F096
:204EC000F98000E101290FD12078022817DC707003E1012908D12078022810DA0028B070FE
:204EE000F6D1B074E3E0012940F0EB802078052805DAF070F1E001296CD12078022880F2CF
:204F0000E0807073E9E0102964D110222146754814E001295ED12078022863DA3071DCE018
:204F2000012957D1207802285CDA00287071F6D00120F074602206F12801184614F032FF9E
:204F4000CBE00129FCD12078022802DAB07115F0F1F8C2E001293DD12078022842DAF072E8
:204F6000BBE0012936D12078F073B6E0002931D115F09AFF10B9FBF798FA1DE00120F0753B
:204F8000ABE0072926D10622611C02A814F06EFD00950023217801AA02A80AF0EDF8B0B9B3
:204FA000F07A10B915F080FF10B1F07A012808D19DF80400FBF78AFA0546502014F05AF9EC
:204FC0001EE0716A9DF804200120885485E0342583E0012975D1717C2078022903D0C11F4E
:204FE0000A2902D36DE010286BD1307475E0012967D1B17D2078B075002908BF01286CD14C
:20500000FBF7DDF969E001295BD12078052858DA307562E0012954D12078022851DC0028E5
:205020004FD07074022803BF102030740120002015F092FE51E0012943D1207814F04AFB87
:205040004BE0707900283CD1602908D1002C38D060222146184614F0A5FE012004E0012954
:205060002FD1002C2DD02078F07436E0012928D13CB320781C4908702FE011BB15F014FF7B
:2050800030B9FBF7BAFA0546502014F0F3F824E00120307621E0012913D12178022910DA4F
:2050A000012904BFB078002816D0B174084615F049F812E0012904D120780228B8BF707505
:2050C0000BDB182509E00F2806DA022904D1218811F0D4FA054600E00225284605B0F0BD13
:2050E000741A0020983C00201E3F00202DE9F04F89B0A04E0546A04F30780328387040F030
:20510000AC8000203070387002AC204615F0CEFA2046002114F0FAF8984CB8602E212046EC
:2051200014F05AFE4FF0FF30A0822061E06013F02BF80020294610F0E3FC07F11001F860CD
:2051400015F096FAD7E905128D4DB1FBF2F0C0B2022828BF022020702870B2F5005F7AD15D
:20516000B1EB403F77D3F968002974D04FF6FF7100274FF088586FF0030B61808149616028
:2051800087426DD2FEB2002108AA0423304614F0F1FE07EB470004EB800A0898D14600F497
:2051A0007C0129F8160FB1F5402F04D000F07F41B1F1164F3ED1C0F301418AF819106FF07E
:2051C000FD0151FA80F21021022A31D3C2B27E2A2ED003A811F0F8FF304600214FF0885246
:2051E0004FF400534FF4005514F0C4FE1BFA85F5A8B250F808104A1C01D10328F6D801221E
:205200000126D3B2042B06D8CBB2FF2B18BF16460132090AF5E740F808105C4803990068E1
:2052200042685B48904755FA86F199F80000544DAAF81C10C0B2702807D0782803D0FE280A
:2052400005D07C2804D1E77002E0277100E0A7702878013794E70120307009B0BDE8F08F47
:20526000E178FF2903D0DFF81081012529E02179FF2904D0DFF80081E170022521E0A178C3
:20528000DFF8F480FF290ED00131B1FBF0F202FB101000EB400104EB8101898B09B1E07025
:2052A000EBE7FF20A07000250020E5700AF0E4FF98F8001008437E2188F80000002012F04A
:2052C00055FAA078FF2813D12D48E17800780131B1FBF0F202FB1010A0700AF0CDFF98F8D3
:2052E00000100843FE2188F80000A07812F03EFA2548E278022D057002EB4200627004EB07
:205300008000818BE18028D0012D2BD103AD002788B2182826D30739D0B22A4689B20BF0CC
:205320009FFF9DF81700400717D5E088BDF81A10E6782A4603230097401A073881B23046DC
:2053400005F0F2FEE27820B9BDF8181009B196420BD0964206D0E188DAE701206071002001
:2053600000F046FD98F8000077E79DF81C0010F047F9F7E71123002000220020403B00200C
:20538000233F0020FF000020243F0020D8010010004003402DE9F04F8DB0044600209A46A1
:2053A00016460F46CDE90B00CDE909008748856880460CF0DBF91C2803D00CF0D7F91B2844
:2053C0001BD1308840F60201884218BFB0F5C15F03D1F07B022810D93EE043F6070188420F
:2053E0000BD196F82400032807D33069784940F0806020F0604088422ED100206FB366B3DC
:20540000387825FA00F0C00726D03046002115F0C1F97048C4E90176006880B109A8009004
:205420000CA90BAA0AAB304606F0F4FA0B980B214FF6FF72502313F08DFDFF280CD014F067
:205440006BFF654F06467878012802D840B1012070E0304615F0FDF800200DB0BDE8F08F1C
:2054600006F04CFA5D480DF10409016841F0020101605B48C8F80000484614F0CBFDDFF8AE
:2054800064B15A494A469BF801009BF8005003905548283012F0ECF9554856494A4612F010
:2054A000E7F9484614F03EFDDFF84C81534A19214B460295404611F05DFA514A08F11C000E
:2054C0001A214B4611F056FA4E484F4915F093F84E484F4915F08FF84E48006810F4402FC6
:2054E00006D04D4A07F128000421002313F0E0FA9BF8020010B10D2009F098FE08F14000AF
:2055000014F010FB08F1380014F00CFB4349002007223876B8843862386181F8602005212F
:20552000C7E902103E49F96138700420002113F091FD78782C4941F82040013078703046BD
:2055400015F087F8BAF1000F06D10DF1040A35492022504615F076F9DAE90012BAF81000C9
:20556000DAE90635002AB2FA82F608BF40F6C4126261216060832563760926764FF4FA768F
:20558000C4E9036201226276274AC4E90722C4E90923DAF80C0000B12062DAF8140000B136
:2055A0006062DAF8080000B1E06104F13800C82114F012FC04F15000002113F07BFD1B49F0
:2055C00004F1B80015F017F8204646E7CC2108400F000005D0230020F01D00200020094085
:2055E000110000E0F4D60100901F00204D950100683A002025E80000F41F0020153A0100EB
:2056000051220100243A0020D58A0100E0390020F9940100B44F00507950010028370020D5
:2056200081C1000018D50100EB9B01007DA601002DE9FF47A048017806294FF0010840F02B
:2056400035819E4E9E4F30689E4C016801F108054FF0FF09297801F00F00072802BFA878D9
:205660008309012B40F08480002800F08180E878C30707D50622291D684614F093FB2878D1
:20568000C0F38019E978880735D5062201F001012B1D5143194402A814F084FB2878C009DA
:2056A00002A915F0ADFB002800F07E802068807A022818BF032804D138680D3015F078FBA4
:2056C000002840F0EE80386800F10D0102A815F087FB002863D02068062202A9001D14F05D
:2056E00061FB707940F0040070710622386802A9C01D14F057FB4846FF2867D0694615F00A
:205700007FFB1E25002800F097803968684615F073FB2268014650690078FF2971D0002848
:2057200015FB01F553D1107C14F028FB814699F82E01022818BF032801BF3B68595D00F0D0
:205740000100814242D1206841695B190622C91C581C13F0DBFF002838D0707940F008001D
:2057600070710622694609F5947014F01BFB42E011F00F0F1CBF01F00F02012A26D10622ED
:20578000A91C684614F00EFB2878C0F3801900F00F000128AFD1062205F108017BE73068D4
:2057A000016800220A7183E02168887A022818BF032805D138680D3015F0FAFA00289AD18A
:2057C0002068807A002818BF012894D069E0706939684A5D4919491C083815F0B9FA3A490F
:2057E0000A7890425DD07069396849196A46C91D083815F0A9FA3868401906226946C01D21
:205800004DE000284DD1107C14F0B8FA0746206840698278914544D1C11C0622684613F0BA
:2058200075FF00283DD0707969F3C30070710622694607F5947032E021684A69107880BBEE
:20584000087C14F09BFA82469AF82E01022818BF032826D138686A46494615F07DFBFF28FC
:205860001FD015FB00F5386841194A7F012A04D00D30401915F09CFA98B120684169386826
:2058800040190622C91C401C13F040FF48B1707969F3C3007071062269460AF5947014F044
:2058A00081FA306801680020087101E04FF00008404604B0BDE8F087C80F0020BC0A002078
:2058C000680F0020540F0020183F002082492DE9F043824C824E20700A22002008600D2311
:2058E00080484FF40A7102704380818085B07E480660B77E7D480770FF2FF17E4170327F1B
:205900008270737FC370B57F0571F67F467108BFFF2914D1FF2A08BFFF2B10D1FF2D08BFD8
:20592000FF2E0CD172490A7802704B7843708A788270CB78C3700A790271497941716D49AE
:2059400002786D4D6D4E6E4F0A7043784B7082788A70C378CB7002790A714079694A487126
:20596000FF2028706870A870E87028716871002065490880F06B6549407808706449F06B1F
:20598000007808701388634863490380F06BC06C08606249F06B90F83C0008706049F06B6D
:2059A00090F83D0008705F49F06B90F86C000870F06B406901795C484A1E0270F06B5B4940
:2059C000C0783870F06B8069086008B912F0FAFCF06B5749C069086008B912F0F3FCF06BE9
:2059E000016E54480C2214F0DDF915F0A9F9F06B5149006A086008B912F0E4FCF06BDFF851
:205A00003C81406AC8F8000008B912F0DBFCF06B4B49806A086008B912F0D4FCF06B806EA8
:205A200000B101200CF0D1F801F010F907280AD105F02AFD20784FF4804108F0B7FA00204A
:205A400012F0C0FC44E03F480168884781460DF093FAD8F8000001688847684614F0E2FABE
:205A6000D8F8002004208DF80000694652F8043F00209847344908600FF016FCF068334A87
:205A800001883878324B014311804846196888470C21304814F0C4FE284615F04DF915F074
:205AA00047F92D4800214FF6FF72016082808171F06B90F864102948006814F003FB0121B1
:205AC000FF2014F04BFE20784FF4005108F06EFA05B0BDE8F08300BF380F0020C70F0020E5
:205AE000B64F0050700E00203C0F0020400E0020E8120050500E0020480E002000D30100C8
:205B0000C40F0020482400209E0F0020C60F0020D40F0020043F0020903E0020183F002079
:205B2000193F0020163F0020CB0F0020200F0020240F0020243E0020280F00202C0F0020A8
:205B4000300F002018230020983E0020A00F00201C230020FC0D0020800E0020AC3E002086
:205B60002DE9F84F14F00AF90746954C41F62800002120806180616015F0AEF900F57A6056
:205B8000DFF840A2A0600022DAF80010C860E273207B00F0F00040F082002073607B00F040
:205BA000F00040F0010060732520A0734869417A012918BF032904D0042918BF062902D027
:205BC00015E0002017E0022020212074617462827D487E4DA061656115F0A6F828607C48C3
:205BE000016A0978CA074CBF1F210F2105E0794800780100E8D10021E7E7026A1278930716
:205C000048BF41F02001026A1278530748BF41F04001026A1078020748BF41F08001297112
:205C200000206871DAF800106B4A4869007800F0010040F002006871897A890001F004012D
:205C40000843687197F82E11C90001F00801084391784A0648BF40F0200068710120A97A77
:205C6000288101F0C001A972A81D022114F0D8FD1620E8724FF00008C14607F1610E162270
:205C8000564B384602FB08F15E18416A31604FF0010B876A37710227816A090A71710BFA4B
:205CA00008FB816A090CB171F771002131819EF8007037749EF8011071749EF80270B77414
:205CC0009EF80310F17400F12C019EF8047037750F78C97B01F01F0141EA47117175DAF8CB
:205CE0000070D7F814C09CF8091011EA0B0F17D04FEA09110CF1100B3BF801B0A6F80AB041
:205D00000CF1120B3BF801B0A6F80CB00CF1140B3BF80110F18109F101015FFA81F908E0A2
:205D2000BCF810107181BCF81210B181BCF81410F18108F10108B8F1020FA3DD28490E7818
:205D400012FB06F21A443B1DEA602B619CF8001000290FBF00F59470224801684868A97F73
:205D6000686101F0E00141F082014FF6FF70A977A8837869A16800F10C023001135A40F618
:205D8000C41000FB031129620020E97F164B686201F0E00141F08101A862E862E977187819
:205DA00060B1B87A022809D1104908680D3014F0FFFF18B9687940F004006871BDE8F18FB0
:205DC000683C0020540F0020800C0020BC0A002000D30100D80F0020C00C0020E00700201C
:205DE000D90F00206C0F0020880E0020680F00202DE9F04F97B081469948406818B1804737
:205E0000002800F0CE80974F01200021042300247E78F873BD7808AA304614F0ABF80898A4
:205E200000F44030B0F5403F03D17879002800F0B98030460621F8224FF0F80813F040FB90
:205E400006EB460407EB840080F818809DF82000702803D03046702111F088FCCDF8109070
:205E6000069608AA2846002104234FF0000814F081F89DF82000FE2803D02846FE2111F01E
:205E800075FC28460621FE22FE2613F019FB07F1160097F80190BA78059500EB8401C988E6
:205EA000019279826E4981F8008005EB4501039100EB810101F8026F029109EB490100EB47
:205EC0008101B1F806B002EB420100EB810030F8061F079100900EA811F076F90FAD1FFAD5
:205EE0008BF7172F54D35E480078002853D1ABF10706484609AAB1B20BF0B2F9BDF832402F
:205F000004F11000B8420FD89DF82E0096280BD1A6EB040A9DF82D2021464B461FFA8AF82A
:205F200040460DF06DF9F0B1ABF1010B5C46A0B216282DD93628A4F1160748462A4688BFA2
:205F40002027E41BBBB2A1B214F014F83804EED015FA87F010F8010C962801D0013FF5E7EB
:205F600007EB040BBBE79DF82F00C1070ED180070CD50734079E3E49A3B213FA86F00A1A48
:205F80004846414613F0F6FF26440796D346A6E73348007850B134480E99006842683348A3
:205FA0009047002420B217B0BDE8F08F079F019E1021C7F50052A7F1100083B2C1F2001203
:205FC000304611F01DF9264C217808430E99207025480068426825489047224D00980123B9
:205FE000B5F91220697B07803046A5F814B02F8212F0B4F8B5F91420A97B3046022312F07D
:20600000ADF8049A002A08BF1022288A7C21C0F500509042B8BF7821059F384611F0A6FB20
:20602000069E30460AF028F9207038460621FC22FC2413F045FA0298FE21AE70EF706F7061
:206040000470039805EB8000808BE880304611F08DFB00206871E888C0F50054A2E700BF95
:2060600000220020403B0020D801001000400340002000112DE9FE4F0422FF2101A813F051
:2060800087FE974EB078FF284FF0000900F0258113F074FE0546B07814F01CF8064605F226
:2060A00017100178012908BF417800F0D08005F5927BBBF80E1019B19BF80C0007F076FFA9
:2060C00008200DF0CCFE6889288105F1740898F80E00022818D16A8EE88E347FA979AB8E98
:2060E00052080009C4F3C004002C009007D0002014F016FE307F00F0F700307702E0302088
:2061000014F00EFE88F80E9095F89201022808BF85F8929198F81C00022808BF88F81C90D7
:20612000704CA17AE079227B40188218E07A1018627B05F58D7700EB020AB888401CB88078
:206140003A8852443A80788808187880DBF80000C8B1654A95F806B0126802F10E034FEA20
:206160004B1B0E3213F80B3030F813B0D34420F813B0AB795B01D25C00EB4200B0F84A3059
:20618000C918A0F84A1011F091FEE079002804BFE07A002805D1207B002804BF607B002877
:2061A00025D0F07E0021C009CB46F1810BD0307F10F0070F04D1411C61F30200307702E05E
:2061C000A87914F0DFFA2989E88985F810904118A9810122A97908200DF053FB4349486909
:2061E0000078810737D5A07B802834D034E0A979002208200DF045FB307F10F0070F02D177
:20620000F07EC00903D0A879002114F0BBFAA07A40B1287C4FF0010B08B1E889A88185F8AF
:20622000109004E0F888401C4FF0020BF880A8892989814206D08842D0D2081A41F2AB0151
:206240008842CBDA388800280CBF3E210821284612F0A2FA41E0812088F80000244991F850
:20626000200018B12946012014F080FA284606F075FD02281DD198F80700022805DB01AAED
:206280001C4928460DF09EFF8146284614F044FD012822D05FEA09000DD04A4601A9284625
:2062A0000EF020FB38B9284606F058FD012802D113E0012811D00121284614F029FD02F076
:2062C000E3FC012809D0284611F01BFA14F092FA2A465146584606F0A7FEBDE8F78F00BF9F
:2062E000780E0020980C0020980E002000D30100C43B002008240020F8B58D488D4D01785A
:206300002A788A4200F012816A68002400E0641C8C4280F208814FF4D07363431344187959
:206320000028F4D1E0B213F029FD0121017100224271426200F161018471012200F16803E1
:206340004A711A71012400221A609A6000F1900602814281047480F8392082610277C28385
:20636000327000F592749A76227580271F739A730027FF22DF741A7600F20D131F70DF7078
:20638000BC46BE4600F5897783F801C083F802E0A7F800C0A7F802C087F805E000F1E7036A
:2063A00086F804C083F800C083F801C000F1EC03C3F800C0C3F804C083F80AE083F80CC09E
:2063C00083F808C083F80DC083F80EC083F80FC0A7F808C0A7F80AC0A7F80CC0A7F80EC0F7
:2063E00047F23057A76100F5C676C4F800C02273A4F80EC084F81CC084F81DC0A277012737
:20640000B7720227F77286F80EE086F80CC04A4FDFF828E13F78777386F806C084F80AC067
:2064200084F804C084F805C084F806C084F807C084F808C084F809C000F5B374404F84F8A6
:2064400000C086F800C04FF01B0C3F88E7803D4F3F882781BEF8007067803B4F3F88A7802A
:20646000A4F80AC04FF4A477E7812782A4F80CC0E7822783A4F812C0A4F814C06783A783DA
:20648000E78327846784A784A6F802C00127377100240719641C042C87F87720F9DB2B4A4E
:2064A00014780C7057784F7094788C700446D778CF7012790A710021254A50186718407831
:2064C00087F8FD00491C0829F7DB587C214900F0FB005874316100201874A07913F0FAFD92
:2064E0000646A0790DF02DFF1B480178307C717300F0FC0030740022B069F28100F0004034
:2065000040F4853040F04000B061307F00F0F80030772878401C2870C0B2012804BFA079C8
:20652000A8702046F2BD002011F04CFF0020F2BDD40F0020780E0020C50F00208A0F00209D
:206540008C0F0020980F0020960F0020483E0020C00C00204DE501105E2400202DE9F04730
:206560000D4629048F4EDFF8408240F1F2808F4F38780CF015FB040018D021780120B02969
:2065800017D0B12908D0C22900F0B580D02904BF2046FBF765FCD2E0207920B92289E188A5
:2065A0006088F9F792FD204612F0FBFE85F40040F6E02179787A012910D009294CD01E2959
:2065C00000F08D807D2908BF002806D16088FAF78DFA01466088FAF746FA86E00028FCD137
:2065E000207AB4F8029008283BD14846FAF77EFA02280FD0032834D1002204214846FAF791
:20660000FAF80246F86900281CBF4368002B28D004211EE0002210214846FAF7ECF882466D
:20662000484614F095FC60B198F8001039B9811D4079012200F0010014F066FB01E00120C2
:206640003070F86900281CBF4368002B09D0524605214846984704E0002846D160781A281F
:2066600003D16088FAF7DEF93FE06088FAF73EFA022819D0032838D120896688012804BF9C
:206680006089032806D1E068827804213046FAF7B2F800E01820F96900291CBF4B68002B3B
:2066A00023D00246042117E0218966880120012904BF6189032907D1E268917821B901229F
:2066C00010213046FAF797F8F96900291CBF4B68002B0AD0024605213046984705E0B87A9B
:2066E00018B9608800210BF0F5F9217904F1080014F0FAFB57E7A07818BB0121F974B97363
:206700002022E11C07F1880013F04CFB202204F1230107F1A80013F045FB202204F14301B7
:2067200007F1C80013F03EFBF86900281CBF4368002B06D0627806210020984701E0002844
:20674000D8D11B480078FF2802D0214612F038FE2CE7690716D5174A106880B1FAF7D0F9EB
:2067600004000CD0E07A50B90121E1726268A17A2089F9F78DFF606808B113F0FBFC85F067
:2067800004000DE028070AD53178012902BF98F80000002808F0AAFE85F0080000E0002091
:2067A000BDE8F0871F3F0020AA0F0020741A002063240020B43E00202DE9F04F93B08146A0
:2067C000C08990468B46073086B230460EF03AFA0746FF280AD13046FFF70AFBB04205DA21
:2067E00086480078002808BF052004E1DFF80CA29AF80000F8B9B8F1000F04D0B8F1020F4C
:2068000019D1FF2F17D199F80800002203238DF83C00D9F8040000920E907948C188C0788F
:206820000DAA04F081FC9DF8440089F81000BDF84000A9F80C00B9F80C1039B3B9F80E00AC
:2068400020B3A1EB0008002505AEACB280B208EB05013246001B89B22028A8BF202087B27A
:2068600099F810003B4613F085FB1BFA85F130463A4612F0DCFA48B93D19B9F80E00A9B2A9
:206880008142E2D30020A9F80C00B2E05C4C00210423E678B4F8068012AA304613F06AFB07
:2068A0009DF848007E2805D130467C2110F05EFF9DF848007C2865D1B9F80E7007F1070A20
:2068C00018FA8AF0B0F5005F5ED8B9F80410C7F385120490B9F80600BB0007EB08058DF852
:2068E000183042EA811289088DF81500C0F301208DF8161099F808101FFA8AF98DF81720E6
:20690000B9F10D0F40EA81008DF8140042D23B48029559463A46039300F11C05284613F007
