:20000000003C0120417B010081860100818601008186010081860100818601008186010096
:1C002000818601008186010081860100818601008186010081860100EDB50000F2
:04003C0000000000C0
:2000400038B586B004468DF805104FF6FF720120ADF80220090ADFF8C05AADF8000002232D
:200060008DF806108DF8043069462A7820461AF07DFF162803D1297820461AF073FF07B0A3
:2000800030BD3EB504000D461ED0DFF8900A006822461AF063FFFF2815D0002000900023AF
:2000A00001AA294620460FF01BF860B99DF8040000F071F9C00606D59DF8040000F06BF914
:2000C00010F0040000D001203EBDFEB5164615244FF6FF7290420D4615D100208DF804007E
:2000E000DFF8347A9DF80400F97988421AD23246294600F03EF800B100249DF80400401CE3
:200100008DF80400EEE71AF025FF50B100F09DFB40B99DF804003246294600F02AF800241B
:2001200000E014242046FEBD7CB50D46044606214C43164620346A460821204618F07CFB94
:20014000A8B900F078F890B99DF80700002E14BF054320EA0505E9B2814206D08DF807508C
:200160006A460821204618F07BFB012076BD002076BD2DE9FC4106463446062388461546B0
:200180005C436A46082104F1200018F055FB00284ED100F050F800284AD100F028FA0400A2
:2001A00002D100F01CFA43E0397AE03689062246090E304618F040FB002835D1204600F02F
:2001C00052F85FEA08000ED13A7A9206120E0021204619F0EBF838BB3A7A92000021204606
:2001E00019F0DCFD16E0214600F02AF858B9280004D02146002000F023F810B900F00FFC4B
:2002000016E0A0F800808178A9420DD085700DB900210180204600F026F8397A8906224694
:20022000090E304618F01CFB00F0F9FB012000E00020BDE8F6810622FF21684619F0B6B884
:2002400070B5DFF8D4381D7A002200E0521CD4B2AC4206D231F824608642F7D101EB840096
:2002600070BD002070BD10B50021DFF8AC280AE030F82130DB4320F8213000EB8103491CB5
:200280009C78E4439C70137A9942F1DB10BD2DE9FE4FDFF884480646207A0F4691469A461E
:2002A000800019F065FF5FEA000803D100F097F90A206EE00C9D02974FF0060B37461BFB0F
:2002C00007FB029A08210BF1200018F0C9FA8DF80400304600F09AF8227A00F07BF99DF85A
:2002E000040000904246217A8906090E06F1E00018F0B6FA009E02990643206A082200EBF1
:20030000C70019F055FDF5B110220021284619F04DF8C0B90299887900232A4600F001006D
:200320001AF014FE00281CBF9DF93C00002803D0DFF8EC17012008702A4610210BF123009E
:2003400018F08EFA06435FEA090205D01C210BF1210018F085FA06435FEA0A0205D01C210A
:200360000BF1220018F07CFA06430D9A4AB110210BF1240018F074FA06430EAA00F032F913
:200380000643A07D08B100F095FA404619F0F8FEF0B2BDE8FE8FE0B5062358436A46082134
:2003A000203018F049FA10B99DF807000EBD00200EBDDFF86407007808210DF0ABBD38B552
:2003C0000025DFF8544718E0206A06236B4300EBC5022033082198B218F02EFA58B1206AF2
:2003E0000622FF2100EBC50019F0D8FC206A00EBC5010022CA716D1CEDB2E1798D42E3DB81
:20040000A07D10B1BDE8314054E231BDF8B5DFF80817DFF81037C9791E680C460A4600E0B9
:200420002A46D5B23DB1551ED2B2324412F8017C8742F5D12C46E4B220464D1E07E0171865
:20044000165C7F7817541A680244401C5670A8421A68F4DBAC4204DABDE8F840052018F0CD
:20046000FFB9F1BD70B50024DFF8AC5600E0641CE879E3B283420BD22B6AE6B20622FF2187
:2004800003EBC60018F092FF0028F0D0E0B270BDDFF89426117839B1DFF8880601680C7812
:2004A000204600F013F8204670BD38B500200024DFF8645603E0E0B200F008F8641CEA793E
:2004C000E1B2914201D20100F5D032BD2DE9F84F8146CB46062313FB0BFB8EB00BF120055D
:2004E00001AA0821284618F0A7F9002869D10622FF2101A818F05AFF002862D100F077F8A4
:200500005FEA000803D100F06AF80A205BE01C22FF2103A819F042FC3A7A00F05BF80BF1BC
:2005200023060AAA1021304618F086F960B91022FF210AA818F03AFF30B99DF80A0001A920
:2005400000F001001AF0FEFC082200F03FF801AA0821284618F084F9054603AA1C210BF15D
:20056000210018F07DF98DF8000003AA1C210BF1220018F075F9044603AA1021304618F033
:200580006FF9064603AA10210BF1240018F068F9824603AA00F026F89DF800100D43254360
:2005A0003543397A4AEA0505054389064246090E09F1E00018F054F90543404619F0E0FD79
:2005C00000E0002528460FB0BDE8F08FFF2101A819F0E4BB9200FF21404619F0DFBB042055
:2005E00017F0F0BE04210BF1250018F039B9DFF82875387A800019F0BBBD2DE9F84187B059
:20060000FF208DF80000DFF81055E87919F0B0FD040003D1FFF7E3FF0A2030E01022FF21A7
:2006200003A819F0BBFBEA79FF21204619F0B6FB0622FFF7CBFF03AA1021022018F010F9B4
:20064000064603AA1021032018F00AF906436A460121042018F004F90746E97922460520C2
:2006600018F0FEF8054601AA0621062018F0F8F8804600F0D4F93E432E4348EA060008B0DC
:20068000BDE8F081DFF890144088097818F070B8F0B5A9B006460D4614461AF05BFC08B937
:2006A0001420A6E0A4220021684619F077FBADF80060DFF86464F078F17B279A8DF80400AE
:2006C0005208307C8DF8A0004B0801F0010040EA420222F0020203F0010342EA43020809AD
:2006E00022F4807200F0010042EA0022480922F4007200F0010042EA4022880922F48062D2
:2007000000F0010042EA8022890822F0040201F00101707C42EA8102279202280CBF012014
:2007200000200DF1260778741AF008FC412807DB707C00B108209DF8991008438DF89900BD
:20074000F07CB8B10121B974202206F188010DF1390019F02DFB202206F1A8010DF1590012
:2007600019F026FB202206F1C8010DF1790019F01FFB00E0B874707B8DF8050090B1DFF81A
:20078000AC73102207F110010DF1060019F010FB9DF89900082805D1102239460DF11600EE
:2007A00019F006FB307B8DF8260030B11022DFF880130DF1270019F0FBFA307948B1022D68
:2007C00018BF032D03D1279840F002002790012100E000219DF899000143B0788DF89910AB
:2007E00000B1042001438DF89910684621461AF0A1FB29B0F0BD2DE9FC41154615244FF645
:20080000FF72904288460ED10027DFF80C63F179F8B2884216D22A464146FFF785FC00B196
:2008200000247F1CF3E71AF095FB50B100F00DF840B99DF804002A464146FFF775FC00247B
:2008400000E014242046BDE8F681002100910023417901AA01F00101801D0EF041BC70B514
:2008600004460D4606204543082B88B0164603D1300758BF223500D521351C220021FFF76D
:20088000A6FE01AA1C21284617F0D6FF80B99DF81E00C01F0A280BD29DF830000090F20859
:2008A00001AB02F0010206F0010120461AF03EFB08B070BD38B51AF035FB0024964D0FE0F4
:2008C000286A0622FF2100EBC40018F06FFD28B9286A00EBC40100201AF020FB641CE4B29D
:2008E000E8798442ECDB31BDF0B5924D0646686885B04FF6FF7438B9009502238E4A2146A5
:2009000001201AF007FB6860696819B30222FF2002920023039001930DF112072A880097C4
:2009200004AB304606F074FB60B99DF810009DF8111000EB0122100004D0686841893046B7
:20094000FFF7C3FB2A886868002321461AF0DEFA686008B9012000E0002005B0F0BD3EB5F6
:200960000C46002501460095002301AA20460EF0B7FB38B99DF80400FFF70DFDC00601D41B
:2009800001203EBD00203EBD2DE9F0416B4F3C6806468846154603E02089B04224D0246808
:2009A000002CF9D10C2019F0E3FB040019D0268184F80A8000202060E07245B10821284615
:2009C00018F0B8FE606018B900F029F80AE06060396811B93C6004E0014608680028FBD177
:2009E0000C600CB9152018E01AF08CFA08B1002013E00120E0722A4641463046FFF748FE21
:200A000004464548C06900281CBF4368002B03D000220021304698472046BDE8F0812046B0
:200A200019F0AEBB38B505464448046803E02089A84204D02468002CF9D1012032BDE07ADE
:200A4000012807D100F05CF820B13348007804210DF060FAE17A491CE1722846C9B200F025
:200A600002F8002032BD38B5022904462A4D02D003290DD01EE042F6C921FFF7E1FA0200C6
:200A80001CBFE869002818D04368B3B105210CE042F6A621FFF7D4FA01001CBFE9690029DF
:200AA0000BD04B684BB102460421204601B0BDE830401847BDE8324000E031BD10B51F4AA1
:200AC0001468002101E0214624686CB123898342F9D1206800290CBF10600860606808B178
:200AE00019F04EFBFFF79BFF002010BD024604201249096819B10B899342FAD1C87A7047F8
:200B00000E48006828B1006818B1C17A0029FAD17047002070470000741A0020680F00200B
:200B2000C73D0020583D0020C63D0020303B0020603B0020083D0020B2D701005C3D0020CB
:200B400038B584B004461AF005FA0622417901F001018DF80E10811D02A819F029F9002016
:200B6000009000239DF80E1001AA02A80EF0B8FA9DF80400FFF7AAFC0546052120461AF0F4
:200B8000BDF9284605B030BD8EB0DFF85049211D204613F0B7FF04F1180019F056FBDFF846
:200BA00040A9A06000200021802908D04FF6FF722AF801200AEB01021031D060F4E7DFF876
:200BC0002409DFF82419DFF82469002215234FF0000800901020B04744F26820FB211B2201
:200BE0004FF4A473CDE90010DFF804191020B047DFF800191020B0472178DFF8FC5850206F
:200C0000A847DFF8F81802461020B047DFF8F01810200122B047DFF8EC1810204FF0FF32EB
:200C2000B04721785020A847DFF8DC1802461020B0470DF065FBDFF8D498DFF8D4181020F8
:200C400009F11802B047DFF8CC18102000220023B04721785020A847DFF8BC180246102047
:200C6000B04721785020A8470346DFF8B00802210822CDE90010DFF8A8181020B0474FF09D
:200C8000FF30002114F086F9DFF8983800210022C9F80C0018F02BFF15F00EFE07A8811C3B
:200CA000083003910490606800214FF040424FF0FF330CF091FC0028F5D08346CDF8148021
:200CC00006A80DF11B0105AA16F0E1FC002840F0A782BDF81800102840F09D8220789DF8B8
:200CE0001B10814240F09782059F4FF6FF713888884200F09182C1B2912900F07D80B029E4
:200D000000F09A80D02940F08682B878072800F2AA80DFE810F00800800280028002800246
:200D2000140147016801DFF86C18DFF86C28DFF8BC5710200023A847DFF8601810204FF439
:200D40008602A8474FF44870DFF8541801220123CDE900001020A8470620DFF84818002243
:200D6000ADF81C00102007ABA84701200DF13706DFF8301801228DF8370010203346A847EF
:200D80000120DFF82018062233468DF837001020A84740F60200DFF80C180322ADF81C008E
:200DA000102007ABA847DFF80068502001220223009010203146A847502031460122032315
:200DC00000901020A847B888608000201AF092F8016840F6B8320023C9F81010DFF8CC1749
:200DE0008088A9F81400012000900920019004F1200013F02FFF0EE2000A3E2851D00F28CD
:200E000060D0102879D00E2840F00582B88841F20541884240F0FF81B868D9F80C6090F91B
:200E20000350B0F8010017F08BFBDFF82437CDE9000530460221EBE178881AF057F860B965
:200E4000797816295ED13979D9F80C00DFF8283700220091002118F04AFE397907F1080098
:200E60001AF040F8D7E1112800F02481152840F0D28199F80000002800F0CD81E168002981
:200E800000F0988104F1100018F0B1FCE06819F041FC99F80100C4F80C80411E89F8011036
:200EA0008AE1B8780C2840F0B681B888D9F80C60FD7817F045FB002D00F05481DFF86C3658
:200EC0000090A3E1B98840F20640814200F0A38142F23200814240F01E81B978D9F80C0068
:200EE0001A2903BF00210022DFF85C3600911EBF00210022DFF84C368BE1082000210EF084
:200F000059FB88E138797F2800F036810B2800F03981132800F03E817E2800F042810128CC
:200F200040F001813A7A122A00F084820A2A40F0FA80397BD9F80C00DFF8283688E799F875
:200F400000003E1D7D89E0B1E068D0B100F108013046062218F0E0FB98B1374604F110068A
:200F6000E168304618F043FCE16830463E4618F02CFEE068C4F80C80817C058241F00101AF
:200F8000817400210AF104008DF81C10082900F0A28230F8042C4FF6FF739A4264D01030E7
:200FA0000131F3E799F80000BF88C0B304F11005284619F03FFC064688B3308AB8420ED104
:200FC0002846314618F013FC2846314618F008FE4FF6FF703082B07C00F0FE00B074304608
:200FE00019F02AFCE7E7BA88DFF89015102007AB10F02CFC002840F0FB80F878D9F80C60AC
:20100000002800F0E4800398BD7815F095FADFF87035CDE90050304600210022E6E0384671
:2010200017F05CFF082880F056820AEB001555F80C0F78B119F0D2FB286819F0EDFB286854
:2010400019F068FBD9F80C0002210022C5F8008019F08AFA00205146082843D00A88BA42B0
:2010600042D010310130F7E720F8045C32680260B288828099F80420013211F0F80F89F8ED
:20108000042040F0288220F8028C15F055FADFF8FC1410204FF4806207AB10F0D7FB99F807
:2010A0000000002800F0B7809DF81C00022840F0A280B0E001208DF82700B888ADF81C0056
:2010C000B87B8DF82600D7F80A10D7F80600CDF82210DFF8B414CDF81E00102007AA10F01A
:2010E000B5FB85E0082508E04FF6FF72C5B20A8099F80410013989F8041099F8000008B151
:2011000012F09CF8082D80F0E6810AEB0510043015F012FA7FE0BA78D9F80C00DFF82C3439
:20112000CDE9001273E099F80320032A00F08781022A00F09E81012A08BF03287FF48DAEB5
:201140004FF6FF700225217889F803500F38ADF81C007E88502016F0D5FFDFF81414CDE93A
:201160000050B2E1FA79DFF8C813012A4BD0022A44D1DFF8C01346E03989D9F80C00DFF89A
:20118000D43313E0F968D9F80C00DFF8DC33002209785EE699F80210D9F80C00DFF8BC3304
:2011A00056E6397AD9F80C00DFF8AC3300220091012150E699F80110C9B2D9F80C00DFF8D1
:2011C000D03300220091002118F091FC13E0039815F0B2F9BDF83010DFF8A833002201EBB0
:2011E00081014900CDE900013046012118F07FFC99F8000078B112F021F80CE0CF49032A4C
:20120000CD4A08BF1146CE4BCDE9000130460021002218F06CFC059F17B1384619F01CFA97
:201220005FEA4B007FF53FADA06818F07DFB00283FF439AD074600880238082800F2BF8081
:20124000DFE800F005BD0E36394D225D6C00D9F80C00DFF894330021002218F048FCAEE0C8
:201260007D68D9F80C60A81C15F066F9DFF87C3300903046002119F0FBF9A869002800F051
:201280009E8019F047FA9AE07D68A74E687A38B1D9F80C00C74B01210022009618F027FCD3
:2012A000EA88C54910200023009610F0CFFA86E015F002FB83E0B87801013AF801604FF627
:2012C000FF718E4200F07B800AEB0010C06819F083FAC2491020324610F0B8FA6FE07D6897
:2012E000B8788DF83780A978032868D8DFE800F0024D3340D9F80C00B74B0121ACE70020C9
:20130000002519F0F7FD064609EB0501705D097C88420ED10135062DF6D150E0D9F80C002D
:20132000AF4B002119F0A4F9AE49102010F08EFA45E0D9F80C50304615F0FEF89C4B009003
:201340002846002119F094F9B088A9F814003068C9F8100033E00029D9F80C0003BF012115
:201360000022994B00911EBF01210022954B13E00029D9F80C001FBF0091012100228F4B4F
:2013800002BF012100228E4B67E701B3D9F80C008E4B00910121002218F0A9FB7B49102042
:2013A0004FF480620DF1370310F050FA99F8000028B19DF83700022801D111F03FFF786835
:2013C00008B119F0A7F9384619F0A4F92CE7D9F80C007F4B012119F04BF92A8867491020CC
:2013E00007AB10F033FA0028D8D19DF81D0000F0FE000228D2D104980021062218F0B9FB2F
:201400000028CBD1039ED9F80CB0304615F094F8704B00905846032119F02AF9288817F0E3
:201420005DFD082857D2B1880AEB0010018131684160B3E7397BD9F80C00494B08E5092822
:2014400014D1388990B1B9F8060017F047FD082841D2F9680AEB0010464B0022B1F803108B
:201460004180D9F80C00002118F041FB89F80380F3E407280AD13A8932B1FA681388A9F840
:201480000A305288A9F808201A2902D001287FF4E4ACB9F80A0000283FF4DFAC0321ADF8C4
:2014A0001C00B9F8080089F80310FF218DF822104FF20211ADF81E005020ADF820102178F7
:2014C0007E8816F01FFE294900901020324607AB10F0BCF9C1E418F079FE00BF9C20002013
:2014E0006033002024230020713B01004D1801000D3D0210397F011005810100F16C0210A4
:20150000658C0100B56C01002D6D0210B02200203D8D010039660100D96C02105C240020B7
:20152000F9A50000D7C9010040E2010058CA010085CA01008CCA010093CA010099CA0100BD
:201540006FCA01001BCA0100ECC9010035CA010092CB010074CB010064CB010051CB0100CA
:2015600042CB010023CB010031CB01002565021039BD011081CB010010CB0100F9DC0110BF
:20158000F9CA0100DDCA0100D9570110B5CD0000AECA010089610210C16F0100C569011037
:2015A000F5F9011095390110D5F40110FD760100C0CB010072CC0100D97A01005DCC0100B6
:2015C0004BCC010035CC010022CC010011CC0100F0CB010000CC0100E0CB01000D2B0210A5
:2015E000CCCB0100497E0100B1CB0100A2CB01002DE9F84FDFF8B057696884B0019121B9F4
:2016000005B0BDE8F04F19F069BC0978DFF89C67DFF89C7746F2A81A40F6C41941F64C58D6
:20162000012918BF02290AD004291CBF0829102905D0402918BF802900F0C981ABE318F0A4
:2016400049FF0028FAD0012015F026FF20B1012015F05AFF15F0E8FE082015F01DFF20B1B0
:20166000082015F051FF15F0DFFE102015F014FF20B1102015F048FF15F0D6FE019800788C
:2016800002F096FA0090002460B1007801281CBF0828102802D10098446803E0009815F088
:2016A000C3FE0446DFF80C174878002800F0F88019F0A0F818F068FB8246DFF8F816DAF84A
:2016C00000000190002CD0F804B09AF80600C87004D00199009819F08BF8022800F0B38022
:2016E00000990A78012A08D0022A12D0042A5DD0082A0CD0102A54D04DE320B919F0EAFB00
:201700008044C4F808800120A870112135E1082004E105223A70D0B919F0DCFB8044C4F879
:2017200008806069A168DFF890261368DE69DFF88C361B78B21D03EB8303D25A09FB021946
:20174000C0F82090A068DFF870160A6810615246DFF864060168CB69DFF860160E78981DDB
:2017600006EB8606815B00980FF0C2F861696269D27F02F0EF02CA77002861696269D27FA7
:2017800042F08002CA770CBF0121022162696369DB7F03F0F0031943D17761694862022033
:2017A0004FE01021A9701320387028E206213970D0B919F08FFB8044C4F808806069A16805
:2017C000DFF8FC2513685E69DFF8F8351B7806F10C021B01D25A09FB0219C0F82090A0685C
:2017E000DFF8DC150A68D060DFF8D4653068007C0FF07EFA30684169DFF8C805067801F18E
:201800000C0336010098995B52460FF071F861696269D27F02F0EF02CA770028616962692F
:20182000D27F42F08002CA770CBF0121022162696369DB7F03F0F0031943D1776169486263
:201840000420A870DBE10198017880290CD10820DFF8741538700A78DBF81400012A1ABF5B
:20186000716A0978012113E0072038709AF8060018F036FC0446207BC10700F1CF80DFF892
:2018800048050178DBF8140001291CBF716A4978C1729AF80600DFF81C158870019875E23F
:2018A0000098002823D00199009A0078DFF81065914212D1012809D002280DD0042800F0A2
:2018C0008180082802D0102806D002E0002C03D167E2002016F076FD91E1012808D0022896
:2018E0001FD004284BD0082816D0102841D052E2002CEDD019F0EEFA0146A068514417F05A
:201900008DFC20B919F0E6FA8044C4F80880112038700121A97072E1002CD9D0A8701221ED
:201920002BE0052038700222AA7019F0D3FA0146A068514417F072FC08B100F060B919F097
:20194000C9FA8044C4F808806069A168DFF868241368DD69DFF864341B78AE1D03EB830385
:20196000F55A09FB0519C0F82090A0681168086145E1002CACD0A870132139703FE106209B
:2019800038700422AA7019F0A5FA0146A068514417F044FCB0B919F09DFA8044C4F808807B
:2019A0006069A16832685369DFF81824127803F10C051201AB5A09FB0319C0F82090A068B5
:2019C0003168C8603068007C0FF092F917E1DFF8E4134878002800F03B8118F00BFF18F034
:2019E000D3F98246DAF800000290D0F804B0DFF8C403807818F0C8F90390DFF8B8139AF84D
:201A00000600C87001980178402913D19AF8060018F066FB0446207BC1070BD59AF8060003
:201A200018F0B2F9052116F0CBFE207B00F0FE002073B6E118F048FD10F01F0F32D00120AD
:201A400015F02AFD20B1012015F05EFD15F0ECFC082015F021FD20B1082015F055FD15F07B
:201A6000E3FC102015F018FD20B1102015F04CFD15F0DAFCA87802F09BF80090007801283D
:201A80001CBF0828102802D10098446803E0009815F0CAFC0446002C04D00299009818F021
:201AA000A7FE022800F0B08000990A78012A08D0022A17D0042A5CD0082A0ED0102A53D03F
:201AC0009FE020B919F006FA8044C4F808801120387001210098A97058E10820A870122145
:201AE00039708CE005213970B44EB34FB0B919F0F1F98044C4F808806069A1683A68D369EA
:201B0000327803F1060C02EB82023CF8023009FB0319C0F82090A06839680861524638686C
:201B2000C16930788B1D00EB8000195A00980EF0DFFE61696269D27F02F0EF02CA770028A8
:201B400061696269D27F42F08002CA770CBF0121022162696369DB7F03F0F0031943D1771F
:201B600061694862022049E01020A8701321397045E006213970934EB0B919F0ABF98044D1
:201B8000C4F808806069A1688D4A13685B6903F10C0233781B01D25A09FB0219C0F820909D
:201BA000A06887490A68D060854F3868007C0FF09FF838684169307801F10C030001524699
:201BC000195A00980EF094FE61696269D27F02F0EF02CA77002861696269D27F42F080029E
:201BE000CA770CBF0121022162696369DB7F03F0F0031943D177616948620420A8700098D1
:201C0000C4E0002016F0DEFB039850451ED002996D480A78802A0AD1082139700078012839
:201C2000DBF814001ABF716A0978012109E007223A7000780128DBF814000EBF0121716A58
:201C40004978C1729AF806005A49887002989DE018F03AFC10F01F0F35D0012015F01CFC97
:201C600020B1012015F050FC15F0DEFB082015F013FC20B1082015F047FC15F0D5FB1020C1
:201C800015F00AFC20B1102015F03EFC15F0CCFBA87801F08DFF0646307801281CBF082868
:201CA000102801D1746803E0304615F0BDFB04463078012808D0022817D004283DD00828BB
:201CC0000ED0102834D06CE0002C6AD019F002F98044C4F80880112038700121A97054E0E4
:201CE000002C5ED0A870122125E00520387019F0F1F80146A068514417F090FAB0B919F094
:201D0000E9F88044C4F808806069A1682A4A1368DB699F1D294B1B7803EB8303FB5A09FB45
:201D20000319C0F82090A0681168086102202BE0BCB3A8701321397027E00620387019F0C6
:201D4000C9F80146A0681E4F514417F067FAB0B919F0C0F88044C4F808806069A1683A6863
:201D60005369184A127803F10C0C12013CF8023009FB0319C0F82090A0683968C86038683D
:201D8000007C0EF0B5FF0420A870304605B0BDE8F04F0BF091BC05B0BDE8F04F002016F0C3
:201DA00011BB05B0BDE8F08FD83C0020A0D20100C80F0020780E0020500F0020D80F0020B4
:201DC000540F0020D90F0020CC0F00202DE9F04F054687B0A978DFF8E066002710294FF0C9
:201DE000060A3CD8DFE811F0110063036303630363033C00CC0063036303C7021201FD00A1
:201E0000180363039902DE025B036878002826D119F05CF8044619F055F8054619F04EF8D2
:201E20008DF8000022461021022016F019FD2A461021032016F014FD6A460121042016F06F
:201E40000FFD9DF80000012818BF032807D1012019F050F802460621062016F001FD26E3CA
:201E600068780028FBD195F80CB06C8900900023E97801AA01F00101281D0DF031F900280A
:201E80004FF0010872D19DF80400FEF784FA8146BBF1080F08BFB846307A800018F068F9C9
:201EA000050003D1042016F08DFA00E3707802280CBF0120002000905B469DF804104A462D
:201EC0002046FEF7CCFC1422002102A817F066FF9DF804001AFB00F002AA1021243016F09D
:201EE000ABFCA8B91022FF2102A817F05FFA78B99DF804001AFB00FA06AA04210AF12500B0
:201F000016F09AFC02AA09F00101204618F0D2FF317A9DF8040089062A46090EE03016F0CF
:201F20008BFC98B92846FEF79EF9BA4609E005EB8000018819B18278204617F02FF90AF199
:201F4000010A317A5FFA8AF08842F0D3B07A30B95FEA897003D53178204616F009FC9DF88F
:201F60000400FEF753FA284618F00AF97078022805D1B8F1000F02D0204612F037F996E220
:201F8000A888FEF79BFD18F091FF0028F7D1F07D012808D1FEF789FAF279706AF775002143
:201FA00017F0FCFE17E0307E012803D1FEF725FB377610E000240AE0706AE5B2415D012985
:201FC00004D1E0B2FEF782FA716A4F55641CE0B2F1798842F0D3502017F060F9FEF7EFF9F4
:201FE00065E218F08FFF00280CD0F06900281CBF0468002C07D0286900906B7B2A7B698997
:20200000E81CA04752E26889012145E268780024002840F0DA80A879C10740F1D680082217
:20202000002105A817F0BAFEA88818F093FF040000F08E806F694FB30622002107F111001B
:2020400017F0B4F968B310220021384617F0AEF9D0B9387C00F001084FF0000909F10109B0
:2020600087F811900020009000230022414607F111000DF035F800285FFA89F002D100289C
:20208000ECD101E000280CD1002068610622607900F001008DF81A00A11D05A817F088FE2B
:2020A0001FE06F69EFB1387C00F001008DF81A00062207F1110105A817F07AFE6079012805
:2020C00005D10622A11D04F10C0017F071FE062207F11101A01D17F06BFE387C40F0020088
:2020E0006071A879410720794CBF40F0020000F0FD002071A9790A0754BF00F0DF0040F00D
:2021000020002071A9799DF81B00DFF8B083890801F0010108438DF81B004FF0FF09A9795A
:20212000C90801F0010140EAC1008DF81B00FF2469691E2779B31022684617F039FE10219B
:20214000684618F0AFFE4FF0000BDFF874930CE0FEF7D6FC0028D5D0307804210BF0DAFED4
:20216000D0E70BF101005FFA80FB99F80000834510DAD8F8001007FB0BF00A5CFF2AF0D068
:20218000084400F10D011022684617F0C5FA0128E7D15C46A1460020009000239DF81A1052
:2021A00004AA05A80CF09CFFB9F1FF0F5DD034285BD1707D30B3012857D1A888052118F041
:2021C0009DFE0124A888FEF779FC68780B2804BFA888FEF7B5FCF06900281CBF4368002BC7
:2021E0000FD06A78A888012198476878002808D1A879C10705D5F369A88822465C6803216D
:20220000A0474CE1D8F80000002117FB09F90091002310F80910401C04AA48440CF060FFDF
:2022200018BB9DF81000FEF751F9F0B9FEF7C7F8FEF718F98DF81000E86800280CBF00218B
:202240000169002201900392029105A9686900902B69AA689DF81000FEF719F80446A8885F
:20226000FEF742FB200046D14BE00020009000239DF81A1004AA05A80CF032FF20B1FEF7EA
:20228000F1F88DF8100019E06869B8B19DF810001AFB00FA6A4610210AF1230016F0CCFA0E
:2022A00060B91022FF21684617F080F830B99DF81A0005A900F0010018F044FE9DF8100060
:2022C000F179884227D2E86800280CBF00210169002201900392029105A9686900902B6985
:2022E000AA689DF81000FDF7D2FF0446A888FEF7FBFA200005D09DF81000FEF7E7F8FEF79B
:202300005EF8200008D1707A0028A8887FF45BAFFEF788FB59E7152454E7687806281FD185
:20232000A88818F017FED8B1317D491E032917D8DFE801F0020E08134179A8880022FEF7B3
:2023400023FB0DE00022002140F2094002F02CFDA888052118F0D2FD02E0A888FEF7F0FB7A
:20236000F06900281CBF4368002B03D06A78A888022198479AE000970023E97801AA01F013
:202380000101281D0CF0ACFE0028F3D19DF804001AFB00FA05F10C0204210AF1250016F06D
:2023A0005FFA83E0F06900281CBF4368002B03D0A888002200219847707810B9A888052103
:2023C0006AE0A88818F0C6FD040070D0A87AC10712D5009700236179002201F00101A01D3D
:2023E0000CF07EFE00281EBF60790028012803D0E868C0F3402028B1707C022807D1A87A17
:20240000010704D4A888032118F048FD4FE06179A88805F1080227E02F7BAD88284618F0A6
:2024200099FD040042D018F06DFD00283ED100900023617901AA01F00101A01D0CF050FE15
:2024400028BB9DF80400FDF7A6FF07F00C07042F11D0082F0BD00C2F0FD100F009010929F0
:202460000BD0617900222846FEF78EFA1EE010F0090F02D1F5E7C107F3D501220092A37C71
:202480009DF8041002462846FEF7E9F90EE070780028E6D10521284618F000FD06E0FEF7DD
:2024A0002FFB18B1307804210BF034FD0127384607B0BDE8F08F00BF741A0020680F0020AB
:2024C000C13D00202DE9F04F85B00D460295044615F8011B8DF801100022DFF8E81488786C
:2024E0008DF8002004F1660B17F0FAFD01902C219DF80100DFF8D024032804F1F40604F581
:20250000B07A04F59C7704F5C87804F2171900F0E180072800F01582082818BF092811D006
:202520000C2800F0D9810F2811D0112800F04681182800F094811A2800F059811B2800F091
:202540007E811CE22946204610F036FA17E2707ADFF8788481070AD40F2089F80200204645
:2025600018F098FC002872D198F80000DEE12878697800EB01223A82A878E97800EB01222B
:202580007A822879697900EB0122BA82A879E97900EB0122FA82287A3876697AA87A01EB24
:2025A00000227A83E87A297B00EB0122BA83687BA97B00EB0122FA83E87B297C00EB012203
:2025C0003A84687CA97C00EB01227A84E87C297D00EB0122BA84687DA97D00EB0122DFF8E2
:2025E000F003FA8401788A0658BF4FF01A0A13D504F5AA700490798B0391387E02902189CE
:202600000191F88A0090BB8A7A8A398A204618F03DFCE8B14FF01E0A707A41070AD40F2024
:2026200089F80200204618F035FC00280FD198F800007BE152460F21204618F023FCF88AAD
:202640000090BB8A7A8AA179504612F057FB74E104F18600798A81800023BA8AC2800222FC
:20266000F98A018102704380A18EC91DABF81E10628E8188B1EB520F02BFC188A28E914237
:2026800002BF0089E18EB0EB111F21D09BF81000012804BF9BF811000F280CD09BF81500D7
:2026A00000281CBF9BF811001A2804D00F218BF81A10FE217EE0FC21204618F0DFFBF88A1C
:2026C0000090BB8A7A8A398AA07918F0D3FB34E110216FE0707AC10709D431781A2001293E
:2026E000707002D1FF220D213DE00D2162E000208BF800008BF806000122327129460822C0
:2027000004F1B00018F0B2FB0146022204F1B80018F0ACFB04F1A80501460822284618F00F
:20272000A5FB07460821284618F0BCFB04F19C0504223946284618F099FB0421284618F076
:20274000B1FB04F1A00018F08DFB04F1980018F085FBA048018841F080010180307801281E
:2027600005D1FF220421204618F074FBE5E09BF811600F2E18BF142E07D00E2E18BF0C2E1D
:2027800003D01A2E18BF162E13D19BF81070204618F05CFB0421204618F070FB012F06D142
:2027A0008BF81A601A2E14BFFD21FB2102E0314600E00421204618F061FBBEE028788AF8DF
:2027C00000001A286B788AF8013040F0D8801068A679431C4E4300209855A379126811FB63
:2027E00003F111440871A1799AF80100C0E0A77910682E784F43074406F01F0317F8210F58
:20280000B60938B17878F040C00703D598F80600042805D120221A21204618F033FB8CE034
:20282000FB701068A27911FB02F10144204681F82360002117F0AAFF0028F0D174E0A379CA
:2028400010684B430344D88808B900265E701068A27911FB02F10144002008716DE0697878
:202860002878884204BF084010F0070F6DD19BF81100162806D198F80620A179134600208D
:202880000BF0E2FA022088F80200012101984177012398F8060098F80A1088F80000BAF8B4
:2028A0001C2018F0CFFABAF81810814209D3BAF81C2098F80A1098F80000012318F0C2FA82
:2028C0000146AAF82E10012198F8080040F0400088F80800397030E0707E012810D015F862
:2028E000011B31770222294604F5897018F0BEFA0146022204F58A7018F0B8FA01207076B0
:202900009BF8060030B93D21012289F8011089F8002012E0F07E002804BFB07E00280CD103
:20292000204618F08BFA30B9284800784FF480410BF0F0FA01E00120F07601218DF80010CB
:2029400021E028780F2816D01A2818D1A07913684843184400234370A079126811FB00F1AD
:2029600050180371F07A00F0FB00F0721A20A1790DF035FCE1E7707A00F0FD00707220465B
:20298000029918F057FA9BF811001A2815D19BF8120017281CBF1028FC280ED19BF810607A
:2029A000204618F053FA012E03BF1A208BF81A00FB211A21204618F061FA9DF8000005B02A
:2029C000BDE8F08F780E0020343D0020C70F0020200E00209C0F00202DE9F84305460C469F
:2029E000480413D4A00024D4A0075CD460057ED4200500F10681200700F13B81600040F17C
:202A0000F68010F089FF24F08044F0E017F08AFCDFF81C140F6D3FB1D7E90A1202F0E04220
:202A200001F00A01891849D017F010FE24F48044DDE0BB48DFF8FC73016841F0800101606D
:202A4000B878012804D1042014F0DAFE0020B87017F068FC0646042017F09AFCDFF8D813C6
:202A60000A68904219D12A7EBAB1FA68AAB1DFF8C003806C002800F09780C16840F603023F
:202A80000988914206D0C06840F604010088884240F08A8005F1140088E040F6C412086027
:202AA000C5E9042284E007F07BFADFF88403006C002840F09D8024F0020498E0D7E90A6572
:202AC000D7E90A12AA43B143C7E90A1217F0BEFDB8680028AAD056EA0500A7D0D7F808C096
:202AE0003869B7F9301032462B46E0479EE717F019FC054616F026F8002800F0B780CC48C2
:202B0000876B002F00F0B280DFF828830420CB49002288F81800C64816F0FFFF17F0ABFD3D
:202B2000C74817F087FDC7480068006B8047C8F810000125042088F8025015F0C5F8386903
:202B400090F82810C8F80400490703D5436A042100229847012011F09DFDD8F804004576AB
:202B60000DF01EF8D8F8040081680B461A465B684BB11E88A6F60306072EF7D805FA06F6CB
:202B800016F0830FF2D0537B03F0F003013353730023FD6853602D88A5F60305012D00F27A
:202BA0008A80C8F810309FE005F1100013F06CFA304617F04BFD15F09FF878B12E6A28468D
:202BC0006FF4807100224FF00073B0479848806B10B110F0A1FE01E044F00204EE692846CB
:202BE000002100224FF08063B04724F0005434B1974821462830BDE8F84317F0E5BDBDE860
:202C0000F8838C4EB078012804D1042014F0F8FD0020B07015F070F838B170686FF480715A
:202C200000224FF00073056AA847306950B185480068006B804732697168801A000BC86020
:202C4000002030617A4D81490022284616F065FF02203076286C20B17D480221283017F0C4
:202C6000B3FD10F059FE24F40064C0E717F003FD41E017F057FB054615F064FFA0B1DFF8CE
:202C8000B48198F8000000070ED498F9000000280AD468460DF07AF808B1009820B1DFF8D9
:202CA000B49199F8610048B317F0E5FC10F034FE24F008049BE7034633F8385FA5B190F83D
:202CC000445090F8456005F0F00580F8445006F0F005013580F8455000255360C563458743
:202CE000507B00F0F000507357480022C2610160012016F0C3F924F4806478E70026012795
:202D0000602E0FD009EB0600817A31B18772407A07FA00F0C0B214F08DFD2036F0E700BFDF
:202D2000CC210840032088F81800454817F082FC17F0A1FC444F3E4D0022786900207861D3
:202D4000F968F8602846444916F0E7FE3D480068006B8047D8F80C10D8F82020411A02EB71
:202D60001130B0EB113F38BF4FF0FF3098F82410C8F8200021B1D8F80810B0EBC12F20D9E0
:202D800016F08CF9B8B140F60900414621F83C0F002048804A7B02F0F00201324A730A7B0F
:202DA00002F0F0020A734860F8613960B8F83E0010F4406FFAD00020C8F82000012088F80C
:202DC000240012F057FE2548002101600220002116F054F9022014F013FD10200CF072F827
:202DE00098F8010020B9D8F80400503017F0E8FC1B48807810B90D200CF064F898F82500CC
:202E000028B1002088F82500052014F0F9FC002088F818001348C8F81C000220B5F85610D2
:202E2000B5F85420914208BF072010F023F83DE7F41F0020F01D002048240020218B0100D8
:202E4000883800208C0100100010044001C70000901F0020D03500207D39010000000460CA
:202E600094D60100E9C000002DE9F843DFF82C54DFF82C842968DFF82C74087C16F084FFFA
:202E8000044628680021C17204F12E0928680DF06DF80120607104F5977598F80100401C02
:202EA00088F8010080200BF011FC2060DFF8F823B8692168C860162097F82F1041435018B5
:202EC00001894900A9F80210C079B9F80410400089F800004900B9F80800A9F804100001F5
:202EE000A9F808004946204617F0A0FF0520A081204617F097FF3868016800200871386803
:202F000017F08CFF00F108063078C0F38010287004F59470317811F00F0F1CBF01F00F02FB
:202F2000012A08D001F00F03022B1EBF042A01F00F01062902D10622B11C01E00622311D04
:202F400016F036FFD94FA2793868520141F6220181520023A17900EB411253800022A17949
:202F600000EB411042603178D14811F00F0F1CBF01F00F02012A08D001F00F03022B1EBFA5
:202F8000042A01F00F0106290AD1CA498A78510608D5C94A138841F20A418B4208BFC748E0
:202FA000C4F89C01D4F89C11204688473A68A17902EB411398733868A17900EB41120020EA
:202FC000D0733968A27901EB4210817B89F80B10307810F00F0F1CBF00F00F01012908D079
:202FE00000F00F02022A1EBF042900F00F00062803D170783018C07800E0707C04F5CB7130
:20300000002818BF012810D13A6802F11003A279520198543A68A37902EB431300225A74B4
:20302000401C08700A71A64816E004220A70A2793B685201032804D1103306209854012036
:2030400002E01033022098540871A179386800EB4112202050749B480188E9870088A1794A
:20306000994DA4F87401386800EB4111974800780CF040F9A07939682B68400101F114025A
:20308000034413503868A17900EB411290489061A0790BF037FCA279296852018850A2798C
:2030A00029685201885820B90721204615F088FBEFE0A079874E01EB40111F220A76286812
:2030C000A17900EB4112002050763168A07901EB001017F09FFEA079296833687E4E01EB63
:2030E000401203EB00105060A179286800EB4112516804F168021160A3795B01C1589160DD
:2031000071690978CA074CBF1F210F2172691278930748BF41F0200172691278530748BFEA
:2031200041F0400172691278130748BF41F08001A27900EB421001722968A07901EB401232
:203140000B2151722868A27900EB42110420634A88721178012907D12868A27900F10B0199
:2031600052010120885407E0706A2968A379007801F10B025B01D0542968A07901F10C02F0
:203180004001616A11502868A17900F110024901A06A50542968A27901EB4210A16A090A15
:2031A00041742868A17900EB4112A06A000C907408214B4A10780AF0ADFE3868A17900EBC8
:2031C00041122068C16891604FF0640C2068C168C26801618260A0793968400101F10C0231
:2031E0000C31135C03F0EF030B54A0793968400101F10C020C31135C03F07F030B54A0794B
:203200003968400101F10C020C31135C03F0F00343F002030B543868A27900EB4210417BEF
:2032200001F0F00141F001014173306B2968B9F80460A37901F11402016801FB06F0B0FB5A
:20324000FCFC40F6C4105B0100FB0CF0A0F5966C42F803C02968A07901EB4010C17C01F071
:20326000F00141F00401C1743868A17900EB4112206842600821204617F000FE19490820B2
:203280000870A279184988F802202068174A41618261BDE8F14317F0AFBA00BF540F00209F
:2032A000780E0020BC0A0020E0070020980E002081010210C00C00209A0F00204DE5011029
:2032C0008E0F0020900F00209C0E0020CA0F0020980C0020A40E0020A0D20100CC0F0020AB
:2032E000C70F0020C80F0020F1C10000020480802DE9FE4F0546DFF82C04DFF82C64027893
:20330000002A4CD0052A73D0062A00F08080072A18BF082A00F0F5800A2A00F0D681112A80
:2033200002D0132A70D0F4E1DFF800341878002117F06CFD04001EBF606D407810F00C0FBC
:203340002DD0216DC0064CBF886C486F016801F108050622A91C684616F02AFD287800F0A6
:203360000F0105291BD145096946C0F3801017F049FD002813D03168684617F03FFD0746B4
:20338000316804F1380017F039FD87420DD0606D4178C80604D440F2014017F02BFDBEE117
:2033A000607B40F002006073B9E133681E2010FB07F6981906226946C01D16F0F9FC606D85
:2033C0004178C806F0D5A17B0129EDD1DFF860038178480605D5E90703D4206D41F20A4170
:2033E00002E0206D41F2044141804183418696E117F0C8F90028FAD10FF06EFA012802D006
:20340000012017F0F3FC8AE111F051FB87E1DFF82453286817F002FD0400F7D02079032802
:20342000F4D1207A00F00F01072937D1C24800684169497A4A1E11425CD0617A04F10A0352
:203440005A5C02F03F02252A54DBA17A8A09012A50D111F03F0F4DD0007C16F095FCE17A31
:20346000CA074CBF04F1110204F10B028B0748BF921D0B0748BF921CC90648BFD21C127809
:20348000520916214A43AD498B180A31EB608A5A428699898186DA89C2862BE000F00F0064
:2034A000082827D1A17A880924D119B3A2480168087C16F069FCE17A074688071AD50622E7
:2034C00001F001015143601800F10C01684616F06FFC207AC009694617F094FC50B130688E
:2034E00000F10D01684617F07DFC18B90521384615F066F92079032802D0002014F062FFAB
:2035000003E1DFF83CB29BF802000024FF281BD016F03AFC804608F16C09D9F8040017F0EB
:203520007DFC2A460179032901D011000CD08368197801F003008D06009003D50124009816
:2035400018B9BFE01000FAD0E9E05D7803F1020A34B31AF8010B7B4B01902C2098F806C085
:203560001F6810FB0CFC67444FF0010E87F805E0002A1F6898F806E007F11A0C019F10FB64
:203580000EFE07F01F070CF80E7098F806701B6810FB07F01844019BC3F38113C3761AD18F
:2035A0000098032808F217171AD0ADB199F8000068B108F1F4000278012A0DD1594B1A7888
:2035C000072A04D0082A04BFC078012804D13D21797001203870A2E05B4A1378012BFAD003
:2035E00098F8940070B32D1FEDB253462A4640460EF030F800281EBF54490878002807D1C2
:203600003D21797001203870306817F0E7FB86E04F4801688847064698F80610DBF80420FB
:203620004FF4D07041435018002280F8412108F59E700168807949080EF05CFC45490A680B
:2036400030469047009803281ED043494869007882070DD598F89400002814BF281D28467A
:203660004A691178CA0748BFC01C1AF8000000E0812089F808002A460098C3B29BF802002C
:20368000514604F009FE1DE09AF800001CB11B2804BF022D01251C2803D230490B5C9D4209
:2036A00005D0B8700721404617F0E8FB0AE01D48017808295146404602D117F025F801E087
:2036C000FEF700FFD9F8040020E0254C207830B3244D286817F0A2FB08B3017903291ED140
:2036E000017A8A0611D5807AE178C0F38112914202BF217900F01F00814206D1A078002829
:2037000001BF607800280121A170286817F062FB05E0002014F056FE862017F057FBBDE8C1
:20372000F78F00BFC80F0020680F0020D50F0020C00C0020BC0A0020540F0020E007002056
:20374000780E0020343D0020D20F0020C23D00204023002044230020A0D201006CD5010053
:20376000C03C0020AC0C00202DE9F04F0F46380589B018D5DFF8E4532888FF280ED0C0B213
:2037800016F002FB040009D0A079162117F01AFB204616F0EFFA204609F084FBFF202880E3
:2037A00087F40060D6E1F80504D513F084F887F48070CFE1B80604D516F0B8FF87F020001C
:2037C000C8E1F8070CD516F0B3FC30B100218160DFF88C03006800B1804787F00100B9E170
:2037E000380704D516F0A4FF87F00800B2E1F8060FD5002100220023069105920491039355
:20380000029101920091022017F0D8FA87F01000A0E1B8070FD50021002306910591049145
:20382000039302910191009101223C2017F0C6FA87F002008EE179074FF01E08C94EDFF83B
:2038400028A340F1CD80C9480022002108920791007817F0DBFA0446C5488178FF2904BF0A
:20386000002014F0AFFDA07A16F08EFA05469AF8000095F82E91002805F5947B69D0606D70
:20388000807A022818BF032807D130680D3017F091FA10B93068C11D07915946484617F0B8
:2038A000B1FAA0B3606D807C3368002818BF012804D11946584617F0A1FA04E05A464946F7
:2038C000184617F04BFBFF2843D018FB00F83068404406225946C01D16F06AFA306810F82E
:2038E0000810404400F1010BC01D41F0020908900622616DC87A00F0010085F82E01606DDC
:2039000000F10C0105F5947016F052FA21E05946484617F04BFAE0B130685A46494617F080
:203920001DFBFF2815D018FB00F8306840440D3017F040FA58B9306840440D3017F03AFA19
:20394000002801BF30684044417F012901D149F0020905F12C004B460178069142891209BA
:2039600005920122698C0491C0880899029140080390CDF800B0079801900020A97917F0BE
:203980001DFAD5F89C017B4988420CBF00210121A87917F007FA7848AB7902682C214B43B8
:2039A000134401221A73AB7904684B4323445A73AB7904684B4323449A73AB7904684B43FE
:2039C0002344DA73AB79006811FB03F10144002008740720A9790FF008FF87F00400B9E063
:2039E00038060FD500210023069105910491039302910191009101223B2017F0DFF987F07F
:203A00008000A7E0F8045DD55C4930680C680D3017F0D0F9002844D13068C11D0D3017F0BC
:203A2000BDF93EE0606D4178480704F13E0526D5287802281EBF03286878012830D16978ED
:203A4000306804F1380217F089FA8146B9F1FF0F15D0306818FB09F948440D3017F0AAF991
:203A600068B930684844C11D0D3017F097F930684844C11D062204F1380016F099F92878C0
:203A8000022818BF03280BD130680D3017F092F930B93068C11D062204F1300016F088F984
:203AA0002468002CBED13648DAF8042000784FF4805112F01BFC10B18E2017F06BF987F451
:203AC000805047E0B80505D516F04AFC2D4901200860FEE7780504D516F0C3FE87F48060B0
:203AE00038E0780405D5812017F054F987F4804030E0B9042DD5244C206810B1002014F07C
:203B000061FC4FF0FF3020600020204C0DF0E0FB216851F8202F684690471D494A6B086BC2
:203B2000C96A24681B4B019200900293ADF810106B46194A19491A4803921A4A07922568EC
:203B4000194AA8471949086003F064FB87F4005000E0002009B0BDE8F08F00BF70240020DC
:203B6000480F0020680F0020880E0020D70F0020780E00204DE50110343D00204C0F002086
:203B8000C70F00207C052043380F0020200F0020801D002011A1010021A10100A03C002066
:203BA000C02F00201EFB0080183A00201C0F00202DE9F041FF2806462AD116F085FC10F064
:203BC0001F0F22D0042013F067FC08B1042016E0012013F061FC08B1012010E0022013F0F8
:203BE0005BFC08B102200AE0102013F055FC08B1102004E0082013F04FFC20B10820BDE844
:203C0000F04113F081BC14F0DDFB0020BDE8F08113F07AFC5FEA000814BFD8F8045000253B
:203C2000012E46F2A81740F6C4140BD0022E69D0042E00F0B780082E00F01081102E00F0CE
:203C40005781E2E7012013F027FC00281EBFDFF86803006800281CBF8788BF00102013F0C9
:203C60001BFC18B3102013F04FFC040002D066685EB900E00026022013F00EFC28B10220F9
:203C800013F042FC040018BF66686DB1012013F003FC002818BF002E06D0B068C11BA868F2
:203CA00015F0BCFA00282BD02046AFE7022013F0F3FB38B1022013F027FC040014BF666841
:203CC00000260AE0042013F0E7FB50B1042013F01BFC040014BF66680026002DE4D00120BF
:203CE0003EE1082013F0D8FB28B1082013F00CFC040005D052E0012013F0CEFB002885D026
:203D0000404683E7022013F0C7FB58B1AB480168AB48CA69017801EB81015318DF886743DE
:203D200007F51667042013F0B7FB38B1042013F0EBFB040014BF6668002622E0082013F043
:203D4000ABFB98B1082013F0DFFB040002D06668BEB900E00026012013F09EFB88B1012037
:203D600013F0D2FB040018BF66680AE0012013F093FB50B1012013F0C7FB040014BF6668A2
:203D80000026002D90D00220EAE0102013F084FB30B1102013F0B8FB0400B1D06068EAE0F4
:203DA0000220A9E7042013F077FB50B18548016885484A69017802EB01139F89674307F5B9
:203DC0001667082013F068FB98B1082013F09CFB040002D06668DEBB00E00026012013F066
:203DE0005BFBA8B3012013F08FFB040018BF66682EE0012013F050FB38B1012013F084FBB2
:203E0000040014BF6668002622E0102013F044FB98B1102013F078FB040002D06668BEB959
:203E200000E00026022013F037FB88B1022013F06BFB040018BF66680AE0022013F02CFB82
:203E400050B1022013F060FB040014BF66680026002D23D0042083E004204DE716F08AFC8B
:203E600008B1D0F89470042013F016FB38B1042013F04AFB040014BF6668002632E0012032
:203E800013F00AFB58B1012013F03EFB002D044604D0082013F000FB00286ED104E71020C1
:203EA00013F0FAFA98B1102013F02EFB040002D06668BEB900E00026022013F0EDFA88B100
:203EC000022013F021FB040018BF66680AE0022013F0E2FA50B1022013F016FB040014BFFF
:203EE00066680026002DD9D0082039E0082003E7032016F041FC08B1D0F89C70022013F08D
:203F0000CBFA38B1022013F0FFFA002D0446C5D01020BFE7042013F0BFFA38B1042013F003
:203F2000F3FA04000CBF0026666816E0082013F0B3FA18B3082013F0E7FA040002D0666888
:203F40005EB900E00026012013F0A6FA28B1012013F0DAFA040018BF6668002D9ED010203B
:203F600013F09AFA002818BF002E97D0B068C11BA86815F053F9002890D1C1E6012013F06D
:203F80008BFAB0B1012013F0BFFA040014BF66680026002D05D0102013F07EFA002818BFE7
:203FA000002E3FF481AEB068C11BA86815F036F9E1E71020A0E600BF483D0020500F0020D8
:203FC000D80F0020540F0020D90F00202DE9F84FDFF884730446386808B90720B9E1C07A7E
:203FE000012804D0042013F073FA012801D10C20AFE1DFF868030078092818BF0A2804D0B1
:204000000B281CBF0C280D2801D12120A1E1002C00F0BE802078002818BF012807D1A0788A
:20402000002818BF012804D0022818BF032840F0AF806078002818BF012803D0022818BF25
:20404000032873D1607A10F0050F6FD00025AA4640F67B4243F6FD7340F67746607A012124
:20406000A940084236D004EB0A104189A1F1040E9E453EBFB0F80CC0ACF1040E9E4510D2C8
:20408000614522BF018BB0F816C061450BD3C189A1F1060E96453EBFB0F810C0ACF1060E1A
:2040A000964575D28C4573D3B0F812C0BCF5FA7F6EDA808AA0F10A0EB6453FBF0CF1010C25
:2040C000490001FB0CF1B1EBC00F61D20AF101005FFA80FA6D1CE8B20228BFDD39684C61FA
:2040E000607A06280CBF012000209D49087002F0B9F8050008BF092009D03968A87908749F
:20410000E11CA278402007F0E3F808B10B2020E105F16101284616F039FE05F12C0898F8B4
:204120000E00012803DC28460BF0EEFB30E039686078DFF830A2DFF830B2DFF830928C4EB9
:2041400088726078002818BF012807D1C00754BF594651463B680622181D3BE030680D308D
:2041600016F028FE30B999F80010002904BF2078002813D16078C10754BF5946514616F00A
:2041800015FE28B16078C10754BF5946514601E01220DEE038680622001D0CE030683B686D
:2041A000C11D0622181D15F003FE72480168086833680622D91D15F0FBFD6078316800F014
:2041C000010008706078C10754BF5946514630680622401C15F0ECFD207888BBA07885F803
:2041E0002E0105F5947A0622E11C504615F0E0FDA1783068E21C01F0010116F0AFFE8346CD
:20420000BBF1FF0F1CBF99F80000002818D0A07840F0020085F82E011E21326811FB0BFB87
:2042200002EB0B01487F58B901F10D0016F0C2FD30B930685844C11D0622504615F0B8FD76
:2042400016F0A0FDA86215F0F3FB686204F11001DFF80CA19AF80000000104F114030A5A67
:20426000A8F80620195AA8F80A102044428AA8F8082002223868417C88F80010002088F8A2
:204280000220A8F8040016F0A1F90C2290FBF2F20C2101FB1200401D88F80F0004200AF0D6
:2042A00015FA3968344A08608261344941603449416106200FF087FD39680120C872A87982
:2042C00012F0CAFD99F80000002801BF386841690A78012A0DD1807A02280AD1316801F13D
:2042E0000D0016F067FD20B92648417941F0040141711A4C2078C8B999F8001049B12248DA
:20430000006816F03BFD38680068816941F4802181613868007C0CF0EBFC06202070012275
:2043200000210FF062FA16F067FA11E03A68117ED06852699AF8004002F10C03240140F656
:20434000C4121D5B02FB050000F516600AF09CF80020BDE8F28F00BF540F0020C80F002095
:20436000D90F0020480E0020400E0020880E0020680F0020543D002002008080103B0020E6
:20438000C1190100BC0A00206C0F00202DE9F84785B004468A4611F8010B00272C22072864
:2043A00004F5A47504F1660804F1FD06DFF86C93DFF86C3300F07081092810D00C2800F02E
:2043C00033810E280BD00F280DD0112800F0DE801A2800F0F0801B2800F0188179E120464F
:2043E0000EF0EAFA75E13378980705D40F213177204616F04FFD06E198F81000012804BF5F
:2044000098F811000F2811D098F8150010B198F811201AB198F81C20012A09D1580705D4E8
:204420000F213177204616F035FDECE0232268E018B198F81100012804D004F18607B87A92
:20444000012809D1580705D40F213177204616F021FDD8E02A2254E008784A7800EB022335
:204460002B808878CA7800EB02236B8008794A7900EB0223AB808879CA7900EB0223EB8016
:20448000087A28724A7A887A02EB00236B81C87A0A7B00EB0223AB81487B8A7B00EB022363
:2044A000EB81C87B0A7C00EB02232B82487C8A7C00EB02236B82C87C0A7D00EB0223AB823B
:2044C000487D897D00EB0122EA8204F5AA70049069890391287A029021890191E8880090FA
:2044E000AB886A882988204616F0D0FCB0B13078410705D40F203077204616F0CBFC82E019
:204500001E220F21204616F0BDFCE8880090AB886A88A179002010F0F1FBBBE06888B880F8
:204520000022A988F9800221E888388139707A80A08EC01DA8F81E00618EB888B0EB510FCD
:2045400002BFF888A18E884202BF3889E18EB0EB111F19D098F8150000281CBF98F8110033
:204560001A2804D00F2188F81A10FE2181E0FC21204616F083FCE8880090AB886A882988ED
:20458000A07916F077FC85E0002172E0087828761A284978697640F09C801868A679411C69
:2045A00056438F551968A37912FB03F20A441771A179687E86E094F806C018680E7812FB3E
:2045C0000CFC604400F1210506F01F012878B60938B16878F040C00703D594F896010428BC
:2045E00005D120221A21204616F04CFC52E0E970A179186812FB01F28118204681F8236094
:20460000002116F0C3F8002844D13AE0A179186851430144C88800B94F70A179186812FB7F
:2046200001F281180F7135E0327C012A0FD011F8010BF074022204F5897016F017FC0146B2
:20464000022204F58A7016F011FC0120307498F8060020B93D210120F176B0761AE0B07CCA
:20466000002804BF717C002914D198F8000020B90C21204616F002FC0CE0204616F0DEFB23
:2046800030B999F800004FF4804109F043FC01E00120B074012720E008780F2815D01A2838
:2046A00017D1A0791968504308444770A0791B6812FB00F298180771B07800F0FB00B070EC
:2046C0001A20A1790BF08BFDE4E7307800F0FD0030705146204616F04DFB98F811001A28D5
:2046E00018D198F81200182818BF002803D0152818BFFC280ED198F81060204616F0A6FBF9
:20470000012E03BF1A2088F81A00FD211A21204616F0B4FB384606B0BDE8F087C70F00201A
:20472000343D00202DE9F84F054605F14C0AE87D9AF80010DAF8047081424FF00008C0F0ED
:20474000918105F1280407F1980907F17B06C34640F08C80A87F7075E97FB175DAF808203A
:204760005278930710D5EA7FD30604D5C01E707501F0EF01B175C7F87CB086F80080002200
:20478000B17D01F0FE0168E1910608D4E08B00B1E07E3076E08B00B1206AC9F80000DAF8E6
:2047A00008004178CA070DD5E08B00281CBF206A002807D0C9F80000A17EE08B814238BF89
:2047C00008463076E87FC1060CD5F86B217800EB8100F863F86BA98CA63100EB8100F867D9
:2047E000022002E0C7F87CB000203070DAF80800417811F0030F22D1007815F0BFFF5FEAED
:2048000000081CD098F8B400032809D1E87F810615D440F02000E877B07D40F020000DE06B
:2048200068B9E87F81060AD500F0DF00E877707DA0F112017175B07D00F0DF00B075E97F5C
:20484000002201F0FC01284609F084F8B8F1000F36D0E87F810633D598F8B40002282FD143
:2048600041462846BDE8F44F15F092BFE87F81060AD500F0DF00E877707DA0F11201717593
:20488000B07D00F0DF00B075DAF808004178C80717D5B07D717D00F0F700891E01F03F01CF
:2048A00082075CBF891D40F00200420644BF491E00F0BF00B0757175C9F800B086F8188089
:2048C000D0E09AF80020E87D121AD2B28907009240F18080012A07F144083ED1F86BA98CF8
:2048E00000EB8100F863A87F00F03F00A8777075E97FB175DAF8082053785A0703D5801F6C
:20490000707501F0FD01B1750023717D98F80000E27E01F03F018A18C0F38001521C00F037
:20492000030016F023FA00F59B70A8841E2180B290FBF1F0B17D82B201F0FE01284609F08F
:2049400009F886F800B0E08B00B1E07E3076E08B00B1206AC9F8000084E0F86BA98C022A79
:2049600000EB8100F86325D1E87FC10706D5707D811F7175B07D00F0FE00B0750023717DAC
:2049800098F80000E27E01F03F018A18C0F38001521C00F0030016F0E9F900F59B70A884AB
:2049A0000022B17D01F0FE01284608F0D3FF607FA8F81E00617F0098491C081AC0B2012848
:2049C0001CDDF96BAA8CA63201EB8201F9670221317014E0F86BA98C00EB8100F863617FA6
:2049E0000098081AE97FCA06C0B207D5F96BAA8CA63201EB8201F9670221317090B395F8A2
:204A00001F80A97FD9F80020E37E1A44C9F8002028F00108DAF808205278530748BF28F0E0
:204A20000208920748BF28F00808012807D1207F3076C7F87CB028F0100886F800B001F024
:204A4000C004404616F08EF900F03F002043707586F81680002208F0FC012846BDE8F84F83
:204A600008F078BFBDE8F18F2DE9F04F8FB0074618984FF0000C002A01938DF8200000F0B3
:204A80008D810AA80E464FF0200A002400F1100ECDF800E0114611F8010B25280E910CD08D
:204AA000002800F07781022EC0F00C81013E002F00F0078107F8010B04E15378901C0E908E
:204AC0002D2B07D14FF00109D01C8DF80D900E90937803E04FF000098DF80D90302B05D128
:204AE0000121069110F8011B0E9002E01946CDF818C04FF0FF322A29CDF808C004922CD17A
:204B0000019D29680A1D2A60D1F80080CDF80880B8F1FF3F10F8011B0E9007DC4FF001094A
:204B2000C8F100088DF80D90CDF808802E2925D1CDF810C0024612F8011B2A290E9220D111
:204B4000019D29680A1D2A60096821EAE17BCDF810B0417802300E9027E04FF00008A1F1AF
:204B60003002092AE0D810F8012B08EB880501EB4501A1F130080E901146F0E74FF0FF3B23
:204B800013E04FF0000BA1F1300009280AD812F8010B0BEB8B0501EB4501A1F1300B0E92C8
:204BA0000146F0E71046CDF810B0302B41F0200306BFCDF81880424600226C2B06D10121F1
:204BC0008DF80C1010F8011B0E9001E08DF80CC0CDF81CE00AAB6929CDF814C0099301D032
:204BE00064290CD1019B1868011D19609345C8BF5A46016870466FF0090306921EE07529DB
:204C00000AD0A1F16F03092B5FD8DFE803F0058C6A6AA76A6A6A6A05019D2868031D2B60FF
:204C200078294FF0080308BF1023752908BF0A239345C8BF5A460168069270460DF0DCFD71
:204C4000DDF800E00990AEEB00010591A8EB01004FF0000CB9F1000F02901CD109E0022EA6
:204C600006D3013E1FB107F801AB029800E00027013401380290F2DA0DE00998022E07D39C
:204C8000013E27B1007807F8010B099800E000270130013409900598411E00280591ECD15C
:204CA0009DF80D0078B10298013802900BDB022E05D3013E17B107F801AB00E000270134E8
:204CC000F1E7002701340E9AE4E6632909D1019A1068011D11600121006805918DF8280059
:204CE000B4E70138022E0E9052D36FF000400BF1010186426FF0004038BF30460246B3453C
:204D000038BF0A46002908BF024604920EA9019A02AB05F08DFADDF800E09DF80D90DDF847
:204D20000880059992E7019A10231068011D11600821082206919DF8201000290168704608
:204D40000DF05AFDDDF800E0A0F101014FF04002099100F8012CAEEB010176E7019A10686C
:204D6000011D11609DF82010006800290D49002808BF0846099015F076FA0146834538BFA7
:204D800059461BF1010208BF0146DDF800E05CE700215BE70FB100203870A44660460FB025
:204DA000BDE8F08FA0C20100F8B5144600254FF48067DFF89862C21B84B006F1880337D0AB
:204DC000921E3CD0521E44D0521E4AD0521E50D0521E54D0521E00F07A80921E00F07C80EF
:204DE000D21E00F0AC80521E00F0B780921E00F0C080521E00F07B80521E00F0C180521EC4
:204E000000F0CF80521E00F0D280521E3ED0521E56D0521E4BD0921E00F0DE80921E00F064
:204E2000E280521E00F0ED80521E00F0F98000E101290FD12078022817DC707003E10129DC
:204E400008D12078022810DA0028B070F6D1B074E3E0012940F0EB802078052805DAF0700E
:204E6000F1E001296CD12078022880F2E0807073E9E0102964D110222146754814E00129D8
:204E80005ED12078022863DA3071DCE0012957D1207802285CDA00287071F6D00120F074E9
:204EA000602206F12801184614F082FFCBE00129FCD12078022802DAB07115F041F9C2E02B
:204EC00001293DD12078022842DAF072BBE0012936D12078F073B6E0002931D115F0E6FFE8
:204EE00010B9FBF7E2FA1DE00120F075ABE0072926D10622611C02A814F0BEFD0095002320
:204F0000217801AA02A80AF0EBF8B0B9F07A10B915F0CCFF10B1F07A012808D19DF8040094
:204F2000FBF7D4FA0546502014F0B8F91EE0716A9DF804200120885485E0342583E0012967
:204F400075D1717C2078022903D0C11F0A2902D36DE010286BD1307475E0012967D1B17D56
:204F60002078B075002908BF01286CD1FBF727FA69E001295BD12078052858DA307562E08E
:204F8000012954D12078022851DC00284FD07074022803BF102030740120002015F0DEFEC6
:204FA00051E0012943D1207814F09AFB4BE0707900283CD1602908D1002C38D06022214689
:204FC000184614F0F5FE012004E001292FD1002C2DD02078F07436E0012928D13CB3207868
:204FE0001C4908702FE011BB15F060FF30B9FBF704FB0546502014F051F924E001203076E7
:2050000021E0012913D12178022910DA012904BFB078002816D0B174084615F099F812E0B5
:20502000012904D120780228B8BF70750BDB182509E00F2806DA022904D1218811F0FCFA90
:20504000054600E00225284605B0F0BD741A0020403B0020C63D00202DE9F04F89B0A04E46
:205060000546A04F30780328387040F0AC8000203070387002AC204615F018FB2046002104
:2050800014F058F9984CB8602E21204614F0AAFE4FF0FF30A0822061E06013F075F800207D
:2050A000294610F00BFD07F11001F86015F0DDFAD7E905128D4DB1FBF2F0C0B2022828BF7A
:2050C000022020702870B2F5005F7AD1B1EB403F77D3F968002974D04FF6FF7100274FF0E7
:2050E00088586FF0030B61808149616087426DD2FEB2002108AA0423304614F041FF07EB99
:20510000470004EB800A0898D14600F47C0129F8160FB1F5402F04D000F07F41B1F1164FC1
:205120003ED1C0F301418AF819106FF0FD0151FA80F21021022A31D3C2B27E2A2ED003A880
:2051400012F03EF8304600214FF088524FF400534FF4005514F014FF1BFA85F5A8B250F8F1
:2051600008104A1C01D10328F6D801220126D3B2042B06D8CBB2FF2B18BF16460132090AEA
:20518000F5E740F808105C480399006842685B48904755FA86F199F80000544DAAF81C1051
:2051A000C0B2702807D0782803D0FE2805D07C2804D1E77002E0277100E0A7702878013787
:2051C00094E70120307009B0BDE8F08FE178FF2903D0DFF81081012529E02179FF2904D035
:2051E000DFF80081E170022521E0A178DFF8F480FF290ED00131B1FBF0F202FB101000EBAC
:20520000400104EB8101898B09B1E070EBE7FF20A07000250020E5700AF0E2FF98F80010A8
:2052200008437E2188F80000002012F0B5FAA078FF2813D12D48E17800780131B1FBF0F20A
:2052400002FB1010A0700AF0CBFF98F800100843FE2188F80000A07812F09EFA2548E2785A
:20526000022D057002EB4200627004EB8000818BE18028D0012D2BD103AD002788B218283A
:2052800026D30739D0B22A4689B20BF09DFF9DF81700400717D5E088BDF81A10E6782A461D
:2052A00003230097401A073881B2304605F0F0FEE27820B9BDF8181009B196420BD09642B7
:2052C00006D0E188DAE701206071002000F046FD98F8000077E79DF81C0010F06FF9F7E7A4
:2052E0003923002040220020E8390020CB3D0020FF000020CC3D0020D80100100040034093
:205300002DE9F04F8DB0044600209A4616460F46CDE90B00CDE909008748856880460CF002
:20532000D9F91C2803D00CF0D5F91B281BD1308840F60201884218BFB0F5C15F03D1F07BF5
:20534000022810D93EE043F6070188420BD196F82400032807D33069784940F0806020F004
:20536000604088422ED100206FB366B3387825FA00F0C00726D03046002115F00DFA704892
:20538000C4E90176006880B109A800900CA90BAA0AAB304606F0F2FA0B980B214FF6FF7213
:2053A000502313F0EBFDFF280CD014F0BBFF654F06467878012802D840B1012070E0304603
:2053C00015F044F900200DB0BDE8F08F06F04AFA5D480DF10409016841F0020101605B48FF
:2053E000C8F80000484614F01BFEDFF864B15A494A469BF801009BF8005003905548283024
:2054000012F04CFA554856494A4612F047FA484614F08EFDDFF84C81534A19214B46029575
:20542000404611F0A3FA514A08F11C001A214B4611F09CFA4E484F4915F0DAF84E484F4902
:2054400015F0D6F84E48006810F4402F06D04D4A07F128000421002313F03EFB9BF8020062
:2054600010B10D2009F096FE08F1400014F060FB08F1380014F05CFB43490020072238760A
:20548000B8843862386181F860200521C7E902103E49F96138700420002113F0EFFD78780F
:2054A0002C4941F8204001307870304615F0CEF8BAF1000F06D10DF1040A35492022504691
:2054C00015F0C2F9DAE90012BAF81000DAE90635002AB2FA82F608BF40F6C4126261216012
:2054E00060832563760926764FF4FA76C4E9036201226276274AC4E90722C4E90923DAF874
:205500000C0000B12062DAF8140000B16062DAF8080000B1E06104F13800C82114F062FCAF
:2055200004F15000002113F0D9FD1B4904F1B80015F05EF8204646E7CC2108400F000005E4
:20554000F8230020F01D002000200940110000E094D60100901F00205995010010390020F7
:205560008DE70000F41F00207D390100B9210100CC380020FD8A01008838002005950100CB
:20558000B44F005035500100D0350020E9C00000B8D40100F79B01007DA601002DE9FF47C4
:2055A000A048017806294FF0010840F035819E4E9E4F30689E4C016801F108054FF0FF0923
:2055C000297801F00F00072802BFA8788309012B40F08480002800F08180E878C30707D50F
:2055E0000622291D684614F0E3FB2878C0F38019E978880735D5062201F001012B1D5143D0
:20560000194402A814F0D4FB2878C00902A915F0F9FB002800F07E802068807A022818BF0A
:20562000032804D138680D3015F0C4FB002840F0EE80386800F10D0102A815F0D3FB0028BF
:2056400063D02068062202A9001D14F0B1FB707940F0040070710622386802A9C01D14F09D
:20566000A7FB4846FF2867D0694615F0CBFB1E25002800F097803968684615F0BFFB226818
:20568000014650690078FF2971D0002815FB01F553D1107C14F078FB814699F82E01022823
:2056A00018BF032801BF3B68595D00F00100814242D1206841695B190622C91C581C14F0DD
:2056C0002BF8002838D0707940F0080070710622694609F5947014F06BFB42E011F00F0FF1
:2056E0001CBF01F00F02012A26D10622A91C684614F05EFB2878C0F3801900F00F0001289F
:20570000AFD1062205F108017BE73068016800220A7183E02168887A022818BF032805D1F2
:2057200038680D3015F046FB00289AD12068807A002818BF012894D069E0706939684A5D3B
:205740004919491C083815F005FB3A490A7890425DD07069396849196A46C91D083815F082
:20576000F5FA3868401906226946C01D4DE000284DD1107C14F008FB07462068406982780F
:20578000914544D1C11C0622684613F0C5FF00283DD0707969F3C30070710622694607F5B3
:2057A000947032E021684A69107880BB087C14F0EBFA82469AF82E01022818BF032826D1BB
:2057C00038686A46494615F0C9FBFF281FD015FB00F5386841194A7F012A04D00D304019AE
:2057E00015F0E8FA98B120684169386840190622C91C401C13F090FF48B1707969F3C30052
:205800007071062269460AF5947014F0D1FA306801680020087101E04FF00008404604B002
:20582000BDE8F087C80F0020BC0A0020680F0020540F0020C03D002082492DE9F043824C56
:20584000824E20700A22002008600D2380484FF40A7102704380818085B07E480660B77EB2
:205860007D480770FF2FF17E4170327F8270737FC370B57F0571F67F467108BFFF2914D12C
:20588000FF2A08BFFF2B10D1FF2D08BFFF2E0CD172490A7802704B7843708A788270CB78B4
:2058A000C3700A790271497941716D4902786D4D6D4E6E4F0A7043784B7082788A70C378CA
:2058C000CB7002790A714079694A4871FF2028706870A870E87028716871002065490880AB
:2058E000F06B6549407808706449F06B007808701388634863490380F06BC06C0860624968
:20590000F06B90F83C0008706049F06B90F83D0008705F49F06B90F86C000870F06B40693C
:2059200001795C484A1E0270F06B5B49C0783870F06B8069086008B912F044FDF06B5749E5
:20594000C069086008B912F03DFDF06B016E54480C2214F02DFA15F0F5F9F06B5149006AA8
:20596000086008B912F02EFDF06BDFF83C81406AC8F8000008B912F025FDF06B4B49806ABA
:20598000086008B912F01EFDF06B806E00B101200CF0CFF801F010F907280AD105F028FDC5
:2059A00020784FF4804108F0B5FA002012F00AFD44E03F480168884781460DF091FAD8F879
:2059C000000001688847684614F032FBD8F8002004208DF80000694652F8043F00209847DC
:2059E000344908600FF03EFCF068334A01883878324B014311804846196888470C213048A6
:205A000014F010FF284615F099F915F093F92D4800214FF6FF72016082808171F06B90F859
:205A200064102948006814F053FB0121FF2014F097FE20784FF4005108F06CFA05B0BDE809
:205A4000F08300BF380F0020C70F0020B64F0050700E00203C0F0020400E0020E8120050A1
:205A6000500E0020480E0020A0D20100C40F0020722400209E0F0020C60F0020D40F002051
:205A8000AC3D0020383D0020C03D0020C13D0020BE3D0020CB0F0020200F0020240F002076
:205AA000CC3C0020280F00202C0F0020300F002040230020403D0020A00F00204423002037
:205AC000FC0D0020800E0020543D00202DE9F84F14F05AF90746954C41F62800002120803C
:205AE0006180616015F0F6F900F57A60DFF840A2A0600022DAF80010C860E273207B00F07C
:205B0000F00040F082002073607B00F0F00040F0010060732520A0734869417A012918BFCC
:205B2000032904D0042918BF062902D015E0002017E0022020212074617462827D487E4D14
:205B4000A061656115F0F2F828607C48016A0978CA074CBF1F210F2105E0794800780100EC
:205B6000E8D10021E7E7026A1278930748BF41F02001026A1278530748BF41F04001026A5F
:205B80001078020748BF41F08001297100206871DAF800106B4A4869007800F0010040F047
:205BA00002006871897A890001F004010843687197F82E11C90001F00801084391784A062F
:205BC00048BF40F0200068710120A97A288101F0C001A972A81D022114F024FE1620E8723D
:205BE0004FF00008C14607F1610E1622564B384602FB08F15E18416A31604FF0010B876AB5
:205C000037710227816A090A71710BFA08FB816A090CB171F771002131819EF800703774BD
:205C20009EF8011071749EF80270B7749EF80310F17400F12C019EF8047037750F78C97BF8
:205C400001F01F0141EA47117175DAF80070D7F814C09CF8091011EA0B0F17D04FEA0911E9
:205C60000CF1100B3BF801B0A6F80AB00CF1120B3BF801B0A6F80CB00CF1140B3BF8011018
:205C8000F18109F101015FFA81F908E0BCF810107181BCF81210B181BCF81410F18108F1CA
:205CA0000108B8F1020FA3DD28490E7812FB06F21A443B1DEA602B619CF8001000290FBF7E
:205CC00000F59470224801684868A97F686101F0E00141F082014FF6FF70A977A8837869F1
:205CE000A16800F10C023001135A40F6C41000FB031129620020E97F164B686201F0E001D5
:205D000041F08101A862E862E977187860B1B87A022809D1104908680D3015F04BF818B926
:205D2000687940F004006871BDE8F18F103B0020540F0020800C0020BC0A0020A0D201005D
:205D4000D80F0020C00C0020E0070020D90F00206C0F0020880E0020680F00202DE9F04F04
:205D600097B081469948406818B18047002800F0CE80974F01200021042300247E78F873C2
:205D8000BD7808AA304614F0FBF8089800F44030B0F5403F03D17879002800F0B9803046FB
:205DA0000621F8224FF0F80813F090FB06EB460407EB840080F818809DF82000702803D0F4
:205DC0003046702111F0E8FCCDF81090069608AA2846002104234FF0000814F0D1F89DF8C5
:205DE0002000FE2803D02846FE2111F0D5FC28460621FE22FE2613F069FB07F1160097F84E
:205E00000190BA78059500EB8401C988019279826E4981F8008005EB4501039100EB8101EF
:205E200001F8026F029109EB490100EB8101B1F806B002EB420100EB810030F8061F0791DA
:205E400000900EA811F0BCF90FAD1FFA8BF7172F54D35E480078002853D1ABF107064846E1
:205E600009AAB1B20BF0B0F9BDF8324004F11000B8420FD89DF82E0096280BD1A6EB040A5F
:205E80009DF82D2021464B461FFA8AF840460DF06BF9F0B1ABF1010B5C46A0B216282DD925
:205EA0003628A4F1160748462A4688BF2027E41BBBB2A1B214F064F83804EED015FA87F0A7
:205EC00010F8010C962801D0013FF5E707EB040BBBE79DF82F00C1070ED180070CD5073451
:205EE000079E3E49A3B213FA86F00A1A4846414614F046F826440796D346A6E73348007883
:205F000050B134480E990068426833489047002420B217B0BDE8F08F079F019E1021C7F5E6
:205F20000052A7F1100083B2C1F20012304611F063F9264C217808430E9920702548006838
:205F4000426825489047224D00980123B5F91220697B07803046A5F814B02F8212F0FEF85D
:205F6000B5F91420A97B3046022312F0F7F8049A002A08BF1022288A7C21C0F500509042A8
:205F8000B8BF7821059F384611F006FC069E30460AF026F9207038460621FC22FC2413F023
:205FA00095FA0298FE21AE70EF706F700470039805EB8000808BE880304611F0EDFB0020CC
:205FC0006871E888C0F50054A2E700BF40220020E8390020D80100100040034000200011C7
:205FE0002DE9FE4F0422FF2101A813F0D7FE974EB078FF284FF0000900F0258113F0C4FEA0
:206000000546B07814F06CF8064605F217100178012908BF417800F0D08005F5927BBBF81E
:206020000E1019B19BF80C0007F074FF08200DF0CAFE6889288105F1740898F80E000228AE
:2060400018D16A8EE88E347FA979AB8E52080009C4F3C004002C009007D0002014F062FEE6
:20606000307F00F0F700307702E0302014F05AFE88F80E9095F89201022808BF85F8929186
:2060800098F81C00022808BF88F81C90704CA17AE079227B40188218E07A1018627B05F51F
:2060A0008D7700EB020AB888401CB8803A8852443A80788808187880DBF80000C8B1654AEC
:2060C00095F806B0126802F10E034FEA4B1B0E3213F80B3030F813B0D34420F813B0AB79D9
:2060E0005B01D25C00EB4200B0F84A30C918A0F84A1011F0F1FEE079002804BFE07A00283E
:2061000005D1207B002804BF607B002825D0F07E0021C009CB46F1810BD0307F10F0070FB0
:2061200004D1411C61F30200307702E0A87914F02BFB2989E88985F810904118A98101221D
:20614000A97908200DF051FB434948690078810737D5A07B802834D034E0A979002208201C
:206160000DF043FB307F10F0070F02D1F07EC00903D0A879002114F007FBA07A40B1287C4B
:206180004FF0010B08B1E889A88185F8109004E0F888401C4FF0020BF880A889298981421A
:2061A00006D08842D0D2081A41F2AB018842CBDA388800280CBF3E210821284612F000FB87
:2061C00041E0812088F80000244991F8200018B12946012014F0CCFA284606F073FD022846
:2061E0001DD198F80700022805DB01AA1C4928460DF09CFF8146284614F090FD012822D019
:206200005FEA09000DD04A4601A928460EF01EFB38B9284606F056FD012802D113E00128D0
:2062200011D00121284614F075FD02F0E3FC012809D0284611F061FA14F0DEFA2A465146F7
:20624000584606F0A5FEBDE8F78F00BF780E0020980C0020980E0020A0D201006C3A0020B4
:2062600030240020F8B58D488D4D01782A788A4200F012816A68002400E0641C8C4280F24E
:2062800008814FF4D0736343134418790028F4D1E0B213F079FD012101710022427142625C
:2062A00000F161018471012200F168034A711A71012400221A609A6000F190060281428149
:2062C000047480F8392082610277C283327000F592749A76227580271F739A730027FF2202
:2062E000DF741A7600F20D131F70DF70BC46BE4600F5897783F801C083F802E0A7F800C0D8
:20630000A7F802C087F805E000F1E70386F804C083F800C083F801C000F1EC03C3F800C0C9
:20632000C3F804C083F80AE083F80CC083F808C083F80DC083F80EC083F80FC0A7F808C0AD
:20634000A7F80AC0A7F80CC0A7F80EC047F23057A76100F5C676C4F800C02273A4F80EC088
:2063600084F81CC084F81DC0A2770127B7720227F77286F80EE086F80CC04A4FDFF828E141
:206380003F78777386F806C084F80AC084F804C084F805C084F806C084F807C084F808C088
:2063A00084F809C000F5B374404F84F800C086F800C04FF01B0C3F88E7803D4F3F882781E4
:2063C000BEF8007067803B4F3F88A780A4F80AC04FF4A477E7812782A4F80CC0E7822783E8
:2063E000A4F812C0A4F814C06783A783E78327846784A784A6F802C001273771002407190C
:20640000641C042C87F87720F9DB2B4A14780C7057784F7094788C700446D778CF7012796C
:206420000A710021254A50186718407887F8FD00491C0829F7DB587C214900F0FB005874D9
:20644000316100201874A07913F04AFE0646A0790DF02BFF1B480178307C717300F0FC00B6
:2064600030740022B069F28100F0004040F4853040F04000B061307F00F0F8003077287852
:20648000401C2870C0B2012804BFA079A8702046F2BD002011F096FF0020F2BDD40F0020DC
:2064A000780E0020C50F00208A0F00208C0F0020980F0020960F0020F03C0020C00C00200A
:2064C0004DE50110882400202DE9F0470D4629048F4EDFF8408240F1F2808F4F38780CF03D
:2064E00013FB040018D021780120B02917D0B12908D0C22900F0B580D02904BF2046FBF752
:2065000065FCD2E0207920B92289E1886088F9F7DCFD204612F059FF85F40040F6E0217948
:20652000787A012910D009294CD01E2900F08D807D2908BF002806D16088FAF7D7FA014670
:206540006088FAF790FA86E00028FCD1207AB4F8029008283BD14846FAF7C8FA02280FD01F
:20656000032834D1002204214846FAF744F90246F86900281CBF4368002B28D004211EE04B
:20658000002210214846FAF736F98246484614F0E1FC60B198F8001039B9811D40790122A6
:2065A00000F0010014F0B2FB01E001203070F86900281CBF4368002B09D052460521484638
:2065C000984704E0002846D160781A2803D16088FAF728FA3FE06088FAF788FA022819D043
:2065E000032838D120896688012804BF6089032806D1E068827804213046FAF7FCF800E057
:206600001820F96900291CBF4B68002B23D00246042117E0218966880120012904BF618917
:20662000032907D1E268917821B9012210213046FAF7E1F8F96900291CBF4B68002B0AD077
:20664000024605213046984705E0B87A18B9608800210BF0F3F9217904F1080014F042FCC6
:2066600057E7A07818BB0121F974B9732022E11C07F1880013F09CFB202204F1230107F18A
:20668000A80013F095FB202204F1430107F1C80013F08EFBF86900281CBF4368002B06D0E8
:2066A000627806210020984701E00028D8D11B480078FF2802D0214612F096FE2CE76907D4
:2066C00016D5174A106880B1FAF71AFA04000CD0E07A50B90121E1726268A17A2089F9F78A
:2066E000D7FF606808B113F04BFD85F004000DE028070AD53178012902BF98F80000002838
:2067000008F0A8FE85F0080000E00020BDE8F087C73D0020AA0F0020741A00208D240020C6
:206720005C3D00202DE9F04F93B08146C08990468B46073086B230460EF038FA0746FF28C8
:206740000AD13046FFF70AFBB04205DA86480078002808BF052004E1DFF80CA29AF80000C6
:20676000F8B9B8F1000F04D0B8F1020F19D1FF2F17D199F80800002203238DF83C00D9F8AF
:20678000040000920E907948C188C0780DAA04F07FFC9DF8440089F81000BDF84000A9F85D
:2067A0000C00B9F80C1039B3B9F80E0020B3A1EB0008002505AEACB280B208EB0501324615
:2067C000001B89B22028A8BF202087B299F810003B4613F0D5FB1BFA85F130463A4612F0C3
:2067E0003AFB48B93D19B9F80E00A9B28142E2D30020A9F80C00B2E05C4C00210423E678CE
:20680000B4F8068012AA304613F0BAFB9DF848007E2805D130467C2110F0BEFF9DF8480056
:206820007C2865D1B9F80E7007F1070A18FA8AF0B0F5005F5ED8B9F80410C7F385120490D6
:20684000B9F80600BB0007EB08058DF8183042EA811289088DF81500C0F301208DF8161091
:2068600099F808101FFA8AF98DF81720B9F10D0F40EA81008DF8140042D23B480295594640
:206880003A46039300F11C05284613F0DDFF059805EB070B0022E8519DF818008BF8040055
:2068A000781D81B2284613F067FD05992A464B46E95196218DF81A10039913F0D9F9DDF8B6
:2068C0001700CBF80300304610F096FC2649049A087006EB460104EB81018A83E18851449A
:2068E000E180D0B3029881B230460EF067FE34E0012002E0DFF870A005208AF800002EE05B
:2069000058463946002213F037FD0DF114090522494612F03DFE96215A463B468DF81A106C
