:20000000003C01200D850100719001007190010071900100719001007190010071900100E4
:1C0020007190010071900100719001007190010071900100719001004DBA0000B1
:04003C0000000000C0
:2000400038B586B004468DF805104FF6FF720120ADF80220090ADFF8C05AADF8000002232D
:200060008DF806108DF8043069462A7820461BF0BDFC162803D1297820461BF0B3FC07B027
:2000800030BD3EB504000D461ED0DFF8900A006822461BF0A3FCFF2815D000200090002371
:2000A00001AA294620460FF0E3FB60B99DF8040000F071F9C00606D59DF8040000F06BF949
:2000C00010F0040000D001203EBDFEB5164615244FF6FF7290420D4615D100208DF804007E
:2000E000DFF8347A9DF80400F97988421AD23246294600F03EF800B100249DF80400401CE3
:200100008DF80400EEE71BF065FC50B100F09DFB40B99DF804003246294600F02AF80024DD
:2001200000E014242046FEBD7CB50D46044606214C43164620346A460821204619F074F89E
:20014000A8B900F078F890B99DF80700002E14BF054320EA0505E9B2814206D08DF807508C
:200160006A460821204619F073F8012076BD002076BD2DE9FC4106463446062388461546BA
:200180005C436A46082104F1200019F04DF800284ED100F050F800284AD100F028FA0400AC
:2001A00002D100F01CFA43E0397AE03689062246090E304619F038F8002835D1204600F039
:2001C00052F85FEA08000ED13A7A9206120E0021204619F005FE38BB3A7A920000212046E6
:2001E0001AF0DEFA16E0214600F02AF858B9280004D02146002000F023F810B900F00FFC4B
:2002000016E0A0F800808178A9420DD085700DB900210180204600F026F8397A8906224694
:20022000090E304619F014F800F0F9FB012000E00020BDE8F6810622FF21684619F0D0BD6F
:2002400070B5DFF8D4381D7A002200E0521CD4B2AC4206D231F824608642F7D101EB840096
:2002600070BD002070BD10B50021DFF8AC280AE030F82130DB4320F8213000EB8103491CB5
:200280009C78E4439C70137A9942F1DB10BD2DE9FE4FDFF884480646207A0F4691469A461E
:2002A00080001AF067FC5FEA000803D100F097F90A206EE00C9D02974FF0060B37461BFB0F
:2002C00007FB029A08210BF1200018F0C1FF8DF80400304600F09AF8227A00F07BF99DF85D
:2002E000040000904246217A8906090E06F1E00018F0AEFF009E02990643206A082200EBF4
:20030000C7001AF057FAF5B110220021284619F067FDC0B90299887900232A4600F001004E
:200320001BF054FB00281CBF9DF93C00002803D0DFF8EC17012008702A4610210BF1230060
:2003400018F086FF06435FEA090205D01C210BF1210018F07DFF06435FEA0A0205D01C2110
:200360000BF1220018F074FF06430D9A4AB110210BF1240018F06CFF06430EAA00F032F919
:200380000643A07D08B100F095FA40461AF0FAFBF0B2BDE8FE8FE0B5062358436A46082134
:2003A000203018F041FF10B99DF807000EBD00200EBDDFF86407007808210EF05BB838B5A9
:2003C0000025DFF8544718E0206A06236B4300EBC5022033082198B218F026FF58B1206AF5
:2003E0000622FF2100EBC5001AF0DAF9206A00EBC5010022CA716D1CEDB2E1798D42E3DB81
:20040000A07D10B1BDE8314054E231BDF8B5DFF80817DFF81037C9791E680C460A4600E0B9
:200420002A46D5B23DB1551ED2B2324412F8017C8742F5D12C46E4B220464D1E07E0171865
:20044000165C7F7817541A680244401C5670A8421A68F4DBAC4204DABDE8F840052018F0CD
:20046000F7BEF1BD70B50024DFF8AC5600E0641CE879E3B283420BD22B6AE6B20622FF218A
:2004800003EBC60019F0ACFC0028F0D0E0B270BDDFF89426117839B1DFF8880601680C78FA
:2004A000204600F013F8204670BD38B500200024DFF8645603E0E0B200F008F8641CEA793E
:2004C000E1B2914201D20100F5D032BD2DE9F84F8146CB46062313FB0BFB8EB00BF120055D
:2004E00001AA0821284618F09FFE002869D10622FF2101A819F074FC002862D100F077F88F
:200500005FEA000803D100F06AF80A205BE01C22FF2103A81AF044F93A7A00F05BF80BF1BC
:2005200023060AAA1021304618F07EFE60B91022FF210AA819F054FC30B99DF80A0001A90B
:2005400000F001001BF03EFA082200F03FF801AA0821284618F07CFE054603AA1C210BF121
:20056000210018F075FE8DF8000003AA1C210BF1220018F06DFE044603AA1021304618F039
:2005800067FE064603AA10210BF1240018F060FE824603AA00F026F89DF800100D43254366
:2005A0003543397A4AEA0505054389064246090E09F1E00018F04CFE054340461AF0E2FA7C
:2005C00000E0002528460FB0BDE8F08FFF2101A81AF0E6B89200FF2140461AF0E1B8042055
:2005E00018F0D4BB04210BF1250018F031BEDFF82875387A80001AF0BDBA2DE9F84187B07A
:20060000FF208DF80000DFF81055E8791AF0B2FA040003D1FFF7E3FF0A2030E01022FF21A7
:2006200003A81AF0BDF8EA79FF2120461AF0B8F80622FFF7CBFF03AA1021022018F008FEB7
:20064000064603AA1021032018F002FE06436A460121042018F0FCFD0746E97922460520C9
:2006600018F0F6FD054601AA0621062018F0F0FD804600F0D4F93E432E4348EA060008B0E2
:20068000BDE8F081DFF890144088097818F068BDF0B5A9B006460D4614461BF09BF908B9FC
:2006A0001420A6E0A422002168461AF079F8ADF80060DFF86464F078F17B279A8DF80400AE
:2006C0005208307C8DF8A0004B0801F0010040EA420222F0020203F0010342EA43020809AD
:2006E00022F4807200F0010042EA0022480922F4007200F0010042EA4022880922F48062D2
:2007000000F0010042EA8022890822F0040201F00101707C42EA8102279202280CBF012014
:2007200000200DF1260778741BF048F9412807DB707C00B108209DF8991008438DF899007F
:20074000F07CB8B10121B974202206F188010DF139001AF02FF8202206F1A8010DF1590012
:200760001AF028F8202206F1C8010DF179001AF021F800E0B874707B8DF8050090B1DFF81A
:20078000AC73102207F110010DF106001AF012F89DF89900082805D1102239460DF11600EE
:2007A0001AF008F8307B8DF8260030B11022DFF880130DF1270019F0FDFF307948B1022D61
:2007C00018BF032D03D1279840F002002790012100E000219DF899000143B0788DF89910AB
:2007E00000B1042001438DF89910684621461BF0E1F829B0F0BD2DE9FC41154615244FF607
:20080000FF72904288460ED10027DFF80C63F179F8B2884216D22A464146FFF785FC00B196
:2008200000247F1CF3E71BF0D5F850B100F00DF840B99DF804002A464146FFF775FC00243D
:2008400000E014242046BDE8F681002100910023417901AA01F00101801D0FF009B870B54F
:2008600004460D4606204543082B88B0164603D1300758BF223500D521351C220021FFF76D
:20088000A6FE01AA1C21284618F0CEFC80B99DF81E00C01F0A280BD29DF830000090F20863
:2008A00001AB02F0010206F0010120461BF07EF808B070BD38B51BF075F80024964D0FE078
:2008C000286A0622FF2100EBC40019F089FA28B9286A00EBC40100201BF060F8641CE4B247
:2008E000E8798442ECDB31BDF0B5924D0646686885B04FF6FF7438B9009502238E4A2146A5
:2009000001201BF047F86860696819B30222FF2002920023039001930DF112072A88009786
:2009200004AB304606F000FF60B99DF810009DF8111000EB0122100004D068684189304627
:20094000FFF7C3FB2A886868002321461BF01EF8686008B9012000E0002005B0F0BD3EB5B7
:200960000C46002501460095002301AA20460EF07FFF38B99DF80400FFF70DFDC00601D44F
:2009800001203EBD00203EBD2DE9F0416B4F3C6806468846154603E02089B04224D0246808
:2009A000002CF9D10C201AF0E5F8040019D0268184F80A8000202060E07245B10821284615
:2009C00019F0D2FB606018B900F029F80AE06060396811B93C6004E0014608680028FBD15F
:2009E0000C600CB9152018E01AF0CCFF08B1002013E00120E0722A4641463046FFF748FEDC
:200A000004464548C06900281CBF4368002B03D000220021304698472046BDE8F0812046B0
:200A20001AF0B0B838B505464448046803E02089A84204D02468002CF9D1012032BDE07ADE
:200A4000012807D100F05CF820B13348007804210DF010FDE17A491CE1722846C9B200F072
:200A600002F8002032BD38B5022904462A4D02D003290DD01EE042F6C921FFF7E1FA0200C6
:200A80001CBFE869002818D04368B3B105210CE042F6A621FFF7D4FA01001CBFE9690029DF
:200AA0000BD04B684BB102460421204601B0BDE830401847BDE8324000E031BD10B51F4AA1
:200AC0001468002101E0214624686CB123898342F9D1206800290CBF10600860606808B178
:200AE0001AF050F8FFF79BFF002010BD024604201249096819B10B899342FAD1C87A7047F8
:200B00000E48006828B1006818B1C17A0029FAD17047002070470000B41C0020680F0020C9
:200B2000AB4400203C440020AA4400202042002050420020E843002014DF010040440020E1
:200B400038B584B004461AF045FF0622417901F001018DF80E10811D02A819F02BFE0020CA
:200B6000009000239DF80E1001AA02A80EF080FE9DF80400FFF7AAFC0546052120461AF028
:200B8000FDFE284605B030BD96B0DFF89047211D204614F057FC04F114001AF058F8DFF821
:200BA0008097DFF88017A060002504F1240041F2883200230990CDE9005914F0EBFCDFF8F8
:200BC0006807DFF86817DFF868A70022152300901020D047DFF85C171020002202234FF039
:200BE0000208D0470EF0B8FADFF84C17102001220126D047DFF8441710204FF0FF32D04770
:200C000018F096F94FF0FF3014F030FF0320DFF830778DF850608DF8288001218DF82C00C6
:200C200004208DF82F0005208DF83400DA480C9014AA0020B8470AAA01200121B8470BAAB8
:200C400002200121B8470DF12F0203200121B8470CAE042005213246B84709F1080019F058
:200C600027FDDFF8E01609F10C021020D0472178DFF8D4965020C847DFF8D01602461020A6
:200C8000D04721785020C847DFF8C41602461020D047DFF8C0161020FB2240F64803D04753
:200CA000DFF8B4161020D0474FF6FD7015F0B6FB21785020C8470346DFF8A006DFF8A01679
:200CC0000422CDE900801020D047DFF89806C02119F08AFDDFF88C064FF6FF71C02D02D0AE
:200CE00041531835FAE74FF0FF3000214FF0000914F044FEDFF82816DFF86C3600224860BD
:200D0000002119F002FCA548DFF8A0B68246606800214FF040424FF0FF330CF00DFF00287E
:200D2000F5D08046CDF828900BA80DF12F010AAA17F0ADF9002840F03982BDF82C0010283D
:200D400040F02F8220789DF82F10814240F029820A9F4FF6FF703988814200F02382080A20
:200D6000C9B2912900F0B080B02900F0E980D02940F01782B978072900F2E880DFE811F0A7
:200D80000800110211021102110210015101A201002840F00682B879F97A0025ADF8535008
:200DA0008DF85000B7F807008DF857100821ADF85100B7F80900ADF85500002014AA0DF010
:200DC000E7F8DFF8C4358020DFF8C475DFF8BC154FF0000958604FF480703A465D7598608F
:200DE00007201873601C00901AF059F9000640F09282DFF8A01530461F221AF04BFADFF826
:200E000098551F2062780023CDE900061020294611F05EF9000640F07E821C20627829463B
:200E200001230090DFF8740501901AF038F9000640F071826278DFF868151020922311F0A5
:200E400047F96278DFF8381519F0A4FF000640F06282A01CDFF83415DFF848353A4600904E
:200E60001AF01DF9000640F056820B20A278DFF8281500230090DFF8300501901AF00FF989
:200E8000000640F04882A278DFF814151020922311F01EF9A278DFF8E81419F07BFF0006C5
:200EA00040F0398217F0D0FDDFF87404012140F6B83200230130CDE90010DFF8681404F180
:200EC000480014F067FB6CE13E284ED00F2852D010285CD00E2840F06481B88841F20541D2
:200EE000884240F05E81B8680178002940F05981C778B0F8010018F0EBFC072800F2518183
:200F00007F2F00F04E81DFF85C1400EB4000052301EBC0056A7C511C697405F10C018F5403
:200F20006A7CB2FBF3F303EB8303D21A00236A740022052A00F0EA808F5601323B44F8E7B6
:200F4000397907F108001AF015FD2AE1112940F02881B888ADF83000B87B8DF83A0078899D
:200F6000002800F0C3800020CAE0B8780C2840F018810C2007E0B88842F23201884240F06B
:200F8000108142F2320039460FF004FC09E1082000210BF039F804E10102030440E201006B
:200FA000DFF8D413102011F093F805467878002840F0D3807F89002000F11801D82900F0AE
:200FC000C980DFF8A023105A4FF6FF7290420846F2D1DFF8900308954518032025F8187CF3
:200FE0001AF0B8F8002845F8140C00F0AF800821017055F8140CA0F8017024201AF0AAF893
:20100000002845F8100C00F09D8055F8141C01220023CDE90021C34941F2707214F0BAFACF
:2010200094E0D549102011F053F8BD888146284618F04EFC08283ED0CA49074600EB40000D
:2010400001EBC0008068C0B1CDF8209081461AF0E5F810B148461AF0E5F848461AF004F99D
:2010600048461AF071F8BF4907EB470001EBC00040681AF069F8DDF82090284617F030FF46
:20108000284618F025FC082880F045812F460546FF20BA4900220123CDE9000719F0FFFF67
:2010A000B04905EB450001EBC0000021C175C174384615F0B3F95FEA096054D109981AF019
:2010C000B1F850E0BA88AA491020334611F000F804F10C0018F086FB002862D005460089A8
:2010E00010F09AFA28461AF02FF85AE0ADF83690D7F80600CDF83200B889ADF8380001200D
:201100009C498DF83B001020324648E019B205222F4691FBF2F117F8132F002A07F8011CED
:201120003FD1C9B24AB212F11E0FC0F2A680297D41F00201022934D04FF0000C02224FF069
:20114000020EB7E055F8140C19F0FEFF012005F8040C089D09981AF063F815F0F80F15D1AA
:201160006F48807890B9864F62780025102000230095394610F0ACFFA278102039460023A5
:201180004FF00009009510F0A3FF0AE07D4DA2781020294610F09CFF62781020294610F04F
:2011A00097FF0A9F17B1384619F06DFF5FEA48007FF5ADADA06819F05FFE00287FF4A7AD79
:2011C000A06819F0CBF80028F4D007460078013808284AD8DFE800F0054915491E3C470FEC
:2011E00028007868007810B102283ED10220314615F0DCFE39E07868B0F8010010F00CFA55
:2012000037E078680168B1F1004F2ED0406819F09BFF2AE0786859460023C2881020CDF849
:2012200000A010F055FF20E078684588284618F04FFB072819D84B4900EB400001EBC000C2
:20124000C07D90B15A4910202A4610F041FF0CE00220314615F0AAFE38B9032001213246AD
:2012600010F0C2F801E017F0EFFB786808B119F06BFF384619F068FF9CE7D82909D3297DE2
:201280000229FFF48EAF4FF0000C01224FF0010E10E0CE2909D3297D00293FF482AF4FF002
:2012A000010C4FF0040E062204E04FF0040E02224FF0020C2B4613F8151F914203D1A97D85
:2012C00001293FF66EAF2749CDE904ECCDE9063231F8300008900C2019F03CFF80B10146B5
:2012E0000898088104F11C0018F096F804981F49089A0023CDE900000598029019F0CFFE9A
:20130000069A0120079938701078884218BF85F81690117045E719F05BFC00BFB0200020BC
:201320008C2600202D73010074260020FD430100D1200100AD7001007D960100297701007A
:20134000E913010031970100CD8A0100D96C02102D6D02100D520210397F011028280020C2
:2013600089AB00006839002084D30100194E0100F9DC0110D957011065A70100952B0100C3
:20138000ED74011065020210EC25002099010110E58D01002CDC010011D3000040260020A0
:2013A0001DEF011008260020BC270020A58401000D2B02102DE9F84F012016F089FD012818
:2013C00016D1DFF89476387800211AF0CFFA040004BF002017F0DAFC00202072201D0FF0EF
:2013E00089F905F0BDFA050003D181201AF0BAFA2EE301206871072013F02BF9DFF85CA655
:20140000DFF85C269AF80100401C8AF80100A879A0724020397811700DF06AFC2860616D83
:201420004A78206DD10620D5816C0A681179032908D0816C0868007903280CBF0120002097
:2014400017F0A4FC206D816C0A6890F86C0002F1080601281CBF002017F098FC216D486F00
:20146000296800F5B060C8604EE0416F0A681179032908D0416F0868007903280CBF012020
:20148000002017F083FC206D416F0A6890F8A00002F1080601281CBF002017F077FC216DA2
:2014A000B5F87431D1F8A8002968DFF8B825C86096F82670DFF8B005032F1FD8DFE807F065
:2014C00002061014CA6802F5B06202E0CA6802F53472CA6005F59A7201881187038811E027
:2014E000C86800F5355002E0C86800F6B870C86005F59A7011880187138803E0C86800F522
:20150000B060C860A5F8743106222868DFF85C75C168DFF85C9501F5B471C160B11C30784F
:20152000C0F3801085F82E0105F12C0805F5947019F040F9042206F10E0105F1240019F003
:2015400039F9386895F806C000F10C03042206F10E0103EB4C1019F02DF9032206F1120192
:2015600005F1280019F026F93868AB7900EB4313032206F1120103F1100019F01BF9707DE3
:2015800088F80200022206F1160105F1300019F011F9022206F1180105F1320019F00AF9F6
:2015A000022206F11A0105F1340019F003F9B8F808006884022206F11C0105F1360019F0B5
:2015C000F9F898F80200B8F80A10400088F802000901B8F80400A8F80A104000A8F80400A0
:2015E00089B2B8F806004000A8F8060003046A8C521CDB0B5A438A4201D280B230B999F8DB
:20160000000080210CF036FF3B2124E105F12E0128461AF0A3F90520A88128461AF09AF905
:20162000052206F11E0105F1610019F0C3F896F82300400988F800001AF088F9688205F569
:201640009A72618D401AD08005F1610196F8230000F01F0088F80F0028461AF073F9616D8D
:201660004A78206DD1064CBF816C416F0868DFF804640021017141F62101AA7930685201F3
:2016800000238152A97900EB411253800022A97900EB41104260616DDFF8DC034A78D106E2
:2016A0000DD5DFF8D8138A7851060AD5DFF8D023138841F20A418B4208BFDFF8C803C5F878
:2016C0009C01D5F89C11284688473268A97902F10E03490158543068A97900EB41120020E8
:2016E000D0733168A87901F10E024001115C88F80D10606D4178CA061AD595F8960108B976
:2017000017F044FB3068A97900EB411295F89601411E11743268A87902EB401100224A74AA
:201720003068AA7900F1120152010020885229E03168A87901EB4012206D90F844101174AE
:201740003268A87902EB4011206D90F845204A743168A879CC4A01EB401110780EF03AF992
:20176000226D92F8443005F5CB71012003F0030398400870226D92F84400800814BF012063
:2017800002200871A87931683B68400101F11402034413503068A979DFF8F0B200EB4112ED
:2017A000BB489061DBF814000078C1074CBF1F200F20DBF8141009788A0748BF40F0200035
:2017C000DBF8141009784A0748BF40F04000DBF8141009780A0748BF40F080003968AA79C5
:2017E00001EB421318723868A97900EB41120B2050723968AA7901EB42100421A54A817228
:201800001078012806D13968A87901EB40120121D17207E0DBF824003968AA79407801EB95
:201820004213D8723968A87901EB40121F2111763868AA7900EB421100204876A8790DF045
:2018400073FBAA79396852018850AA7939685201885820B90721284617F0AAFCF8E08E486A
:20186000AA79016801EB02101AF068F8A8793968894B01EB4012196801EB00105060A97951
:20188000386800EB41125168C8F83C10AA7952018158C8F84410042199F800000CF0EAFDA9
:2018A000616D4A783068D10648BF022109D4A97900EB4112137C03F00303022B14BF042115
:2018C0000621B8F8042095F806C04FF4C8738A18698AAA615143B1FBF3F35B1C6B6100EB48
:2018E0004C10D5F800E0DEF80CC040F6C41101FB02C2D21AA2F5A86282603068AA7900EB5D
:2019000042139A682B689A6000F10C03AA7952010C309B5C03F0EF038354A8793268400182
:2019200002F10C030C321B5C03F07F031354A8793268400102F10C030C321B5C03F0F0037B
:2019400043F0020313543068AB7900EB4310427B02F0F00242F0010242733068AA7900EBBD
:20196000421398682A6810613868AA7998F802C000F1140368694000520111FB0C0000F581
:20198000F660985095F8960104280DD13868AA7900F114034FEA421C143053F80C20AB799A
:2019A0005B0102F56162C2503868AA7900F114034FEA421C53F80C20C5F83421AA7900EB06
:2019C0004210C37C03F0F00343F00403C374DBF830003A68AB79006802EB431CB8F80620CC
:2019E00042436423B2FBF3F35943A1F59661CCF81C103868A97900EB4110C27E02F0F0020D
:201A000042F00402C2763068A97900EB41122868426095F8FD10080703D50E21284619F005
:201A200089FF1E49072008702046AA798AF8022015F02EFF1A488178880704D5AA790021B2
:201A4000204619F073FF28681649174A41618261BDE8F14F19F0F6BBD50F0020780E002087
:201A6000D70F0020900F00208E0F00209C0E0020C70F0020980E002081010210C00C0020DE
:201A80009A0F00204DE50110CA0F0020B4D90100980C0020CC0F0020A40E0020C80F00202B
:201AA000200E002049C60000020480802DE9F04F054687B0A978DFF8E066002710294FF00F
:201AC000060A3CD8DFE811F0110063036303630363033C00CC0063036303C7021201FD00C4
:201AE000180363039902DE025B036878002826D119F018FF044619F011FF054619F00AFFAD
:201B00008DF8000022461021022017F0A1FB2A461021032017F09CFB6A460121042017F083
:201B200097FB9DF80000012818BF032807D1012019F0ECFE02460621062017F089FB26E33E
:201B400068780028FBD195F80CB06C8900900023E97801AA01F00101281D0DF089FE0028D0
:201B60004FF0010872D19DF80400FEF714FC8146BBF1080F08BFB846307A800018F0FAFFC2
:201B8000050003D1042017F001F900E3707802280CBF0120002000905B469DF804104A46DC
:201BA0002046FEF75CFE1422002102A818F0F8FD9DF804001AFB00F002AA1021243017F09C
:201BC00033FBA8B91022FF2102A818F009F978B99DF804001AFB00FA06AA04210AF12500A2
:201BE00017F022FB02AA09F00101204619F08AFE317A9DF8040089062A46090EE03017F0B2
:201C000013FB98B92846FEF72EFBBA4609E005EB8000018819B18278204617F0B9FF0AF113
:201C2000010A317A5FFA8AF08842F0D3B07A30B95FEA897003D53178204617F091FA9DF82B
:201C40000400FEF7E3FB284618F09CFF7078022805D1B8F1000F02D0204612F00DFF96E23E
:201C6000A888FEF72BFF19F049FE0028F7D1F07D012808D1FEF719FCF279706AF77500218A
:201C800018F08EFD17E0307E012803D1FEF7B5FC377610E000240AE0706AE5B2415D012985
:201CA00004D1E0B2FEF712FC716A4F55641CE0B2F1798842F0D3502018F00AF8FEF77FFB49
:201CC00065E219F05FFE00280CD0F06900281CBF0468002C07D0286900906B7B2A7B6989EA
:201CE000E81CA04752E26889012145E268780024002840F0DA80A879C10740F1D68008223B
:201D0000002105A818F04CFDA88819F063FE040000F08E806F694FB30622002107F11100DC
:201D200018F05EF868B310220021384618F058F8D0B9387C00F001084FF0000909F101097F
:201D400087F811900020009000230022414607F111000DF08DFD00285FFA89F002D1002862
:201D6000ECD101E000280CD1002068610622607900F001008DF81A00A11D05A818F01AFDBC
:201D80001FE06F69EFB1387C00F001008DF81A00062207F1110105A818F00CFD6079012896
:201DA00005D10622A11D04F10C0018F003FD062207F11101A01D18F0FDFC387C40F0020088
:201DC0006071A879410720794CBF40F0020000F0FD002071A9790A0754BF00F0DF0040F030
:201DE00020002071A9799DF81B00DFF8B083890801F0010108438DF81B004FF0FF09A9797E
:201E0000C90801F0010140EAC1008DF81B00FF2469691E2779B31022684618F0CBFC10212D
:201E2000684619F067FD4FF0000BDFF874930CE0FEF766FE0028D5D0307804210CF01AFB6F
:201E4000D0E70BF101005FFA80FB99F80000834510DAD8F8001007FB0BF00A5CFF2AF0D08B
:201E6000084400F10D011022684618F06FF90128E7D15C46A1460020009000239DF81A10CB
:201E800004AA05A80DF0F4FCB9F1FF0F5DD034285BD1707D30B3012857D1A888052119F00D
:201EA0006DFD0124A888FEF709FE68780B2804BFA888FEF745FEF06900281CBF4368002BF7
:201EC0000FD06A78A888012198476878002808D1A879C10705D5F369A88822465C68032190
:201EE000A0474CE1D8F80000002117FB09F90091002310F80910401C04AA48440DF0B8FCAD
:201F000018BB9DF81000FEF7E1FAF0B9FEF757FAFEF7A8FA8DF81000E86800280CBF0021FA
:201F20000169002201900392029105A9686900902B69AA689DF81000FEF7A9F90446A888F1
:201F4000FEF7D2FC200046D14BE00020009000239DF81A1004AA05A80DF08AFC20B1FEF726
:201F600081FA8DF8100019E06869B8B19DF810001AFB00FA6A4610210AF1230017F054F917
:201F800060B91022FF21684617F02AFF30B99DF81A0005A900F0010019F014FD9DF8100002
:201FA000F179884227D2E86800280CBF00210169002201900392029105A9686900902B69A8
:201FC000AA689DF81000FEF762F90446A888FEF78BFC200005D09DF81000FEF777FAFEF70F
:201FE000EEF9200008D1707A0028A8887FF45BAFFEF718FD59E7152454E7687806281FD186
:20200000A88819F0E7FCD8B1317D491E032917D8DFE801F0020E08134179A8880022FEF707
:20202000B3FC0DE00022002140F2094003F042FAA888052119F0A2FC02E0A888FEF780FD96
:20204000F06900281CBF4368002B03D06A78A888022198479AE000970023E97801AA01F036
:202060000101281D0DF004FC0028F3D19DF804001AFB00FA05F10C0204210AF1250017F038
:20208000E7F883E0F06900281CBF4368002B03D0A888002200219847707810B9A8880521A0
:2020A0006AE0A88819F096FC040070D0A87AC10712D5009700236179002201F00101A01D90
:2020C0000DF0D6FB00281EBF60790028012803D0E868C0F3402028B1707C022807D1A87AE4
:2020E000010704D4A888032119F000FC4FE06179A88805F1080227E02F7BAD88284619F011
:2021000069FC040042D019F03DFC00283ED100900023617901AA01F00101A01D0DF0A8FB43
:2021200028BB9DF80400FEF736F907F00C07042F11D0082F0BD00C2F0FD100F00901092988
:202140000BD0617900222846FEF71EFC1EE010F0090F02D1F5E7C107F3D501220092A37C02
:202160009DF8041002462846FEF779FB0EE070780028E6D10521284619F0B8FB06E0FEF7B7
:20218000BFFC18B1307804210CF074F90127384607B0BDE8F08F00BFB41C0020680F0020BE
:2021A000A54400202DE9F04F85B00D460295044615F8011B8DF801100022DFF8E8148878A4
:2021C0008DF8002004F1660B18F08CFC01902C219DF80100DFF8D024032804F1F40604F512
:2021E000B07A04F59C7704F5C87804F2171900F0E180072800F01582082818BF092811D02A
:202200000C2800F0D9810F2811D0112800F04681182800F094811A2800F059811B2800F0B4
:202220007E811CE22946204611F040F817E2707ADFF8788481070AD40F2089F8020020465F
:2022400019F050FB002872D198F80000DEE12878697800EB01223A82A878E97800EB012296
:202260007A822879697900EB0122BA82A879E97900EB0122FA82287A3876697AA87A01EB47
:2022800000227A83E87A297B00EB0122BA83687BA97B00EB0122FA83E87B297C00EB012226
:2022A0003A84687CA97C00EB01227A84E87C297D00EB0122BA84687DA97D00EB0122DFF805
:2022C000F003FA8401788A0658BF4FF01A0A13D504F5AA700490798B0391387E02902189F1
:2022E0000191F88A0090BB8A7A8A398A204619F0F5FAE8B14FF01E0A707A41070AD40F2091
:2023000089F80200204619F0EDFA00280FD198F800007BE152460F21204619F0DBFAF88A62
:202320000090BB8A7A8AA179504613F087F974E104F18600798A81800023BA8AC2800222F0
:20234000F98A018102704380A18EC91DABF81E10628E8188B1EB520F02BFC188A28E91425A
:2023600002BF0089E18EB0EB111F21D09BF81000012804BF9BF811000F280CD09BF81500FA
:2023800000281CBF9BF811001A2804D00F218BF81A10FE217EE0FC21204619F0CBFAF88A53
:2023A0000090BB8A7A8A398AA07919F08FFA34E110216FE0707AC10709D431781A200129A5
:2023C000707002D1FF220D213DE00D2162E000208BF800008BF806000122327129460822E3
:2023E00004F1B00019F06EFA0146022204F1B80019F068FA04F1A80501460822284619F0BA
:2024000061FA07460821284619F074FA04F19C0504223946284619F055FA0421284619F069
:2024200069FA04F1A00019F049FA04F1980019F041FAA048018841F0800101803078012812
:2024400005D1FF220421204619F030FAE5E09BF811600F2E18BF142E07D00E2E18BF0C2E84
:2024600003D01A2E18BF162E13D19BF81070204619F018FA0421204619F05CFA012F06D1BD
:202480008BF81A601A2E14BFFD21FB2102E0314600E00421204619F04DFABEE028788AF816
:2024A00000001A286B788AF8013040F0D8801068A679431C4E4300209855A379126811FB86
:2024C00003F111440871A1799AF80100C0E0A77910682E784F43074406F01F0317F8210F7B
:2024E000B60938B17878F040C00703D598F80600042805D120221A21204619F0EBF98CE0A1
:20250000FB701068A27911FB02F10144204681F82360002118F058FE0028F0D174E0A3793F
:2025200010684B430344D88808B900265E701068A27911FB02F10144002008716DE069789B
:202540002878884204BF084010F0070F6DD19BF81100162806D198F80620A17913460020B0
:202560000BF022FF022088F80200012101984177012398F8060098F80A1088F80000BAF892
:202580001C2019F08BF9BAF81810814209D3BAF81C2098F80A1098F80000012319F07EF92D
:2025A0000146AAF82E10012198F8080040F0400088F80800397030E0707E012810D015F885
:2025C000011B31770222294604F5897019F07AF90146022204F58A7019F074F9012070765B
:2025E0009BF8060030B93D21012289F8011089F8002012E0F07E002804BFB07E00280CD127
:20260000204619F047F930B9284800784FF480410BF030FF01E00120F07601218DF80010ED
:2026200021E028780F2816D01A2818D1A07913684843184400234370A079126811FB00F1D0
:2026400050180371F07A00F0FB00F0721A20A1790EF0D7F9E1E7707A00F0FD0070722046DE
:20266000029919F013F99BF811001A2815D19BF8120017281CBF1028FC280ED19BF81060E1
:20268000204619F00FF9012E03BF1A208BF81A00FB211A21204619F04DF99DF8000005B0A5
:2026A000BDE8F08F780E002018440020C70F0020200E00209C0F00202DE9FE4F04460020F8
:2026C000009080460CB916F061FB04F1500A41F62300DAF800603080A6F802800222327309
:2026E0007273694620460CF059F808B9072040E2009901B1B060B0682061DFF87C040178C5
:2027000084F8C010DAF80400407A14F06DFB25302076B07386F80F80DAF80410087D0228C1
:2027200004BF002016F032FBDAF80400007D012802D10020002104E083280CBF0620022051
:202740002021307404F124077174314678790DF041F9DAF80400417848060AD5607DC10690
:2027600004D5E07F40F04000E07702E040F04000607506F1600504F1300085F804804FF072
:202780001E09B97E890001F0040129713067607DC10654D5DAF8042051788A060CD500F03E
:2027A000FE006075DAF80400417811F0030F03D1E07F00F0FE00E077607D19F063F8A075D6
:2027C0000023307CA27DC0F38001521C00F0030019F054F8A0831E20A18B01F59B7292FB04
:2027E000F0F009FB1020C0B208B1C0F11E00411801F59B7161831E20A18B01F596718AB2E9
:2028000092FBF0F009FB1020A183C0B208B1C0F11E004018A08380B2E27D618B521E5043FE
:202820004018608306F13408608BB4308000B0660620E871E17F41F00801E17720E040F024
:2028400001006075DAF804104A78510744BF40F002006075607D19F015F8A0750023307CC1
:20286000A27DC0F38001521C00F0030019F006F8A083A08B00F59670A0830020B066E871A2
:20288000A17D207D61F3050006F19001207508700322607D48708A704FF0000BB87E8000DB
:2028A00000F0040040F003008870FA7ED20002F00802104388700020C8700021C6F8981089
:2028C000B88BC0F30B00B883DAF80410CA7D40EA0230B8830022617D01F0FE0120460BF0A7
:2028E000E9FA019617E004EB4B160199202206F1640017F05FFF06F16C000521017106F189
:202900006401A28B9200026078790DF063F80BF101005FFA80FBE07D401E8345E3DB019E37
:2029200020460FF099FAE07D012809D014D3032809D03EBF04F164007060CAF818800BE0EA
:20294000C6F8048008E004F16400706004F18401CAF81810CAF8388041F62400B086002194
:20296000F18606F14008B068618B00EB8100F0630221822088F8000088F80110002194F85B
:20298000210088F8031000F03F0088F80200DAF80400807D012818BF022803D100F07F0092
:2029A000401E04E083280CBF06200220202188F8040088F80510DFF8C4B1DBF83C004169B8
:2029C00008687A7902EB82028118D1F80100A8F8060000207067DAF80410487810F0030F6B
:2029E0001FD018F047FF7067DBF818000078C1074CBF1F200F20DBF8181009788A0748BF0B
:202A000040F02000DBF8181009784A0748BF40F04000DBF8181009780A0748BF40F08000DE
:202A2000287600206876DAF80410554A897C01F003016976B87E800000F0040001436976CF
:202A4000F87EC00000F00800014341F010016976107828B1287E00F0FE0041F040012876DE
:202A60006976E07F18F00EFF84F82000204618F0FDFEE07FC10636D5DAF8040094F820202B
:202A80004178521C88074EBFD21EF87F121898F80400C0F380010023D2B200F0030018F078
:202AA000EDFE3880388800F59670C0F11E0190FBF9F009FB001987F80490DAF8041048789E
:202AC00081074CBF00204FF49B703988401838807880F06B39883A795218A63200EB8200AE
:202AE000F067022001E00020F067E87604F13000C6F8880006F18C00DAF804104A785107B9
:202B000006D504F138020260687E40F0200006E01C490A6851680160687E00F0DF006876A9
:202B2000A17F94F8200060F30501A17740F60B00A8F814000021A8F81610DBF838000088E9
:202B40008000F065DBF83800008800B1072028700220687094F845106980DAF8040041784A
:202B6000880744BF01216980009808B10AF046FC0020BDE8FE8F00BFA1440020B4D9010087
:202B8000880E00206C0F00202DE9F84305460C46480413D4A00024D4A0075CD460057ED49D
:202BA000200500F10681200700F13B81600040F1F68011F0F7FA24F08044F0E018F0B4F84F
:202BC000DFF81C140F6D3FB1D7E90A1202F0E04201F00A01891849D018F04FFA24F48044AF
:202BE000DDE0BB48DFF8FC73016841F080010160B878012804D1042015F0CEFA0020B870EC
:202C000018F092F80646042018F0CAF8DFF8D8130A68904219D12A7EBAB1FA68AAB1DFF851
:202C2000C003806C002800F09780C16840F603020988914206D0C06840F604010088884263
:202C400040F08A8005F1140088E040F6C4120860C5E9042284E007F06BFCDFF88403006CF4
:202C6000002840F09D8024F0020498E0D7E90A65D7E90A12AA43B143C7E90A1218F0FDF997
:202C8000B8680028AAD056EA0500A7D0D7F808C03869B7F9301032462B46E0479EE718F0F1
:202CA00043F8054616F05AFC002800F0B780CC48876B002F00F0B280DFF828830420CB49D2
:202CC000002288F81800C64817F035FC18F0EDF9C74818F0C6F9C7480068006B8047C8F8C7
:202CE00010000125042088F8025015F0EBFC386990F82810C8F80400490703D5436A04219D
:202D000000229847012012F039F9D8F8040045760DF0B8FAD8F8040081680B461A465B68EE
:202D20004BB11E88A6F60306072EF7D805FA06F616F0830FF2D0537B03F0F0030133537345
:202D40000023FD6853602D88A5F60305012D00F28A80C8F810309FE005F1100013F06AFEC6
:202D6000304618F08AF915F0C5FC78B12E6A28466FF4807100224FF00073B0479848806B73
:202D800010B111F00FFA01E044F00204EE692846002100224FF08063B04724F0005434B1DF
:202DA000974821462830BDE8F84318F02FBABDE8F8838C4EB078012804D1042015F0ECF976
:202DC0000020B07015F096FC38B170686FF4807100224FF00073056AA847306950B185486E
:202DE0000068006B804732697168801A000BC860002030617A4D81490022284617F09BFB89
:202E000002203076286C20B17D480221283018F0FDF911F0C7F924F40064C0E718F045F91D
:202E200041E017F081FF054616F098FBA0B1DFF8B48198F8000000070ED498F90000002877
:202E40000AD468460DF066FB08B1009820B1DFF8B49199F8610048B318F027F911F0A2F999
:202E600024F008049BE7034633F8385FA5B190F8445090F8456005F0F00580F8445006F01A
:202E8000F005013580F8455000255360C5634587507B00F0F000507357480022C26101607B
:202EA000012016F0E5FD24F4806478E700260127602E0FD009EB0600817A31B18772407A69
:202EC00007FA00F0C0B215F081F92036F0E700BFCC210840032088F81800454818F0C1F8E6
:202EE00018F0E3F8444F3E4D0022786900207861F968F8602846444917F01DFB3D48006815
:202F0000006B8047D8F80C10D8F82020411A02EB1130B0EB113F38BF4FF0FF3098F82410E6
:202F2000C8F8200021B1D8F80810B0EBC12F20D916F0AEFDB8B140F60900414621F83C0F2F
:202F4000002048804A7B02F0F00201324A730A7B02F0F0020A734860F8613960B8F83E0082
:202F600010F4406FFAD00020C8F82000012088F8240013F0BFFA2548002101600220002121
:202F800016F076FD022015F007F910200CF062FB98F8010020B9D8F80400503018F032F917
:202FA0001B48807810B90D200CF054FB98F8250028B1002088F82500052015F0EDF80020F3
:202FC00088F818001348C8F81C000220B5F85610B5F85420914208BF072010F0C5FB3DE727
:202FE000242300201C210020FC24002039950100783F00208C0100100010044059CB000012
:20300000C0220020C03C00200942010000000460B4DD010041C500002DE9FE4F0546DFF8C5
:203020002C04DFF82C640278002A4CD0052A73D0062A00F08080072A18BF082A00F0F58008
:203040000A2A00F0D681112A02D0132A70D0F4E1DFF800341878002118F088FC04001EBF6D
:20306000606D407810F00C0F2DD0216DC0064CBF886C486F016801F108050622A91C6846A6
:2030800017F098FB287800F00F0105291BD145096946C0F3801018F0E5FB002813D0316810
:2030A000684618F0DBFB0746316804F1380018F0D5FB87420DD0606D4178C80604D440F295
:2030C000014018F0C7FBBEE1607B40F002006073B9E133681E2010FB07F698190622694663
:2030E000C01D17F067FB606D4178C806F0D5A17B0129EDD1DFF860038178480605D5E90722
:2031000003D4206D41F20A4102E0206D41F2044141804183418696E118F052F80028FAD1DE
:2031200010F054F8012802D0012018F08FFB8AE112F05DF987E1DFF82453286818F082FB07
:203140000400F7D020790328F4D1207A00F00F01072937D1C24800684169497A4A1E1142AF
:203160005CD0617A04F10A035A5C02F03F02252A54DBA17A8A09012A50D111F03F0F4DD079
:20318000007C17F003FBE17ACA074CBF04F1110204F10B028B0748BF921D0B0748BF921C5E
:2031A000C90648BFD21C1278520916214A43AD498B180A31EB608A5A428699898186DA894B
:2031C000C2862BE000F00F00082827D1A17A880924D119B3A2480168087C17F0D7FAE17AFE
:2031E000074688071AD5062201F001015143601800F10C01684617F0DDFA207AC009694641
:2032000018F030FB50B1306800F10D01684618F015FB18B90521384615F0CAFF2079032816
:2032200002D0002015F0B2FD03E1DFF83CB29BF802000024FF281BD017F0A8FA804608F10C
:203240006C09D9F8040018F0FDFA2A460179032901D011000CD08368197801F003008D064E
:20326000009003D50124009818B9BFE01000FAD0E9E05D7803F1020A34B31AF8010B7B4B76
:2032800001902C2098F806C01F6810FB0CFC67444FF0010E87F805E0002A1F6898F806E0DD
:2032A00007F11A0C019F10FB0EFE07F01F070CF80E7098F806701B6810FB07F01844019B17
:2032C000C3F38113C3761AD10098032808F217171AD0ADB199F8000068B108F1F40002783C
:2032E000012A0DD1594B1A78072A04D0082A04BFC078012804D13D21797001203870A2E0CD
:203300005B4A1378012BFAD098F8940070B32D1FEDB253462A4640460EF0DEFD00281EBFE8
:2033200054490878002807D13D21797001203870306818F07FFA86E04F48016888470646C6
:2033400098F80610DBF804204FF4D07041435018002280F8412108F59E70016880794908A7
:203360000FF008FA45490A6830469047009803281ED043494869007882070DD598F894000A
:20338000002814BF281D28464A691178CA0748BFC01C1AF8000000E0812089F808002A4603
:2033A0000098C3B29BF80200514605F005FB1DE09AF800001CB11B2804BF022D01251C28E4
:2033C00003D230490B5C9D4205D0B8700721404618F0B0FA0AE01D480178082951464046E6
:2033E00002D117F0ABFE01E0FEF7DCFED9F8040020E0254C207830B3244D286818F022FAB4
:2034000008B3017903291ED1017A8A0611D5807AE178C0F38112914202BF217900F01F0095
:20342000814206D1A078002801BF607800280121A170286818F0FAF905E0002015F0A6FC88
:20344000862018F08FFABDE8F78F00BFC80F0020680F0020D50F0020C00C0020BC0A0020E7
:20346000540F0020E0070020780E002018440020D20F0020A6440020A4260020A8260020BD
:20348000B4D90100A0DC0100A0430020AC0C00202DE9F04F0F46380589B018D5DFF8E4532B
:2034A0002888FF280ED0C0B217F070F9040009D0A079162118F0B6F9204617F05DF9204668
:2034C0000AF012F8FF20288087F40060D6E1F80504D513F0E2F987F48070CFE1B80604D529
:2034E00017F042FE87F02000C8E1F8070CD517F021FB30B100218160DFF88C03006800B1E0
:20350000804787F00100B9E1380704D517F02EFE87F00800B2E1F8060FD50021002200232D
:203520000691059204910393029101920091022018F074F987F01000A0E1B8070FD5002118
:203540000023069105910491039302910191009101223C2018F062F987F002008EE17907F0
:203560004FF01E08C94EDFF828A340F1CD80C9480022002108920791007818F0F7F904466F
:20358000C5488178FF2904BF002015F0FFFBA07A17F0FCF805469AF8000095F82E910028B5
:2035A00005F5947B69D0606D807A022818BF032807D130680D3018F02DF910B93068C11DBC
:2035C00007915946484618F04DF9A0B3606D807C3368002818BF012804D11946584618F01F
:2035E0003DF904E05A464946184618F0F7F9FF2843D018FB00F83068404406225946C01D27
:2036000017F0D8F8306810F80810404400F1010BC01D41F0020908900622616DC87A00F0C1
:20362000010085F82E01606D00F10C0105F5947017F0C0F821E05946484618F0E7F8E0B1AF
:2036400030685A46494618F0C9F9FF2815D018FB00F8306840440D3018F0DCF858B93068E4
:2036600040440D3018F0D6F8002801BF30684044417F012901D149F0020905F12C004B46FC
:20368000017806914289120905920122698C0491C0880899029140080390CDF800B0079885
:2036A00001900020A97918F0B9F8D5F89C017B4988420CBF00210121A87918F0A3F87848F4
:2036C000AB7902682C214B43134401221A73AB7904684B4323445A73AB7904684B432344A3
:2036E0009A73AB7904684B432344DA73AB79006811FB03F10144002008740720A97910F035
:20370000BAFC87F00400B9E038060FD5002100230691059104910393029101910091012248
:203720003B2018F07BF887F08000A7E0F8045DD55C4930680C680D3018F06CF8002844D170
:203740003068C11D0D3018F059F83EE0606D4178480704F13E0526D5287802281EBF032865
:203760006878012830D16978306804F1380218F035F98146B9F1FF0F15D0306818FB09F950
:2037800048440D3018F046F868B930684844C11D0D3018F033F830684844C11D062204F168
:2037A000380017F007F82878022818BF03280BD130680D3018F02EF830B93068C11D062299
:2037C00004F1300016F0F6FF2468002CBED13648DAF8042000784FF4805113F07FFA10B145
:2037E0008E2018F007F887F4805047E0B80505D517F0B8FA2D4901200860FEE7780504D518
:2038000017F053FD87F4806038E0780405D5812017F0F0FF87F4804030E0B9042DD5244C77
:20382000206810B1002015F0B1FA4FF0FF3020600020204C0EF04EF9216851F8202F6846E1
:2038400090471D494A6B086BC96A24681B4B019200900293ADF810106B46194A19491A4889
:2038600003921A4A07922568194AA8471949086004F05CF887F4005000E0002009B0BDE89C
:20388000F08F00BF5A250020480F0020680F0020880E0020D70F0020780E00204DE5011098
:2038A000184400204C0F0020C70F00207C052043380F0020200F00204020002015AB010040
:2038C00025AB010090430020903700201EFB0080084100201C0F00202DE9F84FDFF80C545C
:2038E000A9780024FF2904BF002015F04FFAA87816F04CFF054605F1680605F5C977316837
:20390000086805F1900808B1EC8311E0B07B002804BFB07E00280BD198F80010002904BFBC
:203920003878002804D1287F012804BF688CE8832989E88B4118491C6981284617F056FF51
:2039400001281EBFDFF8A8030178012903D12989EC83491C69814FF6FF79B07E01280DD106
:20396000B28B6989288917F03DFF38B1298968894A1C93B298422FD0B08B23E098F8000046
:2039800001280FD1B8F802206989288917F02AFF40B1298968894A1C93B298421CD0B8F8C4
:2039A00002000FE03878012816D17A886989288917F018FF80B1298968894A1C93B298423A
:2039C0000AD0788892B2904206D04844688180B217F004FF4844E883387801280FD128890F
:2039E0007988401C80B2884209DB7C793C71022038702346A979224600200AF0D5FC05F546
:203A00009A71087920B128890021401CE9836881B07E012813D12989B08B4B1C9BB2984210
:203A20000DD1688117F0DAFE804605F12E008188308C01FB080828460FF094F903E005F152
:203A40002E01B1F80480E88BDFF8A8A2411C01FB08F82968CA6840F6C41909FB0822CA60EF
:203A6000A5499AF80F20D30702D56B8A00220BE00A88521C93B2012B03BF05F59A7CBCF8ED
:203A8000063003F2DC536B8A03FB08F34FF4C87CB3FBFCF35B1C6B610A8085F82000C5F893
:203AA0001880DFF858B2AB79DBF8000000F108025B01D1582A68116100F10801AB79D268BA
:203AC00068695B01121ACA50DBF80000AB7900F108025B01D1582A68916000F10C02A97958
:203AE00049010C30535C03F0F00343F002034354DBF80010A8798A1C4001002111523879BC
:203B000008B915F043F9DBF80000AA7900F110013879520140088854DBF80010A87901EB93
:203B20004012002151743879042812D1A879DBF80010400101F110021031135C3A7A43EAB3
:203B400082030B54DBF80000AA7900EB421120204874DBF80010A87901F1120240010021E5
:203B600011526749A8790A6802F114034FEA401C143253F80C00AB79D5F814C05B0100EB57
:203B80004C00D050B07E02280DD10A68AE7902F11403760114329859AB7995F82E605B0197
:203BA00019FB0600D05005F12E029AF80F00C3075BD5DBF80000AE7900F108047601083064
:203BC000A359AC796401A3F5A8630351DBF80000AC7900F10803640118592B6898600446C9
:203BE000484800FB0848C3F810800868AE7900F1140476011430A359AC79640103F5F6636D
:203C00000351387904280BD10868AE7900F1140476011430A359AC79640103F561630351A6
:203C20000868AC7900F1140364011859C5F83401354B186B0C68AE799288006804EB4617B3
:203C400042436424B2FBF4F409FB04F0A0F596692E48C7F81C900278012A2FD10868A9791E
:203C600000EB41120120D0722FE0042C0BD10868AE7900F1140476011430A359AC796401A7
:203C800003F561630351387904280CBF4FF4AA504FF4E6600B68AE7903F114047601A3598D
:203CA000181A938809FB03F3A3F516739842BFD30821284615F07CFA012014E0586A0968D6
:203CC000AA79407801EB4213D872DBF80010A87901EB401229684A6007200D4A1070284695
:203CE0000FF006F80020BDE8F28F00BF780E0020D10F0020980C002092440020980E00209C
:203D00009C0E00203CF6FFFFB4D90100CC0F0020C80F00202DE9F041FF2806462AD117F06D
:203D2000E1F810F01F0F22D0042014F0B5F808B1042016E0012014F0AFF808B1012010E04C
:203D4000022014F0A9F808B102200AE0102014F0A3F808B1102004E0082014F09DF820B1A9
:203D60000820BDE8F04114F0CFB815F00FF80020BDE8F08114F0C8F85FEA000814BFD8F8C0
:203D800004500025012E46F2A81740F6C4140BD0022E69D0042E00F0B780082E00F0108122
:203DA000102E00F05781E2E7012014F075F800281EBFDFF86803006800281CBF8788BF0022
:203DC000102014F069F818B3102014F09DF8040002D066685EB900E00026022014F05CF87F
:203DE00028B1022014F090F8040018BF66686DB1012014F051F8002818BF002E06D0B068EC
:203E0000C11BA86815F014FF00282BD02046AFE7022014F041F838B1022014F075F80400A0
:203E200014BF666800260AE0042014F035F850B1042014F069F8040014BF66680026002DFA
:203E4000E4D001203EE1082014F026F828B1082014F05AF8040005D052E0012014F01CF889
:203E6000002885D0404683E7022014F015F858B1AB480168AB48CA69017801EB81015318C5
:203E8000DF88674307F51667042014F005F838B1042014F039F8040014BF6668002622E064
:203EA000082013F0F9FF98B1082014F02DF8040002D06668BEB900E00026012013F0ECFF15
:203EC00088B1012014F020F8040018BF66680AE0012013F0E1FF50B1012014F015F804009E
:203EE00014BF66680026002D90D00220EAE0102013F0D2FF30B1102014F006F80400B1D0E6
:203F00006068EAE00220A9E7042013F0C5FF50B18548016885484A69017802EB01139F8919
:203F2000674307F51667082013F0B6FF98B1082013F0EAFF040002D06668DEBB00E00026DE
:203F4000012013F0A9FFA8B3012013F0DDFF040018BF66682EE0012013F09EFF38B10120B8
:203F600013F0D2FF040014BF6668002622E0102013F092FF98B1102013F0C6FF040002D0C5
:203F80006668BEB900E00026022013F085FF88B1022013F0B9FF040018BF66680AE0022062
:203FA00013F07AFF50B1022013F0AEFF040014BF66680026002D23D0042083E004204DE7E8
:203FC00017F0F6F808B1D0F89470042013F064FF38B1042013F098FF040014BF666800266B
:203FE00032E0012013F058FF58B1012013F08CFF002D044604D0082013F04EFF00286ED152
:2040000004E7102013F048FF98B1102013F07CFF040002D06668BEB900E00026022013F0FE
:204020003BFF88B1022013F06FFF040018BF66680AE0022013F030FF50B1022013F064FF0A
:20404000040014BF66680026002DD9D0082039E0082003E7032017F0ADF808B1D0F89C7010
:20406000022013F019FF38B1022013F04DFF002D0446C5D01020BFE7042013F00DFF38B1AB
:20408000042013F041FF04000CBF0026666816E0082013F001FF18B3082013F035FF0400A7
:2040A00002D066685EB900E00026012013F0F4FE28B1012013F028FF040018BF6668002D33
:2040C0009ED0102013F0E8FE002818BF002E97D0B068C11BA86815F0ABFD002890D1C1E6E4
:2040E000012013F0D9FEB0B1012013F00DFF040014BF66680026002D05D0102013F0CCFE6A
:20410000002818BF002E3FF481AEB068C11BA86815F08EFDE1E71020A0E600BF2C440020AF
:20412000500F0020D80F0020540F0020D90F00202DE9FE4F0422FF2101A816F031FBDFF813
:204140005C63B0780024FF2800F0A58116F01EFB0546B07816F0C6FC834605F2171001785D
:20416000012908BF417800F01F8105F17406B07B022820D105F12E0105F12E008A8800896B
:204180009BF81C70A97905F12E0352080009DB880090C7F3C007002F09D0002017F01AFB9C
:2041A0009BF81C0000F0F7008BF81C0002E0302017F010FBB47395F89201022808BF85F8D1
:2041C0009241307F022808BF347705F59278B8F80E1019B198F80C000AF04CF9072010F023
:2041E00038FA6889AE4F288105F58D73BA7AF879397B80184118F87A0818797B4118009142
:2042000005F58D708188491C81800098B5F81A114118A5F81A1105F58D71488810185880DF
:20422000D8F80000C0B19F490B68A97903F10E0C49010E331CF801C030F81CE000997144E0
:2042400020F81C10A97949015B5C00EB4300B0F84A105218A0F84A2014F00CFBF879DFF808
:204260004892002804BFF87A002805D1387B002804BF787B00283FD09BF81B00ABF80E40A2
:20428000C009A2460FD09BF81C0000F00701022905DA411C61F302008BF81C0003E0A87987
:2042A000002116F08FFF2989E8892C744118287FA981012804BF688CE883A97901220720A5
:2042C0000FF0D9FE787858B101212977B078002804BFB07B002803D1307F08B9688CE88344
:2042E00098F81400002868D0022804BFF87A00285ED188F8144060E0A979002207200FF086
:20430000BAFEEC839BF81C1011F0070F03D19BF81B00C00903D0A879002116F053FF287C44
:20432000B97A05F58D7259B14FF0010A08B1E889A8812C74287F012826D1688CE88323E0E1
:20434000D188491C4FF0020AD180E8B1D9F80000AB7995F82EE000F1140168694FEA400C7E
:2043600040F6C4105B0110FB0ECC0CF5F66C41F803C0D9F80010A87901EB4010C17C01F027
:20438000F00141F00401C174A8892989814206D0884297D2081A41F2AB01884292DA108843
:2043A00000280CBF3E210821284614F001FF72E0787A10B1022188F81410F87BC1070ED526
:2043C00038692968C86000F5B470C860D9F80010AA7901F1140052010021815013E0D9F82F
:2043E0000000A97900F1140249015058C8F810002C48AB79016801F108025B01D0582968C0
:20440000C860EC832C77294A50690078810702D5B87B802800D181203070254991F820005B
:2044200018B12946012016F0C1FE28460AF04CFF02281BD1F079022805DB01AA1D492846A3
:2044400010F0BAFA0446284617F0C0F9012822D020000DD0224601A9284610F06BFE38B93E
:2044600028460AF031FF012802D114E0012812D00121284617F0A6F9FFF72EFA01280AD052
:20448000284612F052FF16F0DDFE009881B22A46504609F09FF8BDE8F78F00BF780E002089
:2044A000980C0020980E00209C0E0020B4D901005C410020382800202DE9F84F054605F13F
:2044C0004C0AE87D9AF80010DAF8047081424FF00008C0F0918105F1280407F1980907F1BA
:2044E0007B06C34640F08C80A87F7075E97FB175DAF808205278930710D5EA7FD30604D5FE
:20450000C01E707501F0EF01B175C7F87CB086F800800022B17D01F0FE0168E1910608D4EC
:20452000E08B00B1E07E3076E08B00B1206AC9F80000DAF808004178CA070DD5E08B00281B
:204540001CBF206A002807D0C9F80000A17EE08B814238BF08463076E87FC1060CD5F86B8C
:20456000217800EB8100F863F86BA98CA63100EB8100F867022002E0C7F87CB000203070F2
:20458000DAF80800417811F0030F22D1007816F013FE5FEA00081CD098F8B400032809D16D
:2045A000E87F810615D440F02000E877B07D40F020000DE068B9E87F81060AD500F0DF004E
:2045C000E877707DA0F112017175B07D00F0DF00B075E97F002201F0FC01284609F06AFC9F
:2045E000B8F1000F36D0E87F810633D598F8B40002282FD141462846BDE8F44F16F0EABD0F
:20460000E87F81060AD500F0DF00E877707DA0F112017175B07D00F0DF00B075DAF808002D
:204620004178C80717D5B07D717D00F0F700891E01F03F0182075CBF891D40F00200420668
:2046400044BF491E00F0BF00B0757175C9F800B086F81880D0E09AF80020E87D121AD2B238
:204660008907009240F18080012A07F144083ED1F86BA98C00EB8100F863A87F00F03F00B4
:20468000A8777075E97FB175DAF8082053785A0703D5801F707501F0FD01B1750023717DE0
:2046A00098F80000E27E01F03F018A18C0F38001521C00F0030017F0E1F800F59B70A88496
:2046C0001E2180B290FBF1F0B17D82B201F0FE01284609F0EFFB86F800B0E08B00B1E07EB2
:2046E0003076E08B00B1206AC9F8000084E0F86BA98C022A00EB8100F86325D1E87FC10799
:2047000006D5707D811F7175B07D00F0FE00B0750023717D98F80000E27E01F03F018A1837
:20472000C0F38001521C00F0030017F0A7F800F59B70A8840022B17D01F0FE01284609F06B
:20474000B9FB607FA8F81E00617F0098491C081AC0B201281CDDF96BAA8CA63201EB820194
:20476000F9670221317014E0F86BA98C00EB8100F863617F0098081AE97FCA06C0B207D5A2
:20478000F96BAA8CA63201EB8201F9670221317090B395F81F80A97FD9F80020E37E1A44CD
:2047A000C9F8002028F00108DAF808205278530748BF28F00208920748BF28F008080128BF
:2047C00007D1207F3076C7F87CB028F0100886F800B001F0C004404617F054F800F03F00B6
:2047E0002043707586F81680002208F0FC012846BDE8F84F09F05EBBBDE8F18F2DE9F04F60
:204800008FB0074618984FF0000C002A01938DF8200000F08D810AA80E464FF0200A00241D
:2048200000F1100ECDF800E0114611F8010B25280E910CD0002800F07781022EC0F00C8113
:20484000013E002F00F0078107F8010B04E15378901C0E902D2B07D14FF00109D01C8DF883
:204860000D900E90937803E04FF000098DF80D90302B05D10121069110F8011B0E9002E017
:204880001946CDF818C04FF0FF322A29CDF808C004922CD1019D29680A1D2A60D1F8008010
:2048A000CDF80880B8F1FF3F10F8011B0E9007DC4FF00109C8F100088DF80D90CDF80880A6
:2048C0002E2925D1CDF810C0024612F8011B2A290E9220D1019D29680A1D2A60096821EA48
:2048E000E17BCDF810B0417802300E9027E04FF00008A1F13002092AE0D810F8012B08EB2A
:20490000880501EB4501A1F130080E901146F0E74FF0FF3B13E04FF0000BA1F13000092899
:204920000AD812F8010B0BEB8B0501EB4501A1F1300B0E920146F0E71046CDF810B0302B06
:2049400041F0200306BFCDF81880424600226C2B06D101218DF80C1010F8011B0E9001E063
:204960008DF80CC0CDF81CE00AAB6929CDF814C0099301D064290CD1019B1868011D1960BB
:204980009345C8BF5A46016870466FF0090306921EE075290AD0A1F16F03092B5FD8DFE84A
:2049A00003F0058C6A6AA76A6A6A6A05019D2868031D2B6078294FF0080308BF10237529EF
:2049C00008BF0A239345C8BF5A460168069270460EF08CFBDDF800E00990AEEB000105912A
:2049E000A8EB01004FF0000CB9F1000F02901CD109E0022E06D3013E1FB107F801AB02985A
:204A000000E00027013401380290F2DA0DE00998022E07D3013E27B1007807F8010B0998F0
:204A200000E000270130013409900598411E00280591ECD19DF80D0078B1029801380290C9
:204A40000BDB022E05D3013E17B107F801AB00E000270134F1E7002701340E9AE4E6632948
:204A600009D1019A1068011D11600121006805918DF82800B4E70138022E0E9052D36FF0C7
:204A800000400BF1010186426FF0004038BF30460246B34538BF0A46002908BF02460492AF
:204AA0000EA9019A02AB05F08BFEDDF800E09DF80D90DDF80880059992E7019A10231068D8
:204AC000011D11600821082206919DF820100029016870460EF00AFBDDF800E0A0F1010105
:204AE0004FF04002099100F8012CAEEB010176E7019A1068011D11609DF820100068002986
:204B00000D49002808BF0846099016F0AEF80146834538BF59461BF1010208BF0146DDF826
:204B200000E05CE700215BE70FB100203870A44660460FB0BDE8F08F20CD01002DE9F84FA9
:204B400005004ED0DFF8EC8298F80000092818BF0A2804D00B281CBF0C280D2801D12120C5
:204B600065E1A878002116F001FF040008BF4220F6D0B14FA978DFF8C4A2397098F800001E
:204B800010B9A8788AF8000004F14806F068417801F01201022902BF706900280C2012D057
:204BA000607AF0B1A07B012804D1B5F8030008B1812816DA6878402813DA20460BF006FCC7
:204BC000B06808B9072032E1B561287801281FD1A07B00281CBF0128042819D1984800783E
:204BE00008B9122023E197494A78824208BF0920F8D0F068417848070AD504F122018020A9
:204C00004A7F04F1380106F093FD08B10B200EE1687808B911200AE12878DFF82C92DFF87B
:204C20002CB2012840F0B280002121737167217A012903D1B16968794871F7E011200FF02A
:204C400008FD012000212072E172617325460AF04FF86060DBF8000080477D4A01461068C8
:204C600002E06A68426000680028FAD10846D9F8001088476968774848610021387816F075
:204C80008DFA3978012211200FF0F5F9F0684178C80605D5284601F029FD010024D0C6E0C2
:204CA000688C16F0CDFA85F82100F068007816F083FA04001CBF94F8B400002807D0E87FBD
:204CC00040F02000E877687D40F018006875284616F0BAFA0100E2D134B194F8B4000128F1
:204CE00004BF284616F072FAF0684178C8071CD505F14204A18800291CBF3068002814D033
:204D000022788A4211D20F2016F058FD68B1F06801788DF800100F20A288ADF80120217889
:204D20008DF80310694616F045FD98F80000A0B94949087800281EBFF068417811F0030FC0
:204D400003D04648006816F031FD112088F800000121297216F076FA68E0284613F088FB36
:204D600000281CBFB168002960D0AA7B012A04D02A69808802EB800202E0486E2A698218CB
:204D800095F8C010104609F031FE4FE0207A00284CD0DBF80010884705463878012116F056
:204DA000FDF900202E4920720A683E7811460B68187A002802BF586D0378B34203D0C9682E
:204DC0009142F4D10BE0274E3078012807DD084613F00EF815F0D6FE3078411E31703A789C
:204DE0009AF80000824217D115F0A4FE6168884212D113F03FFD40F2014016F02BFD1A4915
:204E00001A4A1B4808600121107809F033FBD9F800102846884709E0204616F0C3FCD9F88F
:204E2000001028468847204612F032FD0020BDE8F28F00BFC80F0020D60F0020D50F002089
:204E4000D40F0020780E0020A8260020A42600204C0F0020BD820000880E00206C0F0020C6
:204E60002C440020A3440020480F0020C70F0020919100002DE9FE4FDFF81883D8F8046003
:204E80001EB9BDE8F74F16F089BC3078DFF80893C24FDFF80CA3012818BF02280AD0042824
:204EA0001CBF0828102805D0402818BF802800F09F8067E116F01CF80028FAD0012012F06D
:204EC000EBFF20B1012013F01FF812F0ADFF082012F0E2FF20B1082013F016F812F0A4FF74
:204EE0003078FEF717FF050014BF6C6800249AF80100002850D016F0A1F915F047FC064620
:204F000030680090D0F804B0B0798AF80300CCB10099284616F090F9022813D02978012954
:204F200002D008290CD02DE128B916F033FC00F5E8504C30A060012088F8020011211BE1F4
:204F4000082016E10098017880290CD10820954938700A78DBF81400012A1ABFD9F824107B
:204F60000978012113E007203870B07915F0BAFD0446207BC10748BFB0795AD48948017892
:204F8000DBF8140001291CBFD9F824104978C172B0798AF80200B9E0002D12D02878AE4247
:204FA0000AD1012818BF082802D1002C03D1EEE0002013F0EBFEE0E0012803D0082800F05D
:204FC000D780DFE0002CF2D016F0E4FB0146A06801F5C241A83114F02BFE28B916F0DAFBDE
:204FE00000F5E8504C30A060112038700121BCE09AF80100002800F08B8016F01FF915F098
:20500000C5FB054628680090D0F804B09AF8020015F0BCFB0190A8798AF803003178402950
:2050200011D1A87915F05EFD0446207BC1070AD5A87915F0ABFB052114F0BAF8207B00F04E
:20504000FE002073A3E015F04DFF10F01F0F3AD0012012F021FF20B1012012F055FF12F026
:20506000E3FE082012F018FF20B1082012F04CFF12F0DAFE98F80200FEF74CFE06467468F5
:205080000CB3009916F0D8F802281CD03178012902D008290DD013E028B916F07BFB00F5D4
:2050A000E8504C30A06011203870012188F8021004E0082088F802001221397030465DE092
:2050C000002013F063FE0198A8421FD0009935480A78802A0BD10821397000780128DBF876
:2050E00014001ABFD9F82410097801210AE007223A7000780128DBF814000EBF0121D9F816
:2051000024104978C172A8798AF80200009835E015F0E8FE10F01F0F39D0012012F0BCFE16
:2051200020B1012012F0F0FE12F07EFE082012F0B3FE20B1082012F0E7FE12F075FE98F84F
:205140000200FEF7E7FD054628786C68012802D008280DD01BE0D4B116F01CFB00F5E850E3
:205160004C30A06001211120387088F8021004E06CB188F80200122139702846BDE8FE4F67
:2051800008F04ABDBDE8FE4F002013F0FFBDBDE8F78F00BFB8430020B4D90100C80F0020B5
:2051A000780E0020CC0F00202DE9F84306460D46707801071DD4D6F80310B84821F07F41CB
:2051C000203981423FBFD6F8061021F07F412039814228BF112033D2B01DF11C88425CD3F4
:2051E000B07A002818BF012803D0022818BF032853D1B07C002818BF012803D0022818BF12
:2052000003284AD1307D012818BF022803D0832818BF032841D1707A10F0070070723CD000
:205220003078012116F0A2FB04000AD1002016F0ADFA044616F0A6FA844214BF07200D2078
:2052400029E104F1540100200E606072227A012A08BF0C20F4D0E075727A012383401A4298
:2052600008D0E27D521CD3B2012B04BF00F125072776E275401C0328EEDB7078C20619D516
:20528000317D012909D1102811D012280CD0132804D0152804D01D2804D09DE0002007E070
:2052A000042102E0012003E00221A1735EE00320A0735BE0FF22A273307D02281EBF727829
:2052C00002F00300032808D01307E6D408B19006E3D4520707D516F10C007DD0F07A0028D5
:2052E00018BF012878D100206075E077707810F0030F25D1207D00F03F0020757078820658
:2053000005D44868002804BF8868002801D018216175707881060CD4307D832818BF032878
:2053200003D101211820E17702E0607D40F0010060757078410715D5E07F40F0020010E087
:20534000C0074CBF40208020217D01F03F0108432075092118206075E1777078410701D537
:205360000B20E077207D00F0C000A07796F913007F2806BF4A4800780DF080FC04F1290791
:20538000387045B14749C86B416908683A7802EB8202805C2870B07ADFF80C81DFF80C91F9
:2053A000434D002818BF012809D17875B07AC10758BFC8460622414604F1300032E02868E1
:2053C0000D3016F027FAB8B1B07AC10754BF4946414616F01BFA08B912205CE0B07AC107A9
:2053E00054BF49464146062204F1300015F0E2F9B07A00F0010007E02868C11D062204F1CA
:20540000300015F0D7F9032078752968B07A00F001000870B07AC10758BFC8462868062284
:205420004146401C15F0C6F97078410730D5B07A022818BF032822D1F17A286806F10C0247
:2054400001F0010116F0CAFA8046B8F1FF0F16D01E20296810FB08F8414401F10D0016F0C8
:20546000D9F960B928684044C11D0D3016F0C6F90120B875062229684144C91D04E0F07A8D
:20548000B875062206F10C0104F1380015F092F9012060720020BDE8F28300BFE1B70B0067
:2054A000CA0F0020B4D90100480E0020400E0020680F0020F8B5144600254FF48067DFF8BD
:2054C0009862C21B84B006F1880337D0921E3CD0521E44D0521E4AD0521E50D0521E54D04A
:2054E000521E00F07A80921E00F07C80D21E00F0AC80521E00F0B780921E00F0C080521EC3
:2055000000F07B80521E00F0C180521E00F0CF80521E00F0D280521E3ED0521E56D0521E1A
:205520004BD0921E00F0DE80921E00F0E280521E00F0ED80521E00F0F98000E101290FD1BF
:205540002078022817DC707003E1012908D12078022810DA0028B070F6D1B074E3E0012903
:2055600040F0EB802078052805DAF070F1E001296CD12078022880F2E0807073E9E01029DB
:2055800064D110222146754814E001295ED12078022863DA3071DCE0012957D120780228C3
:2055A0005CDA00287071F6D00120F074602206F12801184615F0FEF8CBE00129FCD120782C
:2055C000022802DAB07115F0BDFAC2E001293DD12078022842DAF072BBE0012936D120786A
:2055E000F073B6E0002931D116F088F910B9FAF75CFF1DE00120F075ABE0072926D106228E
:20560000611C02A814F046FF00950023217801AA02A80AF02DF9B0B9F07A10B916F06EF94B
:2056200010B1F07A012808D19DF80400FAF74EFF0546502014F04CFB1EE0716A9DF80420CE
:205640000120885485E0342583E0012975D1717C2078022903D0C11F0A2902D36DE01028CC
:205660006BD1307475E0012967D1B17D2078B075002908BF01286CD1FAF7A1FE69E001294F
:205680005BD12078052858DA307562E0012954D12078022851DC00284FD07074022803BFAB
:2056A000102030740120002016F068F851E0012943D1207814F02EFD4BE0707900283CD1F0
:2056C000602908D1002C38D060222146184615F071F8012004E001292FD1002C2DD020788F
:2056E000F07436E0012928D13CB320781C4908702FE011BB16F002F930B9FAF77EFF05462B
:20570000502014F0E5FA24E00120307621E0012913D12178022910DA012904BFB078002871
:2057200016D0B174084615F015FA12E0012904D120780228B8BF70750BDB182509E00F28AA
:2057400006DA022904D1218811F0B0FC054600E00225284605B0F0BDB41C0020304200206F
:20576000AA4400202DE9F04F89B0A04E0546A04F30780328387040F0AC8000203070387026
:2057800002AC204615F0ACFC2046002114F0ECFA984CB8602E21204615F026F84FF0FF3095
:2057A000A0822061E06013F0D3F90020294610F0C5FE07F11001F86015F06EFCD7E905123E
:2057C0008D4DB1FBF2F0C0B2022828BF022020702870B2F5005F7AD1B1EB403F77D3F9687D
:2057E000002974D04FF6FF7100274FF088586FF0030B61808149616087426DD2FEB200218F
:2058000008AA0423304615F0BDF807EB470004EB800A0898D14600F47C0129F8160FB1F5B9
:20582000402F04D000F07F41B1F1164F3ED1C0F301418AF819106FF0FD0151FA80F2102174
:20584000022A31D3C2B27E2A2ED003A812F0B8F9304600214FF088524FF400534FF40055C2
:2058600015F090F81BFA85F5A8B250F808104A1C01D10328F6D801220126D3B2042B06D845
:20588000CBB2FF2B18BF16460132090AF5E740F808105C480399006842685B48904755FAA1
:2058A00086F199F80000544DAAF81C10C0B2702807D0782803D0FE2805D07C2804D1E77052
:2058C00002E0277100E0A7702878013794E70120307009B0BDE8F08FE178FF2903D0DFF83B
:2058E0001081012529E02179FF2904D0DFF80081E170022521E0A178DFF8F480FF290ED017
:205900000131B1FBF0F202FB101000EB400104EB8101898B09B1E070EBE7FF20A0700025C9
:205920000020E5700BF06EF898F8001008437E2188F80000002012F0FBFBA078FF2813D14C
:205940002D48E17800780131B1FBF0F202FB1010A0700BF057F898F800100843FE2188F840
:205960000000A07812F0E4FB2548E278022D057002EB4200627004EB8000818BE18028D0EE
:20598000012D2BD103AD002788B2182826D30739D0B22A4689B20CF019F89DF81700400726
:2059A00017D5E088BDF81A10E6782A4603230097401A073881B2304605F09AFDE27820B928
:2059C000BDF8181009B196420BD0964206D0E188DAE701206071002000F046FD98F80000D0
:2059E00077E79DF81C0010F005FBF7E7892600205C250020D8400020AF440020FF000020E0
:205A0000B0440020D8010010004003402DE9F04F8DB0044600209A4616460F46CDE90B00B8
:205A2000CDE909008748856880460CF095FA1C2803D00CF091FA1B281BD1308840F60201DC
:205A4000884218BFB0F5C15F03D1F07B022810D93EE043F6070188420BD196F824000328AC
:205A600007D33069784940F0806020F0604088422ED100206FB366B3387825FA00F0C00788
:205A800026D03046002115F0A9FB7048C4E90176006880B109A800900CA90BAA0AAB304685
:205AA00006F09CF90B980B214FF6FF72502313F05FFFFF280CD015F037F9654F06467878DA
:205AC000012802D840B1012070E0304615F0D5FA00200DB0BDE8F08F06F0F4F85D480DF191
:205AE0000409016841F0020101605B48C8F80000484614F097FFDFF864B15A494A469BF85E
:205B000001009BF8005003905548283012F092FB554856494A4612F08DFB484614F00AFF99
:205B2000DFF84C81534A19214B460295404611F057FC514A08F11C001A214B4611F050FC1F
:205B40004E484F4915F06BFA4E484F4915F067FA4E48006810F4402F06D04D4A07F128001B
:205B60000421002313F0C4FC9BF8020010B10D2009F0D8FE08F1400014F0E8FC08F1380076
:205B800014F0E4FC4349002007223876B8843862386181F860200521C7E902103E49F9616D
:205BA00038700420002113F063FF78782C4941F8204001307870304615F05FFABAF1000FEE
:205BC00006D10DF1040A35492022504615F062FBDAE90012BAF81000DAE90635002AB2FABF
:205BE00082F608BF40F6C4126261216060832563760926764FF4FA76C4E9036201226276D0
:205C0000274AC4E90722C4E90923DAF80C0000B12062DAF8140000B16062DAF8080000B16F
:205C2000E06104F13800C82114F0DEFD04F15000002113F04DFF1B4904F1B80015F0EFF97B
:205C4000204646E7CC2108400F000005D02700201C21002000200940110000E0B4DD010008
:205C6000C02200208D9F010000400020B1ED00002423002009420100392A0100BC3F0020C5
:205C800015950100783F0020399F0100B44F00501D5A0100C03C002041C50000CCDB010014
:205CA00003890100B1B001002DE9F84F012000909A4E9B489B4F0278112A02D0122A0DD092
:205CC00026E1994C2078002115F050FE97490546087810B100220A70B7E0002D00F00B8184
:205CE0009348DFF850A2DFF8508238600122217811200EF0C0F9696D4B78286DDC0641F6D4
:205D0000080240F1E180044641F20443B4F802C04FF4A0599C451FBFB4F81AE09E45B4F885
:205D200032C09C451CD095F80EC0BCF1010F04BFB5F8A6E09E4513D0B4F802E041F20A43C2
:205D40009E451FBFB4F81AB09B45B4F832E09E4506D0BCF1010F04BFB5F8A6C09C4503D16D
:205D60003380C7F800A072E0002340F2FE3B4FF0180C0CFB03FCA444BCF802E0A6F800E0CC
:205D8000BEF1010FF3D0BEF1000F2CD0AEF1020EBEF1010F27D9BEEB0B0E1AD04FF4806387
:205DA000BEEB03032BD04FF4406BB3EB0B031AD09B1E012B17D91B1F15D040F2FA3BB3EBBC
:205DC0000B0337D05B1E2AD0D81E18D0001F16D035E0B4F800C040F6010EF44503D15B1C0E
:205DE000022BC4DD33E0A87B01281CBF0428A6F80090C7F8008001200DF06FFB27E0A87B50
:205E0000012806BF41F20241ACF80210ACF80290308890420BD100200DF05FFB07E04978AD
:205E2000CA064CBF816C416F086800210171C7F800800CE0002012F0A9FF832003E000204C
:205E400012F0A4FF842015F08DFD012063E03868504557D1A06C016801F10805A91C2878D0
:205E6000C0F38012402005F063FC002801BFA06C0168087903281ED194F86C0001281AD125
:205E8000D5F80E0000281CBF288B002813D095F8220010F0E00F0ED105F11E0015F06AFC6A
:205EA000012808D1688B298BAA8B401C89004843B0EB021F26DBA6F80090C7F80080A06C5E
:205EC0000168002008711DE0C18E318041F20443C91A01D0891F01D1D04609E04088904282
:205EE0000CBF002001200DF0F8FA41F206403080C7F8008006E015F05BF958B1C0880F4957
:205F00003080396001210E4A107808F0B3FA01E0002000900098BDE8F28F00BF9A0F0020BA
:205F2000C80F0020480F0020D50F0020A7440020756B0210B513000091910000734E010046
:205F4000C70F002082492DE9F043824C824E20700A22002008600D2380484FF40A7102702D
:205F60004380818085B07E480660B77E7D480770FF2FF17E4170327F8270737FC370B57F41
:205F80000571F67F467108BFFF2914D1FF2A08BFFF2B10D1FF2D08BFFF2E0CD172490A7856
:205FA00002704B7843708A788270CB78C3700A790271497941716D4902786D4D6D4E6E4FC3
:205FC0000A7043784B7082788A70C378CB7002790A714079694A4871FF2028706870A870A5
:205FE000E87028716871002065490880F06B6549407808706449F06B00780870138863480A
:2060000063490380F06BC06C08606249F06B90F83C0008706049F06B90F83D0008705F4937
:20602000F06B90F86C000870F06B406901795C484A1E0270F06B5B49C0783870F06B80697A
:20604000086008B912F0A2FEF06B5749C069086008B912F09BFEF06B016E54480C2214F0F5
:20606000A9FB15F083FBF06B5149006A086008B912F08CFEF06BDFF83C81406AC8F800008C
:2060800008B912F083FEF06B4B49806A086008B912F07CFEF06B806E00B101200CF04DF9E1
:2060A00001F016F907280AD105F0D2FB20784FF4804108F0DFF9002012F068FE44E03F4875
:2060C0000168884781460DF085FBD8F8000001688847684614F0AEFCD8F8002004208DF847
:2060E0000000694652F8043F00209847344908600FF0D4FDF068334A01883878324B0143E1
:2061000011804846196888470C21304815F0B4F8284615F027FB15F021FB2D4800214FF629
:20612000FF72016082808171F06B90F864102948006814F0CFFC0121FF2015F02FF8207895
:206140004FF4005108F096F905B0BDE8F08300BF380F0020C70F0020B64F0050700E002048
:206160003C0F0020400E0020E8120050500E0020480E0020B4D90100C40F00208A260020B7
:206180009E0F0020C60F0020D40F00209044002020440020A4440020A5440020A2440020AB
:2061A000CB0F0020200F0020240F0020AC430020280F00202C0F0020300F0020A426002039
:2061C00024440020A00F0020A8260020FC0D0020800E0020384400202DE9F84F14F0D6FAD6
:2061E0000746954C41F62800002120806180616015F0D0FA00F57A60DFF840A2A060002236
:20620000DAF80010C860E273207B00F0F00040F082002073607B00F0F00040F001006073A0
:206220002520A0734869417A012918BF032904D0042918BF062902D015E0002017E0022066
:2062400020212074617462827D487E4DA061656115F080FA28607C48016A0978CA074CBFC6
:206260001F210F2105E0794800780100E8D10021E7E7026A1278930748BF41F02001026A92
:206280001278530748BF41F04001026A1078020748BF41F08001297100206871DAF8001076
:2062A0006B4A4869007800F0010040F002006871897A890001F004010843687197F82E1190
:2062C000C90001F00801084391784A0648BF40F0200068710120A97A288101F0C001A9726D
:2062E000A81D022114F0C8FF1620E8724FF00008C14607F1610E1622564B384602FB08F159
:206300005E18416A31604FF0010B876A37710227816A090A71710BFA08FB816A090CB171B4
:20632000F771002131819EF8007037749EF8011071749EF80270B7749EF80310F17400F1B3
:206340002C019EF8047037750F78C97B01F01F0141EA47117175DAF80070D7F814C09CF89C
:20636000091011EA0B0F17D04FEA09110CF1100B3BF801B0A6F80AB00CF1120B3BF801B063
:20638000A6F80CB00CF1140B3BF80110F18109F101015FFA81F908E0BCF810107181BCF8A0
:2063A0001210B181BCF81410F18108F10108B8F1020FA3DD28490E7812FB06F21A443B1D51
:2063C000EA602B619CF8001000290FBF00F59470224801684868A97F686101F0E00141F0DC
:2063E00082014FF6FF70A977A8837869A16800F10C023001135A40F6C41000FB03112962F0
:206400000020E97F164B686201F0E00141F08101A862E862E977187860B1B87A022809D1B9
:20642000104908680D3015F0F5F918B9687940F004006871BDE8F18FE0410020540F0020BB
:20644000800C0020BC0A0020B4D90100D80F0020C00C0020E0070020D90F00206C0F00207F
:20646000880E0020680F00202DE9F04F97B081469948406818B18047002800F0CE80974F07
:2064800001200021042300247E78F873BD7808AA304614F077FA089800F44030B0F5403F14
:2064A00003D17879002800F0B98030460621F8224FF0F80813F024FD06EB460407EB8400FB
:2064C00080F818809DF82000702803D03046702111F02EFECDF81090069608AA2846002116
:2064E00004234FF0000814F04DFA9DF82000FE2803D02846FE2111F01BFE28460621FE22D9
:20650000FE2613F0FDFC07F1160097F80190BA78059500EB8401C988019279826E4981F8E2
:20652000008005EB4501039100EB810101F8026F029109EB490100EB8101B1F806B002EBB0
:20654000420100EB810030F8061F079100900EA811F036FB0FAD1FFA8BF7172F54D35E48C5
:206560000078002853D1ABF10706484609AAB1B20BF02CFABDF8324004F11000B8420FD8DC
:206580009DF82E0096280BD1A6EB040A9DF82D2021464B461FFA8AF840460DF05FFAF0B10D
:2065A000ABF1010B5C46A0B216282DD93628A4F1160748462A4688BF2027E41BBBB2A1B2A0
:2065C00014F0E0F93804EED015FA87F010F8010C962801D0013FF5E707EB040BBBE79DF866
:2065E0002F00C1070ED180070CD50734079E3E49A3B213FA86F00A1A4846414614F0C2F926
:2066000026440796D346A6E73348007850B134480E990068426833489047002420B217B095
:20662000BDE8F08F079F019E1021C7F50052A7F1100083B2C1F20012304611F0DDFA264C50
:20664000217808430E99207025480068426825489047224D00980123B5F91220697B0780E6
:206660003046A5F814B02F8212F05CFAB5F91420A97B3046022312F055FA049A002A08BFB9
:206680001022288A7C21C0F500509042B8BF7821059F384611F04CFD069E30460AF0B2F967
:2066A000207038460621FC22FC2413F029FC0298FE21AE70EF706F700470039805EB8000AB
:2066C000808BE880304611F033FD00206871E888C0F50054A2E700BF5C250020D84000200D
:2066E000D801001000400340002000112DE9F84F0446002000900CB912F048FB04F1500552
:2067000069462E68204608F049F808B9072015E1A04641F28839DFF828B2DFF828A2002467
:2067200069684A7A1820604301233718A3401A420AD098F80E103AF81100388000211BF880
:206740000420BA73F97302E040F6010038800021798007F118007860387B00F0EF0038736C
:2067600040F08000387398F80E10012916D1002C0CBF02200520397B01F0F0010843387335
:2067800024B915F007F800F57A6000E04846B860787B00F0F00040F0020017E0002C0CBFD0
:2067A0000221002100F0F0000843387324B914F0F1FF00F57A6000E00020B860022C0CBF0E
:2067C00001200220797B01F0F00108437873641C06F14800386106F16801032C79619FDB2F
:2067E00098F80E000024012808F1B00718D108F1A40070631822314613F0DCFF06F1180007
:20680000A865C5F85C90397801F0F00141F005013970787800F0F00040F00200787000E085
:206820007463B068C8F8100047480178397415F021F8B064454881690978CA074CBF1F219E
:206840000F2182691278930748BF41F0200182691278530748BF41F04001826910780207DC
:2068600048BF41F0800106F14C02117054706968887C00F0030008F13E0150700B7863F33C
:20688000820050704978947061F3C3005070D47040F0100050703465746508F13800F065DE
:2068A00098F80E00012818BF042815D0A86830B1B0F803009070A968D1F805003065E868C9
:2068C00030B1B0F80300D070E968D1F8050070651F4801684868F06508F13000B065D07D98
:2068E00000F0EF00D07540F08000D07500F0F00040F00600D0752869B0F8030000280EBFF3
:20690000144849F64041484370661349087838B15078117840F0400001F0FE015070117043
