:20000000003C0120C18B0100B5970100B5970100B5970100B5970100B5970100B597010068
:1C002000B5970100B5970100B5970100B5970100B5970100B59701001DBC00001D
:04003C0000000000C0
:2000400038B586B004468DF805104FF6FF720120ADF80220090ADFF8C05AADF8000002232D
:200060008DF806108DF8043069462A7820461CF0EBF8162803D1297820461CF0E1F807B0D1
:2000800030BD3EB504000D461ED0DFF8900A006822461CF0D1F8FF2815D000200090002346
:2000A00001AA294620460FF03BFD60B99DF8040000F071F9C00606D59DF8040000F06BF9EF
:2000C00010F0040000D001203EBDFEB5164615244FF6FF7290420D4615D100208DF804007E
:2000E000DFF8347A9DF80400F97988421AD23246294600F03EF800B100249DF80400401CE3
:200100008DF80400EEE71CF093F850B100F09DFB40B99DF804003246294600F02AF80024B2
:2001200000E014242046FEBD7CB50D46044606214C43164620346A460821204619F016FCF8
:20014000A8B900F078F890B99DF80700002E14BF054320EA0505E9B2814206D08DF807508C
:200160006A460821204619F015FC012076BD002076BD2DE9FC410646344606238846154614
:200180005C436A46082104F1200019F0EFFB00284ED100F050F800284AD100F028FA040007
:2001A00002D100F01CFA43E0397AE03689062246090E304619F0DAFB002835D1204600F094
:2001C00052F85FEA08000ED13A7A9206120E002120461AF0DDF938BB3A7A92000021204612
:2001E0001AF008FF16E0214600F02AF858B9280004D02146002000F023F810B900F00FFC1C
:2002000016E0A0F800808178A9420DD085700DB900210180204600F026F8397A8906224694
:20022000090E304619F0B6FB00F0F9FB012000E00020BDE8F6810622FF2168461AF0A8B9F5
:2002400070B5DFF8D4381D7A002200E0521CD4B2AC4206D231F824608642F7D101EB840096
:2002600070BD002070BD10B50021DFF8AC280AE030F82130DB4320F8213000EB8103491CB5
:200280009C78E4439C70137A9942F1DB10BD2DE9FE4FDFF884480646207A0F4691469A461E
:2002A00080001BF09BF85FEA000803D100F097F90A206EE00C9D02974FF0060B37461BFBDE
:2002C00007FB029A08210BF1200019F063FB8DF80400304600F09AF8227A00F07BF99DF8BE
:2002E000040000904246217A8906090E06F1E00019F050FB009E02990643206A082200EB55
:20030000C7001AF081FEF5B11022002128461AF03FF9C0B90299887900232A4600F001004B
:200320001BF082FF00281CBF9DF93C00002803D0DFF8EC17012008702A4610210BF123002E
:2003400019F028FB06435FEA090205D01C210BF1210019F01FFB06435FEA0A0205D01C21D2
:200360000BF1220019F016FB06430D9A4AB110210BF1240019F00EFB06430EAA00F032F9DB
:200380000643A07D08B100F095FA40461BF02EF8F0B2BDE8FE8FE0B5062358436A46082102
:2003A000203019F0E3FA10B99DF807000EBD00200EBDDFF86407007808210EF0B3B938B5B2
:2003C0000025DFF8544718E0206A06236B4300EBC5022033082198B219F0C8FA58B1206A57
:2003E0000622FF2100EBC5001AF004FE206A00EBC5010022CA716D1CEDB2E1798D42E3DB52
:20040000A07D10B1BDE8314054E231BDF8B5DFF80817DFF81037C9791E680C460A4600E0B9
:200420002A46D5B23DB1551ED2B2324412F8017C8742F5D12C46E4B220464D1E07E0171865
:20044000165C7F7817541A680244401C5670A8421A68F4DBAC4204DABDE8F840052019F0CC
:2004600099BAF1BD70B50024DFF8AC5600E0641CE879E3B283420BD22B6AE6B20622FF21EC
:2004800003EBC6001AF084F80028F0D0E0B270BDDFF89426117839B1DFF8880601680C7825
:2004A000204600F013F8204670BD38B500200024DFF8645603E0E0B200F008F8641CEA793E
:2004C000E1B2914201D20100F5D032BD2DE9F84F8146CB46062313FB0BFB8EB00BF120055D
:2004E00001AA0821284619F041FA002869D10622FF2101A81AF04CF8002862D100F077F81B
:200500005FEA000803D100F06AF80A205BE01C22FF2103A81AF06EFD3A7A00F05BF80BF18E
:2005200023060AAA1021304619F020FA60B91022FF210AA81AF02CF830B99DF80A0001A997
:2005400000F001001BF06CFE082200F03FF801AA0821284619F01EFA054603AA1C210BF150
:20056000210019F017FA8DF8000003AA1C210BF1220019F00FFA044603AA1021304619F0FA
:2005800009FA064603AA10210BF1240019F002FA824603AA00F026F89DF800100D43254329
:2005A0003543397A4AEA0505054389064246090E09F1E00019F0EEF9054340461AF016FFA5
:2005C00000E0002528460FB0BDE8F08FFF2101A81AF010BD9200FF2140461AF00BBD0420F7
:2005E00018F076BF04210BF1250019F0D3B9DFF82875387A80001AF0F1BE2DE9F84187B0FE
:20060000FF208DF80000DFF81055E8791AF0E6FE040003D1FFF7E3FF0A2030E01022FF216F
:2006200003A81AF0E7FCEA79FF2120461AF0E2FC0622FFF7CBFF03AA1021022019F0AAF9BD
:20064000064603AA1021032019F0A4F906436A460121042019F09EF90746E979224605208C
:2006600019F098F9054601AA0621062019F092F9804600F0D4F93E432E4348EA060008B0A4
:20068000BDE8F081DFF890144088097819F00AB9F0B5A9B006460D4614461BF0C9FD08B92B
:2006A0001420A6E0A422002168461AF0A3FCADF80060DFF86464F078F17B279A8DF8040080
:2006C0005208307C8DF8A0004B0801F0010040EA420222F0020203F0010342EA43020809AD
:2006E00022F4807200F0010042EA0022480922F4007200F0010042EA4022880922F48062D2
:2007000000F0010042EA8022890822F0040201F00101707C42EA8102279202280CBF012014
:2007200000200DF1260778741BF076FD412807DB707C00B108209DF8991008438DF899004D
:20074000F07CB8B10121B974202206F188010DF139001AF059FC202206F1A8010DF15900E4
:200760001AF052FC202206F1C8010DF179001AF04BFC00E0B874707B8DF8050090B1DFF8BE
:20078000AC73102207F110010DF106001AF03CFC9DF89900082805D1102239460DF11600C0
:2007A0001AF032FC307B8DF8260030B11022DFF880130DF127001AF027FC307948B1022D0B
:2007C00018BF032D03D1279840F002002790012100E000219DF899000143B0788DF89910AB
:2007E00000B1042001438DF89910684621461BF00FFD29B0F0BD2DE9FC41154615244FF6D4
:20080000FF72904288460ED10027DFF80C63F179F8B2884216D22A464146FFF785FC00B196
:2008200000247F1CF3E71BF003FD50B100F00DF840B99DF804002A464146FFF775FC00240A
:2008400000E014242046BDE8F681002100910023417901AA01F00101801D0FF061B970B5F6
:2008600004460D4606204543082B88B0164603D1300758BF223500D521351C220021FFF76D
:20088000A6FE01AA1C21284619F070F880B99DF81E00C01F0A280BD29DF830000090F208C4
:2008A00001AB02F0010206F0010120461BF0ACFC08B070BD38B51BF0A3FC0024964D0FE014
:2008C000286A0622FF2100EBC40019F061FE28B9286A00EBC40100201BF08EFC641CE4B239
:2008E000E8798442ECDB31BDF0B5924D0646686885B04FF6FF7438B9009502238E4A2146A5
:2009000001201BF075FC6860696819B30222FF2002920023039001930DF112072A88009754
:2009200004AB304606F03AFF60B99DF810009DF8111000EB0122100004D0686841893046ED
:20094000FFF7C3FB2A886868002321461BF04CFC686008B9012000E0002005B0F0BD3EB585
:200960000C46002501460095002301AA20460FF0D7F838B99DF80400FFF70DFDC00601D4FD
:2009800001203EBD00203EBD2DE9F0416B4F3C6806468846154603E02089B04224D0246808
:2009A000002CF9D10C201AF019FD040019D0268184F80A8000202060E07245B108212846DC
:2009C00019F0B8FF606018B900F029F80AE06060396811B93C6004E0014608680028FBD175
:2009E0000C600CB9152018E01BF0FAFB08B1002013E00120E0722A4641463046FFF748FEB1
:200A000004464548C06900281CBF4368002B03D000220021304698472046BDE8F0812046B0
:200A20001AF0E4BC38B505464448046803E02089A84204D02468002CF9D1012032BDE07AA6
:200A4000012807D100F05CF820B13348007804210DF068FEE17A491CE1722846C9B200F019
:200A600002F8002032BD38B5022904462A4D02D003290DD01EE042F6C921FFF7E1FA0200C6
:200A80001CBFE869002818D04368B3B105210CE042F6A621FFF7D4FA01001CBFE9690029DF
:200AA0000BD04B684BB102460421204601B0BDE830401847BDE8324000E031BD10B51F4AA1
:200AC0001468002101E0214624686CB123898342F9D1206800290CBF10600860606808B178
:200AE0001AF084FCFFF79BFF002010BD024604201249096819B10B899342FAD1C87A7047C0
:200B00000E48006828B1006818B1C17A0029FAD17047002070470000B41C0020680F0020C9
:200B20007245002004450020714500206842002098420020AC44002028E80100084500204D
:200B400038B584B004461BF073FB0622417901F001018DF80E10811D02A81AF055FA002078
:200B6000009000239DF80E1001AA02A80EF0D8FF9DF80400FFF7AAFC0546052120461BF0CE
:200B80002BFB284605B030BD92B009F00FF9DFF8F49709F1020009F1040114F0AFFE09F1D4
:200BA00014001AF081FCDFF8E0A7DFF8E017C9F80800002409F11C0041F2883200230490C7
:200BC000CDE9004A14F042FFDFF8C407DFF8C417DFF8C4670022152300901020B047DFF892
:200BE000BC171020002202234FF00208B0470EF00BFCDFF8AC17102001220125B047DFF885
:200C0000A41710204FF0FF32B04718F01FFD4FF0FF3015F087F90320DFF88C778DF8405059
:200C20008DF8188001218DF81C0004208DF81F0005208DF82400F148089010AA0020B84794
:200C400006AA01200121B84707AA02200121B8470DF11F0203200121B84708AD042005214C
:200C60002A46B8470AF10C001AF042F9DFF83C170AF110021020B04799F80210DFF830773A
:200C80005020B847DFF82C1702461020B04799F802105020B847DFF8201702461020B047CD
:200CA000DFF818171020FB2240F64803B047DFF810171020B047DFF80C0711F031FD4FF6E6
:200CC000FD7015F0E1FE99F802105020B8470346DFF8F406DFF8F4160422CDE9008010202A
:200CE000B047DFF8EC06C0211AF0A8F9DFF8E0064FF6FF71C02C02D001531834FAE74FF0B8
:200D0000FF3000214FF0000A15F094F8DFF87846DFF8C06600214FF0FF32A060DFF8B806F1
:200D20003060304619F028F8A068DFF8B0363146052218F0B1F8A068DFF8A4360021002274
:200D400019F0EFFFAE4EDFF8D8B6D9F8040000214FF040424FF0FF330DF046F80028F4D0EC
:200D60008046CDF818A007A80DF11F0106AA17F0E8FC002840F04F82BDF81C00102840F066
:200D8000458299F802009DF81F10814240F03E82069F4FF6FF703988814200F03882080AE9
:200DA000C9B2912900F0C280B02900F0FB80D02940F02C82B978072900F2FA80DFE811F01C
:200DC000080022012201220122012D016E01BF01002840F01B82B879F97A0024ADF843403D
:200DE0008DF84000B7F807008DF847100821ADF84100B7F80900ADF84500002010AA0DF014
:200E00001FFADFF8F8358020DFF8F875DFF8F0154FF0000A58604FF480703A465C75986078
:200E20000720187309F101000090102011F042FB000640F0A582DFF8D01528461F221AF035
:200E400057FEDFF8C8451F2099F801200023CDE900051020214611F02DFB000640F0908282
:200E60001C2099F80120214601230090DFF8A0050190102011F01EFB000640F0818299F848
:200E80000120DFF890151020922311F013FB99F80120DFF85C151AF0A9FB000640F07082F1
:200EA000DFF85C15DFF8703510203A46CDF8009011F000FB000640F063820B2099F8002076
:200EC000DFF8481500230090DFF850050190102011F0F0FA000640F0538299F80020DFF8C0
:200EE00034151020922311F0E5FA99F80020DFF800151AF07BFB000640F0428218F0F6F9D6
:200F0000DFF88404012140F6B83200230130CDE90010DFF8781409F1400014F097FDDFF80A
:200F2000B4040221002218F027FF6FE13E284DD00F2851D010285BD00E2840F06781B8886A
:200F400041F20541884240F06181B8680178002940F05C81C778B0F8010019F091F90728C3
:200F600000F254817F2F00F05181DFF8641400EB4000052301EBC004627C511C617404F1D3
:200F80000C018F54627CB2FBF3F303EB8303D21A002362740022052A00F0F5808F560132C9
:200FA0003B44F8E7397907F108001BF011F92DE1112927D1B888ADF82000B87B8DF82A00E5
:200FC0007889002800F0CF800020D6E0B8780C2840F01C810C2007E0B88842F2320188421E
:200FE00040F0148142F2320039460FF005FF0DE1082000210BF0F0F808E100BF0102030478
:2010000040E20100DFF8EC13DFF87C030A788068511C0232C9B2D2B28EE0DFF8D01310201F
:2010200011F048FA04467878002840F0D6807F89002000F11801D82900F0C780DFF8902391
:20104000105A4FF6FF7290420846F2D1DFF8800305944418032024F8187C1AF0A9FC002894
:2010600044F8140C00F0AD800821017054F8140CA0F8017024201AF09BFC002844F8100C83
:2010800000F09B8054F8141C01220023CDE90021BE4941F2707214F0D9FC92E0D3491020F9
:2010A00011F008FABC888246204619F0E9F808282BD0C749074600EB400001EBC00080688A
:2010C000D0B10394544605901AF0D6FC10B105981AF0D6FCDDF814A050461AF0F3FC504605
:2010E0001AF060FCBA4907EB470001EBC00040681AF058FCA246039C204618F047FB2046FF
:2011000016F0F6F9204615F0BFFC5FEA0A6007D104981AF0B5FCAF480221012218F02CFE63
:20112000B34F19F0B4FF19F0BBFEB24996480022097880680331C9B21AF050FB66E0BA883F
:20114000A84910202B4611F0B5F909F10C0018F021FF00285AD00446008910F0D7FC2046C2
:201160001AF020FC52E0ADF826A0D7F80600CDF82200B889ADF8280001209B498DF82B002D
:2011800010202A4640E019B20522274691FBF2F117F8132F07F8011CC2BBC9B24AB212F15D
:2011A0001E0FC0F2B580217D41F0020102292DD000234FF0020C0221C4E054F8140C1AF074
:2011C000F1FB012004F8040C059C82480121022218F0D2FD04981AF051FC14F0F80F08D197
:2011E0006948807828B9824F19F051FF19F058FE0CE0814C99F800201020214611F05AF987
:2012000099F801201020214611F054F9069F17B138461AF069FB5FEA48007FF596ADD9F8C5
:2012200008001AF055FA00287FF48FADD9F8080019F0A0FC0028F2D00746007801380828E0
:201240005ED8DFE800F0050F3A5D434C1D2026007868007810B1022852D10220294616F007
:2012600067F94DE078680078010743D4C00647D50E2019F0F7FD002842D116F0B9F93FE04B
:2012800018F034F83CE07868B0F8010010F03EFC3AE078684488204618F0F2FF07282FD8E0
:2012A0004B4900EB400001EBC000C07D40B35D491020224611F0FEF822E078680168B1F171
:2012C000004F1DD040681AF06DFB19E0786859460023C2881020009611F0ECF810E0022016
:2012E000294616F025F958B9032001212A4610F029FA05E00F2019F0B5FD08B917F09CFD42
:20130000786808B11AF04EFB38461AF04BFB86E7D82908D3217D0229FFF478AF00234FF085
:20132000010C01210EE0CE2908D3217D00293FF46DAF012304214FF0060C03E04FF0020CDE
:2013400004210223A6461EF8152F624503D1A27D012A3FF65BAF1E4ACDF814C0CDF80CE047
:2013600032F830000A4616F0F5FF039A0120059938701078884218BF84F816A0117045E7BD
:2013800019F0FCFD5022002074260020157B0100A426002059480100B5240100F1760100A0
:2013A0002D9E01006D7D010045170100E19E0100E5910100D96C02102D6D02100D520210AE
:2013C000397F0110A19A01006C28002059AD0000B039002000440020F9DB010009DD000026
:2013E000E0DB0100F9DC0110D9570110B9AF0100ED7401107945002065020210042600208E
:20140000990101105395010028E50100E1D40000582600201DEF011020260020E32700202A
:20142000598B01000D2B02102DE9F84F012017F0A9F8012816D1DFF89476387800211AF08B
:20144000C3FE040004BF002018F042F800202072201D0FF0FFFA05F0BDFA050003D1812095
:201460001AF0AEFE2EE301206871072013F01FFBDFF85CA6DFF85C269AF80100401C8AF8C4
:201480000100A879A0724020397811700DF088FD2860616D4A78206DD10620D5816C0A6834
:2014A0001179032908D0816C0868007903280CBF0120002018F00CF8206D816C0A6890F811
:2014C0006C0002F1080601281CBF002018F000F8216D486F296800F5B060C8604EE0416F9A
:2014E0000A681179032908D0416F0868007903280CBF0120002017F0EBFF206D416F0A687C
:2015000090F8A00002F1080601281CBF002017F0DFFF216DB5F87431D1F8A8002968DFF8E0
:20152000B825C86096F82670DFF8B005032F1FD8DFE807F002061014CA6802F5B06202E0C6
:20154000CA6802F53472CA6005F59A7201881187038811E0C86800F5355002E0C86800F63D
:20156000B870C86005F59A7011880187138803E0C86800F5B060C860A5F874310622286821
:20158000DFF85C75C168DFF85C9501F5B471C160B11C3078C0F3801085F82E0105F12C08E8
:2015A00005F5947019F030FD042206F10E0105F1240019F029FD386895F806C000F10C038F
:2015C000042206F10E0103EB4C1019F01DFD032206F1120105F1280019F016FD3868AB7945
:2015E00000EB4313032206F1120103F1100019F00BFD707D88F80200022206F1160105F1CF
:20160000300019F001FD022206F1180105F1320019F0FAFC022206F11A0105F1340019F0CF
:20162000F3FCB8F808006884022206F11C0105F1360019F0E9FC98F80200B8F80A10400029
:2016400088F802000901B8F80400A8F80A104000A8F8040089B2B8F806004000A8F80600D5
:2016600003046A8C521CDB0B5A438A4201D280B230B999F8000080210DF054F83B2124E1E6
:2016800005F12E0128461AF097FD0520A88128461AF08EFD052206F11E0105F1610019F02B
:2016A000B3FC96F82300400988F800001AF07CFD688205F59A72618D401AD08005F161019E
:2016C00096F8230000F01F0088F80F0028461AF067FD616D4A78206DD1064CBF816C416F43
:2016E0000868DFF804640021017141F62101AA793068520100238152A97900EB4112538018
:201700000022A97900EB41104260616DDFF8DC034A78D1060DD5DFF8D8138A7851060AD5AE
:20172000DFF8D023138841F20A418B4208BFDFF8C803C5F89C01D5F89C11284688473268E5
:20174000A97902F10E03490158543068A97900EB41120020D0733168A87901F10E02400115
:20176000115C88F80D10606D4178CA061AD595F8960108B917F0ACFE3068A97900EB41128C
:2017800095F89601411E11743268A87902EB401100224A743068AA7900F112015201002036
:2017A000885229E03168A87901EB4012206D90F8441011743268A87902EB4011206D90F852
:2017C00045204A743168A879CC4A01EB401110780EF0B0FA226D92F8443005F5CB710120C5
:2017E00003F0030398400870226D92F84400800814BF012002200871A87931683B6840018E
:2018000001F11402034413503068A979DFF8F0B200EB4112BB489061DBF814000078C1078A
:201820004CBF1F200F20DBF8141009788A0748BF40F02000DBF8141009784A0748BF40F0CF
:201840004000DBF8141009780A0748BF40F080003968AA7901EB421318723868A97900EBCC
:2018600041120B2050723968AA7901EB42100421A54A81721078012806D13968A87901EBE9
:2018800040120121D17207E0DBF824003968AA79407801EB4213D8723968A87901EB4012AC
:2018A0001F2111763868AA7900EB421100204876A8790DF091FCAA79396852018850AA79C5
:2018C00039685201885820B90721284618F012F8F8E08E48AA79016801EB02101AF05CFC19
:2018E000A8793968894B01EB4012196801EB00105060A979386800EB41125168C8F83C1022
:20190000AA7952018158C8F84410042199F800000CF008FF616D4A783068D10648BF022182
:2019200009D4A97900EB4112137C03F00303022B14BF04210621B8F8042095F806C04FF42C
:20194000C8738A18698AAA615143B1FBF3F35B1C6B6100EB4C10D5F800E0DEF80CC040F677
:20196000C41101FB02C2D21AA2F5A86282603068AA7900EB42139A682B689A6000F10C03D9
:20198000AA7952010C309B5C03F0EF038354A8793268400102F10C030C321B5C03F07F03BA
:2019A0001354A8793268400102F10C030C321B5C03F0F00343F0020313543068AB7900EBE1
:2019C0004310427B02F0F00242F0010242733068AA7900EB421398682A6810613868AA7968
:2019E00098F802C000F1140368694000520111FB0C0000F5F660985095F8960104280DD1B0
:201A00003868AA7900F114034FEA421C143053F80C20AB795B0102F56162C2503868AA799A
:201A200000F114034FEA421C53F80C20C5F83421AA7900EB4210C37C03F0F00343F00403BF
:201A4000C374DBF830003A68AB79006802EB431CB8F8062042436423B2FBF3F35943A1F52B
:201A60009661CCF81C103868A97900EB4110C27E02F0F00242F00402C2763068A97900EB48
:201A800041122868426095F8FD10080703D50E2128461AF07DFB1E49072008702046AA7992
:201AA0008AF8022016F016FA1A488178880704D5AA79002120461AF067FB28681649174A43
:201AC00041618261BDE8F14F19F0EABFD50F0020780E0020D70F0020900F00208E0F0020BE
:201AE0009C0E0020C70F0020980E002081010210C00C00209A0F00204DE50110CA0F0020DB
:201B0000B0E20100980C0020CC0F0020A40E0020C80F0020200E002019C800000204808075
:201B20002DE9F04F054687B0A978DFF8E066002710294FF0060A3CD8DFE811F0110063038E
:201B40006303630363033C00CC0063036303C7021201FD00180363039902DE025B0368786C
:201B6000002826D11AF00CFB04461AF005FB05461AF0FEFA8DF8000022461021022017F04D
:201B800009FF2A461021032017F004FF6A460121042017F0FFFE9DF80000012818BF0328B5
:201BA00007D101201AF0E0FA02460621062017F0F1FE26E368780028FBD195F80CB06C89A2
:201BC00000900023E97801AA01F00101281D0DF0A7FF00284FF0010872D19DF80400FEF72A
:201BE000DAFB8146BBF1080F08BFB846307A800019F0F4FB050003D1042017F069FC00E353
:201C0000707802280CBF0120002000905B469DF804104A462046FEF722FE1422002102A8C0
:201C200019F0E8F99DF804001AFB00F002AA1021243017F09BFEA8B91022FF2102A818F0E6
:201C4000A7FC78B99DF804001AFB00FA06AA04210AF1250017F08AFE02AA09F00101204677
:201C60001AF07EFA317A9DF8040089062A46090EE03017F07BFE98B92846FEF7F4FABA4656
:201C800009E005EB8000018819B18278204618F057FB0AF1010A317A5FFA8AF08842F0D3CD
:201CA000B07A30B95FEA897003D53178204617F0F9FD9DF80400FEF7A9FB284619F096FBB1
:201CC0007078022805D1B8F1000F02D0204613F001F996E2A888FEF7F1FE1AF03DFA00283A
:201CE000F7D1F07D012808D1FEF7DFFBF279706AF775002119F07EF917E0307E012803D1EA
:201D0000FEF77BFC377610E000240AE0706AE5B2415D012904D1E0B2FEF7D8FB716A4F55C5
:201D2000641CE0B2F1798842F0D3502018F0A8FBFEF745FB65E21AF053FA00280CD0F0694F
:201D400000281CBF0468002C07D0286900906B7B2A7B6989E81CA04752E26889012145E21A
:201D600068780024002840F0DA80A879C10740F1D6800822002105A819F03CF9A8881AF0CD
:201D800057FA040000F08E806F694FB30622002107F1110018F0FCFB68B3102200213846D9
:201DA00018F0F6FBD0B9387C00F001084FF0000909F1010987F81190002000900023002293
:201DC000414607F111000DF0ABFE00285FFA89F002D10028ECD101E000280CD1002068614C
:201DE0000622607900F001008DF81A00A11D05A819F00AF91FE06F69EFB1387C00F00100BF
:201E00008DF81A00062207F1110105A819F0FCF86079012805D10622A11D04F10C0019F07F
:201E2000F3F8062207F11101A01D19F0EDF8387C40F002006071A879410720794CBF40F0E6
:201E4000020000F0FD002071A9790A0754BF00F0DF0040F020002071A9799DF81B00DFF863
:201E6000B083890801F0010108438DF81B004FF0FF09A979C90801F0010140EAC1008DF823
:201E80001B00FF2469691E2779B31022684619F0BBF8102168461AF05BF94FF0000BDFF8C7
:201EA00074930CE0FEF72CFE0028D5D0307804210CF038FCD0E70BF101005FFA80FB99F82D
:201EC0000000834510DAD8F8001007FB0BF00A5CFF2AF0D0084400F10D011022684618F0F1
:201EE0001BFD0128E7D15C46A1460020009000239DF81A1004AA05A80DF012FEB9F1FF0FAE
:201F00005DD034285BD1707D30B3012857D1A88805211AF061F90124A888FEF7CFFD68783B
:201F20000B2804BFA888FEF70BFEF06900281CBF4368002B0FD06A78A88801219847687879
:201F4000002808D1A879C10705D5F369A88822465C680321A0474CE1D8F80000002117FBCA
:201F600009F90091002310F80910401C04AA48440DF0D6FD18BB9DF81000FEF7A7FAF0B96D
:201F8000FEF71DFAFEF76EFA8DF81000E86800280CBF00210169002201900392029105A9EC
:201FA000686900902B69AA689DF81000FEF76FF90446A888FEF798FC200046D14BE0002093
:201FC000009000239DF81A1004AA05A80DF0A8FD20B1FEF747FA8DF8100019E06869B8B1C3
:201FE0009DF810001AFB00FA6A4610210AF1230017F0BCFC60B91022FF21684618F0C8FA8C
:2020000030B99DF81A0005A900F001001AF008F99DF81000F179884227D2E86800280CBF69
:2020200000210169002201900392029105A9686900902B69AA689DF81000FEF728F9044680
:20204000A888FEF751FC200005D09DF81000FEF73DFAFEF7B4F9200008D1707A0028A8886B
:202060007FF45BAFFEF7DEFC59E7152454E7687806281FD1A8881AF0DBF8D8B1317D491EB7
:20208000032917D8DFE801F0020E08134179A8880022FEF779FC0DE00022002140F2094021
:2020A00003F042FAA88805211AF096F802E0A888FEF746FDF06900281CBF4368002B03D0B4
:2020C0006A78A888022198479AE000970023E97801AA01F00101281D0DF022FD0028F3D16C
:2020E0009DF804001AFB00FA05F10C0204210AF1250017F04FFC83E0F06900281CBF436833
:20210000002B03D0A888002200219847707810B9A88805216AE0A8881AF08AF8040070D01E
:20212000A87AC10712D5009700236179002201F00101A01D0DF0F4FC00281EBF6079002875
:20214000012803D0E868C0F3402028B1707C022807D1A87A010704D4A888032119F0F4FF07
:202160004FE06179A88805F1080227E02F7BAD8828461AF05DF8040042D01AF031F8002802
:202180003ED100900023617901AA01F00101A01D0DF0C6FC28BB9DF80400FEF7FCF807F02D
:2021A0000C07042F11D0082F0BD00C2F0FD100F0090109290BD0617900222846FEF7E4FB86
:2021C0001EE010F0090F02D1F5E7C107F3D501220092A37C9DF8041002462846FEF73FFB48
:2021E0000EE070780028E6D10521284619F0ACFF06E0FEF785FC18B1307804210CF092FA68
:202200000127384607B0BDE8F08F00BFB41C0020680F00206C4500202DE9F04F85B00D4649
:202220000295044615F8011B8DF801100022DFF8E81488788DF8002004F1660B19F086F877
:2022400001902C219DF80100DFF8D024032804F1F40604F5B07A04F59C7704F5C87804F2C7
:20226000171900F0E180072800F01582082818BF092811D00C2800F0D9810F2811D011283F
:2022800000F04681182800F094811A2800F059811B2800F07E811CE22946204611F034FA02
:2022A00017E2707ADFF8788481070AD40F2089F80200204619F044FF002872D198F80000A3
:2022C000DEE12878697800EB01223A82A878E97800EB01227A822879697900EB0122BA829C
:2022E000A879E97900EB0122FA82287A3876697AA87A01EB00227A83E87A297B00EB01225D
:20230000BA83687BA97B00EB0122FA83E87B297C00EB01223A84687CA97C00EB01227A8405
:20232000E87C297D00EB0122BA84687DA97D00EB0122DFF8F003FA8401788A0658BF4FF087
:202340001A0A13D504F5AA700490798B0391387E029021890191F88A0090BB8A7A8A398A90
:20236000204619F0E9FEE8B14FF01E0A707A41070AD40F2089F80200204619F0E1FE0028CF
:202380000FD198F800007BE152460F21204619F0CFFEF88A0090BB8A7A8AA179504613F05F
:2023A000A9FB74E104F18600798A81800023BA8AC2800222F98A018102704380A18EC91D89
:2023C000ABF81E10628E8188B1EB520F02BFC188A28E914202BF0089E18EB0EB111F21D0B4
:2023E0009BF81000012804BF9BF811000F280CD09BF8150000281CBF9BF811001A2804D032
:202400000F218BF81A10FE217EE0FC21204619F0BFFEF88A0090BB8A7A8A398AA07919F0D9
:2024200083FE34E110216FE0707AC10709D431781A200129707002D1FF220D213DE00D219D
:2024400062E000208BF800008BF80600012232712946082204F1B00019F062FE0146022236
:2024600004F1B80019F05CFE04F1A80501460822284619F055FE07460821284619F068FE1C
:2024800004F19C0504223946284619F049FE0421284619F05DFE04F1A00019F03DFE04F17E
:2024A000980019F035FEA048018841F0800101803078012805D1FF220421204619F024FE26
:2024C000E5E09BF811600F2E18BF142E07D00E2E18BF0C2E03D01A2E18BF162E13D19BF80C
:2024E0001070204619F00CFE0421204619F050FE012F06D18BF81A601A2E14BFFD21FB21A8
:2025000002E0314600E00421204619F041FEBEE028788AF800001A286B788AF8013040F0E7
:20252000D8801068A679431C4E4300209855A379126811FB03F111440871A1799AF801009E
:20254000C0E0A77910682E784F43074406F01F0317F8210FB60938B17878F040C00703D502
:2025600098F80600042805D120221A21204619F0DFFD8CE0FB701068A27911FB02F101444D
:20258000204681F82360002119F04CFA0028F0D174E0A37910684B430344D88808B900267C
:2025A0005E701068A27911FB02F10144002008716DE069782878884204BF084010F0070F24
:2025C0006DD19BF81100162806D198F80620A179134600200CF040F8022088F802000121C1
:2025E00001984177012398F8060098F80A1088F80000BAF81C2019F07FFDBAF81810814296
:2026000009D3BAF81C2098F80A1098F80000012319F072FD0146AAF82E10012198F8080039
:2026200040F0400088F80800397030E0707E012810D015F8011B31770222294604F589709C
:2026400019F06EFD0146022204F58A7019F068FD012070769BF8060030B93D21012289F8AF
:20266000011089F8002012E0F07E002804BFB07E00280CD1204619F03BFD30B928480078B2
:202680004FF480410CF04EF801E00120F07601218DF8001021E028780F2816D01A2818D1EC
:2026A000A07913684843184400234370A079126811FB00F150180371F07A00F0FB00F072A6
:2026C0001A20A1790EF0FFFAE1E7707A00F0FD0070722046029919F007FD9BF811001A283A
:2026E00015D19BF8120017281CBF1028FC280ED19BF81060204619F003FD012E03BF1A205D
:202700008BF81A00FB211A21204619F041FD9DF8000005B0BDE8F08F780E0020E0440020C0
:20272000C70F0020200E00209C0F00202DE9FE4F04460020009080460CB916F0C9FE04F1E0
:20274000500A41F62300DAF800603080A6F80280022232737273694620460CF077F908B9D3
:20276000072040E2009901B1B060B0682061DFF87C04017884F8C010DAF80400407A14F06C
:20278000B5FD25302076B07386F80F80DAF80410087D022804BF002016F09AFEDAF8040080
:2027A000007D012802D10020002104E083280CBF062002202021307404F12407717431465C
:2027C00078790DF0B7FADAF80400417848060AD5607DC10604D5E07F40F04000E07702E019
:2027E00040F04000607506F1600504F1300085F804804FF01E09B97E890001F0040129715C
:202800003067607DC10654D5DAF8042051788A060CD500F0FE006075DAF80400417811F0D1
:20282000030F03D1E07F00F0FE00E077607D19F057FCA0750023307CA27DC0F38001521C30
:2028400000F0030019F048FCA0831E20A18B01F59B7292FBF0F009FB1020C0B208B1C0F12B
:202860001E00411801F59B7161831E20A18B01F596718AB292FBF0F009FB1020A183C0B221
:2028800008B1C0F11E004018A08380B2E27D618B521E50434018608306F13408608BB43078
:2028A0008000B0660620E871E17F41F00801E17720E040F001006075DAF804104A7851070B
:2028C00044BF40F002006075607D19F009FCA0750023307CA27DC0F38001521C00F003006B
:2028E00019F0FAFBA083A08B00F59670A0830020B066E871A17D207D61F3050006F1900143
:20290000207508700322607D48708A704FF0000BB87E800000F0040040F003008870FA7E5F
:20292000D20002F00802104388700020C8700021C6F89810B88BC0F30B00B883DAF804107D
:20294000CA7D40EA0230B8830022617D01F0FE0120460BF007FC019617E004EB4B160199CD
:20296000202206F1640018F04FFB06F16C000521017106F16401A28B9200026078790DF002
:20298000D9F90BF101005FFA80FBE07D401E8345E3DB019E20460FF051FCE07D012809D0A3
:2029A00014D3032809D03EBF04F164007060CAF818800BE0C6F8048008E004F1640070606E
:2029C00004F18401CAF81810CAF8388041F62400B0860021F18606F14008B068618B00EBC2
:2029E0008100F0630221822088F8000088F80110002194F8210088F8031000F03F0088F81D
:202A00000200DAF80400807D012818BF022803D100F07F00401E04E083280CBF0620022074
:202A2000202188F8040088F80510DFF8C4B1DBF83C00416908687A7902EB82028118D1F801
:202A40000100A8F8060000207067DAF80410487810F0030F1FD019F03BFB7067DBF8180030
:202A60000078C1074CBF1F200F20DBF8181009788A0748BF40F02000DBF8181009784A076C
:202A800048BF40F04000DBF8181009780A0748BF40F08000287600206876DAF80410554A5A
:202AA000897C01F003016976B87E800000F0040001436976F87EC00000F00800014341F0CD
:202AC00010016976107828B1287E00F0FE0041F0400128766976E07F19F002FB84F8200021
:202AE000204619F0F1FAE07FC10636D5DAF8040094F820204178521C88074EBFD21EF87F7F
:202B0000121898F80400C0F380010023D2B200F0030019F0E1FA3880388800F59670C0F121
:202B20001E0190FBF9F009FB001987F80490DAF80410487881074CBF00204FF49B7039886A
:202B4000401838807880F06B39883A795218A63200EB8200F067022001E00020F067E876C0
:202B600004F13000C6F8880006F18C00DAF804104A78510706D504F138020260687E40F0E5
:202B8000200006E01C490A6851680160687E00F0DF006876A17F94F8200060F30501A1776E
:202BA00040F60B00A8F814000021A8F81610DBF8380000888000F065DBF83800008800B18D
:202BC000072028700220687094F845106980DAF804004178880744BF01216980009808B1F5
:202BE0000AF0F4FC0020BDE8FE8F00BF68450020B0E20100880E00206C0F00202DE9F843D8
:202C000005460C46480413D4A00024D4A0075CD460057ED4200500F10681200700F13B814D
:202C2000600040F1F68011F0EBFC24F08044F0E018F0A6FCDFF81C140F6D3FB1D7E90A1204
:202C400002F0E04201F00A01891849D018F046FE24F48044DDE0BB48DFF8FC73016841F0E2
:202C600080010160B878012804D1042015F0EEFD0020B87018F084FC0646042018F0BCFC30
:202C8000DFF8D8130A68904219D12A7EBAB1FA68AAB1DFF8C003806C002800F09780C16896
:202CA00040F603020988914206D0C06840F604010088884240F08A8005F1140088E040F608
:202CC000C4120860C5E9042284E007F019FDDFF88403006C002840F09D8024F0020498E0A0
:202CE000D7E90A65D7E90A12AA43B143C7E90A1218F0F4FDB8680028AAD056EA0500A7D0A5
:202D0000D7F808C03869B7F9301032462B46E0479EE718F035FC054616F0D4FF002800F081
:202D2000B780CC48876B002F00F0B280DFF828830420CB49002288F81800C64818F007F87C
:202D400018F0E1FDC74818F0BDFDC7480068006B8047C8F810000125042088F8025015F022
:202D6000F3FF386990F82810C8F80400490703D5436A042100229847012012F05BFBD8F8F8
:202D8000040045760DF02EFCD8F8040081680B461A465B684BB11E88A6F60306072EF7D8D1
:202DA00005FA06F616F0830FF2D0537B03F0F003013353730023FD6853602D88A5F603057D
:202DC000012D00F28A80C8F810309FE005F1100014F0B2F8304618F081FD15F0CDFF78B1A0
:202DE0002E6A28466FF4807100224FF00073B0479848806B10B111F003FC01E044F0020407
:202E0000EE692846002100224FF08063B04724F0005434B1974821462830BDE8F84318F0BE
:202E200023BEBDE8F8838C4EB078012804D1042015F00CFD0020B07015F09EFF38B17068BC
:202E40006FF4807100224FF00073056AA847306950B185480068006B804732697168801ADD
:202E6000000BC860002030617A4D81490022284617F06DFF02203076286C20B17D480221C5
:202E8000283018F0F1FD11F0BBFB24F40064C0E718F039FD41E018F073FB054616F012FFD3
:202EA000A0B1DFF8B48198F8000000070ED498F9000000280AD468460DF0DCFC08B10098D1
:202EC00020B1DFF8B49199F8610048B318F01BFD11F096FB24F008049BE7034633F8385FB9
:202EE000A5B190F8445090F8456005F0F00580F8445006F0F005013580F845500025536037
:202F0000C5634587507B00F0F000507357480022C2610160012017F073F924F4806478E71B
:202F200000260127602E0FD009EB0600817A31B18772407A07FA00F0C0B215F0A1FC2036F1
:202F4000F0E700BFCC210840032088F81800454818F0B8FC18F0D7FC444F3E4D00227869A6
:202F600000207861F968F8602846444917F0EFFE3D480068006B8047D8F80C10D8F8202095
:202F8000411A02EB1130B0EB113F38BF4FF0FF3098F82410C8F8200021B1D8F80810B0EB5F
:202FA000C12F20D917F03CF9B8B140F60900414621F83C0F002048804A7B02F0F002013295
:202FC0004A730A7B02F0F0020A734860F8613960B8F83E0010F4406FFAD00020C8F8200049
:202FE000012088F8240013F0E3FC2548002101600220002117F004F9022015F027FC10207A
:203000000CF080FC98F8010020B9D8F80400503018F026FD1B48807810B90D200CF072FC94
:2030200098F8250028B1002088F82500052015F00DFC002088F818001348C8F81C000220F9
:20304000B5F85610B5F85420914208BF072010F0B9FD3DE718230020B020002054280020BA
:20306000A19C0100C03F00208C0100100010044029CD0000B4220020083D00206546010005
:2030800000000460C4E6010011C700002DE9FE4F0546DFF82C04DFF82C640278002A4CD06D
:2030A000052A73D0062A00F08080072A18BF082A00F0F5800A2A00F0D681112A02D0132A1A
:2030C00070D0F4E1DFF800341878002119F07CF804001EBF606D407810F00C0F2DD0216D96
:2030E000C0064CBF886C486F016801F108050622A91C684617F088FF287800F00F010529F5
:203100001BD145096946C0F3801018F0D9FF002813D03168684618F0CFFF0746316804F1A0
:20312000380018F0C9FF87420DD0606D4178C80604D440F2014018F0BBFFBEE1607B40F0D6
:2031400002006073B9E133681E2010FB07F6981906226946C01D17F057FF606D4178C80609
:20316000F0D5A17B0129EDD1DFF860038178480605D5E90703D4206D41F20A4102E0206DEA
:2031800041F2044141804183418696E118F046FC0028FAD110F048FA012802D0012018F051
:2031A00083FF8AE112F07FFB87E1DFF82453286818F076FF0400F7D020790328F4D1207AF5
:2031C00000F00F01072937D1C24800684169497A4A1E11425CD0617A04F10A035A5C02F06C
:2031E0003F02252A54DBA17A8A09012A50D111F03F0F4DD0007C17F0F3FEE17ACA074CBFFF
:2032000004F1110204F10B028B0748BF921D0B0748BF921CC90648BFD21C127852091621B5
:203220004A43AD498B180A31EB608A5A428699898186DA89C2862BE000F00F00082827D130
:20324000A17A880924D119B3A2480168087C17F0C7FEE17A074688071AD5062201F001011D
:203260005143601800F10C01684617F0CDFE207AC009694618F024FF50B1306800F10D01EF
:20328000684618F009FF18B90521384616F032FB2079032802D0002016F01AF903E1DFF83E
:2032A0003CB29BF802000024FF281BD017F098FE804608F16C09D9F8040018F0F1FE2A4648
:2032C0000179032901D011000CD08368197801F003008D06009003D50124009818B9BFE0F2
:2032E0001000FAD0E9E05D7803F1020A34B31AF8010B7B4B01902C2098F806C01F6810FBC6
:203300000CFC67444FF0010E87F805E0002A1F6898F806E007F11A0C019F10FB0EFE07F055
:203320001F070CF80E7098F806701B6810FB07F01844019BC3F38113C3761AD10098032831
:2033400008F217171AD0ADB199F8000068B108F1F4000278012A0DD1594B1A78072A04D0A8
:20336000082A04BFC078012804D13D21797001203870A2E05B4A1378012BFAD098F8940046
:2033800070B32D1FEDB253462A4640460EF096FF00281EBF54490878002807D13D21797094
:2033A00001203870306818F073FE86E04F4801688847064698F80610DBF804204FF4D07092
:2033C00041435018002280F8412108F59E700168807949080FF0FCFB45490A683046904704
:2033E000009803281ED043494869007882070DD598F89400002814BF281D28464A691178EE
:20340000CA0748BFC01C1AF8000000E0812089F808002A460098C3B29BF80200514605F03E
:2034200005FB1DE09AF800001CB11B2804BF022D01251C2803D230490B5C9D4205D0B87000
:203440000721404618F0A4FE0AE01D48017808295146404602D118F09FFA01E0FEF7DCFEDA
:20346000D9F8040020E0254C207830B3244D286818F016FE08B3017903291ED1017A8A0613
:2034800011D5807AE178C0F38112914202BF217900F01F00814206D1A078002801BF6078FE
:2034A00000280121A170286818F0EEFD05E0002016F00EF8862018F083FEBDE8F78F00BF04
:2034C000C80F0020680F0020D50F0020C00C0020BC0A0020540F0020E0070020780E002058
:2034E000E0440020D20F00206D450020C0260020C4260020B0E201009CE501005C440020D0
:20350000AC0C00202DE9F04F0F46380589B018D5DFF8E4532888FF280ED0C0B217F060FD2D
:20352000040009D0A079162118F0AAFD204617F04DFD20460AF0C0F8FF20288087F400603E
:20354000D6E1F80504D513F02AFC87F48070CFE1B80604D518F036FA87F02000C8E1F8078C
:203560000CD517F01BFF30B100218160DFF88C03006800B1804787F00100B9E1380704D5F6
:2035800018F022FA87F00800B2E1F8060FD50021002200230691059204910393029101922E
:2035A0000091022018F068FD87F01000A0E1B8070FD5002100230691059104910393029111
:2035C0000191009101223C2018F056FD87F002008EE179074FF01E08C94EDFF828A340F137
:2035E000CD80C9480022002108920791007818F0EBFD0446C5488178FF2904BF002015F030
:2036000067FFA07A17F0ECFC05469AF8000095F82E91002805F5947B69D0606D807A0228B7
:2036200018BF032807D130680D3018F021FD10B93068C11D07915946484618F041FDA0B318
:20364000606D807C3368002818BF012804D11946584618F031FD04E05A464946184618F05D
:20366000EBFDFF2843D018FB00F83068404406225946C01D17F0C8FC306810F80810404456
:2036800000F1010BC01D41F0020908900622616DC87A00F0010085F82E01606D00F10C01DC
:2036A00005F5947017F0B0FC21E05946484618F0DBFCE0B130685A46494618F0BDFDFF280B
:2036C00015D018FB00F8306840440D3018F0D0FC58B9306840440D3018F0CAFC002801BFAD
:2036E00030684044417F012901D149F0020905F12C004B460178069142891209059201224B
:20370000698C0491C0880899029140080390CDF800B0079801900020A97918F0ADFCD5F863
:203720009C017B4988420CBF00210121A87918F097FC7848AB7902682C214B4313440122F1
:203740001A73AB7904684B4323445A73AB7904684B4323449A73AB7904684B432344DA7326
:20376000AB79006811FB03F10144002008740720A97910F0AEFE87F00400B9E038060FD5B1
:2037800000210023069105910491039302910191009101223B2018F06FFC87F08000A7E068
:2037A000F8045DD55C4930680C680D3018F060FC002844D13068C11D0D3018F04DFC3EE02A
:2037C000606D4178480704F13E0526D5287802281EBF03286878012830D16978306804F197
:2037E000380218F029FD8146B9F1FF0F15D0306818FB09F948440D3018F03AFC68B9306890
:203800004844C11D0D3018F027FC30684844C11D062204F1380017F0F7FB2878022818BFE5
:2038200003280BD130680D3018F022FC30B93068C11D062204F1300017F0E6FB2468002C3A
:20384000BED13648DAF8042000784FF4805113F0C7FC10B18E2018F0FBFB87F4805047E034
:20386000B80505D517F0AAFE2D4901200860FEE7780504D518F047F987F4806038E0780491
:2038800005D5812018F0E4FB87F4804030E0B9042DD5244C206810B1002015F019FE4FF088
:2038A000FF3020600020204C0EF006FB216851F8202F684690471D494A6B086BC96A2468DB
:2038C0001B4B019200900293ADF810106B46194A19491A4803921A4A07922568194AA847BC
:2038E0001949086004F05CF887F4005000E0002009B0BDE8F08F00BF4A250020480F002049
:20390000680F0020880E0020D70F0020780E00204DE50110E04400204C0F0020C70F0020B6
:203920007C052043380F0020200F0020402000207DB301008DB301003C440020D83700202C
:203940001EFB0080504100201C0F00202DE9F84FDFF80C54A9780024FF2904BF002015F0E9
:20396000B7FDA87817F03CFB054605F1680605F5C9773168086805F1900808B1EC8311E09C
:20398000B07B002804BFB07E00280BD198F80010002904BF3878002804D1287F012804BF13
:2039A000688CE8832989E88B4118491C6981284618F04AFB01281EBFDFF8A80301780129F5
:2039C00003D12989EC83491C69814FF6FF79B07E01280DD1B28B6989288918F031FB38B1B4
:2039E000298968894A1C93B298422FD0B08B23E098F8000001280FD1B8F802206989288954
:203A000018F01EFB40B1298968894A1C93B298421CD0B8F802000FE03878012816D17A881D
:203A20006989288918F00CFB80B1298968894A1C93B298420AD0788892B2904206D0484429
:203A4000688180B218F0F8FA4844E883387801280FD128897988401C80B2884209DB7C79BE
:203A60003C71022038702346A979224600200AF0F3FD05F59A71087920B128890021401C4D
:203A8000E9836881B07E012813D12989B08B4B1C9BB298420DD1688118F0CEFA804605F1C8
:203AA0002E008188308C01FB080828460FF088FB03E005F12E01B1F80480E88BDFF8A8A24E
:203AC000411C01FB08F82968CA6840F6C41909FB0822CA60A5499AF80F20D30702D56B8A0A
:203AE00000220BE00A88521C93B2012B03BF05F59A7CBCF8063003F2DC536B8A03FB08F37A
:203B00004FF4C87CB3FBFCF35B1C6B610A8085F82000C5F81880DFF858B2AB79DBF80000EA
:203B200000F108025B01D1582A68116100F10801AB79D26868695B01121ACA50DBF8000063
:203B4000AB7900F108025B01D1582A68916000F10C02A97949010C30535C03F0F00343F0CF
:203B600002034354DBF80010A8798A1C400100211152387908B915F0ABFCDBF80000AA7926
:203B800000F110013879520140088854DBF80010A87901EB4012002151743879042812D113
:203BA000A879DBF80010400101F110021031135C3A7A43EA82030B54DBF80000AA7900EB66
:203BC000421120204874DBF80010A87901F112024001002111526749A8790A6802F114037A
:203BE0004FEA401C143253F80C00AB79D5F814C05B0100EB4C00D050B07E02280DD10A6873
:203C0000AE7902F11403760114329859AB7995F82E605B0119FB0600D05005F12E029AF838
:203C20000F00C3075BD5DBF80000AE7900F1080476010830A359AC796401A3F5A863035158
:203C4000DBF80000AC7900F10803640118592B6898600446484800FB0848C3F8108008682F
:203C6000AE7900F1140476011430A359AC79640103F5F6630351387904280BD10868AE79DE
:203C800000F1140476011430A359AC79640103F5616303510868AC7900F114036401185957
:203CA000C5F83401354B186B0C68AE799288006804EB461742436424B2FBF4F409FB04F00C
:203CC000A0F596692E48C7F81C900278012A2FD10868A97900EB41120120D0722FE0042C58
:203CE0000BD10868AE7900F1140476011430A359AC79640103F561630351387904280CBF4F
:203D00004FF4AA504FF4E6600B68AE7903F114047601A359181A938809FB03F3A3F516735C
:203D20009842BFD30821284615F0E4FD012014E0586A0968AA79407801EB4213D872DBF819
:203D40000010A87901EB401229684A6007200D4A107028460FF0FAF90020BDE8F28F00BF56
:203D6000780E0020D10F0020980C00205A450020980E00209C0E00203CF6FFFFB0E20100C7
:203D8000CC0F0020C80F00202DE9F041FF2806462AD117F0D3FC10F01F0F22D0042014F05E
:203DA000D5FB08B1042016E0012014F0CFFB08B1012010E0022014F0C9FB08B102200AE0F8
:203DC000102014F0C3FB08B1102004E0082014F0BDFB20B10820BDE8F04114F0EFBB15F0BE
:203DE00077FB0020BDE8F08114F0E8FB5FEA000814BFD8F804500025012E46F2A81740F66B
:203E0000C4140BD0022E69D0042E00F0B780082E00F01081102E00F05781E2E7012014F082
:203E200095FB00281EBFDFF86803006800281CBF8788BF00102014F089FB18B3102014F0BB
:203E4000BDFB040002D066685EB900E00026022014F07CFB28B1022014F0B0FB040018BFC7
:203E600066686DB1012014F071FB002818BF002E06D0B068C11BA86816F0B2FA00282BD0E9
:203E80002046AFE7022014F061FB38B1022014F095FB040014BF666800260AE0042014F028
:203EA00055FB50B1042014F089FB040014BF66680026002DE4D001203EE1082014F046FBAC
:203EC00028B1082014F07AFB040005D052E0012014F03CFB002885D0404683E7022014F06E
:203EE00035FB58B1AB480168AB48CA69017801EB81015318DF88674307F51667042014F003
:203F000025FB38B1042014F059FB040014BF6668002622E0082014F019FB98B1082014F09A
:203F20004DFB040002D06668BEB900E00026012014F00CFB88B1012014F040FB040018BF78
:203F400066680AE0012014F001FB50B1012014F035FB040014BF66680026002D90D00220B8
:203F6000EAE0102014F0F2FA30B1102014F026FB0400B1D06068EAE00220A9E7042014F030
:203F8000E5FA50B18548016885484A69017802EB01139F89674307F51667082014F0D6FACA
:203FA00098B1082014F00AFB040002D06668DEBB00E00026012014F0C9FAA8B3012014F0DC
:203FC000FDFA040018BF66682EE0012014F0BEFA38B1012014F0F2FA040014BF6668002691
:203FE00022E0102014F0B2FA98B1102014F0E6FA040002D06668BEB900E00026022014F03B
:20400000A5FA88B1022014F0D9FA040018BF66680AE0022014F09AFA50B1022014F0CEFA93
:20402000040014BF66680026002D23D0042083E004204DE717F0EAFC08B1D0F89470042020
:2040400014F084FA38B1042014F0B8FA040014BF6668002632E0012014F078FA58B101207D
:2040600014F0ACFA002D044604D0082014F06EFA00286ED104E7102014F068FA98B1102056
:2040800014F09CFA040002D06668BEB900E00026022014F05BFA88B1022014F08FFA0400FE
:2040A00018BF66680AE0022014F050FA50B1022014F084FA040014BF66680026002DD9D0BB
:2040C000082039E0082003E7032017F0A1FC08B1D0F89C70022014F039FA38B1022014F0D1
:2040E0006DFA002D0446C5D01020BFE7042014F02DFA38B1042014F061FA04000CBF0026C7
:20410000666816E0082014F021FA18B3082014F055FA040002D066685EB900E0002601206C
:2041200014F014FA28B1012014F048FA040018BF6668002D9ED0102014F008FA002818BFB4
:20414000002E97D0B068C11BA86816F049F9002890D1C1E6012014F0F9F9B0B1012014F0B1
:204160002DFA040014BF66680026002D05D0102014F0ECF9002818BF002E3FF481AEB0688B
:20418000C11BA86816F02CF9E1E71020A0E600BFF4440020500F0020D80F0020540F00206A
:2041A000D90F00202DE9FE4F0422FF2101A816F021FFDFF85C63B0780024FF2800F0A58160
:2041C00016F00EFF0546B07817F0C0F8834605F217100178012908BF417800F01F8105F10A
:2041E0007406B07B022820D105F12E0105F12E008A8800899BF81C70A97905F12E03520859
:204200000009DB880090C7F3C007002F09D0002017F00EFF9BF81C0000F0F7008BF81C00B0
:2042200002E0302017F004FFB47395F89201022808BF85F89241307F022808BF347705F575
:204240009278B8F80E1019B198F80C000AF06AFA072010F02CFC6889AE4F288105F58D73E2
:20426000BA7AF879397B80184118F87A0818797B4118009105F58D708188491C8180009886
:20428000B5F81A114118A5F81A1105F58D71488810185880D8F80000C0B19F490B68A9799F
:2042A00003F10E0C49010E331CF801C030F81CE00099714420F81C10A97949015B5C00EBCC
:2042C0004300B0F84A105218A0F84A2014F074FEF879DFF84892002804BFF87A002805D13A
:2042E000387B002804BF787B00283FD09BF81B00ABF80E40C009A2460FD09BF81C0000F028
:204300000701022905DA411C61F302008BF81C0003E0A879002117F083FB2989E8892C74CC
:204320004118287FA981012804BF688CE883A9790122072010F0CDF8787858B1012129771C
:20434000B078002804BFB07B002803D1307F08B9688CE88398F81400002868D0022804BF63
:20436000F87A00285ED188F8144060E0A9790022072010F0AEF8EC839BF81C1011F0070F0A
:2043800003D19BF81B00C00903D0A879002117F047FB287CB97A05F58D7259B14FF0010A50
:2043A00008B1E889A8812C74287F012826D1688CE88323E0D188491C4FF0020AD180E8B1EE
:2043C000D9F80000AB7995F82EE000F1140168694FEA400C40F6C4105B0110FB0ECC0CF5A5
:2043E000F66C41F803C0D9F80010A87901EB4010C17C01F0F00141F00401C174A8892989B4
:20440000814206D0884297D2081A41F2AB01884292DA108800280CBF3E210821284615F013
:2044200069FA72E0787A10B1022188F81410F87BC1070ED538692968C86000F5B470C86094
:20444000D9F80010AA7901F1140052010021815013E0D9F80000A97900F11402490150582E
:20446000C8F810002C48AB79016801F108025B01D0582968C860EC832C77294A506900787C
:20448000810702D5B87B802800D181203070254991F8200018B12946012017F0B5FA28463C
:2044A0000BF06AF802281BD1F079022805DB01AA1D49284610F0AEFC0446284617F0B4FD7D
:2044C000012822D020000DD0224601A9284611F08DF838B928460BF04FF8012802D114E02D
:2044E000012812D00121284617F09AFDFFF72EFA01280AD0284613F058FA17F0D1FA009835
:2045000081B22A46504609F04DF9BDE8F78F00BF780E0020980C0020980E00209C0E00203F
:20452000B0E20100A44100207C2800202DE9F84F054605F14C0AE87D9AF80010DAF80470DE
:2045400081424FF00008C0F0918105F1280407F1980907F17B06C34640F08C80A87F70750A
:20456000E97FB175DAF808205278930710D5EA7FD30604D5C01E707501F0EF01B175C7F8C6
:204580007CB086F800800022B17D01F0FE0168E1910608D4E08B00B1E07E3076E08B00B1B9
:2045A000206AC9F80000DAF808004178CA070DD5E08B00281CBF206A002807D0C9F80000B2
:2045C000A17EE08B814238BF08463076E87FC1060CD5F86B217800EB8100F863F86BA98C39
:2045E000A63100EB8100F867022002E0C7F87CB000203070DAF80800417811F0030F22D1D1
:20460000007817F007FA5FEA00081CD098F8B400032809D1E87F810615D440F02000E8770E
:20462000B07D40F020000DE068B9E87F81060AD500F0DF00E877707DA0F112017175B07D50
:2046400000F0DF00B075E97F002201F0FC01284609F088FDB8F1000F36D0E87F810633D54E
:2046600098F8B40002282FD141462846BDE8F44F17F0DEB9E87F81060AD500F0DF00E87756
:20468000707DA0F112017175B07D00F0DF00B075DAF808004178C80717D5B07D717D00F029
:2046A000F700891E01F03F0182075CBF891D40F00200420644BF491E00F0BF00B075717543
:2046C000C9F800B086F81880D0E09AF80020E87D121AD2B28907009240F18080012A07F166
:2046E00044083ED1F86BA98C00EB8100F863A87F00F03F00A8777075E97FB175DAF808201E
:2047000053785A0703D5801F707501F0FD01B1750023717D98F80000E27E01F03F018A1828
:20472000C0F38001521C00F0030017F0D5FC00F59B70A8841E2180B290FBF1F0B17D82B2A1
:2047400001F0FE01284609F00DFD86F800B0E08B00B1E07E3076E08B00B1206AC9F8000043
:2047600084E0F86BA98C022A00EB8100F86325D1E87FC10706D5707D811F7175B07D00F0BA
:20478000FE00B0750023717D98F80000E27E01F03F018A18C0F38001521C00F0030017F086
:2047A0009BFC00F59B70A8840022B17D01F0FE01284609F0D7FC607FA8F81E00617F0098A7
:2047C000491C081AC0B201281CDDF96BAA8CA63201EB8201F9670221317014E0F86BA98C2D
:2047E00000EB8100F863617F0098081AE97FCA06C0B207D5F96BAA8CA63201EB8201F96791
:204800000221317090B395F81F80A97FD9F80020E37E1A44C9F8002028F00108DAF8082091
:204820005278530748BF28F00208920748BF28F00808012807D1207F3076C7F87CB028F01A
:20484000100886F800B001F0C004404617F048FC00F03F002043707586F81680002208F0E7
:20486000FC012846BDE8F84F09F07CBCBDE8F18F2DE9F04F8FB0074618984FF0000C002A85
:2048800001938DF8200000F08D810AA80E464FF0200A002400F1100ECDF800E0114611F83A
:2048A000010B25280E910CD0002800F07781022EC0F00C81013E002F00F0078107F8010BB6
:2048C00004E15378901C0E902D2B07D14FF00109D01C8DF80D900E90937803E04FF0000983
:2048E0008DF80D90302B05D10121069110F8011B0E9002E01946CDF818C04FF0FF322A2949
:20490000CDF808C004922CD1019D29680A1D2A60D1F80080CDF80880B8F1FF3F10F8011BF6
:204920000E9007DC4FF00109C8F100088DF80D90CDF808802E2925D1CDF810C0024612F849
:20494000011B2A290E9220D1019D29680A1D2A60096821EAE17BCDF810B0417802300E9091
:2049600027E04FF00008A1F13002092AE0D810F8012B08EB880501EB4501A1F130080E90EC
:204980001146F0E74FF0FF3B13E04FF0000BA1F1300009280AD812F8010B0BEB8B0501EBD6
:2049A0004501A1F1300B0E920146F0E71046CDF810B0302B41F0200306BFCDF818804246F2
:2049C00000226C2B06D101218DF80C1010F8011B0E9001E08DF80CC0CDF81CE00AAB692988
:2049E000CDF814C0099301D064290CD1019B1868011D19609345C8BF5A46016870466FF017
:204A0000090306921EE075290AD0A1F16F03092B5FD8DFE803F0058C6A6AA76A6A6A6A059A
:204A2000019D2868031D2B6078294FF0080308BF1023752908BF0A239345C8BF5A460168BE
:204A4000069270460EF080FDDDF800E00990AEEB00010591A8EB01004FF0000CB9F1000F77
:204A600002901CD109E0022E06D3013E1FB107F801AB029800E00027013401380290F2DA9E
:204A80000DE00998022E07D3013E27B1007807F8010B099800E000270130013409900598A0
:204AA000411E00280591ECD19DF80D0078B10298013802900BDB022E05D3013E17B107F8F8
:204AC00001AB00E000270134F1E7002701340E9AE4E6632909D1019A1068011D116001211E
:204AE000006805918DF82800B4E70138022E0E9052D36FF000400BF1010186426FF0004040
:204B000038BF30460246B34538BF0A46002908BF024604920EA9019A02AB05F039FFDDF8D2
:204B200000E09DF80D90DDF80880059992E7019A10231068011D11600821082206919DF89B
:204B400020100029016870460EF0FEFCDDF800E0A0F101014FF04002099100F8012CAEEBC4
:204B6000010176E7019A1068011D11609DF82010006800290D49002808BF0846099016F0AC
:204B8000A1FC0146834538BF59461BF1010208BF0146DDF800E05CE700215BE70FB100207B
:204BA0003870A44660460FB0BDE8F08F7CD501002DE9F84F05004ED0DFF8EC8298F8000033
:204BC000092818BF0A2804D00B281CBF0C280D2801D1212065E1A878002117F0F5FA0400BC
:204BE00008BF4220F6D0B14FA978DFF8C4A2397098F8000010B9A8788AF8000004F1480681
:204C0000F068417801F01201022902BF706900280C2012D0607AF0B1A07B012804D1B5F843
:204C2000030008B1812816DA6878402813DA20460BF07CFDB06808B9072032E1B561287847
:204C400001281FD1A07B00281CBF0128042819D19848007808B9122023E197494A78824229
:204C600008BF0920F8D0F068417848070AD504F1220180204A7F04F1380106F041FE08B1A0
:204C80000B200EE1687808B911200AE12878DFF82C92DFF82CB2012840F0B2800021217313
:204CA0007167217A012903D1B16968794871F7E011200FF0FCFE012000212072E1726173D3
:204CC00025460AF06DF96060DBF8000080477D4A0146106802E06A68426000680028FAD178
:204CE0000846D9F8001088476968774848610021387816F081FE3978012211200FF0E9FB3F
:204D0000F0684178C80605D5284601F029FD010024D0C6E0688C16F0C1FE85F82100F0680B
:204D2000007816F077FE04001CBF94F8B400002807D0E87F40F02000E877687D40F018001F
:204D40006875284616F0AEFE0100E2D134B194F8B400012804BF284616F066FEF0684178A8
:204D6000C8071CD505F14204A18800291CBF3068002814D022788A4211D20F2017F04CF9A2
:204D800068B1F06801788DF800100F20A288ADF8012021788DF80310694617F039F998F8CC
:204DA0000000A0B94949087800281EBFF068417811F0030F03D04648006817F025F9112040
:204DC00088F800000121297216F06AFE68E0284613F0A8FE00281CBFB168002960D0AA7B2F
:204DE000012A04D02A69808802EB800202E0486E2A69821895F8C010104609F04FFF4FE0BC
:204E0000207A00284CD0DBF80010884705463878012116F0F1FD00202E4920720A683E78A0
:204E200011460B68187A002802BF586D0378B34203D0C9689142F4D10BE0274E307801282B
:204E400007DD084613F02EFB16F0D0FA3078411E31703A789AF80000824217D116F09EFAEE
:204E60006168884212D114F0A7F840F2014017F01FF91A491A4A1B4808600121107809F052
:204E800051FCD9F800102846884709E0204617F0B7F8D9F8001028468847204613F01AF809
:204EA0000020BDE8F28F00BFC80F0020D60F0020D50F0020D40F0020780E0020C42600203A
:204EC000C02600204C0F002031830000880E00206C0F0020F44400206A450020480F0020AE
:204EE000C70F0020059200002DE9FE4FDFF81883D8F804601EB9BDE8F74F17F07DB8307876
:204F0000DFF80893C24FDFF80CA3012818BF02280AD004281CBF0828102805D0402818BF01
:204F2000802800F09F8067E116F00EFC0028FAD0012013F00BFB20B1012013F03FFB13F014
:204F4000CDFA082013F002FB20B1082013F036FB13F0C4FA3078FEF717FF050014BF6C6815
:204F600000249AF80100002850D016F095FD16F037F8064630680090D0F804B0B0798AF8CA
:204F80000300CCB10099284616F084FD022813D02978012902D008290CD02DE128B917F056
:204FA00027F800F5E8504C30A060012088F8020011211BE1082016E10098017880290CD1A2
:204FC0000820954938700A78DBF81400012A1ABFD9F824100978012113E007203870B07923
:204FE00016F0B4F90446207BC10748BFB0795AD489480178DBF8140001291CBFD9F82410B8
:205000004978C172B0798AF80200B9E0002D12D02878AE420AD1012818BF082802D1002CAD
:2050200003D1EEE0002014F053FAE0E0012803D0082800F0D780DFE0002CF2D016F0D8FFA0
:205040000146A06801F5C241A83115F0C9F928B916F0CEFF00F5E8504C30A0601120387032
:205060000121BCE09AF80100002800F08B8016F013FD15F0B5FF054628680090D0F804B006
:205080009AF8020015F0ACFF0190A8798AF803003178402911D1A87916F058F90446207B44
:2050A000C1070AD5A87915F09BFF052114F022FC207B00F0FE002073A3E016F03FFB10F062
:2050C0001F0F3AD0012013F041FA20B1012013F075FA13F003FA082013F038FA20B108207F
:2050E00013F06CFA13F0FAF998F80200FEF74CFE064674680CB3009916F0CCFC02281CD01C
:205100003178012902D008290DD013E028B916F06FFF00F5E8504C30A060112038700121F0
:2051200088F8021004E0082088F802001221397030465DE0002014F0CBF90198A8421FD066
:20514000009935480A78802A0BD10821397000780128DBF814001ABFD9F824100978012156
:205160000AE007223A7000780128DBF814000EBF0121D9F824104978C172A8798AF802005D
:20518000009835E016F0DAFA10F01F0F39D0012013F0DCF920B1012013F010FA13F09EF9BF
:2051A000082013F0D3F920B1082013F007FA13F095F998F80200FEF7E7FD054628786C6840
:2051C000012802D008280DD01BE0D4B116F010FF00F5E8504C30A06001211120387088F80E
:2051E000021004E06CB188F80200122139702846BDE8FE4F08F068BEBDE8FE4F002014F0AA
:2052000067B9BDE8F78F00BF74440020B0E20100C80F0020780E0020CC0F00202DE9F84330
:2052200006460D46707801071DD4D6F80310B84821F07F41203981423FBFD6F8061021F02D
:205240007F412039814228BF112033D2B01DF11C88425CD3B07A002818BF012803D0022833
:2052600018BF032853D1B07C002818BF012803D0022818BF03284AD1307D012818BF0228C3
:2052800003D0832818BF032841D1707A10F0070070723CD03078012116F096FF04000AD159
:2052A000002016F0A1FE044616F09AFE844214BF07200D2029E104F1540100200E606072A0
:2052C000227A012A08BF0C20F4D0E075727A012383401A4208D0E27D521CD3B2012B04BFB3
:2052E00000F125072776E275401C0328EEDB7078C20619D5317D012909D1102811D01228AA
:205300000CD0132804D0152804D01D2804D09DE0002007E0042102E0012003E00221A173B2
:205320005EE00320A0735BE0FF22A273307D02281EBF727802F00300032808D01307E6D41E
:2053400008B19006E3D4520707D516F10C007DD0F07A002818BF012878D100206075E0778B
:20536000707810F0030F25D1207D00F03F0020757078820605D44868002804BF88680028E0
:2053800001D018216175707881060CD4307D832818BF032803D101211820E17702E0607D3F
:2053A00040F0010060757078410715D5E07F40F0020010E0C0074CBF40208020217D01F0EB
:2053C0003F0108432075092118206075E1777078410701D50B20E077207D00F0C000A07732
:2053E00096F913007F2806BF4A4800780DF074FE04F12907387045B14749C86B4169086886
:205400003A7802EB8202805C2870B07ADFF80C81DFF80C91434D002818BF012809D1787574
:20542000B07AC10758BFC8460622414604F1300032E028680D3016F01BFEB8B1B07AC10728
:2054400054BF4946414616F00FFE08B912205CE0B07AC10754BF49464146062204F1300079
:2054600015F0D2FDB07A00F0010007E02868C11D062204F1300015F0C7FD03207875296831
:20548000B07A00F001000870B07AC10758BFC846286806224146401C15F0B6FD70784107DF
:2054A00030D5B07A022818BF032822D1F17A286806F10C0201F0010116F0BEFE8046B8F17A
:2054C000FF0F16D01E20296810FB08F8414401F10D0016F0CDFD60B928684044C11D0D3062
:2054E00016F0BAFD0120B875062229684144C91D04E0F07AB875062206F10C0104F13800A9
:2055000015F082FD012060720020BDE8F28300BFE1B70B00CA0F0020B0E20100480E002076
:20552000400E0020680F0020F8B5144600254FF48067DFF89862C21B84B006F1880337D0A5
:20554000921E3CD0521E44D0521E4AD0521E50D0521E54D0521E00F07A80921E00F07C8067
:20556000D21E00F0AC80521E00F0B780921E00F0C080521E00F07B80521E00F0C180521E3C
:2055800000F0CF80521E00F0D280521E3ED0521E56D0521E4BD0921E00F0DE80921E00F0DD
:2055A000E280521E00F0ED80521E00F0F98000E101290FD12078022817DC707003E1012955
:2055C00008D12078022810DA0028B070F6D1B074E3E0012940F0EB802078052805DAF07087
:2055E000F1E001296CD12078022880F2E0807073E9E0102964D110222146754814E0012951
:205600005ED12078022863DA3071DCE0012957D1207802285CDA00287071F6D00120F07461
:20562000602206F12801184615F0EEFCCBE00129FCD12078022802DAB07115F0B7FEC2E0BE
:2056400001293DD12078022842DAF072BBE0012936D12078F073B6E0002931D116F07CFDCB
:2056600010B9FAF722FF1DE00120F075ABE0072926D10622611C02A815F018FB00950023FB
:20568000217801AA02A80AF04BFAB0B9F07A10B916F062FD10B1F07A012808D19DF8040016
:2056A000FAF714FF0546502014F0EAFE1EE0716A9DF804200120885485E0342583E0012965
:2056C00075D1717C2078022903D0C11F0A2902D36DE010286BD1307475E0012967D1B17DCF
:2056E0002078B075002908BF01286CD1FAF767FE69E001295BD12078052858DA307562E0C4
:20570000012954D12078022851DC00284FD07074022803BF102030740120002016F05CFCC1
:2057200051E0012943D1207815F0DAF84BE0707900283CD1602908D1002C38D060222146C3
:20574000184615F061FC012004E001292FD1002C2DD02078F07436E0012928D13CB3207875
:205760001C4908702FE011BB16F0F6FC30B9FAF744FF0546502014F083FE24E00120307651
:2057800021E0012913D12178022910DA012904BFB078002816D0B174084615F00FFE12E0B2
:2057A000012904D120780228B8BF70750BDB182509E00F2806DA022904D1218811F098FF68
:2057C000054600E00225284605B0F0BDB41C002078420020714500202DE9F04F89B0A04E8B
:2057E0000546A04F30780328387040F0AC8000203070387002AC204616F0A0F820460021F7
:2058000014F08AFE984CB8602E21204615F016FC4FF0FF30A0822061E06013F025FD00209E
:20582000294611F0E9F807F11001F86016F065F8D7E905128D4DB1FBF2F0C0B2022828BF91
:20584000022020702870B2F5005F7AD1B1EB403F77D3F968002974D04FF6FF7100274FF05F
:2058600088586FF0030B61808149616087426DD2FEB2002108AA0423304615F0B7FC07EB9D
:20588000470004EB800A0898D14600F47C0129F8160FB1F5402F04D000F07F41B1F1164F3A
:2058A0003ED1C0F301418AF819106FF0FD0151FA80F21021022A31D3C2B27E2A2ED003A8F9
:2058C00012F0A0FC304600214FF088524FF400534FF4005515F08AFC1BFA85F5A8B250F890
:2058E00008104A1C01D10328F6D801220126D3B2042B06D8CBB2FF2B18BF16460132090A63
:20590000F5E740F808105C480399006842685B48904755FA86F199F80000544DAAF81C10C9
:20592000C0B2702807D0782803D0FE2805D07C2804D1E77002E0277100E0A77028780137FF
:2059400094E70120307009B0BDE8F08FE178FF2903D0DFF81081012529E02179FF2904D0AD
:20596000DFF80081E170022521E0A178DFF8F480FF290ED00131B1FBF0F202FB101000EB24
:20598000400104EB8101898B09B1E070EBE7FF20A07000250020E5700BF096F998F8001072
:2059A00008437E2188F80000002012F01BFFA078FF2813D12D48E17800780131B1FBF0F218
:2059C00002FB1010A0700BF07FF998F800100843FE2188F80000A07812F004FF2548E278B9
:2059E000022D057002EB4200627004EB8000818BE18028D0012D2BD103AD002788B21828B3
:205A000026D30739D0B22A4689B20CF0D1F99DF81700400717D5E088BDF81A10E6782A4666
:205A200003230097401A073881B2304605F048FEE27820B9BDF8181009B196420BD09642D7
:205A400006D0E188DAE701206071002000F046FD98F8000077E79DF81C0010F027FDF7E760
:205A6000B92600204C2500202041002076450020FF00002077450020D801001000400340D3
:205A80002DE9F04F8DB0044600209A4616460F46CDE90B00CDE909008748856880460CF07B
:205AA0004DFC1C2803D00CF049FC1B281BD1308840F60201884218BFB0F5C15F03D1F07B80
:205AC000022810D93EE043F6070188420BD196F82400032807D33069784940F0806020F07D
:205AE000604088422ED100206FB366B3387825FA00F0C00726D03046002115F09DFF704876
:205B0000C4E90176006880B109A800900CA90BAA0AAB304606F04AFA0B980B214FF6FF7233
:205B2000502314F0EDFAFF280CD015F029FD654F06467878012802D840B1012070E030460E
:205B400015F0CCFE00200DB0BDE8F08F06F0A2F95D480DF10409016841F0020101605B4893
:205B6000C8F80000484615F091FBDFF864B15A494A469BF801009BF8005003905548283028
:205B800012F0B2FE554856494A4612F0ADFE484615F004FBDFF84C81534A19214B460295A5
:205BA000404611F021FF514A08F11C001A214B4611F01AFF4E484F4915F062FE4E484F49E7
:205BC00015F05EFE4E48006810F4402F06D04D4A07F128000421002314F03EF89BF802004F
:205BE00010B10D2009F0F6FF08F1400015F0BAF808F1380015F0B6F8434900200722387672
:205C0000B8843862386181F860200521C7E902103E49F96138700420002114F0F1FA787887
:205C20002C4941F8204001307870304615F056FEBAF1000F06D10DF1040A3549202250467B
:205C400015F056FFDAE90012BAF81000DAE90635002AB2FA82F608BF40F6C41262612160F0
:205C600060832563760926764FF4FA76C4E9036201226276274AC4E90722C4E90923DAF8EC
:205C80000C0000B12062DAF8140000B16062DAF8080000B1E06104F13800C82115F0CEF9BE
:205CA00004F15000002114F0DBFA1B4904F1B80015F0E6FD204646E7CC2108400F000005D0
:205CC00000280020B020002000200940110000E0C4E60100B422002059A7010048400020E8
:205CE00061F000001823002065460100952E0100044000207D9C0100C03F002005A701003E
:205D0000B44F0050D55E0100083D002011C70000C8E401005B9101000DB901002DE9F84F01
:205D2000012000909A4E9B489B4F0278112A02D0122A0DD026E1994C2078002116F044FA74
:205D400097490546087810B100220A70B7E0002D00F00B819348DFF850A2DFF85082386016
:205D60000122217811200EF0B4FB696D4B78286DDC0641F6080240F1E180044641F20443E2
:205D8000B4F802C04FF4A0599C451FBFB4F81AE09E45B4F832C09C451CD095F80EC0BCF19E
:205DA000010F04BFB5F8A6E09E4513D0B4F802E041F20A439E451FBFB4F81AB09B45B4F846
:205DC00032E09E4506D0BCF1010F04BFB5F8A6C09C4503D13380C7F800A072E0002340F2F7
:205DE000FE3B4FF0180C0CFB03FCA444BCF802E0A6F800E0BEF1010FF3D0BEF1000F2CD0C9
:205E0000AEF1020EBEF1010F27D9BEEB0B0E1AD04FF48063BEEB03032BD04FF4406BB3EB0C
:205E20000B031AD09B1E012B17D91B1F15D040F2FA3BB3EB0B0337D05B1E2AD0D81E18D00B
:205E4000001F16D035E0B4F800C040F6010EF44503D15B1C022BC4DD33E0A87B01281CBFEB
:205E60000428A6F80090C7F8008001200DF063FD27E0A87B012806BF41F20241ACF80210C7
:205E8000ACF80290308890420BD100200DF053FD07E04978CA064CBF816C416F0868002148
:205EA0000171C7F800800CE0002013F011FB832003E0002013F00CFB842016F081F9012021
:205EC00063E03868504557D1A06C016801F10805A91C2878C0F38012402005F011FD002879
:205EE00001BFA06C0168087903281ED194F86C0001281AD1D5F80E0000281CBF288B00280D
:205F000013D095F8220010F0E00F0ED105F11E0016F05EF8012808D1688B298BAA8B401C77
:205F200089004843B0EB021F26DBA6F80090C7F80080A06C0168002008711DE0C18E318018
:205F400041F20443C91A01D0891F01D1D04609E0408890420CBF002001200DF0ECFC41F2DC
:205F600006403080C7F8008006E015F04FFD58B1C0880F493080396001210E4A107808F0C9
:205F8000D1FB01E0002000900098BDE8F28F00BF9A0F0020C80F0020480F0020D50F0020EC
:205FA0006E450020756B021029140000059200002B530100C70F002082492DE9F043824CF1
:205FC000824E20700A22002008600D2380484FF40A7102704380818085B07E480660B77E2B
:205FE0007D480770FF2FF17E4170327F8270737FC370B57F0571F67F467108BFFF2914D1A5
:20600000FF2A08BFFF2B10D1FF2D08BFFF2E0CD172490A7802704B7843708A788270CB782C
:20602000C3700A790271497941716D4902786D4D6D4E6E4F0A7043784B7082788A70C37842
:20604000CB7002790A714079694A4871FF2028706870A870E8702871687100206549088023
:20606000F06B6549407808706449F06B007808701388634863490380F06BC06C08606249E0
:20608000F06B90F83C0008706049F06B90F83D0008705F49F06B90F86C000870F06B4069B5
:2060A00001795C484A1E0270F06B5B49C0783870F06B8069086008B913F00AFAF06B57499A
:2060C000C069086008B913F003FAF06B016E54480C2214F099FF15F077FFF06B5149006A64
:2060E000086008B913F0F4F9F06BDFF83C81406AC8F8000008B913F0EBF9F06B4B49806AAD
:20610000086008B913F0E4F9F06B806E00B101200CF005FB01F016F907280AD105F080FCE4
:2061200020784FF4804108F0FDFA002013F0D0F944E03F480168884781460DF079FDD8F8FB
:20614000000001688847684615F0A8F8D8F8002004208DF80000694652F8043F00209847E0
:20616000344908600FF0F6FFF068334A01883878324B014311804846196888470C21304863
:2061800015F0A8FC284615F01BFF15F015FF2D4800214FF6FF72016082808171F06B90F82C
:2061A00064102948006815F0C9F80121FF2015F023FC20784FF4005108F0B4FA05B0BDE83B
:2061C000F08300BF380F0020C70F0020B64F0050700E00203C0F0020400E0020E81200501A
:2061E000500E0020480E0020B0E20100C40F0020BA2600209E0F0020C60F0020D40F002060
:2062000058450020E84400206B4500206C45002069450020CB0F0020200F0020240F00206A
:2062200068440020280F00202C0F0020300F0020C0260020EC440020A00F0020C426002052
:20624000FC0D0020800E0020004500202DE9F84F14F0C6FE0746954C41F62800002120808F
:206260006180616015F0C4FE00F57A60DFF840A2A0600022DAF80010C860E273207B00F021
:20628000F00040F082002073607B00F0F00040F0010060732520A0734869417A012918BF45
:2062A000032904D0042918BF062902D015E0002017E0022020212074617462827D487E4D8D
:2062C000A061656115F074FE28607C48016A0978CA074CBF1F210F2105E0794800780100DD
:2062E000E8D10021E7E7026A1278930748BF41F02001026A1278530748BF41F04001026AD8
:206300001078020748BF41F08001297100206871DAF800106B4A4869007800F0010040F0BF
:2063200002006871897A890001F004010843687197F82E11C90001F00801084391784A06A7
:2063400048BF40F0200068710120A97A288101F0C001A972A81D022115F0BCFB1620E8721F
:206360004FF00008C14607F1610E1622564B384602FB08F15E18416A31604FF0010B876A2D
:2063800037710227816A090A71710BFA08FB816A090CB171F771002131819EF80070377436
:2063A0009EF8011071749EF80270B7749EF80310F17400F12C019EF8047037750F78C97B71
:2063C00001F01F0141EA47117175DAF80070D7F814C09CF8091011EA0B0F17D04FEA091162
:2063E0000CF1100B3BF801B0A6F80AB00CF1120B3BF801B0A6F80CB00CF1140B3BF8011091
:20640000F18109F101015FFA81F908E0BCF810107181BCF81210B181BCF81410F18108F142
:206420000108B8F1020FA3DD28490E7812FB06F21A443B1DEA602B619CF8001000290FBFF6
:2064400000F59470224801684868A97F686101F0E00141F082014FF6FF70A977A883786969
:20646000A16800F10C023001135A40F6C41000FB031129620020E97F164B686201F0E0014D
:2064800041F08101A862E862E977187860B1B87A022809D1104908680D3015F0E9FD18B9FC
:2064A000687940F004006871BDE8F18F28420020540F0020800C0020BC0A0020B0E2010097
:2064C000D80F0020C00C0020E0070020D90F00206C0F0020880E0020680F00202DE9F04F7D
:2064E00097B081469948406818B18047002800F0CE80974F01200021042300247E78F8733B
:20650000BD7808AA304614F071FE089800F44030B0F5403F03D17879002800F0B9803046F7
:206520000621F8224FF0F80814F0D0F806EB460407EB840080F818809DF82000702803D02E
:206540003046702112F04EF9CDF81090069608AA2846002104234FF0000814F047FE9DF85D
:206560002000FE2803D02846FE2112F03BF928460621FE22FE2614F0A9F807F1160097F824
:206580000190BA78059500EB8401C988019279826E4981F8008005EB4501039100EB810168
:2065A00001F8026F029109EB490100EB8101B1F806B002EB420100EB810030F8061F079153
:2065C00000900EA811F01EFE0FAD1FFA8BF7172F54D35E480078002853D1ABF107064846F3
:2065E00009AAB1B20BF0E4FBBDF8324004F11000B8420FD89DF82E0096280BD1A6EB040AA2
:206600009DF82D2021464B461FFA8AF840460DF053FCF0B1ABF1010B5C46A0B216282DD9B2
:206620003628A4F1160748462A4688BF2027E41BBBB2A1B214F0DAFD3804EED015FA87F0A4
:2066400010F8010C962801D0013FF5E707EB040BBBE79DF82F00C1070ED180070CD50734C9
:20666000079E3E49A3B213FA86F00A1A4846414614F0BCFD26440796D346A6E73348007880
:2066800050B134480E990068426833489047002420B217B0BDE8F08F079F019E1021C7F55F
:2066A0000052A7F1100083B2C1F20012304611F0C5FD264C217808430E992070254800684B
:2066C000426825489047224D00980123B5F91220697B07803046A5F814B02F8212F0AEFD21
:2066E000B5F91420A97B3046022312F0A7FD049A002A08BF1022288A7C21C0F5005090426C
:20670000B8BF7821059F384612F06CF8069E30460AF0DAFA207038460621FC22FC2413F083
:20672000D5FF0298FE21AE70EF706F700470039805EB8000808BE880304612F053F800209B
:206740006871E888C0F50054A2E700BF4C25002020410020D80100100040034000200011F0
:206760002DE9F84F0446002000900CB912F0B0FE04F1500569462E68204608F067F908B93F
:20678000072015E1A04641F28839DFF828B2DFF828A2002469684A7A1820604301233718A9
:2067A000A3401A420AD098F80E103AF81100388000211BF80420BA73F97302E040F601000D
:2067C00038800021798007F118007860387B00F0EF00387340F08000387398F80E1001298F
:2067E00016D1002C0CBF02200520397B01F0F0010843387324B915F0FBFB00F57A6000E061
:206800004846B860787B00F0F00040F0020017E0002C0CBF0221002100F0F00008433873C5
:2068200024B915F0E5FB00F57A6000E00020B860022C0CBF01200220797B01F0F001084352
:206840007873641C06F14800386106F16801032C79619FDB98F80E000024012808F1B00777
:2068600018D108F1A40070631822314614F0CCFB06F11800A865C5F85C90397801F0F001EB
:2068800041F005013970787800F0F00040F00200787000E07463B068C8F810004748017887
:2068A000397415F015FCB064454881690978CA074CBF1F210F2182691278930748BF41F076
:2068C000200182691278530748BF41F0400182691078020748BF41F0800106F14C02117054
:2068E00054706968887C00F0030008F13E0150700B7863F3820050704978947061F3C3001D
:206900005070D47040F0100050703465746508F13800F06598F80E00012818BF042815D0CC
