:20000000003C0120A16A000039FB021039FB021039FB021039FB021039FB021039FB0210D4
:1C00200039FB021039FB021039FB021039FB021039FB021039FB021011FB021002
:20003C002DE9FC47D34C0F460546F80B80F0FC816078DFF84483B90F80F0A081B90880F09C
:20005C009081F90A80F0FA80390B80F0C580380907D2F80FC0F01E8227F0804706F094F9BB
:20007C0018E209F0CCFA814608F0C2FD002800F0AD80082009F03CFA002840F0A780802072
:20009C0009F036FA002840F0A180684604F012F9012803D10098002800F0988000250126E4
:2000BC00E8B209F0EBF848B1837A3BB1867290F9090006FA00F0C0B207F06CFE6D1C032DC6
:2000DC00EED30320207604F1D40009F092FA484609F0A8FBD14800252A460168056050F84E
:2000FC00081CCF4940F8085C04F13C0008F000FD40460068006B8047A168401A010B206ACD
:20011C00C1F1FF3282422CBF08444FF0FF30206294F8240020B12069216AB1EBC02F25D9D7
:20013C0008F076FD294600B13146081C1BD0BD4840F6090101804580417B06F00F0221F033
:20015C000F010A434273017B05F00F0321F00F0143EA010202732946416009F02BF9418832
:20017C0011F4406FFBD084F82460256207F012F8CC4829460560022008F0C2FB022008F083
:20019C0045F8112003F0ACFA207818B96068483009F04BFAC448007810B90E2003F0A0FA4D
:2001BC0094F8250020B184F82550052008F02EF8BE48E0612576B4F9AC00B4F9AE108842FD
:2001DC0014BF0220072005F02FF802E0484609F029FB27F0080741E720B1042008F016F8F5
:2001FC0000206070656807F0B9FD38B12846ED696FF4807100224FF00073A847E06858B164
:20021C0040460068006B8047E2686168801AC860000BC8600026E660A54904F13C000022ED
:20023C0008F066FC0221D4F89800217618B104F5907009F002FA27F400670FE709F0DFF92A
:20025C00064608F0D5FCD4F890100028894600F0828000297FD09749042504F13C00002244
:20027C00257608F045FC304609F0DCFA04F1D40009F0BFF940460068006B8047E0604FF030
:20029C00010884F80180284607F0D8FFD9F810006060D9F81000416AC90803D3036A294650
:2002BC0000229847404606F097F9606880F81580606801F0BFFB6568D5F808A040F60A0249
:2002DC00D01F564600F1010C00E01E46736833B119888A4203D0884218BF8C45F5D10021DD
:2002FC007160727B08F00F0322F00F0213437373D9F80C201288904224D06046904221D0F5
:20031C002B8E03B3696305F13002518095F83C0001F00F0320F00F00034385F83C3095F8E6
:20033C003D0008F00F0320F00F00034385F83D307260707B01F00F0520F00F0045EA0001FA
:20035C00717300E0E160504609F034F85146404608F0D6FA02E0304609F064FA27F480672B
:20037C0098E002F015F9D4F8980008B927F0020790E0C046903900208C0100104E4A116897
:20039C0041F08001116020B1042007F03FFF0020607009F034F98246D8F854000168042065
:2003BC008847D0B1287DC0B1A068B0B18146D8F800002E69006B8047A0EB09002861000BCA
:2003DC002861B04202D280194008286140F6C41181422CBFB0F5967F2961504609F022FAA0
:2003FC0007F0BCFC80B1EE6928466FF4807100224FF00073B047D4F89000002808BF47F09B
:20041C00020701D005F0C0FF2846AD6900214FF080630A46A84727F000573BE0141004403B
:20043C00496A00009C47002009F0E9F8D4F8A86066B306F1280106C90A234FF0E0450B4058
:20045C00154008BF002B21D106F1280191E8000306F1280595E8060006F1280322EA0902CB
:20047C0021EA080183E8060009F0DCF9B16879B1B9F1000F08BFB8F1000F09D03069B6F971
:20049C003010B5684B464246A84701E009F0CAF927F4804727B104F59070394609F0CDF84E
:2004BC00BDE8FC8700000460FEA40000CD2C0000DD290000ED8B0000CC2108402DE9F04FF1
:2004DC00DFF804920E46D9F808101F4615460446ADF1340DBEB1B5B130784FF0010808FAA6
:2004FC0000F001420FD01046002109F08EF8A560666009F084F8754D83462878022804DB64
:20051C00584609F08FF90020DBE0002840F0958000F0D6FE6E496F4E086840F00200086016
:20053C0008A8C9F8006008F065FF6B4E6B49707808AA0A9005F5907007F00CFB684905F52E
:20055C00AA7008AA07F006FB08A808F01BFF192108AB3078634A099005F13C0007F009FAF2
:20057C00614A05F158001A2108AB07F002FAB2465E4E30684FF0000900F44020B0F5802F59
:20059C0003D15B480068800C02D3B9F1000F15D0584A05F17400352108AB07F0EAF95649D3
:2005BC00086800F5407088620868A0F54070C8620C23CB61886940F00C0088614F494A46A8
:2005DC0005F1B000134606F087FB4D494A4605F1D400134606F080FB3068C0F3814030B1E1
:2005FC00484A05F1280004214B4608F093F89AF80200012802D10E2003F03AF905F1980084
:20061C0008F0D8FD05F1900008F0D4FD4E4685F824602E762E62072085F8E80185F825604A
:20063C000523AE60384AEE6049462B61374B16700420EB6108F064F9287805EB8001401C43
:20065C00C1F8F840C0B22870584609F0EBF81FB9684608F0EBFD6F4638684FF4FA76E66055
:20067C002060B86941466062388A6175E082F869E062786800280CBF40F6C4100021206158
:20069C002348E06120622175A061F86800B1E061786900B12062B86800B1A061782204F1B2
:2006BC003000002105F0BCF904F14800002107F00BFF1849002204F18000134606F00CFB76
:2006DC0020460DB0BDE8F08FCC2108409039002000200940110000E0FCA40000ED8F000023
:2006FC0099340000496A0000615D0000B44F00508C130050C537000030500940CD8B000041
:20071C00C98E0000956D0000BF470020CD2C0000DF270000D99500000EB508F0D1FE8DF8C2
:20073C0000004A49012008704949002008804949002008804849002008804849002008709B
:20075C00474900200870474900200870464A0020002182E80300454900200860444900202C
:20077C00086044490020087043490020087043490020086042490020086042490020088052
:20079C004149002008704149002008804049002008804049002008803F49002008803F49CF
:2007BC000020087000200190019805280DDA01983B4A0021115401983A4A00211154019847
:2007DC00401C019001980528F1DB002001900198242809DA0198344A002111540198401C73
:2007FC00019001982428F5DB9DF800002F4907F0C5FC2F49012008709DF800002D4906F0C0
:20081C002FFB9DF80000252105F0BCFC2A49002008702A4900200870294900200870294978
:20083C00002008702849002008702849002008702749002008702749002008702649002053
:20085C0008702649002008600EBDC046105C0020125C0020145C0020165C0020185C00206C
:20087C00275C0020285C0020385C0020405C0020445C0020485C0020495C0020305C0020B0
:20089C00345C00201A5C00201C5C00201E5C0020205C0020225C0020245C0020265C002048
:2008BC00E1470020E9470020C0460020D6BE898E5F430020555555004C5C0020B0660020F4
:2008DC00B1660020B2660020B3660020B4660020B566002029660020286600202C660020D0
:2008FC002DE9F04F8246ADF11C0D00F0E9FC5D48007806F01FF95C4D0024012807D90C38DE
:20091C0005D0401E0FD0401E012809D906E008F02FFB022804BF01210C1C06D0296806E0B4
:20093C0005211F2401E003210724284601604F4AD068C0F38150012804D112680120120E25
:20095C009040044308F02EFDDFF828B1DFF82081FF2240185B46401E471CC8F800007F1EE1
:20097C0003F8012BFBD1DAF80020002702F0FF03FE2B1CD0D4463B46012602F0FF05FF2D62
:20099C000ED0A84205D3A94203D806FA05F52C4201D0022062E002F0FF022F430BF802309E
:2009BC005CF8042F5B1C02F0FF05FE2DE7D1092002F05EFF3048C0F800A03848012107F063
:2009DC0083FD374D00264FF00109B04609FA06F0044214D1074207BF06F0FF0141F4C04133
:2009FC001BF806005AF82010244802F0E5F8F0B24FF0FF3108F0BCF8C5F8008001E0042006
:200A1C0028601B480068761C2D1D8642DED904A808F0B8FC1A4C20781B4A0590194810212A
:200A3C0004AB06F0A6FF684608F0E4FC6068184902901648CDF80C806A4607F08BF81549D8
:200A5C0051F80D0C20F4F85040F4005041F80D0C114AC1F8FF9F4046C2F8009007B0BDE808
:200A7C00F08FC046F14700203C660020A84F0050386600200C47002018480020007FC76716
:200A9C0024A5000064470020758E00008C460020797400000D3009402C00094080470020E2
:200ABC00E04400202DE9FC4F83F0004301E02DE9FC4F1F03FF0847EAD2574FEA42284FEA1E
:200ADC0043095FEA595906D147EA080A1CBF00210020BDE8FC8F57F000575FF4E06E1EF1FF
:200AFC00FF0EF14505D14FF00000190D0905BDE8FC8F002B05D55FF0000AD8F100086AEB9A
:200B1C0007070C03E40844EAD0544FEA40254FEA4106760D08D144EA050A19BF002100208E
:200B3C00191C101CBDE8FC8F44F00054764504D10020090D0905BDE8FC8F002904D55FF02B
:200B5C00000A6D426AEB0404B6EB090E08D5A2463C465746AA464546D046CEF1000E4E46D5
:200B7C00BEF1360F5CBF4FF0000B23E0BEF1000F04BF4FF0000B1AE0CEF1390ABAF1200962
:200B9C002EBF08FA09FB07FA0AFB4BEA080BDEF1200A07FA0AFA38BFBA4647FA0EF72DBFD1
:200BBC0028FA0EF8AEF1200E4AFA0EF8D04415EB08057C4154EA050A02BF00210020BDE808
:200BDC00FC8F002C58BF4FF0000A06D55FF0010A5FF0000E6D426EEB0404A6F101066D0035
:200BFC006441FAD515F4806E11D005F480794BEA090B15F5806554F1000428BF761C0BD2C4
:200C1C0005F400795BEA090B08BF25F4006525F4E0656D0044EB0404B61CDEBF00210020F6
:200C3C00BDE8FC8F5FF4E06E1EF1FF0E76450AD34FF0000013F00043FF21C900C91D0905B1
:200C5C001943BDE8FC8F270547EA1530210B41EA065141EACA71BDE8FC8F704701282DE910
:200C7C00F84F40F0B880DFF89491D9F8D400012840F0AE800220C9F8D40008F0FBF80120BE
:200C9C0007F0A4F85FEA000805D00120C9F8D40008F0FEF8A1E008F0CCFC0090112008F0E1
:200CBC0021FC00280CBF00250125102008F01AFC08B145F002050F2008F014FC08B145F065
:200CDC000405474CA06A0068014601208847012805D099F8D800012818BF002703D1002031
:200CFC0001F070FD012708F0F7FBDFF8F8A040080AD20026206A80680146504688478346C8
:200D1C00BBF1040FF6D000E00126304600214FF0FF3201F0D7FD012E0ED0BBF1010F05D1C0
:200D3C00206A4068012102465046904734496C39086840F00300086020684069014628467B
:200D5C0088470B2008F0CEFB274E30B12068C06A3146091D0246088890470A2008F0C2FB89
:200D7C0028B12068C06A31460246088890471F4903200126C9F8D4001D4B0E6000221A60ED
:200D9C002068406B0146284688470128F8D1194C2068042007F01AF80546174806602068DC
:200DBC00012F02D1304601F00DFD08F06BFB082007F00CF807460098C9F8D46008F02EFD25
:200DDC0008F066F857EA050018BF4FF0FF3804E06FF0040801E06FF001084046BDE8F88FC4
:200DFC00B801001000400340F6A1000028200860800104432C2009400C400940405800209A
:200E1C009022084000B5ADF1140D01928DF80810009000208DF8090000208DF80A005E4885
:200E3C00007808B907F014F91C20002107F020FD1D20002107F01CFD1E20002107F018FD0F
:200E5C009DF808004008C0F09280009803F008FFC0F3C0708DF81000019803901AE0039804
:200E7C00C07B00F07F008DF80A009DF80A00F8B101208DF809001BE0039890F8240000F0F4
:200E9C007F008DF80A009DF80A0088B101208DF809000DE003980088A0F602000028DED023
:200EBC0041F21E01401ADAD041F6E771401AE3D09DF8090068B39DF81000012812D137483B
:200EDC0000681C21002207F011F9344800681D21322207F00BF9314800681E212F2207F055
:200EFC0005F956E02D4800681C21002207F0FEF82A4800681D21002207F0F8F82748006881
:200F1C001E21002207F0F2F81E20012107F0B0FC3FE09DF81000012812D1204800681C2193
:200F3C002F2207F0E3F81D4800681D21322207F0DDF81A4800681E21002207F0D7F828E04E
:200F5C00164800681C21002207F0D0F8134800681D21002207F0CAF8104800681E21002294
:200F7C0007F0C4F81C20012107F082FC11E00B4800681C21002207F0B9F8084800681D2126
:200F9C00002207F0B3F8054800681E21002207F0ADF805B000BDC046104800200C4800205B
:200FBC002DE9FF415F4C04F190010868002588460028074650D0D4F8A400002851D1D4F810
:200FDC00A00000284FD0D4F8A01038690969884203D197F83300400931D2019502A8012171
:200FFC0001AA03F09FFC00283BD0029911BB4E480668002E35D0D4F8A000D4F8A41008F1E6
:20101C0008034246B047022807D0012829D10120009001992B46084605E001230093D4F894
:20103C00A000D4F8A0100069B1F930102A4601F015FA16E004F1B00008F07BF811E0D4F8F2
:20105C00A000C06840880028F9D0D4F8A000C06840880128F3D006E004F59070022108F0B1
:20107C00ECFA002D5BD060683969884251D1294603A80A4603F056FC58B1039848B1D4F8A8
:20109C00A00030B9D4F8A40018B9082006F082FE45E0082007F026FF97F8330004F59075A3
:2010BC00C0F3001028B9404607F0F0FCC4F8A00004E0404607F0EAFCC4F8A400B8691B497F
:2010DC00C0430860B8694A6810434860F869C04341F8080CF86951F8042C104341F8040C94
:2010FC00F868044607F0B2FB2088A0F6020040B141F21E01401A04D041F6E671401A0128C4
:20111C0003D80120214607F0FBFB4FF08041284603E004F590704FF4806108F08EFA0090E5
:20113C00BDE8FF819039002030A5000010100440F8B5074661485F4C001DC26A0168B7F5A0
:20115C00C067C2F30722C4F8B070C1F38441C4F8B420C069C4F8B810C0F38120C4F8C80004
:20117C0000F0A38094F8D0606EB9C4F8CC70D4F8B800C4F8C000D4F8B460C4F8BC60D4F8E1
:20119C00C850C4F8C450D4F8CC00D4F8B450002854BF02236FF0010304F1C002116800EB05
:2011BC004000C018431000EB937001EBA0011160D4F8C010C4F8BC5000291CDD1E293DDDD5
:2011DC00D4F8C40030B93429B4BF15391E21C4F8C01025E02A29BABFD4F8C0000B381E20B3
:2011FC00C4F8C000D4F8BC003E28D4BF401C3F20C4F8BC001FE0D4F8C400032812D011F105
:20121C000A0FA6BFD4F8C0000B300120C4F8C000D4F8BC000028CCBF401E0020C4F8BC009F
:20123C00032009E011F1140FA6BFD4F8C00015300120C4F8C0000020C4F8C4004FF08057D8
:20125C00D7F8A401B4F8BC101B4D40684FF47F4208230646009128463021B047D7F8A40140
:20127C0001214FF40032112340680091064604212846B047D7F8A401B4F8C01040684FF49D
:20129C00F80212230646009104212846B047D7F8A401B4F8C41040684FF440620A230446A4
:2012BC00009120212846A047F8BD002084F8D000F8BDC0464058002000A00C4000A00C407F
:2012DC0055482DE9F043006842F21072ADF1140DB0FBF2F1514340F2AB22401A824200F2FE
:2012FC009680594C94F8E200002840F08E804B484B4E4FF00108027B3368416884F8E28030
:20131C00814684F8E120C3F38147C4F80C1197B9D9F8100078B1434856F8083C02686421B0
:20133C00C3F306604143B1FBF2F23F49002304F1540005F0D1FC01A808F004F900252F4673
:20135C0004F10C00029501AB8DF80470374903953A4605F0C1FC01A808F0F4F804F1300038
:20137C000822029501AB8DF804703149039505F0B3FC304A04F1780032213B4606F0F9FA91
:20139C002E4A2D4F04F194002C212B463D6006F0F0FA2B4899F80D3000783068C0F38150A4
:2013BC001BB1032803D184F8D98003281FD002281DD001281BD14FF08059D9F8A401214C30
:2013DC00406803214FF040521C230746009129462046B847D9F8A401406829464FF4007221
:2013FC0009230746CDF800802046B84706E0386840F040003860022006F020FF56F8040C8B
:20141C00C00802D2284606F019FF002000E0FEE705B0BDE8F083C0461C14005090A400002C
:20143C00B44F005028480020E99200002F42000041720000A987000090220840255B000064
:20145C00F147002000A00C40405800202DE9F8435F4CDFF868815B4DD4F8DC0000286ED002
:20147C00574E401E0AD0401E60D0401E1CD0401E53D0401E1AD0401E33D02FE04E480125A6
:20149C000221006884F8DA507022042340680091002107464046B847356004F1300008F068
:2014BC00A6F82846BDE8F883022100E003214FF08059D9F8A40184F8DA104068002570226A
:2014DC0004232946074600954046B847D9F8A401C0687022294613460125DAE70320BDE84C
:2014FC00F88300262E606E6028688008FCD268688008FCD2374834490127001D06600E20F2
:20151C000F6002F0EDF8022006F080FEC4F8DC6084F8DB600220BDE8F8830520C4F8DC0025
:20153C000027376030688008FCD242E00320C4F8DC000027376030688008FCD239E0234FCF
:20155C0001260F202E6042F62A21C7F80B004FF08059C7F80F10D9F8A40140684FF4C072B5
:20157C00072302218446404600910021E047D9F8A401C06800214FF4C0720723844640462B
:20159C00E0472E6028688008FCD394F8D900C7F81B6018B9032100200E4602E000202863FE
:2015BC000321C4F8DC6047F8011C686068688008FCD20020BDE8F883A401001000A00C40C8
:2015DC0058600C4054600C4004800C4001400C404058002038500C402DE9FE4F93460A6854
:2015FC00DBF8005017784FF000081C460646C246242F02F101020A602AD11778521C532FF3
:20161C000A6025D1ED1C25F003052D1D55F8040CE061CBF80050208B0090A168E269306806
:20163C005B4608F0F7F88246306838B1A0685045D8BFA0F1010A306850443060DBF800500E
:20165C00206846464FF00108E660A0EB0A002060662F06D0B8F1000F6DD1E16901200F706C
:20167C0068E0208B012808D0ED1D25F007050835A5F1080090E800030EE0ED1C25F00305C5
:20169C002D1D55F8040C01909DED010A10EE100A06F0D4FB804689462BA20CCA4946404637
:2016BC0003F032FC28BF002705D2206989F000490127401E206126A20CCA4946404603F010
:2016DC0066FC34D3404605F019FE064606F0A3FE0B46024649464046FFF7E4F91EA20CCAF9
:2016FC0001F0ECF905F042FF0146606904220A2304F006FC411EE1612E2300F8013C636976
:20171C002269E06931461B1AE360D21A0A2304F0F7FB002F08BFE06105D0411EE1612D27EA
:20173C0000F8017CE0696169091A084602E004A0E0610720E060CBF800505046BDE8FE8F8B
:20175C00286572726F72290000000000000000000000C0FFFFFFDF41000000000088C3408A
:20177C0010B5ADF1180D0192ADF81010009000208DF8120007F050FCBDF81010019806F07F
:20179C0035F9444A002182E8030043490120087007F096FE8DF8130000980C3006F0CAF80F
:2017BC0002909DF81300029906F0E8FC3B49012008700098103006F0BDF8039003999DF8FA
:2017DC00130021F07F4105F04BFB0098143006F073FC334908800098163006F06DFC3149D2
:2017FC00088000981A3006F067FC2F49088000981C3001F0ABFE00982C4990F8210000F0E6
:20181C001F0008709DF8130007F056F82849087028490020087004F0AFFE8DF812009DF869
:20183C0013009DF8121004F0ADFC2349002008601C48224902884FF47A7340F2EE205043D5
:20185C0090FBF3F00860174A15481249148800880B681B4A40F2E2410019414301F2E2407A
:20187C00C01810601648006805F024FF15490120087015490120087006480A49006809889E
:20189C0006F08FFE11490220087006F0EFFC06B010BDC046385C00204A5C00205F4300200F
:2018BC00125C0020145C0020165C0020185C00204B5C0020275C0020405C0020305C0020F6
:2018DC00445C0020495C0020485C0020105C00202DE9FF4107467D68BE680C4607F08FFE93
:2018FC002978012903D107F09DFF002091E00121297007F097FF207868706078A870606899
:20191C006860A068A860E068E86020692861207D2875607D6875A07DA875A069A861207F52
:20193C002877607F4FF0000843466877A07F2B63C5F82080A8771C466C626C63AC62AC6319
:20195C0085F82C4085F82D4085F8284185F82941706801F08DFF384602F0ACF8384602F0F2
:20197C0049F878B92C480068C068014630688847706801F0B5FE07F042FE2C7007F052FF90
:20199C00274645E0684607F0FDFC327B05F17C00B1680192214A00976B4605F0EAFF6846F1
:2019BC0007F028FD316902911D49009705F198006A4606F0CFF8A87830B905F1CC00214698
:2019DC0006F082FD17482861687830B905F1E800214606F079FD1448E860684607F0B2FD1C
:2019FC0001948DF8004005F58270104902970A226B4605F071F9B169F26905F13C0007F0B9
:201A1C009EFC0B4A05F1680004213B4606F082FE38460090BDE8FF81D0010010A51B00006D
:201A3C00D1640000BD950000B595000061730000319400000246F0B50020ADF1140D04460A
:201A5C0007460190537D02944A4803940068049400F44020B0F5802F04D147480068800CFD
:201A7C0038BF0127906844800188A1F60201C9B141F21E05491B15D041F6E675491B012913
:201A9C0020D8417E012B64F38201417606D0018B21F47C7141F43471018313E0018B64F31E
:201ABC000911F9E7417C012B64F38201417405D0018A21F47C7141F4347102E0018A64F398
:201ADC0009110182547504A903AB02AA009101A900F0EEFD50B1019800884FF6FF718142CD
:201AFC0004D10298049904F065F903E00298049904F07EF8002F3AD00298002836D00B21BB
:201B1C004FF6FF72502306F0DDFD0646502E2EDA4FF08057D7F8EC010068804706F0AEF841
:201B3C0005461848D7F8E03114300560D968284688470299114F000440F00B00104B41F809
:201B5C002600386800F54070B8623868A0F54070F8621988204601F00C02042A01D1C90BCB
:201B7C0000D220B1284604F0DDFB00E0FEE705B0F0BDC046B44F00508C1300503050094034
:201B9C0000A00C40903900202DE9F0478046D8F808603068076CD8F8045047646A6CA96B45
:201BBC00286C17F4F06FA0EB020937D1F8091FD2780979D3B9B196F82100464A145C601E17
:201BDC00814294BF0C1C641E4046214606F01AF9A86B001BA863A86B002865D105F19800FB
:201BFC00012107F02AFD4046494606F04BFA5BE00029F8D0404606F005F9014695F82D0092
:201C1C00A96318B9A86B00284ED101E00020A86305F19800012107F010FD45E0F80A21D297
:201C3C004FF0000A544603E0A86B401EA863A96B91B14046012106F0E5F83068446814F02D
:201C5C000F04C0F804A0EFD0296BAB6B686B491E2963401E6863EBB905F19800012107F056
:201C7C00ECFC13E0306844680022202904F00F044260CCBF4FF0200A8A464046514606F03E
:201C9C00C1F8CAF120008145C8BF81464946404606F0F8F9EC77404605F054F9706A18B1B6
:201CBC000246214640469047B80910D3AF6A77B14046394606F0DEF8A862AD6A3DB996F8A1
:201CDC0020000549095C4046C91905F087F9BDE8F087C0464CA5000058A500000EB50090D5
:201CFC0000208DF804003D480078022875D1009807F00AFB3A4A002182E8030007F08CF990
:201D1C0038490868401C08603748007858B13748344900880968884205D1354801F016FCDD
:201D3C003149002008703348007848B332482D4900880968884223D13148304900880880DE
:201D5C00314830490088088031483049008808802849002008702F49012008702048274971
:201D7C000068098806F01DFC26482B4A0188106840F2E24303FB010010602849012008708B
:201D9C0007F09EFB8DF8080004F0F6FB8DF804009DF808009DF8041004F0F4F906F066FA1F
:201DBC001F48007848B11F48006840F24131814203D91C490868401C08601048164A018843
:201DDC00106840F2E24303FB010010601248006805F070FC1249012008700EBD105C00203B
:201DFC00385C0020405C00201C5C00201A5C0020E9470020265C0020245C0020145C002007
:201E1C00205C0020125C00201E5C0020165C0020225C00204A5C0020445C0020495C002067
:201E3C00485C0020345C00202DE9F0470646880FC0F09080002004F0CFFB474807F0BAFA0A
:201E5C00464C40F60A09A4F8009000256580207B05F00F0120F00F00014321736560607B1E
:201E7C004FF0010808F00F0720F00F0047EA000130466173FFF7DEFDD6F808A04A46214617
:201E9C00D01F574600F1010C00E027467C6834B123889A4203D0984218BF9C45F5D17960FB
:201EBC007A7B2F4C05F00F0322F00F0213437B73D4F8903033B1DA681288904224D0604670
:201EDC00904221D0338E03B3756306F13002558096F83C0005F00F0320F00F00034386F822
:201EFC003C3096F83D0008F00F0320F00F00034386F83D304A60487B05F00F0620F00F009F
:201F1C0046EA00054D7300E0A56007F099F91548E06194F8250080B9134800680168404608
:201F3C00884701280FD0787B08F00F0120F00F00014379730D4EE66105E005F01BFC0028A9
:201F5C00FBD005F093F9504607F034FA5146404606F0D6FCBDE8F08701010E049C47002046
:201F7C00903900203D000000E0010010F16900002DE9F0414D4C05462078002800F08D80EC
:201F9C00B4F9AE00B4F9AC1088421DD004F1900128460E4606F028FA70B9D4F8A010284637
:201FBC0007F010FA28B906F10801284606F01CFA01E0D4F8A00038B1B0F930100A224FF01F
:201FDC00E043284601F01EF907F019FB804604F1F8000168A94219BF002747600027076006
:201FFC002078401EC0B22070002846D16560207E02280ED1082005F0CDFE404607F012FCAF
:20201C0005F148004FF0FF3107F0A2F907F0F7FA804604F5907007F00AFB04F13C0007F09A
:20203C00ECFA04F5AA7007F002FB04F1580007F0E4FA04F1B00007F0D2FA04F1D40007F04D
:20205C00CEFA17490968384601F44021B1F5802F03D114490968890C00D318B104F1740066
:20207C0007F0CBFA04F1280006F092FD0E480078012802D10E2001F033FB606805F14806C3
:20209C00854208BF6760404607F0CCFB304607F0CAFA05F1800007F0A2FABDE8F081C04635
:2020BC00B44F00508C130050FEA40000903900202DE9F04FADF1140D02921D460191DDF8C5
:2020DC003CB00E9C009007F09AFA474A6FF0010800264FF0010992F8E8A1039009FA06F329
:2020FC0013EA0A0F71D0B5F1FF3F18BFAE426CD1F0B207F0C3F8002867D0877A002F64D16D
:20211C0092F8E81183F0FF030B4082F8E8314F468772009D467292F8EA110560491C82F821
:20213C00EA11019B03722E4F4760017A074601291ED0022924D140F20361018290F9093078
:20215C00C17C5B1D21F00F0103F00F030B43C3746379817C63F3C7018174C17CA37963F368
:20217C004611C174C17CE37963F30411C17407E00A20388297F90900401DB874A0687861B0
:20219C00BBF1000F08BF002012D09BF801009BF8001097F90960134C4FF6FC75800040EAB0
:2021BC004110711D40EA012005EA000144EA0100B861029800B17860506808B938685060B5
:2021DC0004F0E2F897F9098002E0761C032E85D3039807F027FB404605B0BDE8F08FC046E6
:2021FC00DF27000001000406903900202DE9FC4706467568D6F808802F780FB1AF6B1FB1A0
:20221C004FF0FF30BDE8FC8729630024EC77171C6C631BD005F13C0907F0F1F98246694679
:20223C00484605F007FB002820D4504607F0FAFA9DF80000296B0870686B296B7F1E00F1CA
:20225C000100686301F101012963E5D169786A6B286B0129A0EB0200286305D1E868296B1B
:20227C000346304698476A6B144659E0AF63D8F80010086B40F400700863D8F80010886BF5
:20229C0040F4FA608863504607F0CCFA05F5947006F00EFD687805F5947768BB07F0AFF9B0
:2022BC0095F82D1069B1696B59B1A96B49B1AC6307F0B8FA05F5947006F0EAFC686BBDE828
:2022DC00FC8707F0AFFA696805F1E806304607F03FF80028F2D0AC633046214607F038F869
:2022FC000028EBD0384606F0D3FC1022696B286BEA77401A2863E1E707F081F995F82D10BA
:20231C0061B1696B51B1A96B41B1AC6307F08AFA05F19800012107F090F901E007F082FAA5
:20233C002046BDE8FC87704700B5ADF1240DADF814100090009801900098801C02900198D7
:20235C00407800F03F008DF818009DF8180000990830401803909DF818000099801D401839
:20237C0004900498007800F03F008DF819009DF8190004F0EBFE55E00198007800F00F00FC
:20239C00052855D19DF81800222851D10198029902F082FA00284BD09DF818100298039ADC
:2023BC00FFF7DEF944E02948007850B1039806F09FFE2749098806F0F4F824490020087010
:2023DC0006E0039806F094FE2249098806F0D4F89DF81800039901F0D3FD039800F0E0FCA9
:2023FC000198007800F00300032821D1029800788DF820000298401C07900AE001F014FE6F
:20241C0016E0079803F0B4FD12E0079803F0D6F80EE09DF820000028F7D0401EF1D0401E06
:20243C00ECD005E00C480078401EA5D0401EBAD0BDF814109DF81920009801F049FCADF83E
:20245C001600BDF8160009B000BDC0464A5C0020145C0020165C0020105C00202DE9FE4F2C
:20247C000CAF1D468B465FEA02083E78009014BF4FF0804A4FF0005A07F0C1F80324DFF895
:20249C0000910190BBF1FF3F14D1D9F8A010009806F098FF58B9D9F8A410009806F092FFD4
:2024BC0000280CBFD9F89070D9F8A47008E0D9F8A07005E000985946002205F00FFB074604
:2024DC00002F57D097F8330030F07F0051D04C46D4F8A000B84217D0D4F8A400B84213D0DC
:2024FC0000982A463346394602F08EF9002840D0207E01283BD0207E042838D0214904F508
:20251C00907007F09AF832E0D4F8A0005346002205F002FBD4F8A4005346002205F0FCFAD5
:20253C00B8F1000F14BF1848184806F08FF9B6B1D4F8A00000224FF0807305F0EDFAD4F8E7
:20255C00A40000224FF0807305F0E6FA3869C4F8180194F81C0140F0010084F81C0135B1C3
:20257C00D4F8901000982A46334602F04DF9832400E00424019807F055F92046BDE8FE8FF5
:20259C00903900200200004001000204010001042DE9F843444CD4F89800D4F8985004F1F9
:2025BC00980900287ED00646F06840F603020827531C02E040687F1EFFB260B15FB10188E9
:2025DC008A4218BF8B42F5D131694CC830314CC189C881E8890005F1280090E80C00002781
:2025FC0005F12806B84686E88001A96879B13E464FF0E24006EA020110EA03070EBF0029A1
:20261C0032400340B5F93010AE682869B04706F0F6FF0646B4F9AE00401C6FF31F30A4F822
:20263C00AE006FF0020785F8338048462F8606F02DFA304607F0F6F8B4F9AC00B4F9AE10B9
:20265C0088422FD16068D4F8F860D4F8FC7090F8A41000290CBF0520072002F0E5FD40469A
:20267C002EB196F8A45005B9306886F8A48041462FB197F8A46006B9396887F8A480814225
:20269C0038BF011C61B1B1F1FF3F0BD0074A126804F1D400B1FBF2F106F04BFDBDE8F883BC
:2026BC0006F004FCBDE8F88390390020284800202DE9F047DDF820801D4691460E460446D5
:2026DC0004F038FA01270E2804D004F033FA0F2818BF00275FEA070A17D12088A0F60200AE
:2026FC0040B141F21E01401A04D004F11A003060E06903E004F1120030606069C9F8000061
:20271C0000202860C8F8000058E02088A0F60200E8B141F21E01401A16D041F6E671401AAA
:20273C0004D0A26AE06A94F8247002E0226A606A002704F11A013160E169C9F800102A608E
:20275C00C8F80000207E0FE0616AA06A01E0A169E06904F1120232606269C9F80020296037
:20277C00C8F80000E77B207C00F00704286880B140F203714FF6FF72052305F0A3FF06465C
:20279C00052E06DA3846214603F0A3FA296841F82600D8F8000088B140F203714FF6FF7240
:2027BC00052305F08FFF0446052C07DA3846FF2103F08FFAD8F8001041F824005046BDE864
:2027DC00F08770472DE9F8433B4E3C4C3C4DDFF8E090DFF8E0800746012F42D133480068D3
:2027FC00006801460120884701283AD099F8D800002836D1083420684F46C0F38140B0B91D
:20281C004046006898B1014601208847803D4FF00040A86540232B6054F8080C000824BFAC
:20283C004FF40050286007F1540006F0E0FE05F035FF0121206887F8D810C0F3814010B9CA
:20285C004046006848B906F047FE800905D28020B060306840F080003060032005F0EEFC48
:20287C0021E007BB03F026FCA068C0F381475FB92068000824BF4FF400502860404600684D
:20289C0010B101460020884799F8D80058B13068802720F0800030600320B76005F0B6FC73
:2028BC00002089F8D8000020BDE8F883E001001040580020A0A4000090220840AC4F005011
:2028DC0028A10C402DE9F04717468846814603F025FC394C3148DFF8C8A00026343C06603B
:2028FC00DAF8000020688169272088472E4D2D4805F1140211680840106028465C300068D3
:20291C0020F48070E8652068016B4FF4806088472068016B4FF4816088472068016B4FF446
:20293C00C0608847214901200860C5F864812049086022480C3050F80C1C890805D2B7F100
:20295C00FF3F08BF4FF040473E460660DAF8000028688008FCD32068416B07208847022899
:20297C00F9D1B9F1010F13D0206A124E8168304688470428F8D0012804D1206A4268032172
:20299C0030469047D5F8FC0120F00300C5F8FC012068806B8047BDE8F087C0460C40094046
:2029BC002C200940FFFFFEFE28200840282008608001044300400340EC010010100009408B
:2029DC003D482DE9F04F001FADF1140D00F1A00100F1900B8046029100F1A40103914FF43F
:2029FC00804006F0F1FBE8B14FF00450D0F89813D8F8046090F88503C3F38857C1F31501D7
:202A1C00C0F38002C1F31501B8050143B06841EAC2716A4600F060FCD8F80400816801204A
:202A3C0005F06EFF002702260DF10409214D049759F8044F236863B32068806906F0C4FB4A
:202A5C00824620680023524605F066F81AF00A0F08D1BAF1000F1CD0206847F48047C8F810
:202A7C00A80016E020681249AB688069014023EA0100A8602068C1692A6822EA010028608D
:202A9C0021680BF1080005F095FE049847F002072060761ECCD127B108F59070394606F02E
:202ABC00CCFD01F013FBFEF77BFA05B0BDE8F08FFDBFFFFF0C100440943900202DE9FC4195
:202ADC0091EA03084CBF4FF000484FF000084FEAC32545EA52554FEAC2264FEA43077F0D54
:202AFC0011BF45F0004500210020BDE8FC815FF4E06E1EF1FF0E774555D04FEAC12343EA25
:202B1C0050534FEAC0224FEA4104640D11BF43F0004300210020BDE8FC81744543D0E4197A
:202B3C00A3FB0501A3FB06E7A2FB06631EEB030E57F1000751F10001A2FB05631EEB060E76
:202B5C0057F1000751F10001FF1851F10001C01951F100014CBF4FF4806E4FF4007E10EB59
:202B7C000E0051F1000148BF641C01D4400049415FF44077FF37E41BDEBF00210020BDE800
:202B9C00FC8117F58067BC420DD24FEAD02040EA41504FEA41014FEA113141EA045141EA47
:202BBC000801BDE8FC810020FF21C900C91D090551EA0801BDE8FC812DE9F84F0D4606466F
:202BDC005FFA85FA280824BF3448454034494FEA8A033448CA5806F4E02C06EA0507BCF559
:202BFC00E02F00EA070085EA020406EA040422EA0602C4F3006740EA020001D1420E14D3E5
:202C1C0006F4E022174310D000F4E027B7F5A02707D0B7F5803704BF20F4003040F4A020BF
:202C3C0003E020F4803040F4C0201F4CDFF87C80012202FA0AFBC4F800B008F1D007C85007
:202C5C003968002002FA0AF40C4218BF101C5FEA000906D1F00D04D34146C5F3805001F847
:202C7C000A00300E0BD306F0CAFC290E34BF0021211C3A68A2431143396006F0D3FDB9F1EA
:202C9C00000F06D0F00D04D34046C5F3805100F80A100548C0F800B0BDE8F88F006000A05D
:202CBC0000100840007F077FE02002600020024070B5324C0D46A8084FD2E8085DD30125CA
:202CDC000420657005F0BAFA2D480068006B8047A060606804F190060146306870B100696B
:202CFC00064649B18E4207D0716AC90803D3036A042100229847757531466160486821497A
:202D1C0000780860022005F099FA112000F0B0FD1D480078257610B90E2000F0A9FD606872
:202D3C004168886808B9C86810B1184806F042FB17490720002608601649184B0E60164DF1
:202D5C004E600A68E36145EA020008601A2006F058FC192006F055FC70BDFFF719FC2046B8
:202D7C0000F19801096811B903F00EFB70BD00F5907045F0020106F060FC70BD90390020B4
:202D9C008C010010D0210840FEA4000051000706000004601410044002400040451E000090
:202DBC0000B5ADF1140D00900020019000200290002003902B480078002850D02A480068D0
:202DDC000190009806F094F903900398029027480399008840F2E24202FB00100390214978
:202DFC00002008702248006805F044FC04902148007801280DD11F490020087003981E499A
:202E1C0008601B49002008601B48006804F052FC25E0019A02980499801A814210D21448C3
:202E3C00006840F24131814203D911490868401C08601249032008701149032008700EE064
:202E5C000D4803990068884209D003980A4908600749002008600848006804F02BFC05B0A4
:202E7C0000BDC046485C0020385C0020145C0020345C0020495C0020445C00202966002087
:202E9C002866002008B58DF8000006F0C8FB9DF80010401E884201DA002060E09DF80000D0
:202EBC002F4911F810008DF801009DF800002D4911F810008DF8020000208DF803009DF8F7
:202EDC00010078B906F0A7FB9DF80220401E0021904201DA002000E0012000B101218DF8B0
:202EFC0003103AE09DF8010001280FD106F095FB9DF80220401E0021904201DA002000E081
:202F1C00012000B101218DF8031026E09DF8010002280FD106F07DFB9DF80220401E0021BF
:202F3C00904201DA002000E0012000B101218DF8031012E09DF8010003280ED106F067FB52
:202F5C009DF80220401E0021904201DA002000E0012000B101218DF803109DF8030008BD89
:202F7C007CA400007DA4000090B503AFADF1140D8DF81230ADF810200191009038883A88FE
:202F9C009DF81230BDF810400830411000EB917121F00301401A121A0C325A43A24201DD8B
:202FBC0001204FE038880830411000EB917121F00301401AC0F104008DF813000198029088
:202FDC00002003909DF81200039988422DDD9DF813103888039B029A4018083000FB0320AB
:202FFC0001900198002101710199487920F00300487101980199407920F00C0040F0080091
:20301C00487138880199C8803B889DF8132001980199C0188018083008600398401C0390E1
:20303C009DF8120003998842D1DC0298019908600298009908600098002141600249029844
:20305C000860002005B090BD204800202DE9F84307467D68BE6890460C4606F0D0FA8146EA
:20307C0030682B78026B02F4807203B11AB1484606F0D8FB56E005F5827006F0BAFA2C6274
:20309C000024EC776C623168086B40F480700863484606F0C7FB05F2291005F009FE41462B
:2030BC00384604F0E7FE05F22919A862A8B93846414603F093FFA878D0B9A96805F1CC00F3
:2030DC0006F046F9E8B1AC621020E8773146284601F026FA05F2291022E006F090FA326827
:2030FC00916B41F02001916306F09CFBA87810B12046BDE8F883A96805F1CC0006F028F994
:20311C0010B9686ABDE8F8833846414603F066FF1020AC623146E877284601F001FA48467F
:20313C0005F0B6FD4FF0FF30BDE8F8832DE9F84F994692460D46804606F061FA834605F001
:20315C00CDFB0AAF061C51D02C4C04F1D40006F050FAF560B4F9AC0086F832A0401C6FF352
:20317C001F30A4F8AC00C6F80890C6F81080B4F8AC00308697E8060002230B432049002069
:20319C0040EA020720223A40194006F1180706F1200387E80600014683E803003164802735
:2031BC0086F8337086F84410716386F838104FF0FF32F263B164F164287B00F00F0002286B
:2031DC0004D1012086F83800A868706388F8A41004F19000314605F0EDFAD4F89000864214
:2031FC0001D103F0D1F8B6F9304001E06FF00104584606F017FB2046BDE8F88F90390020A0
:20321C00FFEFFF9F2DE9F8430446994690460E1C44BF0020011C5BD406F00BFA0546314660
:20323C008022204604F05AFC071C04D097F8331031F07F0106D1284606F0F0FA022000214E
:20325C00BDE8F8834FF0E0400A2107F1200640EA090941EA080896E8030008EA000019EA9D
:20327C00010608BF00281CD0284606F0D7FA07F1200003C804F1780604F1780508EA000859
:20329C0009EA010986E8000395E80C0007F1200696E8030007F120059943904385E8030040
:2032BC0013E00C48B968884202D0B9682167B86004F1680080E80003284606F0AFFA04F163
:2032DC0048004FF0FF3106F043F8783494E80300BDE8F883D1670000F0B50E460021ADF1AF
:2032FC00140D0191029103911446049103AB02AA04A9009101A9FFF7DBF98325310824D206
:20331C00E0B1039F87B10499C6F3150271B1019840F22B210280384605F06DF902980499EE
:20333C0002F066FC039826E0C6F3150240B1019800884FF6FF71814202D132E0C6F315026D
:20335C00019802806280102029E0002829D00399A9B10499C6F3150699B101984FF6FF72FA
:20337C000280084632462B2105F045F90298049902F020FD049815212180606012E0C6F346
:20339C00150670B102982B21324605F034F9FF2807D001984FF6FF710180666014202080EE
:2033BC0000E00325284605B0F0BD70470EB5009000208DF804004BE02F480078022858D0FA
:2033DC0006F0C5F88DF804002B490220087050E02948007803284CD006F024F88DF804008C
:2033FC0025490320087044E000990098B1F80310401D03F00FFD8DF804003AE00099009867
:20341C00B1F80310401D03F08FFC8DF8040030E000990098B1F80310401D04F0C9FA8DF8DA
:20343C00040026E000208DF8040022E01248007802281ED000990098B1F80310401D01F096
:20345C0007F98DF8040014E003208DF8040010E0009880784038E5D0401EADD0401EB7D0BA
:20347C00C01EC1D0801EC9D01938DFD01038CFD0EAE79DF804000EBD4F5C00202DE9FE4F40
:20349C00DFF8C48098F8E901002851D0002501212C4698F8E92101FA04F0104203D1641C4A
:2034BC00032CF6D344E098F8E9211020A040104218BF0D1C06F0A3F898F8E9211121A1409A
:2034DC0081F0FF01114088F8E91106F0ABF9E0B205F0D4FE60B3877A57B390F909901949FF
:2034FC000768012D446851F82960019710D0017A02290DD100F1100191E8000C00274FF0AC
:20351C00805317EA0B0703EA0A0108BF002901D102F006FA012D04D0009600224FF00063A1
:20353C0003E000224FF00073009201984946A04798F8E90120B108F5AA70002106F07DF829
:20355C00BDE8FE8F9430044090390020ADF1100D009000208DF80400284900200870009897
:20357C002749007808700098264940780870009825498078087000982449C07808700098D5
:20359C0023490079087000208DF808009DF80800252831DA9DF80800811000EB5170C01066
:2035BC008DF80C009DF80800811000EB517121F00701401A8DF80D0011499DF80C009DF8EE
:2035DC000D20095C01209040084207D00B4A1078104B411C11709DF8041019549DF8040066
:2035FC00401C8DF804009DF80800401C8DF808009DF808002528CDDB04B07047285C0020A3
:20361C00E1470020E2470020E3470020E4470020E5470020C046002000B5ADF1240D254805
:20363C000078002837D103F07FFF234805F00CFD224900200870224900200870214900205C
:20365C00087021490020087020494FF4612008601F4944F6206008601749002004F00AF93E
:20367C001C4908601B48006810B90CA006F0CEF8684605F074FD01208DF818001648012113
:20369C006A4606F0BFF8144805F050FF1349086008490120087009B000BDC0464572726F4F
:2036BC0072206F70656E696E6720746865205541525400C0C5660020E8460020FE460020F2
:2036DC00FD460020FC460020FF46002000470020EC460020FC470020484700200048002071
:2036FC002DE9B043044605F08AFF81462A48221892F8EA10491ECFB2002F82F8EA7044D1E6
:20371C00284901EB84010D78498835F07F0788461AD1E90911D24FF08054D4F8B80180699B
:20373C0001464046884704F5DC742068406B0146404688470228F8D121E000EB8800D0F88A
:20375C000011002088471AE04FF08054D4F8B801006A014640468847D4F8B801806A0146FF
:20377C0040468847D4F8B801006B01464046884701210A4A0A48116001688908FCD305F055
:20379C003F00152801DAFFF7ABFF484606F04AF80020BDE8B083C0464058002028200860EA
:2037BC0028200840CCA100002DE9FC412B4E2C4F56F8045C30680540F8680068804704F09B
:2037DC005DFA284C80466069404535D03868C4F81480C168404688470746207E022802D094
:2037FC00207E04281BD1D4F8A00010B9D4F8A40060B101200090D4F8A000D4F8A01000693F
:20381C00B1F9301000221346FEF728FE164A60684FF6FC7139401143002204F0E5FB134814
:20383C00018801F00C020020042A01D1C90B00D210B1404602F076FD56F81C0C00F5407057
:20385C00F06056F81C0CA0F54070306130682840306030680542F9D1BDE8FC814C50094070
:20387C00E0010010903900200100080600A00C402DE9F041064605F0C2FE2A4D8046711948
:20389C0091F8EA00421C002881F8EA2043D1264C04EB8604277807F03F00152801DAFFF7AE
:2038BC00E7FF668837F07F001AD1F80911D24FF08054D4F8B801406901463046884704F5DD
:2038DC00DC742068406B0146304688470128F8D121E005EB8605D5F80011012088471AE087
:2038FC004FF08054D4F8B801C069014630468847D4F8B801406A014630468847D4F8B8011F
:20391C00C06A0146304688470121084A0848116001688908FCD3404605F084FF0020BDE814
:20393C00F081C04640580020CCA10000282008602820084008B58DF800009DF8000090B96F
:20395C002B4800681C21002204F0AAF8284800681D21002204F0A4F8254800681E2101227C
:20397C0004F09EF843E09DF80000012812D1204800681C21002204F093F81D4800681D2124
:20399C00002204F08DF81A4800681E21012204F087F82CE09DF80000022812D1144800685F
:2039BC001C21012204F07CF8114800681D21002204F076F80E4800681E21002204F070F825
:2039DC0015E09DF80000032811D1094800681C21012204F065F8064800681D21002204F0C0
:2039FC005FF8034800681E21002204F059F808BD1C480020F0B585686A7D2C49ADF1140D05
:203A1C0042F000462B7DAC7D009646680027FF2C41EA03024FF00203019202D0E87DFF2846
:203A3C0000D13FB1EA7DA87D11430423039140F000400290FE2106F154004DF8231069467B
:203A5C0000F09CF93066306E002808BF381C2AD0174C29688C4214BF13220F22697D04F07F
:203A7C0045FB2868844214BF14221022297D306E04F03CFBA97DFF2902D0E87DFF2800D16D
:203A9C0087B12868844214BF15221122306E04F02DFB2868844214BF16221222E97D306EEC
:203ABC0004F024FB012005B0F0BDC0460000C0A000100040FEB54FF0805684684568D6F86F
:203ADC00D0112068C9688847216822488A6B1040886340F2F2712068204B41641E4994F81E
:203AFC00210094F82020085C9A5C216810434863684605F076FD1C4FDFF868E0D6F8D0118D
:203B1C002B7FDFF85CC06A7FA87F496857F823705EF82260AA695CF820300D462068019945
:203B3C003E433343A8472168C86A40F01000C8622168086B40F001000863A07D0027FF285B
:203B5C0002D0E07DFF2800D11FB1086B40F440400863FEBD0DF8FFFF52A500005EA5000008
:203B7C00A4A4000034A50000ECA400002DE9F04105F082FC4FF08058D8F8E801406880477F
:203B9C0005F0AAFC054605F00C000C2839D0E8081ED204F0DBFC1E4F3C6806460120014675
:203BBC0005F002F939687143884211D2194DF020B0FBF4F0311A284605F020FE284605F0C3
:203BDC0019FE0120FDF74AF8284605F00FFE1AE0280916D208F5EC742068806801460E486E
:203BFC0088470428F8D0690903D2002818BF002000D1012004F0C4F90848012101600068A2
:203C1C0001E005F0EAFC05F03DFCBDE8F081C04670A500004C580020004003402C20094091
:203C3C000EB501910090FFF7F7FC03F039FC2348234900F0A3F8204908601F48006810B9A7
:203C5C0014A005F0E3FD1F4805F0CCFD1E481D2104F062F9182005F0C1FA0022002100B1CB
:203C7C00012101B9012214480068182103F018FF1648006801210022002305F0AFFD0290C2
:203C9C0002984008DFD30C48006805F07EF805F0A1FDD8E74572726F7220696E6974696153
:203CBC006C697A696E6720626F617264204C45442070696E730A00C024480020C0470020E7
:203CDC0030660020A086010018A40000384800201FB58DF80A20ADF80810009008208DF812
:203CFC000B000098019000200390BDF80800039988421ADDBDF8082000980399BDF8084099
:203D1C009DF80B308018401A039A009910F8010C0919C918891A01F8010C0398401C039044
:203D3C00BDF8080003998842E4DC9DF80A00019908700198401C01900D480188019804F0E2
:203D5C0084FC0198801C01900A480199007808700198401C019008490198096803F054FFFE
:203D7C009DF80B10BDF80800401880B200901FBD405C0020296600202C5C00202DE9F04764
:203D9C000E46071C14BF002E002042D0DFF888A04FF0FF31504605F0DBFA3178DFF87C9003
:203DBC00FE2910D01F4802680020FF2906D08A422AD31E2928DC59F821502DBB401C16F8C9
:203DDC002010FE29F1D100243C607C60BC603178FE291AD0351D4FF00108FF290ED01F2954
:203DFC000CDA08FA01F049F821707A680C49104356F824207860384603F05CFF15F8041B10
:203E1C00641CFE29E9D100E00027504605F00DFC3846BDE8F087C04680470020E0440020BF
:203E3C00007FC76738660020ADF1080DADF80210ADF800004FF0FF308DF80400BDF802003E
:203E5C0010B14FF0FF3043E0BDF8000040F66211814203D125208DF8040037E0BDF8000065
:203E7C0040F67A11814203D126208DF804002DE0BDF80000B0F51B6F03D127208DF804006A
:203E9C0024E0BDF8000040F6641181420FDCBDF8000040F67811814209DBBDF80000A0F68E
:203EBC00641000EBD07040108DF804000EE0BDF8000040F67C11814208DCBDF80000A0F616
:203EDC00661000EBD07040108DF804009DF9040002B07047244A2DE9F0418046254C5068A5
:203EFC00800806D2106804F14D01000C40F0F00008701F484FF001214FF08057C0F8041439
:203F1C0007F5F8760088D7F8F0019568174F016828468847A80E03D2680E24BF0220207034
:203F3C003068426829464046904713480068C0F305313970410A39BF402184F8231040214E
:203F5C00E174800900F0380040F46050A7F85C003068816828468847022003F0F7FF074947
:203F7C0001200860BDE8F081AC4F00500EB00C4000A00C40096208400C14005094046042E8
:203F9C0000B5ADF1140D0091ADF80C00009805F0AFF80190BDF80C10009803F027FD029078
:203FBC001C480078012803D11B490020087027E01A48007818B118490120087020E018480C
:203FDC000078032803D114490320087018E0154901980968401AFA2803D90F4903200870AB
:203FFC000EE00F480078012803D10B490220087006E00B480078022802D107490120087066
:20401C00054807490078087002980649086005B000BDC046105C002029660020485C00202F
:20403C00286600202C66002000B5ADF1140D002004F01EFA04F0F0FF00210622684601F099
:20405C00EFFC00208DF80C009DF80C00062810DA9DF80C001B499DF80C20085C02F80D00BE
:20407C009DF80C00401C8DF80C009DF80C000628EEDBFCF751FB05F023FA8DF808001249C5
:20409C009DF80800097802F07DF800208DF80C009DF80C00062810DA9DF80C009DF80C10C3
:2040BC00084A10F80D0050549DF80C00401C8DF80C009DF80C000628EEDB04F0D7F805B03B
:2040DC0000BDC046B06600204B5C00202DE9F047254EDFF89890002501244FF0020A4FF071
:2040FC001108E8B205F0CAF8071C37D0B87A012834D197F90900113004FA00F0C14346F8A6
:20411C00041C31680843306097F9090004FA00F0C0B204F0E7FE07F11000002104F0BEF949
:20413C000146812909D1B86918B1002104F0B6F90146812908BF87F80AA081290ED04846F3
:20415C0097F9091090F8E92108FA01F1114380F8E911002100F5AA7005F06FFA6D1C032D07
:20417C00BFD3BDE8F087C0460C1004409039002000B5ADF1140DADF808100090009845F296
:20419C00403101800098C0218170BDF808000099801DA1F8030005F099F9022808D1BDF8D9
:2041BC000810009840180A300390039804F005F905F08CF9032814D1BDF80800401EADF837
:2041DC0008000099B1F80300401EA1F803000098BDF8081040180A300390039804F0D6F895
:2041FC0008E0BDF80810009840180A300390039803F05CFEBDF80810009840180B300190C0
:20421C00019844F2405104F020FABDF8080005B000BD7047F0B520480127F84201D002F0FC
:20423C00B7FE204D204F214EBD4206D203CD0478A4003459401CA047F6E71D48002800D091
:20425C008047164D164FBD4202D210CDA047FAE7F0BD03251BE0416808300A1C2A400BD11E
:20427C001A1C2A40AB4305D0046804300C600431043BF9D1131C05D0047801300C70013116
:20429C00013BF9D1021C2A4001D0A84304300368002BE0D17047C046FFFFFFFF0000000084
:2042BC0000000000E8A9000010AA0000BCA9000075F402102DE9F84F8146002100200A4602
:2042DC00C9F80000684600F02DFBDFF87C80DFF87CA000264FF0FF354FF0190B34460746B2
:2042FC00E0B204F0CBFFC0B1837AB3B1017A0126022916D04246516892F8EA314069CA8AEA
:20431C000969891813FB0B1104F018FA51460968B0FBF1F0854288BF051C641C032CDFD31A
:20433C0000E000251FB1012E04D0012F05D0012E04D005E00098854200D9009DC9F80050B6
:20435C003E43F0B2BDE8F88F903900202848002000B5ADF1140D8DE80C008DF80C10029051
:20437C009DE80C004FF000600021184001EA020100D100292BD001F031FE0490154800681C
:20439C0068B115489DF90C1090F90000884206D11048006801460498884702F087FD0F4870
:2043BC009DF90C1090F90000884204D10C4800680146049888470B489DF90C1090F900000B
:2043DC00884204D10848006801460498884705B000BDC046106600200D660020B8650020DA
:2043FC00B4650020C0650020BC650020002A4AD05FEA000C8B071CD1830722D1102A08D338
:20441C0070B4103A78C978C0103AFBD270BC103238D0042A2CD3082A05D30C2A24BF08C9EB
:20443C0008C008C908C008C908C092072AD0920F22E00B780370491C401C521E22D08B0785
:20445C00F7D1C30714D18307D8D0121F12D308C903801B0C4380001D121FF8D20AE008C970
:20447C0003701B0A43701B0A83701B0AC370001D121FF4D2121D05D00B780370491C401C96
:20449C00521EF9D160467047234838B5F0380468B4F1FF3F08BF002404F035FE1F48154BC1
:2044BC000025103805601868806C80471248006820B1124800682046FFF70CFD104811496F
:2044DC000560114C0A686FF35B4244EA020008600E490868C0F30130012806D10A680C4884
:2044FC00104040F400320A6008600A4908680028FCD138BDF0010010800128438005204396
:20451C008C210840482003400000390128000940EFFFFCFC0C0068420C14005094046042EE
:20453C00F8B50C46054605F06AF82268916B21F02001916305F076F9286E217D012202F065
:20455C004DFE286E217D012203F0AAFA286E217D002203F0CBFD286EA17D002203F0C6FD69
:20457C00A878012807D005F1CC004FF0FF3104F0EFFE206803E0206881690909FCD20D4ED5
:20459C0086420CBF10221422217D286E03F0AEFDA17D0027FF2902D0E07DFF2800D13FB1AE
:2045BC002068864214BF15221122286E03F09EFDF8BDC046001000408B4208BF824204D9EE
:2045DC000B1C021C002100207047002B08BF002A0BD10B1C021C00210020002B08BF002AE8
:2045FC001CBFC943C04300F032B8F0B51C4615460B46024600200021B4FA84F6202E04BF66
:20461C00B5FA85F62036B3FA83F7202F04BFB2FA82F72037F61BB6F1200727BF05FA07F48A
:20463C0000257F42B4403EBF25FA07F73C43B540A34208BFAA4201D3521BA341404149412E
:20465C006D0845EAC4756408761EF1D5F0BD704700B5ADF1140DADF80810009004F008FB7F
:20467C0002F04AFCBDF80800062807DBBDF8080000EBD07121F00101401A03D004F0E8FA1A
:20469C0003202BE0164840F2FF7102F013FE0098019001980088ADF80A0000200390BDF86C
:2046BC000A000399884216DDBDF80810009800F01BFB8DF810009DF8100020B104F0C8FA4F
:2046DC009DF810000AE00398401C0390BDF80A0003998842E8DC04F0BBFA002005B000BD81
:2046FC009031002000B5ADF1240D0392ADF8141002900020049004F0E9FE022803D004F0C9
:20471C00E5FE03280AD1BDF81400001F069002980699401803F00EF9049019E0BDF8140035
:20473C00401F0690BDF81400401EADF81C0002980699401803F0FEF80490BDF81C100298F7
:20475C00085C8DF81E00069A02999DF81E0050540498042103F062FC8DE80300039A9DE8F8
:20477C00030002F08FFABDF81400001F80B2ADF8140009B000BD2DE9F04106467468B568CA
:20479C0004F03DFF8046A06A58B928688169090907D2006B400A04D2404605F043F8BDE8A1
:2047BC00F08104F5827004F024FF00274046A76205F038F8A97D3846FF2902D0E97DFF2963
:2047DC0000D118B120462946FFF7AAFE04F017FF2A68916B21F0200191632A68116B21F4CF
:2047FC008071116305F01EF804F2291004F050FA616A206A2769626A401A2062216A3B4627
:20481C0030469847BDE8F0812DE9FE4F0190214800F190063768994692460D46002480469A
:20483C0000E03F6897B3BD42FBD1D7F800B00198394604F0C7FD18B3384600224FF08053F4
:20485C0003F06AF906F10800B9F1000F00900ED0384600224FF0807303F05EF9286998F883
:20487C001C31C8F8180143F0010088F81C013046394603F0C5FF0098394603F09BFF641C55
:20489C00BAF1000F18BF5FEA0B07CED12046BDE8FE8FC04690390020ADF1080D0191009015
:2048BC0000980078800901D300202BE01648007838B3164801990078097888421FD114487C
:2048DC00019900784978884219D11248019900788978884213D1104801990078C9788842A5
:2048FC000DD10E48019900780979884207D10C48019900784979884201D1012002E000204B
:20491C0000E0012002B070474C5C0020B0660020B1660020B2660020B3660020B466002031
:20493C00B5660020DFF880C0F8B50B1C04464FF000050FD0DCF890702E466FB1F868007B85
:20495C0000F00F00022803D03F68002FF6D103E03E4601E0DCF890600EB302B11660F06854
:20497C00007B012500F00F00022818D1012B09D03069C28A9CF8EA3100691921801813FB86
:20499C00010103E03169088DC9680918706B03F0D5FE064909682060B0FBF1F000E0002028
:2049BC0020602846F8BDC046903900202848002000B5ADF1140D8DE80C00ADF8101002906D
:2049DC00002003909DE80C004FF400010020184001EA020100D1002903D0039840F0010034
:2049FC0003909DE80C0000204FF48001184001EA020100D100290FD0039840F00200039014
:204A1C0004F064FD022807D10A490948B1F900100068002204F0D0FA039838B10648006843
:204A3C0020B10548006801460398884705B000BD34480020F24700201466002008B5164807
:204A5C0004F098FB15490120086015481249002204F0BCFE134804F08DFB13490220086087
:204A7C0012481049002204F0B1FE114804F082FB10490320086010480D49002204F0A6FE8C
:204A9C000E4804F077FB0E49042008600D480B49002204F09BFE08BD144600202C46002032
:204ABC00198A0000D8450020F04500201567000050460020684600203D3C00009C4500202B
:204ADC00B4450020B5660000F8B51C4ED6F8600101680120884701282ED0D6F82401184D68
:204AFC00C4683C21012200232846A047002808BF002022D02F8817F0010704D14FF001207A
:204B1C00C5F80404288830688047012F04BF4FF08070C5F804040D4A0A480B4F13690168D6
:204B3C0090685161A0EB9000C91A07FB01F3190C814228BF081C90600120F8BD8000001072
:204B5C0000A00C403020094040420F002C4700200EB58DF804001F499DF80420900000EBA8
:204B7C0002100858009004F00FFD00994969086000984169087920F00100087100984169D5
:204B9C00087920F00200087100984169087920F00400087100984169087940F00800087129
:204BBC0000984169087940F01000087100984169087940F02000087100984169087940F0DE
:204BDC004000087100984169087940F0800008710EBDC04640A300000EB58DF804001F49AC
:204BFC009DF80420900000EB02100858009004F0CBFC009988620099C87B40F00100C873DD
:204C1C000099C87B20F00200C873009840F2FF7101830099887B40F0020088730099887B2C
:204C3C0040F0040088730099C87B40F00800C8730099C87B40F02000C8730099C87B40F067
:204C5C004000C8730099C87B40F08000C8730099C87B40F01000C8730EBDC04670A10000BD
:204C7C0030B5204D45EA0401ADF11C0DC1F315040021019102910391049104A90091806869
:204C9C0002AA03AB01A9FDF713FD0146019802884FF6FF7090421DD101B3039808B104986E
:204CBC0040B9D9B102982B2105AA04F00DF9FF2806D113E02B2105AA04F006F9FF280DD0E3
:204CDC00C4F38850059C80056FF39F54044344F0004403E0A805204042EA0004204607B0B2
:204CFC0030BDC046FFFF3F0000B5ADF11C0DADF804100090BDF80400801E411000EB91700F
:204D1C008010ADF8060000200290BDF80600029988422ADD0098801C03900299039800EB7B
:204D3C00810003900398049004980088ADF818000398801C059005980088ADF81A00BDF8CE
:204D5C00180040F2FF71814201DA03200EE0BDF81800BDF81A1002F0C5FB0298401C0290E8
:204D7C00BDF8060002998842D4DC002007B000BDF8B51F4CA0F5C060D4F8B010C4F8CC00D2
:204D9C000029B8BF49420028B8BF404281422BDA4FF08057D7F8A401B4F8B410154D4068DF
:204DBC004FF47F4208230646009128463021B047D7F8A401B4F8B81040684FF4F802122313
:204DDC000646009104212846B047D7F8A401B4F8C81040684FF440620A2306460091202180
:204DFC002846B047012000E0002084F8D000F8BD4058002000A00C407CB5204C3C3CE06B0C
:204E1C0000680146042088471B4D02281AD0032818D001282FD12068406803214FF04052F7
:204E3C001C230646009128460021B0472068406801214FF400720923044600912846002117
:204E5C00A0477CBD2068406803214FF040521C230646009128460021B047206840680121FD
:204E7C004FF4007209230446009128460021A047022003F0CBF97CBD00A00C40E0010010F5
:204E9C001C49B0B509684BF2F52250430027040A01F44021B1F5802F03D117480068800CCD
:204EBC0000D38FB14FF08055D5F8EC010068804702F0E4FED5F8E011C96888472111C01032
:204EDC0000B2484304EBE0340D4901F1E000007830B90A48006820F07F402418640801E0DB
:204EFC0081F8E07007480460210C416001278760B0BDC046B44F00508C130050102009400F
:204F1C00405800207C600C4010B5994201D1904233D050EA020404D141EA03046400002C77
:204F3C002BD050EA410401D19C4226E04C006415641C07D15C006415641C03D1DC0FB4EB55
:204F5C00D1741AE0002B0CD4002916D4994214D190EA020401D490420FE0002A0DD10124D5
:204F7C000BE0002909DC8B4207D190EA020401D4824202E0002800D10124EFF3008454BFE5
:204F9C0044F0005424F0005484F3008810BD10B58B4201D1824233D052EA000404D143EACC
:204FBC0001046400002C2BD052EA430401D18C4226E05C006415641C07D14C006415641CAA
:204FDC0003D1CC0FB4EBD3741AE000290CD4002B16D48B4214D192EA000401D482420FE04E
:204FFC0000280DD101240BE0002B09DC994207D192EA000401D4904202E0002A00D1012493
:20501C00EFF3008454BF44F0005424F0005484F3008810BDADF1080D8DF800009DF8000072
:20503C00272802DC9DF8000035E09DF80000662801D125202FE09DF800007E2801D12620E1
:20505C0029E09DF80000B42801D1272023E09DF8000068280BDB9DF800007C2807DC9DF8E2
:20507C000000683800EBD0704010C0B213E09DF8000080280DDB9DF80000B22809DC9DF886
:20509C0000000B21803800EBD07001EB6001C8B201E09DF8000002B070470EB58DF80410E3
:2050BC00009000980022142102F0FAFC00208DF805009DF80500082822DA00980A21002218
:2050DC0002F0EEFC9DF805009DF80420C0F1070002410098092102F0010202F0E1FC00986C
:2050FC000A21012202F0DCFC082004F064FA9DF80500401C8DF805009DF805000828DCDB01
:20511C0000980A21002202F0CBFC00981421012202F0C6FC4FF42F7004F04DFA0EBD704792
:20513C0000B5ADF1140D03F02FFF009004F04AFB0190009840F60B010B3001F069FBADF855
:20515C0008000098009ABDF808100B30FFF7CAFAADF8080004F08AF98DF80E00104A9DF891
:20517C000E10009852F83120BDF808100B309047ADF808000098BDF8081004F043F8ADF8FD
:20519C000A00BDF80A000D30ADF80C00019804F015FBBDF80C10009802F0D8FF05B000BDFB
:2051BC00DCA4000000B5ADF1140DADF80A20ADF808108DF80C001A499DF80C20900000EB23
:2051DC0002100858009017499DF80C20900000EB021008580190BDF808000099C881BDF8BE
:2051FC000A0000990882BDF80800BDF80A10FEF71BFE8DF80D009DF90D00B0F1FF3F06D0E2
:20521C009DF80C009DF80D1000F0BCFF05E0BDF808000199A0F6FC00887305B000BDC04633
:20523C003CA3000040A30000F8B5054604F0E7F91D4C064604F58E710878A84304F1F805BA
:20525C0008702868002808BF002706D02868803004F090F8002700B10127686838B1803019
:20527C0004F088F80025384318BF01252F4694F81C01A0B9012F12D0D4F8180178B1416ABF
:20529C0089080CD3056A304604F0CCFAD4F8180102210022A8470020C4F81801F8BD3046AA
:2052BC0004F0C0FAF8BDC04690390020F8B507460024081C08BF0124002302B90123002F21
:2052DC0033D01AB197F84460002E2ED080B190F844606EB17D6B016CAD08A5EB910539465A
:2052FC0004F0AEF82D1AB5F1704F04DB002D02DC012C01D019E00124BAB1D068007B00F038
:20531C000F00022811D1516B386C8D081146A5EB9005384604F094F801262D1AB5F1704F14
:20533C0002DB002DD8BF002633431C40E0B2F8BD70B506467468B568206E03F026FD2968D2
:20535C001A488A6B10400022886330462270FFF712FA304601F0F6FD2968C86A20F0100036
:20537C00C862296812480A6B104008636868FEF7B7F904F17C0004F040F904F1980004F038
:20539C0056F9A07818B904F1CC0004F04CF9607818B904F1E80004F046F904F5827004F027
:2053BC001EF904F1680003F0F3FB70BD0DF8FFFFFEFCFFFF30B51A4C054660680121018053
:2053DC00A1680868ADF1840D08B903A80860284604F0F0F9032004F0E9F9124800680168C6
:2053FC0011B1A068006888470F48104C104B0068218800F0FF0218680F2A04D30D48006833
:20541C0040F2D53301E040F2D23300900192A86B02900020024604F0C5F921B030BDC04678
:20543C00205A00207C9D000004ED00E0349E000064A50000A89E000008B501F07BFB8DF802
:20545C0000001FE041F2103036E041F2503033E042F2206030E042F230602DE04FF41950A1
:20547C002AE042F2506027E042F2526024E041F2523021E041F253301EE041F212301BE057
:20549C00002019E09DF9000005280CDC0528E8D00028D7D0401ED8D0401ED9D0401EDAD063
:2054BC00401EDBD0ECE70B38DED0401EE5D0401EDDD0401EDED0E3E708BDFEE700B5ADF112
:2054DC00140D1A48007800282ED1062003210022002304F063F9164908600022002306207D
:2054FC00032104F05BF913490860002000900098032816DA0098104940F6160202FB0010B1
:20551C0002900020ADF80C00094800684FF0FF3202A904F03FF90098401C009000980328C5
:20553C00E8DB02490120087005B000BDC76600200448002008480020100100202DE9F8438B
:20555C008146EFF31188202080F311880124164E164DF461164F6C60F86A016A142088475F
:20557C00D9F81000810C14BF000C0420A861386802682321002090470E480068C6F8804212
:20559C0000280CBF211C03210B4807680FB141F00401286820F4E02040EA014028603460B8
:2055BC0088F31188BDE8F8830000244300200940840100106C9E0000CC9E0000ADF1080D0F
:2055DC00009000981749407808801649009A0888927840EA0220088000981349C0780880CC
:2055FC001149009A0888127940EA0220088000980E49C07908800D49009A0888127A40EAC6
:20561C000220088000980A49407A08800849009A0888927A40EA0220088006490120087054
:20563C0002B070471E5C0020205C0020225C0020245C0020265C00200EB58DF804001C491E
:20565C009DF80420900000EB02100858009003F09BFF0099C8610099C87B40F00100C87361
:20567C000099C87B20F00200C8730098802101750099887B40F0020088730099887B40F0A1
:20569C00040088730099C87B40F08000C8730099C87B40F02000C8730099C87B40F0400075
:2056BC00C8730099C87B40F01000C8730EBDC0460CA100001848007838B9194817490278BA
:2056DC00900000EB0210085824E013480078012807D1134813490278900000EB02100858CB
:2056FC0018E00D480078022807D10D480E490278900000EB021008580CE0074800780328D6
:20571C0007D1074809490278900000EB0210085800E000207047C0464D5C002008A100005E
:20573C004E5C00206CA1000064A300003CA300001848007838B9194817490278900000EB11
:20575C000210085824E013480078012807D1134813490278900000EB0210085818E00D4878
:20577C000078022807D10D480E490278900000EB021008580CE007480078032807D107487B
:20579C0009490278900000EB0210085800E000207047C0464D5C002014A100004E5C00202F
:2057BC0078A1000070A3000048A300001848007838B9194817490278900000EB02100858C5
:2057DC0024E013480078012807D1134813490278900000EB0210085818E00D4800780228C8
:2057FC0007D10D480E490278900000EB021008580CE007480078032807D1074809490278D1
:20581C00900000EB0210085800E000207047C0464D5C00200CA100004E5C002070A1000071
:20583C0068A3000040A300001848007838B9194817490278900000EB0210085824E013480E
:20585C000078012807D1134813490278900000EB0210085818E00D480078022807D10D4879
:20587C000E490278900000EB021008580CE007480078032807D1074809490278900000EB02
:20589C000210085800E000207047C0464D5C002004A100004E5C002068A1000060A3000079
:2058BC0038A300001848007838B9194817490278900000EB0210085824E013480078012800
:2058DC0007D1134813490278900000EB0210085818E00D480078022807D10D480E490278C9
:2058FC00900000EB021008580CE007480078032807D1074809490278900000EB02100858E1
:20591C0000E000207047C0464D5C002010A100004E5C002074A100006CA3000044A300005F
:20593C00F8B5074603F06BFE044677B3B87A60B397F9092003F06CF9012303FA02F1CDB298
:20595C0040B1144E30681132934098433060DA4346F8042C0020B8610346BB723B7207F1E0
:20597C0010063B60024686E80C000B4A7B6002F5F47003781943017092F8EA0110B1401E31
:20599C0082F8EA01284602F005FA204603F04AFFF8BDC0460C1004409039002010B5ADF11E
:2059BC00180D0290029800218DE8030003F0EEFE03901748006818B31548006804900298EA
:2059DC00B0F1404F07D913480068800F03D10498401E04900AE00298800F07D10D4800683F
:2059FC00B0F1404F02D90498401C049004989DE80600002304005B1844EB02048DE8180071
:205A1C00039803F00BFF9DE8030006B010BDC046A0660020A4660020002213460A46194647
:205A3C0071B510F0030F0BD0002A82BF00F8011BB2F1010210F0030FF6D1002A08BF71BD1A
:205A5C0011F0FF0141EA0121042A18D341EA0141082A0FD30E46102A08D30C460D46B2F191
:205A7C000F0312F00F0272C0103BFCD812F0080F18BF42C012F0040F18BF40F8041B12F05D
:205A9C00020F18BF20F8021B12F0010F18BF017071BD70470EB58DF804001A499DF8042026
:205ABC00900000EB02100858009003F06DFD009908610099C87B20F00100C8730099C87BEA
:205ADC0020F00200C8730099C87B40F00400C8730099C87B40F00800C8730099C87B40F0B7
:205AFC001000C8730099C87B40F02000C8730099C87B20F04000C8730099C87B40F08000E5
:205B1C00C8730EBD68A3000038B51B4C184A0023164994F8DA00136020B3012817D002283A
:205B3C0007D003281ED151F8350CFFF721F9062016E051F8355C2846FBF7FAFA40F2FE50F4
:205B5C00A84202D2001DA842F1D8042008E051F8350CFFF795F9074800780028E7D00220B9
:205B7C00C4F8DC0003F058FB38BDC0463D400C403C500C409EA400004058002010B5ADF132
:205B9C00280D02A803F052FBFFF7D2FD0446FFF74BFE02461348214602ABFAF78FFC1049F0
:205BBC000860FFF787FD01460D48002200238DE80C0000680022002302F0D4FDFFF7F6FD2C
:205BDC004FF44002002301468DE80C000448074B00680022FDF7AAFA034908800AB010BD1E
:205BFC003448002038440020F2470020CD490000002980B534D00F0E202F1BD0212F08BF12
:205C1C00022218D0A02F08BF032214D087B1102F08BF05220FD0112F08BF06220BD0402F00
:205C3C0008BF072207D0502F0CBF0822092202E0042200E00122C1F39701090241EA021142
:205C5C000268B2F1FF3F41F00F0106D0914204D050F8042FB2F1FF3FF8D14FF0FF3101602A
:205C7C0080BD0EB5009003208DF8040000208DF8050040208DF8060053208DF8070004E054
:205C9C000DF10500012103F0CBF89DF806009DF805108842F4D10DF10500012103F0C0F869
:205CBC009DF807009DF80510884203D003208DF804000BE0009845F24031018000980321D1
:205CDC00801C03F0ADF800208DF804009DF804000EBD062809DC062814D0C8B1801E14D047
:205CFC00801E0FD0401E0AD007E00A3807D0801E08D0C01E03D00F3801D000200AE041F257
:205D1C00011007E04FF2011004E04FF4817001E040F20250FF2904BF40F0C00121F48061CE
:205D3C000AD031B149082CBF40F0100040F0200001E040F03000014640F2037040EA014027
:205D5C00704770472DE9D841DFF85C801748D8F8A06003F01FFB1649044608680F6800F01B
:205D7C002000204007F460270DD066B10300C8F8A8600022304601F0CFFE08F590704FF4B0
:205D9C00804103F05AFC17EA04000AD098F8E91141EA504088F8E901002108F5AA7003F024
:205DBC004CFCBDE8D881C0469039002020000E000C100440002980B532D00F0E202F1BD04D
:205DDC00212F08BF022218D0A02F08BF032214D087B1102F08BF05220FD0112F08BF062272
:205DFC000BD0402F08BF072207D0502F0CBF0822092202E0042200E00122C1F39701090275
:205E1C0041EA02110268B2F1FF3F41F00F0106D0914204D050F8042FB2F1FF3FF8D1016099
:205E3C0080BD98B504466FF002001F688DF800003A462046FFF73AFA10B101208DF800008E
:205E5C009DF9000010F1030F13D1E068007B00F00F0002280DD167B13A6820463946FFF73A
:205E7C0025FA18B9002A1746F6D102E002208DF800009DF9000010F1030F04D1E06B10B1B5
:205E9C0004208DF80000059807609DF9000098BD002B08BF002A0FD10B1C021C002908BF1D
:205EBC00002807BF0020002100204FF00041C4BFC043C943FEF7CBBB10B55C0894EA6104DE
:205EDC0004D55FF0000E40426EEB010113F0004F04D05FF0000E52426EEB0303FEF76CFBC1
:205EFC00241C04D55FF0000E52426EEB0303640004D55FF0000E40426EEB010110BD704722
:205F1C002DE9F8430024002B16460F468046254606D5002FC3F1000302D57F42761E2D25A4
:205F3C0099463846494601F0C5FC0CA0405CB7FBF9F7002F04F1010408F8010DF1D1A642DC
:205F5C0005DD3021301B401E08F8011DFBD10DB108F8015D4046BDE8F883C04630313233D1
:205F7C0034353637383961626364656600000000ADF1080D009000981149007808700098AC
:205F9C0010494078087000980F498078087000980E49C078087000980D49007908700098E6
:205FBC000C49407908800B49009A0888927940EA0220088008490120087002B07047C04679
:205FDC00E9470020EA470020EB470020EC470020ED4700201A5C00201C5C002010B503F025
:205FFC000EFB17490A7E022A1ED0097E04291BD003F018FC134854380068006B80470D4AFC
:20601C00002303F045F80C4C4FF090531B1820684FF07A044FEA000244EB010400215B181C
:20603C0044EB0204241C03E004490C6803F0FAFB204610BD00093D00AC470020043004403F
:20605C0090390020E0010010F8B50E46044603F0D6FA0546F0B203F011F98026071C20D099
:20607C00B87AF0B1124818300078022806D03846FFF756FC00F088F9812612E097F909109E
:20609C000A4E4FF4A060002200EB012000F47F4046EA0001204601F0A7FF06463846FFF77A
:2060BC003FFC284603F0BEFB3046F8BD0100080490390020B0B5154DD5F86001426800218E
:2060DC0001209047D5F8600101680120884788B10F4C278817F0010704D14FF00120C4F8E2
:2060FC000404208828688047012F04BF4FF08070C4F804040748084CD5F86C710068103C96
:20611C00E06038688047A061B0BDC0468000001000A00C40302009403C470020184810B56B
:20613C0008300068810D24D204171248006800688047641CC0F13E0110F1020F4FEAE10176
:20615C00D8BF07218C42B8BF0C1C0B480068C0F30320001B102803DA0028D8BF012000E076
:20617C000F20064900F00F0040F0F00081F84D00087810BDEC0100100C1300500D62084030
:20619C00AC4F00500EB58DF805108DF8040016499DF80420900000EB0210085800909DF888
:2061BC000500FEF737FF8DF8050000999DF8050088739DF80500272805DC0099C87B20F025
:2061DC008000C8730EE000999DF80500009AC97B40F0C00060F30601D1730099C87B20F06F
:2061FC008000C8730EBDC04640A3000008B58DF800009DF80000FCF745FE08B900201FE027
:20621C009DF80000104A0F4912F8100008709DF800000F4A0D4912F81000087001F082FD43
:20623C0008480078FDF786FB06480078032803D1002002F0F9FA02E0012002F0F5FA012036
:20625C0008BDC0464D5C00207CA400004E5C00207DA40000F8B5844640F6FF741CF8013B13
:20627C00002210E0481B401E10F8015B7F1E01F8015BF9D103E01CF8010B01F8010B521C99
:20629C005B08082AEADA5808F5D21CF8010B1CF8015B05F00F07FF1CC5F30315122F45EA6C
:2062BC00001508D11CF8016B300A24BF1CF8010B60F3DF16BF19AC42D4D1F8BD00B5ADF15C
:2062DC00140DADF80400BDF80400ADF806000020ADF80800BDF8060008B3BDF80600082846
:2062FC0002DABDF8060000E00820ADF80800BDF808100DF10A0002F093FD0090BDF8081082
:20631C00BDF80600401AADF806000098082802DABDF8060018B9BDF806000028DDD105B02B
:20633C0000BD0000002810B510D54BF21B714FF40062002381FB0001801A9941CA12002331
:20635C00120D121843EB0103190507E04FF4006200214BF21B73C3FB00210905100B0843BD
:20637C0008490968064A4C6C002380184FF4C061B0FBF1F200204021FFF78AFDA04710BDD8
:20639C00006FDC02F0010010174838B5017E022926D00446207E012825D0207E042822D0E5
:2063BC0003F02DF905466846FDF784FF80B1009949B904F1B00003F01CF904F590700421A1
:2063DC0003F03BF908E004F1B00002F0B2FE03E004F1B00003F00DF9284603F023FA38BD57
:2063FC00192003F010F938BD9039002000B5ADF11C0D049203918DF81800104A9DF8181014
:20641C00049842F831000398800005900C4800900C499DF8180011F930008DF80400059863
:20643C000290094800680022694602F01DFF074A9DF8181002F8310007B000BDB465002030
:20645C006D430000B965002034480020B86500200246F8B5084611464D68203822D0401E62
:20647C001DD0401E18BF6FF001001FD18C6803F0C6F80F4E074630680069014620688847A0
:20649C00B0F1FF3FF7D100246C64EC64286CAC63401EA864384603F0C5F92046F8BD00217D
:2064BC00084601E00121002085F82D10F8BDC046D0010010F8B5044603F0BDF80746A668FF
:2064DC006068790805460CD300F5947002F0E0FB696B286BEB686A6B401A2863296B2046F9
:2064FC009847B80816D305F2291002F0D1FB3168886B20F0200088633168086B20F4807053
:20651C000863286A696A2B696A6A401A2862296A20469847F8BD0EB58DF804100090009832
:20653C0045F24031018000988021817000990720A1F803009DF8040000994871FEF77CFF35
:20655C000099C88000F096FD0099087203F053F80099487203F02CF80099488100980A21DB
:20657C00801C00F036FF00990873009844F24051A0F80D100EBD000008B514491248097856
:20659C0000782522401890FBF2F15143401A8DF801000D499DF8010008709DF8010001F0FB
:2065BC0043FA10B19DF801000DE009499DF801000A7890FBF2F15143401A8DF800000549A5
:2065DC009DF80000085C08BD275C0020185C0020285C0020C04600202DE9F0418046154876
:2065FC0000684068124F46688568C468B8F1000F0AD0002D08BF002C03D03846503002F0D2
:20661C00D9FE36B1FBF78FFE1EB1B8F1010F00D0B047002D08BF002C08D002F011FE05B123
:20663C00A84704B1A047384602F010F9BDE8F08101000706943900204FF00451002081F8FC
:20665C00D503012081F8E903022081F82004032081F81204042081F81404052081F82F04C9
:20667C00062081F82304072081F86004082081F86A04092081F8E1030A2081F8F3030B20DB
:20669C0081F86C040C2081F86B040D2081F8FC030E2081F81D0470470EB501910090FCF7E5
:2066BC00BBFF02F0E5FA00F0FBFE114800F03AF98DF808009DF8080060B90E48007820B9E4
:2066DC0002F06EFD0B49012008700948FCF76EFE8DF80800064802F02BFB20B19DF8080043
:2066FC0002F0F6F9E1E79DF8080002F0E1F9DCE7584200204F5C00200EB501910090FCF74C
:20671C008BFF02F095FCFEF7D9FE02F092FE00F0B1FF10480068002106224FF0FF3303F0F5
:20673C005DF802900298800806D301E0FEF7F8FC02F0E6FB0028F9D10298C008E9D301E0CD
:20675C00FEF7EEFC02F0DCFB0028F9D102F0FFFADFE7C0461448002070B50C4620B141685F
:20677C000122A240114201D1022070BD0D4E104B914300254160305D43F82450FF2804D0FD
:20679C000949096851F8201001E044F020410748FCF712FA20464FF0FF3102F0E9F92846C6
:2067BC0070BDC0460C47002018480020007FC767E04400202DE9F0410446276F1E461546C0
:2067DC00884607B1B84704F1680003C805400E4008BF002D1AD041462046802201F07EF988
:2067FC0004F1780181E8600050B100F1200106C900F12003B243A94383E80600216F81608D
:20681C000020206704F1480002F00FFFBDE8F0810EB5ADF80410009002F072FB08B9002016
:20683C0021E011480068083001F046FCADF80600BDF80400BDF80610884210DB0A48016870
:20685C00BDF8062000980A31FDF7D0FD02F03EFE012804D1BDF80610009801F099F902F0A9
:20687C00C3FBBDF806000EBD204800201548F8B50468002C21DD114F114E0025002029461D
:20689C0002F080FF83681BB93B680122836000E0002241685B185B1E491E8B4383603AB169
:2068BC003268D21A02614169B2FBF1F25143016102F064FF6D1C641EE0D1F8BD68A50000D0
:2068DC006CA5000038A00000154909681E280ADC1E2819D00C380FD00A380FD0001F0FD047
:2068FC00C01E0FD01AE0243810D0401F10D0401E10D0401E10D011E008687047486870474F
:20691C0088687047C8687047086970474869704788697047C8697047086A704700207047AD
