:1000000000500020AD1E0100FDC90110FDC9011006
:10001000FDC90110FDC90110FDC90110FDC9011084
:10002000FDC90110FDC90110FDC90110FDC9011074
:10003000FDC90110FDC901103BCA011008467047F7
:1000400070470001002204F073BFF2060001F315AF
:10005000010001F00207D6BE898E2B52FF1983FFE3
:10006000010CF1A301A50C43C5A70D63EF0216C057
:10007000060100940F0020C5A7E16110E118A1015D
:10008000F50B644301031DC3283C251003252627D7
:1000900000001C3002B80300201A5002250000D8CE
:1000A0000C62BC14F116011003091A010027041296
:1000B0002904125D0410030D1901002B04122D04F4
:1000C0001263041003951D0100AD0412AF0412B1B8
:1000D0000410034D1F01004F041251041253041069
:1000E00003090101001B04121D04435701CE435DA7
:1000F000110812AB0820570718000038403700A33A
:100100008406002040007F64404000030507B123BF
:100110000533058305480A0306B87A02009F840266
:100120000044C703040102638410004302B00402C8
:1001300000DF7D838803008460F13588601A418C7C
:10014000601382A388FB000200F80C4309000063DF
:10015000041002800100FF01930738F210160121FC
:10016000030F008000240798E008003FAB64040000
:1001700020640300800523A303082856645EB001B1
:1001800000000440500388B84E905511F40300104D
:10019000580000FCA3B203306308100E81384002FF
:1001A0000000211237F7296F1204F406055D4001A3
:1001B00040800200180CF61F020CF40800006805CD
:1001C0000020B20100800A0C4002B10185EB10F55D
:1001D000430C10031D0D0100C104126B04F70B0743
:1001E000110CF4080741400306CC3223060100102D
:1001F000F6000010361410F802155C50000120388B
:1002000007A1000F3333002102A020FB2174062038
:10021000810EF51D14A10110032D0E0100D104F76C
:10022000317B0E14F90124961614F61F0214F801FE
:100230002100880728F533145EE53403FF7133137A
:100240003804FF239C0838046110FD1F2C0381181B
:1002500043A91337FF2DF71338044D2803960F0CCD
:10026000171C100CF615080C5405C1080F000002ED
:10027000290CFF65A0094405436D1437FB45BB14E9
:1002800010F90C08200104A000FCF311AC0AFCB228
:10029000014020041814DE510B9312C20218228868
:1002A00018F4010080AABB0C43311513FF4D7F15D4
:1002B0002C06F112F0FC011100940BFC03F12FF05D
:1002C00010033D0F0100E104FF558B0F1006FD0DDB
:1002D000F404272028E8F721840CE8610EE1F821D6
:1002E0000EF103F810034D100100F104FF559B10AF
:1002F000F405F112F8F40121007C0DF0F11FF85A19
:10030000F5E0FF4D4316D404FD0CCC045DD003FF93
:100310003D740ED003F202FFF0D00304088080FE8B
:1003200015FE0EFFFD0C1E8C400C210461261335BA
:1003300044A0110D47FF006F12AC1C210452B404FD
:1003400083401150418110010100D018F206D01CE9
:1003500012EC18F206EC1C1D7E052220045210043B
:100360005218041ECC9605D208B7211012381C2151
:1003700004439C01046301004C41014355400D12AC
:10038000602421045268045270045278045280049C
:1003900052880483713F4525A0EDC90C43E010133A
:1003A00012B808210452C00452C80452D00452D8D2
:1003B0000452E00452E80452F004830000B06204E6
:1003C000641E02440D42321CFC010007C201A00859
:1003D000E5E520023C11002004524404524C045232
:1003E0005404525C045264046178F1C7016520F33F
:1003F0000D0101E61C0395370000114803536537D2
:1004000028000125020112000110039A3E0020C8B5
:100410000412CC04C20001C0052001010000103C00
:100420001852000110072803002088100020011135
:10043000C3010001124018210483010001A10CD066
:10044000033C1100200001526C14200234010020F2
:1004500004523C0422000150026CDC0200015003F3
:10046000F40F0020030D1003070301004D04F301F6
:100470000100012002B8100020171200010002281C
:100480000300201003AC3E00200001000208000021
:0704900000120001520001FF
:101000003C00000000000000000000003410000060
:1010100000000000000000000100000000000000CF
:1010200000000000000000000000000001000000BF
:101030000000000008000000000000003400000074
:101040000000000000000000681000000000000028
:10105000000000000100000000000000010000008E
:101060000000000000000000080000000000000078
:101070003000000000000000000000009810000098
:10108000040000000000000001000000FFFFFFFF5F
:10109000FF00000001000000080000000000000048
:1010A0002C0000000000000000000000C410000040
:1010B000040000000000000001000000FFFFFFFF2F
:1010C000FFFFFFFF080000000000000038140000D0
:1010D000E410000095A1011091A70110A1C2011018
:1010E00009B2011041B80110A5BC011085BC011066
:1010F0002F00000028000000000000000000000099
:10110000141100000000000000000000FFFFFFFFBE
:10111000000000000800000000000000341400007F
:101120003011000065C2011069C101101BC201101D
:1011300091BA011005BC0110E5BB0110330000009D
:10114000341400005411000071C20110A5B6011042
:1011500099BF011045B60110B5BA011025BC0110A8
:101160003400000024000000000000000000000027
:1011700080110000000000000000000000000000DE
:101180000800000000000000240000000000000033
:1011900000000000A411000000000000000000009A
:1011A0000000000008000000000000002400000013
:1011B0000000000000000000C81100000000000056
:1011C0000100000000000000080000000000000016
:1011D000000000008C0F0020040000000000000050
:1011E000000000002000000070100000300000002F
:1011F0001C110000AC0F00200400000000000000E3
:10120000000000000C000000301300001800000077
:1012100040110000B40F0020040000000000000096
:101220000000000024000000481300001800000027
:10123000000000001010002004000000000000006A
:101240000000000010000000A01000002C000000B2
:10125000CC10000018100020040000000000000066
:1012600000000000200000006411000024000000C5
:10127000FFFFFFFF38100020040000000000000006
:101280000000000028000000881100002400000079
:10129000FFFFFFFF681000200400000000000000B6
:1012A00000000000580000003C1000003400000066
:1012B000FFFFFFFF7010002004000000000000008E
:1012C0000000000010000000601300001800000083
:1012D000FFFFFFFF78100020040000000000000066
:1012E000000000001C000000AC1100002400000001
:1012F000FFFFFFFF8010002004000000000000003E
:101300000000000038000000F41000002800000079
:10131000FFFFFFFFE81000200400000000000000B5
:101320000000000054000000001000003C0000001D
:101330001800000000000000000000004013000042
:10134000080000000000000018000000000000007D
:10135000000000005813000008000000000000001A
:1013600018000000000000000000000070130000E2
:101370000800000000000000020000003C1F010007
:10138000704770470100000000000E0000000F00D1
:101390003200000001000000940F00200002000055
:1013A00000000000FDC90110000000000000000066
:1013B0000800000000002200D80F002001000000FB
:1013C00020100020080000000000000000000000C5
:1013D0000000000008000000000000000000000005
:1013E000010000008810002006000000010000003D
:1013F000F0100020000000000000000000020000CB
:0414000000000000E8
:0F140600290001002400330034002F00010001F1
:1014180004000000141F010000000000000000008C
:101428000000010000000300394500003C140000E2
:101438003C14000000000000900000009000000034
:101448000000000020100020AD0201002000000074
:10145800C41E0100181C010009C301107D450000CD
:101468007F45000095C8011097C8011002000000D0
:10147800420000004C1E0100641E0100341E0100E1
:0914880008000900010000000148
:101494000000000000000000000000000000000048
:1014A400314400004F440000274300007944000009
:1014B4008543000045430000B7430000A7440000F3
:1014C400250201007D0301008103010008000000E2
:1014D4002400000018000000280000002000000084
:1014E4003C0000000C0000003400000021B1096938
:1014F400814201D10120704700207047F8B50546AC
:101504000C4601F054FD0646002705E02146284616
:10151400FFF7ECFF00B127462468002CF6D101F058
:1015240027F93846F2BD0021DFF8300A00EB8110BC
:1015340090F83F301A0603D5491C0829F4D300203B
:1015440070472DE9F8430446894616460027DFF81C
:101554000C0A00EB871808F13C05B5F900204A4550
:1015640009D141462046FFF7C1FF20B1300008D021
:10157400E878304205D17F1C082FE8D30020BDE86D
:10158400F2834046FBE72DE97043064614461D46A8
:1015940001F00DFD6EB1D6E90A2322432B43C6E9BF
:1015A4000A23D6E9088948EA040449EA0505C6E994
:1015B4000845BDE8704301F00ABD10B50129044691
:1015C40098BF012101F075FD2046BDE8104001F0EF
:1015D40072BD38B504460D4601F027FBA04231BF69
:1015E400241A641E241A641CA40805F57A70A04207
:1015F40038BFB4F1405F05D2641B012C98BF0124AD
:10160400204632BD002032BDF8B50446DFF8C409D7
:1016140040690025F0B1C368197B012501F00F0171
:10162400022914D10069DFF8B0690169C08A96F80B
:10163400627041181922986802FB0711FFF7C9FF6D
:10164400DFF8041A20600A68B0FBF2F002E000231D
:10165400236000E020602846F2BDDFF880190A68A4
:101664000020D30705D5DFF8E4090068C00900F0BD
:1016740001007047F8B500F0C7F90546002C1CBFFF
:10168400A07A00282AD094F909600127FFF7E5FF22
:1016940007FA06F658B194F90900DFF8B4194A6854
:1016A400113007FA00F0C04302404A60086000208D
:1016B400A072207220606060C4E90400DFF894190D
:1016C400A06194F909000A788740174388780F705D
:1016D40008B1401E8870F0B200F099F92DE103289A
:1016E40004DADFF8F41801EB40107047002070476B
:1016F4002DE9F0410025DFF8E088DFF8546901277F
:10170400E8B2FFF7ECFF040034D0A07A012831D10D
:1017140094F90900113007FA00F0C143316072688E
:101724001043706094F9090007FA00F0C0B200F0A9
:101734005FF9002104F1100001F052F9812809D168
:10174400A06920B1002101F04BF9812802D10220C7
:10175400A0720FE081280DD098F8610094F9092057
:1017640011219140084388F861000021DFF8000A44
:1017740001F0EEFC6D1C032DC2D3BDE8F0812DE910
:10178400FE4F0C466FF001018DF800108346904621
:10179400994601F00CFC01900025DFF8B868012798
:1017A40096F800A0AF401AEA070F0CD04FF0FF32B2
:1017B400914518BFA94506D1E8B2FFF790FF10B1D3
:1017C400817A00294AD06D1C032DE8D33FE0022919
:1017D40018D140F20361218294F90910628A491DEB
:1017E40061F30B2262824179628A61F3C7026282E9
:1017F4008179628A61F34E326282C079618A60F3D0
:101804000C31618200220D9878B10278417894F904
:101814000900520142EA8102401D42EA00224FF6C9
:10182400FC710A40DFF84C090243A2615FEA080236
:10183400DFF8A01718BFC4F80480486B08B9226801
:101844004A6300F048F994F909008DF80000019802
:1018540001F0BDFB9DF90000BDE8FE8F2AEA0707F1
:1018640037700122827245722146B278521C0446B6
:10187400B270C4F800B021720FF2AD60217A6060DA
:1018840001290C98A3D194F909200A21521D21821F
:10189400A27480686061B5E738B504281BD1DFF80D
:1018A400344704F1E405284601F0F7FB98B12846D3
:1018B40001F0F1FBDFF890170A685043B0F5967F0A
:1018C40009D2284601F0F9FB052001F06AFD012048
:1018D400607300F02CF9002032BDF8B500F094F8E4
:1018E400DFF8F47607F188060546307B20EA040425
:1018F40034730024B86E20B1803001F0CEFB00B107
:101904000124F86E20B1803001F0C7FB044314D1E8
:10191400307B002808BF002C0FD1306868B190F8E4
:1019240024108A0709D5046A00F011FC30680022EB
:101934000221A04700203060F1BD2846BDE8F240F6
:1019440001F045BB38B5DFF87C4ADFF8885660699A
:10195400002161610022E068E16005F178000FF286
:10196400016101F02AFB002002F0C5F802F0F0F852
:10197400A96B814231BF401A401E401A401CA9681D
:101984004FF0FF32A2EB10328A4234BF4FF0FF30E7
:1019940001EB1030A860287B20B1286CA968C00234
:1019A40088421ED2FFF759FEB8B1DFF81C0A40F690
:1019B4000901018000224280417B01F0F00141F0E5
:1019C40001014173017B01F0F00101734260E261A6
:1019D4002060418811F4406FFBD00120002128735E
:1019E400A96001F07FFFDFF8E4190020086031BD31
:1019F40010B500F009F8DFF8DC150A7C14430C7408
:101A0400BDE8104001F0E3BA044601F0D0BA38B59D
:101A1400FFF7FAFF0546DFF8BC05017C21EA040460
:101A24000474027C110703D40821443001F090FBB4
:101A34002846BDE8324001F0CABA2DE9F84F054600
:101A4400002129606846FFF7DFFD044600264FF0B9
:101A5400FF3A0027DFF8F095DFF87CB5DFF87485EE
:101A6400F8B2FFF73CFE00281CBF817A002917D08A
:101A7400017A0126022922D0D8F834201169D28AA9
:101A84009BF8623040695118192202FB0311FFF7D9
:101A9400A0FDD9F80010B0FBF1F0504598BF824684
:101AA4007F1C032FDCD330460CE0296002E008B130
:101AB400C5F800A0204318BF0120BDE8F28F012023
:101AC4004FF0000A002CF2D000280099EDD05145C7
:101AD400EBD95146E9E77CB5DFF8F84421780229CF
:101AE40003D1192001F067FA73BD217801291CBFC5
:101AF400207804281AD001F05AFA05466846FFF700
:101B04009CFF04F1E40660B1009820B10146304620
:101B1400FFF753FD08E0304601F0CFFA00F007F874
:101B240002E0304601F0C9FA00F011FB73BD042154
:101B340004F1440001F00CBB30B5014600228B686F
:101B4400487D5A8040F602051C88641B09D041F286
:101B54001E05641B05D041F6E675641B012C11D9E2
:101B640020E01C8A4FF6FF3214401C8220B14FF64D
:101B74000F4004401C8215E02D20224660F3091218
:101B84001A820FE01C8B4FF6FF3214401C8320B1E5
:101B94004FF60F4004401C8304E02D20224660F3DE
:101BA40009121A830020487530BDF8B5DFF82454B3
:101BB4006C69F4B1A86A002872D1686A90B1686A45
:101BC4000169206981426BD194F83F10C80667D53A
:101BD400696ACA6850880028FAD0686AC168488867
:101BE4000128F5D020696A6B904204D04FF48061DB
:101BF40052E0022150E06846FFF706FD00281CBFB2
:101C04000098002809D0686A002804BFA86A002840
:101C140003D10820FFF7FBFEF1BD0820FFF7E8FE23
:101C240094F83F00C10605F1140003D501F0A7FFA5
:101C3400A86202E001F0A3FF6862D4E90601C2438E
:101C4400DFF80C64B260B1680142FBD1F268D4E9F8
:101C540006010243F260D4E90623DB43336077686C
:101C6400D4E906010F437760E468204601F02DFEB5
:101C7400208840F60201401A08D041F21E01401AA1
:101C840004D041F6E671401A012803D82146012008
:101C940000F037F94FF0804105F1440001F058FAA3
:101CA400F1BDCC48416B8A6801F13003506830B112
:101CB400984218BF0246F9D101E000207047507BDA
:101CC40010F00F0F02BF488E40F609018842F4D18C
:101CD40001207047F8B5BF4EDFF8780B756A01F044
:101CE40041FE0446DFF8EC0B0268076802F02002AC
:101CF400224018BF002D07F460270BD01346F5626D
:101D040000222846FFF73FFC4FF4804106F14400CF
:101D140001F01EFA3C400DD0AF4890F8611041EA42
:101D2400544480F8614006F19400BDE8F440002179
:101D340001F00EBAF1BD2DE9F843DFF89C8298F862
:101D44006100002448B1002698F861000121B140E7
:101D540008420ED1761C032EF6D398F8610030B1F8
:101D6400BDE8F4430021DFF8080401F0F1B9BDE84F
:101D7400F18398F861001021B140084218BF012492
:101D840001F015F998F861101122B240914388F8D6
:101D9400611001F01CF9F0B2FFF7A1FC02001CBFB6
:101DA400907A0028D9D092F90990DFF8901C01EBC1
:101DB4008901002C0F681668556804BF107A022840
:101DC40003D1D2E90401C3000CD41046FFF752FC3E
:101DD40044B10020009000224FF000734946304681
:101DE400A847BAE7009700224FF00063F6E7000027
:101DF4002DE9FE4325A1DFF8DC91DFF8D87AD1E99B
:101E04000023CDE900234FF0000800255DF825608C
:101E1400306858B33268D2E9060101F04DFD04463A
:101E2400306822460023FFF7AEFB14F00A0F17D0E8
:101E34003268BB68D2E9060120F002008343BB602C
:101E440048F0020832683B68D2E906018B433B60E4
:101E540009F11C00316801F0A4FE0020306005E0A7
:101E640024B13068C9F82C0048F480486D1C012D59
:101E7400CCD95FEA08011CBF09F1440001F068F9FC
:101E8400FFF736FCFFF791FEBDE8F783FC36002030
:101E940000370020DFF8880CB0F93010B0F93200B8
:101EA400814204BF0820FFF7B2BD70470720FFF747
:101EB40014BDF8B506460F46D6F870C014461D4644
:101EC400BCF1000F18BFE047D6E91A0104400D40E9
:101ED40008BF002C14D000F07BFFC6E91E4538B1C2
:101EE400D0E90823A243AB43C0E90823316F8160E2
:101EF4000020306706F14800BDE8F24001F0B1BEB1
:101F0400F1BD38B50A46DFF8381B4B681C001CBF0E
:101F14008968014206D02F4D0146686B01B0BDE8C7
:101F24003040184731BD0000704780B501F00EF90C
:101F3400DFF8EC2B0146506B5268BDE808401047AF
:101F4400DFF8DC0B0FF28D424168914208BFFFF7C6
:101F5400C2BD0421443001F0FBB80000D834002095
:101F640038B54FF0FF3001F0A7FC1A4D0FF2654170
:101F74000446686888420FD10022DFF8A81B05F1E7
:101F8400780001F01AF802202870FFF78AFE18B9C9
:101F9400FFF7AEFBFFF709FEDFF8D80C044207D0C9
:101FA40005F14400BDE834404FF0005101F0D0B8D1
:101FB40031BD80B54FF0FF3001F07EFC800707D5BE
:101FC400BDE804404FF40061DFF8AC0C01F0C0B888
:101FD40001BD0000D8360020D83C00204021084034
:101FE400F8B5DFF83C1BDFF8DC734A6B51684D68C9
:101FF4008C68CE6801280DD1200001D1300004D0B6
:102004000020F861DFF8201B3960280005D001F0BA
:1020140083FC01E0280000D0A847200001D1300053
:1020240010D0F8690028FCD00021F961200018BF05
:10203400A047300018BFB047BDE8F240DFF8E00C1D
:1020440001F043BCF1BD0000D43E00200000044078
:1020540008100440383D00202DE9F041DFF8C07A33
:10206400FC69ECB1E168082040F6030340F604057E
:10207400E9B1C2B2DAB10A889A421EBFAA424968DB
:10208400401EF5D10EE014F1010F09D0D04A1168B9
:10209400B4FBF1F107F58470BDE8F041FFF78DBAA8
:1020A400BDE8F08120691822303001F0EDFDD4E95B
:1020B4000A234FF00008C4E90A88A06858B1B4F9AB
:1020C4003C1013F0E2402069A5681CBF02F0000236
:1020D40003F0E243A84700F06AFF0546788E401CEF
:1020E400C0F30B00788684F83F8007F11C0001F0F0
:1020F40046FD00F02CF8B7F93200B7F930108842E9
:10210400CED1DFF8200C7A6B856EC66E92F8A410DF
:102114000024052001B10720FFF7DFFB2DB195F85E
:10212400A40000B92C6885F8A4803EB196F8A400F8
:1021340008B9D6F80080002086F8A400444538BFCA
:102144004446002C9FD1BDE8F0410020A2E6284679
:1021540000F03DBFDFF8C82911780020022904BF30
:10216400516A002902D1916A01B901207047000027
:102174006C3700200100040638B50D46A807DFF8C7
:10218400A0490ED5FFF768FFE06938B145F00201B8
:1021940004F14400BDE8344000F0DABFBDE831404A
:1021A40099E4680752D501F0D3FCA063606988B153
:1021B4000569606B002818BFA8420AD095F824006E
:1021C400410704D52B6A00220421284698470120A0
:1021D40068756563606B4168DFF84C0B0A780260D0
:1021E400022001F0DEF8112001F0F0F80121DFF8FF
:1021F40050282170907810B90E2001F0E7F8606B38
:10220400704A41688868002804BFC868002804D060
:102214000021D161DFF81009106007216B4B1960B0
:102224000021506951619069916150690FF2210157
:1022340040F0804040F00200506161601A2000F0DC
:10224400B8FEBDE83240192000F0B3BE31BD000035
:10225400890000D470472DE9F843804684B00020FB
:10226400FFF7BEFE574DDFF8C41A574F0020E86150
:102274002960012001F03FFC40F60A063E80002060
:102284007880397B01F0F001397378604046797BBE
:1022940001F0F00141F001017973FFF74DFCD8F82A
:1022A40008904C4640F6040140F60302606800289A
:1022B4001CBF0388B34218BF93424DD08B4218BF52
:1022C4000446F3D148E0B8F83000B8B10021A8F8CA
:1022D4003210C8F8341008F13C004278017802F05A
:1022E400F00201F0F00142F001020170427008F1C5
:1022F40030007860797B01F0F001797369464846D3
:1023040001F036FB684601F090FB00F02BFA0FF267
:10231400C5027260707B30B101F0C4F90028FBD0B3
:1023240001F0D1F90DE0012001F024FD012808D0CD
:10233400607B00F0F00040F0010060730FF2410098
:1023440070600021E961C5F8009049460120FFF75B
:10235400D8FD05B0BDE8F0836760607BDFF8C06737
:1023640000F0F000607370690028ACD0C068008889
:10237400904218BF8842A6D10021B163BEE7000095
:10238400DFF8480A014200D17047012010B501F07E
:10239400F1FC0128DFF8884708D10FF239000A4A16
:1023A400606000210748C161026010BD08490A68E5
:1023B4003220B0FBF2F104F1E400BDE81040FFF775
:1023C400FCB8000000100440403E002000000460FF
:1023D400D43E00202DE9FF47054688465FEA484081
:1023E400DFF83C7729D500F0E2FDFE6A06B3D6E9B2
:1023F4000A2302F00A0413F0E04508BF002C17D1A9
:10240400D6E90A45D6E90A23A243AB43C6E90A231F
:1024140000F0DDFDB06868B1002D08BF002C09D0C4
:10242400B6F93C1030692246B4682B46A04701E057
:1024340000F0CDFD28F4804878E15FEA88006FF46D
:10244400807449D500F0B3FD8246042001F092FC6B
:1024540000281CBF287D002820D0B86BF0B12E695D
:10246400814601F075FB814531BFA0EB0909401E8F
:10247400A0EB090000F101094FEA1930B0422861CC
:1024840002D2064476082E6140F699012869A0F527
:102494009670884224BF40F6C4102861504600F06C
:1024A40096FDFFF7FEFB68B12146EC6900224FF070
:1024B40000732846A047786910B1FFF70CFB01E0D0
:1024C40048F00208AC6900224FF0806300212846DE
:1024D400A04728F0005829E15FEA887007D5FFF784
:1024E400BBFDF869002801D128F002081EE15FEA6B
:1024F400485007F5847575D500F059FD0646FFF779
:1025040029FE7C69012868D1002C66D0042038702B
:102514000022DFF8281907F1780000F04EFD00F0E2
:1025240027F9284600F0C9FD01F012FBF863206981
:10253400786390F824104A0703D5036A0022042123
:1025440098470120FFF74CFDDFF8F458DFF8DC175B
:102554000020E86129600122786B4275FFF7ECFAEC
:102564007A6B9668314640F6040340F6030C40F655
:102574000A09486800281CBFB0F800E0CE4518BF1F
:10258400E64503D09E4518BF0146F2D1D8E0108E2F
:1025940098B102F13000002242804260027B02F0D6
:1025A400F0020273427B02F0F00242F00102427335
:1025B4004860487B00F0F00048736946304601F0FB
:1025C400D7F9684601F031FA00F0CCF8E9612E60E1
:1025D40031460120FFF795FC01E000F0C9F828F42A
:1025E4008068A3E05FEA085027D5FFF75AFB30B1B3
:1025F400786B2146C46900224FF00073A047F86B42
:1026040068B101F0A5FAF96B814231BF401A401E4E
:10261400401A401C796B000BC8600020F86300224C
:10262400DFF8001507F1780000F0C7FC02203870CD
:1026340028F40068FFF74FFA78E05FEA08706ED577
:1026440000F0B5FC0446FFF785FD00285FD0387C18
:1026540001075CD4387C010659D46846FFF7EDF9CC
:1026640010B10098002852D0DFF8B81691F8610034
:1026740000284CD10026F0B2FFF731F800281CBF27
:10268400817A002908D00122827290F9090002FAA5
:1026940000F1C8B2FFF7BBF9761C022EEBD9032078
:1026A4003870284600F009FD204600F090FCFFF742
:1026B40049F900210220FFF724FC022000F00CFE5F
:1026C400112000F01FFE787C18B9786B483001F0B7
:1026D400C8FADFF86C13887810B90E2000F012FEE7
:1026E400787B20B100217973052000F0F5FDDFF837
:1026F400D0077860002139700220B7F93210B7F999
:102704003020914208BF0720FFF7E7F802E0204697
:1027140000F05DFCFFF7DFF928F0080806E05FEA47
:10272400480003D5FFF7D7F928F08048B8F1000F27
:1027340004D0414607F1440000F00AFDBDE8FF87DC
:1027440000204860487B00F0F00040F0010048732E
:10275400E0680088604518BF98427FF418AF0020F5
:10276400F8632AE7E8690028FCD00021E961704792
:10277400304600F02CBC38B584B000F019FDDFF809
:102784004407AF4D0168DFF8984341F0020101604E
:10279400684600F0B0FC6878DFF82C1702906A46AF
:1027A40004F1440000F0AFFC6A46DFF8201704F19E
:1027B400940000F0A8FC684600F001FC2878DFF8DB
:1027C400102701906B46192104F1780000F0CDFB2D
:1027D4006B46DFF800271A2104F1C80000F0C5FB9E
:1027E40000230022DFF8F01604F1E40000F02DFCD1
:1027F40000230022DFF8E41604F5847000F025FCC1
:102804000023DFF8DC26042104F5967000F052FD65
:10281400A878012804BF0E2000F0D8FD04F11C00A4
:1028240001F0A2F904F1140001F09EF900202070D7
:10283400A081A0600721DFF8EC2482F86010A06377
:1028440000210520E1632064217405B0DFF87006DF
:10285400606030BD20000E002DE9F84FB04F7C6958
:1028640083469246984600260D4600E0246884B3C9
:10287400AC42FBD16CB3D4F8009021465846FEF725
:1028840035FE08B300224FF080532046FEF77BFE4E
:102894005FEA08000DD000224FF080732046FEF757
:1028A40072FEDFF84006027B2969016042F00102F2
:1028B4000273214607F1140001F089F9214607F15A
:1028C4001C0001F06EF9761CBAF1000F18BF4C46DB
:1028D400D0D121E20C1004402DE9FC4E144603270C
:1028E400002C82469B4614BF4FF080494FF000599C
:1028F4000E4600F05CFB4FF0FF318E420090884D95
:102904000FD1696A5046FEF7F1FD08B16E6A0EE018
:10291400A96A5046FEF7EAFD00280CBF6E69AE6A4C
:1029240005E0002231465046FEF70BFE0646002E17
:102934004BD096F83F00010646D50A9F686A864246
:102944001CBFA96A8E422BD1686A00224B46FEF74F
:102954001AFEA86A00224B46FEF715FE002C14BF8F
:10296400DFF88405DFF8840500F0AFFF38000DD0F0
:10297400686A00F030F8A86A00F02DF8DFF8640502
:10298400027B3169016042F001020273BBF1000F66
:1029940018D069693B465A465046FFF75DFF11E07F
:1029A4003B465A4631465046FFF756FF60B12878F9
:1029B40001281CBF2978042904D0AE4905F144003C
:1029C40000F0C6FB832700E00427009800F0FFFA1C
:1029D4003846BDE8F68E00224FF08073FEF7D3BD73
:1029E40010B50C46DFF808150A78022A0BD100F05E
:1029F4006CFF04B1206000F0FF00012801D18120A8
:102A040010BD022010BD012010BDF8B504460D46CE
:102A1400164600F0CCFA0746DFF8D404416B8C422A
:102A240018BF032404D131462846FFF7D9FF0446D2
:102A3400384600F0CCFA2046F2BD00009430044041
:102A4400241F0100F0B50746DFF8A80487B00E0084
:102A54001546006818BF002D1C465ED03178C8406A
:102A6400C2075AD50021284600F07BFFBD607E6076
:102A740000F09DFA2A4E0546707C02284BDA08B90C
:102A8400FFF779FE707CA74901EB8003401C9F6629
:102A94007074FFF75CFB34B968460FF27C411C226A
:102AA40001F0F2F86C46206838604FF4FA71F9606E
:102AB400A06978620120218A7875F982606800280B
:102AC40012BF002140F6C410012139753861DFF8C6
:102AD4002814E0680A460B4600B10146F9616069B2
:102AE40000B102463A62A06800B10346BB61782196
:102AF40007F13000FDF7A4FA002107F1480001F0C6
:102B040092F800230022DFF8F41307F1800000F0AC
:102B14009CFA384602E0FFF71AFB002007B0F0BD2C
:102B2400D8360020F51D00005100070670B5DFF807
:102B3400C043617C002977D0B4F93010B4F9322055
:102B44009142054619D004F11401FEF7D7FC58B997
:102B5400616A2846FEF7CAFC002811BF606A04F1C6
:102B64001C012846FEF7CAFC38B1B0F93C100A2211
:102B74004FF0E043284600F0DBF800F018FA064670
:102B84006848816E8D4207BF002282660021C166BB
:102B9400607C401E6074C0B2A8BB656320780228C4
:102BA4000DD10820FEF733FFFFF7E2FD4FF0FF31B0
:102BB40005F1480001F04CF800F0F9F9064604F17B
:102BC400440000F0BFFA04F1780000F0EEF904F1DB
:102BD400940000F0B7FA04F1C80000F0E6F904F13B
:102BE400E40000F054FA04F5847000F050FA04F59F
:102BF400967000F020FDDFF808038178012904BFF6
:102C04000E2000F07FFB606BA84204BF00216163CB
:102C1400FFF7AEFD05F1480001F018F805F180005A
:102C2400BDE8704000F033BA70BD70B500F0BFF974
:102C3400DFF8BC120A78022A05D1DFF8C8120C6842
:102C440000F0C5F914E000F0C2F900F081FF10F5BE
:102C54000030DFF8B422DFF8B46241F10001A2FBD6
:102C6400004502FB01553169002024184D412C46D2
:102C7400204670BD020000401C3700202DE9F84FAB
:102C840080460D4693469A4600F091F98146FEF738
:102C94004AFC04006FF001063BD0DDE90A670095A9
:102CA400DFF84C5205F5847000F007FA288E401CBA
:102CB400C0F30B00288604F13E020098E06082F81D
:102CC40000B0C4F808A02B8EDFF844022021304065
:102CD400A387C4F81080394040F00200C4E906011B
:102CE40000230020C4E9080020634FF0FF31636330
:102CF400A1638020507088F8A430214605F11400A7
:102D040000F04FFF6869A04208BFFEF7E4FEB4F983
:102D14003C60484600F05BF93046BDE8F28F0000A5
:102D240001000706D83C0020D021084001010E0410
:102D34002DE9F0410F46390014461D4601D5002007
:102D44000FE0064600F000FA804600F041F8070064
:102D540003D097F83F00010605D4404600F0FAF985
:102D6400022000212FE0D7E9080144F00A0445F0CD
:102D7400E0452040294008BF00280FD0404600F01D
:102D8400E9F9D7E9080120402940C6E91E01D7E93D
:102D9400082382438B43C7E9082312E0B968DFF8AC
:102DA4007401814202D0BB683367B860C6E91A4532
:102DB400404600F0CFF94FF0FF3106F1480000F033
:102DC40047FFD6E91E01BDE8F081000004000020A1
:102DD400802239463046FEF7B4BBDCB500F00CF86F
:102DE400FFF74CFFFFE70146204602B0BDE8D040A4
:102DF4000A224FF0E0439BE7DDE90667CDE900676F
:102E04000446704780B5930803F001030093530808
:102E140003F0010302F0010207E080B5930803F018
:102E24000103009302F001020123FFF755FD02BDE7
:102E34000FF2E4011C2200F027BF0000B71F0000BE
:102E440000100440E0B500F005F80121FFE7FEF7AB
:102E540096FC0EBD0192009191F904300A68704706
:102E6400F8B505460C4600F0A2F80746E0B2FEF7B6
:102E740036FC802604001CBFA07A00281BD01C4905
:102E84000878022811D194F90910491D0906090C82
:102E940041F08161002241F001012846FFF7B5FDB0
:102EA40006462046FEF7E6FB05E02046FEF7E2FB79
:102EB400FEF711FE8126384600F089F83046F2BD4F
:102EC4007D210000002009402F1F00003B1D000051
:102ED400651F0000D91C0000451F0000991E00005A
:102EE4009D180000603D002001000204010001045F
:102EF400D8360020D42108402D1F0000B11E000048
:102F0400241F01000430044000093D00403E00201D
:102F1400FFEFFF9FB71E0000FFFFFFFF0000000050
:102F240000000000000000003A0100000000000062
:102F340000000000DFF800F045C10110DFF800F0E8
:102F440015C20110DFF800F039C10110DFF800F0FC
:102F54005DC20110DFF800F095B2011020B1082322
:102F640030220021FFF7EEBF7047F8B51C008CB08B
:102F740005460E46174603D1002301F07DF90CE007
:102F84006846FFF7EBFF206805906B466068089081
:102F94003A4600F004F801F06FF90DB0F0BD207A64
:102FA400ADF81800314628467047FFF7CFBFFFF74A
:102FB400C1BFFFF7CFBF01F080B901F07BB9002199
:102FC40001604FF0FF320123426003727047FFF744
:102FD400B5BF30B4002513E050F8042BD30744BF29
:102FE400A9F101039A18091F042942F8045BFAD2D3
:102FF40013468C0744BF15809B1CC90748BF1D702E
:1030040050F8041B0029E7D130BC7047DFF800F00A
:10301400BDC20110DFF800F0DFBF0110DFF800F0DF
:1030240081C10110DFF800F075B50110DFF800F080
:10303400B5C20110DFF800F0F5BF011020B108237C
:1030440024220021FFF7EABF7047F0B51C0089B0C5
:1030540005460E46174603D10023FFF7E3FF0FE0B2
:103064006846FFF7EBFFA16806916B462278ADF83E
:1030740010203A466068059031462846FFF7D2FF93
:103084000F48104A01681160284609B0F0BDFFF7E7
:10309400CDBFFFF7CFBF00F0C2BF80B500F0D6FFB1
:1030A40000B10120C0B202BD002181600170416005
:1030B4007047FFF7ABBFFFF7ADBF00F0A2BF000042
:1030C400681F0100D43E0020DFF800F0D1C00110D9
:1030D400DFF800F0DDB50110DFF800F0C9C1011020
:1030E400DFF800F0E5C2011020B1082328220021F6
:1030F400FFF7F2BF7047002101604160C1604FF0EB
:10310400FF318160704770B514008AB005460E46E1
:1031140003D1002201F08AF80CE06846FFF7E4FFCF
:10312400206804906A4660680590314600F004F80F
:1031340001F07CF80AB070BDE0680790A0680690C2
:1031440028467047FFF7CCBFFFF7BEBF01F068B851
:1031540001F078B8FFF7BCBF70B5DFF80447DFF8BB
:1031640004072568EE68002301223421B04700B12A
:103174000120C0B270BDDFF8F006806870470246D7
:103184000020022904D1012A06D140F2EE20704722
:10319400012A08BF4FF47A707047DFF8CC1691F813
:1031A400E60020B1D1F81001002818BF004770478D
:1031B4002DE9FE43DFF8B08608F1E106B079002876
:1031C40075D10121DFF8A476DFF8A456DFF8A496C0
:1031D400B171F87C707168467968C8F81011FFF70E
:1031E40063FF00210191002202918DF800206B46BB
:1031F4000FF2D94108F10C00FFF727FF6B460022BC
:103204000FF2A15108F13000FFF71FFF6B460022B7
:103214000FF2ED4108F15400FFF717FFB9680120E0
:103224008847DFF8540602786868C0F38154387D13
:1032340020B1032C02D10120307003E0032C18BF0D
:10324400022C0DD1022000F0ACF8032CD9F80010A8
:103254000CBF4FF47A7042F21070B0FBF1F118E039
:10326400012C02D100F033FA1BE0D4B9022000F0A3
:1032740098F8042000F07EFD012803D1002000F01E
:1032840026FA0EE0D9F800003221B1FBF0F1B1FBCF
:10329400F0F108F15400FFF70CFF08F15400FFF7B8
:1032A4000AFF286840075CBF002000F07AF800207D
:1032B400BDE8FE8338B5002408B1150002D16FF0D3
:1032C400020407E08160C26003610146DFF89805EB
:1032D40000F067FC204632BD10B50446FFF767FED8
:1032E400DFF884150A1992F8E8305B1E82F8E8309A
:1032F400DBB233B98A68012303FA04F422EA040432
:103304008C605FE0F8B50546FFF751FE0446DFF830
:103314005815481990F8EF20521E80F8EF20D2B2C9
:103324007ABBDFF85805DFF8587500EB850210F812
:1033340025505688280615D539680A6A30469047BC
:1033440039688A6A3046904739680A6B3046904734
:10335400DFF83015DFF83025012008601068800799
:10336400FCD507E06A0611D501EB86010020D1F8EF
:103374000421904705F03F05132DBCBF2846FFF7F5
:10338400C1FF2046FFF723FE0020F2BD39688A6999
:103394003046904739684A6B304690470228F9D145
:1033A400E8E710B50446FFF702FEDFF8BC148A68AC
:1033B4000123A3401A438A60214491F8E820521C57
:1033C40081F8E820FFF703FE002010BD2DE9F0414D
:1033D4000646FFF7ECFD0446DFF88C54A81990F874
:1033E400EF104A1C80F8EF2081BBDFF8908418F8B6
:1033F400260000F03F001328B8BFFFF7E7FF08EBF3
:103404008600478818F82600DFF87464010615D58D
:103414003268D169384688473268516A38468847E5
:103424003268D16A38468847DFF85824DFF85814E0
:103434000120106008688007FCD507E041060BD521
:1034440005EB87020120D2F8041188472046FFF7D4
:10345400BEFD0020BDE8F08131684A6938469047D6
:1034640031684A6B384690470128F9D1EEE72DE9D7
:10347400FE4F002600240128A24618BF6FF0010861
:103484005AD1DFF8E49309F1DC073868012851D1F7
:103494000221396001F010F9012000F063F95FEABC
:1034A40000084AD1FFF750FEDFF8E41301900C60E6
:1034B400012000F05FFC012803D1002000F0A6F9F0
:1034C4000124DFF8D013DFF8C4230E6009F1FE01F4
:1034D4001368887808B14FF0010A487808B14AF0B7
:1034E400020A087808B14AF0040AB87FDFF890535A
:1034F40020B129680A6B4FF480609047787F20B12F
:1035040029680A6B4FF481609047DFF87813DFF87D
:1035140088B3012008604AF020002A68916988472E
:10352400DFF878230120106099F80800C10709D555
:1035340001261AE06FF004087AE00120386001F0F7
:10354400C4F875E0584601F0DDF80428FAD00128E3
:10355400009004D12A6A5368032158469847DFF83B
:1035640040030168890889000160002001F0D6F851
:10357400DFF81893D9F8000029688A6B90476EB970
:103584000098012804D12A6A5368012158469847B3
:10359400DFF80C03016841F0030101600120BD491B
:1035A400086050462A6853699847B87F20B1296853
:1035B400CA6A4FF480609047787F20B12968CA6A4C
:1035C4004FF481609047AF49B44B0120086000225A
:1035D4001A600320386029684A6B504690470128D6
:1035E400F9D1D9F80000042000F0BCF80646A84937
:1035F40001200860D9F80020AA4800688106FBD59C
:1036040014B1012000F002F901F0EAF9082000F0F9
:10361400A9F80643012038600198FFF79BFD934801
:10362400008A01F05FF901F050F80EB14FF0FF3855
:103634004046BDE8FE8F38B50446FFF7B8FC0546A2
:103644002146894800F0C3FA2846BDE83240FFF716
:10365400BEBC3EB50024012804D020D303281CD0CE
:1036640017D31CE06846FFF71FFD7F4D8E49019478
:103674008DF8004002946B46012205F17800FFF7B3
:10368400E4FC0023894A2C2105F19C00FFF76DFC22
:1036940005E001F0C1F9044601E001F07BFA20469F
:1036A4003EBD000038B5FFF782FC6F49054691F82E
:1036B400E000012410B1FFF74FFD04462846FFF750
:1036C40086FC204632BD00206CE000007047F8B54F
:1036D4000326634C634D00961C23266877684FF0DD
:1036E400405200212846B84701200090284624680B
:1036F400656809234FF400720021A847F1BD00005A
:1037040010B5042000F036FB022818BF032805D1A9
:10371400FFF7DDFFBDE810400220DDE5012802D1FE
:10372400BDE81040D3E762480168C1F38150032823
:1037340008BF4FF47A7004D002280CBF41F28830DD
:1037440032204C49484C0A68B0FBF2F104F15400B1
:10375400FFF7AFFC04F15400BDE81040FFF7ABBC29
:103764000020704738B505463F4804685CB1A0683E
:10377400284205D02269E36800212846984720B9E9
:103784002468002CF3D1002032BD4FF0FF3032BD4D
:103794004849012807BF0720086000220A6000206A
:1037A4007047000070B5FFF702FC2F4D2F4E044602
:1037B40095F8E00050B1287A410613D4FFF7CCFC09
:1037C40080B100F0F6FA002085F8E0000220B56828
:1037D400A84706461020FFF7C5FF012E11D103208C
:1037E400A8470EE023490A683220B0FBF2F101B980
:1037F400012105F13000FFF75CFC05F13000FFF713
:103804005AFC2046BDE87040FFF7E1BB38B50128FB
:1038140021D100F0AFFA01281DD000F0C0FA124DFA
:10382400297A012085F8E000880616D4114A106828
:103834003221B1FBF0F404B9012405F13000FFF7A3
:103844003CFC214605F13000FFF733FC05F1300064
:10385400FFF731FC01E000F0D0FA002032BD000097
:10386400A401001000A00C4070110020041E0100EF
:10387400B03F0050D43E0020DB3E0020F81A010087
:10388400B801001028200860282008402C20094096
:103894000C400940000222430040034080010443DD
:1038A4002422084014100940E94C0000794A000021
:1038B400B43F00500000046092490A681040C243BB
:1038C4000A600A680242FAD170478F4A11680029D7
:1038D400FCD10023D3611060D0690028FCD0D161F1
:1038E400506870478948016821F0020141F4007171
:1038F400016003218648816041F230014161012168
:10390400C160502141610121C1604FF4CA6141612C
:103914000121C1600160704780B5FF2284217D4888
:1039240001F0BCFA00207C497C4B31F8102003EBF9
:10393400C003401C0C285A60F6D301BD30B50446C0
:10394400002000E0401C984209DA54F8205015F198
:10395400010F04D015408D42F4D1C0B230BDFF2018
:1039640030BD67E06E490A681040C2430A60704780
:1039740010B5028840F602039A4204D043F60703C6
:103984009A4202D004E0C07B03E090F8240000E0F7
:103994000020644A13680B600528634B0AD006288C
:1039A40010D00A2816D00C281CD00F2822D01E288C
:1039B40028D02FE018689C691A6B22F0784242F0F4
:1039C40020522EE05868DC695A6B22F0784242F0AB
:1039D400405226E098681C6A9A6B22F0784242F0C2
:1039E400A0421EE0D8685C6ADA6B22F0784242F0AA
:1039F400C04216E018699C6A1A6C22F0784242F0C0
:103A0400F0420EE05869DC6A5A6C22F0784242F0C7
:103A1400704206E09068D468526B22F0784242F01B
:103A240080528C60CA60486010BD014610223F4835
:103A340000F01AB970B5018840F60202891A06D05E
:103A440043F20402891A05D0491E05D038E0C57B2B
:103A5400446904E0022501E090F82450C4697CB371
:103A640005234FF6FF7244F238012046FFF766FF44
:103A7400052825DA54F820102D4B2E4E022DC1F3C3
:103A840003420BD0052D1DD0062D1FD00A2D1FD0AB
:103A94000C2D1FD00F2D1FD01E2D1FD01B6EC3F356
:103AA40083430F2B21F470211DD1052D18BF0A2D3E
:103AB40003D00F2D18BF1E2D12D141F4E02116E0C2
:103AC400012070BD1B68C3F30323EAE73368E6E70C
:103AD4007368E4E7B368E2E7F368E0E73369DEE7D5
:103AE40041F4802103E09A4203D241EA034144F8BD
:103AF4002010002070BD104910B100200870202053
:103B040088707047101004400010044000000460E6
:103B140000410440380300217C1E0100BC03002145
:103B2400081004404C130050C41000501800002129
:103B340020130050F81000500062084009490A6838
:103B440048680B689A42FAD1000C40EA0240704778
:103B540010B5044A136850681468A3421946F9D191
:103B640010BD00000820094010B50446FFF71FFAF5
:103B7400002161602160BDE81040FFF728BA38B524
:103B84000546FFF714FA2C683CB1216829602168C6
:103B940000291ABF00224A606960FFF718FA20461C
:103BA40032BD38B500F00FF80021296062686A6000
:103BB4006168002914BF0D6025606560FFE7BDE8FA
:103BC4003240FFF704BA04460D46FFF7F0B938B5A2
:103BD400FFF7F9FF29686A6800290CBF62604A6030
:103BE40069682A6800290CBF22600A60E7E70000C0
:103BF400DFF800F0BDC10110DFF800F005B70110D7
:103C0400DFF800F001A00110DFF800F041AC011072
:103C1400DFF800F0DDC2011020B1082324220021C6
:103C2400FFF7E6BF704730B589B004460D4600F093
:103C34000BF801218DF818106A4629462046FFF733
:103C4400DBFF204609B030BD6846E5E7FFF7E0BF7B
:103C540080B5FFF7D5FF10B94FF0FF3002BD00204B
:103C640002BDFFF7D1BF000062B38B0708D0521E1C
:103C740011F8013B00F8013B00F024808B07F6D1DA
:103C8400830740F0208000BF103A07D330B4B1E876
:103C94003810103AA0E83810F9D230BC530724BFCA
:103CA400B1E80810A0E8081044BF51F8043B40F8FC
:103CB400043BD20724BF31F8022B20F8022B44BF67
:103CC4000B7803707047121F17D35B0009D151F8AA
:103CD400043B20F8023B1B0C121F20F8023BF6D2D7
:103CE4000BE051F8043B00F8013B1B0A20F8023BAF
:103CF4001B0C121F00F8013BF3D238BF121D521ED9
:103D040024BF11F8013B00F8013BF8D870470000CC
:103D14005448006801F0E0B82DE9F0410446E0079A
:103D240082B00D46504E514F0AD5A8B200900023E0
:103D3400D6F800C0DCF80480012200213846C047D0
:103D4400A0070AD5A8B200900123D6F800C0DCF879
:103D54000480022200213846C047600708D5ADB26E
:103D640000950223346865680C2200213846A84770
:103D7400BDE8F38138B53C493C4C0968CD6804285A
:103D840006D11D234FF0C04234212046A84732BD3E
:103D94001C234FF0805234212046A84732BD80B501
:103DA40001210320FFF7B8FFFFF7C8FE3049886000
:103DB40001BD70B50120FFF7DDFF01281BD02A4C9F
:103DC4002A482568EE68002301223421B04798B1BF
:103DD400FFF79EFFFFF7B2FE254B9A6825491C6842
:103DE400D860A4EB9404801A4843000C1860A042E5
:103DF40038BF20461860012070BD10B50021032093
:103E0400FFF78AFF0120FFF7B5FF08B1FFF780FF36
:103E1400174CFFF793FE606001F074F8206110BD49
:103E240010B501461448154B02681B6810040016AF
:103E34001B394843C01000EB2240120601FB01F479
:103E440012161B06624361431B1600EBA220594362
:103E540000EBA14010BD00FB00F1C0EBA15000B28B
:103E64007047000080000010A401001000A00C4066
:103E7400543E002040420F0090130050A410005004
:103E8400DFF800F0F1C00110DFF800F045BA0110CE
:103E9400DFF800F01DB30110DFF800F091C001104D
:103EA400DFF800F009A80110DFF800F0B9BE011036
:103EB400DFF800F0D5B60110DFF800F0F1B801101A
:103EC400DFF800F01DC10110DFF800F0A1B9011006
:103ED400DFF800F01DBA0110DFF800F0E1C10110B5
:103EE400DFF800F0B9C20110DFF800F0B1C1011031
:103EF400DFF800F011B60110DFF800F015A701108B
:103F0400DFF800F00FC10110DFF800F0D1C201109A
:103F1400DFF800F085B00110DFF800F029AF0110E0
:103F2400DFF800F06DB80110DFF800F001C10110F6
:103F3400DFF800F0FDC20110DFF800F0FDC701104A
:103F4400FEE788E091E070B5FFF7FBFFDFF8F06271
:103F54000446B0680021FFF79FFF05467069B16908
:103F6400451BA94238BF002520466BE02DE9F041EE
:103F7400FFF7E7FFDFF8C8420746A0680121FFF713
:103F84008BFF00220121E283A183656922682168F5
:103F9400461B401AAA1A904203D20020A083384636
:103FA4002CE03846FFF7CEFF002706E07D192946AE
:103FB4000120FFF775FFF61B0746BE42F6D2FFF756
:103FC400C0FF8046E08B012804D129460020FFF77A
:103FD40067FF0746A06917F1010F08BF064603D023
:103FE400BE1BB04238BF064671193046FFF75CFF6E
:103FF400012000212084A18325604046BDE8F041D2
:10400400A0E700218182DFF82012C0684A6990424B
:1040140004D1DFF850120868FEF7FCBF704770B592
:104024000446FFF78EFF0646A08A0025012808D122
:10403400FFF73EFF0546E068A168451BA94238BF6B
:1040440000253046FFF77EFF284670BD808A704702
:104054007047000000BFEFF31180DFF80C120A680C
:1040640082F311887047000000BF80F31188704705
:1040740010B50022DFF8F831026000211C682044EA
:10408400BDE81040FFF718BF38B50446FFF7E2FF5C
:104094000546207C022808D12046FFF711FF0020A6
:1040A40020742946A068FFF70FFF2846BDE8324078
:1040B400DAE710B5036804681A400C408C4208BF64
:1040C4000A4312B1016891430160104610BD2DE905
:1040D400F8411C4614F1010F18BF002C91B006469C
:1040E4000D4617460AD06B462246DFF8801108A811
:1040F400FFF7EEFE08A90391022202E000210391DA
:1041040003228DF8102006950797FFF7E5FE02902D
:10411400FFF7A0FF80463A4629463046FFF7C9FF1D
:1041240005000AD0039818B1FFF7DAFE00200390C7
:104134004046FFF799FF284635E024B94046FFF78B
:1041440093FF00202FE0FFF79BFE04460299DFF85F
:104154002001C1F818D069460268B018FFF7C4FE00
:104164000298FFF7C5FE9DF81000022804BF0398CB
:10417400FFF7C2FE4046FFF777FF2046FFF784FEB5
:10418400FFF768FF0446039818B1FFF7A9FE002063
:1041940003900020029988612046FFF765FF9DF88F
:1041A400100000B1059800F014BAF8B50446DFF821
:1041B400C0000E4601686718FFF74CFF05462068EB
:1041C400064326603846FFF79BFE18B12846BDE833
:1041D400F24049E7FFF754FE06463846FFF794FEDF
:1041E4000746FA69B9692046FFF763FF786160B151
:1041F4003846FFF765FE01203874F86808B1FFF708
:1042040000FFB8682946FFF75FFE2846FFF72CFF3A
:104214003046BDE8F240FFF737BE1CE725E7000053
:10422400DFF85000806870477801002010B504461C
:10423400DFF87C30FFF76CFEA06800B1204610BDAB
:104244007801002038B504460D46FFF7E6FF616AA1
:104254000D436562FFF7E2FF2046BDE83240FFF7F9
:1042640017BE00006C1F01005C1F01008D400000A0
:10427400701F0100C8010020F8B50446DFF85000A3
:10428400DFF848700668F8690D4650F82510B14209
:104294000AD10748009029462046FFF73DFEF869F9
:1042A40050F82510B14201D10020F2BD2046F2BDE4
:1042B4006C0F0020816042607047102804D3DFF83F
:1042C40044101038C1F8000F70470000440100206A
:1042D400A413000000F034BEFFF7BDBEFFF7C5BE57
:1042E400DFF83012C20744BF01230B60820744BFCA
:1042F4004FF480730B60400744BF4FF480320A6070
:104304007047000000E000E010B5DFF80C22C3079E
:1043140048BF1160840748BF5160400748BF91609F
:1043240010BD30B504460020D4E90A2347F6906155
:1043340000F0B0FE0125A94228BF4FF0FF3030BD88
:1043440038B50C4600F048FB050018BF0125FFF7FF
:10435400F5FB811D201AB0F1004F05D8081BB0F100
:10436400004F38BF8C4200D20C4621460120FFF793
:10437400CBFFADB21DB9BDE8314000F031BB31BD5A
:104384002DE9F84C05460C46D5E90AABD5E90C678E
:10439400AAFB04010BFB041136184F41340C002214
:1043A40044EA07412846FFF7CBFFC5E90E67BDE89D
:1043B400F18C2DE9F0410746FFF78EFF8046DFF8C8
:1043C4005C51DFF85C410120E8610126FFF788FFBA
:1043D400E16A0A6A142090473969B1F5802F34BF25
:1043E4000421090C0120FFF78FFF226813682321A1
:1043F40000209847DFF82C21DFF82C31166018686C
:1044040000B10326DFF82411086808B146F0040659
:10441400DFF84001016821F4E02141EA064101602E
:10442400012028604046BDE8F04157E7FFF790BB04
:1044340010B5DFF8FC104C680120FFF751FF6069EC
:10444400A169BDE8104008470000F8B504460D46D0
:10445400FFF77EFBD4E90A6732463B4600F01AFEBA
:104464003DB1A6FB002306FB013307FB0033C4E97F
:104474000C23F2BD10B5DFF8A400DFF8DC40002106
:1044840001600122C2610121216001202268FFF73D
:1044940027FFDFF8C8100A68136A142098472068B9
:1044A40010BD80B5DFF8B8100868FFF7BFFF000C37
:1044B40040EA014002BDFFF733BD70B50026DFF8C6
:1044C400A45018E031460020FFF7F5FF002481686E
:1044D40021B9DFF8942011688160012400F011F8FB
:1044E40034B12B684269591AB1FBF2F14A430261B3
:1044F400FFF71AFD761CDFF8740001688E42E1DBD9
:1045040070BD416882688A18521E491E22EA010160
:1045140081607047042009401820094000002443AA
:104524008401001080022443541F0100581F01001D
:10453400E401002000281EBFDFF844201178002980
:1045440000D1FEE7DFF8342090421CBF0099C1601F
:1045540070470000002009402C200940B0010010E1
:10456400EC010020641F0100601F0100BC13000067
:10457400DFF81000C0887047FEE770476C0F00201A
:1045840090140000F001002010B5FFF779FCDFF86B
:1045940054100C680CB122680A60FFF775FC1CB15A
:1045A4002046BDE8104000E010BD10B5044604F1FB
:1045B4001000FFF72DFBE06818B104F10C00FFF7C1
:1045C400B7FC00F009F8BDE810405422FFF7B4BC72
:1045D400000012B0BDE8F081214601480068704730
:1045E400741F0100D03E002030BF7047FCE738B58F
:1045F40000F0F2F900F0A3F9FEF7BDFD054605F061
:104604000C000C2852D0680729D4FFF79CFC044600
:1046140001210120FEF7B3FD314A116801FB04F3C7
:1046240098421CD2F025B5FBF1F1641A2D49887C1F
:1046340018B1C868A04238BF04462B4D214605F185
:104644000C00FEF7E3FC05F10C00FEF7E3FC01208F
:10465400FEF70DFF05F10C00FFF7D3FC28E0280757
:1046640024D4224800F04EF80428FAD0EA0620495F
:1046740000D420B9086840F00100086003E00A682B
:10468400520852000A601B481B4C01681B4D41F044
:1046940003010160202021688A6990472868216805
:1046A4008A6B904701202860296801E0FFF79EFF8C
:1046B400BDE8314000F094B910B5114CFFF7E0FBB0
:1046C4002060FEF701FD606010BD10B50C4C606801
:1046D400FEF7FEFC2068BDE81040FFF7D5BB0000E4
:1046E400681F0100041E01007011002000400340F7
:1046F4008C21084024220840B80100102C200940D5
:10470400B43E00200068010701D50420704700F082
:10471400030070471628A8BF203870472DE9F84FCA
:1047240080469D48DFF8749201689D4E8A0705D53E
:104734000820B0719B48C9F80000D1E000F0E2FB0A
:104744008246994805682F1700247F1CA80208D4C4
:10475400CAF13E00C0100828C8BF08208742B8BF6D
:10476400074605F04070B0F1807F0BD18F48016897
:10477400C1F30420FFF7CEFF83468C480168C1F3E0
:1047840004600AE08A480168C1F30460FFF7C2FFCD
:10479400834688480168C1F30440FFF7BBFF5F44C8
:1047A400152F0146C8BF152704DC6FF009008742A6
:1047B400B8BF074607F01F007F4A40F4F850108046
:1047C4007E4A106810F0030F18BF0124400748BF49
:1047D40044F0020496F90700B8F1000F18BF44F042
:1047E4000404AAEB0000042802DCB27994425DD0F0
:1047F400AAF10F084FF0000BB8F1000FDC4604F0EB
:1048040004006F4B24D408EB08184FEA282CBCF1A1
:10481400070F88BF4FF0070CE646BEF1070F28BF0D
:104824004FF0060E1A1D52F82E2053F82EE0A2EB7C
:104834000E0E0EF0FF0B10B1CEF307229344A20725
:1048440044BFCEF307429344E20748BF0BEB1E6B11
:1048540053F82C2002F0FF0310B1C2F30720C31851
:10486400A00744BFC2F30740C318E007A8EB0C201D
:1048740048BF03EB126300FB0BF0CF1B8030002F0B
:1048840003EB1023D8BF0127342005F0FF0547436D
:104894007D43B5FBF3F04FF6FF71884288BF0846AD
:1048A4000AF3070AB08086F807A0B4714548016886
:1048B400B088316000211F2804D21F20B08004E09A
:1048C4004008491CB0F5007FFAD20F38000941EACC
:1048D400C0013D480143C9F800100020C9F8040094
:1048E400BDE8F18F38B5054638480468A4B22CB346
:1048F40000F008FB2A4991F90720904205DA6FF08D
:104904007F029042B8BF1046C871A542888834BF60
:10491400641B0124844210D32A4A13680A689A1A31
:10492400921C1F2A88BF1F22241A5208D44024181C
:10493400B4F5803F28BF4FF6FF748C8031BD244806
:10494400006800B9704730B522498A6802F04063B4
:10495400B3F1406F1FD0104B1C68A5071BD44C68E3
:10496400A50718D41C680968C1F303511C31090157
:1049740014F0050F04D088420DD224F0050409E098
:10498400814208D2100158BF44F00104500158BFBD
:1049940044F004041C6030BD00000940301009409C
:1049A400BC3E0020FDFDA400B43F0050881300501D
:1049B400B81200503C1100506E6208402422084096
:1049C4009C1300500820094000E7A48034100940DB
:1049D40028500940AC3F0050EFF3108072B6704786
:1049E400EFF3108062B670470138FDD1704770470D
:1049F40010B50C18FFF7F0FF411E8941C90FDFF80D
:104A0400602410680028FCD024680120106009B1DB
:104A1400FFF7E6FF204610BD38B5DFF84854287884
:104A24000024002802BFDFF84014487D00281FD06E
:104A3400FEF7BDFAA978002906BF0122AA70012455
:104A4400FEF7C5FAA4B90220FEF7ABFC0E20FEF770
:104A5400BDFCDFF81814086808B1012032BDDFF886
:104A640010044022C26002600120C8610021697004
:104A7400002032BD2DE9FC41DFF8F413002008606A
:104A8400DFF8F01301F1D804A07A002840D00128FF
:104A9400DFF8E42330D1DFF8E41315684BF2F52096
:104AA400454308682D0AC0F3814001280AD100F06B
:104AB40029FAFFF7B5F9FFF7CEF92E09C0104643DE
:104AC40005EBE635607B10B10021617306E0DFF889
:104AD400B003006820F07F402D186D08DFF8A403B0
:104AE400DFF88423056001212D0C45608160507D31
:104AF40000284AD005210AE002280AD11568284670
:104B040000F013F9A5F2FF55032D3ED308212173BC
:104B14003DE003283BD1106801F1B805A0F5C06061
:104B24002968E861002948BF4942002848BF40423B
:104B34008142A8BF002027DAD34E6868D34F80B2E1
:104B440000900823D6F800C0DCF804804FF47F42BC
:104B540030213846C047A86880B200901223D6F8A6
:104B640000C0DCF804804FF4F80204213846C04742
:104B7400A86980B200900A2335686E684FF44062D9
:104B840020213846B047012020700B202073BDE857
:104B9400F34100BF2DE9F843DFF8D882BC4EDFF8BB
:104BA400EC92BC4CBC4FB24808F1E105E9784A1ECE
:104BB4000B2A00F28D80DFE802F0063041596E4185
:104BC400596E4159757B31680A68202090470F203F
:104BD400E06041F61D512161022000900723D6F8C0
:104BE40004C0DCF804404FF4C07200214846A047DA
:104BF40076684846D6F80C9007234FF4C07200211B
:104C0400C847012038600221E97008F17800BDE846
:104C1400F243FEF750BABDE8F1830121E16128783F
:104C240000281DBF0021396103200620E8700021FF
:104C340003202060796078688107E6D4E878032847
:104C440006D10221009100F044F8C847042009E08D
:104C54000020009000F03DF8C847E87806280CBF13
:104C640007200A20E87001207860CEE7042903D1E8
:104C74002021A161012105E001220A29A2610CBFC2
:104C8400032102216970082200212160C2600260B0
:104C940001202060BFE705290CBF06200920E87029
:104CA4000020E1E70020386078600C22EA70ACE76D
:104CB4000021016001206D4A10600E20FEF722FBE6
:104CC4000220FEF709FB01200021E870A970A2E789
:104CD400FEE748467668D6F8049005236022002152
:104CE4007047000063496C4891F8E420921E0A2A38
:104CF4001AD8DFE802F0060A0E190A0E190A0E196C
:104D0400120001688A07FCD544E741688A07FCD48D
:104D1400FAE741688A07FCD5F6E701688A07FCD4FC
:104D240041688A07FCD4EFE7FEE7F8B50446574D1F
:104D340030212846FFF75CFE4E4F07F1B806C0F35A
:104D44000720706004212846FFF752FEC0F3844018
:104D5400B06020212846FFF74BFEC0F38120B4F554
:104D6400C064B061346003D1002087F8D800F1BD7D
:104D7400316997F8D80028B97068B269B168F060F1
:104D84007261F461F06900284CBF6FF001020222E5
:104D940000EB40001018421000EB927001EBA001F0
:104DA4007268F260002914DC7069032807D10120BD
:104DB40015318842A8BF0121002272611EE0012042
:104DC4000B318842A8BF0121521E48BF0022F26065
:104DD40007E01E2912DD706928B915391E29C8BFDC
:104DE4001E21032009E00B391E29C8BF1E21521CB5
:104DF4003F2AC8BF3F22F26000207061224CF06855
:104E0400316180B2009008232768D7F804C04FF4BA
:104E14007F4230212846E047012000901123276873
:104E2400D7F804C04FF4003204212846E047306923
:104E340080B2009012232768D7F804C04FF4F80218
:104E440004212846E047706980B20090284624680F
:104E540065680A234FF440622021A847F1BD000091
:104E640000800C4051120020041E010004800C40FC
:104E74002C500C407011002008400C40B43F0050EE
:104E8400102009403C600C40A401001000A00C401C
:104E9400A001001000400C4034600C4062F30F226B
:104EA40062F31F4200B500BF1300964694461039C2
:104EB40028BFA0E80C50FAD85FEA417C28BF0CC098
:104EC40048BF40F8042BC90728BF20F8022B48BF6D
:104ED40000F8012B00BD000070B50446FFF77CFD0F
:104EE400451EAD41ED0F064E30680028FCD0A047AA
:104EF400012131601DB1BDE87040FFF771BD70BD87
:104F040000800C400749084A886812780968C00381
:104F140052B2A1F54071C0134A43A0EB2210803075
:104F240000127047285009400C1300504018491CC7
:104F34001CBFB1F1010100F8012DF9D17047000047
:104F440010B53F48046814F1010F08BF002400F0B5
:104F540071F93C493C4A00200860012111603B4A38
:104F6400116000F086FB3A4A116821B1394B186888
:104F7400204600F01CF838490020086037493848BA
:104F84000A686FF31B4202430A6036490868C0F39B
:104F94000130012806D10A683348024042F4003047
:104FA40008600A60314908680028FBD110BD70B55B
:104FB40005462F492F4A0120086010680028FCD0BC
:104FC400C0222D4C2D4822604268930705D4036803
:104FD4002B4A1B0C43F0F003137000220A6386680B
:104FE400304600F06CF93146284600F0B3F9254804
:104FF400816D89B240F21E22914212D20168C1F33E
:105004000360C1F3034100B1401E072905D00629FE
:105014000EBF0721891C01F00F0140EA01101A4953
:105024000870304600F007FA18490A68D36802206D
:1050340098474020206001201549086070BD000099
:105044001C130050840460425C600C40082204433A
:1050540080012843000120438C210840482003405C
:105064000000390104000940FFFFFCFC0C00684209
:10507400101009409402224300600C40AC3F0050E1
:1050840056620840BC12005002600840A0010010A3
:1050940094046042D3BBD9B1B2F5803F5BD2022AFB
:1050A4001ED98C46B1FBF2F102FB11C31B0443EA87
:1050B4001043B3FBF2FC02FB1C3380B240EA03430F
:1050C400B3FBF2F002FB103240EA0C4000237047BD
:1050D400022A05D98446B0FBF2F002FB10C27047E5
:1050E4004AB105D100F0010249085FEA3000704777
:1050F400002200237047FCF741B90B000200002195
:1051040000207047F7D3002200237047904271EBD0
:10511400030CF2D370B5B1FA81F4B3FA83F52C1B06
:10512400A340C4F1200532FA05F63343A2405FF0F0
:105134000046E64002E05B085FEA3202841A71EB43
:10514400030524BF204629467641F4D302000B0010
:105154003000002170BD70B5B1FA81F4B2FA82F565
:10516400C4F120046419B4F12006DAD3B2405FF02C
:105174000044F440002502E052085FEA3303C61AF3
:1051840071EB020E24BF3046714664416D41F3D386
:1051940002000B002000290070BD000022480068B6
:1051A400000C00F00700062828BF4FF0FF307047BE
:1051B4001E490968C1F30F314BF6BE124FF0FF30A0
:1051C400914208BF0120704710B5FFF7F1FF16495F
:1051D400096801284FF0FF3409D1090B01F00F01D0
:1051E400082903D00F2908BF012400E00024204629
:1051F40010BD0E480E4970B505680E682D0F06F0F7
:10520400FF06802E28BF0026FFF7D2FF01284FF0AB
:10521400FF3406D125B1022D08BF06F1140400E0C5
:105224000A2460B270BD000094120050181300509C
:10523400A010005080B5FFF7BBFF012804D1FFF791
:10524400D8FF142800DB01BDFEE700001628A8BF24
:105254002038704770B5DFF87C040068C0F3046040
:10526400FFF7F4FF0446DFF87004007800F01F0035
:10527400FFF7ECFFA04221D0DFF8601400220A609F
:105284006FF00103DFF85824251A022DC8BF022548
:1052940002DC9D42B8BF1D4628181568DFF8446437
:1052A40000F01F0545F4F85535800126A04216602C
:1052B400EAD11068166013680E60106870BD38B5C6
:1052C400044604F04070B0F1807FDFF81C5411D123
:1052D400DFF81804802101744FF6D8012980802159
:1052E40001702046FFF7B6FFDFF8E8030168C1F359
:1052F400042004E0DFF8F8030168C1F30460FFF759
:10530400A5FF2117491C08181528C8BF152004DC5F
:105314006FF009018842B8BF084600F01F0040F44E
:10532400F8502881DFF8CC0301688A074FBF44F0A6
:1053340040640020DFF8C0130860DFF8C003C4F342
:10534400C06181F001010160C4F3806181F0010159
:10535400816031BDF8B50446084600F0EBF802461A
:10536400DFF89C53182100F063F8DFF8986300F02D
:105374000DF980B2009000233768DFF88C63D7F80A
:1053840004C040F2FF322C212846E047F268C2F301
:105394000D021C2100F04CF8726822F00332142133
:1053A40000F046F83268DFF86403DFF86463024013
:1053B400102100F03DF8204600F0F2F802460C21DE
:1053C40000F036F8204600F016F9400040F02000C6
:1053D4003072204600F018F940F010003072204678
:1053E40000F01BF90246282100F022F8204600F0C4
:1053F400F9F8400040F06000F072204600F027F910
:10540400C00040F080003070204600F029F981008F
:10541400C04841F47C410180204600F00BF902466B
:10542400082100F005F8BC494FF480000860F1BD84
:10543400284600F0BDB9F8B5810C01F0030101293B
:10544400B64CB54D02D0022928D024E0226A91033B
:1054540021D44FF48041B24B2960510AD3F8026041
:1054640026F08F0601F080010E43C2F303310E4390
:10547400C3F80260C2F30321D3F80160360941EA9C
:105484000616C3F8016002F0E702196821F0E7018B
:105494000A431A6002E04FF000422A60A14EB1684C
:1054A4000A075CBF4022AA624FF400712964800D90
:1054B400216A9D4AC90C01F0030141F0300110F04A
:1054C4000300117003D0022826D008D326E001215E
:1054D4000420FEF721FC954800F0EDF822E00120BD
:1054E400FEF748FC074639460420FEF715FC042065
:1054F400FEF740FCB842FAD1366826F07F4000F04F
:10550400DAF88B4B300E1E6837684FF060220721A3
:10551400B8474FF480602860032100E00221042092
:10552400FEF7FAFB2068834900F03F0008706C49DD
:105534000868F1BD024680480068C0F383619303A4
:10554400C0F38F201FD4120412164FF6FF7307E026
:10555400400804D11846490804BF01210120521C07
:10556400002AF5D4002A0EDD400040F001009842E4
:1055740081BF0120490041F001010F2984BF0F219F
:105584001846521EEEE740EA014070476A48016837
:1055940000680002C1F3870100F4407008437047BB
:1055A40070B50146654C664803686568EE07C3F349
:1055B4000352C3F303400AD42468250502EB257281
:1055C400240482F3040200EB247080F3040000043A
:1055D40040EA02509AB21043222924BF03F08043C8
:1055E400184370BD01460020202903D355480168A3
:1055F400C1F30150704701460120222903D35248C8
:105604000168C1F30070704701460120222903D3C9
:105614004D480168C1F340707047014600202029BD
:1056240007D348480168C80C00F44070C1F38451A2
:105634000843704701462029444807D3414801687C
:1056440043488A0A00EA013040EA82507047014622
:105654000020222903D33C480168C1F3C06070478D
:1056640001460020222903D337480168C1F345507D
:10567400704710B5374908680028FCD13648374AC6
:10568400416813688908890041F0005141F0040120
:105694005C0748BF41F001010BD4026812F0030F0C
:1056A40007D041F003034360026802F00302032AB7
:1056B400FAD1416010BD2A4982B20A60C0F30740A2
:1056C400486001208860274A10680028FCD0002325
:1056D4008B6070478813005006620840980020438E
:1056E4002C2009406C62084066620840156208403C
:1056F400B81200500000094094042A4300002043DB
:1057040000A00C40A401001070130050FFFFFC0027
:1057140041A10C40DCA10C4040A00C406C13005093
:105724000A600840A83F005008A10C40BD3786001D
:10573400B40100100BB00C4050130050AC3F0050AB
:1057440078130050981300508C13005000803F4091
:1057540000F03F000C00684200400340B03F00509E
:105764003C600C4084088C4370B504460D461646D4
:10577400FFF732F900F012F8012E02D0022E02D007
:1057840003E0257002E0258000E02560012313601A
:1057940019B1BDE87040FFF723B970BD411E8941BE
:1057A400C90F024A10680028FCD0704700800C40E2
:1057B4000B46114604221818D6E7000050F8382F7B
:1057C40011430160704750F8382F22EA010101604B
:1057D4007047817DFF291CBFC07DFF2801D00120B7
:1057E40070470020704738B50446FDF7E0FB0546D6
:1057F400207820B90220FDF7D4FD012020700BE0B1
:1058040038B50446FDF7D3FB0546207820B10220C5
:10581400FDF762FD002020702846BDE83240FDF708
:10582400D6BB4068CC30FEF71CBA4068E830FEF7BF
:1058340018BAF8B5456886680C4684B12A6ADFF858
:10584400543911781A6830689769B84738B1286AAA
:10585400411C686A2962401C641E6862EDE72046A8
:10586400F2BD70B5456886680C467CB100F024F83A
:10587400984710F1010F09D0296B0870641E286B3A
:10588400421C686B2A63401C6863EEE7204670BDC7
:1058940070B5456886680C4664B100F00DF8984709
:1058A40010F1010F06D0C1B205F13C0000F0E0FC9C
:1058B400641EF1E7204670BDDFF8D8180A68306826
:1058C4001369704770B5466806F582750C4628461C
:1058D400FDF7F3FBDFF8C0180A68307F717F081802
:1058E400C01D4443DFF8B408B1694443B4FBF1F18B
:1058F40051186331B1FBF2F1491C2846FDF7D9FB7D
:105904002846BDE87040FDF7D6BB10B542688068F4
:10591400016851F8180F000713D5DFF87C381868B0
:105924004FF4FA71B1FBF0F1012902F5827498BFCA
:1059340001212046FDF7BDFB2046BDE81040FDF7E0
:10594400BABBBDE81040022102F19800FDF700BC8B
:1059540070B504460D46FDF72AFB0646286800F09C
:1059640007F93046FDF733FB297D206E012200F054
:105974008CFE297D206E012200F0A1FE297D206E7F
:10598400002200F0D0FEA97D206E002200F0CBFEA4
:10599400A078012805D1296851F8180F0007FAD416
:1059A40005E04FF0FF3104F1CC00FEF751F900F0AF
:1059B40005FC2846FFF70DFF30B1A97D206EBDE838
:1059C4007040112200F0AFBE70BD2DE9F84F824641
:1059D4000020DAF808B0DBF80020DAF8045002F10D
:1059E400400102F144030E681E6005F130073B6973
:1059F4007C69B96816F4F06FA3EB040805F1980903
:105A040041D0730514D52029CCBF20270F46394631
:105A1400C7F1200752F8044F106004F00F0400F09F
:105A240078F84745C8BF474639461DE0491EB96066
:105A3400B96800296BD0012100F06BF8DBF8001085
:105A440051F8040F002200F00F000A600028B96822
:105A5400ECD0044638687B68421E5B1E3A607B606B
:105A640029B900F058F841465046FFF711FFEC778A
:105A7400504600F0DDFADBF82420002A31D021461C
:105A8400504690472DE070060FD5002925D000F030
:105A940040F8B86095F82D0010B10021B96001E01C
:105AA400B868F0B900F037F81BE0F00619D5A1B1D9
:105AB4009BF821100FF26470445C05F13000641E01
:105AC40081688C4288BF0C46214600F022F8B868F1
:105AD400041BBC6005D100F01EF841465046FFF798
:105AE400D7FEB00611D5AE6A7EB131465046FFF7F7
:105AF400A0FEA86248B99BF820200FF21871885CB8
:105B040081195046BDE8F44FDCE6BDE8F18F044648
:105B1400A7E75046A5E601214846FDF719BBF8B5AD
:105B24000546FDF713FB07466C68AE68F8070BD50E
:105B340004F59470FFF764FE626B206BE3685142D6
:105B44000144216328469847B8070FD504F2291069
:105B5400FFF756FE00F00BF800F0C3F9626A206A02
:105B64002369514201442162284683E2F1BD306831
:105B7400202128E64068002101707047F8B50646E8
:105B840084B07468B5680F46FDF711FA21780129CD
:105B940043D001212170FDF71AFA387860707978C2
:105BA400A17078686060B968A160F868E0603969DC
:105BB4002161387D2075797D6175B87DA075B969DD
:105BC400A161387F2077797F61770021B87FA07742
:105BD400216204F12C00416061628160A162C160B4
:105BE4000170417004F59470017041706868FDF7AC
:105BF400EDFB304600F046FA304600F090FA80B9EA
:105C0400DFF890150A682868D36898476868FDF734
:105C140079FBFDF7CCF900212170FDF7D8F90020BC
:105C24004DE06846FDF7CBF900966B46287BDFF81C
:105C34007025019004F17C00A968FDF796F9684687
:105C4400FDF759FA00966A462869DFF8581502905C
:105C540004F19800FDF757FAA07838B9002104F14F
:105C6400CC00FDF7E0FFDFF840052061607838B92B
:105C7400002104F1E800FDF7D6FFDFF83005E0600D
:105C84006846FDF711FA002001908DF80000029695
:105C94006B460A22DFF8181504F58270FDF7D5F972
:105CA400EA69A96904F13C0000F0BCFA33460FF23A
:105CB4001952042104F16800FDF7FCFA304605B0DE
:105CC400F0BD70B506467468B568206E00F0D0FC6F
:105CD400286840F2F271FFF776FD0020207030460C
:105CE40000F0C4F8304600F0A3F9296801F12C0053
:105CF400026822F01002026051F8303FDFF8B40469
:105D040003400B606868FDF7FDFA04F17C00FDF7C1
:105D14004CF904F19800FDF715FAA07818B904F1CC
:105D2400CC00FDF793FF607818B904F1E800FDF7A3
:105D34008DFF04F58270FDF7AAF904F16800BDE84F
:105D44007040FDF778BC70B5446820296FF00102FB
:105D540008D022D3222909D03EBF002084F82D0088
:105D640000221AE0012084F82D0015E08668FDF772
:105D74001EF90546FFF7A0FD984710F1010FF9D170
:105D840004F1380000218268C160521E0261416141
:105D940001602846FDF71BF90022104670BD2DE96D
:105DA400F04706467468B5680F469146FDF7FFF85C
:105DB4002968303180460968207808B1C80502D5C1
:105DC40000F02FF949E004F58270FDF776F9002020
:105DD400E0776062276204F22917286850F8301FC0
:105DE40041F48071016000F01CF93846FFF7FBFCB8
:105DF40049463046FFF71DFDA06204F1CC0860B9A6
:105E040049463046FFF75EFDA07800282AD1A168F4
:105E14004046FDF71DFF18B314E0FDF7C8F88246AD
:105E240028682021FFF7CAFC5046FDF7D0F8A07877
:105E3400C0B9A1684046FDF70BFF88B1494630461A
:105E4400FFF740FD00201021A062E177204629469B
:105E5400FFF77EFD3846FFF7D3FC4FF0FF3002E03A
:105E6400606A00E00020BDE8F087DEE0F8B5044693
:105E74006568A668FDF79BF80746A86A58B93068B4
:105E840000F1180109680A0705D430300068C1051B
:105E940001D43846F2E005F58270FDF70EF90020D2
:105EA400A8623846FDF793F83046FFF792FC18B124
:105EB40031462846FFF74CFDFDF779F80746FFF712
:105EC40056FE00F00EF83846FDF781F805F2291069
:105ED400FFF796FC6A6A286A2B69514201442962D9
:105EE400C7E0306850F8301F21F4807101607047BA
:105EF4002DE9F843054614466E68D5F808903078C5
:105F040018B106F13007B86810B14FF0FF3086E0E1
:105F1400F0773960002179600CE000F082F839688C
:105F24009DF800000870641E3A687868531C401C91
:105F34003B607860002C66D0FDF739F880466946EE
:105F440006F13C0000F077F90028E6D5BC6006F5C0
:105F54009474D9F8000000F130010A6842F4007228
:105F64000A604FF4FA61FFF729FC00F05AF8204662
:105F7400FFF739FC707868BBFDF719F896F82D1017
:105F840000291CBF7968002909D0B96839B10022F9
:105F9400BA60FDF71CF82046FFF732FC3EE0FDF73F
:105FA40016F806F1E80571682846FDF751FEA8B316
:105FB4000020B86000212846FDF74AFE70B3204651
:105FC400FFF71EFC796838684942014439601022A1
:105FD400F27723E0FCF7EBFF96F82D1000291CBFA5
:105FE400796800290BD0B96849B10022BA60FCF77E
:105FF400EEFF012106F19800FDF7AAF801E0FCF795
:10600400E6FF00200BE07A683868514201443960A9
:106014007378012B02D1F368284698477868BDE865
:10602400F2834046FCF7D3BF00BF4FF0FF30704708
:10603400F8B504466568A768FCF7B9FF06463868F2
:106044004FF4FA61FFF7BFFB05F59470FFF7D8FB37
:10605400A86B08B9304611E00020A863686B296B6F
:106064004042084428633046FCF7B1FF6A6B296B51
:10607400EB68204601B0BDE8F0401847BDE8F240A7
:10608400FCF7A5BFFEB5434E8568316844682868AF
:10609400CA68904740F2F27728683946FFF793FBC5
:1060A400296800BF57A201F14400076095F8203029
:1060B40012F8037095F8213054A2D05C074341F8DC
:1060C400347F6846FCF7E5FF43A0217F50F8213078
:1060D40045A0617F50F8210045A2A17F034352F8F7
:1060E4002100A26934680199666803432868B047AF
:1060F400286800F12C010A6842F010020A6050F886
:10610400301F41F0010101602846FFF762FB28B10E
:10611400286850F8301F41F440410160F7BDF0B5E4
:1061240085B085684468687D234E40F00040009047
:106134002846297D314301910827FFF74AFB38B1EE
:10614400A87D40F0004002901027E87D06430396A6
:10615400FE204DF80700694604F1540000F014FADB
:106164002066A0B1697D0F2200F0DDFA00F026F868
:106174002846FFF72EFB48B1A97D206E112200F0BE
:10618400D2FAE97D206E122200F0CDFA012005B08A
:10619400F0BD0000D0010010D43E002040420F00AA
:1061A400CF590000235B0000275800002F5800003F
:1061B4000F590000FEFCFFFF0000C0A0297D206EE7
:1061C400102200F0B0BA000080B5042804BF1046C5
:1061D400FFF758FF002002BD00000000200000006F
:1061E4004000000060000000000000000800000003
:1061F400000000000600000002000000860000000D
:1062040082000000000001020304000010000810D6
:106214001820000004040810181C000010040810C2
:10622400181C0000016042600021521E8160C2609F
:1062340001614161704738B500F016F8A16801B9F1
:106244002FE0216822698B5C2B7021696268491CEC
:10625400B1FBF2F302FB13112161A168491EA16095
:10626400FCF7B5FEA06832BD04460D46FCF79FBEA0
:1062740038B5FFF7F9FF6168A2688A4211D0E26875
:10628400521CB2FBF1F301FB132122685554E16067
:10629400A1686269491CA160914238BF11466161DD
:1062A400DEE7FCF794FE4FF0FF3032BD90FAA0F029
:1062B400B0FA80F0704770B5FCF748FF0546002639
:1062C400DFF894440EE025FA06F0C00709D5211D35
:1062D400F2B251F8220020B1026811001CBFF1B2E1
:1062E4009047761C2068F1B28842ECD270BDDFF88A
:1062F4006C04DFF86C240168DFF868041160FCF7B3
:1063040027BF2DE9F84F5FEA01085FFA88FA44BF16
:1063140088F0204181F4C048DFF84C1401EB8A0175
:1063240004460A68DFF8440404EA080688EA02031B
:10633400A24306402340324304F4E0201B0EB0F590
:10634400E02F03F0010302D1D00105D411E014F4CD
:10635400E02F08BF002B0CD002F4E020B0F5A02FF2
:1063640004D0B0F5C02F04D1052000E0062060F36E
:1063740012420126DFF8E893DFF8F45306FA0AF62E
:10638400C9F800600A600AF180402F6827FA0AF70A
:1063940000F5083A17F001074FEA985000F0010B96
:1063A40003D1600248BF8AF800B021020CD5FCF783
:1063B400FEFD29685FEA08224CBF32460022B14341
:1063C40011432960FCF703FE1FB1600248BF8AF83D
:1063D40000B0C9F80060BDE8F18FDFF88C2302EB50
:1063E40080020029106848BF0021800901F03F01A4
:1063F40041EA8011116070472DE9F84787B0814662
:10640400FCF7D6FEDFF87003DFF870630178FEF75F
:10641400DBFE002400281CBF01280C284FF0000AD2
:1064240007D00D280DD00E2802BF052030621F248E
:106434000AE0FEF7B3FE022806D1012030620124EF
:1064440002E0032030620724DFF83403C26801212C
:10645400C2F38152012A04D10068000E01FA00F04F
:106464000443DFF81023DFF8F0721368326A03F094
:106474007F039B185B1E3B600020FF253554401CA6
:106484008342FBD2D44659F82C0000F0FF05FE2DC0
:106494003AD000F0FF08B8F1FF0F0ED0AB4228BF8E
:1064A40095423FD324FA00F85FEAC8783AD401FA57
:1064B40000F006F805C040EA0A0A0CF1010CE2E714
:1064C4002AFA05F0C00759BF05F0FF0141F4C041A5
:1064D400715D59F821104046FFF713FF4FF0FF316B
:1064E400E8B2FFF77AFF391D002041F825006D1C42
:1064F4003868A84218D324FA05F0C107E0D5391D3D
:10650400042241F82520F2E70920FCF75FFFC7F8D1
:106514008090012107F1B800FDF785FB0025DFF825
:106524006482E5E702202CE06846FCF748FDDFF8CA
:106534005842DFF85822207801906B46102106F16A
:106544002400FCF712FD03A8FCF7D5FD6168059152
:106554000022069207F1840003AADFF83412FCF744
:10656400D2FDDFF83002DFF83032016821F47C51CB
:1065740041F4005101600120DFF820120860186026
:10658400002008B0BDE8F0872DE9F04104000D4675
:1065940014BF002D002034D0DFF8BC6106F1B80828
:1065A40000F039F8002115F82100FE282BD0FF282F
:1065B40008D0326882422CD31F282ADA321D52F8BE
:1065C400200030BB491CEEE7FF2811D01F280FDA4A
:1065D400311D41F820400121626801FA00F01043A6
:1065E4006060204655F82720DFF8981100F084F801
:1065F4007F1C15F82700FE28E6D14046FDF731FB45
:106604002046BDE8F081002020606060A060002783
:10661400EFE70024F1E74FF0FF314046FDF718BBE8
:1066240038B50C4610B3416821FA04F2D3071DD5DE
:106634000122A24091434160204647494F4D0A1D23
