:100000000040012015BE000039FB021039FB021030
:1000100039FB021039FB021039FB021039FB0210C8
:1000200039FB021039FB021039FB021039FB0210B8
:1000300039FB021039FB021011FB02100846704711
:1000400070477047FEE7808A70477047F2060001EC
:10005000F315010001F00207D6BE898E2B52FF195D
:1000600083FF010CF1EF01970128097001010030B5
:100070000E900203FF18641B2002785634120F33CF
:10008000BAAB15B58FA10D43C5A70D63D59315C4A4
:1000900006010038260020C5A7716110E118A101F2
:1000A000F50BF44301031DC3283C25100125262729
:1000B000BC30040000D01300201A5002250000F0CC
:1000C0000C62D414F1220110031C08C0801D04121C
:1000D0001E0452FE45100341B400005F0412610487
:1000E000129504100329B300004704124904127F3B
:1000F00004100319B700002B04122D04124704103A
:1001000003598A0000D30412D504100B3B8B000066
:10011000F5A3000007A400000904124304400427CB
:10012000190000BB195D83B1B0AA100383880F00CA
:10013000FF0130062B7A5002030732050C2005E040
:100140006EFD0307C2010C930208D6260136100586
:100150001E94A4140020AC0412B804B203206765F6
:10016000095AA3012C18A7001E1CA180300E46447A
:1001700088509C601A00A38802000200DF7D804046
:1001800008FE04000307311128601A9C10046CA8B3
:10019000820307C110321F10A307385C1009210326
:1001A0000F008000520798E0081E10072415002059
:1001B00093030080052312380CE34815A45693DE00
:1001C000B00100000448500308B84E905511F803E0
:1001D0000010580000FC23C2033062100E8138F179
:1001E00003DC1220DC3208DC1001D388FF0843F85E
:1001F0000CE4C200E4F0010FFC03FCE43251E41013
:10020000093F0000160020B10100800A23121C0CD7
:10021000E32C16E4F306B101E4F23FF8E4140F5DB9
:1002200040014031111408D388F7008305480AA320
:1002300079540D0306B87A23060000A3840C00B39A
:10024000840B08161708160100F600CFE43002A848
:10025000600104146401483B6E041114F502084463
:1002600006810C0F0000025804EC12E4F8240298F6
:10027000033307ECE4041C170020301708400298F1
:1002800003CDCC10F54FECC508472029086770F561
:10029000084504561904F62AAF04290C440200014B
:1002A00054080412ECF424026403990504E40420C5
:1002B000180020341804FA0B64F051CDF5130450E3
:1002C000010010140F7C01DE510B8205F51B043672
:1002D00006041630043604047D7C04F5240817C196
:1002E00017085705600812F0F81DDA03260808FC05
:1002F000041C281900203C19F803F53C0888026802
:10030000500001F4FD27D8042008A1000F3333006A
:100310004C02A0E8E012F8D05E64D804F404171090
:100320001A0020201AE88388B80EF91DECA101F10B
:1003300005E0FE321DDC04A1E88C023F00D81ADC87
:100340000412F80CFF17081BDC04F141E8C9D04B7C
:100350007EA4D01803E0EA230601D01E06DC045E6A
:1003600005D8035A1ED4F80C2D9F7D2053073AFC64
:1003700050030014512323E02F9101F4055E50D85F
:100380000616C0081DE8032A0300FC041C081C0014
:10039000201C1CE8035111FD3BD8065E1ACC04A7B3
:1003A000DF7D28FD2DD8048DC8078FD81CC8071203
:1003B000F80CFF170C1DD0036388F9B8F311FF0781
:1003C000F01282F01DD003228412FD78DC055DE07E
:1003D000068FC81DDC0512FC0CE7101E04F65862DF
:1003E000F4FD21E807F52B082741060856560812A8
:1003F000CCF83C019803CCDC051F041FE706110470
:10040000EDE8074367E610F573082DF8035409E398
:1004100087CE000308250064403C185E1624046F54
:10042000BF7D2805C1F41FB10400034E01DC081094
:10043000013F01D4E45293F46101ED0003433433EE
:1004400010F90FD0FD1F20032101A1F47206C02571
:10045000D8FE368FF00335E45F0259F0033FC82021
:10046000F003220CF012E80CFF69FC20B80B300DF1
:100470002460204C6302500128530000538AFFBCC3
:10048000900D2053A005A3027B019860F825A06081
:1004900026148319010C33D107FCFD064C0DA32053
:1004A0001888210C10051E94B8210020CC0412E0FD
:1004B0000412EC0412F804FF000422E803A209D499
:1004C0004F78018C103C01555555920DB229582397
:1004D00025E50EEF5422900EF3021800013186B28A
:1004E000054090018CD1883CFD44AC0D240104A052
:1004F00000F48FD022D40812E40CFF09F422D406B1
:10050000B201486F18147C09C20218228818F80139
:1005100000FFAABB04FD4C980D31D08C023F00981F
:1005200023BC0812B40CFF09C423BC08F13BD0FD66
:100530003D700A2720289C8768249C12800CF7199C
:1005400090249C610EE1CC210EF119CCFD3B5C0A9C
:1005500021D484023F003425A012540CF7196425DD
:10056000A0F11FD4D00307088080FE15FE0EFF19EE
:10057000141E30CC122104612613B5BCEC110D43BE
:10058000FF007F12501C21045258049EC0C20A4131
:1005900081100101007418F206741C129018F20602
:1005A000901C12AC18210452B40452BC04D003C0F5
:1005B00011000008B7211012DC1C210443A4100410
:1005C0006301004C41013001A3DF02661F0427D004
:1005D000041104520C04521404521C0452240452F8
:1005E0002C0470013DC5029E3DD40ED17C4384276E
:1005F00013125C082104526404526C0452740452B5
:100600007C04528404528C04529404830000B0622F
:1006100004641E022605425A1C8339EC886101E5F8
:10062000E512E048210452E80452F00452F8044371
:100630000028045208046178F1FF01F10F01A57848
:10064000F60E0141100349430000A9045313432946
:1006500000012502015200011007401300202C2741
:1006600000200111C30100012002E426002004D271
:10067000000153FF7F1260016CDC021C12982852AB
:10068000030DF00401EB9300003194502101435C11
:100690002750A11CA10CF301E0277043102814205F
:1006A000023411002004523C041208158394643073
:1006B00012820C12A004F300A4644413200165F319
:1006C00001B0625C25000002001000000002C013AF
:0806D000000000028010002070
:1010000001000000000000000000000000000000DF
:10101000FFFFFFFF04270020040000000000000085
:10102000000000001400000000BD000018000000D7
:101030003CBE0000C0100000582600200400000044
:10104000000000000000000024000000E8BC0000D8
:10105000180000001992000008000000B011000004
:1010600074100000C1C8021001BB021091EB021005
:10107000DDE5021081E00210B9E5021071E5021011
:1010800030000000010000000200000044BE00002B
:1010900000000000FFFFFFFFDC260020040000002E
:1010A00000000000000000002800000014BB000049
:1010B000240000001E0000001800000000000000D6
:1010C00028130000D41000009BEC021025E202104F
:1010D00005EB021025DE0210FDE10210E1E4021032
:1010E000350000003400000024002900000000004A
:1010F00038260020FFFFFFFF242700200400000007
:10110000000000000000000038000000B0B900003E
:10111000280000000100000010000000C42600208C
:1011200000000000C9BB000000001A001000000011
:1011300004000000F4BD0000BA1300000800000025
:1011400036000000E42600202C27002009001D00A6
:10115000430000007C260020010000000000120077
:10116000FFFFFFFF14270020040000000000000024
:10117000000000001000000018BD00001800000072
:101180000000000000001300FFFFFFFF8C2700207D
:1011900004000000000000000000000054000000F7
:1011A000ACB700003C00000000000100340000006B
:1011B000041000004B0000002F000000BDB3000031
:1011C000B0110000D81100006DB60000D9DB02108C
:1011D00059EC0210CDD6021085DE02104DE502104A
:1011E00029E502102F000000000016000200000098
:1011F00000000000FF7F000094270020FFFFFFFF9A
:101200000C27002004000000000000000000000087
:1012100058000000E8B700003400000039FB02105D
:101220000100350006000000000000002000000062
:10123000010000001BF80210280000002813000025
:101240005012000093EC02106DEB02104DEC0210F6
:1012500029E00210BDE4021099E4021034000000FD
:1012600000000000B4260020040000000000000080
:101270000000000010000000B4B800002C000000C6
:10128000000000000000030000000F003C00000010
:1012900000000000000000002FF902101000000004
:1012A0000800000090BD0000FFFFFFFF1C2700208A
:1012B0000400000000000000000000001C0000000E
:1012C00038BB0000240000003C1200005026002023
:1012D0000400000000000000000000000C000000FE
:1012E000D0BC000018000000B9130000010000008D
:1012F00000000000080000000100000004000000E1
:1013000000000000000014000000000030BD0000DC
:1013100000001900000018002400000071BE000049
:101320000040000000020000041000000000100057
:1013300055F002100C0000004F9200000000000069
:101340003026002004000000000000000000000023
:101350002000000084B800003000000048BD0000FC
:1013600001000000CD9300004500000000000000D7
:101370000000170000020000300000000000230001
:101380000000150001000000C0110000BC26002074
:101390000400000000000000000000002000000029
:1013A000F0BA00002400000060BD0000C426002048
:1013B000200000005CBB0000704700011320704754
:1013C00091910000579400005B9400005F9400002E
:1013D00063940000679400006B940000A1B20000C9
:1013E0001DB8000069B7000051B8000079BC0000CA
:1013F0000DB90000B5BC0000E1B8000079BD0000E7
:10140000E1BD00002198000070B504460D4602F0D1
:101410009EFB2968002604E00A69A24208BF0E4626
:1014200009680029F8D102F0B3FB304670BDDFF83F
:10143000741C91F833000022030604D4582010FBDA
:1014400002F28818704791F88B0001220306F5D547
:1014500091F8E30002220306F0D591F83B01032244
:101460000306EBD591F8930104220306E6D591F823
:10147000EB0105220306E1D591F84302062203069B
:10148000DCD591F89B0207220306D7D500207047D0
:101490002DE97043064614461D4602F058FB6EB116
:1014A000D6E90A2322432B43C6E90A23D6E9088951
:1014B00048EA040449EA0505C6E90845BDE8704361
:1014C00002F066BB10B50129044698BF012102F065
:1014D000B8FB2046BDE8104002F0B5BB38B5044665
:1014E0000D4602F001F9A04231BF241A641E241AED
:1014F000641CA40805F57A70A04238BFB4F1405FBF
:1015000005D2641B012C98BF0124204632BD002067
:1015100032BD70B50446DFF8F40B4069002501299F
:1015200009D100E0006860B3C3681E7B06F00F06B7
:10153000022EF7D100E020B3012502B11060C2688D
:10154000137B03F00F03022B1BD10269012903D186
:10155000D168128D891809E01169D28ADFF8446BCD
:101560008B1896F82213192212FB0131406BFFF7FA
:10157000B5FF206002F051FB2168B1FBF0F0206064
:1015800001E000222260284670BDDFF8841B0A6853
:101590000020D30705D5DFF8400C0068C00900F033
:1015A00001007047F8B5044602F0D1FA0546002C58
:1015B0001CBFA07A00282AD094F909600127FFF700
:1015C000E4FF07FA06F658B194F90900DFF80C1C9D
:1015D0004A68113007FA00F0C04302404A600860D0
:1015E0000020A072207220606060C4E90400DFF86F
:1015F000F01BA06194F909000A78874017438878A6
:101600000F7008B1401E8870F0B200F0E5F93CE1BF
:101610002DE9F84FDFF8F44ADFF8C06BDFF8848A71
:1016200004F1A000002700904FF011094FF0010ACB
:10163000F8B2032842DA08EB401000F53075A97AB9
:1016400001293BD195F9090011300AFA00F0C14394
:10165000316072681043706095F909000AFA00FB66
:1016600002F075FA217C4BEA0101217402F090FA34
:101670002078022815D105F1100002F0F1FA00F0EF
:10168000FF0001280DD1A86940B12178022908D1B5
:1016900002F0E6FA00F0FF00012802D10220A87251
:1016A0000CE098F8210395F9091009FA01F10843B3
:1016B00088F821030021009802F0ACFB7F1C032F67
:1016C000B6D3BDE8F18F2DE9F84F05460E46934697
:1016D000994602F03CFADFF8CC29009002F54873F5
:1016E0006FF0010893F800A00024012101FA04FE24
:1016F0001AEA0E0F28D04FF0FF37B94518BFA145A1
:1017000022D1E0B203281FDA02EB401707F5307749
:10171000B87AC8B92AEA0E001870B9727C72987843
:10172000401C98703D603E72DFF8E80B7860397AB3
:101730000A9801290CD10A21398297F90920521DF2
:10174000BA74806878611EE0641C032CCED33DE03F
:10175000022918D140F20361398297F909107A8A77
:10176000491D61F30B227A8241797A8A61F3C702BB
:101770007A8281797A8A61F34E327A82C079798A63
:1017800060F30C31798200220B9878B102784178AD
:1017900097F90900520142EA8102401D42EA002203
:1017A0004FF6FC710A40DFF8700B0243BA615FEA42
:1017B0000B02DFF8301A18BFC7F804B0486B08B93D
:1017C0003A684A6300F089F997F90980009802F0B5
:1017D000DFF94046BDE8F28F70B504281ED1DFF86E
:1017E0002C4904F1F005284602F01CFAB0B102F0D1
:1017F00014FA0646284602F013FA4643B6F5967FD9
:101800000CD2284602F021FA052002F051FC0120FA
:101810006073042104F1500002F0FCFA002070BD56
:10182000F8B5044602F093F9DFF87878054697F8A2
:101830004C0320EA040407F54A7687F84C43002459
:10184000306820B1B03002F0EDF900B101247068C9
:1018500020B1B03002F0E6F9044316D197F84C03FA
:10186000002808BF002C10D1306A70B190F8241005
:101870008A070AD5046A284602F08AF9306A0022EB
:101880000221A04700203062F1BD2846BDE8F240A9
:1018900002F07EB9F0B400290CBF01230023002A16
:1018A0000CBF01250025002839D02C0004BF90F87A
:1018B0004440002C33D000291CBF91F84440002C38
:1018C00012D0446B0E6C07690969A408A4EB960456
:1018D0000026B94218BFFE68A41B04F18054B4F17D
:1018E000805F88BF012301D8190018D0BAB1D16830
:1018F0000C7B04F00F04022C11D1516B046C1269A3
:1019000000698908A1EB94010024904218BFD468B3
:10191000091B01F18051B1F1805F88BF012503EA05
:101920000500F0BC7047F8B51E466FF002078DF851
:101930000070054634682246FFF7ACFF10B1012065
:101940008DF800009DF90000B84201BFE968087BEE
:1019500000F00F0002280CD100E024684CB122688E
:1019600021462846FFF796FF0028F6D002208DF882
:1019700000009DF90010B94204D1E86B10B10421B8
:101980008DF800109DF90070012F04D129463046D2
:1019900002F00BFE0FE0022F07D12268002A294631
:1019A000304606D002F0D9FD05E0042F03D12946C8
:1019B000304602F0E5FD3846F2BD0020704710B514
:1019C000044602F0C4F8DFF844170A7C14430C7490
:1019D000BDE8104002F0DCB838B5044602F0B7F8B4
:1019E0000546DFF82807017C21EA04040474027C20
:1019F000110703D40821503002F00CFA2846BDE844
:101A0000324002F0C5B82DE9F84F0646002030609C
:101A10000024DFF8D0174869D0B1C1680A7B0124DF
:101A200002F00F02022A13D10169DFF878360A6941
:101A3000C98A93F82253406B5118192212FB0511E1
:101A4000FFF74CFD054602F0E8F8B5FBF0F700E0C3
:101A50000027002519204FF0FF39AA460090DFF833
:101A600044865FFA8AF003281FDA08EB401101F57B
:101A70003072907AC8B1107A0125022820D0DFF8A0
:101A80006417486B0169C08A98F8223309180098D6
:101A900000FB03115069FFF721FD834602F0BDF8FA
:101AA000BBFBF0F0484598BF81460AF1010ABAF144
:101AB000030FD6D32C4206D04F4505D94F4603E03D
:101AC0004FF00009F6E70CB1376002E00DB1C6F83F
:101AD00000902C43E0B2BDE8F28F7CB5DFF80447FC
:101AE0002178022903D1192002F035F873BD21783D
:101AF00001291CBF207804281ED002F028F80546D2
:101B00006846FFF780FF04F1F00678B1009820B135
:101B100001463046FFF7D6FC0BE0304602F095F860
:101B2000042104F1500002F075F902E0304602F0A1
:101B30008CF8284602F02CF873BD30B585B001460C
:101B40000022039201920492029240F602058C68F0
:101B5000487D628023885B1B09D041F21E055B1B18
:101B600005D041F6E6755B1B012B11D920E0238AD5
:101B70004FF6FF321340238220B14FF60F4003404F
:101B8000238215E02D201A4660F3091222820FE00D
:101B9000238B4FF6FF321340238320B14FF60F40C3
:101BA0000340238304E02D201A4660F309122283A8
:101BB0000020487502AD009504AB01AA03A9204698
:101BC00001F0F1FA50B1039801884FF6FF7291428B
:101BD00004D10299019801F082FA03E00299019878
:101BE00001F0AEFADFF8FC05816C09B10198884775
:101BF00005B030BD2DE9F84384B00025DFF80C6551
:101C00000395D6F814800295B8F1000F5CD0B06A45
:101C1000002804BF706A00283DD1012585F0010924
:101C200003AA494602A8FFF774FC04004ED1DFF86E
:101C3000F809D0F804C0BCF1000F18BF002C00F068
:101C4000B6810298002840F0B281B16A0398DFF8AB
:101C500054740190CDF8009006F11C03706A06F1EF
:101C60001402E047012800F0E880022840F09F813C
:101C7000706A716AB0F930400D6901F068FF4FF089
:101C8000FF318C42804635D1706A50B30069A8425A
:101C900027D1746A83E0706A0028BFD0706A016936
:101CA000D8F810008142B9D198F83310C806B5D5DC
:101CB0000125706AC16848880028FAD0706AC16836
:101CC00048880128F5D0A9E70221C9E1002DAED14D
:101CD00002980028ABD0014606F1F000FFF7F2FBB6
:101CE000C2E1B06A20B10069A84208BFB46A56D008
:101CF000746954E0B7F930100020A14202BF3B697B
:101D00000093AB4247D007F188010120B1F90020D0
:101D1000A24202BFBA6E0092AA423CD0B1F958204A
:101D20000220A24202BF896B0091A94233D007F57D
:101D30008C710320B1F92020A24202BF0A680092F0
:101D4000AA4228D0B1F978200420A24202BF896DAE
:101D50000091A9421FD007F5E4710520B1F92020B8
:101D6000A24202BF0A680092AA4214D0B1F97820B8
:101D70000620A24202BF896D0091A9420BD007F54F
:101D80001E710720B1F92020A24202BF096800910C
:101D9000A94240F00881582111FB00F03C18002CAA
:101DA00000F0018194F83300010640F1FC80706A74
:101DB00084421CBFB16A8C4214D001230122214607
:101DC000284601F000F800281FBF3078012831783C
:101DD000042900F0E880DFF8401906F1500002F015
:101DE00019F8E0E0706A00224FF00053FFF750FB53
:101DF000B06A00224FF00053FFF74AFBDFF81C09DE
:101E000001F02EFF706A00224FF08073FFF740FB55
:101E1000B06A00224FF08073FFF73AFB07F552706B
:101E200021690279016042F00102027101237169A6
:101E30000122284600F0C7FFB5E0039800B18046B4
:101E4000B8F93040D8F8105001F081FE4FF0FF3162
:101E50008C4280460FD1706A20B10069A84208BF49
:101E6000746A5CD0B06A20B10069A84208BFB46A45
:101E700055D0746953E0B7F930100020A14202BF79
:101E80003B690093AB4246D007F188010120B1F9CC
:101E90000020A24202BFBA6E0092AA423BD0B1F922
:101EA00058200220A24202BF896B0091A94232D081
:101EB00007F58C710320B1F92020A24202BF0A6805
:101EC0000092AA4227D0B1F978200420A24202BF92
:101ED000896D0091A9421ED007F5E4710520B1F982
:101EE0002020A24202BF0A680092AA4213D0B1F990
:101EF00078200620A24202BF896D0091A9420AD033
:101F000007F51E710720B1F92020A24202BF09681F
:101F10000091A94247D1582111FB00F03C18002C38
:101F200041D094F8330001063DD5706A84421CBF4D
:101F3000B16A8C4213D0012300222146284600F0CA
:101F400042FF00281FBF30780128317804292AD0A9
:101F5000DFF8C41706F1500001F05CFF23E0706A5F
:101F600000224FF00053FFF793FAB06A00224FF0BF
:101F70000053FFF78DFADFF8A40701F071FE706AD5
:101F800000224FF08073FFF783FAB06A00224FF00F
:101F90008073FFF77DFA07F55270027921690160BD
:101FA00042F001020271404601F0F2FD5CE0002DBA
:101FB0005AD0D8F81000716B884218BF4FF4806176
:101FC0004ED1002C1CBF0298002809D0706A00284E
:101FD00004BFB06A002803D10820FFF7FDFC43E0EE
:101FE0000820FFF7ECFC98F83300C10606F1140056
:101FF00003D502F09EFAB06202E002F09AFA706233
:10200000D8E90601754CC043A060E268D8E9060132
:102010000243E260D8E90623DB4323606768D8E91E
:1020200006010F4367604146D8F80C40082000F0D5
:10203000F1F9204601F014FE208840F60201401A12
:1020400008D041F21E01401A04D041F6E671401A50
:10205000012803D82146012000F0DCF94FF080412F
:1020600006F1500001F0D6FE05B0BDE8F083DFF8C0
:102070004C08416B8A6801F1300300E00246506869
:10208000002818BF9842F9D1507B10F00F0F02BF03
:10209000488E40F60901884201D101207047002096
:1020A0007047000020090020F8B5184EDFF810082E
:1020B000756A01F054FE0446DFF8080802680768F4
:1020C00002F02002224018BF002D07F460270BD039
:1020D0001346F56200222846FFF7DAF94FF48041F3
:1020E00006F1500001F096FE3C400ED0DFF8D80714
:1020F00090F8211341EA544480F8214306F1A000EE
:10210000BDE8F440002101F085BEF1BDCC5D0020AA
:10211000402108402DE9F843DFF8009299F82103A7
:10212000002400284CD099F821030026C1073DD592
:1021300099F821031021B140084218BF012401F091
:1021400006FD99F821131122B240914389F8211319
:1021500001F01EFD032E33DA09EB461101F5307252
:10216000907A68B392F90980DFF8601701EB880173
:10217000002C0D681668576804BF107A022803D136
:10218000D2E90401C30009D41046FFF70BFA2CB1C1
:102190000020009000224FF0007303E00095002221
:1021A0004FF0006341463046B84709E099F82103F3
:1021B00001268107BCD499F8210302264107B7D430
:1021C00099F8210330B1BDE8F4430021DFF800079E
:1021D00001F020BEBDE8F183000004400810044077
:1021E000400C0020CC5D00202DE9F8430FF23012A6
:1021F00084B0D2E90034CDE900344FF4804001F0DE
:1022000029FD4FF00008B8B1DFF8C806D0F8131068
:102210000078C1F31501800841EAC071DFF89C061F
:10222000436B986802AA01F065F8DFF89006416BED
:102230008968012000F0EEF86E464FF00209376819
:102240003868002855D03868D0E9060101F002FD51
:102250003D680021CDE90201044601F078FC844686
:102260007DB1D5E90A23DDE9020110431943C5E92F
:102270000A01D5E90823DDE9020110431943C5E944
:102280000801604601F084FC14F00A0F2AD0386877
:10229000DFF83016DFF840368A68DFF82846D0E9E4
:1022A000060118408243A26038682368D0E906011D
:1022B0008B4323603A68DFF824064368190007D08F
:1022C000017AC80604D5DFF8F445606B1021984701
:1022D0003968DFF80C0602F053F90020386048F046
:1022E000020806E02CB13868DFF8D015C86248F45F
:1022F0008048361DB9F10109A1D15FEA08011CBF70
:10230000DFF8E00501F086FDFFF782F9FFF772FCC8
:10231000AAE600003924000001000406200900207C
:10232000F05D0020F45D002038B5DFF89045B4F989
:102330003000B4F93210884210D101F008FC054693
:10234000207C00F0F7002074207C010704D40821D1
:1023500004F1500001F05EFDFFF750BB31BD0720D6
:10236000FFF75EBA2DE9F041064606F19807884668
:10237000D7F808C014461D46BCF1000F18BFE0474F
:10238000D7E9000104EA000215EA010308BF002AA8
:102390002FD0DFF834454FF0000C04F11005B5F9EB
:1023A0002000404504BF2868B04203D195F82300BF
:1023B000000620D405F158000CF1010CB0F92010F2
:1023C000414504BF0068B04203D195F87B00000688
:1023D00011D40CF1010CB035BCF1080FDFD3C7E903
:1023E00004230020B86006F14800BDE8F04102F087
:1023F0005BB9BDE8F081582505FB0CF0C7E9042363
:102400000444D4E9080190439943C4E90801BA6837
:10241000A260E6E730B40A46DFF8C0144B681C003F
:102420001CBF8968014205D0DFF890540146686BF3
:1024300030BC184730BC7047704780B501F0E8FCED
:10244000DFF878240146506B5268BDE80840104719
:10245000DFF868040FF295424168914208BFFFF728
:102460003CBB0421503001F0D5BC38B54FF0FF30F3
:1024700001F0F0FBDFF844540FF271410446686844
:1024800088420FD10022DFF8F41B05F1840001F02F
:1024900064FB02202870FFF7EAFD18B9FFF7B8F8CF
:1024A000FFF7A8FB9C48044207D005F15000BDE8A7
:1024B00034404FF0005101F0ADBC31BD80B54FF05C
:1024C000FF3001F0C7FB800707D5BDE804404FF49B
:1024D0000061DFF8100401F09DBC01BD2DE9F04161
:1024E000DFF8D873FE69002E00F08F80F1680820B5
:1024F00040F6040240F6030301E04968401E61B162
:10250000C4B254B10C889C4218BF9442F5D13369CF
:10251000182203F1300002F0D9F8D6E90A4500226A
:10252000C6E90A22B068D0B115F0E24310D024F019
:102530000F0235F0E24308BF002A05D0B6F930108B
:102540003069D6F808C0E04704F0000405F0E24521
:10255000B6F9301030692246B4682B46A04701F026
:10256000F6FA0446788E401CC0F30B0078866FF0B4
:102570000201002086F83300318607F11C0001F0CB
:10258000D8FF204601F004FBB7F93200B7F930104C
:1025900088423AD1DFF8180B7A6B0668456892F8E2
:1025A000F4000024A046052100B107210846FFF7EA
:1025B00037F92EB196F8F40000B9346886F8F48043
:1025C0003DB195F8F40008B9D5F80080002085F8F1
:1025D000F400444538BF444654B9B7F93000B7F960
:1025E0003210884211D1BDE8F0410820FFF7F4B95C
:1025F00014F1010F09D001F010FBB4FBF0F107F565
:102600009A70BDE8F041FEF75DBFBDE8F081AB4ACE
:1026100011780020022904BF516A002902D1916A71
:1026200001B90120704700008C14002038B50D4618
:10263000A807A24C0FD5FFF751FFE06938B145F06C
:10264000020104F15000BDE8344001F0E3BBBDE8F5
:102650003140FFF742BA68075DD50121A17404201B
:1026600001F026FDDFF84C0A01680A6B9047A06371
:10267000606988B10569606B002818BFA8420AD05C
:1026800095F82400410704D52B6A0022042128462E
:102690009847012068756563606B4168DFF8180A28
:1026A0000A780260022001F003FD112001F015FDFF
:1026B00001218A4A2170907810B90E2001F00DFD99
:1026C000606B41688868002804BFC868002806D08D
:1026D000DFF8000CDFF8E4290021C1610260072067
:1026E000DFF8F41B08600021DFF8E80B4269416164
:1026F00082698161426942F0402242F002024261F5
:102700000FF21D0060601A2001F023FABDE832408C
:10271000192001F01EBA31BD020000400100010481
:102720002DE9F0478046880040F1A280634D686B38
:10273000416848688C68D1F80C90010018BF804748
:10274000200008BF5FEA0900DFF8886B0FD0F0694E
:102750000028FCD00021F161200018BFA0475FEAEB
:10276000090018BFC847DFF8740B01F079FA0020A0
:10277000F061DFF86C1BDFF86C7B316040F60A0A11
:10278000A7F800A07880397B01F0F00139737860F8
:102790004046797B01F0F00141F001017973FFF7C8
:1027A000CCF9D8F808904C4640F6040140F60302F4
:1027B00000E00446606828B1038853451CBF93427B
:1027C0008B42F6D16760607B00F0F000607368694F
:1027D000C0B1C0680088904218BF884212D1002161
:1027E000A963F0690028FCD00021F1610FF2FD021D
:1027F000687B6A6018B301F0E5FC0028FBD001F0AB
:10280000FEFC2CE0B8F830000028EAD00021A8F83F
:102810003210C8F8341008F13C004278017802F018
:10282000F00201F0F00142F001020170427008F183
:1028300030007860797B01F0F0017973D1E72A49A3
:102840000A68136801209847012808D0607B00F0CF
:10285000F00040F0010060730FF219006860002181
:10286000F161C6F800904946BDE8F0470120D1E586
:10287000BDE8F087DFF8700A014200D170471A49BD
:10288000012010B50A680D4C1368984701280AD139
:102890000FF25900DFF84C2A60600021DFF8340A9B
:1028A000C161026010BD01F0B8F93221B1FBF0F155
:1028B00004F1F000BDE81040FEF704BECC5D00203E
:1028C00020000E000C100440200900209430044029
:1028D0006C5E002085030021FDBFFFFF24BE0000C9
:1028E000E85D00201C5E0020E00100102DE9F84F9B
:1028F000044689465FEA4940DFF8F07929D501F0BE
:1029000026F9FD6A05B3D5E90A2302F00A0413F09B
:10291000E04108BF002C17D1D5E90A46D5E90A23C2
:10292000A243B343C5E90A2301F032F9A86868B1AC
:10293000002E08BF002C09D0B5F9301028692246B6
:10294000AC683346A04701E001F022F929F4804940
:102950002FE25FEA89005AD5DFF89409016841F057
:1029600080010160B87C20B1042001F036FB00201A
:10297000B87401F0ECF8DFF83CA7DAF854100A68F4
:1029800080460420904700281CBF207D00281ED0D0
:10299000B86BE0B10646DAF800002569016B88479C
:1029A000864231BF861B401E861B761C360BAE420C
:1029B000266102D2AD196D08256140F699012069A2
:1029C000A0F59670884224BF40F6C41020614046AE
:1029D00001F0DEF8FFF74BFB78B1D4F81C80002241
:1029E0004FF000736FF480712046C047786910B1D2
:1029F000FFF773F801E049F002092046A4690022BC
:102A00004FF080630021A04729F00059D1E15FEA2F
:102A1000897008D5FFF762FDF869002840F0C98188
:102A200029F00209C5E15FEA495040F1A78001F0B1
:102A30008EF80546FFF7EBFD7C69012840F0988091
:102A4000002C00F09580042038700022DFF8841BF1
:102A500007F1840001F081F8284601F099F807F5A4
:102A60009A7001F0F2F8DFF84C0601680A6B9047A3
:102A7000F8630120B874042001F01AFB2069786320
:102A800090F824104A0703D5036A002204219847CE
:102A9000786BDFF8408841688D68CE684868002D03
:102AA00008BF002E06D00021C8F81C10DFF80C2645
:102AB000C8F8002008B1C046C046002D08BF002E4F
:102AC0000ED0D8F81C000028FBD00021C8F81C103C
:102AD00005B1A84706B1B047DFF8000801F0C0F81B
:102AE000786B0121417540F60A05FFF726F87A6BED
:102AF00091680B4640F6040C40F6030E00E00346D6
:102B0000586828B10688AE421CBF76456645F6D1A6
:102B1000002058605D7B05F0F00545F001055D7310
:102B2000E0680088704518BF604502D10020F86356
:102B300015E0108E98B102F1300000224280426010
:102B4000027B02F0F0020273427B02F0F00242F0DC
:102B5000010242735860587B00F0F0005873002067
:102B6000C8F81C00C8F800100120FFF753FC02E071
:102B7000284601F00DF829F480691AE15FEA09514D
:102B800038D5B87C20B1042001F027FA0020B874B1
:102B9000FFF76DFA38B1786BC46900224FF000730B
:102BA0006FF48071A047F86B80B1DFF808150868F2
:102BB000026B9047F96B814231BF401A401E401AA8
:102BC000401C796B000BC8600020F8630022DFF81E
:102BD000AC1407F1840000F0C0FF02213970F869DD
:102BE00018B107F1500001F015F9FEF776FF29F44E
:102BF0000069DEE05FEA097040F1D48000F0A7FFD1
:102C00000446FFF704FD002800F0C480387C01076B
:102C100000F1C080387C010600F1BC806846FEF7F8
:102C2000F2FE18B10098002800F0B480DFF8D88BCD
:102C300098F82103002840F0AD8000260125F0B26D
:102C400002281CDC08EB401101F53071887AB0B124
:102C50008D7291F9090005FA00FA00F078FF8346B9
:102C6000387C20EA0A003874397C080704D408212B
:102C700007F1500001F0CEF8584600F089FF761CAD
:102C8000032EDCD30320387007F59A7000F0DDFFC7
:102C9000204600F07DFFDFF83C466069002161615D
:102CA0000022E068E16007F18400DFF8601B00F0BB
:102CB00054FFDFF8000401680A6B9047B96B81424A
:102CC00031BF401A401E401A401CB9684FF0FF3215
:102CD000A2EB10328A4234BF4FF0FF3001EB1030CC
:102CE000B860387B20B1386CB968C00288421DD208
:102CF000FEF74BFCB8B1DFF8EC0540F609010180A6
:102D000000224280417B01F0F00141F0010141735A
:102D1000017B01F0F00101734260E26120604188B3
:102D200011F4406FFBD03D730021B96000F0A5FFA6
:102D3000DFF8A4150020086000210220FFF76AFBDD
:102D4000022001F04AF9112001F060F9787C18B9ED
:102D5000786B483001F0A8FCDFF8B41A887810B915
:102D60000E2001F053F9787B20B100217973052002
:102D700001F033F9DFF89C0A7860002139700220F5
:102D8000B7F93210B7F93020914208BF0720FEF79B
:102D900047FD02E0204600F0FBFEFEF79EFE29F014
:102DA000080906E05FEA490003D5FEF796FE29F020
:102DB0008049B9F1000F04D0494607F1500001F0F5
:102DC00029F8BDE8F18F2DE9F54CDFF8206574692D
:102DD00081B09B4600258A4600E02468002C45D03F
:102DE0005445FAD1002C41D02069019927688842C6
:102DF00036D100F0ACFED4E90A2343F08051C4E997
:102E00000A21D4E9082343F08051C4E9082100F0E5
:102E1000BFFEBBF1000F18D000F099FED4E90A23E1
:102E200043F08071C4E90A21D4E9082343F080719A
:102E3000C4E9082100F0ACFEDFF8BC0A0279DAF838
:102E40001010016042F001020271214606F11400E7
:102E500001F0C0FB214606F11C0001F091FB6D1C46
:102E60009DF80800002818BF3C46BBD1284603B097
:102E7000BDE8F08C2DE9F74F8146032710009B46F3
:102E800019BF00244FF0804800244FF000580E4630
:102E900000F05DFE4FF0FF318E420190DFF868A92F
:102EA000DFF8485431D1686A30B30069484523D10E
:102EB0006E6A002E00F0C68096F83300010640F1DD
:102EC000C0800C9F686A86421CBFA96A8E4240F08F
:102ED000A380686A00224346FEF7DAFAA86A002255
:102EE0004346FEF7D5FA9DF80800002814BFDFF826
:102EF0000C0ADFF80C0A60E0A86A20B100694845B6
:102F000008BFAE6AD5D06E69D3E7BAF93010002099
:102F1000B14202BFDAF8103000934B4505D1582179
:102F200011FB00F00AEB0006C3E70AF1880101205B
:102F30000A5FB24202BFDAF8682000924A45EED03A
:102F4000B1F958200220B24202BF896B0091494575
:102F5000E5D00AF58C710320B1F92020B24202BFFE
:102F60000A6800924A45DAD0B1F978200420B242CA
:102F700002BF896D00914945D1D00AF5E471052061
:102F8000B1F92020B24202BF0A6800924A45C6D079
:102F9000B1F978200620B24202BF896D00914945FF
:102FA000BDD00AF51E710720B1F92020B24202BF40
:102FB00009680091494545D1B1E700F051FE0FB3D2
:102FC000686A00224FF08073FEF762FAAC6A00F084
:102FD000BEFD02465CB1D4E90A0141F08073C4E948
:102FE0000A03D4E9080141F08073C4E908031046DC
:102FF00000F0CEFD0AF5527002793169016042F0AD
:1030000001020271BBF1000F19D069693B465A46B3
:103010004846FFF7D8FE12E03B465A46314648463E
:10302000FFF7D1FE68B1287801281CBF2978042950
:1030300005D0DFF8581905F1500000F0EBFE8327AA
:1030400000E00427019800F0A3FD384603B0BDE876
:10305000F08F10B50C46A5490A78022A0BD100F072
:10306000FFFD04B1206000F0FF00012801D18120A4
:1030700010BD022010BD012010BD0000E92100009C
:10308000F8B504460D46164600F061FD0746974820
:10309000416B8C4218BF032404D131462846FFF708
:1030A000D8FF0446384600F073FD2046F2BD00000C
:1030B000480C00208C010010D02108405100070668
:1030C00038B514460546502340F2FF3200F0F2FDB9
:1030D00024B1014655F82110890A216032BD71B32F
:1030E0000A0E202A08BF10221AD0212A08BF202247
:1030F00016D0A02A08BF302212D00AB940220FE011
:10310000102A08BF50220BD0112A08BF602207D016
:10311000402A08BF702203D0502A0CBF8022902280
:103120008901090A42EA012141F00F0100E0001D76
:10313000026812F1010F18BF8A42F8D1016070478E
:1031400081B30A0E202A08BF10221AD0212A08BFF4
:10315000202216D0A02A08BF302212D00AB940225D
:103160000FE0102A08BF50220BD0112A08BF60229E
:1031700007D0402A08BF702203D0502A0CBF8022FB
:1031800090228901090A42EA012141F00F0100E081
:10319000001D026812F1010F18BF8A42F8D14FF0EA
:1031A000FF31016070472DE9F843089C07460D4642
:1031B00091461E4601F0E4FA0E2803D001F0E0FA31
:1031C0000F2845D1388840F6020188424FF00108A7
:1031D00058D0B0F5C15F62D043F6060188426DD089
:1031E00007F11A022A60F869C9F8000007F1240003
:1031F000416831608268226005783F7E306807F060
:10320000070788B105234FF6FF7240F2037100F003
:1032100051FD8146B9F1050F06DA3946284600F01E
:1032200061FD316841F82900206840B305234FF65D
:10323000FF7240F2037100F03DFD0646052E1EDAD6
:10324000FF21284600F04EFD216841F8260016E0D7
:10325000388840F60201884218BFB0F5C15F07BF49
:1032600007F11200796907F11A00F969C9F800102D
:103270004FF000082860C6F80080C4F8008040467F
:10328000BDE8F28307F112022A607869C9F80000EC
:10329000B9693160F8692060FD7B3F7CAEE707F1DA
:1032A0001200286007F124007969C9F8001002684B
:1032B000326040682060FD7B3F7C9FE707F11A0089
:1032C00028600025F969C9F80010386A3060796A09
:1032D000216092E70010044000000460010007062E
:1032E00001010E040C09002004000020CC5D002028
:1032F000CC2108402DE9F84185B015460C46002246
:10330000029204920392019201A9009103AB04AAD4
:1033100002A9FFF748FF8326E20F29D110B30398D3
:1033200000281CBF0198002816D00298048040F2A3
:103330002B28039F41463846FFF7C2FEFF281CBFDB
:1033400048EA842147F8201001990498FFF7F8FE15
:103350001520288003992BE0029801884FF6FF7210
:10336000914240D002980480102129806C803BE07B
:10337000002838D0039800281CBF0198002819D0D5
:1033800002984FF6FF7101800022019F2B213846E1
:10339000FFF796FEFF2804D0A40244F02B0447F860
:1033A000204001990498FFF79AFE15202880019982
:1033B000696019E0049F00222B213846FFF780FE48
:1033C000FF2804D0A10241F02B0147F82010FF286C
:1033D00009D002994FF6FF70088014222A80C4F3A6
:1033E00015046C6000E00326304606B0BDE8F081AD
:1033F0002DE9F041DFF81C8688B00D001646D8F89C
:10340000081018BF002E1C4600F0E0802A78D1403A
:10341000CB0740F1DB800746002130460020C04644
:10342000BE607D6000F093FBDFF8EC650546707CC4
:10343000022880F2C880002877D100F0FCFCDFF879
:10344000DC05016841F002010160DFF8D405C8F82D
:103450000000684600F0A6FCDFF8B483DFF8C4156E
:1034600098F8010002906A4606F1500000F0A2FCB4
:103470006A46DFF8B41506F1A00000F09BFC684630
:1034800000F07EFB98F80000E04A01906B4619219D
:1034900006F1840000F038FB6B46DFF890251A2116
:1034A00006F1D40000F030FB00230022DFF8F01515
:1034B00006F1F00000F08AFB00230022DFF8E4159B
:1034C00006F59A7000F082FBDFF8DC050068C0F3B7
:1034D000814038B10023DFF8D425042106F5BC7003
:1034E00000F065FD98F80200012804BF0E2000F0EE
:1034F000F4FD06F11C0001F011F806F1140001F0D2
:103500000DF800203070B081B0600721BE4A82F80B
:103510002013B06300210520F16330643174DFF8BB
:10352000F40270600420FEF775FF707CB64901EB71
:103530008003401CC3F828737074284600F028FBF1
:103540003CB90FF2284191E87C51684680E87C51F3
:103550006C46206838604FF4FA71F960A0697862AF
:103560000120218AF9827875E169F9626068002892
:1035700012BF002140F6C410012139753861DFF80F
:103580003015E0680A460B4600B10146F9616069F2
:1035900000B102463A62A06800B10346BB61C8218F
:1035A00007F1300001F052F9002107F1480001F065
:1035B00059F800230022DFF8FC1407F1B00000F0F6
:1035C00005FB384603E0284600F0E2FA002008B088
:1035D000BDE8F081BD24000070B5DFF83C44617C9B
:1035E000002900F08080B4F93010B4F93220914203
:1035F000054619D004F11401FDF706FF58B9606AB9
:1036000020B10069A84208BF606A04D004F11C011F
:103610002846FDF7F9FE38B1B0F930100A224FF014
:10362000E043284600F0F8F800F091FA0646DFF88B
:10363000880401688D4207BF0022026000214160BA
:10364000607C401E6074C0B200283AD16563207867
:1036500002280ED10820FEF7BFF9304600F098FA94
:103660004FF0FF3105F1480001F013F800F06FFA58
:10367000064604F1500000F0C7FB04F1840000F09E
:1036800064FA04F1A00000F0BFFB04F1D40000F0E4
:103690005CFA04F1F00000F0BCFA04F59A7000F056
:1036A000B8FAE16C11B104F5C670884704F5BC7036
:1036B00000F065FD56488178012904BF0E2000F016
:1036C000A5FC606BA84204BF00216163304600F096
:1036D0005FFA05F1480000F0DAFF05F1B000BDE83F
:1036E000704000F096BA70BDF8B500F030FADFF81F
:1036F00028130A78022A1CBF0978042905D1DFF8AB
:10370000BC23146800F044FA18E000F041FADFF836
:10371000B003DFF8B04301680A6B904710F5003042
:1037200041F10001A4FB0067DFF89C2304FB017753
:1037300011690020341847EB01052C462046F2BDE4
:103740002DE9F84F07460D4693469A4600F0FFF9DB
:103750008046FDF76CFE04006FF001064ED0DDE9F7
:103760000A690097DFF8B07207F59A7000F06DFAF9
:10377000388E401CC0F30B00388604F13202E5603D
:1037800082F800B0C4F808A02021388E208609EA0B
:103790000101009BDFF834032361304040F0020058
:1037A000C4E9060100200021C4E90801802304F1D6
:1037B00034005370C1600174016000234FF0FF3288
:1037C000416181610177417703718260297B01F05A
:1037D0000F01022903D101210171AA68026007F1DA
:1037E0001400009981F8F430214600F0C9FE786990
:1037F000A04208BFFEF771F9B4F93060404600F00E
:10380000C7F93046BDE8F28F200900206B24000084
:1038100024BE00002D2600002DE9F04107460E468B
:10382000300014461D4601D500206BE000F0EEFA92
:10383000DFF89C22002302F1100C3946BCF92070FD
:10384000B74204BFDCF800708F4203D19CF82370AC
:103850003F0616D40CF158075B1CB7F920E0B645BB
:1038600004BF3F688F4203D19CF87B703F0608D4A9
:103870005B1C082B0CF1B00CE0D300F0CDFA022059
:1038800040E00E4658214B43D71897F833201106D5
:10389000F3D5D7E9082344F00A0445F0E045224077
:1038A0002B4008BF002A06F198080ED000F0B4FAA9
:1038B000D7E9080120402940C8E90401D7E90823D5
:1038C00082438B43C7E9082312E0BA68DFF8041289
:1038D0008A4203D0BA68C8F80820B960C8E9004530
:1038E00000F09AFA4FF0FF3106F1480000F0D1FEE7
:1038F000D8E90401BDE8F081680C00200100020451
:10390000010001040021BDE8F081DCB5DDE90667B6
:10391000CDE900670446FFF713FFFFE701462046A5
:1039200002B0BDE8D0400A224FF0E04374E780B512
:10393000930803F001030093530803F0010302F01E
:10394000010207E080B5930803F00103009302F041
:1039500001020123FFF78EFA02BD0000F0B500BF9F
:1039600002A191E8FC5080E8FC50F0BDFFFFFFFF92
:103970000000000000000000000000003A013A01D1
:1039800000000000000000000000000002000040F5
:10399000E0B50192009191F904300A680121FDF728
:1039A00092FE03B000BDF8B506460F46802500F034
:1039B000CEF8FFB2032F044627DADFF8140100EB3C
:1039C000471101F53077B87AF8B13968B1421CD1A6
:1039D000DFF804010278022A11D197F90910406B2F
:1039E000491D0906090C41F08161002241F00101E5
:1039F000FFF746FB05463846FDF7D4FD05E038469F
:103A0000FDF7D0FDFEF769F88125204600F0C0F8EB
:103A10002846F2BDCC210840CC5D002000200940A2
:103A2000110000E03B24000015210000A920000047
:103A300030B585B00FF2A402002301AD14680493E1
:103A4000039302930193009502AB806803AA04A933
:103A5000FFF7A9FB049909884FF6FF72914219D12B
:103A6000D8B1029800281CBF0198002802D06A46ED
:103A70002B2102E003986A462B21FFF721FBFF2848
:103A80000BD00098A40DC0F3150040EA845444F014
:103A9000004402E0A40D41EA8454204605B030BD44
:103AA0005124000029230000B44F0050D917000012
:103AB000392400005F230000480C0020043004403B
:103AC0008C01001000093D000C090020FFEFFF9F52
:103AD0002009002065230000CC5D0020FFFF3F008F
:103AE000DFF800F055EB0210DFF800F047EC0210B1
:103AF000DFF800F049EB0210DFF800F075E4021087
:103B0000DFF800F01DD90210F0B51C008DB005469D
:103B10000E46174604D1002300F0A0FE0DB0F0BD04
:103B20000823302200216846FFF7E2FF2068059055
:103B30006B46606808903A46207AADF81800314626
:103B4000284600F08BFE0DB0F0BDFFF7D5BFFFF7A4
:103B5000C7BFFFF7D5BF00F0A1BEF0B581B00446E6
:103B60000D461646FFF7BCFF07463246294620465B
:103B700081604260384601B0BDE8F040FFF7B4BF55
:103B8000002101604FF0FF32012342600372704751
:103B9000FFF7AABFDFF800F08DDD0210DFF800F0BC
:103BA0009DEB0210DFF800F049E60210DFF800F0AC
:103BB000FDE90210DFF800F0C3EC0210DFF800F0BE
:103BC000E7E90210DFF800F0C5E20210F0B51C00D2
:103BD00089B005460E46174605D10023FFF7DAFFE8
:103BE000284609B0F0BD0823242200216846FFF7CB
:103BF000D5FFA16806916B462278ADF810203A46B1
:103C00006068059031462846FFF7C4FF284609B092
:103C1000F0BDFFF7C7BFFFF7C9BF0D480068704789
:103C200000F04ABE00B581B0FCF70DFA401E80419D
:103C3000C043C00F01B000BD002181600170416030
:103C40007047FFF7B7BFFFF7B9BFFFF7BBBF000073
:103C500060BE000045490A681040C2430A607047D0
:103C6000434A11680029FCD10023D3611060D06958
:103C70000028FCD0D161506870473E48016821F0AF
:103C8000020141F40871016003213B48016041F2E7
:103C90003002C260012343605021C16043604FF491
:103CA000CA61C16043604FF48651C16043603349CB
:103CB0000B60704770B40446002000E0401C98423E
:103CC0000BDA256815F1010F07D054F8046B164084
:103CD0008E42F3D170BCC0B2704770BCFF207047F9
:103CE000000000001E281DD8DFE800F0101C131C87
:103CF0001619161C1C1C191C161C1C191C1C1C1C1F
:103D00001C1C1C1C1C1C1C1C1C1C190040F20252FC
:103D100009E04FF4817206E04FF2011203E041F234
:103D2000011200E00022FF2909D14FF6FF300240C6
:103D300042F0C00240F2037040EA024070470800BF
:103D400008BF42F0300205D0C8074CBF42F0100255
:103D500042F0200240F2037040EA024070470849F6
:103D60000A681040C2430A60704700001010044007
:103D7000001004400000046054600440004104400E
:103D800008100440DFF800F025EA0210DFF800F028
:103D900061DB0210DFF800F0F1EB0210DFF800F059
:103DA000BDE80210002101604160C1604FF0FF31A9
:103DB0008160704770B514008AB005460E4604D184
:103DC000002200F097FD0AB070BD1449A0680A688F
:103DD000904204D310F1010F18BF002012D1082324
:103DE000282200216846FFF7D5FF206804906A4624
:103DF000606805903146E0680790A0680690284604
:103E000000F078FD0AB070BDFFF7C8BFFFF7BABF7A
:103E100000F07CBD00F084BDFFF7B8BF24120000A5
:103E2000DFF8B81691F8410120B1D1F86C010028F3
:103E300018BF004770472DE9F041DFF8A04694F81D
:103E40004201002884B040F0AE800121DFF8906686
:103E5000DFF8905684F84211307B84F84101716894
:103E6000C4F86C11A868C0F38140B8B93069A8B132
:103E70002F68FFF7D2FEC7F30662642111FB02F23E
:103E8000B2FBF0F200230FF23D6104F19400FFF762
:103E90009DFEDFF854164FF00040086001A8FFF7C0
:103EA000CBFE002002908DF804000022039201ABAB
:103EB0000FF25D41DFF8347604F10C00FFF786FE67
:103EC00001A8FFF7B9FE002002908DF804000390CE
:103ED00001AB0822DFF8181604F15000FFF776FE58
:103EE00000230FF27132322104F1D800FFF70CFEEB
:103EF000002038600023DFF8FC252C2104F1F400B9
:103F0000FFF702FEDFF8F0050178A968707BC1F3C6
:103F1000815128B1032903D1012084F8390121E01E
:103F2000032918BF02291DD001291AD1DFF8CC6559
:103F3000DFF8CC75032000901C23D6F800C0DCF815
:103F400004804FF0405200213846C04701200090C5
:103F500038463668776809234FF400720021B84765
:103F600011E081B9386840F040003860FFF7EFFD9C
:103F7000A16841F00401A16094F84511491C84F83E
:103F80004511FFF705FE686840070CD4FFF7DFFD19
:103F9000A16841F00101A16094F84311491C84F823
:103FA0004311FFF7F5FD002004B0BDE8F08130B506
:103FB00081B0002408B1150004D16FF0020420463E
:103FC00001B030BD8160C26003610146DFF80C05BD
:103FD00000F0D6FA204601B030BD10B50446FFF718
:103FE000B6FDDFF8F8140A1992F843315B1E82F827
:103FF0004331DBB233B98A68012303FA04F422EABD
:1040000004048C60FFF7C4FD002010BDF0B581B042
:104010000546FFF79CFD0446DFF8C014481990F8E8
:104020004A21521E80F84A21D2B232BBDFF8D404B2
:1040300000EB850210F825505688280623D5DFF8B6
:10404000C87439680A6A3046904739688A6A3046C7
:10405000904739680A6B30469047DFF8B01401206A
:104060000860DFF8AC0401688907FCD505F03F055E
:10407000152DBCBF2846FFF7C9FF2046FFF788FD76
:10408000002001B0F0BD680606D501EB86010020D6
:10409000D1F860219047E9E7DFF86C140B689A6962
:1040A00030469047304600F04BFC0228FAD1DDE75D
:1040B00010B50446FFF74BFDDFF820148A68012392
:1040C000A3401A438A60214491F84321521C81F88D
:1040D0004321FFF75DFD002010BD2DE9F0410646AC
:1040E000FFF735FD0446DFF8F453A81990F84A119C
:1040F0004A1C80F84A2139BBDFF8088418F82600EA
:1041000000F03F001428D8BFFFF7E7FF08EB860058
:10411000478818F8260001061CD5DFF8EC532A68FA
:10412000D169384688472A68516A384688472A68DC
:10413000D16A38468847DFF8D42301201060DFF8C1
:10414000D00301688907FCD52046FFF721FD002038
:10415000BDE8F081400606D505EB87010120D1F8C6
:1041600060219047F0E7DFF8A0130B685A693846E2
:104170009047384600F001FC0128FAD1E4E730B559
:1041800081B00446FFF7E3FC05462146DFF84C0307
:1041900000F020FA284601B0BDE83040FFF7F8BC37
:1041A00010B50024022802D0032805D008E000F052
:1041B00003FC0446204610BD00F088FD204610BDDB
:1041C000FEE70000F0B581B0FFF7C1FCC34905462A
:1041D00091F83801012460B1DFF82063DFF8200393
:1041E0003768D7F80CC0002301223C21E04700B912
:1041F00000242846FFF7CCFC204601B0F0BD30B5C6
:1042000081B0FFF7A4FC044600F073FEB34D00201C
:1042100085F83801FFF79BFC95F84611491E85F893
:104220004611C9B219B9A96821F00801A960FFF7C0
:10423000AFFC2046FFF7ACFCA94884680220A047E9
:104240000546102000F067F8012D04BF0320A047A9
:1042500001B030BD2DE9F041A44C82B06568206802
:1042600020EA050105406A06216049D5A34EF16B9D
:104270000A6804209047022818BF032819D0012893
:104280003ED1032000901C23D6F800C09C4FDCF8E0
:1042900004804FF0405200213846C0470120009072
:1042A00038463668776809234FF400720021B84712
:1042B00026E0032000901C23D6F800C0904FDCF8C5
:1042C00004804FF0405200213846C0470120009042
:1042D00038463668776809234FF400720021B847E2
:1042E000FFF735FC7D4991F84521521E81F84521A3
:1042F000D2B21AB98A6822F004028A60FFF748FC39
:10430000280648BF00F022F8A56002B0BDE8F081A1
:1043100070470020704730B505467048046881B08A
:104320005CB1A068284205D02269E36800212846D4
:10433000984728B92468002CF3D1002001B030BD83
:104340004FF0FF3001B030BD0020704730B581B074
:10435000FFF7FDFB4FEA000400F0CBFD0028FBD087
:10436000FFF7F5FB5D4D95F84611491E85F846119E
:10437000C9B219B9A96821F00801A960FFF708FCC2
:10438000002085F838012046FFF702FC5448846875
:104390000220A04705461020FFF7BDFF012D04BFF6
:1043A0000320A04701B030BD70B501284CD15A4957
:1043B0000A6813689847012800F08180474D95F8F6
:1043C000380100287BD1474EB068C0F38140B0B9B6
:1043D000434804699CB130684E49C00F19BF4FF47F
:1043E000405008604FF480520A60502000F030FEC8
:1043F0000120A04705F19400FFF725FC01E000F043
:1044000069FD012085F83801B068C0F3814010B91A
:104410003349086948B9287A810606D4334880228E
:104420008260016841F080010160FFF790FBA9689C
:1044300041F00801A96095F84611491C85F846111C
:10444000FFF7A6FB002070BD002838D100F07CFDEE
:10445000244E224DB068C0F38140A0B920480469C1
:104460008CB105F19400FFF7F0FB30682949C00FCB
:1044700019BF4FF44150C1F880004FF48252C1F887
:1044800080200020A04795F83801C0B11748016886
:1044900021F08001016080218160FFF758FB95F8D1
:1044A0004611491E85F84611C9B219B9A96821F00B
:1044B0000801A960FFF76CFB002085F83801002097
:1044C00070BD000000B5134981B04020086000F0C5
:1044D00001FD01B05DF804EB38E70000142800206E
:1044E000B8BD0000AC4F005000A10C409022084025
:1044F000394E0000294A0000B0640020A4010010D9
:1045000000A00C40C4B60000B801001028200860CC
:1045100028200840A8A00C40E001001010B5044677
:10452000FFF715FB002161602160BDE81040FFF737
:104530002FBB30B581B00546FFF709FB2C683CB1B5
:1045400021682960216800291ABF00224A60696039
:10455000FFF71EFB204601B030BD70B504460D4686
:104560001646FFF7F4FA2E607168696071680029D9
:1045700014BF0D6025607560BDE87040FFF708BB93
:1045800030B581B004460D46FFF7E1FA00212960FD
:1045900062686A606168002914BF0D60256065600B
:1045A00001B0BDE83040FFF7F3BA30B581B0044642
:1045B0000D46FFF7CCFA2168296000226A60216865
:1045C000002914BF4D606560256001B0BDE8304032
:1045D000FFF7DEBA30B581B004460D46FFF7B7FAF3
:1045E00029686A6800290CBF62604A6069682A68A5
:1045F00000290CBF22600A6001B0BDE83040FFF71F
:10460000C7BA30B4002513E050F8042BD30744BFD9
:10461000A9F101039A18091F042942F8045BFAD290
:1046200013468C0744BF15809B1CC90748BF1D70EB
:1046300050F8041B0029E7D130BC7047DFF800F0C8
:10464000E5EB0210DFF800F0C1DD0210DFF800F04A
:10465000B1BF0210DFF800F021CD0210DFF800F04A
:10466000FDE6021030B589B004460D460823242229
:1046700000216846FFF7E2FF01218DF818106A4615
:1046800029462046FFF7DEFF204609B030BDFFF780
:10469000E5BF00B581B0FFF7D9FF00280CBF4FF090
:1046A000FF30002001B000BDFFF7D4BF62B38B071D
:1046B00008D0521E11F8013B00F8013B00F02480A5
:1046C0008B07F6D1830740F0208000BF103A07D354
:1046D00030B4B1E83810103AA0E83810F9D230BC44
:1046E000530724BFB1E80810A0E8081044BF51F8F0
:1046F000043B40F8043BD20724BF31F8022B20F8DA
:10470000022B44BF0B7803707047121F17D35B0056
:1047100009D151F8043B20F8023B1B0C121F20F872
:10472000023BF6D20BE051F8043B00F8013B1B0AB8
:1047300020F8023B1B0C121F00F8013BF3D238BFDC
:10474000121D521E24BF11F8013B00F8013BF8D89E
:104750007047000034480068000C00F0070007288C
:1047600028BF4FF0FF30704730490968C1F30F315F
:104770004BF641324FF0FF30914208BF04207047A2
:1047800038B5FFF7F1FF28490B68DD0D04284FF01D
:10479000FF34C3F34061C3F3006221D11B0B03F06C
:1047A0000F03082B1BD0092B14D00F2B18D1E807AF
:1047B00004D500290CBF0D240E2411E0114218BFAE
:1047C00011240DD109B10F240AE0002A0CBF0B24DB
:1047D000102405E000290CBF09240A2400E00C2461
:1047E000204632BD000000001048114970B5056830
:1047F0000E682D0F06F0FF06802E28BF0026FFF75B
:10480000B3FF04284FF0FF340CD1032D0AD8DFE8A2
:1048100005F0020204070A2404E006F10B0401E09B
:1048200006F1150460B270BD9412005018130050C8
:10483000A010005080B5FFF797FF042804D1FFF7C0
:10484000D3FF142800DB01BDFEE70000002200F0CA
:1048500003BC0000DFF800F021D40210F8B50446D4
:104860000B480C4F0668F8690D4650F82510B14208
:104870000AD10948009029462046FFF7EBFFF86966
:1048800050F82510B14201D10020F2BD2046F2BD02
:104890001C1200005011002010260020102803D305
:1048A00002491038C1F8000F704700BF00E000E077
:1048B000DFF800F011DC021070B5044600F0E2FBF6
:1048C0000646A08A002501280AD1FFF7F1FF054618
:1048D000E068A168451BA9423EBF2069A8420025A7
:1048E000304600F0D0FB284670BD0000DFF800F035
:1048F00019D7021010B50446034BFFF7F7FFA06865
:1049000000B90024204610BD102600200148806810
:10491000704700BFE4100020DFF800F091D80210CB
:1049200038B504460D4600F0B9FB616A0D43656277
:1049300000F0B5FB2046BDE83240FFF7EDBF0000B8
:1049400030B51C4B1A685B6D0021C50704D5D40730
:1049500001D45B0700D50121830703D5540804F077
:1049600001042143400703D5920802F001021143DC
:1049700009B1012030BD022030BD30B50D4B1A68A1
:104980005B6D0121C50704D5D40702D45B0758BF6E
:104990000021830703D5540804F001042140400797
:1049A00003D5920802F00102114009B1012030BD87
:1049B000022030BD4021084030B5DFF8AC5495F8F6
:1049C0003901002481B0002802BFDFF8A014887BE1
:1049D00000280CD0FFF7BBF895F83B11002906BF63
:1049E000012285F83B210124FFF7D2F814B1002001
:1049F00001B030BD0220FFF75BFB0E20FFF76DFB1F
:104A0000DFF86C14086810B1012001B030BDDFF888
:104A100064044022026042600120C861002185F8E0
:104A20003A11002001B030BD2DE9F041DFF8481403
:104A300082B000200860DFF8304494F83A01002882
:104A400000F0408101283FD1DFF830140D68DFF815
:104A500030140A684BF2F52045432D0A02F4402237
:104A6000B2F5802F13D1DFF81C0401688A030ED43D
:104A7000DFF81464B06C0168884700F0A9FAF16BA4
:104A8000CA6890472F09C010474305EBE73594F8F3
:104A9000400118B1002184F8401106E0DFF8EC0372
:104AA000006820F07F402D186D08DFF8E403DFF880
:104AB000BC23056001212D0C45608160907B00289E
:104AC00000F0B8800221FBE0022840F0B980DFF856
:104AD000AC030568DFF8BC03C16AC1F30721C4F861
:104AE00014110168C1F38441C4F81811B5F5C0610F
:104AF000C069C4F81011C0F38120C4F8280103D1A3
:104B0000002084F8300191E094F8300168B9D4F8BD
:104B10001801D4F81421C4F82001C4F81C21C4F8E9
:104B20002C11D4F82801C4F82401D4F82C01002851
:104B30004CBF6FF00101022100EB40000818D4F8CF
:104B40002011421000EB9270D4F81421C4F81C21FB
:104B500001EBA0010029C4F8201115DCD4F82401D0
:104B6000032805D11531D8BF0121C4F8201124E054
:104B70000B31D8BF0121521E48BF0022C4F82011BA
:104B8000C4F81C21032019E01E2919DDD4F82401E2
:104B900038B915391E29C8BF1E21C4F820110320B9
:104BA0000CE00B391E29C8BF1E21521C3F2AC8BF6A
:104BB0003F22C4F82011C4F81C210020C4F82401AD
:104BC0000823B14ED4F81C01B34F80B200904FF4CB
:104BD0007F42D6F800C0DCF8048030213846C04758
:104BE000012000901123D6F800C0DCF804804FF4B7
:104BF000003204213846C047D4F8200180B200902A
:104C00001223D6F800C0DCF804804FF4F802042127
:104C10003846C047D4F8240180B200903846366840
:104C200077680A234FF440622021B847A5F2FF5568
:104C3000032D03D20620C4F83C0143E004213FE0E9
:104C400003283FD18D480068D4F81011A0F5C0604A
:104C50000029C4F82C0148BF4942002848BF4042FF
:104C60008142A8BF002028DA874DD4F814018A4E6B
:104C700080B2009008232F68D7F804C04FF47F4219
:104C800030213046E047D4F8180180B2009012235A
:104C90002F68D7F804C04FF4F80204213046E047EB
:104CA000D4F8280180B2009030462D686E680A233F
:104CB0004FF440622021B047012084F830010621E2
:104CC000C4F83C1102B0BDE8F04100BF2DE9F04747
:104CD00082B0724C6C4DDFF8C081714EDFF8889164
:104CE00042F62A2709E000BFC9F83C0103212160F0
:104CF0000020706070688107FCD4D9F83C01062858
:104D000000F29980DFE800F0048A6F774C542F009E
:104D1000012131600F22E260276102200090072309
:104D2000D5F800C0DCF804A04FF4C0720021404662
:104D3000D047D5F800C0DCF80CA007234FF4C072B0
:104D400000214046D0470120306031688807FCD5FB
:104D50000121E16199F8390100281DBF002131636B
:104D600001200320C0E700213160716031688807AD
:104D7000FCD471688807FCD400213F4A3C4B116089
:104D8000012018600E20FFF741F90220FFF725F9F6
:104D90000020C9F83C0189F83B0102B0BDE8F0876A
:104DA0000520C9F83C010021716070688107FCD4BE
:104DB00000210091032089F83A0104232C686768D8
:104DC00070224046B8472C68E568702370220021A5
:104DD0004046A8470120706002B009F15000BDE8CC
:104DE000F047FEF730BF0320C9F83C010021716095
:104DF00070688107FCD400210091022089F83A01F3
:104E000004232C68676870224046B8472C68E56820
:104E10007023702200214046A847DBE701200221D1
:104E200089F83A01009104232C68656870220021FA
:104E30004046A847CEE7FEE71A4801688A07FCD536
:104E400009491648D1F83C21012A07BF2021816178
:104E50000122826100210160082206490A604A603D
:104E6000012101607047000014280020B8BD000037
:104E700004800C4038500C403C500C4008400C4022
:104E8000B44F00508C130050A401001010200940B2
:104E90007C600C4004A00C4000A00C4000400C4082
:104EA00054600C4058600C4038B5DFF85C01DFF806
:104EB0005C51048814F0010403D14FF001212960F2
:104EC0000088DFF84C211168884714B14FF08070DA
:104ED000286031BD10B5DFF84C2113685C680121F2
:104EE0000120A047DFF83001DFF83011006888604A
:104EF00010BD38B5DFF81C41E16B0A68012090470E
:104F000001281FD02468DFF80001E5680023012292
:104F10003C21A847B8B1FFF7C7FFDFF8FC00DFF876
:104F2000FC3002689968DFF8F8001C68DA60A4EBCE
:104F30009404521A4243120C1A6019688C4238BF0A
:104F40000C461C60012032BD38B5DFF8D84022681D
:104F5000536800210120984721680A680120904782
:104F600008B1FFF7A1FFDFF8B000DFF8B05000682C
:104F70006860E06801688847286131BD243080F3AB
:104F80000600020900F00F000F21C2F103024FF6E4
:104F9000FF73C0F10F00D140C340DFF88C0043EA3B
:104FA000014303607047DFF88400DFF88420016864
:104FB000DFF8800002EA9122824208D1DFF87810FF
:104FC000096800208A035CBF08040016D6E7704712
:104FD00070B51A4CA268E5681B3800FB00F100FBB5
:104FE00001F681FB0223C6FB05236568C0FB052390
:104FF0002068120942EA0372C117101841EB23110D
:10500000000C40EA014070BD00A00C4004A40C401C
:1050100080000010A4010010302009402C64002002
:1050200040420F00E001001018A00C405013005047
:10503000F1FF0F00F0010700B44F00505064002052
:10504000EFF3108072B67047EFF3108062B67047CE
:105050000138FDD1704770474018491C1CBFB1F1A1
:10506000010100F8012DF9D170470000DFF800F0D0
:1050700075E20210DFF800F0E7EC0210DFF800F054
:105080001DF8021000E006E0EFF31180202181F30B
:1050900011887047000080F311887047F4E7FAE741
:1050A000F2E7F8E71849C20744BF01230B60820703
:1050B00044BF4FF480730B60400744BF4FF480320D
:1050C0000A60704710B5114AC30748BF11608407D2
:1050D00048BF5160400748BF916010BDFFF7C6BF91
:1050E00010B5044604F11000FFF7B8FAE06818B1F3
:1050F00004F10C00FFF7BEFF214605480068BDE83B
:1051000010405422FFF7BABF04200940182009407C
:1051100064BE0000CD44002199400021B54000212B
:105120001F410021E1400021414500217D45002132
:1051300045410021514100215D410021794100217B
:1051400027460021C5410021DD410021F541002114
:10515000314200219B460021DB5A0021074B0021F0
:10516000DB0705D000F003F80249087070BD70B588
:10517000014D2847E00400211D240200074C6579F9
:1051800000F009F861796940490703D50121044A13
:105190008903116070BD70B5024908478003002182
:1051A000081104402D59000000F019F8E1B26C29F3
:1051B0000BD0042801D0062807D10E490978C90769
:1051C00003D12178090700D402200B490A780C2169
:1051D000114202D0094980220A6003B0F0BDF0B547
:1051E00083B0074908470448017840229143017081
:1051F00004480047C80000213301002100E200E01C
:1052000041160300231B030070B5004700F042FA6B
:1052100000480047577F000000F042FA004800476E
:105220001B8800000599880A802805D113498878D1
:105230008007800F00F04CFA00480047D96E00004C
:105240000FB41048C188002902D0104600F040FA7F
:10525000079B9B0A084D832B08D1084C23899B068A
:1052600004D500F005F8002800D042350FBC2847CF
:1052700070B50548004700001F0B020060010021C7
:105280001F0B020080030021EB090200094B1A7872
:105290000824A243002800D022431A70004A104775
:1052A000838E000003490878000701D402480047B4
:1052B00070470000800300215F7E00000848094A13
:1052C00003689A420AD108480289084BD21A01D0D1
:1052D000012A03D1406E064988470399054B1847B8
:1052E000A8020021BD030200600100212118000076
:1052F000F1350000BD060000044A2820904704480C
:10530000012141600348044A416010474F420000B8
:1053100000500440006004408542000070B51F4DFD
:105320002878C4B21E4880472878032834D1032C3B
:1053300032D01C488068400DC2071A4801466031CF
:105340008030002A03D01F240C57458802E01E2419
:105350000C570588002C1FD01348154A4169007965
:105360004143481011494969401810494039497F63
:10537000904740054015694288420DDBA8420BDC8E
:105380000C4B996988B20246090C62430904521217
:10539000801880B20843986170BD0000E4020021CB
:1053A0007941000028000021800300210003002132
:1053B000CB8100004040044010B5864C214640316E
:1053C000087D012834D18448C07D4008C0072FD013
:1053D0002046603042795208D20729D04089800B9C
:1053E000012825D1087E4109C9070CD0A16F00070B
:1053F0000988C00F4002090408436066A06F801C42
:1054000001F08CFC13E0744820308069406800286B
:105410000ED0724A00230178D356591A08D4C90015
:1054200008184178C90703D0016861664068A06622
:105430006B48804710BDF8B5664C6A492646203651
:10544000707B2546403500902F79B8004018806861
:105450008047002828D16049C97D0909C90723D0A0
:1054600022466432152F20D0297E00234F09FF07E2
:1054700003D06D7D002D00D00123009FA56FBB439D
:1054800012D0737B002B0FD0237D5B060CD5D28806
:10549000920B012A08D1C908C90705D0A988890B30
:1054A000012901D100217173F8BDAB7EE97D012B8B
:1054B000E3D00023E1E770B5464C2546606A8035AD
:1054C00000281DD15420005D0022002817D0642040
:1054D000005D8008C00712D0A9688888800B012869
:1054E0000DD13D48C07D4008C00708D03A48203063
:1054F00080690068002802D02962A86000E02A6262
:1055000039488047616A002903D1296A002900D0FF
:10551000A96070BDF8B52F4C344920464030027D5B
:10552000002A2FD0807E25468035032802D004280B
:1055300003D027E00120E87524E06420005D8008A6
:10554000C0071FD0A8688088800B01281AD1224884
:10555000EA7DC07D002A13D0C008C00712D02646BD
:105560002036777B88470146394308D1217D0906DB
:1055700005D56988890B012901D100217173F8BD16
:105580008008EAE78847F8BD124880300021C175DD
:10559000174800470F4940310871262814D006DC0F
:1055A000152813D01B280BD01F2804D10AE03D2852
:1055B0000ED047280AD00B498000401880687047F9
:1055C0000C4870470C4870470C4870470C487047AF
:1055D0000C48704760010021C8000021E004002150
:1055E00059490200005502008F3D0200753002004B
:1055F000152A0200C14400214D440021EF4300213F
:105600006F430021F142002110B50C4988470C4A34
:105610000621515E002907D0022905D0092903D0AF
:10562000102901D0112907D17721C943884201DD12
:10563000002801DD7F20C04310BD0000A9650000E7
:105640008003002110B51048C1881048052918D0E2
:105650000F4C21684A0852002260A26B5208520087
:10566000A2632160FFF7D0FDA06B000708D40120E2
:10567000206060600020401C0C28FCDB14202062AD
:1056800010BDFFF7C1FD10BD800300213F5B00008E
:1056900000600440806B0C490007000F48717047A0
:1056A000094A0A4918235079CB56497EC0188142CD
:1056B00001DD084602E00F2800DD0F20D18909092D
:1056C00009010143D1817047E002002188000021D7
:1056D0000849C979CA08D20708D0C1400648C90795
:1056E00001D0064900E00649491CC160704700200E
:1056F00070470000E8000021280000218801000018
:10570000500100000122274B02212548184710B5FF
:10571000254880472548406A00280DD124490A20A1
:105720000856002809DA401C07D008462038406A8D
:105730002049884200D1804710BDFFF7E3FF10BD2C
:1057400000211E4B1C4A0846184701201C494002F4
:1057500008601C48FB220178114001701248EC38A7
:10576000004710B51849884711492039012807D04A
:10577000020404D50020088514484862012010BDA9
:105780004A6A094BEC3B9A4201D1114A05E00749AC
:105790004A6A104B9A42F2D10F4A4A6210BD000089
:1057A000060800009F060000A192020008010021E7
:1057B000540100216392020047460021B5B4020063
:1057C00080E100E080030021F79602003D460021C1
:1057D0008346002169950200794600218307FF2254
:1057E000DB0E9A408907090E994000280BDA000762
:1057F000000F083883089B00FF481818C3699343BB
:105800000B43C36170478308FC489B00181803686A
:1058100093430B430360704710B5F9488047F94C38
:10582000616C002919D0217B0909C90714D1002214
:10583000214640310A73E273626CA26412784A76A0
:10584000A26C52784A70A26CD2780A76A26C128945
:105850004A83A16C4968616310BD812001F06EFA32
:105860000B20C00220810220A07210BD70B5E54A55
:105870000146144600202034002901D0062100E012
:10588000217AE37B9D08ED0704D0157B2D09ED07F8
:1058900000D0491CDD08ED0700D0891C1D09ED076B
:1058A00004D0D94D6D7CED1DED0869185D09ED073B
:1058B00000D0491C9D09ED0700D0491CDB0900D030
:1058C000091D136B0025002B0BD01846CF4B1C3243
:1058D00098472321084202D00121E17202E0E572DB
:1058E00000E0D561410703D50121C94AC90591608E
:1058F00070BDF8B50646C748C24C00210160617C06
:10590000C44F4A1E403FFA634068800754D5786B05
:10591000C14DEA699047696A607C88470546204620
:105920002030002E09DA6905090E01724122125D4C
:10593000914203D90120C043F8BD0672027AA17CCE
:105940000646D00008183862B24801218160062A54
:105950000BD9206B01F0F8F90020FFF787FF212118
:10596000084208D00220C043F8BD062A03D2E169EC
:10597000206B01F055F9E06900281BD0F17B890804
:10598000C90708D0217B0909C90704D00146E27B79
:10599000401CE0610A70F07BC008C0070AD0E069D3
:1059A000E910421CE26101706A07E069520F411C74
:1059B000E16102702846F8BD0020C043F8BD70B513
:1059C000904C0020217BC0438908944DC90700D129
:1059D0006878FFF78EFF002808DBA88321680F2076
:1059E000884760608E49002088471FE0811C08D0EE
:1059F000C01C1DD08B49102008608B490860012015
:105A000070BDA06B002802D04179491C4171012072
:105A10007F498006886001F0F2F8844880470021C1
:105A20002C20015521680C2088476060002070BD43
:105A30000B20C00220810220A072032070BD6E499D
:105A4000086170476C4908690A6910231A430A61A2
:105A5000704770B5FFF7F6FFFF21724A0131116000
:105A6000734900E020BFCA6AD207FBD0624A1061C6
:105A7000704842690F231A4342618269D208D200FA
:105A8000121D8261634802258038456001228260D0
:105A90000024046084608A600C608C60082141608E
:105AA0004160614964488031086064492046884704
:105AB0006348804763480570554805635C4840303B
:105AC0000460554860494470782088474E488030CB
:105AD000407B002801D001F03DF970BD70B54A4C03
:105AE0008034207B002801D0584988474648403000
:105AF00001888A0AD20702D1C07A002805D0080995
:105B0000C00702D04E487A388047514800210177BB
:105B1000404840380162434810220260042202607B
:105B200095010560520202603F4E32604048C162FA
:105B300014210162E07A364CC00703D0606901216C
:105B4000084360613D49012088473E4906200870AE
:105B50002063384841689D2001F002F9356070BD2E
:105B600000B5FFF76FFFFF212E4A01311160304968
:105B700000E020BFCA6AD207FBD01F4908612D4848
:105B800041690F22114341618169C908C900091D9A
:105B9000816125492848803108601E49002040392C
:105BA000C86200BD1B4982B280318A62020CCA629F
:105BB0001549CA79D30709D1920889880240D007CC
:105BC00001D0C84381B21348403841627047F8B5EC
:105BD0000C4C2049254688792035002870D01D4B73
:105BE000096800205A791F79002956D0EB7B5B09A0
:105BF000DB0733D06B7B2FE000ED00E000E400E03A
:105C000023DB020060010021280000219B360000F8
:105C1000001104408050044080030021A0010021B5
:105C2000C10F000080E200E000E100E0295B00001D
:105C30000060044000300440040D0000BD850000F9
:105C4000FD900000180000213D4200006F58000048
:105C5000A0020021F45C00210B70491CEB7B9B0926
:105C6000DB070CD04C231B5DAE7B3343DB06DB0E26
:105C7000D6013343FE07760E33430B70491CEB7B92
:105C8000DB090AD0E36B0B70E36B1B0A4B70E36B11
:105C90001B0C8B70E36B1B0ECB70216B0026002955
:105CA0001FD0002A0DD0EA7B5208D20709D0EA7A29
:105CB000002A02D00021E9720FE00846F9490BE002
:105CC0004AE0002F02D0EA7BD207F6D1EA7A002A16
:105CD00003D10846F349B6398847400701D5012664
:105CE000F605E87A002802D0012080050EE0EE4893
:105CF0004179002902D00120400407E00079002802
:105D000002D00120800401E0012000040643A06BC2
:105D100000281CD0710203D50179491C017110E0E3
:105D2000B10303D58178491C81700AE0710303D562
:105D3000C178491CC17004E0F10302D54178491CC7
:105D40004170A16B687BC871A06BE16B8160D74823
:105D50008660D54900208871D34A0832907900289E
:105D600071D0106851790091002820D0E97B490951
:105D7000C90702D0697B0170401CE97B8909C9070A
:105D80000AD000992E7ACB010121002E00D00021EB
:105D900089010B430370401CE97BC90907D0E16B03
:105DA00001700B0A43700B0C8370090EC170BE4961
:105DB000002608310F79216B304600291ED0009A49
:105DC000002A07D0EA7B5208D20709D102E0084630
:105DD000B4490EE02A7A002A06D1EA7BD20703D022
:105DE000002FF4D0002705E0002F03D10846AD496D
:105DF000B6398847400701D50126F605002F02D0A5
:105E0000012080050CE00098002802D00120400409
:105E100006E0A5480830C07900280BD00120000416
:105E20000643A06B00281ED0710206D50179491CDB
:105E3000017114E001208004F2E7B10304D58178F8
:105E4000491C81700BE015E0710303D5C178491C32
:105E5000C17004E0F10302D54178491C4170697BAF
:105E6000C171E16B81609148866000208E49287382
:105E70000831887101208E49400408608D4908600E
:105E8000F8BD8D48C16AC90704D10169C907FCD1B1
:105E900001210162704770B5884D00202862854954
:105EA00014200860854C0120403C60600820606040
:105EB0006060002000BF401C0A28FBDB8048804750
:105EC00080488149406882B24A61000C886102269C
:105ED00066607E4988780002C01CA861764B7C4AC7
:105EE0004033DA620878840603D51A63DF22104053
:105EF00008704E7070BDFEB56B4F764C3F1F7878C2
:105F000025464035002812D1207B4008C0070ED01E
:105F10002978E07CC90041186F48C28DC08C51437C
:105F2000226E09091018081801217970E06363488E
:105F3000C06AC0077FD06149032040394860FFF73D
:105F4000AAFFFFF79EFF002658497E701020886048
:105F5000A06B002802D00178491C0170287EE7213F
:105F60000840617B491C8907C90E08432876A0694F
:105F7000002802D05949606B8847A16C287EC87000
:105F8000A16C688B08814A4880300068800301D585
:105F9000FFF71DFE52488047524DE87AE97AC9075B
:105FA00004D051482081A672802006E0400707D522
:105FB0004D48001F2081A6728E2000F0BFFE32E007
:105FC000207B4008C00729D07E70206DFFF7EAFDD6
:105FD000FFF7C6FD454900208847FFF77FFD00F029
:105FE0000EFEE87AFB210840E872002304223A48BA
:105FF00001930092A030408AE16B3D4D0A18822146
:106000001846A847002802D0972000F097FE216884
:106010000C20884760600120FEBD0CE01520800246
:1060200020810120A0727E70FFF713FD962000F002
:1060300085FE0220F0E725480178490849000170F3
:106040001B49042080390860E5E70846224910B55D
:106050008031CA7A154BD10703D0596949084900E4
:106060005961D108C90709D0224A5169F024214356
:106070005161946970218C43403494610C4A1E49EB
:1060800011600E49022240394A600C4C0021E16344
:106090001A490A701A631A4988470C490320487044
:1060A00010BD0000113B0000F45C00210011044011
:1060B00080E100E080E200E00060044040500440E5
:1060C000BF570000C002002180510440800300211E
:1060D00080FF00006001002128000021F135000050
:1060E0001D0D00002801002105540000038300005D
:1060F000430E000000300440140900001800002185
:106100009F720000F0B585B00020FF494870FF4C39
:1061100026462036307A002803D0FD4880470028E4
:1061200071D100272546009740350397687E000708
:10613000800F0BD0012808D0022802D0032805D1F7
:106140004FE0A88BC007C017401C0090F149002009
:106150000860F148407C0190029010280ED9ED4A69
:106160000F20403AD063084641688907FCD5576B39
:106170001020206202981038C0B2029000980028C7
:1061800014D0E6488047317AE07CC9004118E248E3
:10619000C28D008D5143E26B090910180818E04ABE
:1061A000012120669047DF49012088470298002896
:1061B00034D0D84A401E403AD063D6484168890757
:1061C000FCD5506B216A88403843D74F01993A6A11
:1061D0009047796A019888470746707A002804D06A
:1061E00008E0A88BC007C00FAFE701982021081A6C
:1061F00087403FBAF07B0009C0070FD0E069002854
:106200000CD0002007E026E13A46E169C2404B1C71
:10621000E3610A70083001998842F5DB0098002894
:106220000FD000210120FFF710FFC04913200862A2
:10623000BD48B84980780002801C40398861BC485C
:106240008047BC4880470190687E8006C00F02905E
:106250000198002865D1287EC10715D0AA8B410777
:106260005207890F920F91420ED16A8BB9B29142B7
:106270000AD101200390F07A00281AD0F07BC007E1
:106280004FD00020F07214E00399002903D0F07A77
:1062900000280ED045E0F17A002942D101210843BF
:1062A000F9210840A98B4907890F4900084328763E
:1062B0006F830098002834D09648072140388163C6
:1062C000B07B002802D0606DFFF76CFC994901207B
:1062D000D2398847B07B002801D0616D00E0216D84
:1062E0008D48944A8078383A9047207B0009C0074F
:1062F0000AD08D4FE07BFA6908219047796A08201F
:10630000884784494039086303988B4F002837D069
:10631000287E4009C00702D0606BB84700E000202B
:10632000A0617948E169001D01600399017101993B
:1063300041710121817102211120FFF74FFA0120E3
:106340007E49400408607E4908607C4980390860C5
:106350006D480027077037730098002837D0A7735F
:10636000297EC806800F6073A069002819D02022FA
:1063700011432976C188297072498847E06115E088
:1063800002980028CBD1287E4009C007C4D06A49B2
:10639000606B863188470028BED18B2000F0CEFC90
:1063A000BAE7DF20014029762F70E761207BEF26D6
:1063B000C106CD0F30402073634902988847207B87
:1063C00029013040084320731120216840E0FFF785
:1063D000FEFBA16C287EC870A16C688B0881F07AE6
:1063E000002806D05248983820810220A0727E20D2
:1063F00039E001980028207B07D08008C00707D12A
