:100000000040012011C4000039FB021039FB02102E
:1000100039FB021039FB021039FB021039FB0210C8
:1000200039FB021039FB021039FB021039FB0210B8
:1000300039FB021039FB021011FB02100846704711
:1000400070477047808A7047FEE77047704700012D
:10005000F2060001F315010001F00207D6BE898EF9
:100060002B52FF1983FF010CF1EF01970128097052
:10007000010100300E900203FF18641B2002785625
:1000800034120F33BAAB15B58FA10D43C5A70D635D
:10009000759B15C4060100A4210020C5A77161103D
:1000A000E118A101F50BF4611CC3283C25100125C2
:1000B0002627BC30040000D01300201A500225006F
:1000C00000F00C62D414F11601100369BA00008725
:1000D0000412890412BD04100351B900006F041208
:1000E000710412A7041003DDBC0000EF0412F10438
:1000F000100B0BBD0000B9910000339200003504D5
:10010000129B04100345AA0000570412590443939C
:10011000AA7A83D9B6821007D388F30083880F00A8
:10012000FF019302089A2201DEB00517727C1400C9
:10013000200318636509FAA3012C18A3001ED8C177
:10014000641011F700464488509C601A00A388018F
:10015000000200DF7D280C20020200F80C78A307C3
:100160003848100D21030F008000520798E0080066
:100170003F01E0801003640300800523C1886364AD
:10018000030EB20440500308B84E905511F403001A
:1001900010580000FCC3C2033062100E8138F10118
:1001A000C0400268500001C41217C4F20E02C420FD
:1001B00008A1000F3333004C02A0E8C4F31FA015C0
:1001C000C48388B80EF11DC4A101E1C4100B5D40C9
:1001D00001403111140883052029A38D300B03063B
:1001E00070F523060000A3840C0006DC1230DC123C
:1001F00004D432AFDC2918F105E04406C1170F0022
:1002000000056008A4F006016416002093030008AE
:10021000E0F60B93A4556DF113E050010010140F9C
:100220006002DE510B931AF109E0437EA4E0100353
:10023000E0EA230601E038030600B384058421D8F0
:1002400050019C601EE8F00C099F7D2053073AFC8A
:1002500050030014512323F02B9101945A5094F031
:1002600006014417002062039903F0FA5C6294616E
:10027000F0FD275C03FF7534185C03F90B9885B417
:100280005219E0F309AF7DDC400200015404DC3276
:10029000FCDCF7779905A440028305480ADC63B8C3
:1002A0007ADC9001B3840BE0F20E17E0234106E004
:1002B0005256E0FC0502D81900209803CC74034084
:1002C00002980367E610F173E02D54031001E387F1
:1002D000CEA49003250064403CF05E168403F20631
:1002E000BFF01BB104AC530158F02FB81A6404F1ED
:1002F00003F0F0026193033433F0C1C825B8F60B64
:100300008FB85F0259740323A81BC8FF1E99092CDC
:1003100005F148C8F91998F206CFE023810CE06591
:10032000A82B701C98FB0333079843CDCC10FDA07D
:1003300054045DE806FF07501D5404FE5A64E806A5
:100340003C0FF3002460202E630228012853000094
:10035000538AFFBC09900D2053C003A30253019898
:1003600060F825A060261492F10C4003A9079C6058
:100370001B10B218781101100517722C1E002044B2
:1003800004125804EF641EF809A36209BC4F7801F7
:10039000E80C3C015555552A0AB229502325E50E93
:1003A000EFB01EEC0AF302180001317EB205409056
:1003B000018CD1E43CFD304C0A240104A000C0FFB4
:1003C000112C1FF006B2014067181488C2021822CF
:1003D0008818F40100FFAABBD0FD35380A3F202859
:1003E000E405F122B0610EE1B0210EF111B0C95C5B
:1003F000500F1381200005200140B71DC10451009A
:1004000004C0FF01696CF91D64217B100517728817
:10041000200020B00412BC04EBC820647A9264ED82
:1004200018036D5D0C6590CD68033004000091D316
:1004300091D3E4FC03050018400000B70DD003077A
:10044000088080FE19FE0EFF850F1E9C380E8B9CC7
:10045000218C13D5C29C110D47FF006B12BC1C21CF
:100460000452C4049EC08A0B418510010100E018AB
:10047000F206E01C12FC18F206FC1C2002182200F6
:100480002004522004522804D003C011000008B7F1
:10049000211012481C210443A41004D60109300184
:1004A000A3DF0266127024210452780452800452A1
:1004B000880452900452980470013DC5029E298C14
:1004C000EDC10E43F0221312C808210452D0045289
:1004D000D80452E00452E80452F00452F8045300E5
:1004E0002304110161B062046440030200008855D6
:1004F0001C8339EC886101E5E9124C48210452540F
:1005000004525C04526404526C0452740421781A3C
:100510004FA8F001FFEF180001F11401A580F60EBD
:1005200001431003514B0000B104531B4B29000140
:1005300025020152000110074013002098220020DC
:100540000111C30100011250182104D2000153FF10
:100550007F1260016CDC021C12042852030DF004AF
:10056000018B9B0000D19B50210152C850A11CA1BE
:100570000CF3014C2370527C14200234110020042F
:10058000523C0412081583385E3012260C124404C3
:10059000F300485E4413200165F3017C5C5C250098
:1005A0000002001000000002C013000000028010D2
:0205B000002029
:1010000001000000000000000000000000000000DF
:10101000FFFFFFFF7022002004000000000000001E
:10102000000000001400000020C3000018000000B1
:1010300038C40000C0100000C421002004000000DB
:1010400000000000000000002400000008C30000B1
:1010500018000000B999000008000000B01100005D
:1010600074100000C1C8021001BB021091EB021005
:10107000DDE5021081E00210B9E5021071E5021011
:1010800030000000010000000200000040C4000029
:1010900000000000FFFFFFFF4822002004000000C6
:1010A00000000000000000002800000014C1000043
:1010B000240000001E0000001800000000000000D6
:1010C00028130000D41000009BEC021025E202104F
:1010D00005EB021025DE0210FDE10210E1E4021032
:1010E000350000003400000024002900000000004A
:1010F000A4210020FFFFFFFF902200200400000039
:10110000000000000000000038000000B0BF000038
:101110002800000001000000100000003022002024
:1011200000000000C9C1000000001A00100000000B
:101130000400000000C400004E0000000800000091
:1011400036000000502200209822002009001D00D7
:1011500043000000E8210020010000000000120010
:10116000FFFFFFFF802200200400000000000000BD
:10117000000000001000000038C30000180000004C
:101180000000000000001300FFFFFFFFF822002016
:1011900004000000000000000000000054000000F7
:1011A00070BD00003C0000000000010034000000A1
:1011B000041000004B0000002F000000E5B9000003
:1011C000B0110000D811000031BC0000D9DB0210C2
:1011D00059EC0210CDD6021085DE02104DE502104A
:1011E00029E502102F000000000016000200000098
:1011F00000000000FF7F000000230020FFFFFFFF32
:101200007822002004000000000000000000000020
:1012100058000000E8BD00003400000039FB021057
:101220000100350006000000000000002000000062
:10123000010000001BF80210280000002813000025
:101240005012000093EC02106DEB02104DEC0210F6
:1012500029E00210BDE4021099E4021034000000FD
:101260000000000020220020040000000000000018
:101270000000000010000000B4BE00002C000000C0
:10128000000000000000030000000F003C00000010
:1012900000000000000000002FF902101000000004
:1012A00008000000B0C30000FFFFFFFF88220020FD
:1012B0000400000000000000000000001C0000000E
:1012C00038C10000240000003C120000BC210020B6
:1012D0000400000000000000000000000C000000FE
:1012E000F0C20000180000004D00000001000000E6
:1012F00000000000080000000100000004000000E1
:1013000000000000000014000000000050C30000B6
:101310000000190000001800240000006DC4000047
:101320000040000000020000041000000000100057
:1013300055F002100C000000EF99000000000000C2
:101340009C210020040000000000000000000000BC
:101350002000000084BE00003000000068C30000D0
:10136000010000006D9B000049000000000000002B
:101370000000170000020000300000000000230001
:101380000000150001000000C0110000282200200C
:101390000400000000000000000000002000000029
:1013A000F0C000002400000080C3000030220020B4
:0E13B000200000005CC1000070471020704754
:1013C00031990000F79B0000FB9B0000FF9B000091
:1013D000039C0000079C00000B9C0000C9B80000A3
:1013E0001DBE00002DBD000051BE000099C20000CE
:1013F0000DBF0000D5C20000E1BE000099C300008F
:10140000EDC30000C19F000070B504460D4602F018
:10141000A2FF2968002631B10A69A24208BF0E4620
:1014200009680029F8D102F0B7FF304670BDDFF837
:10143000DC1691F833000022030604D4582010FB78
:1014400002F28818704791F88B0001220306F5D547
:1014500091F8E30002220306F0D591F83B01032244
:101460000306EBD591F8930104220306E6D591F823
:10147000EB0105220306E1D591F84302062203069B
:10148000DCD591F89B0207220306D7D500207047D0
:101490002DE97043064614461D4602F05CFF6EB10E
:1014A000D6E90A2322432B43C6E90A23D6E9088951
:1014B00048EA040449EA0505C6E90845BDE8704361
:1014C00002F06ABF30B581B004460D4602F08AFCD6
:1014D000A04231BF241A641E241A641CA40805F516
:1014E0007A70A04238BFB4F1405F06D2641B012C71
:1014F00098BF0124204601B030BD002001B030BDAE
:10150000F0B5DFF8083604460025D3F8500301296A
:1015100081B022D100E00068002844D0C668377B43
:1015200007F00F07022F18D0006800283BD0C668CC
:10153000377B07F00F07022F0FD0006898B3C668FB
:10154000377B07F00F07022F07D0006858B3C66833
:10155000377B07F00F07022FDDD120B3012502B141
:101560001060C268167B06F00F06022E1BD10269BE
:10157000012903D1D168128D891807E01169D68A33
:101580008E1993F82213192212FB0161406BFFF7A9
:1015900099FF206002F045FF2168B1FBF0F0206068
:1015A00001B02846F0BD0020206001B02846F0BD03
:1015B000F0B581B0044602F0CEFE0546002C1CBFFB
:1015C000A07A002833D0DFF8483594F909001E6866
:1015D0000122F70702FA00F10ED5DFF838351B6853
:1015E0001E0609D5DFF830355E68113002FA00F0CA
:1015F000C04306405E6018600020A0722072206028
:101600006060C4E90400DFF80435A06194F90900C2
:1016100093F820638240324393F8220383F8202317
:1016200010B1401E83F82203C8B200F062F92846C8
:1016300001B0BDE8F04002F0AFBE00002DE9F04778
:1016400000261124DFF8D054DFF8C0944FF00108D1
:10165000F0B2032848DA09EB401000F53077B97A88
:10166000012941D197F90900113008FA00F0C1436E
:1016700029606A681043686097F9090008FA00FA5F
:1016800002F069FE99F894134AEA010189F894136B
:1016900002F082FE99F88403022817D107F11000A6
:1016A00002F0E2FE00F0FF0001280FD1B86948B156
:1016B00099F88413022909D102F0D6FE00F0FF0048
:1016C000012803D10220B8720EE000BF99F821036F
:1016D00097F9091004FA01F1084389F82103002160
:1016E00009F2044002F09AFF761C032EB0D3BDE845
:1016F000F08730B5042881B020D1DFF8104404F21F
:10170000544002F093FEC8B102F08BFE054604F28D
:10171000544002F089FE4543B5F5967F0ED204F29F
:10172000544002F096FE052003F0C6F8012084F82C
:101730009103042104F56D7002F070FF002001B0E8
:1017400030BD70B5044602F006FEDFF8C063054602
:1017500096F84C0320EA040486F84C430024D6F89B
:10176000280320B1B03002F061FE00B10124D6F8A8
:101770002C0320B1B03002F059FE044319D196F881
:101780004C03002808BF002C13D1D6F8480380B1C1
:1017900090F824108A070CD5046A284602F0FCFD54
:1017A000D6F8480300220221A0470020C6F84803CB
:1017B00070BD2846BDE8704002F0EEBDF0B40029CF
:1017C0000CBF01230023002A0CBF0125002500289F
:1017D00039D02C0004BF90F84440002C33D00029AD
:1017E0001CBF91F84440002C12D0446B0E6C07696A
:1017F0000969A408A4EB96040026B94218BFFE6844
:10180000A41B04F18054B4F1805F88BF012301D888
:10181000190018D0BAB1D1680C7B04F00F04022C67
:1018200011D1516B046C126900698908A1EB940114
:101830000024904218BFD468091B01F18051B1F116
:10184000805F88BF012503EA0500F0BC7047F0B552
:1018500081B01E466FF002078DF8007005463468AF
:101860002246FFF7ABFF10B101208DF800009DF973
:101870000000B84201BFE968087B00F00F000228B1
:101880000CD100E024684CB1226821462846FFF7BD
:1018900095FF0028F6D002208DF800009DF9001079
:1018A000B94204D1E86B10B104218DF800109DF904
:1018B0000070012F06D12946304603F07AFA3846E7
:1018C00001B0F0BD022F09D12268002A2946304616
:1018D00008D003F046FA384601B0F0BD042F03D11A
:1018E0002946304603F050FA384601B0F0BD0020DA
:1018F000704730B581B0044602F02DFD054683489F
:1019000090F8941321EA040480F8944390F8942307
:10191000110704D4082100F56D7002F07FFE2846FF
:1019200001B0BDE8304002F037BD2DE9F04FDFF8DF
:10193000ECAB81B09AF88413022905D101B0BDE85F
:10194000F04F192002F00BBD9AF8840301281CBF48
:101950009AF8840304287BD002F0FDFC0090002656
:10196000DAF850030024C0B1C1680A7B012402F0F8
:101970000F02022A11D101690A69C98A9AF8223331
:10198000406B5118192212FB0311FFF79BFD05460E
:1019900002F047FDB5FBF0F800E0B04600254FF03F
:1019A000FF390027F8B203281EDA0AEB401101F5CF
:1019B0003072907AC0B1107A012502281DD0DAF871
:1019C00098030169C08A9AF822330918192010FB7C
:1019D00003115069FFF776FD834602F022FDBBFB41
:1019E000F0F0484598BF81467F1C022FDAD92C427F
:1019F00005D046464E4507D905E0B146F7E70CB19C
:101A0000464601E005B14E462C4317D066B1012E83
:101A100098BF012631460AF2544002F016FD0AF240
:101A2000544002F014FD0DE00AF2544002F011FDA2
:101A300004210AF56D7002F0F1FD03E00AF2544052
:101A400002F007FD009801B0BDE8F04F02F0A4BC21
:101A500001B0BDE8F08F30B585B001460022039299
:101A600001920492029240F602058C68487D6280E1
:101A700023885B1B09D041F21E055B1B05D041F694
:101A8000E6755B1B012B0FD91CE0238A4FF6FF3252
:101A900013402382002819BF4FF60F4003402D202A
:101AA00060F3091323820DE0238B4FF6FF321340BE
:101AB0002383002819BF4FF60F4003402D2060F309
:101AC000091323830020487502AD009504AB01AAD9
:101AD00003A9204601F0A3FE50B1039801884FF6F8
:101AE000FF72914204D10299019801F00AFE03E0CD
:101AF0000299019801F04BFEDFF8200AD0F8AC13F0
:101B000009B10198884705B030BD000020090020C8
:101B10004021084000000440081004402DE9F0472F
:101B200084B00025DFF8F4890395D8F85063029556
:101B3000002E64D0D8F86403002804BFD8F86003EE
:101B4000002840D1012585F0010903AA494602A8D1
:101B5000FFF7D6FC040054D1DFF8C4094768002F12
:101B600018BF002C00F005830298002840F0018384
:101B7000D8F8641303980190CDF8009008F55673D7
:101B8000D8F8600308F55472B847012800F0C48102
:101B9000022840F0EE82D8F86003D8F86013B0F95C
:101BA00030400D6902F0D7FB4FF0FF318C420190BD
:101BB00047D1D8F86003002837D00069A84234D153
:101BC000D8F8606393E0D8F860030028BBD0D8F859
:101BD0006003016930698142B5D196F83310C806B7
:101BE000B1D50125D8F86003C16848880028F9D02C
:101BF000D8F86003C16848880128F3D0A3E7022120
:101C00003FE3002DA8D102980028A5D00146022963
:101C100038BF012108F2544002F017FC08F254408A
:101C200002F015FC04B0BDE8F087D8F8640328B1D1
:101C30000069A84208BFD8F8646358D0D8F8506348
:101C400055E0B8F930000021A04202BFD8F81030AA
:101C50000093AB4246D0B8F988000121A04202BFF0
:101C6000D8F868300093AB423CD0B8F9E0000221CC
:101C7000A04202BFD8F8C0300093AB4232D0B8F9CE
:101C800038010321A04202BFD8F818310093AB42BB
:101C900028D0B8F990010421A04202BFD8F87031D1
:101CA0000093AB421ED0B8F9E8010521A04202BF63
:101CB000D8F8C8310093AB4214D0B8F940020621DD
:101CC000A04202BFD8F820320093AB420AD0B8F944
:101CD00098020721A04202BFD8F878220092AA42B7
:101CE00040F01881582010FB01F108EB0106002E8E
:101CF00000F0108196F83300010640F10B81D8F80E
:101D0000600386421CBFD8F864138E426AD0D8F8AC
:101D100050434FF0000A00E02468002C00F0FA80E5
:101D2000B44211D02468002C00F0F480B4420BD0EF
:101D30002468002C00F0EE80B44205D02468002C0A
:101D400000F0E880B442E7D120692768A84234D186
:101D500002F001FBD4E90A2343F08051C4E90A21CF
:101D60000AF1010AD4E9082343F08051C4E90821AB
:101D700002F012FB02F0EFFAD4E90A2343F080717B
:101D8000C4E90A21D4E9082343F08071C4E9082199
:101D900002F002FB98F84C133069C8F8480341F090
:101DA000010188F84C1308F55470214603F016F829
:101DB000214608F5567002F0E7FF3C00C4D1BAF1A5
:101DC000000F1FBF98F88403012898F884030428A3
:101DD00000F0A080DFF82C1908F56D7002F01EFCF1
:101DE0000198F1E1D8F8600300224FF00053FFF7AB
:101DF0004FFBD8F8640300224FF00053FFF748FB75
:101E0000DFF8A80902F030FBD8F8604302F0A3FA2B
:101E10005CB1D4E90A2343F08071C4E90A21D4E912
:101E2000082343F08071C4E9082102F0B5FAD8F81C
:101E3000644302F090FA5CB1D4E90A2343F0807164
:101E4000C4E90A21D4E9082343F08071C4E90821D8
:101E500002F0A2FA98F84C133069D8F85063C8F829
:101E6000480341F0010188F84C13344600E024682F
:101E7000002C4FD0B4420ED02468002C4AD0B4427B
:101E800009D02468002C45D0B44204D02468002C2A
:101E900040D0B442EBD1002C3CD020692768A84246
:101EA00036D102F058FA0246D4E90A0141F08053D3
:101EB000C4E90A03D4E9080141F08053C4E90803E6
:101EC000104602F069FA02F046FA0246D4E90A0125
:101ED00041F08073C4E90A03D4E9080141F080733A
:101EE000C4E90803104602F057FA98F84C13306919
:101EF000C8F8480341F0010188F84C1308F5547004
:101F0000214602F06BFF214608F5567002F03CFFB7
:101F10003C00C2D1019857E1039800B10646B6F9DA
:101F20003040356902F017FA4FF0FF318C42074616
:101F300014D1D8F8600328B10069A84208BFD8F8C6
:101F4000606361D0D8F8640328B10069A84208BF73
:101F5000D8F8646358D0D8F8506355E0B8F9300029
:101F60000021A04202BFD8F810300093AB4246D007
:101F7000B8F988000121A04202BFD8F86830009368
:101F8000AB423CD0B8F9E0000221A04202BFD8F831
:101F9000C0300093AB4232D0B8F938010321A042DF
:101FA00002BFD8F818310093AB4228D0B8F990019D
:101FB0000421A04202BFD8F870310093AB421ED07A
:101FC000B8F9E8010521A04202BFD8F8C831009352
:101FD000AB4214D0B8F940020621A04202BFD8F8A3
:101FE00020320093AB420AD0B8F998020721A042F0
:101FF00002BFD8F878220092AA4240F0B880582058
:1020000010FB01F108EB0106002E00F0B08096F8FD
:102010003300010640F1AB80D8F8600386421CBF54
:10202000D8F864138E4261D0D8F8504300E0246899
:10203000002C00F09C80B44211D02468002C00F0E9
:102040009680B4420BD02468002C00F09080B442FB
:1020500005D02468002C00F08A80B442E7D12069C2
:10206000A84240F0848002F076F9D4E90A2343F0D4
:102070008051C4E90A21D4E9082343F08051C4E91E
:10208000082102F089F902F066F9D4E90A2343F045
:102090008071C4E90A21D4E9082343F08071C4E9BE
:1020A000082102F079F998F84C133069C8F8480310
:1020B00041F0010188F84C1308F55470214602F0F4
:1020C0008DFE214608F5567002F05EFE98F88403F6
:1020D00001281CBF98F88403042848D0DFF8241690
:1020E00008F56D7002F09AFA38466DE0D8F8600392
:1020F00000224FF00053FFF7CBF9D8F86403002219
:102100004FF00053FFF7C4F9DFF8A00602F0ACF976
:10211000D8F8604302F01FF95CB1D4E90A2343F018
:102120008071C4E90A21D4E9082343F08071C4E92D
:10213000082102F031F9D8F8644302F00CF95CB1DF
:10214000D4E90A2343F08071C4E90A21D4E90823C1
:1021500043F08071C4E9082102F01EF998F84C138D
:102160003069C8F8480341F0010188F84C1338463B
:102170002AE0002D00F089803069D8F89813884251
:1021800018BF4FF480617CD1002C1CBF029800283E
:102190001FD0D8F86003002804BFD8F864030028D3
:1021A00017D102F0D8F8044698F8940300F0F7002D
:1021B00088F8940398F89403010704D4082108F5DB
:1021C0006D7002F02BFA204602F0E6F804B0BDE88C
:1021D000F08702F0C0F898F8941341F0080188F8ED
:1021E000941302F0D9F896F83300C10608F554703C
:1021F00004D502F0A2FDC8F8640303E002F09DFDDF
:10220000C8F86003D6E90601DFF86048C043A06063
:10221000E268D6E906010243E260D6E90623DB4321
:1022200023606768D6E906010F436760DFF8C0796D
:102230007D68F4682B46180007D0387A010704D56A
:10224000D8F89803324608219847204602F00CF946
:10225000208840F60201401A08D041F21E01401ABF
:1022600004D041F6E671401A012808D83DB1387A09
:10227000C10704D5D8F8980322460121A8474FF09A
:10228000804108F56D7002F0C9F904B0BDE8F0872F
:102290002DE9F04FDFF88492DFF8580981B0D9F8C2
:1022A000608302F060F90646DFF8AC09046807684D
:1022B00004F02004344018BFB8F1000F07F4602781
:1022C00016D0C9F8688302F046F8D8E90A232343F8
:1022D000C8E90A23D8E908AB4BEA0405C8E908A510
:1022E00002F05AF84FF4804109F56D7002F096F94A
:1022F0003E400DD099F8211341EA564089F8210358
:1023000001B009F20440BDE8F04F002102F086B9A7
:1023100001B0BDE8F08F2DE9F043DFF8009281B005
:1023200099F82103002400284CD099F821030026B5
:10233000C1073DD599F821031021B140084218BFCB
:10234000012402F008F899F821131122B2409143B8
:1023500089F8211302F020F8032E33DA09EB461135
:1023600001F53072907A68B392F90980DFF8EC18C1
:1023700001EB8801002C0D681668576804BF107ABD
:10238000022803D1D2E90401C30009D41046FFF7A3
:102390000FF92CB10020009000224FF0007303E0F1
:1023A000009500224FF0006341463046B84709E0EF
:1023B00099F8210301268107BCD499F8210302264C
:1023C0004107B7D499F8210338B109F2044001B0AC
:1023D000BDE8F043002102F021B901B0BDE8F0836F
:1023E0002DE9F0430FF23C1285B0D2E90034CDE97B
:1023F00000344FF4804002F031F84FF00008F0B1A3
:10240000DFF85C08D0F813100078C1F315018008DC
:1024100041EAC0714148D0F89833986802AA01F0A7
:10242000A5FA3E48DFF8C817D0F898034B688268D1
:102430001C0004D00C7AE10744BF012198476E4686
:102440004FF0020937683868002855D03868D0E95D
:10245000060102F003F83D680021CDE902010446BF
:1024600001F079FF84467DB1D5E90A23DDE9020157
:1024700010431943C5E90A01D5E90823DDE9020142
:1024800010431943C5E90801604601F085FF14F0C7
:102490000A0F2AD03868DFF8C017DFF8C8378A6813
:1024A000DFF8B447D0E9060118408243A2603868DB
:1024B0002368D0E906018B4323603A68DFF83007D0
:1024C0004368190007D0017AC80604D5134CD4F824
:1024D0009803102198473968DFF88C0702F054FC04
:1024E0000020386048F0020806E02CB138680B493B
:1024F000C1F8680348F48048361DB9F10109A1D13B
:102500005FEA08011CBFDFF8640702F087F8FFF7F5
:1025100095F8FFF703FB05B0BDE8F0832009002024
:1025200080230020800C0020840C002030B5DFF8D0
:10253000404781B0B4F96C03B4F96E13884217D1E7
:1025400001F009FF054694F8940300F0F70084F8C1
:10255000940394F89403010704D4082104F56D70E2
:1025600002F05CF8284601B0BDE8304001F014BF2D
:1025700001B030BD0720FFF7E4B82DE9F041074670
:1025800082B0D7F8A060884614461D4606B1B04711
:10259000D7E926012040294008BF002800F08E809E
:1025A000DFF8CC56B5F930600024464502BF2A69F1
:1025B0000092BA4203D195F83320160663D4B5F9D8
:1025C00088600124464502BFAA6E0092BA4203D138
:1025D00095F88B20160656D4B5F9E06002244645DE
:1025E00002BFD5F8C0200092BA4203D195F8E3208B
:1025F000160648D4B5F938610324464502BFD5F81C
:1026000018210092BA4203D195F83B2116063AD41C
:10261000B5F990610424464502BFD5F870210092B7
:10262000BA4203D195F8932116062CD4B5F9E86186
:102630000524464502BFD5F8C8210092BA4203D10D
:1026400095F8EB2116061ED4B5F9406206244645DE
:1026500002BFD5F820220092BA4203D195F8432256
:10266000160610D4B5F998620724464502BFD5F87E
:1026700078220092BA4203D195F89B22160602D422
:10268000C7E92A0110E0582616FB04F4C7E92A011D
:102690002C44D4E9082322EA000023EA0101C4E91A
:1026A0000801D7F8A050A5600020C7F8A00002B02C
:1026B00007F14800BDE8F04102F0FABB02B0BDE806
:1026C000F081704700B581B001F0A6FFDFF8A025CA
:1026D0000146D2F89803D2F8882301B05DF804EBE4
:1026E0001047DFF88C050FF29552D0F8881391420D
:1026F00008BFFFF71AB9042100F56D7001F08EBF15
:10270000000000000200004030B581B04FF0FF3003
:1027100001F0A4FEDFF858550FF261510446D5F8D8
:102720008803884232D10022DFF8FC1B05F57A705D
:1027300001F017FE022085F88403D5F898138A6803
:1027400001F1300300E00246506890B198421EBF8C
:102750000246506800280CD098421EBF02465068BE
:10276000002806D098421FBF0246506800289842B1
:10277000E9D1507B10F00F0F02BF488E40F60901DF
:10278000884203D0FEF75AFFFFF7C8F9DFF86C0C58
:10279000044208D005F56D7001B0BDE830404FF03F
:1027A000005101F03BBF01B030BD00000100010449
:1027B00000B581B04FF0FF3001F050FE800708D522
:1027C00001B05DF804EB4FF40061DFF8A00401F004
:1027D00025BF01B000BD2DE9F041DFF89474D7F8B2
:1027E0005863002E00F0AB80F068082140F6040228
:1027F00040F6030301E04068491E68B1CCB25CB109
:1028000004889C4218BF9442F5D1316901F130022D
:102810001AC81AC21AC81AC2D6E90A450022C6E95D
:102820000A22B068D0B115F0E24310D024F00F02B4
:1028300035F0E24308BF002A05D0B6F93010306900
:10284000D6F808C0E04704F0000405F0E245B6F908
:10285000301030692246B4682B46A04701F07BFD5A
:102860000446B7F86E03401CC0F30B00A7F86E03D4
:102870006FF00201002086F83300318607F55670AC
:1028800002F05BFA204601F087FDB7F96E03B7F955
:102890006C13884253D1D7F89823D7F82863D7F818
:1028A0002C5392F8F4100024A046052001B1072013
:1028B000FEF747FF2EB196F8F40000B9346886F8A9
:1028C000F4803DB195F8F40008B9D5F800800020F7
:1028D00085F8F400444538BF4446E4B9B7F96C03C1
:1028E000B7F96E1388422AD101F035FD044697F8F6
:1028F000940300F0F70087F8940397F89403010716
:1029000004D4082107F56D7001F088FE2046BDE86B
:10291000F04101F041BD14F1010F10D001F081FD33
:10292000B4FBF0F1012998BF012107F5936001F094
:102930008CFD07F59360BDE8F04101F088BDBDE86E
:10294000F081CB4A92F884130020022904BFD2F808
:102950006013002903D1D2F8641301B90120704734
:1029600030B50D46A80781B0C14C12D5FFF733FF33
:10297000D4F8580340B145F0020104F56D7001B080
:10298000BDE8304001F04ABE01B0BDE83040FEF77E
:10299000CCBF680767D5012184F89613042001F0A5
:1029A0008BFFDFF85C0A01680A6B9047C4F89C0350
:1029B000D4F8500398B10569D4F89803002818BFDB
:1029C000A8420AD095F82400410704D52B6A0022BA
:1029D00004212846984701206875C4F89853D4F814
:1029E00098034168DFF81C0A0A780260022001F0AF
:1029F00063FF112001F075FF012084F884037C49F6
:102A0000887810B90E2001F06CFFD4F89803416863
:102A10008868002804BFC868002806D0DFF8A80C22
:102A2000DFF83C2C0021C16102600720DFF8601C48
:102A300008600021DFF8900C426941618269816180
:102A4000426942F0402242F0020242610FF221004C
:102A5000C4F888031A2001F080FC01B0BDE83040C2
:102A6000192001F07ABC01B030BD0000081004400C
:102A70002DE9F0430446880081B040F1B680DFF8CC
:102A8000F081D8F89803416848688E68CF680100E3
:102A900018BF80473000DFF8305C01D138000ED01D
:102AA000E8690028FCD00021E961300018BFB04778
:102AB000380018BFB847DFF8140C01F0D5FC00202F
:102AC000E86140F60A09DFF8081C2960A8F870934D
:102AD000A8F8720398F87C1301F0F00188F87C13D1
:102AE000C8F87403204698F87D1301F0F00141F016
:102AF000010188F87D13FEF7AEFFA668374640F661
:102B0000040140F6030200E00746786828B1038814
:102B10004B451CBF93428B42F6D17B7B08F55C7022
:102B2000786003F0F0037B73D8F85003D8B1C06825
:102B30000088904218BF884215D10021C8F89C1324
:102B4000E8690028FCD00021E9610FF2311298F801
:102B50009103C8F8882328B301F038FF0028FBD080
:102B600001F051FF2FE0208E0028E9D0002161867E
:102B7000616394F83D0094F83C1000F0F00040F0E0
:102B8000010084F83D0001F0F00184F83C1004F1EC
:102B90003000C8F8740398F87D1301F0F00188F84C
:102BA0007D13CDE733490A6813680120984701284F
:102BB00009D0787B00F0F00040F0010078730FF24C
:102BC0003900C8F888030021E9612E602A4843686B
:102BD00019000AD0007AC10707D5D8F89803324601
:102BE00001B0BDE8F0430121184701B0BDE8F08312
:102BF00020C4000020000E00DFF8D82A114200D1C6
:102C0000704710B51B490A681368012098470128CE
:102C10000DD1DFF8C40A0FF26501C0F88813002255
:102C2000DFF8A41ACA6100F55C70086010BD01F0FD
:102C3000F8FB3221B1FBF0F10129DFF89C4A98BF83
:102C4000012104F2544001F000FC04F25440BDE8BC
:102C5000104001F0FCBB00000C1004409430044014
:102C600085030021FDBFFFFF780C0020D40C00205D
:102C700020090020E001001020C400002DE9F04FE1
:102C8000044688465FEA484083B0DFF84C9A2CD56A
:102C900001F061FBD9F8686316B3D6E90A2302F0A4
:102CA0000A0413F0E04508BF002C19D1D6E90A4503
:102CB000D6E90A23A243AB43C6E90A2301F06CFB21
:102CC000B06878B1002D08BF002C0BD0B6F93010D9
:102CD00030692246B4682B46A04728F4804815E3A3
:102CE00001F05AFB28F4804810E35FEA880040F1C5
:102CF0008280DFF8E809D0F88C1041F08001C0F83C
:102D00008C1099F8960328B1042001F06AFD002088
:102D100089F8960301F01FFBDFF8E4A6DAF85410F7
:102D20000A6805460420904700281CBF207D002823
:102D30001FD0D9F89C03E0B10746DAF800002669F5
:102D4000016B8847874231BFC71B401EC71B7F1CD2
:102D50003F0BB742276102D2F6197608266140F68A
:102D600099012069A0F59670884224BF40F6C410EE
:102D70002061284601F010FBD9F898138A6801F108
:102D8000300300E00246506890B198421EBF0246F0
:102D9000506800280CD098421EBF02465068002898
:102DA00006D098421FBF0246506800289842E9D1D9
:102DB000507B10F00F0F02BF488E40F60902904280
:102DC0000FD1E56900224FF000736FF48071204647
:102DD000A847D9F8500310B1FEF7A7FD01E048F06D
:102DE00002082046A46900224FF080630021A0471A
:102DF00028F000588AE25FEA887009D5FFF7EBFCFB
:102E0000D9F85803002840F0818228F002087DE2BA
:102E10005FEA485040F1B48001F09DFA0546FFF7A3
:102E200090FDD9F85043012840F0A480002C00F018
:102E3000A180042089F884030022DFF8281B09F50B
:102E40007A7001F08EFA284601F0A6FA09F593602F
:102E500001F0FFFADFF8A80501680A6B9047C9F88E
:102E6000A003012089F89603042001F025FD2069C4
:102E7000C9F8980390F824104A0703D5036A002282
:102E800004219847D9F89803DFF83C5841688E68C8
:102E9000CF684868002E08BF002F04D00021E961E8
:102EA000DFF8BC272A6008B1C046C046002E08BF24
:102EB000002F0CD0E8690028FCD00021E96106B1A0
:102EC000B04707B1B847DFF8040801F0CDFAD9F8E8
:102ED00098030121417540F60A06FEF7BCFDD9F8BA
:102EE00098339A68114640F6040C40F6030E00E051
:102EF0000146486828B10788B7421CBF7745674537
:102F0000F6D1002048604E7B06F0F00646F0010640
:102F10004E73E0680088704518BF604503D10020FB
:102F2000C9F8A00315E0188E98B103F13000002411
:102F300044804460047B04F0F0040473447B04F098
:102F4000F00444F0010444734860487B00F0F00052
:102F500048730020E8612A60DFF80C0A4468210009
:102F60000BD0007AC10708D501211846A04728F4E4
:102F70008068CBE1284601F00FFA28F48068C5E1AB
:102F80005FEA085163D599F8960328B1042001F04F
:102F900028FC002089F89603D9F8984304F1080129
:102FA00004F130050B6800E00346586890B1A84270
:102FB0001EBF0346586800280CD0A8421EBF034617
:102FC0005868002806D0A8421FBF0346586800284A
:102FD000A842E9D1587B10F00F0F02BF488D40F690
:102FE0000902904207D12046E46900224FF00073A5
:102FF0006FF48071A047D9F8A00398B1DFF80014EE
:103000000868026B9047D9F8A013814231BF401A7B
:10301000401E401A401CD9F89813000BC8600020CD
:10302000C9F8A0030022C04909F57A7001F099F9A6
:10303000022189F88413D9F8580318B109F56D7085
:1030400001F0ECFAFEF771FC28F400685EE15FEA3B
:10305000087040F1548101F07EF90190FFF771FC96
:10306000002800F0448199F89403010700F13F81A2
:1030700099F89403010600F13A81D9F8500300242D
:103080000025C8B1C1680A7B012502F00F02022A9F
:1030900012D101690A69C98A99F82233406B511823
:1030A000192212FB0311FEF70DFA064601F0B9F9D9
:1030B000B6FBF0F1009100E0009400264FF0FF37DE
:1030C0004FEA040A5FFA8AF002281FDC09F5307122
:1030D00001EB4012907AC8B1107A0126022820D064
:1030E000D9F898030169C08A99F822330918192080
:1030F00010FB03115069FEF7E5F9834601F091F9E1
:10310000BBFBF0F0B84298BF074600BF0AF1010AC6
:10311000BAF1030FD6D3354205D0009CBC4207D983
:1031200005E00027F7E70DB1009C01E006B13C4641
:10313000354302D0002C00F0DA8099F821030028F2
:1031400040F0D58000260125F0B202281FDC09F5E9
:10315000307101EB4011887AC8B18D7291F9097014
:1031600001F0F9F8044699F8940305FA07F720EA04
:10317000070789F8947399F89413080704D4082171
:1031800009F56D7001F04AFA204601F005F9761C48
:10319000032ED9D3032089F8840309F5936001F045
:1031A00058F90198DFF8204501F0F6F86069002130
:1031B00061610022E068E16009F57A70DFF8201CA7
:1031C00001F0CFF88E4801680A6B9047D9F89C133C
:1031D000814231BF401A401E401A401CD9F88C135E
:1031E0004FF0FF32A2EB10328A4234BF4FF0FF3073
:1031F00001EB1030C9F88C0399F8900330B1D9F87D
:10320000A403D9F88C13C00288422FD2DFF8CC0473
:103210000268D10725D5DFF8300C0068010620D5FB
:1032200040F60900A9F870030021A9F8721399F873
:103230007D0300F0F00040F0010089F87D0399F86B
:103240007C0300F0F00089F87C03C9F87413E16195
:1032500009F55C71216000BFB9F8720310F4406F8A
:10326000FAD0002189F89053C9F88C1301F009F9BC
:10327000DFF81C14DFF8F0460020086063681800CF
:1032800007D0207A810704D5D9F8980300220221BB
:103290009847022001F0A5FA112001F0BBFA99F835
:1032A000950320B9D9F89803483001F001FEA078C1
:1032B00010B90E2001F0AEFA99F8910328B100215F
:1032C00089F89113052001F08CFADFF8580CC9F841
:1032D0008803002189F884130220B9F96E13B9F923
:1032E0006C23914208BF0720FEF72BFA02E00198F9
:1032F00001F052F8FEF719FB28F0080806E05FEA33
:10330000480003D5FEF711FB28F08048B8F1000F04
:1033100007D0414609F56D7003B0BDE8F04F01F0EC
:103320007DB903B0BDE8F08FE12300002DE9F54C35
:10333000DFF8A4A3DAF8504381B09B4600250E467F
:1033400000E02468002C55D0B4420ED02468002C34
:1033500050D0B44209D02468002C4BD0B44204D0E1
:103360002468002C46D0B442EBD1002C42D0206916
:1033700001992768884237D100F0EDFFD4E90A238C
:1033800043F08051C4E90A21D4E9082343F0805175
:10339000C4E9082101F000F8BBF1000F18D000F0DB
:1033A000DAFFD4E90A2343F08071C4E90A21D4E9A1
:1033B000082343F08071C4E9082100F0EDFF9AF87A
:1033C0004C133069CAF8480341F001018AF84C13E4
:1033D00021460AF5547001F001FD21460AF55670A8
:1033E00001F0D2FC15F101059DF80800002818BF76
:1033F0003C46BAD1284603B0BDE8F08C020000403C
:103400008C010010D02108402DE9F0479246032698
:10341000BAF1000F84B081461D4614BF4FF08047BB
:103420004FF000570C4600F096FF4FF0FF318C42F2
:103430000190DFF8A48256D1D8F86003002846D066
:103440000069484543D1D8F86043002C00F0018161
:1034500094F83300010640F1FB808DF800500C9E7B
:10346000D8F8600384421CBFD8F864138C4240F043
:10347000D880D8F8605300F06EFF84464DB1D5E98E
:103480000A013943C5E90A01D5E908233B43C5E9E7
:103490000823604600F080FFD8F8645300F05BFF1B
:1034A00084464DB1D5E90A013943C5E90A01D5E998
:1034B00008233B43C5E90823604600F06DFFBAF1DD
:1034C000000F14BFDFF8600ADFF8600A67E0D8F881
:1034D000640328B10069484508BFD8F86443B4D0F4
:1034E000D8F85043B1E7B8F930100020A14202BF2C
:1034F000D8F8103000934B4505D1582111FB00F04E
:1035000008EB0004A1E7B8F988100120A14202BF2E
:10351000D8F8683000934B45EFD0B8F9E01002209E
:10352000A14202BFD8F8C03000934B45E5D0B8F9AE
:1035300038110320A14202BFD8F8183100934B453F
:10354000DBD0B8F990110420A14202BFD8F8703145
:1035500000934B45D1D0B8F9E8110520A14202BF34
:10356000D8F8C83100934B45C7D0B8F940120620AF
:10357000A14202BFD8F8203200934B45BDD0B8F924
:1035800098120720A14202BFD8F8782200924A453B
:103590005FD1582111FB00F008EB000455E700F063
:1035A00063FF96B3D8F8605300F0D5FE02465DB1D4
:1035B000D5E90A0141F08073C5E90A03D5E908019C
:1035C00041F08073C5E90803104600F0E5FED8F825
:1035D000645300F0C0FE02465DB1D5E90A0141F036
:1035E0008073C5E90A03D5E9080141F08073C5E994
:1035F0000803104600F0D0FE98F84C132069C8F874
:10360000480341F0010188F84C139DF80000E8B12F
:103610000246D8F8501333464846FFF787FE832604
:1036200017E033462A4621464846FFF77FFE78B129
:1036300098F8840301281CBF98F88403042805D057
:10364000DFF8681A08F56D7000F0E8FF832600E0E7
:103650000426019800F0A0FE304604B0BDE8F087D3
:103660005100070610B50C461B4991F88423022A25
:103670000BD100F0F9FE04B1206000F0FF0001283A
:1036800001D1812010BD022010BD012010BD00001D
:1036900000000460F0B581B004460D46164600F007
:1036A0005AFE07460C48D0F898138C4218BF0324E2
:1036B00004D131462846FFF7D5FF0446384600F0CE
:1036C0006BFE204601B0F0BD00100440010007066B
:1036D00001010E04040000202009002040210840C0
:1036E00030B5144681B00546502340F2FF3200F059
:1036F000E5FE24B1014655F82110890A216001B088
:1037000030BD002942D00A0E202A08BF10221AD04C
:10371000212A08BF202216D0A02A08BF302212D0AA
:103720000AB940220FE0102A08BF50220BD0112AFC
:1037300008BF602207D0402A08BF702203D0502A59
:103740000CBF802290228901090A42EA012141F03E
:103750000F0100E0001D026812F1010F18BF8A423C
:103760001CBF50F8042F12F1010F0ED08A421CBF6B
:1037700050F8042F12F1010F07D08A421EBF50F8F3
:10378000042F12F1010F8A42E4D101607047002931
:1037900044D00A0E202A08BF10221AD0212A08BFBE
:1037A000202216D0A02A08BF302212D00AB9402207
:1037B0000FE0102A08BF50220BD0112A08BF602248
:1037C00007D0402A08BF702203D0502A0CBF8022A5
:1037D00090228901090A42EA012141F00F0100E02B
:1037E000001D026812F1010F18BF8A421CBF50F879
:1037F000042F12F1010F0ED08A421CBF50F8042F83
:1038000012F1010F07D08A421EBF50F8042F12F1A7
:10381000010F8A42E4D14FF0FF31016070472DE97A
:10382000F04381B00546089C0E461746994601F0C4
:1038300057FB0E2803D001F053FB0F2849D12888ED
:1038400040F6020188424FF0010860D0B0F5C15F38
:103850006AD043F60601884273D005F11A0232603D
:10386000E8693860A96AC9F80010E86A206095F82C
:1038700024702D7ED9F8000005F0070588B10523D6
:103880004FF6FF7240F2037100F018FE0646052E57
:1038900007DA2946384600F029FED9F8001041F829
:1038A0002600206878B305234FF6FF7240F20371BB
:1038B00000F004FE8146B9F1050F24DAFF213846F5
:1038C00000F014FE216841F82900404601B0BDE82F
:1038D000F083288840F60201884218BFB0F5C15F26
:1038E0004FF0000839D043F60601884207BF05F1C2
:1038F0001A00306005F11A023260E8693860C9F8D0
:103900000080C4F80080404601B0BDE8F08305F1B6
:103910001202326068693860A969C9F80010E86964
:103920002060EF7B2D7CA5E705F11200306069690E
:103930003960686AC9F80000A96A2160EF7B2D7CB4
:1039400098E705F11A003060E96939600027286AB4
:10395000C9F80000696A21608BE705F11200306048
:103960006869CBE7B127000020C400002DE9F041D1
:1039700086B015460C4600220292049203920192F0
:1039800001A9009103AB04AA02A9FFF748FF83260F
:10399000E20F30D130B3039800281CBF01980028F3
:1039A0001AD00298048040F22B28039F41463846E3
:1039B000FFF796FEFF281CBF48EA842147F8201035
:1039C00001990498FFF7E3FE1520288030460399FB
:1039D000696006B0BDE8F081029801884FF6FF7279
:1039E000914249D002980480102129806C80304691
:1039F00006B0BDE8F08100283ED0039800281CBF27
:103A0000019800281CD002984FF6FF710180002217
:103A1000019F2B213846FFF763FEFF2804D0A40244
:103A200044F02B0447F8204001990498FFF769FE01
:103A30001520288030460199696006B0BDE8F08104
:103A4000049F00222B213846FFF74AFEFF2804D0AE
:103A5000A10241F02B0147F82010FF280CD0029959
:103A60004FF6FF70088014222A80C4F315046C609E
:103A7000304606B0BDE8F0810326304606B0BDE80A
:103A8000F0812DE9F043DFF89C8789B00C001546E2
:103A9000D8F8081018BF002D1F4600F0F4802278D7
:103AA000D140CB0740F1EF80064600212846002098
:103AB000C046B560746000F04EFCDFF880960546A5
:103AC00099F89503022880F2DB80002840F0868078
:103AD00000F0B5FDDFF85007DFF85047016841F00E
:103AE00002010160DFF84807C8F80000684600F0EE
:103AF0005DFD6078DFF83C1702906A4609F56D704D
:103B000000F05CFD6A46DFF8301709F2044000F06F
:103B100055FD684600F038FC2078B14A01906B46AC
:103B2000192109F57A7000F0F3FB6B46DFF80C27DA
:103B30001A2109F5876000F0EBFB00230022DFF873
:103B4000001709F2544000F045FC00230022DFF882
:103B5000F41609F5936000F03DFCDFF8EC0601680F
:103B6000C1F3814038B10023DFF85427042109F262
:103B7000DC4000F020FEA078012804BF0E2000F0F9
:103B8000B0FE09F5567001F0CDF809F5547001F05A
:103B9000C9F8002089F88403C9F88C0300210720A4
:103BA00089F8901389F8911389F82003C9F89C13B8
:103BB00000200521C9F8A003C9F8A41389F89403CB
:103BC000D849C9F888136368180007D0207A4107DC
:103BD00004D5D9F8980300220421984799F8950351
:103BE00009EB8002401CC2F8286389F895033C4623
:103BF000284600F0D1FB3CB90FF2205191E8BC51AE
:103C0000684680E8BC516C46206830604FF4FA7119
:103C1000F160A06970620120218AF1827075E1690A
:103C2000F162606818B130610020307504E040F640
:103C3000C410012130613175DFF88806F06130620F
:103C4000B061E06800B1F061606900B13062A06805
:103C500000B1B061C82106F1300001F0A7F90021E0
:103C600006F1480001F002F900230022DFF858169F
:103C700006F1B00000F0AEFB304609B0BDE8F083BD
:103C8000284600F089FB002009B0BDE8F083F0B5BC
:103C9000DFF8A84494F89513002981B000F09E80C5
:103CA000B4F96C13B4F96E23914205461BD004F5A8
:103CB0005471FDF7A9FB68B9D4F8600328B1006915
:103CC000A84208BFD4F8600304D004F55671284612
:103CD000FDF79AFB38B1B0F930100A224FF0E043FB
:103CE000284600F025F900F036FB0646D4F82803F4
:103CF000854207BF0021C4F828130020C4F82C0314
:103D000094F89503401E84F89503C0B2002850D162
:103D1000C4F8985394F88403022820D100F01BFBC8
:103D2000074694F8940300F0F70084F8940394F89D
:103D30009403010704D4082104F56D7000F06EFCB3
:103D4000384600F029FB304600F026FB4FF0FF31EB
:103D500005F1480001F0A1F800F0FDFA064604F56F
:103D60006D7000F055FC04F57A7000F0F2FA04F280
:103D7000044000F04DFC04F5876000F0EAFA04F21C
:103D8000544000F04AFB04F5936000F046FBD4F881
:103D9000B01311B104F59E60884704F2DC4000F0D6
:103DA000F2FDDFF888048178012904BF0E2000F0BD
:103DB00031FDD4F89803A84204BF0021C4F8981339
:103DC000304600F0E9FA05F1480001F064F805F129
:103DD000B00001B0BDE8F04000F01FBB01B0F0BD85
:103DE000092700002DE9F04D00F0B5FADFF84C434B
:103DF00094F8841302291CBF94F88413042907D172
:103E0000DFF8C824146800F0C7FA2046BDE8F08D3A
:103E100000F0C2FADFF8B804DFF8B88401680A6B72
:103E2000904710F5003641F1000AD4F88013A8FB42
:103E3000067B002008FB0ABB3C184BEB01052C4617
:103E40002046BDE8F08D0000000004402DE9F04F51
:103E500081B005460F4693469A4600F07CFA8146AB
:103E6000FDF7E5FA04006FF0010654D00095DDE996
:103E70000A68DFF8C85205F5936000F0EAFAB5F871
:103E80006C03DFF85424401CC0F30B00A5F86C034E
:103E9000E76084F832B0C4F808A02023B5F86C03BA
:103EA000208632400099216108EA030342F00206AD
:103EB000C4E9066300200021C4E90801802284F8D7
:103EC00033202064606384F8441084F838104FF085
:103ED000FF30A164E16484F8501084F85110E0636D
:103EE000397B01F00F01022904D1012084F8380048
:103EF000B96861630020009981F8F400214605F556
:103F0000547000F041FFD5F85003A04208BFFDF700
:103F10000CFDB4F93060484600F03EFA304601B07E
:103F2000BDE8F08F612900000100020401000104D6
:103F3000F0B506460F46380081B014461D4603D53D
:103F40000020002101B0F0BD00F064FBDFF8EC219F
:103F5000B2F930300021BB4202BF13690093B34273
:103F600003D192F833301B0660D4B2F988300121B6
:103F7000BB4202BF936E0093B34203D192F88B30E1
:103F80001B0653D4B2F9E0300221BB4202BFD2F883
:103F9000C0300093B34203D192F8E3301B0645D4FE
:103FA000B2F938310321BB4202BFD2F81831009375
:103FB000B34203D192F83B311B0637D4B2F99031AA
:103FC0000421BB4202BFD2F870310093B34203D147
:103FD00092F893311B0629D4B2F9E8310521BB428E
:103FE00002BFD2F8C8310093B34203D192F8EB314B
:103FF0001B061BD4B2F940320621BB4202BFD2F8E5
:1040000020320093B34203D192F843321B060DD401
:10401000B2F998320721BB4202BFD2F878720097FA
:10402000B7420BD192F89B723B0607D5582313FB7E
:1040300001F1571897F833100A0605D400F0F0FA8A
:104040000220002101B0F0BDD7E9082344F00A04A2
:1040500045F0E04522402B4008BF002A0ED000F07A
:10406000DFFAD7E9080120402940C6E92A01D7E94B
:10407000082382438B43C7E9082312E0BA68DFF8BC
:104080005C128A4203D0BA68C6F8A020B960C6E9BB
:10409000264500F0C5FA4FF0FF3106F1480000F068
:1040A000FCFED6E92A0101B0F0BD0000020000408C
:1040B000D0B582B00446DDE90667CDE90067FFF7B9
:1040C000C5FE0146204602B0BDE8D0400A224FF0AE
:1040D000E0432DE700B581B0930803F0010300939E
:1040E000530803F0010302F00102FFF78DF901B05C
:1040F00000BD00B581B0930803F00103009302F006
:1041000001020123FFF780F901B000BDF0B500BF47
:1041100002A191E8FC5080E8FC50F0BDFFFFFFFFDA
:104120000000000000000000000000003A013A0119
:104130000000000000000000000000002009002036
:104140002DE9F04B0E4682B096F904803468834620
:10415000174600F000F9DFF8882192F8201300904C
:104160006FF001094FF0000C5FF0010303FA0CFE41
:1041700011EA0E0F50D04FF0FF35A84518BFE045AB
:104180004AD15FFA8CF0032846DA02EB401505F5B8
:104190003075A87A00283FD121EA0E0082F820036A
:1041A000AB7285F809C00A2192F82203401C82F8FC
:1041B0002203C5F800B02B720023424868602982B0
:1041C00095F90900401DA874B06868617FB13B781B
:1041D00078785B0143EA800395F90900401D43EAC2
:1041E00000234FF6FC710B40DFF8F8000343AB618E
:1041F00004B16C60D2F8980310B92968C2F898131A
:10420000FDF793FB95F90990009800F0C5F8484632
:1042100002B0BDE8F08B00BF0CF1010CBCF1030F44
:10422000A4D3F1E7CC2108400020094020C40000BD
:10423000110000E0C52600001723000091220000B5
:10424000E32600002D250000B44F0050F0B581B0EA
:1042500006460F46802400F07EF8FFB2032F054685
:1042600027DADFF87C3003EB471101F53077B87AB5
:10427000F8B13968B1421CD193F88403022812D1F5
:1042800097F90910D3F89803491D0906090C41F064
:104290008161002241F00101FFF7FCF90446384634
:1042A000FDF786F905E03846FDF782F9FDF73DFB9D
:1042B0008124284600F070F8204601B0F0BD0000CF
:1042C000F3160000C32600007525000004300440EA
:1042D0008C01001000093D00FFEFFF9F7B250000CF
:1042E0002009002001000406DFF800F055EB021061
:1042F000DFF800F047EC0210DFF800F049EB0210A5
:10430000DFF800F075E40210DFF800F01DD90210AC
:10431000F0B51C008DB005460E46174604D10023AB
:1043200000F04CFE0DB0F0BD08233022002168469D
:10433000FFF7E2FF206805906B46606808903A46F8
:10434000207AADF818003146284600F037FE0DB04F
:10435000F0BDFFF7D5BFFFF7C7BFFFF7D5BF00F030
:104360004DBEF0B581B004460D461646FFF7BCFFC2
:10437000074632462946204681604260384601B0F1
:10438000BDE8F040FFF7B4BF002101604FF0FF32FD
:104390000123426003727047FFF7AABFDFF800F005
:1043A0008DDD0210DFF800F09DEB0210DFF800F069
:1043B00049E60210DFF800F0FDE90210DFF800F036
:1043C000C3EC0210DFF800F0E7E90210DFF800F0BC
:1043D000C5E20210F0B51C0089B005460E4617462E
:1043E00005D10023FFF7DAFF284609B0F0BD082306
:1043F000242200216846FFF7D5FFA16806916B468D
:104400002278ADF810203A4660680590314628467B
:10441000FFF7C4FF284609B0F0BDFFF7C7BFFFF79D
:10442000C9BF0D480068704700F0F6BD00B581B007
:10443000FBF708FE401E8041C043C00F01B000BD25
:1044400000218160017041607047FFF7B7BFFFF73F
:10445000B9BFFFF7BBBF00005CC4000045490A6854
:104460001040C2430A607047434A11680029FCD1DA
:104470000023D3611060D0690028FCD0D16150685E
:1044800070473E48016821F0020141F40871016063
:1044900003213B48016041F23002C26001234360C6
:1044A0005021C16043604FF4CA61C16043604FF462
:1044B0008651C160436033490B60704770B4044655
:1044C000002000E0401C98420BDA256815F1010F2E
:1044D00007D054F8046B16408E42F3D170BCC0B2C2
:1044E000704770BCFF207047000000001E281DD8D8
:1044F000DFE800F0101C131C1619161C1C1C191CDC
:10450000161C1C191C1C1C1C1C1C1C1C1C1C1C1CF4
:104510001C1C190040F2025209E04FF4817206E0BF
:104520004FF2011203E041F2011200E00022FF29E4
:1045300009D14FF6FF30024042F0C00240F2037052
:1045400040EA02407047080008BF42F0300205D040
:10455000C8074CBF42F0100242F0200240F2037044
:1045600040EA0240704708490A681040C2430A60A6
:104570007047000010100440001004400000046068
:10458000546004400041044008100440DFF800F08B
:1045900025EA0210DFF800F061DB0210DFF800F01E
:1045A000F1EB0210DFF800F0BDE80210002101601D
:1045B0004160C1604FF0FF318160704770B51400F9
:1045C0008AB005460E4604D1002200F043FD0AB031
:1045D00070BD1449A0680A68904204D310F1010F1D
:1045E00018BF002012D10823282200216846FFF7B7
:1045F000D5FF206804906A46606805903146E068FF
:104600000790A0680690284600F024FD0AB070BD0F
:10461000FFF7C8BFFFF7BABF00F028BD00F030BDFC
:10462000FFF7B8BF24120000DFF8B81691F8410177
:1046300020B1D1F86C01002818BF004770472DE960
:10464000F041DFF8A04694F84201002884B040F021
:10465000AE800121DFF89066DFF8905684F84211B1
:10466000307B84F841017168C4F86C11A868C0F30C
:104670008140B8B93069A8B12F68FFF7D2FEC7F3FF
:104680000662642111FB02F2B2FBF0F200230FF28A
:104690003D6104F19400FFF79DFEDFF854164FF0E2
:1046A0000040086001A8FFF7CBFE002002908DF8C3
:1046B00004000022039201AB0FF25D41DFF8347673
:1046C00004F10C00FFF786FE01A8FFF7B9FE0020F9
:1046D00002908DF80400039001AB0822DFF8181651
:1046E00004F15000FFF776FE00230FF27132322101
:1046F00004F1D800FFF70CFE002038600023DFF83B
:10470000FC252C2104F1F400FFF702FEDFF8F00590
:104710000178A968707BC1F3815128B1032903D1C5
:10472000012084F8390121E0032918BF02291DD096
:1047300001291AD1DFF8CC65DFF8CC750320009091
:104740001C23D6F800C0DCF804804FF04052002152
:104750003846C047012000903846366877680923FC
:104760004FF400720021B84711E081B9386840F079
:1047700040003860FFF7EFFDA16841F00401A1603F
:1047800094F84511491C84F84511FFF705FE686847
:1047900040070CD4FFF7DFFDA16841F00101A160E3
:1047A00094F84311491C84F84311FFF7F5FD0020EC
:1047B00004B0BDE8F08130B581B0002408B1150027
:1047C00004D16FF00204204601B030BD8160C260A8
:1047D00003610146DFF80C0500F0D6FA204601B06F
:1047E00030BD10B50446FFF7B6FDDFF8F8140A191E
:1047F00092F843315B1E82F84331DBB233B98A68E9
:10480000012303FA04F422EA04048C60FFF7C4FDD8
:10481000002010BDF0B581B00546FFF79CFD0446B1
:10482000DFF8C014481990F84A21521E80F84A2136
:10483000D2B232BBDFF8D40400EB850210F8255069
:104840005688280623D5DFF8C87439680A6A3046C6
:10485000904739688A6A3046904739680A6B304613
:104860009047DFF8B01401200860DFF8AC0401685D
:104870008907FCD505F03F05152DBCBF2846FFF77D
:10488000C9FF2046FFF788FD002001B0F0BD680693
:1048900006D501EB86010020D1F860219047E9E7B9
:1048A000DFF86C140B689A6930469047304600F088
:1048B000F7FB0228FAD1DDE710B50446FFF74BFD00
:1048C000DFF820148A680123A3401A438A60214438
:1048D00091F84321521C81F84321FFF75DFD002030
:1048E00010BD2DE9F0410646FFF735FD0446DFF81F
:1048F000F453A81990F84A114A1C80F84A2139BB90
:10490000DFF8088418F8260000F03F001428D8BF0C
:10491000FFF7E7FF08EB8600478818F82600010636
:104920001CD5DFF8EC532A68D169384688472A68D5
:10493000516A384688472A68D16A38468847DFF87E
:10494000D42301201060DFF8D00301688907FCD56B
:104950002046FFF721FD0020BDE8F081400606D586
:1049600005EB87010120D1F860219047F0E7DFF8DF
:10497000A0130B685A6938469047384600F0ADFBE3
:104980000128FAD1E4E730B581B00446FFF7E3FC33
:1049900005462146DFF84C0300F020FA284601B016
:1049A000BDE83040FFF7F8BC10B50024022802D063
:1049B000032805D008E000F0AFFB0446204610BDF8
:1049C00000F034FD204610BDFEE70000F0B581B0D8
:1049D000FFF7C1FCC349054691F83801012460B1D5
:1049E000DFF82063DFF820033768D7F80CC0002316
:1049F00001223C21E04700B900242846FFF7CCFC07
:104A0000204601B0F0BD30B581B0FFF7A4FC0446EC
:104A100000F01FFEB34D002085F83801FFF79BFC26
:104A200095F84611491E85F84611C9B219B9A96809
:104A300021F00801A960FFF7AFFC2046FFF7ACFCAE
:104A4000A94884680220A0470546102000F067F8B6
:104A5000012D04BF0320A04701B030BD2DE9F04176
:104A6000A44C82B06568206820EA050105406A060A
:104A7000216049D5A34EF16B0A68042090470228B3
:104A800018BF032819D001283ED1032000901C2311
:104A9000D6F800C09C4FDCF804804FF04052002153
:104AA0003846C047012000903846366877680923A9
:104AB0004FF400720021B84726E0032000901C2329
:104AC000D6F800C0904FDCF804804FF0405200212F
:104AD0003846C04701200090384636687768092379
:104AE0004FF400720021B847FFF735FC7D4991F87B
:104AF0004521521E81F84521D2B21AB98A6822F0A6
:104B000004028A60FFF748FC280648BF00F022F83C
:104B1000A56002B0BDE8F08170470020704730B555
:104B200005467048046881B05CB1A068284205D091
:104B30002269E36800212846984728B92468002C98
:104B4000F3D1002001B030BD4FF0FF3001B030BDD7
:104B50000020704730B581B0FFF7FDFB4FEA00043D
:104B600000F077FD0028FBD0FFF7F5FB5D4D95F8D1
:104B70004611491E85F84611C9B219B9A96821F034
:104B80000801A960FFF708FC002085F838012046DD
:104B9000FFF702FC544884680220A0470546102015
:104BA000FFF7BDFF012D04BF0320A04701B030BDBA
:104BB00070B501284CD15A490A68136898470128F2
:104BC00000F08180474D95F8380100287BD1474E91
:104BD000B068C0F38140B0B9434804699CB1306803
:104BE0004E49C00F19BF4FF4405008604FF4805237
:104BF0000A60502000F0DCFD0120A04705F1940080
:104C0000FFF725FC01E000F015FD012085F83801D3
:104C1000B068C0F3814010B93349086948B9287AAF
:104C2000810606D4334880228260016841F0800109
:104C30000160FFF790FBA96841F00801A96095F8B1
:104C40004611491C85F84611FFF7A6FB002070BDF0
:104C5000002838D100F028FD244E224DB068C0F362
:104C60008140A0B9204804698CB105F19400FFF798
:104C7000F0FB30682949C00F19BF4FF44150C1F80B
:104C800080004FF48252C1F880200020A04795F8A0
:104C90003801C0B11748016821F08001016080210E
:104CA0008160FFF758FB95F84611491E85F84611BB
:104CB000C9B219B9A96821F00801A960FFF76CFB16
:104CC000002085F83801002070BD000000B51349B0
:104CD00081B04020086000F0ADFC01B05DF804EB4D
:104CE00038E7000088230020C4C30000AC4F005008
:104CF00000A10C4090220840995500008951000005
:104D0000545E0020A401001000A00C4088BC0000EC
:104D1000B80100102820086028200840A8A00C40F6
:104D2000E001001010B50446FFF715FB002161609B
:104D30002160BDE81040FFF72FBB30B581B00546BC
:104D4000FFF709FB2C683CB1216829602168002924
:104D50001ABF00224A606960FFF71EFB204601B0BF
:104D600030BD70B504460D461646FFF7F4FA2E60C6
:104D7000716869607168002914BF0D6025607560F5
:104D8000BDE87040FFF708BB30B581B004460D4662
:104D9000FFF7E1FA0021296062686A606168002912
:104DA00014BF0D602560656001B0BDE83040FFF7BD
:104DB000F3BA30B581B004460D46FFF7CCFA21684E
:104DC000296000226A602168002914BF4D60656077
:104DD000256001B0BDE83040FFF7DEBA30B581B0E4
:104DE00004460D46FFF7B7FA29686A6800290CBF28
:104DF00062604A6069682A6800290CBF22600A6004
:104E000001B0BDE83040FFF7C7BA30B4002513E069
:104E100050F8042BD30744BFA9F101039A18091FC6
:104E2000042942F8045BFAD213468C0744BF15806C
:104E30009B1CC90748BF1D7050F8041B0029E7D10F
:104E400030BC7047DFF800F0E5EB0210DFF800F04F
:104E5000C1DD0210DFF800F0B1BF0210DFF800F092
:104E600021CD0210DFF800F0FDE6021030B589B068
:104E700004460D460823242200216846FFF7E2FF7E
:104E800001218DF818106A4629462046FFF7DEFFFB
:104E9000204609B030BDFFF7E5BF00B581B0FFF790
:104EA000D9FF00280CBF4FF0FF30002001B000BD3B
:104EB000FFF7D4BF34480068000C00F00700072853
:104EC00028BF4FF0FF30704730490968C1F30F31F8
:104ED0004BF641324FF0FF30914208BF042070473B
:104EE00038B5FFF7F1FF28490B68DD0D04284FF0B6
:104EF000FF34C3F34061C3F3006221D11B0B03F005
:104F00000F03082B1BD0092B14D00F2B18D1E80747
:104F100004D500290CBF0D240E2411E0114218BF46
:104F200011240DD109B10F240AE0002A0CBF0B2473
:104F3000102405E000290CBF09240A2400E00C24F9
:104F4000204632BD000000001048114970B50568C8
:104F50000E682D0F06F0FF06802E28BF0026FFF7F3
:104F6000B3FF04284FF0FF340CD1032D0AD8DFE83B
:104F700005F0020204070A2404E006F10B0401E034
:104F800006F1150460B270BD941200501813005061
:104F9000A010005080B5FFF797FF042804D1FFF759
:104FA000D3FF142800DB01BDFEE70000002200F063
:104FB00003BC0000DFF800F021D40210F8B504466D
:104FC0000B480C4F0668F8690D4650F82510B142A1
:104FD0000AD10948009029462046FFF7EBFFF869FF
:104FE00050F82510B14201D10020F2BD2046F2BD9B
:104FF0001C120000501100207C210020102803D337
:1050000002491038C1F8000F704700BF00E000E00F
:10501000DFF800F011DC021070B5044600F0E2FB8E
:105020000646A08A002501280AD1FFF7F1FF0546B0
:10503000E068A168451BA9423EBF2069A84200253F
:10504000304600F0D0FB284670BD0000DFF800F0CD
:1050500019D7021010B50446034BFFF7F7FFA068FD
:1050600000B90024204610BD7C2100200148806842
:10507000704700BFE4100020DFF800F091D8021064
:1050800038B504460D4600F0B9FB616A0D43656210
:1050900000F0B5FB2046BDE83240FFF7EDBF000051
:1050A00030B51C4B1A685B6D0021C50704D5D407C9
:1050B00001D45B0700D50121830703D5540804F010
:1050C00001042143400703D5920802F00102114375
:1050D00009B1012030BD022030BD30B50D4B1A683A
:1050E0005B6D0121C50704D5D40702D45B0758BF07
:1050F0000021830703D5540804F001042140400730
:1051000003D5920802F00102114009B1012030BD1F
:10511000022030BD4021084030B5DFF8AC5495F88E
:105120003901002481B0002802BFDFF8A014887B79
:1051300000280CD0FFF70FF995F83B11002906BFA6
:10514000012285F83B210124FFF726F914B1002044
:1051500001B030BD0220FFF7AFFB0E20FFF7C1FB0F
:10516000DFF86C14086810B1012001B030BDDFF821
:1051700064044022026042600120C861002185F879
:105180003A11002001B030BD2DE9F041DFF848149C
:1051900082B000200860DFF8304494F83A0100281B
:1051A00000F0408101283FD1DFF830140D68DFF8AE
:1051B00030140A684BF2F52045432D0A02F44022D0
:1051C000B2F5802F13D1DFF81C0401688A030ED4D6
:1051D000DFF81464B06C0168884700F0A9FAF16B3D
:1051E000CA6890472F09C010474305EBE73594F88C
:1051F000400118B1002184F8401106E0DFF8EC030B
:10520000006820F07F402D186D08DFF8E403DFF818
:10521000BC23056001212D0C45608160907B002836
:1052200000F0B8800221FBE0022840F0B980DFF8EE
:10523000AC030568DFF8BC03C16AC1F30721C4F8F9
:1052400014110168C1F38441C4F81811B5F5C061A7
:10525000C069C4F81011C0F38120C4F8280103D13B
:10526000002084F8300191E094F8300168B9D4F856
:105270001801D4F81421C4F82001C4F81C21C4F882
:105280002C11D4F82801C4F82401D4F82C010028EA
:105290004CBF6FF00101022100EB40000818D4F868
:1052A0002011421000EB9270D4F81421C4F81C2194
:1052B00001EBA0010029C4F8201115DCD4F8240169
:1052C000032805D11531D8BF0121C4F8201124E0ED
:1052D0000B31D8BF0121521E48BF0022C4F8201153
:1052E000C4F81C21032019E01E2919DDD4F824017B
:1052F00038B915391E29C8BF1E21C4F82011032052
:105300000CE00B391E29C8BF1E21521C3F2AC8BF02
:105310003F22C4F82011C4F81C210020C4F8240145
:105320000823B14ED4F81C01B34F80B200904FF463
:105330007F42D6F800C0DCF8048030213846C047F0
:10534000012000901123D6F800C0DCF804804FF44F
:10535000003204213846C047D4F8200180B20090C2
:105360001223D6F800C0DCF804804FF4F8020421C0
:105370003846C047D4F8240180B2009038463668D9
:1053800077680A234FF440622021B847A5F2FF5501
:10539000032D03D20620C4F83C0143E004213FE082
:1053A00003283FD18D480068D4F81011A0F5C060E3
:1053B0000029C4F82C0148BF4942002848BF404298
:1053C0008142A8BF002028DA874DD4F814018A4E04
:1053D00080B2009008232F68D7F804C04FF47F42B2
:1053E00030213046E047D4F8180180B200901223F3
:1053F0002F68D7F804C04FF4F80204213046E04784
:10540000D4F8280180B2009030462D686E680A23D7
:105410004FF440622021B047012084F8300106217A
:10542000C4F83C1102B0BDE8F04100BF2DE9F047DF
:1054300082B0724C6C4DDFF8C081714EDFF88891FC
:1054400042F62A2709E000BFC9F83C010321216088
:105450000020706070688107FCD4D9F83C010628F0
:1054600000F29980DFE800F0048A6F774C542F0037
:10547000012131600F22E2602761022000900723A2
:10548000D5F800C0DCF804A04FF4C07200214046FB
:10549000D047D5F800C0DCF80CA007234FF4C07249
:1054A00000214046D0470120306031688807FCD594
:1054B0000121E16199F8390100281DBF0021316304
:1054C00001200320C0E70021316071603168880746
:1054D000FCD471688807FCD400213F4A3C4B116022
:1054E000012018600E20FFF795F90220FFF779F9E7
:1054F0000020C9F83C0189F83B0102B0BDE8F08703
:105500000520C9F83C010021716070688107FCD456
:1055100000210091032089F83A0104232C68676870
:1055200070224046B8472C68E5687023702200213D
:105530004046A8470120706002B009F15000BDE864
:10554000F047FEF784BF0320C9F83C0100217160D9
:1055500070688107FCD400210091022089F83A018B
:1055600004232C68676870224046B8472C68E568B9
:105570007023702200214046A847DBE7012002216A
:1055800089F83A01009104232C6865687022002193
:105590004046A847CEE7FEE71A4801688A07FCD5CF
:1055A00009491648D1F83C21012A07BF2021816111
:1055B0000122826100210160082206490A604A60D6
:1055C000012101607047000088230020C4C300004F
:1055D00004800C4038500C403C500C4008400C40BB
:1055E000B44F00508C130050A4010010102009404B
:1055F0007C600C4004A00C4000A00C4000400C401B
:1056000054600C4058600C4038B5DFF85C01DFF89E
:105610005C51048814F0010403D14FF0012129608A
:105620000088DFF84C211168884714B14FF0807072
:10563000286031BD10B5DFF84C2113685C6801218A
:105640000120A047DFF83001DFF8301100688860E2
:1056500010BD38B5DFF81C41E16B0A6801209047A6
:1056600001281FD02468DFF80001E568002301222B
:105670003C21A847B8B1FFF7C7FFDFF8FC00DFF80F
:10568000FC3002689968DFF8F8001C68DA60A4EB67
:105690009404521A4243120C1A6019688C4238BFA3
:1056A0000C461C60012032BD38B5DFF8D8402268B6
:1056B000536800210120984721680A68012090471B
:1056C00008B1FFF7A1FFDFF8B000DFF8B0500068C5
:1056D0006860E06801688847286131BD243080F344
:1056E0000600020900F00F000F21C2F103024FF67D
:1056F000FF73C0F10F00D140C340DFF88C0043EAD4
:10570000014303607047DFF88400DFF884200168FC
:10571000DFF8800002EA9122824208D1DFF8781097
:10572000096800208A035CBF08040016D6E77047AA
:1057300070B51A4CA268E5681B3800FB00F100FB4D
:1057400001F681FB0223C6FB05236568C0FB052328
:105750002068120942EA0372C117101841EB2311A5
:10576000000C40EA014070BD00A00C4004A40C40B5
:1057700080000010A4010010302009400C09002016
:1057800040420F00E001001018A00C4050130050E0
:10579000F1FF0F00F0010700B44F0050F45D00204E
:1057A000EFF3108072B67047EFF3108062B6704767
:1057B0000138FDD1704770474018491C1CBFB1F13A
:1057C000010100F8012DF9D170470000DFF800F069
:1057D00075E20210DFF800F0E7EC0210DFF800F0ED
:1057E0001DF8021000E006E0EFF31180202181F3A4
:1057F00011887047000080F311887047F4E7FAE7DA
:10580000F2E7F8E71849C20744BF01230B6082079B
:1058100044BF4FF480730B60400744BF4FF48032A5
:105820000A60704710B5114AC30748BF116084076A
:1058300048BF5160400748BF916010BDFFF7C6BF29
:1058400010B5044604F11000FFF70CFBE06818B136
:1058500004F10C00FFF7BEFF214605480068BDE8D3
:1058600010405422FFF7BABF042009401820094015
:1058700060C40000CD44002199400021B5400021C2
:105880001F410021E1400021414500217D450021CB
:1058900045410021514100215D4100217941002114
:1058A00027460021C5410021DD410021F5410021AD
:1058B000314200219B460021DB5A0021074B002189
:1058C000DB0705D000F003F80249087070BD70B521
:1058D000014D2847E00400211D240200074C657992
:1058E00000F009F861796940490703D50121044AAC
:1058F0008903116070BD70B502490847800300211B
:10590000081104402D59000000F019F8E1B26C298B
:105910000BD0042801D0062807D10E490978C90701
:1059200003D12178090700D402200B490A780C2101
:10593000114202D0094980220A6003B0F0BDF0B5DF
:1059400083B0074908470448017840229143017019
:1059500004480047C80000213301002100E200E0B4
:1059600041160300231B030070B5004700F042FA04
:1059700000480047577F000000F042FA0048004707
:105980001B8800000599880A802805D1134988786A
:105990008007800F00F04CFA00480047D96E0000E5
:1059A0000FB41048C188002902D0104600F040FA18
:1059B000079B9B0A084D832B08D1084C23899B0623
:1059C00004D500F005F8002800D042350FBC284768
:1059D00070B50548004700001F0B02006001002160
:1059E0001F0B020080030021EB090200094B1A780B
:1059F0000824A243002800D022431A70004A10470E
:105A0000838E000003490878000701D4024800474C
:105A100070470000800300215F7E00000848094AAB
:105A200003689A420AD108480289084BD21A01D069
:105A3000012A03D1406E064988470399054B184750
:105A4000A8020021BD03020060010021211800000E
:105A5000F1350000BD060000044A282090470448A4
:105A6000012141600348044A416010474F42000051
:105A700000500440006004408542000070B51F4D96
:105A80002878C4B21E4880472878032834D1032CD4
:105A900032D01C488068400DC2071A480146603168
:105AA0008030002A03D01F240C57458802E01E24B2
:105AB0000C570588002C1FD01348154A41690079FE
:105AC0004143481011494969401810494039497FFC
:105AD000904740054015694288420DDBA8420BDC27
:105AE0000C4B996988B20246090C624309045212B0
:105AF000801880B20843986170BD0000E402002164
:105B000079410000280000218003002100030021CA
:105B1000CB8100004040044010B5864C2146403106
:105B2000087D012834D18448C07D4008C0072FD0AB
:105B30002046603042795208D20729D04089800B34
:105B4000012825D1087E4109C9070CD0A16F0007A3
:105B50000988C00F4002090408436066A06F801CDA
:105B600001F08CFC13E07448203080694068002804
:105B70000ED0724A00230178D356591A08D4C900AE
:105B800008184178C90703D0016861664068A066BB
:105B90006B48804710BDF8B5664C6A4926462036EA
:105BA000707B2546403500902F79B80040188068FA
:105BB0008047002828D16049C97D0909C90723D039
:105BC00022466432152F20D0297E00234F09FF077B
:105BD00003D06D7D002D00D00123009FA56FBB4336
:105BE00012D0737B002B0FD0237D5B060CD5D2889F
:105BF000920B012A08D1C908C90705D0A988890BC9
:105C0000012901D100217173F8BDAB7EE97D012B23
:105C1000E3D00023E1E770B5464C2546606A803545
:105C200000281DD15420005D0022002817D06420D8
:105C3000005D8008C00712D0A9688888800B012801
:105C40000DD13D48C07D4008C00708D03A482030FB
:105C500080690068002802D02962A86000E02A62FA
:105C600039488047616A002903D1296A002900D098
:105C7000A96070BDF8B52F4C344920464030027DF4
:105C8000002A2FD0807E25468035032802D00428A4
:105C900003D027E00120E87524E06420005D80083F
:105CA000C0071FD0A8688088800B01281AD122481D
:105CB000EA7DC07D002A13D0C008C00712D0264656
:105CC0002036777B88470146394308D1217D090674
:105CD00005D56988890B012901D100217173F8BDAF
:105CE0008008EAE78847F8BD124880300021C17576
:105CF000174800470F4940310871262814D006DCA8
:105D0000152813D01B280BD01F2804D10AE03D28EA
:105D10000ED047280AD00B49800040188068704791
:105D20000C4870470C4870470C4870470C48704747
:105D30000C48704760010021C8000021E0040021E8
:105D400059490200005502008F3D020075300200E3
:105D5000152A0200C14400214D440021EF430021D7
:105D60006F430021F142002110B50C4988470C4ACD
:105D70000621515E002907D0022905D0092903D048
:105D8000102901D0112907D17721C943884201DDAB
:105D9000002801DD7F20C04310BD0000A965000080
:105DA0008003002110B51048C1881048052918D07B
:105DB0000F4C21684A0852002260A26B5208520020
:105DC000A2632160FFF7D0FDA06B000708D401207B
:105DD000206060600020401C0C28FCDB1420206246
:105DE00010BDFFF7C1FD10BD800300213F5B000027
:105DF00000600440806B0C490007000F4871704739
:105E0000094A0A4918235079CB56497EC018814265
:105E100001DD084602E00F2800DD0F20D1890909C5
:105E200009010143D1817047E0020021880000216F
:105E30000849C979CA08D20708D0C1400648C9072D
:105E400001D0064900E00649491CC16070470020A6
:105E500070470000E80000212800002188010000B0
:105E6000500100000122274B02212548184710B598
:105E7000254880472548406A00280DD124490A203A
:105E80000856002809DA401C07D008462038406A26
:105E90002049884200D1804710BDFFF7E3FF10BDC5
:105EA00000211E4B1C4A0846184701201C4940028D
:105EB00008601C48FB220178114001701248EC3840
:105EC000004710B51849884711492039012807D0E3
:105ED000020404D50020088514484862012010BD42
:105EE0004A6A094BEC3B9A4201D1114A05E0074945
:105EF0004A6A104B9A42F2D10F4A4A6210BD000022
:105F0000060800009F060000A1920200080100217F
:105F1000540100216392020047460021B5B40200FB
:105F200080E100E080030021F79602003D46002159
:105F30008346002169950200794600218307FF22EC
:105F4000DB0E9A408907090E994000280BDA0007FA
:105F5000000F083883089B00FF481818C369934353
:105F60000B43C36170478308FC489B001818036803
:105F700093430B430360704710B5F9488047F94CD1
:105F8000616C002919D0217B0909C90714D10022AD
:105F9000214640310A73E273626CA26412784A7639
:105FA000A26C52784A70A26CD2780A76A26C1289DE
:105FB0004A83A16C4968616310BD812001F06EFACB
:105FC0000B20C00220810220A07210BD70B5E54AEE
:105FD0000146144600202034002901D0062100E0AB
:105FE000217AE37B9D08ED0704D0157B2D09ED0791
:105FF00000D0491CDD08ED0700D0891C1D09ED0704
:1060000004D0D94D6D7CED1DED0869185D09ED07D3
:1060100000D0491C9D09ED0700D0491CDB0900D0C8
:10602000091D136B0025002B0BD01846CF4B1C32DB
:1060300098472321084202D00121E17202E0E57273
:1060400000E0D561410703D50121C94AC905916026
:1060500070BDF8B50646C748C24C00210160617C9E
:10606000C44F4A1E403FFA634068800754D5786B9E
:10607000C14DEA699047696A607C884705462046B9
:106080002030002E09DA6905090E01724122125DE5
:10609000914203D90120C043F8BD0672027AA17C67
:1060A0000646D00008183862B24801218160062AED
:1060B0000BD9206B01F0F8F90020FFF787FF2121B1
:1060C000084208D00220C043F8BD062A03D2E16985
:1060D000206B01F055F9E06900281BD0F17B89089D
:1060E000C90708D0217B0909C90704D00146E27B12
:1060F000401CE0610A70F07BC008C0070AD0E0696C
:10610000E910421CE26101706A07E069520F411C0C
:10611000E16102702846F8BD0020C043F8BD70B5AB
:10612000904C0020217BC0438908944DC90700D1C1
:106130006878FFF78EFF002808DBA88321680F200E
:10614000884760608E49002088471FE0811C08D086
:10615000C01C1DD08B49102008608B4908600120AD
:1061600070BDA06B002802D04179491C417101200B
:106170007F498006886001F0F2F88448804700215A
:106180002C20015521680C2088476060002070BDDC
:106190000B20C00220810220A072032070BD6E4936
:1061A000086170476C4908690A6910231A430A613B
:1061B000704770B5FFF7F6FFFF21724A0131116099
:1061C000734900E020BFCA6AD207FBD0624A10615F
:1061D000704842690F231A4342618269D208D20093
:1061E000121D826163480225803845600122826069
:1061F0000024046084608A600C608C600821416027
:10620000416061496448803108606449204688479C
:106210006348804763480570554805635C484030D3
:106220000460554860494470782088474E48803063
:10623000407B002801D001F03DF970BD70B54A4C9B
:106240008034207B002801D0584988474648403098
:1062500001888A0AD20702D1C07A002805D008092D
:10626000C00702D04E487A38804751480021017754
:106270004048403801624348102202600422026014
:1062800095010560520202603F4E32604048C16293
:1062900014210162E07A364CC00703D06069012105
:1062A000084360613D49012088473E490620087047
:1062B0002063384841689D2001F002F9356070BDC7
:1062C00000B5FFF76FFFFF212E4A01311160304901
:1062D00000E020BFCA6AD207FBD01F4908612D48E1
:1062E00041690F22114341618169C908C900091D33
:1062F000816125492848803108601E4900204039C5
:10630000C86200BD1B4982B280318A62020CCA6237
:106310001549CA79D30709D1920889880240D00764
:1063200001D0C84381B21348403841627047F8B584
:106330000C4C2049254688792035002870D01D4B0B
:10634000096800205A791F79002956D0EB7B5B0938
:10635000DB0733D06B7B2FE000ED00E000E400E0D2
:1063600023DB020060010021280000219B36000091
:10637000001104408050044080030021A00100214E
:10638000C10F000080E200E000E100E0295B0000B6
:106390000060044000300440040D0000BD85000092
:1063A000FD900000180000213D4200006F580000E1
:1063B000A0020021F45C00210B70491CEB7B9B09BF
:1063C000DB070CD04C231B5DAE7B3343DB06DB0EBF
:1063D000D6013343FE07760E33430B70491CEB7B2B
:1063E000DB090AD0E36B0B70E36B1B0A4B70E36BAA
:1063F0001B0C8B70E36B1B0ECB70216B00260029EE
:106400001FD0002A0DD0EA7B5208D20709D0EA7AC1
:10641000002A02D00021E9720FE00846F9490BE09A
:106420004AE0002F02D0EA7BD207F6D1EA7A002AAE
:1064300003D10846F349B6398847400701D50126FC
:10644000F605E87A002802D0012080050EE0EE482B
:106450004179002902D00120400407E0007900289A
:1064600002D00120800401E0012000040643A06B5B
:1064700000281CD0710203D50179491C017110E07C
:10648000B10303D58178491C81700AE0710303D5FB
:10649000C178491CC17004E0F10302D54178491C60
:1064A0004170A16B687BC871A06BE16B8160D748BC
:1064B0008660D54900208871D34A08329079002837
:1064C00071D0106851790091002820D0E97B4909EA
:1064D000C90702D0697B0170401CE97B8909C907A3
:1064E0000AD000992E7ACB010121002E00D0002184
:1064F00089010B430370401CE97BC90907D0E16B9C
:1065000001700B0A43700B0C8370090EC170BE49F9
:10651000002608310F79216B304600291ED0009AE1
:10652000002A07D0EA7B5208D20709D102E00846C8
