:20000000003C0220C9790100A1840100A1840100A1840100A1840100A1840100A18401005B
:1C002000A1840100A1840100A1840100A1840100A1840100A184010091B200009D
:04003C0000000000C0
:2000400038B586B004468DF805104FF6FF720120ADF80220090ADFF8C05AADF8000002232D
:200060008DF806108DF8043069462A7820461AF0A1FE162803D1297820461AF097FE07B05D
:2000800030BD3EB504000D461ED0DFF8900A006822461AF087FEFF2815D00020009000238C
:2000A00001AA294620460EF0FFFF60B99DF8040000F071F9C00606D59DF8040000F06BF92A
:2000C00010F0040000D001203EBDFEB5164615244FF6FF7290420D4615D100208DF804007E
:2000E000DFF8347A9DF80400F97988421AD23246294600F03EF800B100249DF80400401CE3
:200100008DF80400EEE71AF049FE50B100F09DFB40B99DF804003246294600F02AF80024F8
:2001200000E014242046FEBD7CB50D46044606214C43164620346A460821204618F078FA99
:20014000A8B900F078F890B99DF80700002E14BF054320EA0505E9B2814206D08DF807508C
:200160006A460821204618F077FA012076BD002076BD2DE9FC4106463446062388461546B5
:200180005C436A46082104F1200018F051FA00284ED100F050F800284AD100F028FA0400A7
:2001A00002D100F01CFA43E0397AE03689062246090E304618F03CFA002835D1204600F034
:2001C00052F85FEA08000ED13A7A9206120E0021204619F00DF838BB3A7A920000212046E4
:2001E00019F0D8FC16E0214600F02AF858B9280004D02146002000F023F810B900F00FFC50
:2002000016E0A0F800808178A9420DD085700DB900210180204600F026F8397A8906224694
:20022000090E304618F018FA00F0F9FB012000E00020BDE8F6810622FF21684618F0D8BF61
:2002400070B5DFF8D4381D7A002200E0521CD4B2AC4206D231F824608642F7D101EB840096
:2002600070BD002070BD10B50021DFF8AC280AE030F82130DB4320F8213000EB8103491CB5
:200280009C78E4439C70137A9942F1DB10BD2DE9FE4FDFF884480646207A0F4691469A461E
:2002A000800019F061FE5FEA000803D100F097F90A206EE00C9D02974FF0060B37461BFB14
:2002C00007FB029A08210BF1200018F0C5F98DF80400304600F09AF8227A00F07BF99DF85F
:2002E000040000904246217A8906090E06F1E00018F0B2F9009E02990643206A082200EBF6
:20030000C70019F051FCF5B110220021284618F06FFFC0B90299887900232A4600F001004A
:200320001AF038FD00281CBF9DF93C00002803D0DFF8EC17012008702A4610210BF123007B
:2003400018F08AF906435FEA090205D01C210BF1210018F081F906435FEA0A0205D01C2114
:200360000BF1220018F078F906430D9A4AB110210BF1240018F070F906430EAA00F032F91D
:200380000643A07D08B100F095FA404619F0F4FDF0B2BDE8FE8FE0B5062358436A46082139
:2003A000203018F045F910B99DF807000EBD00200EBDDFF86407007808210DF07DBC38B586
:2003C0000025DFF8544718E0206A06236B4300EBC5022033082198B218F02AF958B1206AF7
:2003E0000622FF2100EBC50019F0D4FB206A00EBC5010022CA716D1CEDB2E1798D42E3DB86
:20040000A07D10B1BDE8314054E231BDF8B5DFF80817DFF81037C9791E680C460A4600E0B9
:200420002A46D5B23DB1551ED2B2324412F8017C8742F5D12C46E4B220464D1E07E0171865
:20044000165C7F7817541A680244401C5670A8421A68F4DBAC4204DABDE8F840052018F0CD
:20046000FBB8F1BD70B50024DFF8AC5600E0641CE879E3B283420BD22B6AE6B20622FF218C
:2004800003EBC60018F0B4FE0028F0D0E0B270BDDFF89426117839B1DFF8880601680C78F1
:2004A000204600F013F8204670BD38B500200024DFF8645603E0E0B200F008F8641CEA793E
:2004C000E1B2914201D20100F5D032BD2DE9F84F8146CB46062313FB0BFB8EB00BF120055D
:2004E00001AA0821284618F0A3F8002869D10622FF2101A818F07CFE002862D100F077F888
:200500005FEA000803D100F06AF80A205BE01C22FF2103A819F03EFB3A7A00F05BF80BF1C1
:2005200023060AAA1021304618F082F860B91022FF210AA818F05CFE30B99DF80A0001A904
:2005400000F001001AF022FC082200F03FF801AA0821284618F080F8054603AA1C210BF13E
:20056000210018F079F88DF8000003AA1C210BF1220018F071F8044603AA1021304618F03D
:200580006BF8064603AA10210BF1240018F064F8824603AA00F026F89DF800100D4325436A
:2005A0003543397A4AEA0505054389064246090E09F1E00018F050F80543404619F0DCFC83
:2005C00000E0002528460FB0BDE8F08FFF2101A819F0E0BA9200FF21404619F0DBBA04205F
:2005E00017F0ECBD04210BF1250018F035B8DFF82875387A800019F0B7BC2DE9F84187B068
:20060000FF208DF80000DFF81055E87919F0ACFC040003D1FFF7E3FF0A2030E01022FF21AC
:2006200003A819F0B7FAEA79FF21204619F0B2FA0622FFF7CBFF03AA1021022018F00CF8C3
:20064000064603AA1021032018F006F806436A460121042018F000F80746E97922460520CC
:2006600017F0FAFF054601AA0621062017F0F4FF804600F0D4F93E432E4348EA060008B0D8
:20068000BDE8F081DFF890144088097817F080BFF0B5A9B006460D4614461AF07FFB08B9FE
:2006A0001420A6E0A4220021684619F073FAADF80060DFF86464F078F17B279A8DF80400B3
:2006C0005208307C8DF8A0004B0801F0010040EA420222F0020203F0010342EA43020809AD
:2006E00022F4807200F0010042EA0022480922F4007200F0010042EA4022880922F48062D2
:2007000000F0010042EA8022890822F0040201F00101707C42EA8102279202280CBF012014
:2007200000200DF1260778741AF02CFB412807DB707C00B108209DF8991008438DF899009A
:20074000F07CB8B10121B974202206F188010DF1390019F029FA202206F1A8010DF1590017
:2007600019F022FA202206F1C8010DF1790019F01BFA00E0B874707B8DF8050090B1DFF824
:20078000AC73102207F110010DF1060019F00CFA9DF89900082805D1102239460DF11600F3
:2007A00019F002FA307B8DF8260030B11022DFF880130DF1270019F0F7F9307948B1022D72
:2007C00018BF032D03D1279840F002002790012100E000219DF899000143B0788DF89910AB
:2007E00000B1042001438DF89910684621461AF0C5FA29B0F0BD2DE9FC41154615244FF622
:20080000FF72904288460ED10027DFF80C63F179F8B2884216D22A464146FFF785FC00B196
:2008200000247F1CF3E71AF0B9FA50B100F00DF840B99DF804002A464146FFF775FC002458
:2008400000E014242046BDE8F681002100910023417901AA01F00101801D0EF025BC70B530
:2008600004460D4606204543082B88B0164603D1300758BF223500D521351C220021FFF76D
:20088000A6FE01AA1C21284617F0D2FE80B99DF81E00C01F0A280BD29DF830000090F2085E
:2008A00001AB02F0010206F0010120461AF062FA08B070BD38B51AF059FA0024964D0FE0AE
:2008C000286A0622FF2100EBC40018F091FC28B9286A00EBC40100201AF044FA641CE4B259
:2008E000E8798442ECDB31BDF0B5924D0646686885B04FF6FF7438B9009502238E4A2146A5
:2009000001201AF02BFA6860696819B30222FF2002920023039001930DF112072A880097A1
:2009200004AB304606F06EFC60B99DF810009DF8111000EB0122100004D0686841893046BC
:20094000FFF7C3FB2A886868002321461AF002FA686008B9012000E0002005B0F0BD3EB5D2
:200960000C46002501460095002301AA20460EF09BFB38B99DF80400FFF70DFDC00601D437
:2009800001203EBD00203EBD2DE9F0416B4F3C6806468846154603E02089B04224D0246808
:2009A000002CF9D10C2019F0DFFA040019D0268184F80A8000202060E07245B1082128461A
:2009C00018F0CCFD606018B900F029F80AE06060396811B93C6004E0014608680028FBD164
:2009E0000C600CB9152018E01AF0B0F908B1002013E00120E0722A4641463046FFF748FEFE
:200A000004464548C06900281CBF4368002B03D000220021304698472046BDE8F0812046B0
:200A200019F0AABA38B505464448046803E02089A84204D02468002CF9D1012032BDE07AE3
:200A4000012807D100F05CF820B13348007804210DF032F9E17A491CE1722846C9B200F054
:200A600002F8002032BD38B5022904462A4D02D003290DD01EE042F6C921FFF7E1FA0200C6
:200A80001CBFE869002818D04368B3B105210CE042F6A621FFF7D4FA01001CBFE9690029DF
:200AA0000BD04B684BB102460421204601B0BDE830401847BDE8324000E031BD10B51F4AA1
:200AC0001468002101E0214624686CB123898342F9D1206800290CBF10600860606808B178
:200AE00019F04AFAFFF79BFF002010BD024604201249096819B10B899342FAD1C87A7047FD
:200B00000E48006828B1006818B1C17A0029FAD17047002070470000B41C0020680F0020C9
:200B20005F400020F03F00205E400020D43D0020043E00209C3F002044D50100F43F0020EE
:200B400038B584B004461AF029F90622417901F001018DF80E10811D02A819F025F80020F8
:200B6000009000239DF80E1001AA02A80EF09CFA9DF80400FFF7AAFC0546052120461AF010
:200B8000E1F8284605B030BD96B0DFF89047211D204613F0DBFE04F1140019F052FADFF8C3
:200BA0008097DFF88017A060002504F1240041F2883200230990CDE9005913F06FFFDFF872
:200BC0006807DFF86817DFF868A70022152300901020D047DFF85C171020002202234FF039
:200BE0000208D0470DF078FEDFF84C17102001220126D047DFF8441710204FF0FF32D047AD
:200C000017F0AEFB4FF0FF3014F08AF90320DFF830778DF850608DF8288001218DF82C0059
:200C200004208DF82F0005208DF83400DA480C9014AA0020B8470AAA01200121B8470BAAB8
:200C400002200121B8470DF12F0203200121B8470CAE042005213246B84709F1080018F059
:200C600021FFDFF8E01609F10C021020D0472178DFF8D4965020C847DFF8D01602461020AA
:200C8000D04721785020C847DFF8C41602461020D047DFF8C0161020FB2240F64803D04753
:200CA000DFF8B4161020D0474FF6FD7014F038FE21785020C8470346DFF8A006DFF8A016F5
:200CC0000422CDE900801020D047DFF89806C02118F084FFDFF88C064FF6FF71C02D02D0B3
:200CE00041531835FAE74FF0FF3000214FF0000914F09EF8DFF82816DFF86C360022486069
:200D0000002118F0FCFDA548DFF8A0B68246606800214FF040424FF0FF330CF02FFB002866
:200D2000F5D08046CDF828900BA80DF12F010AAA16F00BFC002840F03982BDF82C001028DD
:200D400040F02F8220789DF82F10814240F029820A9F4FF6FF703988814200F02382080A20
:200D6000C9B2912900F0B080B02900F0E980D02940F01782B978072900F2E880DFE811F0A7
:200D80000800110211021102110210015101A201002840F00682B879F97A0025ADF8535008
:200DA0008DF85000B7F807008DF857100821ADF85100B7F80900ADF85500002014AA0CF011
:200DC00009FDDFF8C4358020DFF8C475DFF8BC154FF0000958604FF480703A465D75986068
:200DE00007201873601C009019F04EFB000640F09282DFF8A01530461F2219F03BFCDFF83F
:200E000098551F2062780023CDE900061020294610F0C6FB000640F07E821C2062782946D2
:200E200001230090DFF87405019019F02DFB000640F071826278DFF868151020922310F0B0
:200E4000AFFB6278DFF8381519F09EF9000640F06282A01CDFF83415DFF848353A460090F0
:200E600019F012FB000640F056820B20A278DFF8281500230090DFF83005019019F004FB9D
:200E8000000640F04882A278DFF814151020922310F086FBA278DFF8E81419F075F9000668
:200EA00040F0398216F0FEFFDFF87404012140F6B83200230130CDE90010DFF8681404F151
:200EC000480013F0EBFD6CE13E284ED00F2852D010285CD00E2840F06481B88841F205414D
:200EE000884240F05E81B8680178002940F05981C778B0F8010017F003FF072800F2518169
:200F00007F2F00F04E81DFF85C1400EB4000052301EBC0056A7C511C697405F10C018F5403
:200F20006A7CB2FBF3F303EB8303D21A00236A740022052A00F0EA808F5601323B44F8E7B6
:200F4000397907F1080019F0F9FE2AE1112940F02881B888ADF83000B87B8DF83A007889B9
:200F6000002800F0C3800020CAE0B8780C2840F018810C2007E0B88842F23201884240F06B
:200F8000108142F2320039460EF076FF09E1082000210AF05BFC04E10102030440E20100D2
:200FA000DFF8D413102010F0FBFA05467878002840F0D3807F89002000F11801D82900F045
:200FC000C980DFF8A023105A4FF6FF7290420846F2D1DFF8900308954518032025F8187CF3
:200FE00019F0AAFA002845F8140C00F0AF800821017055F8140CA0F80170242019F09CFAAD
:20100000002845F8100C00F09D8055F8141C01220023CDE90021C34941F2707213F03EFD49
:2010200094E0D549102010F0BBFABD888146284617F066FE08283ED0CA49074600EB40008B
:2010400001EBC0008068C0B1CDF82090814619F0D7FA10B1484619F0D7FA484619F0F6FAC5
:20106000484619F063FABF4907EB470001EBC000406819F05BFADDF82090284617F048F94E
:20108000284617F03DFE082880F045812F460546FF20BA4900220123CDE9000719F0F4F95F
:2010A000B04905EB450001EBC0000021C175C174384614F035FC5FEA096054D1099819F096
:2010C000A3FA50E0BA88AA491020334610F068FA04F10C0017F09EFD002862D00546008932
:2010E0000FF0C0FD284619F021FA5AE0ADF83690D7F80600CDF83200B889ADF838000120F2
:201100009C498DF83B001020324648E019B205222F4691FBF2F117F8132F002A07F8011CED
:201120003FD1C9B24AB212F11E0FC0F2A680297D41F00201022934D04FF0000C02224FF069
:20114000020EB7E055F8140C19F0F0F9012005F8040C089D099819F055FA15F0F80F15D1CB
:201160006F48807890B9864F62780025102000230095394610F014FAA27810203946002342
:201180004FF00009009510F00BFA0AE07D4DA2781020294610F004FA62781020294610F089
:2011A000FFF90A9F17B1384619F062F95FEA48007FF5ADADA06819F059F800287FF4A7AD34
:2011C000A06818F0C5FA0028F4D007460078013808284AD8DFE800F0054915491E3C470FF1
:2011E00028007868007810B102283ED10220314615F03AF939E07868B0F801000FF032FDD4
:2012000037E078680168B1F1004F2ED0406819F08DF92AE0786859460023C2881020CDF85D
:2012200000A010F0BDF920E078684588284617F067FD072819D84B4900EB400001EBC00047
:20124000C07D90B15A4910202A4610F0A9F90CE00220314615F008F938B9032001213246F2
:201260000FF0E8FB01E016F01DFE786808B119F05DF9384619F05AF99CE7D82909D3297DB2
:201280000229FFF48EAF4FF0000C01224FF0010E10E0CE2909D3297D00293FF482AF4FF002
:2012A000010C4FF0040E062204E04FF0040E02224FF0020C2B4613F8151F914203D1A97D85
:2012C00001293FF66EAF2749CDE904ECCDE9063231F8300008900C2019F02EF980B10146C9
:2012E0000898088104F11C0017F0AEFA04981F49089A0023CDE900000598029019F0C4F892
:20130000069A0120079938701078884218BF85F81690117045E718F055FE00BFCC1F0020A6
:2013200020260020E96701000826002045380100A115010069650100AD8A0100E56B01001B
:20134000350A0100618B0100297F0100D96C02102D6D02100D520210397F0110C027002073
:20136000F1A400000835002040CA010021430100F9DC0110D9570110599B0100E91F0100E6
:20138000ED740110650202109C250020990101101582010064D2010055CB0000D4250020CE
:2013A0001DEF0110B825002050270020617901000D2B02102DE9F84F012015F0E7FF0128C5
:2013C00016D1DFF8C4763878002119F0B3FC040004BF002016F0F2FE00202072201D0EF0C2
:2013E000FBFC05F029F8050003D1812019F09EFC46E301206871072011F097FADFF88C96EE
:20140000DFF88C2699F80100401C89F80100A879A0724020397811700DF02AF82860616D99
:201420004A78206DD10620D5816C0A681179032908D0816C0868007903280CBF0120002097
:2014400016F0BCFE206D816C0A6890F86C0002F1080601281CBF002016F0B0FE216D486FCE
:20146000296800F5B060C8604EE0C16E0A681179032908D0C16E0868007903280CBF012022
:20148000002016F09BFE206DC16E0A6890F8980002F1080601281CBF002016F08FFE216DF9
:2014A000B5F87431D1F8A0002968DFF8E825C86096F82670DFF8E005032F1FD8DFE807F00D
:2014C00002061014CA6802F5B06202E0CA6802F53472CA6005F59A7201881187038811E027
:2014E000C86800F5355002E0C86800F6B870C86005F59A7011880187138803E0C86800F522
:20150000B060C860A5F8743106222868DFF88C75C16801F59071C160B11C3078C0F38010C8
:2015200085F82E0105F12C0805F5947018F03CFB042206F10E0105F1240018F035FB38687A
:2015400095F806C000F10C03042206F10E0103EB4C1018F029FB032206F1120105F1280049
:2015600018F022FB3868AB7900EB4313032206F1120103F1100018F017FB707D88F8020085
:20158000022206F1160105F1300018F00DFB022206F1180105F1320018F006FB022206F163
:2015A0001A0105F1340018F0FFFAB8F808006884022206F11C0105F1360018F0F5FA98F856
:2015C0000200B8F80A10400088F802000901B8F80400A8F80A104000A8F8040089B2B8F836
:2015E00006004000A8F8060003046A8C521CDB0B5A438A4201D280B238B9DFF8A404007858
:2016000080210CF059FB3B2133E105F12E01284619F088FB0520A881284619F07FFB0522E4
:2016200006F11E0105F1610018F0BEFA96F82300400988F8000019F06DFB688205F59A72A2
:20164000618D401AD08005F1610196F8230000F01F0088F80F00284619F058FB616D4A78F1
:20166000206DD1064CBF816CC16E0868DFF83464002101714FF01C0AA97930681AFB01F147
:2016800041F6210242520021AB791AFB03F303445980AA791AFB02F210444160616DDFF826
:2016A00008044A78D1060DD5DFF800148A7851060AD5DFF8FC23138841F20A418B4208BFDD
:2016C000DFF8F003C5F89C01D5F89C11284688473268A97902F10E031AFB01F15854AA7999
:2016E00030681AFB02F202440020D0733168A87901F10E021AFB00F0115C88F80D10606D08
:201700004178CA061DD595F8960108B916F056FDA97930681AFB01F1014495F89601421E86
:201720000A74A87931681AFB00F00844002141743268A97902F112001AFB01F100224252CC
:201740002BE0A97930681AFB01F10144206D90F840200A74A87931681AFB00F00844216DEC
:2017600091F841204274206D3168AB79403001F112021AFB03F34188D15205F5CB71007864
:20178000012200F0030082400A70226D92F84000800814BF0120022008713168A879DFF8F6
:2017A00018B301F1140239681AFB00F301EB4010D050A87931681AFB00F00844BF4981615C
:2017C000DBF814000078C1074CBF1F200F20DBF8141009788A0748BF40F02000DBF8141012
:2017E00009784A0748BF40F04000DBF8141009780A0748BF40F080003968AA7901EB42135B
:2018000018723868A97900EB41120B2050723968AA7901EB42100421A94A81721078012893
:2018200006D13968A87901EB40120121D17207E0DBF824003968AA79407801EB4213D87287
:201840003968A87901EB40121F2111763868AA7900EB421100204876A8790CF025FFAA797E
:20186000396852018850AA7939685201885820B90721284616F0A0FE02E19248AA79016849
:2018800001EB021019F03EFAA87939688D4B01EB4012196801EB00105060A979386800EB57
:2018A00041125168C8F83C10AA79520181587C48C8F84410042100780CF0FEF9616D4A78C9
:2018C0003068D10648BF02210AD4A9791AFB01F101440A7C02F00302022A14BF042106215B
:2018E000B8F8042095F806C04FF4C8738A18698AAA615143B1FBF3F35B1C6B611AFB0CFC1D
:20190000D5F800E06044DEF80CC040F6C41101FB02C2D21AA2F5A8628260AA7930681AFBCA
:2019200002F283189A682B689A6000F10C03AA791AFB02F20C309B5C03F0EF038354A8794D
:2019400032681AFB00F002F10C030C321B5C03F07F031354A87932681AFB00F002F10C0393
:201960000C321B5C03F0F00343F002031354AB7930681AFB03F31844427B02F0F00242F037
:2019800001024273AA7930681AFB02F2024490682B6818613868AB7998F802C000F1140264
:2019A000686940005B0111FB0C0000F5F660D05095F8960104280DD13A68A87902F114033C
:2019C0004FEA401C143253F80C00AB795B0100F56160D0503868AA7900F114034FEA421C1D
:2019E00053F80C20C5F83421AA7900EB4210C37C03F0F00343F00403C374DBF830003A68C3
:201A0000AB79006802EB431CB8F8062042436423B2FBF3F35943A1F59661CCF81C103868C0
:201A2000A97900EB4110C27E02F0F00242F00402C276A97930682A681AFB01FA00EB0A0162
:201A4000516095F8FD00010703D50E21284619F055F91D49072008702046AA7989F8022046
:201A600015F074F919488178880704D5AA790021204619F03FF928681549164A4161826174
:201A8000BDE8F14F18F0D0BDD50F0020780E0020D70F0020900F00208E0F00209C0E0020D6
:201AA000C70F0020980E002081010210C00C00209A0F00204DE50110F8CF0100980C002052
:201AC000CC0F0020A40E0020C80F0020200E002085C70000020480802DE9F04F054687B0CB
:201AE000A978DFF8E066002710294FF0060A3CD8DFE811F0110063036303630363033C0038
:201B0000CC0063036303C7021201FD00180363039902DE025B036878002826D119F0E6F814
:201B2000044619F0DFF8054619F0D8F88DF8000022461021022016F08FFD2A4610210320C1
:201B400016F08AFD6A460121042016F085FD9DF80000012818BF032807D1012019F0BAF806
:201B600002460621062016F077FD26E368780028FBD195F80CB06C8900900023E97801AA7C
:201B800001F00101281D0DF08FFA00284FF0010872D19DF80400FEF7FEFB8146BBF1080FC3
:201BA00008BFB846307A800018F0DEF9050003D1042016F003FB00E3707802280CBF012075
:201BC000002000905B469DF804104A462046FEF746FE1422002102A817F0DCFF9DF8040060
:201BE0001AFB00F002AA1021243016F021FDA8B91022FF2102A817F0FBFA78B99DF8040068
:201C00001AFB00FA06AA04210AF1250016F010FD02AA09F00101204619F058F8317A9DF807
:201C2000040089062A46090EE03016F001FD98B92846FEF718FBBA4609E005EB80000188CD
:201C400019B18278204617F0BBF90AF1010A317A5FFA8AF08842F0D3B07A30B95FEA897039
:201C600003D53178204616F093FC9DF80400FEF7CDFB284618F080F97078022805D1B8F112
:201C8000000F02D0204612F04DF996E2A888FEF715FF19F017F80028F7D1F07D012808D18D
:201CA000FEF703FCF279706AF775002117F072FF17E0307E012803D1FEF79FFC377610E017
:201CC00000240AE0706AE5B2415D012904D1E0B2FEF7FCFB716A4F55641CE0B2F1798842A5
:201CE000F0D3502017F0FCF9FEF769FB65E219F02DF800280CD0F06900281CBF0468002CEF
:201D000007D0286900906B7B2A7B6989E81CA04752E26889012145E268780024002840F099
:201D2000DA80A879C10740F1D6800822002105A817F030FFA88819F031F8040000F08E8047
:201D40006F694FB30622002107F1110017F050FA68B310220021384617F04AFAD0B9387C92
:201D600000F001084FF0000909F1010987F811900020009000230022414607F111000DF07C
:201D800093F900285FFA89F002D10028ECD101E000280CD1002068610622607900F0010044
:201DA0008DF81A00A11D05A817F0FEFE1FE06F69EFB1387C00F001008DF81A00062207F13B
:201DC000110105A817F0F0FE6079012805D10622A11D04F10C0017F0E7FE062207F1110172
:201DE000A01D17F0E1FE387C40F002006071A879410720794CBF40F0020000F0FD002071CC
:201E0000A9790A0754BF00F0DF0040F020002071A9799DF81B00DFF8B083890801F001016C
:201E200008438DF81B004FF0FF09A979C90801F0010140EAC1008DF81B00FF2469691E27C5
:201E400079B31022684617F0AFFE1021684618F035FF4FF0000BDFF874930CE0FEF750FE50
:201E60000028D5D0307804210BF026FFD0E70BF101005FFA80FB99F80000834510DAD8F80D
:201E8000001007FB0BF00A5CFF2AF0D0084400F10D011022684617F053FB0128E7D15C46E3
:201EA000A1460020009000239DF81A1004AA05A80DF0FAF8B9F1FF0F5DD034285BD1707D05
:201EC00030B3012857D1A888052118F03BFF0124A888FEF7F3FD68780B2804BFA888FEF701
:201EE0002FFEF06900281CBF4368002B0FD06A78A888012198476878002808D1A879C107C7
:201F000005D5F369A88822465C680321A0474CE1D8F80000002117FB09F90091002310F836
:201F20000910401C04AA48440DF0BEF818BB9DF81000FEF7CBFAF0B9FEF741FAFEF792FAB3
:201F40008DF81000E86800280CBF00210169002201900392029105A9686900902B69AA688E
:201F60009DF81000FEF793F90446A888FEF7BCFC200046D14BE00020009000239DF81A1020
:201F800004AA05A80DF090F820B1FEF76BFA8DF8100019E06869B8B19DF810001AFB00FABA
:201FA0006A4610210AF1230016F042FB60B91022FF21684617F01CF930B99DF81A0005A964
:201FC00000F0010018F0E2FE9DF81000F179884227D2E86800280CBF0021016900220190D5
:201FE0000392029105A9686900902B69AA689DF81000FEF74CF90446A888FEF775FC200025
:2020000005D09DF81000FEF761FAFEF7D8F9200008D1707A0028A8887FF45BAFFEF702FD84
:2020200059E7152454E7687806281FD1A88818F0B5FED8B1317D491E032917D8DFE801F092
:20204000020E08134179A8880022FEF79DFC0DE00022002140F2094003F0E0F8A8880521EF
:2020600018F070FE02E0A888FEF76AFDF06900281CBF4368002B03D06A78A8880221984763
:202080009AE000970023E97801AA01F00101281D0DF00AF80028F3D19DF804001AFB00FA35
:2020A00005F10C0204210AF1250016F0D5FA83E0F06900281CBF4368002B03D0A888002248
:2020C00000219847707810B9A88805216AE0A88818F064FE040070D0A87AC10712D5009769
:2020E00000236179002201F00101A01D0CF0DCFF00281EBF60790028012803D0E868C0F335
:20210000402028B1707C022807D1A87A010704D4A888032118F0CEFD4FE06179A88805F140
:20212000080227E02F7BAD88284618F037FE040042D018F00BFE00283ED100900023617919
:2021400001AA01F00101A01D0CF0AEFF28BB9DF80400FEF720F907F00C07042F11D0082F9C
:202160000BD00C2F0FD100F0090109290BD0617900222846FEF708FC1EE010F0090F02D116
:20218000F5E7C107F3D501220092A37C9DF8041002462846FEF763FB0EE070780028E6D198
:2021A0000521284618F086FD06E0FEF7A9FC18B1307804210BF080FD0127384607B0BDE870
:2021C000F08F00BFB41C0020680F0020594000202DE9F04F85B00D460295044615F8011B9A
:2021E0008DF801100022DFF8E81488788DF8002004F1660B17F070FE01902C219DF8010060
:20220000DFF8D024032804F1F40604F5B07A04F59C7704F5C87804F2171900F0E1800728CB
:2022200000F01582082818BF092811D00C2800F0D9810F2811D0112800F04681182800F048
:2022400094811A2800F059811B2800F07E811CE22946204610F01AFA17E2707ADFF878848E
:2022600081070AD40F2089F80200204618F01EFD002872D198F80000DEE12878697800EB97
:2022800001223A82A878E97800EB01227A822879697900EB0122BA82A879E97900EB012276
:2022A000FA82287A3876697AA87A01EB00227A83E87A297B00EB0122BA83687BA97B00EBFF
:2022C0000122FA83E87B297C00EB01223A84687CA97C00EB01227A84E87C297D00EB01225D
:2022E000BA84687DA97D00EB0122DFF8F003FA8401788A0658BF4FF01A0A13D504F5AA70C1
:202300000490798B0391387E029021890191F88A0090BB8A7A8A398A204618F0C3FCE8B129
:202320004FF01E0A707A41070AD40F2089F80200204618F0BBFC00280FD198F800007BE15B
:2023400052460F21204618F0A9FCF88A0090BB8A7A8AA179504612F0F5FB74E104F18600D5
:20236000798A81800023BA8AC2800222F98A018102704380A18EC91DABF81E10628E818873
:20238000B1EB520F02BFC188A28E914202BF0089E18EB0EB111F21D09BF81000012804BF2F
:2023A0009BF811000F280CD09BF8150000281CBF9BF811001A2804D00F218BF81A10FE2105
:2023C0007EE0FC21204618F099FCF88A0090BB8A7A8A398AA07918F05DFC34E110216FE052
:2023E000707AC10709D431781A200129707002D1FF220D213DE00D2162E000208BF800000F
:202400008BF80600012232712946082204F1B00018F03CFC0146022204F1B80018F036FC9D
:2024200004F1A80501460822284618F02FFC07460821284618F042FC04F19C050422394683
:20244000284618F023FC0421284618F037FC04F1A00018F017FC04F1980018F00FFCA048E1
:20246000018841F0800101803078012805D1FF220421204618F0FEFBE5E09BF811600F2E46
:2024800018BF142E07D00E2E18BF0C2E03D01A2E18BF162E13D19BF81070204618F0E6FB83
:2024A0000421204618F02AFC012F06D18BF81A601A2E14BFFD21FB2102E0314600E00421AC
:2024C000204618F01BFCBEE028788AF800001A286B788AF8013040F0D8801068A679431C61
:2024E0004E4300209855A379126811FB03F111440871A1799AF80100C0E0A77910682E784F
:202500004F43074406F01F0317F8210FB60938B17878F040C00703D598F80600042805D188
:2025200020221A21204618F0B9FB8CE0FB701068A27911FB02F10144204681F823600021CB
:2025400018F034F80028F0D174E0A37910684B430344D88808B900265E701068A27911FBED
:2025600002F10144002008716DE069782878884204BF084010F0070F6DD19BF811001628B1
:2025800006D198F80620A179134600200BF02EFB022088F80200012101984177012398F82C
:2025A000060098F80A1088F80000BAF81C2018F059FBBAF81810814209D3BAF81C2098F8AA
:2025C0000A1098F80000012318F04CFB0146AAF82E10012198F8080040F0400088F8080005
:2025E000397030E0707E012810D015F8011B31770222294604F5897018F048FB014602221F
:2026000004F58A7018F042FB012070769BF8060030B93D21012289F8011089F8002012E053
:20262000F07E002804BFB07E00280CD1204618F015FB30B9284800784FF480410BF03CFB89
:2026400001E00120F07601218DF8001021E028780F2816D01A2818D1A079136848431844F7
:2026600000234370A079126811FB00F150180371F07A00F0FB00F0721A20A1790DF033FDE0
:20268000E1E7707A00F0FD0070722046029918F0E1FA9BF811001A2815D19BF81200172825
:2026A0001CBF1028FC280ED19BF81060204618F0DDFA012E03BF1A208BF81A00FB211A219D
:2026C000204618F01BFB9DF8000005B0BDE8F08F780E0020CC3F0020C70F0020200E0020F3
:2026E0009C0F00202DE9FE4F04460020009080460CB915F063FD04F1500641F6230037687E
:202700003880A7F8028002223A737A73694620460BF066FC08B9072050E2009901B1B86033
:20272000B8682061DFF89804017884F8B8107068407A13F0B7FD25302076B87387F80F805B
:202740007168087D022804BF002015F037FD7068007D012802D10020002104E083280CBFE9
:202760000620022020213874797404F12405DFF854A4DAF83C0041690868697901EB410112
:202780000844B0F801207A827068417848060AD5607DC10604D5E07F40F04000E07702E0E5
:2027A00040F04000607507F15C0904F1300089F80080A97E890001F0040189F80010B866FC
:2027C000607DC10654D5726851788A060BD500F0FE0060757068417811F0030F03D1E07F7F
:2027E00000F0FE00E077607D18F030FAA0750023387CA27DC0F38001521C00F0030018F0DD
:2028000021FAA0831E20A28B02F59B7393FBF0F01E2101FB1030C0B208B1C0F11E0082188D
:2028200002F59B7262831E20A28B02F5967293B293FBF0F001FB1030A283C0B208B1C0F155
:202840001E008018A08380B2E27D618B521E50434018608307F13008608BB43080003866C7
:20286000062089F80300E17F41F00801E17720E040F00100607571684A78510744BF40F090
:2028800002006075607D18F0E1F9A0750023387CA27DC0F38001521C00F0030018F0D2F92F
:2028A000A083A08B00F59670A0830020386689F80300A17D207D61F3050007F18801207540
:2028C00008700322607D48708A70A87E800000F0040040F003008870EA7ED20002F00802D1
:2028E000104388700020C8700021C7F89010A88BC0F30B00A8837168CA7D40EA0230A883F2
:202900000022617D01F0FE0120460AF0F5FE019700271DE01C20784304EB000B01991C22EF
:202920000BF1640017F040F90BF16C00052101717F1CA28B92000260FFB2DAF83C104A69B9
:2029400011686B7903EB43031944B1F801204281E07D401E8742DDDB019F20460EF0E0FBE1
:20296000E07D012809D013D3032809D03EBF04F164007860C6F818800AE0C7F8048007E076
:2029800004F16400786004F18001B161C6F8348041F6240038860021798607F13C08B86877
:2029A000618B00EB8100B8630221822088F8000088F80110002194F8210088F8031000F07D
:2029C0003F0088F802007068807D012818BF022803D100F07F00401E04E083280CBF062016
:2029E0000220202188F8040088F805104FF0000BDAF83C00416908686A7902EB4202104481
:202A0000B0F80110A8F80610C7F86CB07068417811F0030F20D018F011F9F866DAF818007E
:202A20000078C1074CBF1F200F20DAF8181009788A0748BF40F02000DAF8181009784A07AE
:202A400048BF40F04000DAF8181009780A0748BF40F0800089F8140089F815B071685A4A64
:202A6000897C01F0030189F81510A87E800000F00400014389F81510E87EC00000F0080014
:202A8000014341F0100189F81510107838B199F8140000F0FE0041F0400189F8140089F87E
:202AA0001510E07F18F0D2F884F82000204618F0C1F8E07FC10635D5706894F82020417870
:202AC000521C88074EBFD21EE87F121898F80400C0F380010023D2B200F0030018F0B2F857
:202AE00028801E22288800F59670C0F11E0190FBF2F21E2000FB02112971716848788107FD
:202B00004CBF00204FF49B702988401828806880B86B29882A795218A63200EB820078679E
:202B2000022002E0C7F874B0002089F8170004F13000C7F8800007F1840071684A78510723
:202B400007D504F13802026099F8150040F0200007E01E490A685168016099F8150000F0A2
:202B6000DF0089F81500A17F94F8200060F30501A17740F60B00A8F81000A8F812B0DAF87E
:202B80003800008880007865DAF83800008800B1072088F81C00022088F81D0094F8451072
:202BA000A8F81E1070684178880744BF0121A8F81E10009808B10AF043F80020BDE8FE8F5C
:202BC00055400020F8CF0100880E00206C0F00202DE9F84305460C46480413D4A00024D46E
:202BE000A0075CD460057ED4200500F10681200700F13B81600040F1F68010F0F7FC24F0C8
:202C00008044F0E017F08AFADFF81C140F6D3FB1D7E90A1202F0E04201F00A01891849D07C
:202C200017F020FC24F48044DDE0BB48DFF8FC73016841F080010160B878012804D10420C1
:202C400014F008FD0020B87017F068FA0646042017F0A0FADFF8D8130A68904219D12A7E11
:202C6000BAB1FA68AAB1DFF8C003806C002800F09780C16840F603020988914206D0C068B1
:202C800040F604010088884240F08A8005F1140088E040F6C4120860C5E9042284E007F058
:202CA0009DF9DFF88403006C002840F09D8024F0020498E0D7E90A65D7E90A12AA43B143C1
:202CC000C7E90A1217F0CEFBB8680028AAD056EA0500A7D0D7F808C03869B7F9301032463A
:202CE0002B46E0479EE717F019FA054615F04EFE002800F0B780CC48876B002F00F0B2805B
:202D0000DFF828830420CB49002288F81800C64816F00BFE17F0BEFBC74817F097FBC748AB
:202D20000068006B8047C8F810000125042088F8025014F025FF386990F82810C8F80400C0
:202D4000490703D5436A042100229847012011F099FBD8F8040045760CF058FED8F804000D
:202D600081680B461A465B684BB11E88A6F60306072EF7D805FA06F616F0830FF2D0537B88
:202D800003F0F003013353730023FD6853602D88A5F60305012D00F28A80C8F810309FE017
:202DA00005F1100013F0A4F8304617F05BFB14F0FFFE78B12E6A28466FF4807100224FF0B6
:202DC0000073B0479848806B10B110F00FFC01E044F00204EE692846002100224FF08063AD
:202DE000B04724F0005434B1974821462830BDE8F84317F0FDBBBDE8F8838C4EB078012807
:202E000004D1042014F026FC0020B07014F0D0FE38B170686FF4807100224FF00073056A29
:202E2000A847306950B185480068006B804732697168801A000BC860002030617A4D81491F
:202E40000022284616F071FD02203076286C20B17D480221283017F0CBFB10F0C7FB24F45A
:202E60000064C0E717F016FB41E017F057F9054615F08CFDA0B1DFF8B48198F800000007EA
:202E80000ED498F9000000280AD468460CF0B4FE08B1009820B1DFF8B49199F8610048B332
:202EA00017F0F8FA10F0A2FB24F008049BE7034633F8385FA5B190F8445090F8456005F03B
:202EC000F00580F8445006F0F005013580F8455000255360C5634587507B00F0F000507389
:202EE00057480022C2610160012015F0D9FF24F4806478E700260127602E0FD009EB06007F
:202F0000817A31B18772407A07FA00F0C0B214F0BBFB2036F0E700BFCC210840032088F840
:202F20001800454817F092FA17F0B4FA444F3E4D0022786900207861F968F86028464449D6
:202F400016F0F3FC3D480068006B8047D8F80C10D8F82020411A02EB1130B0EB113F38BFF6
:202F60004FF0FF3098F82410C8F8200021B1D8F80810B0EBC12F20D915F0A2FFB8B140F6BC
:202F80000900414621F83C0F002048804A7B02F0F00201324A730A7B02F0F0020A7348602E
:202FA000F8613960B8F83E0010F4406FFAD00020C8F82000012088F8240012F01DFD254866
:202FC000002101600220002115F06AFF022014F041FB10200BF05AFF98F8010020B9D8F89E
:202FE0000400503017F000FB1B48807810B90D200BF04CFF98F8250028B1002088F8250061
:20300000052014F027FB002088F818001348C8F81C000220B5F85610B5F85420914208BF86
:2030200007200FF091FD3DE7A022002038200020AC27002069890100983B00208C010010E8
:203040000010044099C30000D8210020E03800205136010000000460ECD3010085BD000081
:203060002DE9FE4F0546DFF82C04DFF82C640278002A4CD0052A73D0062A00F08080072AB1
:2030800018BF082A00F0F5800A2A00F0D681112A02D0132A70D0F4E1DFF80034187800212C
:2030A00017F048FE04001EBF606D407810F00C0F2DD0216DC0064CBF886CC86E016801F161
:2030C00008050622A91C684616F06EFD287800F00F0105291BD145096946C0F3801017F0D6
:2030E000A5FD002813D03168684617F09BFD0746316804F1380017F095FD87420DD0606D1E
:203100004178C80604D440F2014017F087FDBEE1607B40F002006073B9E133681E2010FB55
:2031200007F6981906226946C01D16F03DFD606D4178C806F0D5A17B0129EDD1DFF8600396
:203140008178480605D5E90703D4206D41F20A4102E0206D41F2044141804183418696E1D2
:2031600017F020FA0028FAD10FF020FA012802D0012017F04FFD8AE110F0F3FC87E1DFF81A
:203180002453286817F042FD0400F7D020790328F4D1207A00F00F01072937D1C24800684A
:2031A0004169497A4A1E11425CD0617A04F10A035A5C02F03F02252A54DBA17A8A09012A9E
:2031C00050D111F03F0F4DD0007C16F0D9FCE17ACA074CBF04F1110204F10B028B0748BF31
:2031E000921D0B0748BF921CC90648BFD21C1278520916214A43AD498B180A31EB608A5AE9
:20320000428699898186DA89C2862BE000F00F00082827D1A17A880924D119B3A248016820
:20322000087C16F0ADFCE17A074688071AD5062201F001015143601800F10C01684616F05C
:20324000B3FC207AC009694617F0F0FC50B1306800F10D01684617F0D5FC18B90521384627
:2032600015F0AAF92079032802D0002014F0A6FF03E1DFF83CB29BF802000024FF281BD0D3
:2032800016F07EFC804608F16C09D9F8040017F0BDFC2A460179032901D011000CD0836826
:2032A000197801F003008D06009003D50124009818B9BFE01000FAD0E9E05D7803F1020AE9
:2032C00034B31AF8010B7B4B01902C2098F806C01F6810FB0CFC67444FF0010E87F805E0F9
:2032E000002A1F6898F806E007F11A0C019F10FB0EFE07F01F070CF80E7098F806701B68AA
:2033000010FB07F01844019BC3F38113C3761AD10098032808F217171AD0ADB199F8000081
:2033200068B108F1F4000278012A0DD1594B1A78072A04D0082A04BFC078012804D13D2140
:20334000797001203870A2E05B4A1378012BFAD098F8940070B32D1FEDB253462A46404652
:203360000EF060F800281EBF54490878002807D13D21797001203870306817F03FFC86E085
:203380004F4801688847064698F80610DBF804204FF4D07041435018002280F8412108F50D
:2033A0009E700168807949080EF00EFC45490A6830469047009803281ED043494869007891
:2033C00082070DD598F89400002814BF281D28464A691178CA0748BFC01C1AF8000000E0CE
:2033E000812089F808002A460098C3B29BF80200514605F037F81DE09AF800001CB11B2837
:2034000004BF022D01251C2803D230490B5C9D4205D0B8700721404617F070FC0AE01D484F
:20342000017808295146404602D117F079F801E0FEF7CEFED9F8040020E0254C207830B317
:20344000244D286817F0E2FB08B3017903291ED1017A8A0611D5807AE178C0F381129142DA
:2034600002BF217900F01F00814206D1A078002801BF607800280121A170286817F0BAFBC9
:2034800005E0002014F09AFE862017F04FFCBDE8F78F00BFC80F0020680F0020D50F002017
:2034A000C00C0020BC0A0020540F0020E0070020780E0020CC3F0020D20F00205A40002024
:2034C000382600203C260020F8CF0100D8D20100543F0020AC0C00202DE9F84FDFF828543E
:2034E000A9780024FF2904BF002014F067FEA87816F046FB054605F1680605F5C97731682A
:20350000086805F1900808B1EC8311E0B07B002804BFB07E00280BD198F80010002904BFC0
:203520003878002804D1287F012804BF688CE8832989E88B4118491C6981284617F056FB59
:2035400001281EBFDFF8C4030178012903D12989EC83491C69814FF6FF79B07E01280DD1EE
:20356000B28B6989288917F03DFB38B1298968894A1C93B298422FD0B08B23E098F800004E
:2035800001280FD1B8F802206989288917F02AFB40B1298968894A1C93B298421CD0B8F8CC
:2035A00002000FE03878012816D17A886989288917F018FB80B1298968894A1C93B2984242
:2035C0000AD0788892B2904206D04844688180B217F004FB4844E883387801280FD1288917
:2035E0007988401C80B2884209DB7C793C71022038702346A979224600200AF0F7FA05F52A
:203600009A71087920B128890021401CE9836881B07E012813D12989B08B4B1C9BB2984214
:203620000DD1688117F0DAFA804605F12E008188308C01FB080828460EF084FD03E005F167
:203640002E01B1F80480E88BB14B411C01FB08F82968CA6840F6C41909FB0822CA60AD4922
:20366000DA7BD30702D56B8A00220BE00A88521C93B2012B03BF05F59A7CBCF8063003F220
:20368000DC536B8A03FB08F34FF4C87CB3FBFCF35B1C6B610A8085F82000C5F818804FF0EB
:2036A0001C0BDFF874A2AB79DAF8000000F108021BFB03F3D1582A68116100F10801AB79AE
:2036C000D26868691BFB03F3121ACA50DAF80000AB7900F108021BFB03F3D1582A689160E4
:2036E00000F10C02A9791BFB01F10C30535C03F0F00343F002034354DAF80010AB798A1C55
:203700001BFB03F30021D152387908B914F056FDDAF80000AA7900F1100138791BFB02F2DE
:2037200040088854A879DAF800101BFB00F00844002141743879042814D1A879DAF8001075
:203740001BFB00F001F110021031135C3A7A43EA82030B54AA79DAF800001BFB02F20244A5
:2037600020205074DAF80010A87901F112021BFB00F0002111526949A8790A6802F1140363
:203780004FEA401C143253F80C00AB79D5F814C05B0100EB4C00D050B07E02280DD10A68D7
:2037A000AE7902F11403760114329859AB7995F82E605B0119FB0600D05005F12E02544893
:2037C000C37BD8075ED5DAF80000AE7900F108041BFB06F60830A359AC791BFB04F4A3F592
:2037E000A8630351DAF80000AC7900F108031BFB04F418592B6898600446494800FB084847
:20380000C3F810800868AE7900F1140476011430A359AC79640103F5F663035138790428FA
:203820000BD10868AE7900F1140476011430A359AC79640103F5616303510868AC7900F135
:20384000140364011859C5F83401364B186B0C68AE799288006804EB461742436424B2FB62
:20386000F4F409FB04F0A0F596692F48C7F81C900278012A2FD10868A97900EB411201205C
:20388000D0722FE0042C0BD10868AE7900F1140476011430A359AC79640103F561630351DA
:2038A000387904280CBF4FF4AA504FF4E6600B68AE7903F114047601A359181A938809FB30
:2038C00003F3A3F516739842BFD30821284614F073FE012016E0586A0968AA79407801EB48
:2038E0004213D872A879DAF800102A681BFB00FB01EB0B00506007210C48017028460EF083
:20390000E7FB0020BDE8F28F780E0020D10F0020980C002046400020980E00209C0E0020DF
:203920003CF6FFFFF8CF0100CC0F0020C80F00202DE9F04F0F46380589B018D5DFF8E45382
:203940002888FF280ED0C0B216F01AF9040009D0A079162117F03EF9204616F007F92046EA
:2039600009F0E4F9FF20288087F40060D6E1F80504D510F0C0FF87F48070CFE1B80604D5D1
:2039800016F0E4FD87F02000C8E1F8070CD516F0CBFA30B100218160DFF88C03006800B1F3
:2039A000804787F00100B9E1380704D516F0D0FD87F00800B2E1F8060FD5002100220023E9
:2039C0000691059204910393029101920091022017F0FCF887F01000A0E1B8070FD50021EE
:2039E0000023069105910491039302910191009101223C2017F0EAF887F002008EE17907C6
:203A00004FF01E08C94EDFF828A340F1CD80C9480022002108920791007817F08BF9044637
:203A2000C5488178FF2904BF002014F0C7FBA07A16F0A6F805469AF8000095F82E910028A0
:203A400005F5947B69D0606D807A022818BF032807D130680D3017F0B5F810B93068C11D91
:203A600007915946484617F0E1F8A0B3606D807C3368002818BF012804D11946584617F0E9
:203A8000D1F804E05A464946184617F08BF9FF2843D018FB00F83068404406225946C01D5C
:203AA00016F082F8306810F80810404400F1010BC01D41F0020908900622616DC87A00F074
:203AC000010085F82E01606D00F10C0105F5947016F06AF821E05946484617F06FF8E0B1DB
:203AE00030685A46494617F05DF9FF2815D018FB00F8306840440D3017F064F858B9306826
:203B000040440D3017F05EF8002801BF30684044417F012901D149F0020905F12C004B46D0
:203B2000017806914289120905920122698C0491C0880899029140080390CDF800B00798E0
:203B400001900020A97917F041F8D5F89C017B4988420CBF00210121A87917F02BF8784841
:203B6000AB7902682C214B43134401221A73AB7904684B4323445A73AB7904684B432344FE
:203B80009A73AB7904684B432344DA73AB79006811FB03F10144002008740720A9790EF092
:203BA0008CFE87F00400B9E038060FD50021002306910591049103930291019100910122D0
:203BC0003B2017F003F887F08000A7E0F8045DD55C4930680C680D3016F0F4FF002844D1B8
:203BE0003068C11D0D3016F0E1FF3EE0606D4178480704F13E0526D5287802281EBF032834
:203C00006878012830D16978306804F1380217F0C9F88146B9F1FF0F15D0306818FB09F919
:203C200048440D3016F0CEFF68B930684844C11D0D3016F0BBFF30684844C11D062204F1A9
:203C4000380015F0B1FF2878022818BF03280BD130680D3016F0B6FF30B93068C11D0622B8
:203C600004F1300015F0A0FF2468002CBED13648DAF8042000784FF4805112F08DFA10B1EA
:203C80008E2016F08FFF87F4805047E0B80505D516F062FA2D4901200860FEE7780504D53D
:203CA00016F0F2FC87F4806038E0780405D5812016F078FF87F4804030E0B9042DD5244CAF
:203CC000206810B1002014F079FA4FF0FF3020600020204C0DF000FF216851F8202F6846BF
:203CE00090471D494A6B086BC96A24681B4B019200900293ADF810106B46194A19491A48E5
:203D000003921A4A07922568194AA8471949086003F07AFB87F4005000E0002009B0BDE8D7
:203D2000F08F00BF2A250020480F0020680F0020880E0020D70F0020780E00204DE5011023
:203D4000CC3F00204C0F0020C70F00207C052043380F0020200F00203C220020099F010006
:203D6000199F0100443F0020303300201EFB0080EC0A00201C0F00202DE9F041FF280646B0
:203D80002AD116F0A9FA10F01F0F22D0042013F0E1FA08B1042016E0012013F0DBFA08B1D8
:203DA000012010E0022013F0D5FA08B102200AE0102013F0CFFA08B1102004E0082013F045
:203DC000C9FA20B10820BDE8F04113F0FBBA14F0F5F90020BDE8F08113F0F4FA5FEA00082F
:203DE00014BFD8F804500025012E46F2A81740F6C4140BD0022E69D0042E00F0B780082EA0
:203E000000F01081102E00F05781E2E7012013F0A1FA00281EBFDFF86803006800281CBFE1
:203E20008788BF00102013F095FA18B3102013F0C9FA040002D066685EB900E0002602204E
:203E400013F088FA28B1022013F0BCFA040018BF66686DB1012013F07DFA002818BF002E9A
:203E600006D0B068C11BA86815F0EAF800282BD02046AFE7022013F06DFA38B1022013F0C8
:203E8000A1FA040014BF666800260AE0042013F061FA50B1042013F095FA040014BF6668F4
:203EA0000026002DE4D001203EE1082013F052FA28B1082013F086FA040005D052E0012094
:203EC00013F048FA002885D0404683E7022013F041FA58B1AB480168AB48CA69017801EBE0
:203EE00081015318DF88674307F51667042013F031FA38B1042013F065FA040014BF6668E5
:203F0000002622E0082013F025FA98B1082013F059FA040002D06668BEB900E00026012026
:203F200013F018FA88B1012013F04CFA040018BF66680AE0012013F00DFA50B1012013F0E6
:203F400041FA040014BF66680026002D90D00220EAE0102013F0FEF930B1102013F032FA78
:203F60000400B1D06068EAE00220A9E7042013F0F1F950B18548016885484A69017802EB4A
:203F800001139F89674307F51667082013F0E2F998B1082013F016FA040002D06668DEBBFB
:203FA00000E00026012013F0D5F9A8B3012013F009FA040018BF66682EE0012013F0CAF9E9
:203FC00038B1012013F0FEF9040014BF6668002622E0102013F0BEF998B1102013F0F2F9BF
:203FE000040002D06668BEB900E00026022013F0B1F988B1022013F0E5F9040018BF6668EC
:204000000AE0022013F0A6F950B1022013F0DAF9040014BF66680026002D23D0042083E087
:2040200004204DE716F0B6FA08B1D0F89070042013F090F938B1042013F0C4F9040014BF9D
:204040006668002632E0012013F084F958B1012013F0B8F9002D044604D0082013F07AF9F2
:2040600000286ED104E7102013F074F998B1102013F0A8F9040002D06668BEB900E0002610
:20408000022013F067F988B1022013F09BF9040018BF66680AE0022013F05CF950B1022079
:2040A00013F090F9040014BF66680026002DD9D0082039E0082003E7032016F06DFA08B137
:2040C000D0F89870022013F045F938B1022013F079F9002D0446C5D01020BFE7042013F024
:2040E00039F938B1042013F06DF904000CBF0026666816E0082013F02DF918B3082013F018
:2041000061F9040002D066685EB900E00026012013F020F928B1012013F054F9040018BF22
:204120006668002D9ED0102013F014F9002818BF002E97D0B068C11BA86814F081FF002892
:2041400090D1C1E6012013F005F9B0B1012013F039F9040014BF66680026002D05D0102081
:2041600013F0F8F8002818BF002E3FF481AEB068C11BA86814F064FFE1E71020A0E600BF15
:20418000E03F0020500F0020D80F0020540F0020D90F00202DE9FE4F0422FF2101A815F078
:2041A000F9FCDFF86C63B0780024FF2800F0AD8115F0E6FC0546B07815F08EFE834605F228
:2041C00017100178012908BF417800F0268105F17406B07B022820D105F12E0105F12E00FF
:2041E0008A8800899BF81C70A97905F12E0352080009DB880090C7F3C007002F09D00020BD
:2042000016F0CCFC9BF81C0000F0F7008BF81C0002E0302016F0C2FCB47395F89201022834
:2042200008BF85F89241307F022808BF347705F59278B8F80E1019B198F80C0009F03CFDB2
:2042400007200EF072FB6889B24F288105F58D73BA7AF879397B80184118F87A0818797B67
:204260004118009105F58D708188491C81800098B5F81A114118A5F81A1105F58D71488895
:2042800010185880D8F80000F8B1A34995F806E00B681C2103F10E0C11FB0EFE1CF80EC08E
:2042A00030F81CE00099714420F81C101C2195F806C00E3311FB0CFC13F80C3000EB4300EE
:2042C000B0F84A105218A0F84A2013F019FDF879DFF84892002804BFF87A002805D1387B27
:2042E000002804BF787B00283FD09BF81B00ABF80E40C009A2460FD09BF81C0000F00701D3
:20430000022905DA411C61F302008BF81C0003E0A879002116F048F92989E8892C744118B9
:20432000287FA981012804BF688CE883A979012207200EF0C2FA787858B101212977B07858
:20434000002804BFB07B002803D1307F08B9688CE88398F81400002868D0022804BFF87A19
:2043600000285ED188F8144060E0A979002207200EF0A3FAEC839BF81C1011F0070F03D1B3
:204380009BF81B00C00903D0A879002116F00CF9287CB97A05F58D7259B14FF0010A08B1A9
:2043A000E889A8812C74287F012826D1688CE88323E0D188491C4FF0020AD180E8B1D9F8D6
:2043C0000000AB7995F82EE000F1140168694FEA400C40F6C4105B0110FB0ECC0CF5F66C14
:2043E00041F803C0D9F80010A87901EB4010C17C01F0F00141F00401C174A8892989814253
:2044000006D0884297D2081A41F2AB01884292DA108800280CBF3E210821284614F0CCF813
:2044200073E0787A10B1022188F81410F87BC1070ED538692968C86000F59070C860D9F849
:204440000010AA7901F1140052010021815014E0D9F80000A97900F1140249015058C8F83E
:2044600010002D48AB7901681C2001F108024343D0582968C860EC832C77294A50690078D5
:20448000810702D5B87B802800D181203070254991F8200018B12946012016F079F828467B
:2044A0000AF02EFB02281BD1F079022805DB01AA1D4928460FF0D6FC0446284616F06AFBDD
:2044C000012822D020000DD0224601A9284610F0B5F838B928460AF013FB012802D114E040
:2044E000012812D00121284616F050FBFEF7F4FF01280AD0284611F02EFC16F095F8009821
:2045000081B22A46504608F087FCBDE8F78F00BF780E0020980C0020980E00209C0E002003
:20452000F8CF0100503D0020D02700202DE9F84F054605F14C0AE87D9AF80010DAF80470AE
:2045400081424FF00008C0F0918105F1280407F1900907F17306C34640F08C80A87F70751A
:20456000E97FB175DAF808205278930710D5EA7FD30604D5C01E707501F0EF01B175C7F8C6
:2045800074B086F800800022B17D01F0FE0168E1910608D4E08B00B1E07E3076E08B00B1C1
:2045A000206AC9F80000DAF808004178CA070DD5E08B00281CBF206A002807D0C9F80000B2
:2045C000A17EE08B814238BF08463076E87FC1060CD5B86B217800EB8100B863B86BA98CF9
:2045E000A63100EB81007867022002E0C7F874B000203070DAF80800417811F0030F22D159
:20460000007815F0CBFF5FEA00081CD098F8B000032809D1E87F810615D440F02000E8774B
:20462000B07D40F020000DE068B9E87F81060AD500F0DF00E877707DA0F112017175B07D50
:2046400000F0DF00B075E97F002201F0FC01284609F052F8B8F1000F36D0E87F810633D589
:2046600098F8B00002282FD141462846BDE8F44F15F0A2BFE87F81060AD500F0DF00E87792
:20468000707DA0F112017175B07D00F0DF00B075DAF808004178C80717D5B07D717D00F029
:2046A000F700891E01F03F0182075CBF891D40F00200420644BF491E00F0BF00B075717543
:2046C000C9F800B086F81880D0E09AF80020E87D121AD2B28907009240F18080012A07F166
:2046E00040083ED1B86BA98C00EB8100B863A87F00F03F00A8777075E97FB175DAF80820A2
:2047000053785A0703D5801F707501F0FD01B1750023717D98F80000E27E01F03F018A1828
:20472000C0F38001521C00F0030016F08BFA00F59B70A8841E2180B290FBF1F0B17D82B2EE
:2047400001F0FE01284608F0D7FF86F800B0E08B00B1E07E3076E08B00B1206AC9F8000078
:2047600084E0B86BA98C022A00EB8100B86325D1E87FC10706D5707D811F7175B07D00F03A
:20478000FE00B0750023717D98F80000E27E01F03F018A18C0F38001521C00F0030016F087
:2047A00051FA00F59B70A8840022B17D01F0FE01284608F0A1FF607FA8F81A00617F00982B
:2047C000491C081AC0B201281CDDB96BAA8CA63201EB820179670221317014E0B86BA98C2D
:2047E00000EB8100B863617F0098081AE97FCA06C0B207D5B96BAA8CA63201EB8201796791
:204800000221317090B395F81F80A97FD9F80020E37E1A44C9F8002028F00108DAF8082091
:204820005278530748BF28F00208920748BF28F00808012807D1207F3076C7F874B028F022
:20484000100886F800B001F0C004404616F0FEF900F03F002043707586F81680002208F035
:20486000FC012846BDE8F84F08F046BFBDE8F18F2DE9F04F8FB0074618984FF0000C002AB9
:2048800001938DF8200000F08D810AA80E464FF0200A002400F1100ECDF800E0114611F83A
:2048A000010B25280E910CD0002800F07781022EC0F00C81013E002F00F0078107F8010BB6
:2048C00004E15378901C0E902D2B07D14FF00109D01C8DF80D900E90937803E04FF0000983
:2048E0008DF80D90302B05D10121069110F8011B0E9002E01946CDF818C04FF0FF322A2949
:20490000CDF808C004922CD1019D29680A1D2A60D1F80080CDF80880B8F1FF3F10F8011BF6
:204920000E9007DC4FF00109C8F100088DF80D90CDF808802E2925D1CDF810C0024612F849
:20494000011B2A290E9220D1019D29680A1D2A60096821EAE17BCDF810B0417802300E9091
:2049600027E04FF00008A1F13002092AE0D810F8012B08EB880501EB4501A1F130080E90EC
:204980001146F0E74FF0FF3B13E04FF0000BA1F1300009280AD812F8010B0BEB8B0501EBD6
:2049A0004501A1F1300B0E920146F0E71046CDF810B0302B41F0200306BFCDF818804246F2
:2049C00000226C2B06D101218DF80C1010F8011B0E9001E08DF80CC0CDF81CE00AAB692988
:2049E000CDF814C0099301D064290CD1019B1868011D19609345C8BF5A46016870466FF017
:204A0000090306921EE075290AD0A1F16F03092B5FD8DFE803F0058C6A6AA76A6A6A6A059A
:204A2000019D2868031D2B6078294FF0080308BF1023752908BF0A239345C8BF5A460168BE
:204A4000069270460DF042FDDDF800E00990AEEB00010591A8EB01004FF0000CB9F1000FB6
:204A600002901CD109E0022E06D3013E1FB107F801AB029800E00027013401380290F2DA9E
:204A80000DE00998022E07D3013E27B1007807F8010B099800E000270130013409900598A0
:204AA000411E00280591ECD19DF80D0078B10298013802900BDB022E05D3013E17B107F8F8
:204AC00001AB00E000270134F1E7002701340E9AE4E6632909D1019A1068011D116001211E
:204AE000006805918DF82800B4E70138022E0E9052D36FF000400BF1010186426FF0004040
:204B000038BF30460246B34538BF0A46002908BF024604920EA9019A02AB05F005FBDDF80A
:204B200000E09DF80D90DDF80880059992E7019A10231068011D11600821082206919DF89B
:204B400020100029016870460DF0C0FCDDF800E0A0F101014FF04002099100F8012CAEEB03
:204B6000010176E7019A1068011D11609DF82010006800290D49002808BF0846099015F0AD
:204B80006EFA0146834538BF59461BF1010208BF0146DDF800E05CE700215BE70FB10020B0
:204BA0003870A44660460FB0BDE8F08FE8C001002DE9F84F05004ED0DFF8EC8298F80000DC
:204BC000092818BF0A2804D00B281CBF0C280D2801D1212065E1A878002116F0ABF8040009
:204BE00008BF4220F6D0B14FA978DFF8C4A2397098F8000010B9A8788AF8000004F1480681
:204C0000F068417801F01201022902BF706900280C2012D0607AF0B1A07B012804D1B5F843
:204C2000030008B1812816DA6878402813DA204615F0A8FFB06808B9072032E1B56128780F
:204C400001281FD1A07B00281CBF0128042819D19848007808B9122023E197494A78824229
:204C600008BF0920F8D0F068417848070AD504F1220180204A7F04F1380106F07BF908B16B
:204C80000B200EE1687808B911200AE12878DFF82C92DFF82CB2012840F0B2800021217313
:204CA000F166217A012903D1B16968794871F7E011200DF03AFE012000212072E172617318
:204CC000254609F0D5FB6060DBF8000080477D4A0146106802E06A68426000680028FAD10F
:204CE0000846D9F8001088476968774848610021387815F045FC3978012211200DF0DDFD8A
:204D0000F0684178C80605D5284601F05BFA010024D0C6E0688C15F085FC85F82100F0681B
:204D2000007815F03BFC04001CBF94F8B000002807D0E87F40F02000E877687D40F0180062
:204D40006875284615F072FC0100E2D134B194F8B000012804BF284615F02AFCF06841782A
:204D6000C8071CD505F14204A18800291CBF3068002814D022788A4211D20F2015F0FEFEED
:204D800068B1F06801788DF800100F20A288ADF8012021788DF80310694615F0EBFE98F817
:204DA0000000A0B94949087800281EBFF068417811F0030F03D04648006815F0D7FE11208B
:204DC00088F800000121297215F02EFC68E0284612F0ACFD00281CBFB168002960D0AA7B6C
:204DE000012A04D02A69808802EB800202E0486E2A69821895F8B810104609F0B7F94FE062
:204E0000207A00284CD0DBF80010884705463878012115F0B5FB00202E4920720A683E78DF
:204E200011460B68187A002802BF586D0378B34203D0C9689142F4D10BE0274E307801282B
:204E400007DD084612F032FA15F096F83078411E31703A789AF80000824217D115F064F866
:204E60006168884212D112F04BFF40F2014015F0D5FE1A491A4A1B4808600121107808F0F1
:204E80001BFFD9F800102846884709E0204615F069FED9F8001028468847204611F056FF45
:204EA0000020BDE8F28F00BFC80F0020D60F0020D50F0020D40F0020780E00203C260020C2
:204EC000382600204C0F0020517F0000880E00206C0F0020E03F002057400020480F00204B
:204EE000C70F00203D8C00002DE9FE4FDFF81883D8F804601EB9BDE8F74F15F02FBE30788E
:204F0000DFF80893C24FDFF80CA3012818BF02280AD004281CBF0828102805D0402818BF01
:204F2000802800F09F8067E115F0DCF90028FAD0012012F00FFA20B1012012F043FA12F047
:204F4000D1F9082012F006FA20B1082012F03AFA12F0C8F93078FEF70FFF050014BF6C6814
:204F600000249AF80100002850D015F059FB14F007FE064630680090D0F804B0B0798AF835
:204F80000300CCB10099284615F048FB022813D02978012902D008290CD02DE128B915F097
:204FA000D9FD00F5E8504C30A060012088F8020011211BE1082016E10098017880290CD1EB
:204FC0000820954938700A78DBF81400012A1ABFD9F824100978012113E007203870B07923
:204FE00014F07AFF0446207BC10748BFB0795AD489480178DBF8140001291CBFD9F82410EE
:205000004978C172B0798AF80200B9E0002D12D02878AE420AD1012818BF082802D1002CAD
:2050200003D1EEE0002013F0C9F8E0E0012803D0082800F0D780DFE0002CF2D015F08AFD7E
:205040000146A06801F5C241A83113F0F9FF28B915F080FD00F5E8504C30A060112038704F
:205060000121BCE09AF80100002800F08B8015F0D7FA14F085FD054628680090D0F804B079
:205080009AF8020014F07CFD0190A8798AF803003178402911D1A87914F01EFF0446207BAD
:2050A000C1070AD5A87914F06BFD052113F084FA207B00F0FE002073A3E015F00DF910F06B
:2050C0001F0F3AD0012012F045F920B1012012F079F912F007F9082012F03CF920B1082077
:2050E00012F070F912F0FEF898F80200FEF744FE064674680CB3009915F090FA02281CD05F
:205100003178012902D008290DD013E028B915F021FD00F5E8504C30A06011203870012141
:2051200088F8021004E0082088F802001221397030465DE0002013F041F80198A8421FD0F2
:20514000009935480A78802A0BD10821397000780128DBF814001ABFD9F824100978012156
:205160000AE007223A7000780128DBF814000EBF0121D9F824104978C172A8798AF802005D
:20518000009835E015F0A8F810F01F0F39D0012012F0E0F820B1012012F014F912F0A2F8EE
:2051A000082012F0D7F820B1082012F00BF912F099F898F80200FEF7DFFD054628786C6842
:2051C000012802D008280DD01BE0D4B115F0C2FC00F5E8504C30A06001211120387088F860
:2051E000021004E06CB188F80200122139702846BDE8FE4F08F032B9BDE8FE4F002012F0E7
:20520000DDBFBDE8F78F00BF6C3F0020F8CF0100C80F0020780E0020CC0F0020F8B51446D6
:2052200000254FF48067DFF89862C21B84B006F1880337D0921E3CD0521E44D0521E4AD0EA
:20524000521E50D0521E54D0521E00F07A80921E00F07C80D21E00F0AC80521E00F0B78091
:20526000921E00F0C080521E00F07B80521E00F0C180521E00F0CF80521E00F0D280521E81
:205280003ED0521E56D0521E4BD0921E00F0DE80921E00F0E280521E00F0ED80521E00F0B2
:2052A000F98000E101290FD12078022817DC707003E1012908D12078022810DA0028B0701A
:2052C000F6D1B074E3E0012940F0EB802078052805DAF070F1E001296CD12078022880F2EB
:2052E000E0807073E9E0102964D110222146754814E001295ED12078022863DA3071DCE035
:20530000012957D1207802285CDA00287071F6D00120F074602206F12801184614F044FCAB
:20532000CBE00129FCD12078022802DAB07114F003FEC2E001293DD12078022842DAF072ED
:20534000BBE0012936D12078F073B6E0002931D115F0B8FC10B9FBF7A8F81DE00120F0752E
:20536000ABE0072926D10622611C02A814F08CFA00950023217801AA02A809F095FEB0B907
:20538000F07A10B915F09EFC10B1F07A012808D19DF80400FBF79AF80546502013F0A0FE95
:2053A0001EE0716A9DF804200120885485E0342583E0012975D1717C2078022903D0C11F6A
:2053C0000A2902D36DE010286BD1307475E0012967D1B17D2078B075002908BF01286CD168
:2053E000FAF7EDFF69E001295BD12078052858DA307562E0012954D12078022851DC0028ED
:205400004FD07074022803BF102030740120002015F09CFB51E0012943D1207814F074F875
:205420004BE0707900283CD1602908D1002C38D060222146184614F0B7FB012004E0012961
:205440002FD1002C2DD02078F07436E0012928D13CB320781C4908702FE011BB15F032FC7C
:2054600030B9FBF7CAF80546502013F039FE24E00120307621E0012913D12178022910DA12
:20548000012904BFB078002816D0B174084614F05BFD12E0012904D120780228B8BF70750B
:2054A0000BDB182509E00F2806DA022904D1218811F05AF8054600E00225284605B0F0BDAB
:2054C000B41C0020E43D00205E4000202DE9F04F89B0A04E0546A04F30780328387040F07C
:2054E000AC8000203070387002AC204614F0EDFF2046002113F040FE984CB8602E2120469B
:2055000014F06CFB4FF0FF30A0822061E06012F04DFD0020294610F093FA07F11001F86006
:2055200014F0AFFFD7E905128D4DB1FBF2F0C0B2022828BF022020702870B2F5005F7AD15C
:20554000B1EB403F77D3F968002974D04FF6FF7100274FF088586FF0030B61808149616044
:2055600087426DD2FEB2002108AA0423304614F003FC07EB470004EB800A0898D14600F4A3
:205580007C0129F8160FB1F5402F04D000F07F41B1F1164F3ED1C0F301418AF819106FF09A
:2055A000FD0151FA80F21021022A31D3C2B27E2A2ED003A811F062FD304600214FF08852FA
:2055C0004FF400534FF4005514F0D6FB1BFA85F5A8B250F808104A1C01D10328F6D801222B
:2055E0000126D3B2042B06D8CBB2FF2B18BF16460132090AF5E740F808105C4803990068FE
:2056000042685B48904755FA86F199F80000544DAAF81C10C0B2702807D0782803D0FE2826
:2056200005D07C2804D1E77002E0277100E0A7702878013794E70120307009B0BDE8F08F63
:20564000E178FF2903D0DFF81081012529E02179FF2904D0DFF80081E170022521E0A178DF
:20566000DFF8F480FF290ED00131B1FBF0F202FB101000EB400104EB8101898B09B1E07041
:20568000EBE7FF20A07000250020E5700AF02CFD98F8001008437E2188F80000002011F021
:2056A000A5FFA078FF2813D12D48E17800780131B1FBF0F202FB1010A0700AF015FD98F854
:2056C00000100843FE2188F80000A07811F08EFF2548E278022D057002EB4200627004EBCF
:2056E0008000818BE18028D0012D2BD103AD002788B2182826D30739D0B22A4689B20BF0E9
:205700008BFC9DF81700400717D5E088BDF81A10E6782A4603230097401A073881B230460F
:2057200005F008FBE27820B9BDF8181009B196420BD0964206D0E188DAE70120607100200A
:2057400000F0FEFB98F8000077E79DF81C000FF0D3FEF7E7B12600202C250020F83C002057
:2057600063400020FF00002064400020D8010010004003402DE9F04F8DB0044600209A463B
:2057800016460F46CDE90B00CDE909008748856880460DF059FC1C2803D00DF055FC1B285C
:2057A0001BD1308840F60201884218BFB0F5C15F03D1F07B022810D93EE043F6070188422B
:2057C0000BD196F82400032807D33069784940F0806020F0604088422ED100206FB366B3F8
:2057E000387825FA00F0C00726D03046002114F0E7FE7048C4E90176006880B109A80090F7
:205800000CA90BAA0AAB304605F00AFF0B980B214FF6FF72502313F0C3FAFF280CD014F036
:205820007DFC654F06467878012802D840B1012070E0304614F016FE00200DB0BDE8F08F0B
:2058400005F062FE5D480DF10409016841F0020101605B48C8F80000484614F0DDFADFF8A2
:2058600064B15A494A469BF801009BF8005003905548283011F03CFF554856494A4611F0D8
:2058800037FF484614F050FADFF84C81534A19214B460295404611F001F8514A08F11C0023
:2058A0001A214B4610F0FAFF4E484F4914F0ACFD4E484F4914F0A8FD4E48006810F4402F00
:2058C00006D04D4A07F128000421002313F028F89BF8020010B10D2009F040FC08F14000DF
:2058E00014F02EF808F1380014F02AF84349002007223876B8843862386181F86020052116
:20590000C7E902103E49F96138700420002113F0C7FA78782C4941F82040013078703046A6
:2059200014F0A0FDBAF1000F06D10DF1040A35492022504614F09EFEDAE90012BAF810009C
:20594000DAE90635002AB2FA82F608BF40F6C4126261216060832563760926764FF4FA76AB
:20596000C4E9036201226276274AC4E90722C4E90923DAF80C0000B12062DAF8140000B152
:205980006062DAF8080000B1E06104F13800C82114F024F904F15000002113F0B1FA1B49CA
:2059A00004F1B80014F030FD204646E7CC2108400F000005642700203820002000200940A1
:2059C000110000E0ECD30100D82100209D930100203C002031E50000A022002051360100D0
:2059E0008D1E0100DC3B002045890100983B002049930100B44F0050D14E0100E03800207A
:205A000085BD000004D20100B77501009BA401002DE9F84F012000909A4E9B489B4F0278C3
:205A2000112A02D0122A0DD026E1994C2078002115F080F997490546087810B100220A7015
:205A4000B7E0002D00F00B819348DFF850A2DFF8508238600122217811200CF02EFF696D35
:205A60004B78286DDC0641F6080240F1E180044641F20443B4F802C04FF4A0599C451FBFEC
:205A8000B4F81AE09E45B4F832C09C451CD095F80EC0BCF1010F04BFB5F89EE09E4513D046
:205AA000B4F802E041F20A439E451FBFB4F81AB09B45B4F832E09E4506D0BCF1010F04BFCA
:205AC000B5F89EC09C4503D13380C7F800A072E0002340F2FE3B4FF0180C0CFB03FCA444C3
:205AE000BCF802E0A6F800E0BEF1010FF3D0BEF1000F2CD0AEF1020EBEF1010F27D9BEEB3F
:205B00000B0E1AD04FF48063BEEB03032BD04FF4406BB3EB0B031AD09B1E012B17D91B1F1F
:205B200015D040F2FA3BB3EB0B0337D05B1E2AD0D81E18D0001F16D035E0B4F800C040F659
:205B4000010EF44503D15B1C022BC4DD33E0A87B01281CBF0428A6F80090C7F800800120F0
:205B60000BF015FE27E0A87B012806BF41F20241ACF80210ACF80290308890420BD1002017
:205B80000BF005FE07E04978CA064CBF816CC16E086800210171C7F800800CE0002012F018
:205BA0000DFB832003E0002012F008FB842015F0BDF8012063E03868504557D1A06C01689E
:205BC00001F10805A91C2878C0F38012402005F0D1F9002801BFA06C0168087903281ED105
:205BE00094F86C0001281AD1D5F80E0000281CBF288B002813D095F8220010F0E00F0ED180
:205C000005F11E0014F09EFF012808D1688B298BAA8B401C89004843B0EB021F26DBA6F826
:205C20000090C7F80080A06C0168002008711DE0418E318041F20443C91A01D0891F01D162
:205C4000D04609E0408890420CBF002001200BF09EFD41F206403080C7F8008006E014F0B7
:205C600099FC58B1C0880F493080396001210E4A107808F021F801E0002000900098BDE8BC
:205C8000F28F00BF9A0F0020C80F0020480F0020D50F00205B400020756B0210B513000014
:205CA0003D8C0000FF3A0100C70F002082492DE9F043824C824E20700A22002008600D23C5
:205CC00080484FF40A7102704380818085B07E480660B77E7D480770FF2FF17E4170327F37
:205CE0008270737FC370B57F0571F67F467108BFFF2914D1FF2A08BFFF2B10D1FF2D08BFF5
:205D0000FF2E0CD172490A7802704B7843708A788270CB78C3700A790271497941716D49CA
:205D200002786D4D6D4E6E4F0A7043784B7082788A70C378CB7002790A714079694A487142
:205D4000FF2028706870A870E87028716871002065490880F06B6549407808706449F06B3B
:205D6000007808701388634863490380F06BC06C08606249F06B90F83C0008706049F06B89
:205D800090F83D0008705F49F06B90F860000870F06B406901795C484A1E0270F06B5B4968
:205DA000C0783870F06B8069086008B912F006FAF06B5749C069086008B912F0FFF9F06BF2
:205DC000416D54480C2213F0EFFE14F0B7FEF06B5149006A086008B912F0F0F9F06BDFF8FD
:205DE0003C81406AC8F8000008B912F0E7F9F06B4B49806A086008B912F0E0F9F06BC06D74
:205E000000B101200BF0CDF900F0CEFF07280AD105F040F920784FF4804107F04DFF0020FB
:205E200012F0CCF944E03F480168884781460CF0C1FED8F8000001688847684613F0F4FF8A
:205E4000D8F8002004208DF80000694652F8043F00209847344908600FF0A2F9F068334A1A
:205E600001883878324B014311804846196888470C21304814F0F0FB284614F05BFE14F056
:205E800055FE2D4800214FF6FF72016082808171F06B90F858102948006814F015F80121B7
:205EA000FF2014F06DFB20784FF4005107F004FF05B0BDE8F08300BF380F0020C70F002048
:205EC000B64F0050700E00203C0F0020400E0020E8120050500E0020480E0020F8CF0100F0
:205EE000C40F00201E2600209E0F0020C60F0020D40F002044400020D43F002058400020F7
:205F00005940002056400020CB0F0020200F0020240F0020603F0020280F00202C0F002005
:205F2000300F002038260020D83F0020A00F00203C260020FC0D0020800E0020EC3F0020DA
:205F40002DE9F04F97B081469948406818B18047002800F0CE80974F0120002104230024EC
:205F60007E78F873BD7808AA304613F005FF089800F44030B0F5403F03D17879002800F057
:205F8000B98030460621F8224FF0F80813F0C0F906EB460407EB840080F818809DF82000A0
:205FA000702803D03046702111F020FBCDF81090069608AA2846002104234FF0000813F0A0
:205FC000DBFE9DF82000FE2803D02846FE2111F00DFB28460621FE22FE2613F099F907F13E
:205FE000160097F80190BA78059500EB8401C988019279826E4981F8008005EB45010391D6
:2060000000EB810101F8026F029109EB490100EB8101B1F806B002EB420100EB810030F848
:20602000061F079100900EA811F028F80FAD1FFA8BF7172F54D35E480078002853D1ABF172
:206040000706484609AAB1B20AF0E6FFBDF8324004F11000B8420FD89DF82E0096280BD146
:20606000A6EB040A9DF82D2021464B461FFA8AF840460CF0E3FEF0B1ABF1010B5C46A0B26C
:2060800016282DD93628A4F1160748462A4688BF2027E41BBBB2A1B213F06EFE3804EED0F8
:2060A00015FA87F010F8010C962801D0013FF5E707EB040BBBE79DF82F00C1070ED1800705
:2060C0000CD50734079E3E49A3B213FA86F00A1A4846414613F050FE26440796D346A6E769
:2060E0003348007850B134480E990068426833489047002420B217B0BDE8F08F079F019EFF
:206100001021C7F50052A7F1100083B2C1F20012304610F0CFFF264C217808430E992070CD
:2061200025480068426825489047224D00980123B5F91220697B07803046A5F814B02F829E
:2061400011F01EFFB5F91420A97B3046022311F017FF049A002A08BF1022288A7C21C0F5A4
:2061600000509042B8BF7821059F384611F03EFA069E304609F0B8FF207038460621FC2275
:20618000FC2413F0C5F80298FE21AE70EF706F700470039805EB8000808BE880304611F0A1
:2061A00025FA00206871E888C0F50054A2E700BF2C250020F83C0020D801001000400340D5
:2061C000002000112DE9F84F0446002000900CB911F0F4FF04F1500569462E68204607F092
:2061E000FFFE08B9072015E1A04641F28839DFF828B2DFF828A2002469684A7A1820604304
:2062000001233718A3401A420AD098F80E103AF81100388000211BF80420BA73F97302E076
:2062200040F6010038800021798007F118007860387B00F0EF00387340F08000387398F845
:206240000E10012916D1002C0CBF02200520397B01F0F0010843387324B914F07BFC00F5F8
:206260007A6000E04846B860787B00F0F00040F0020017E0002C0CBF0221002100F0F000A7
:206280000843387324B914F065FC00F57A6000E00020B860022C0CBF01200220797B01F0BE
:2062A000F00108437873641C06F14800386106F16801032C79619FDB98F80E000024012891
:2062C00008F1A80718D108F19C0070631822314613F06AFC06F118002865C5F854903978BD
:2062E00001F0F00141F005013970787800F0F00040F00200787000E07463B068C8F8100053
:2063000047480178397414F099FCB064454881690978CA074CBF1F210F21826912789307C8
:2063200048BF41F0200182691278530748BF41F0400182691078020748BF41F0800106F190
:206340004C02117054706968887C00F0030008F13E0150700B7863F382005070497894700A
:2063600061F3C3005070D47040F0100050703465746508F13800F06598F80E00012818BF6C
:20638000042815D0A86830B1B0F803009070A968D1F805003065E86830B1B0F80300D070C0
:2063A000E968D1F8050070651F4801684868F06508F13000B065D07D00F0EF00D07540F035
:2063C0008000D07500F0F00040F00600D0752869B0F8030000280EBF144849F640414843C5
:2063E00070661349087838B15078117840F0400001F0FE01507011700E498B78507859068F
:206400004CBF40F0200000F0DF005070009806F017FC0020BDE8F28F506E0210F46B02106A
:2064200055400020F8CF01006C0F002000204E00880E0020C00C0020F8B58D488D4D01785F
:206440002A788A4200F012816A68002400E0641C8C4280F208814FF4D07363431344187918
:206460000028F4D1E0B213F08BFB0121017100224271426200F161018471012200F1680340
:206480004A711A71012400221A609A6000F1900602814281047480F8392082610277C28344
:2064A000327000F592749A76227580271F739A730027FF22DF741A7600F20D131F70DF7037
:2064C000BC46BE4600F5897783F801C083F802E0A7F800C0A7F802C087F805E000F1E70329
:2064E00086F804C083F800C083F801C000F1EC03C3F800C0C3F804C083F80AE083F80CC05D
:2065000083F808C083F80DC083F80EC083F80FC0A7F808C0A7F80AC0A7F80CC0A7F80EC0B5
:2065200047F23057A76100F5C676C4F800C02273A4F80EC084F81CC084F81DC0A2770127F5
:20654000B7720227F77286F80EE086F80CC04A4FDFF828E13F78777386F806C084F80AC026
:2065600084F804C084F805C084F806C084F807C084F808C084F809C000F5B374404F84F865
:2065800000C086F800C04FF01B0C3F88E7803D4F3F882781BEF8007067803B4F3F88A780E9
:2065A000A4F80AC04FF4A477E7812782A4F80CC0E7822783A4F812C0A4F814C06783A78399
:2065C000E78327846784A784A6F802C00127377100240719641C042C87F87720F9DB2B4A0D
:2065E00014780C7057784F7094788C700446D778CF7012790A710021254A501867184078F0
:2066000087F8FD00491C0829F7DB587C214900F0FB005874316100201874A07913F05CFCEF
:206620000646A0790DF0DDFC1B480178307C717300F0FC0030740022B069F28100F0004045
:2066400040F4853040F04000B061307F00F0F80030772878401C2870C0B2012804BFA07987
:20666000A8702046F2BD002011F0A8FD0020F2BDD40F0020780E0020C50F00208A0F002002
:206680008C0F0020980F0020960F0020843F0020C00C00204DE50110F12700202DE9FE4F06
:2066A0008C4802780024521E032A4FF001090AD9103A40F00A81884C2078002114F03AFBD4
:2066C000040000F0038114B9002011F077FD606D4178C806216D4CBF886CC86E0168DFF889
:2066E000FC817F4D7F4E01F1080A06220AF1020101A813F059FA9AF80070DFF8ECA107F0FE
:206700000F01C7F3801003298DF800004FF01E0B2DD101A914F08AFA002827D0606D807CEE
:20672000012818BF032821D1316801A814F07AFAFF281BD01BFB00FB306810F80B205844F8
:20674000411C286814F0EEF998F8001088420DD030685844C11D286801AA14F0DFF9306859
:206760005844062201A9C01D13F01EFA9DE007F00F000528FAD19DF8000001A914F056FAA5
:206780007F0980B3316801A814F04CFA616DFF2821D0897C1BFB00FB022918BF03290BD1AC
:2067A000306810F80B205844411C286814F0BAF998F80010884278D030685844C11D28687A
:2067C00001AA14F0ABF930685844062201A9C01D13F0EAF924E04878C20670D5887CF8B11F
:2067E000012862D11CE03B48017802295DD19DF80010306801AA14F0D5FAFF2855D031684C
:206800001BFB00FB01EB0B00427F012A04D00D3014F0D8F9002848D040F2014014F0FEF9F0
:20682000606D4178C8064AD530498878410605D5F80703D4206D41F20A4102E0206D41F2C8
:20684000044141804183418629480180206D816C0A68816C08680079032802F1080724D1D1
:20686000D7F80E0000281CBF388B00281DD097F8220010F0E00F18D107F11E0014F062F962
:20688000012812D1788B398BBA8B401C89004843B0EB021F09DA174A174918488AF800909E
:2068A00011600121007807F007FA606D4178CA0605D59AF8000048B9216D886C01E0216D21
:2068C000C86E01680020087100E0A1464846BDE8FE8F00BFC80F0020D50F00205840002087
:2068E0006C0F0020680F00205B400020C00C00209A0F0020480F0020B5130000C70F0020C1
:206900002DE9F0470D4629048F4EDFF8408240F1F2808F4F38780BF061FF040018D0217823
