:100000000040012091A3000039FB021039FB0210CF
:1000100039FB021039FB021039FB021039FB0210C8
:1000200039FB021039FB021039FB021039FB0210B8
:1000300039FB021039FB021011FB02100846704711
:1000400070470000002205F01DBCF2060001F31508
:10005000010001F00207D6BE898E2B52FF1983FFE3
:10006000010CF19F01930128B970010100300E903D
:100070000203FF18641B2002785634120F33BAAB08
:1000800015B53FA10D43C5A70D63318415C4060105
:1000900000B8070020C5A7216110E118A101F50BE8
:1000A000A450031E08C080FE201003DD9A0000FB50
:1000B0000412FD0413319B541002990000E3041252
:1000C000E504121B141003D59C0000E70412E90498
:1000D0001007039D000055750000CF0412D10443A2
:1000E000377645835D986D1007D388F30083880FBA
:1000F00000FF01A70208202192B0051772440300F7
:10010000200318636509AEA3012C18A3001EC3C108
:10011000641011F700464488509C601A00A38801BF
:10012000000200DF7D280C20020200F80C78A307F3
:100130003848100D21030F008000520798E0080096
:100140003F01A8801003640300800523C188636415
:10015000030EB20440500308B84E905511F403004A
:1001600010580000FC5BC2033062100E8138F101B0
:10017000C0400268500001C41217C4F20E02C4202D
:1001800008A1000F3333004C02A0E8C4F31F680439
:10019000C48388B80EF11DC4A101E5E8340D2460C4
:1001A000202E6302280128530000538AFFF4900D8B
:1001B0002053C003A30253019860F825A0602614C1
:1001C00092F10C4003A9079C601B10A21878210C27
:1001D000100517722C0500204404125804EB640526
:1001E00030A362099C4F7801680438015555556267
:1001F000B229502325E50E12B044C1D0F20318DF16
:10020000317EB2054090018CD1E43CF93084240168
:1002100004A000C0F7112C06C0B20140200418143D
:10022000DE510B9312C20218228818F40100FFAAB3
:10023000BBD0F93570232028B0F222D8B0610EE18E
:10024000B0210EF103B0D00307088080FE15FE0E2A
:10025000FF19061EB01C0587B007A0139DA2A011B0
:100260000D43FF007F12D01C210452D8049AC0D63F
:100270005D72041300F418F206F41CF00405100873
:10028000002010081C122C182104523404523C0483
:10029000D003C011000008B72110125C1C210443D8
:1002A000A410046301004C41013001A3DF02661277
:1002B00084242104528C04529404529C0452A404B9
:1002C00052AC0470013DC5029E25A0D9E940010051
:1002D00004091312DC2C210452E40452EC0452F4FD
:1002E0000452FC0421302104520C045214048300F3
:1002F00000B06204644003020000704C1C8339ECBF
:10030000886101E5E51260482104526804527004D6
:100310005278045280045288046178F1BF01A51814
:10032000F20E01E15008A947000009480000734798
:1003300029032501520001100770020020AC0800BB
:10034000200111C30100011264182104D2000153DD
:10035000FF7F1260016CDC021C12182852030DF0A2
:100360000401478400008D8450210152DC50A11CFF
:10037000A10CF30160097052901420023411002086
:1003800004523C04120815831053301003F6520037
:10039000202C10F30030534413200165F3017C51ED
:1003A0005C25000002001000000002C013000000E5
:0503B000028010002096
:1010000001000000000000000000000000000000DF
:10101000FFFFFFFF84080020040000000000000024
:101020000000000014000000E8A20000180000000A
:1010300020A40000C0100000D80700200400000019
:10104000000000000000000024000000D0A200000A
:10105000180000007D82000008000000B0110000B0
:1010600074100000C1C8021001BB021091EB021005
:10107000DDE5021081E00210B9E5021071E5021011
:1010800030000000010000000200000028A4000061
:1010900000000000FFFFFFFF5C08002004000000CC
:1010A000000000000000000028000000FCA000007C
:1010B000240000001E0000001800000000000000D6
:1010C00028130000D41000009BEC021025E202104F
:1010D00005EB021025DE0210FDE10210E1E4021032
:1010E000350000003400000024002900000000004A
:1010F000B8070020FFFFFFFFA40800200400000045
:1011000000000000000000003800000010A00000F7
:10111000280000000100000010000000440800202A
:1011200000000000B1A1000000001A001000000043
:1011300004000000F8A30000E679000008000000A9
:101140003600000064080020AC08002009001D00E3
:10115000B9130000FC07002001000000000012008D
:10116000FFFFFFFF940800200400000000000000C3
:10117000000000001000000000A3000018000000A4
:101180000000000000001300FFFFFFFF0C0900201B
:1011900004000000000000000000000054000000F7
:1011A000689D00003C0000000000010034000000C9
:1011B000041000007B5900002F000000599A000025
:1011C000B0110000D811000059D20210D9DB021072
:1011D00059EC0210CDD6021085DE02104DE502104A
:1011E00029E502102F000000000016000200000098
:1011F00000000000FF7F000014090020FFFFFFFF38
:101200008C08002004000000000000000000000026
:10121000580000001C9E00003400000039FB021042
:101220000100350006000000000000002000000062
:10123000010000001BF80210280000002813000025
:101240005012000093EC02106DEB02104DEC0210F6
:1012500029E00210BDE4021099E4021034000000FD
:10126000000000003408002004000000000000001E
:101270000000000010000000E89E00002C000000AC
:10128000000000000000030000000F003C00000010
:1012900000000000000000002FF902101000000004
:1012A00008000000A8A30000FFFFFFFF9C0800202B
:1012B0000400000000000000000000001C0000000E
:1012C00020A10000240000003C120000D0070020F4
:1012D0000400000000000000000000000C000000FE
:1012E000B8A20000180000002766000001000000FE
:1012F00000000000080000000100000004000000E1
:1013000000000000000014000000000030A30000F6
:101310000000190000001800240000005DA4000077
:101320000040000000020000041000000000100057
:1013300055F002100C000000B38200000000000015
:10134000B0070020040000000000000000000000C2
:1013500020000000B89E00003000000048A30000FC
:1013600001000000298400009758000000000000E0
:101370000000170000020000300000000000230001
:101380000000150001000000C01100003C08002012
:101390000400000000000000000000002000000029
:1013A000D8A000002400000060A300004408002032
:0E13B0002000000044A100007047808A7047B2
:1013C000F5810000B3840000B7840000BB840000F6
:1013D000BF840000C3840000C78400003D99000062
:1013E000519E0000259D0000859E000061A2000026
:1013F0006D9F00009DA20000419F000079A30000A6
:10140000E5A30000C188000070B504460D4602F057
:1014100002FD2968002631B10A69A24208BF0E46C2
:1014200009680029F8D102F017FD304670BDDFF8D9
:10143000580A90F833200021130604D401EB8102EE
:1014400000EB0210704790F8832001211306F5D5B8
:1014500090F8D32002211306F0D590F82321032120
:101460001306EBD590F8732104211306E6D590F806
:10147000C32105211306E1D590F813220621130696
:10148000DCD590F8632207211306D7D500207047DA
:10149000B0B4DFF8F439B3F9305000248D4204BF02
:1014A0001F6987420BD1150003D093F833501542C2
:1014B00005D004EB8400B0BC03EB00107047B3F917
:1014C000805001248D4204BF1F6E874205D1150054
:1014D000EFD093F883501542EBD1B3F9D0500224EA
:1014E0008D4204BFD3F8B070874205D11500E0D01B
:1014F00093F8D3501542DCD1B3F9205103248D4227
:1015000004BFD3F80071874205D11500D1D093F8FC
:1015100023511542CDD1B3F9705104248D4204BF3B
:10152000D3F85071874205D11500C2D093F873519A
:101530001542BED1B3F9C05105248D4204BFD3F882
:10154000A071874205D11500B3D093F8C35115425D
:10155000AFD1B3F9105206248D4204BFD3F8F07115
:10156000874205D11500A4D093F813521542A0D19B
:10157000B3F9605207248D4204BFD3F84012814270
:1015800005D1100095D093F86302104291D1B0BC00
:101590000020704730B581B004460D4602F057FA7E
:1015A000A04231BF241A641E241A641CA40805F545
:1015B0007A70A04238BFB4F1405F06D2641B012CA0
:1015C00098BF0124204601B030BD002001B030BDDD
:1015D000F0B581B0044602F01EFC0546002C1CBF8D
:1015E000A07A002833D0DFF8A83B94F909001E68E0
:1015F0000122F70702FA00F10ED5DFF8983B1B68CD
:101600001E0609D5DFF8903B5E68113002FA00F043
:10161000C04306405E6018600020A0722072206007
:101620006060C4E90400DFF83C3CA06194F9090063
:1016300093F860608240324393F8620083F8602040
:1016400010B1401E83F86200C8B200F05AFA284672
:1016500001B0BDE8F04002F0FFBB00002DE9F0470B
:1016600000261124DFF8305BDFF8F89B4FF001080B
:10167000F0B2032846DA09EB4017B87A012841D1C5
:1016800097F90900113008FA00F0C14329606A682F
:101690001043686097F9090008FA00FA02F0BBFBF2
:1016A00099F8D4104AEA010189F8D41002F0D4FB69
:1016B00099F8C400022817D107F1100002F0D4FBFA
:1016C00000F0FF0001280FD1B86948B199F8C410A3
:1016D000022909D102F0C8FB00F0FF00012803D164
:1016E0000220B8720EE000BF99F8610097F9091066
:1016F00004FA01F1084389F86100002109F59E70A0
:1017000002F080FC761C032EB2D3BDE8F087000007
:101710002DE9F04B82B005460E4617469B4602F077
:101720007AFBDFF8402B92F860106FF001088146D9
:101730004FF0000E5FF0010303FA0EFC11EA0C0FEC
:101740002CD04FF0FF34A34518BFF34526D15FFAE4
:101750008EF0032822DA02EB4014A07AF0B921EAD5
:101760000C0082F86000A37284F809E092F862002D
:10177000401C82F8620025602672DFF8140C60605D
:10178000217A0A9801290FD10A21218294F909307E
:101790005B1DA3748068606121E000BF0EF1010E43
:1017A000BEF1030FC8D33BE0022918D140F2036118
:1017B000218294F90910638A491D61F30B23638226
:1017C0004179638A61F3C70363828179638A61F334
:1017D0004E336382C079618A60F30C3161820023E9
:1017E0000B9878B10378417894F909005B0143EADA
:1017F0008103401D43EA00234FF6FC710B40DFF8E4
:10180000A80C0343A3613B0018BF6760D2F8D8005F
:1018100010B92168C2F8D81000F0FBF994F90980DA
:10182000484602F019FB404602B0BDE8F08B10B507
:10183000042820D1DFF82C4A04F5D47002F02DFCE6
:10184000C8B104F5D47002F026FCDFF8601C0A6809
:101850005043B0F5967F0ED204F5D47002F030FC00
:10186000052002F09BFD012084F8D100042104F141
:10187000EC0002F0C7FB002010BD70B5044602F07A
:10188000CAFADFF8106B054696F88C0020EA0404CB
:1018900086F88C400024B06E20B1803002F0FDFB51
:1018A00000B10124F06E20B1803002F0F6FB044359
:1018B00019D196F88C00002808BF002C13D1D6F857
:1018C000880080B190F824108A070CD5046A284655
:1018D00002F0C2FAD6F8880000220221A0470020B8
:1018E000C6F8880070BD2846BDE8704002F0B4BA62
:1018F000F0B400290CBF01230023002A0CBF0125EE
:101900000025002839D02C0004BF90F84440002C5A
:1019100033D000291CBF91F84440002C12D0446BF6
:101920000E6C07690969A408A4EB96040026B94265
:1019300018BFFE68A41B04F18054B4F1805F88BF17
:10194000012301D8190018D0BAB1D1680C7B04F07A
:101950000F04022C11D1516B046C126900698908C3
:10196000A1EB94010024904218BFD468091B01F137
:101970008051B1F1805F88BF012503EA0500F0BC0A
:101980007047F0B581B01E466FF002078DF8007009
:10199000054634682246FFF7ABFF10B101208DF8F1
:1019A00000009DF90000B84201BFE968087B00F023
:1019B0000F0002280CD100E024684CB122682146B7
:1019C0002846FFF795FF0028F6D002208DF800008A
:1019D0009DF90010B94204D1E86B10B104218DF8D3
:1019E00000109DF90070012F06D12946304603F002
:1019F0000AF8384601B0F0BD022F09D12268002A4A
:101A00002946304608D002F0D6FF384601B0F0BD76
:101A1000042F03D12946304602F0E0FF384601B0DA
:101A2000F0BD00207047000030B5DFF8F84BDFF85C
:101A3000345881B06069002161610022E068E16092
:101A400005F590700FF6093102F0EBF9DFF8D81BBD
:101A50000868026B90470246D5F8DC00904231BF1F
:101A6000121A521E121A521CD5F8CC004FF0FF3138
:101A7000A1EB1231814234BF4FF0FF3200EB123242
:101A800095F8D00020B1D5F8E400C00290422ED2E3
:101A9000DFF8FC160868C20725D5DFF8F8060068ED
:101AA000010620D540F60900A5F8B0000021A5F8F0
:101AB000B21095F8BD0000F0F00040F0010085F88C
:101AC000BD0095F8BC0000F0F00085F8BC00C5F83A
:101AD000B410E16105F1B001C4F80010B5F8B2002E
:101AE00010F4406FFAD0012085F8D0000022C5F82C
:101AF000CC2002F0C6F9DFF8AC1B0020086001B072
:101B000030BD30B581B0044602F085F90546DFF8F6
:101B1000540790F8D41021EA040480F8D44090F8D7
:101B2000D420110703D40821EC3002F06BFA2846C8
:101B300001B0BDE8304002F08FB92DE9F04F054605
:101B400081B0002028600024DFF818B7DBF890008F
:101B5000C0B1C1680A7B012402F00F02022A11D130
:101B600001690A69CB8A9BF86270406BD11819220F
:101B700012FB0711FFF70EFDDFF830190A68B0FB02
:101B8000F2F700E000274FF000094FF0FF3A00267F
:101B90004FF01908F0B203281CDA0BEB4012907AD0
:101BA000C0B1107A02284FF0010925D0DBF8D80027
:101BB0000169C08A9BF862300918506918FB03114B
:101BC000FFF7E8FCDFF8E4180A68B0FBF2F05045D4
:101BD00098BF8246761C032EDCD348460FE024B122
:101BE0002F60204301B0BDE8F08F08B1C5F800A018
:101BF000204301B0BDE8F08F01204FF0000A0442FD
:101C0000EDD05745ECD957462F60204301B0BDE8D1
:101C1000F08F2DE9F04FDFF84C8681B098F8C410B2
:101C2000022905D101B0BDE8F04F192002F0F7B844
:101C300098F8C40001281CBF98F8C400042874D088
:101C400002F0E9F800900024D8F890000025C0B117
:101C5000C1680A7B012502F00F02022A11D1016935
:101C60000A69C98A98F86230406B5118192212FB30
:101C70000311FFF78FFCDFF834180A68B0FBF2FBA2
:101C800000E0A346A1464FF0FF3A00271926F8B21C
:101C900003281CDA08EB4012907AC0B1107A0228AF
:101CA0004FF0010944D0D8F8D8000169C08A98F8EB
:101CB00062300918506916FB0311FFF76BFCDFF85F
:101CC000EC170A68B0FBF2F0504598BF82467F1CC3
:101CD000022FDCD948462DE00DB15C4601E000B191
:101CE0005446054317D064B12146012998BF01210C
:101CF00008F5D47002F0E0F908F5D47002F0DEF9CE
:101D00000DE008F5D47002F0DBF9042108F1EC00D5
:101D100002F078F903E008F5D47002F0D1F90098E8
:101D200001B0BDE8F04F02F097B801B0BDE8F08F08
:101D30000120A2460542CFD0D345CED9D3465C463A
:101D4000CFE7F0B585B001460022039201920492DC
:101D500002920025487DDFF8C42B136803F440236A
:101D6000B3F5802F05D1DFF8B82B13689C0358BF5B
:101D700001258C680022628040F6020623889B1BA6
:101D800009D041F21E069B1B05D041F6E6769B1B4F
:101D9000012B11D920E0238A4FF6FF321340238212
:101DA00020B14FF60F400340238215E02D201A4644
:101DB00060F3091222820FE0238B4FF6FF321340AB
:101DC000238320B14FF60F400340238304E02D20EE
:101DD0001A4660F3091222830020487502AE00966D
:101DE00004AB01AA03A9204601F0FAFB50B1039805
:101DF00001884FF6FF72914204D10299019801F0D7
:101E00005DFB03E00299019801F0A0FBC5B3019CC2
:101E100004B9FEE750234FF6FF720B21204602F073
:101E20004DF80546502D2BDADFF8F87AF86801688E
:101E3000884702F08FFE0646DFF85805C0F8E860D4
:101E400030463968CA689047000440F00B0044F8F7
:101E5000250044F20403DFF8D00A016801F540715F
:101E600081620268DFF8841CA2F54072C26244F20B
:101E70000C000A8802409A4204BF304602F083FEFA
:101E800005B0F0BD00000000A80A0020F0B5DFF8A2
:101E90000455D5F89000040081B06AD0D5F8A4109C
:101EA000002940F0F780D5F8A010A9B1D5F8A0100E
:101EB0000A6921698A4217D194F83320D10613D5D3
:101EC000D5F8A020D36859880029F9D0D5F8A010FA
:101ED000CA6851880129F3D02169D5F8D8209142E8
:101EE00049D04FF48061CEE0C1680A7B02F00F0256
:101EF000022A00F0D1800068002800F0CB80C16881
:101F00000A7B02F00F02022A00F0C6800068002857
:101F100000F0C080C1680A7B02F00F02022A00F0C4
:101F2000BB800068002800F0B580C1680A7B02F021
:101F30000F02022A00F0B08000680028D4D101B05E
:101F4000F0BD012840F0A68000900023B6F93010C3
:101F500030690022D4E0022938BF012105F5D47090
:101F600002F0AAF805F5D47001B0BDE8F04002F027
:101F7000A5B8022187E000F10C063068017B01F072
:101F80000F01022931D170680169C28A95F8623067
:101F90008918192010FB0311B06AFFF7FBFADFF86C
:101FA0000C150A68B0FBF2F0F8B1D5F8A0000028D3
:101FB00004BFD5F8A400002817D101F02CFF044677
:101FC00095F8D40000F0F70085F8D40095F8D40017
:101FD000010704D4082105F1EC0002F013F82046B3
:101FE00001B0BDE8F04001F037BF01F014FF95F8F3
:101FF000D41041F0080185F8D41001F02DFF94F8B9
:102000003300C10605F1900004D502F0C0FCC5F80C
:10201000A40003E002F0BBFCC5F8A000D4E906016F
:102020005D4FC043B860FA68D4E906010243FA6024
:10203000D4E90623DB433B607A68D4E9060141EA30
:10204000020078603468204601F00EFF208840F6D8
:102050000201401A08D041F21E01401A04D041F694
:10206000E671401A01280CD8DFF8840A4368190089
:1020700007D0007AC10704D5D5F8D800224601213F
:1020800098474FF0804105F1EC0001B0BDE8F04009
:1020900001F0B8BF01B0F0BD0028FBD0C1680A7BD9
:1020A00002F00F02022A06460ED10169CA68098DA4
:1020B000406B5118FFF76EFADFF8F0130A68B0FBB7
:1020C000F2F100297FF447AFDFF8280A4468002CBA
:1020D000E0D0D5F8A410D5F8A00005F1980305F1DB
:1020E0009002A04702287FF42CAFD5F8A000012170
:1020F00000910123B0F93010D5F8A000006900224A
:1021000001F0B2F801B0F0BD2DE9F04FDFF8849294
:10211000DFF8E40981B0D9F8A08001F022FF06467B
:10212000DFF8D8090468076804F02004344018BFB9
:10213000B8F1000F07F4602716D0C9F8A88001F0A5
:102140006AFED8E90A232343C8E90A23D8E908AB81
:102150004BEA0405C8E908A501F07EFE4FF4804172
:1021600009F1EC0001F04EFF3E400DD099F86110EE
:1021700041EA564089F8610001B009F59E70BDE85A
:10218000F04F002101F03EBF01B0BDE8F08F00002C
:102190004021084000000440081004402DE9F043AD
:1021A000DFF8F09181B099F86100002400284AD04E
:1021B00099F861000026C1073BD599F8610010210C
:1021C000B140084218BF012401F025FE99F86110C2
:1021D0001122B240914389F8611001F03DFE032EB7
:1021E00031DA09EB4612907A68B392F90980DFF888
:1021F000101901EB8801002C0D681668576804BFA0
:10220000107A022803D1D2E90401C30009D4104690
:10221000FFF7DEF92CB10020009000224FF0007390
:1022200003E0009500224FF0006341463046B84776
:1022300009E099F8610001268107BED499F8610090
:1022400002264107B9D499F8610038B109F59E70AA
:1022500001B0BDE8F043002101F0D4BE01B0BDE8FB
:10226000F0830000284A00202DE9F04F0FF284325D
:1022700085B0D2E90034CDE900344FF4804001F05C
:10228000EDFD4FF0000AE8B1DFF87808414CD0F8D6
:1022900013100078C1F31501800841EAC071D4F829
:1022A000D800806802AA01F034FADFF84418D4F8A4
:1022B000D8004B6882681C0004D0097ACC0744BF60
:1022C000012198474FEA0D084FF00209DFF82C680A
:1022D000DFF834B8D8F800703868002844D038687F
:1022E000D0E90623104601F0B9FD3D680021CDE993
:1022F0000201044601F08FFD84467DB1D5E90A2331
:10230000DDE9020110431943C5E90A01D5E90823B3
:10231000DDE9020110431943C5E90801604601F0F7
:102320009BFD14F00A0F17D03868B268D0E9060197
:102330000BEA00008243B2604AF0020A3868326851
:10234000D0E906018A4332603968DFF8C00702F03D
:1023500045FB0020386007E034B13868DFF83410FE
:10236000C1F8A8004AF4804AB9F1010908F104084B
:10237000B0D15FEA0A011CBFDFF8A00C01F042FEF9
:10238000FFF76CF9FFF782FD05B0BDE8F08F0000A4
:1023900013250000284A00202DE9F041DFF8884588
:1023A000DFF88075DFF8688782B0A069E5690540CD
:1023B000F8680168884702F0CDFB0646D8F8E800C7
:1023C00086423CD0C8F8E86030463968CA68904711
:1023D000074698F8C40002281CBF98F8C4000428D7
:1023E00020D1D8F8A000002804BFD8F8A400002805
:1023F0000CD0D8F8A000012100910023B0F93010D2
:10240000D8F8A0000069002200F02EFF4FF6FC7003
:10241000074047F0C167D8F8D800002247F0010113
:1024200001F00BF8DFF8C4160A8844F20C000240F1
:1024300044F204039A4204BF304602F0A4FB206831
:1024400000F54070A0622168A1F54071E162E06989
:102450002840E061E1692942F9D102B0BDE8F0818C
:1024600030B5DFF8AC4681B0B4F9AC00B4F9AE10C9
:10247000884217D101F0CFFC054694F8D40000F053
:10248000F70084F8D40094F8D400010704D408219C
:1024900004F1EC0001F0B6FD284601B0BDE8304083
:1024A00001F0DABC01B030BD010004063853002051
:1024B0000720FFF7E2B9F0B5064681B0D6F870C044
:1024C0000F4614461D46BCF1000F18BFE047D6E981
:1024D0001A0104400D4008BF002C18D08022394654
:1024E0003046FEF7D5FFC6E91E4538B1D0E90823CE
:1024F000A243AB43C0E90823316F816000203067FD
:1025000001B006F14800BDE8F04002F0B1BB01B0F7
:10251000F0BD704700B581B001F072FDDFF8F02525
:102520000146D2F8D800D2F8C82001B05DF804EB1B
:102530001047DFF8DC050FF2E152D0F8C8109142E5
:1025400008BFFFF766BB0421EC3001F05BBD000063
:1025500030B581B04FF0FF3001F080FCDFF8B055AE
:102560000FF2B5510446D5F8C800884233D1002295
:10257000DFF8AC1A05F5907001F053FC022085F8E5
:10258000C400D5F8D8108A6801F130035068A8B1AA
:1025900098421EBF0246506800280FD098421EBFC6
:1025A00002465068002809D098421EBF0246506873
:1025B000002803D0984218BF0246E7D1507B10F0A4
:1025C0000F0F02BF488E40F60901884203D0FFF783
:1025D00045F8FFF75BFCDFF8800C044208D005F1FA
:1025E000EC0001B0BDE830404FF0005101F00ABDF1
:1025F00001B030BDC84A0020CC4A002000B581B0EF
:102600004FF0FF3001F02AFC800708D501B05DF8DB
:1026100004EB4FF40061DFF8040A01F0F3BC01B0F1
:1026200000BD0000001004408C010010F0B505460C
:10263000DFF8DC04D0F8D81081B0486847688468B7
:10264000C668012D0FD1200001D1300006D0DFF87F
:102650000C0CDFF80C2C0021C1610260380006D0A0
:10266000C046C04601E0380001D005B9B847200097
:1026700002D1300000F01480DFF8E01BC8690028A8
:10268000FAD00022CA61200018BFA047300018BF4E
:10269000B04701B0BDE8F040DFF8C80B01F0E4BB83
:1026A00001B0F0BD000004602DE9F041DFF8607476
:1026B000D7F898402CB3E068082140F6040240F6B1
:1026C000030338B3CDB22DB305889D421EBF95429A
:1026D0004068491EF5D116E014F1010F11D0DFF862
:1026E00034040168B4FBF1F1012998BF012107F519
:1026F000E67001F0E1FC07F5E670BDE8F04101F09D
:10270000DDBCBDE8F081216901F130022AC82AC28E
:102710002AC82AC2D4E90A234FF00008C4E90A886B
:10272000A06858B1B4F9301013F0E2402069A568F0
:102730001CBF02F0000203F0E243A84701F06BFB6C
:102740000546B7F8AE00401CC0F30B00A7F8AE007A
:1027500084F833806FF00201218607F1980002F0BF
:1027600016F9284601F078FBB7F9AE00B7F9AC10BE
:102770008842C6D1D7F8D820BE6EFD6E92F8A4105C
:102780000024052001B10720FFF777F82EB196F855
:10279000A40000B9346886F8A4803DB195F8A4007F
:1027A00008B9D5F80080002085F8A400444538BF5A
:1027B0004446002C90D1B7F9AC00B7F9AE1088426E
:1027C0009FD101F028FB044697F8D40000F0F700F1
:1027D00087F8D40097F8D400010704D4082107F142
:1027E000EC0001F00FFC2046BDE8F04101F034BBE5
:1027F000DFF87C2C92F8C4100020022904BFD2F824
:10280000A010002903D1D2F8A41001B9012070470B
:1028100030B50D46A80781B0BD4C12D5FFF744FF77
:10282000D4F8980040B145F0020104F1EC0001B089
:10283000BDE8304001F0E6BB01B0BDE83040FFF735
:10284000E8B9680767D5012184F8D610042001F0A3
:10285000A5FDDFF8200C01680A6B9047C4F8DC0086
:10286000D4F8900098B10569D4F8D800002818BFB2
:10287000A8420AD095F82400410704D52B6A00220B
:1028800004212846984701206875C4F8D850D4F828
:10289000D8004168DFF8E00B0A780260022001F0FE
:1028A0007DFD112001F08FFD012084F8C4009049C6
:1028B000887810B90E2001F086FDD4F8D800416860
:1028C0008868002804BFC868002806D0DFF88C0993
:1028D000DFF88C290021C16102600720DFF89C1B12
:1028E00008600021DFF874094269416182698161F1
:1028F000426942F0402242F0020242610FF22D0092
:10290000C4F8C8001A2001F088FA01B0BDE83040D0
:10291000192001F082BA01B030BD0000B44F005060
:102920008C130050E0010010305009402DE9F043B5
:10293000890081B007467AD50020FFF777FEDFF8DF
:102940001C49DFF83C1BDFF8C8810020E0612160F2
:1029500040F60A09A8F8B090A8F8B20098F8BC10A0
:1029600001F0F00188F8BC10C8F8B400384698F8B7
:10297000BD1001F0F00141F0010188F8BD10FFF732
:10298000E0F9BE68354640F6040140F60302686887
:1029900000281CBF03884B4518BF93424AD08B4286
:1029A00018BF0546F3D145E0388E002858D00021E5
:1029B00097F83D007986796300F0F00097F83C10B5
:1029C00040F0010087F83D0001F0F00187F83C106D
:1029D00007F13000C8F8B40098F8BD1001F0F0011C
:1029E00088F8BD103CE0DFF89C1A0A6813680120E3
:1029F0009847012809D0687B00F0F00040F0010002
:102A000068730FF28900C8F8C8000021E1612660F0
:102A10003748436819000AD0007AC10707D5D8F8AB
:102A2000D800324601B0BDE8F0430121184701B09B
:102A3000BDE8F08308F1B0006860697B01F0F00147
:102A40006973D8F890000028AED0C0680088904222
:102A50001CBF40F604029042A6D10020C8F8DC005A
:102A6000E0690028FCD00021E16198F8D1000FF264
:102A7000A902C8F8C82000283FF4B5AF01F0D2FD84
:102A80000028FBD001F0E9FDBFE70000DFF8F829DE
:102A9000114200D1704710B5DFF8E8190A681368D1
:102AA0000120984701280CD1DFF8C4090FF2690111
:102AB000C0F8C8100022DFF8A417CA61B03008605F
:102AC00010BD144ADFF8A84910683221B1FBF0F1BB
:102AD000012998BF012104F5D47001F0EDFA04F545
:102AE000D470BDE8104001F0E9BA000000A00C402D
:102AF00008A4000038A4000020000E000C100440C0
:102B00009430044085030021FDBFFFFFC04A002030
:102B1000284A0020385300202DE9F0470546884612
:102B20005FEA484082B0DFF848992CD501F073F98C
:102B3000D9F8A86016B3D6E90A2302F00A0413F004
:102B4000E04508BF002C19D1D6E90A45D6E90A2389
:102B5000A243AB43C6E90A2301F07EF9B06878B11D
:102B6000002D08BF002C0BD0B6F93010306922467A
:102B7000B4682B46A04728F48048EFE101F06CF9D7
:102B800028F48048EAE15FEA88006ED5DFF8FC08A7
:102B9000016841F08001016099F8D60028B1042055
:102BA00001F090FB002089F8D60001F034F9DFF83D
:102BB000C4A8DAF854100A68044604209047002894
:102BC0001CBF287D00281FD0D9F8DC00E0B10746E3
:102BD000DAF800002E69016B8847874231BFC71BB6
:102BE000401EC71B7F1C3F0BB7422F6102D2F61954
:102BF00076082E6140F699012869A0F59670884202
:102C000024BF40F6C4102861204601F025F9D9F808
:102C1000D8108A6801F130035068002818BF984224
:102C20001EBF02465068002800F0A38198421EBFD4
:102C300002465068002800F09C8198421EBF024660
:102C40005068002800F09581984218BF0246E3D1F1
:102C50008FE148F00208AC6900224FF08063002148
:102C60002846A04728F0005878E15FEA887009D527
:102C7000FFF71AFDD9F89800002840F06F8128F07E
:102C800002086BE15FEA485040F1868001F0C3F82A
:102C90000446FFF7ADFDD9F89070012876D1002FDA
:102CA00074D0042089F8C4000022DFF83C1C09F528
:102CB000907001F0B6F8204601F0CEF809F5E67004
:102CC00001F0FEF9DFF8AC0701680A6B9047C9F81C
:102CD000E000012089F8D600042001F05FFB38698C
:102CE000C9F8D80090F824104A0703D5036A0022D7
:102CF000042198470120FFF799FCD9F8D800012159
:102D0000417540F60A05FFF71CF8D9F8D840A668C7
:102D1000314640F6040240F60303486800281CBF11
:102D2000B0F800C0AC4518BF9C4500F03C8194450C
:102D300018BF0146F1D136E1208E98B104F1300080
:102D4000002242804260027B02F0F0020273427B6A
:102D500002F0F00242F0010242734860487B00F04A
:102D6000F00048730021DFF8F404C1610660DFF869
:102D70007C0B436819000CD0007AC10709D5324694
:102D800001212046984728F48068E7E0204601F0BA
:102D900063F828F48068E1E05FEA085148D599F8C3
:102DA000D60028B1042001F08DFA002089F8D60061
:102DB000D9F8D85005F1080105F130040A685068C7
:102DC000002818BFA0421EBF02465068002800F02D
:102DD000FF80A0421EBF02465068002800F0F88025
:102DE000A0421EBF02465068002800F0F180A042B9
:102DF00018BF0246E3D1EBE0D9F8D810000BC86049
:102E00000020C9F8E0000022854909F5907001F022
:102E100008F8022189F8C410D9F8980018B109F10E
:102E2000EC0001F0EFF8FEF7F4FE28F4006895E0FE
:102E30005FEA087040F18B8000F0EDFF0546FFF778
:102E4000D7FC00287BD099F8D400010777D499F8F3
:102E5000D400010673D46846FEF76FFE10B10098E7
:102E600000286CD000270126F8B202281DDC09EBEF
:102E70004011887AC8B18E7291F9090006FA00FAF9
:102E800000F0C9FF044699F8D40020EA0A0089F846
:102E9000D40099F8D410080704D4082109F1EC00F3
:102EA00001F0B0F8204600F0D7FF7F1C032FDBD3E2
:102EB000032089F8C40009F5E67001F001F92846FD
:102EC00000F0CAFFFEF7B0FDDFF8204A6368180083
:102ED00007D0207A810704D5D9F8D8000022022132
:102EE0009847022001F0EEF9112001F004FA99F858
:102EF000D50020B9D9F8D800483001F0B9FEA07843
:102F000010B90E2001F0F7F999F8D10028B100218D
:102F100089F8D110052001F0D5F9DFF8640CC9F863
:102F2000C800002189F8C4100220B9F9AE10B9F91F
:102F3000AC20914208BF0720FEF79FFC02E0284624
:102F400000F08AFFFEF765FE28F0080806E05FEA59
:102F5000480003D5FEF75DFE28F08048B8F1000F69
:102F600004D0414609F1EC0001F04CF802B0BDE894
:102F7000F087507B10F00F0F02BF488E40F6090219
:102F800090427FF468AEEC6900224FF000736FF45A
:102F900080712846A047D9F8900000283FF459AE28
:102FA000FEF737FE57E64A7B002002F0F002486049
:102FB00042F001024A73F868008898421CBF40F64C
:102FC000040398427FF4B8AE0020C9F8E000C9E6D7
:102FD000507B10F00F0F02BF488D40F6090290425F
:102FE00008D1D5F81CC000224FF000736FF4807137
:102FF0002846E047D9F8E00000283FF404AFDFF8A6
:1030000074140868026B9047D9F8E010814231BF10
:10301000401A401E401A401CEEE60000144B0020EF
:103020006922000070B584B001F06DF8DFF8540B30
:10303000DFF858240168DFF8B448DFF83454DFF8CB
:10304000486B41F002010160DFF8400B10606846F8
:1030500000F0AAFF6078DFF8381B02906A4605F19D
:10306000EC0000F0A9FF6A46DFF8281B05F59E700A
:1030700000F0A2FF684600F0E7FE2078DFF8182B8A
:1030800001906B46192105F5907000F0A1FE6B468A
:10309000DFF8082B1A2105F5B87000F099FE3068AA
:1030A00000F44020B0F5802F1CD1DFF8F40A01684D
:1030B0008A0317D46B46DFF8EC2A352105F5C67074
:1030C00000F086FEDFF8E00A016801F540718162D8
:1030D0000C210268A2F54072C262C161826942F0AD
:1030E0000C02826100230022DFF8C01A05F5D470BB
:1030F00000F0A8FF00230022DFF8B41A05F5E670FF
:1031000000F0A0FF3068C0F3814038B10023DFF841
:10311000A42A042105F5F87001F0BEF8A078012872
:1031200004BF0E2001F04FF905F1980001F024FCD6
:1031300005F1900001F020FC002085F8C400C5F8DE
:10314000CC000021072085F8D01085F8D11085F833
:103150006000C5F8DC1000200521C5F8E000C5F8C6
:10316000E41085F8D400DFF8181AC5F8C8106368B1
:10317000180007D0207A410704D5D5F8D8000022DE
:103180000421984704B070BD2DE9F54CDFF8E0A2AA
:10319000DAF8904081B09B4600250E4600E0246896
:1031A000002C55D0B4420ED02468002C50D0B4422C
:1031B00009D02468002C4BD0B44204D02468002CE1
:1031C00046D0B442EBD1002C42D020690199276847
:1031D000884237D100F01FFED4E90A2343F0805122
:1031E000C4E90A21D4E9082343F08051C4E9082145
:1031F00000F032FEBBF1000F18D000F00CFED4E955
:103200000A2343F08071C4E90A21D4E9082343F07A
:103210008071C4E9082100F01FFE9AF88C10306913
:10322000CAF8880041F001018AF88C1021460AF1A1
:10323000900001F0FDFB21460AF1980001F0CEFB61
:1032400015F101059DF80800002818BF3C46BAD1C9
:10325000284603B0BDE8F08C020000400010044096
:1032600051000706010007062DE9F04B90460326A2
:10327000B8F1000F84B083461D4614BF4FF080475D
:103280004FF000570C4600F0C6FD4FF0FF318C4266
:103290000190DFF8DC9114D1D9F8A00028B10069C1
:1032A000584508BFD9F8A04011D0D9F8A40028B1DA
:1032B0000069584508BFD9F8A44008D0D9F8904013
:1032C00005E0002221465846FEF7E2F80446002CAD
:1032D00000F0978094F83300010640F191808DF85A
:1032E00000500C9ED9F8A00084421CBFD9F8A4104D
:1032F0008C426ED1D9F8A05000F08DFD84464DB1BE
:10330000D5E90A013943C5E90A01D5E908233B4358
:10331000C5E90823604600F09FFDD9F8A45000F0ED
:103320007AFD84464DB1D5E90A013943C5E90A0160
:10333000D5E908233B43C5E90823604600F08CFD2E
:10334000B8F1000F14BFDFF8AC09DFF8AC0900F0EA
:103350008BFD96B3D9F8A05000F05DFD02465DB13B
:10336000D5E90A0141F08073C5E90A03D5E90801EE
:1033700041F08073C5E90803104600F06DFDD9F8EF
:10338000A45000F048FD02465DB1D5E90A0141F0C4
:103390008073C5E90A03D5E9080141F08073C5E9E6
:1033A0000803104600F058FD99F88C102069C9F800
:1033B000880041F0010189F88C109DF80000E8B107
:1033C0000246D9F8901033465846FFF7DDFE8326B3
:1033D00017E033462A4621465846FFF7D5FE78B116
:1033E00099F8C40001281CBF99F8C400042805D02E
:1033F000DFF8881909F1EC0000F004FE832600E0F4
:103400000426019800F028FD304604B0BDE8F08B9A
:1034100010B50C46164991F8C420022A0BD100F0D1
:1034200023FD04B1206000F0FF00012801D18120BC
:1034300010BD022010BD012010BDF0B581B00446C2
:103440000D46164600F0E7FC07460948D0F8D810AC
:103450008C4218BF032404D131462846FFF7D8FF19
:103460000446384600F0F8FC204601B0F0BD0000EC
:10347000284A00208C010010D02108400000046080
:1034800001010E04E001001004000020CC210840DE
:1034900070B5164604460D46502340F2FF3200F048
:1034A0000DFDFF2809D0B6022B2D0EBF46F02B06CE
:1034B00040F22B210E4344F8206070BD002944D017
:1034C0000A0E202A08BF01221AD0212A08BF022290
:1034D00016D0A02A08BF032212D00AB904220FE096
:1034E000102A08BF05220BD0112A08BF062207D0D8
:1034F000402A08BF072203D0502A0CBF0822092205
:103500008901090A090241EA021141F00F0102682A
:1035100012F1010F18BF8A421CBF50F8042F12F19C
:10352000010F11D08A421CBF50F8042F12F1010F75
:103530000AD08A421CBF50F8042F12F1010F03D0A9
:103540008A4218BF001DE2D101607047002946D0B1
:103550000A0E202A08BF01221AD0212A08BF0222FF
:1035600016D0A02A08BF032212D00AB904220FE005
:10357000102A08BF05220BD0112A08BF062207D047
:10358000402A08BF072203D0502A0CBF0822092274
:103590008901090A090241EA021141F00F0102689A
:1035A00012F1010F18BF8A421CBF50F8042F12F10C
:1035B000010F11D08A421CBF50F8042F12F1010FE5
:1035C0000AD08A421CBF50F8042F12F1010F03D019
:1035D0008A4218BF001DE2D14FF0FF3101607047F1
:1035E0002DE9F04381B00546089C0F4691461E46E2
:1035F00001F056FB0E2803D001F052FB0F2847D1F3
:10360000288840F6020188424FF001085BD0B0F5EF
:10361000C15F65D043F6060188426ED005F11A02FB
:103620003A60E869C9F80000A96A3160E86A206078
:1036300095F824702D7E306805F0070588B10523C4
:103640004FF6FF7240F2037100F038FC8146B9F189
:10365000050F06DA2946384600F046FC316841F885
:103660002900206858B305234FF6FF7240F203711A
:1036700000F024FC0646052E21DAFF21384600F032
:1036800033FC216841F82600404601B0BDE8F083D4
:10369000288840F60201884218BFB0F5C15F07BF15
:1036A00005F11200696905F11A00E969C9F800100D
:1036B0004FF000083860C6F80080C4F8008040462B
:1036C00001B0BDE8F08305F112023A606869C9F8FB
:1036D0000000A9693160E8692060EF7B2D7CAAE7D2
:1036E00005F1120038606969C9F80010686A306035
:1036F000A96A2160EF7B2D7C9DE705F11A003860F7
:103700000027E969C9F80010286A3060696A2160F9
:1037100090E770B586B015460C46002202920492DE
:103720000392019201A9009103AB04AA02A9FFF739
:1037300057FF8326E20F28D1F8B1039800281CBF59
:103740000198002813D002980480C4F3150203984E
:1037500040F22B21FFF79CFE01990498FFF7F6FE3B
:103760001520288030460399696006B070BD029824
:1037700001884FF6FF72914236D0029804801021E2
:1037800029806C80304606B070BD68B3039800286D
:103790001CBF0198002814D002984FF6FF710180D9
:1037A000C4F3150201982B21FFF772FE01990498CA
:1037B000FFF784FE1520288030460199696006B025
:1037C00070BDC4F31504049822462B21FFF760FE58
:1037D000FF2809D002994FF6FF70088014222A8032
:1037E0006C60304606B070BD0326304606B070BD32
:1037F0002DE9F0410746DFF8880588B00E00154630
:10380000006818BF002D1C4668D03178C840C20738
:1038100064D5002128460020C046BD607E6000F0CF
:10382000FAFADFF86065054696F8D500022852DA04
:1038300008B9FFF7F7FB96F8D50006EB8002401CAD
:10384000976686F8D500284600F006FB3CB90FF2D3
:103850007C4191E87C51684680E87C516C46206848
:1038600038604FF4FA71F960A06978620120218A0A
:10387000F9827875E169F9626068002812BF002159
:1038800040F6C410012139753861DFF8FC14E06896
:103890000A460B4600B10146F961606900B1024673
:1038A0003A62A06800B10346BB61782107F130009D
:1038B000FCF7C8FB002107F1480001F0B7F900232D
:1038C0000022DFF8C81407F1800000F0BBFB384687
:1038D00008B0BDE8F081284600F0BEFA002008B02C
:1038E000BDE8F08100000000FD25000008A40000F4
:1038F000F0B5DFF8904494F8D510002981B000F0BD
:10390000A480B4F9AC10B4F9AE20914205461BD0A6
:1039100004F19001FDF778FD68B9D4F8A00028B152
:103920000069A84208BFD4F8A00004D004F19801AF
:103930002846FDF769FD38B1B0F930100A224FF082
:10394000E043284600F038F900F065FA0646A06E1C
:10395000854207BF0021A1660020E06694F8D500EB
:10396000401E84F8D500C0B2002859D1C4F8D85000
:1039700094F8C400022820D100F04DFA074694F8CC
:10398000D40000F0F70084F8D40094F8D4000107C4
:1039900004D4082104F1EC0000F034FB384600F0B8
:1039A0005BFA304600F058FA4FF0FF3105F148005D
:1039B00001F053F900F02FFA064604F1EC0000F094
:1039C0001BFB04F5907000F024FA04F59E7000F0E3
:1039D00013FB04F5B87000F01CFA04F5D47000F085
:1039E00056FB04F5E67000F052FB6748016801F4ED
:1039F0004021B1F5802F07D1694801688A035CBF77
:103A000004F5C67000F005FA04F5F87000F0E8FD62
:103A1000DFF87C038178012904BF0E2000F06BFCE5
:103A2000D4F8D800A84204BF0021C4F8D81030460A
:103A300000F012FA05F1480001F00DF905F18000DF
:103A400001B0BDE8F04000F022BB01B0F0BD2DE9AF
:103A5000F04D00F0E0F9DFF82C4394F8C41002298F
:103A60001CBF94F8C410042907D1DFF82823146878
:103A700000F0F2F92046BDE8F08D00F0EDF9DFF836
:103A80001803DFF8188301680A6B904710F50036B9
:103A900041F1000AD4F8C010A8FB067B002008FB07
:103AA0000ABB3C184BEB01052C462046BDE8F08DC7
:103AB0002DE9F04F81B005460F4693469A4600F037
:103AC000AAF98146FDF7B3FC04006FF0010650D05F
:103AD0000095DDE90A68DFF8AC5205F5E67000F004
:103AE000EFFAB5F8AC00DFF8B822401CC0F30B00C9
:103AF000A5F8AC00E76084F832B0C4F808A0202331
:103B0000B5F8AC00208632400099216108EA030331
:103B100042F00206C4E9066300200021C4E908015E
:103B2000802284F833202064606384F8441084F891
:103B300038104FF0FF30A164E164E063397B01F09D
:103B40000F01022904D1012084F83800B9686163AB
:103B50000020009981F8A400214605F1900000F0B2
:103B60003DFFD5F89000A04208BFFEF752F8B4F927
:103B70003060484600F070F9304601B0BDE8F08F83
:103B80001128000000200940B44F0050110000E04F
:103B9000152500009D21000051250000092100008D
:103BA0008C13005099230000305009403325000049
:103BB000612400002F1800002DE9F0410E4631006D
:103BC00014461D4603D500200021BDE8F0810746BC
:103BD00000F014FA8046802231463846FDF758FC42
:103BE000060003D096F83300010606D4404600F0E4
:103BF0000BFA02200021BDE8F081D6E9080144F06B
:103C00000A0445F0E0452040294008BF00280FD0B5
:103C1000404600F0F9F9D6E9080120402940C7E9FB
:103C20001E01D6E9082382438B43C6E9082312E02C
:103C3000B168DFF87001814202D0B3683B67B060C1
:103C4000C7E91A45404600F0DFF94FF0FF3107F1B0
:103C5000480001F002F8D7E91E01BDE8F081D0B5B7
:103C600082B00446DDE90667CDE90067FFF720FF73
:103C70000146204602B0BDE8D0400A224FF0E043A2
:103C80009AE700B581B0930803F00103009353084D
:103C900003F0010302F00102FFF7E6FA01B000BDF4
:103CA00000B581B0930803F00103009302F0010214
:103CB0000123FFF7D9FA01B000BD0000F0B500BF45
:103CC00002A191E8FC5080E8FC50F0BDFFFFFFFF2F
:103CD0000000000000000000000000003A013A016E
:103CE0000000000000000000000000000022FFF7BC
:103CF000A4BB0000010002040100010400B583B070
:103D00000192009191F904300A680121FDF700FD4C
:103D100003B000BDF0B581B004460D46802600F02A
:103D20007AF8EDB2032D074621DADFF8581001EBDF
:103D30004515A87AD8B191F8C400022811D195F997
:103D40000910491D0906090C41F08161002241F06A
:103D500001012046FFF771FB06462846FDF738FCB7
:103D600005E02846FDF734FCFDF753FF8126384671
:103D700000F072F8304601B0F0BD000002000040D3
:103D8000D4210840284A002013250000B124000057
:103D900008A40000043004408C01001000093D001C
:103DA000FFEFFF9FB7240000DFF800F055EB021093
:103DB000DFF800F047EC0210DFF800F049EB0210EA
:103DC000DFF800F075E40210DFF800F01DD90210F2
:103DD000F0B51C008DB005460E46174604D10023F1
:103DE00000F0BEFF0DB0F0BD082330220021684670
:103DF000FFF7E2FF206805906B46606808903A463E
:103E0000207AADF818003146284600F0A9FF0DB021
:103E1000F0BDFFF7D5BFFFF7C7BFFFF7D5BF00F075
:103E2000BFBFF0B581B004460D461646FFF7BCFF94
:103E3000074632462946204681604260384601B036
:103E4000BDE8F040FFF7B4BF002101604FF0FF3242
:103E50000123426003727047FFF7AABF44490A6812
:103E60001040C2430A607047424A11680029FCD1E1
:103E70000023D3611060D0690028FCD0D161506864
:103E800070473D48016821F0020141F4087101606A
:103E900003213A48016041F23002C26001234360CD
:103EA0005021C16043604FF4CA61C16043604FF468
:103EB0008651C160436032490B60704730B404469C
:103EC000002000E0401C98420ADA54F8205015F116
:103ED000010F05D015408D42F4D130BCC0B27047FF
:103EE00030BCFF20704700001E281DD8DFE800F01E
:103EF000101C131C1619161C1C1C191C161C1C1932
:103F00001C1C1C1C1C1C1C1C1C1C1C1C1C1C190010
:103F100040F2025209E04FF4817206E04FF20112C2
:103F200003E041F2011200E00022FF2909D14FF61F
:103F3000FF30024042F0C00240F2037040EA02400B
:103F40007047080008BF42F0300205D0C8074CBFD8
:103F500042F0100242F0200240F2037040EA0240B8
:103F6000704708490A681040C2430A607047000061
:103F7000101004400010044000000460546004402D
:103F80000041044008100440DFF800F025EA021068
:103F9000DFF800F061DB0210DFF800F0F1EB021057
:103FA000DFF800F0BDE80210002101604160C1604F
:103FB0004FF0FF318160704770B514008AB005463C
:103FC0000E4604D1002200F0F9FE0AB070BD0823AD
:103FD000282200216846FFF7DFFF206804906A4628
:103FE000606805903146E0680790A0680690284612
:103FF00000F0E4FE0AB070BDFFF7D2BFFFF7C4BF08
:1040000000F0E8BE00F0F0BEFFF7C2BFDFF800F03E
:10401000C3EC0210DFF800F0E7E90210DFF800F06F
:10402000C5E20210DFF800F08DDD0210DFF800F0CD
:104030009DEB0210DFF800F049E60210DFF800F017
:10404000FDE90210F0B51C0089B005460E46174682
:1040500003D10023FFF7E6FF12E00823242200210A
:104060006846FFF7E3FFA16806916B462278ADF83A
:1040700010203A466068059031462846FFF7D2FF87
:104080001048114A01681160284609B0F0BDFFF7D9
:10409000D1BFFFF7D3BF00F0BBBE00B581B0FDF7C5
:1040A0008CF9401E8041C043C00F01B000BD00210B
:1040B0008160017041607047FFF7A8BFFFF7AABF9A
:1040C000FFF7ACBF4CA4000038530020DFF84C08C9
:1040D0008068704702460020022904D1012A06D1D7
:1040E00040F2EE207047012A08BF4FF47A70704703
:1040F000DFF8281891F8E10020B1D1F80C01002870
:1041000018BF004770472DE9F041DFF81418DFF8B9
:10411000143884B00968A1FB0332520B42F21070CC
:1041200000FB121140F2AB24A14200D2FEE7DFF8FF
:10413000EC4794F8E200002840F0AA800121DFF863
:10414000E867DFF8E85784F8E210307B84F8E10094
:104150007168C4F80C11A868C0F3814098B930693F
:1041600088B12868DFF8C8773A68C0F30661642030
:1041700010FB01F1B1FBF2F200230FF2957104F193
:104180005400FFF75FFF01A8FFF791FF00200290A6
:104190008DF804000022039201AB0FF2D551DFF835
:1041A000947704F10C00FFF74DFF01A8FFF77FFFA4
:1041B000002002908DF80400039001AB0822DFF884
:1041C000781704F13000FFF73DFF00230FF2E542BE
:1041D000322104F17800FFF7FBFD00203860002356
:1041E000DFF858272C2104F19400FFF7F1FDDFF8E8
:1041F00050070178A968707BC1F3815128B1032968
:1042000003D1012084F8D90021E0032918BF022935
:104210001DD001291AD1DFF82C67DFF82C77032095
:1042200000901C23D6F800C0DCF804804FF0405208
:1042300000213846C047012000903846366877682C
:1042400009234FF400720021B84711E081B93868A2
:1042500040F040003860FFF7DEFDA16841F0040146
:10426000A16094F8E510491C84F8E510FFF7F4FD0F
:10427000686840070CD4FFF7CEFDA16841F001014A
:10428000A16094F8E310491C84F8E310FFF7E4FD03
:10429000002004B0BDE8F08130B581B0002408B141
:1042A000150004D16FF00204204601B030BD8160DA
:1042B000C26003610146DFF8640600F08FFB204610
:1042C00001B030BD10B50446FFF7A5FDDFF84C1670
:1042D0000A1992F8E3305B1E82F8E330DBB233B99F
:1042E0008A68012303FA04F422EA04048C60FFF7CD
:1042F000B3FD002010BDF0B581B00546FFF78BFD82
:104300000446DFF81816481990F8EA20521E80F883
:10431000EA20D2B27ABBDFF8340600EB850210F84F
:1043200025505688280617D5DFF8247639680A6A9A
:104330003046904739688A6A3046904739680A6B38
:1043400030469047DFF80C1601200860DFF80806B9
:1043500001688907FCD507E0680612D501EB8601E4
:104360000020D1F80021904705F03F05152DBCBF76
:104370002846FFF7C0FF2046FFF76EFD002001B082
:10438000F0BDDFF8CC7539688A69304690473968E6
:104390004A6B304690470228F9D1E5E710B504464C
:1043A000FFF739FDDFF874158A680123A3401A432B
:1043B0008A60214491F8E320521C81F8E320FFF742
:1043C0004BFD002010BD2DE9F0410646FFF723FD0F
:1043D0000446DFF84855A81990F8EA104A1C80F8FE
:1043E000EA2081BBDFF8648518F8260000F03F0062
:1043F0001428D8BFFFF7E7FF08EB8600478818F8B6
:104400002600010617D5DFF848552A68D1693846D5
:1044100088472A68516A384688472A68D16A3846E8
:104420008847DFF8302501201060DFF82C0501688F
:104430008907FCD507E040060BD505EB8701012075
:10444000D1F8002190472046FFF706FD0020BDE887
:10445000F081DFF8FC5429684A693846904729689A
:104460004A6B384690470128F9D1ECE72DE9F04F27
:1044700000260024012881B0A24618BF6FF0010970
:1044800040F0AA80DFF894B4DBF8D400012832D1E0
:104490000221CBF8D41000F02AFD012000F06BF9C6
:1044A0005FEA00092DD1FFF7A9FD80469BF8FB00CC
:1044B00008B14FF0010A9BF8FA0008B14AF0020A6D
:1044C0009BF8F90008B14AF0040ADFF88474B96A6D
:1044D0000A680120904701281CBF9BF8D8000128DA
:1044E00003D1002000F090F901249BF80800C107D7
:1044F00010D5012616E06FF00409484601B0BDE86A
:10450000F08F0120CBF8D40000F0FAFC484601B04F
:10451000BDE8F08F396ADFF848048A68904705469D
:10452000042DF7D04FF0FF320021304600F012FD8D
:104530006EB9012D05D13A6ADFF8240453680121D0
:104540009847DFF82004016841F0030101605046FC
:104550003A68516988479BF8F50020B13968CA6A02
:104560004FF4806090479BF8F40020B13968CA6A24
:104570004FF481609047DFF8DC13DFF8EC33012063
:10458000086000221A600320CBF8D40039684A6B17
:10459000504690470128F9D1DFF8C053286804201D
:1045A00000F0E9F80646DFF8C413012008602A6825
:1045B0000CB100F029F900F07DFD082000F0DBF8D7
:1045C00006430120CBF8D4004046FFF71DFD00F064
:1045D00097FC0EB14FF0FF39484601B0BDE8F08FAF
:1045E00030B581B00446FFF716FC05462146DFF8DA
:1045F0002C0300F01DFA284601B0BDE83040FFF75B
:104600002BBC10B50024022802D0032805D008E0F6
:1046100000F058FD0446204610BD00F03BFE204649
:1046200010BDFEE7F0B581B0FFF7F5FBBB490546CD
:1046300091F8D800012450B1C24EC3483768D7F86A
:104640000CC0002301223C21E04700B90024284689
:10465000FFF702FC204601B0F0BD30B581B0FFF796
:10466000DAFB044600F03AFAAC4D002085F8D80099
:10467000FFF7D1FB95F8E610491E85F8E610C9B2A0
:1046800019B9A96821F00801A960FFF7E5FB2046E8
:10469000FFF7E2FBA44884680220A04705461020EB
:1046A00000F069F8012D04BF0320A04701B030BD20
:1046B000000000002DE9F0419E4C82B06568206842
:1046C00020EA050105406A06216049D59D4EF16B3F
:1046D0000A6804209047022818BF032819D001282F
:1046E0003ED1032000901C23D6F800C0964FDCF882
:1046F00004804FF0405200213846C047012000900E
:1047000038463668776809234FF400720021B847AD
:1047100026E0032000901C23D6F800C08A4FDCF866
:1047200004804FF0405200213846C04701200090DD
:1047300038463668776809234FF400720021B8477D
:10474000FFF769FB754991F8E520521E81F8E520D5
:10475000D2B21AB98A6822F004028A60FFF77CFBA1
:10476000280648BF00F022F8A56002B0BDE8F0813D
:1047700070470020704730B505466848046881B02E
:104780005CB1A068284205D02269E3680021284670
:10479000984728B92468002CF3D1002001B030BD1F
:1047A0004FF0FF3001B030BD0020704730B581B010
:1047B000FFF731FB4FEA000400F090F90028FBD02E
:1047C000FFF729FB554D95F8E610491E85F8E610D0
:1047D000C9B219B9A96821F00801A960FFF73CFB2B
:1047E000002085F8D8002046FFF736FB4E48846845
:1047F0000220A04705461020FFF7BDFF012D04BF92
:104800000320A04701B030BD30B5012881B04AD1A6
:1048100057490A6813689847012876D03F4C94F8A6
:10482000D800002871D1414DA868C0F38140A0B9DB
:104830003D48016989B1012088474E494FF0004049
:10484000886540220A602868C00F1CBF4FF40050E2
:10485000086004F15400FFF731FC00F033F9012047
:1048600084F8D800A868C0F3814010B92E490869BF
:1048700048B9207A810606D42E48802282600168D9
:1048800041F080010160FFF7C6FAA16841F008011C
:10489000A16094F8E610491C84F8E610FFF7DCFAF2
:1048A000002001B030BD80BB00F03DF91F49886891
:1048B000C0F3814060B90868C00F04D02D494FF49F
:1048C0000050C1F880001848016909B100208847EC
:1048D000124C94F8D800C0B11648016821F080014C
:1048E000016080218160FFF796FA94F8E610491E76
:1048F00084F8E610C9B219B9A16821F00801A160D5
:10490000FFF7AAFA002084F8D800002001B030BDDB
:1049100018494FF48050086048E7000094090020CF
:104920001C1400505917B7D1BCA30000AC4F005065
:1049300038530020902208404F54000035510000A9
:1049400041530020A401001000A00C40309C000046
:10495000B801001028200860282008402C200940B9
:104960000040034024220840800104430C400940D9
:10497000E0010010A8A00C4010B50446FFF74BFA68
:10498000002161602160BDE81040FFF765BA30B5D5
:1049900081B00546FFF73FFA2C683CB121682960D9
:1049A000216800291ABF00224A606960FFF754FAA3
:1049B000204601B030BD70B504460D461646FFF7DF
:1049C0002AFA2E60716869607168002914BF0D6051
:1049D00025607560BDE87040FFF73EBA30B581B024
:1049E00004460D46FFF717FA0021296062686A60E5
:1049F0006168002914BF0D602560656001B0BDE8E5
:104A00003040FFF729BA30B581B004460D46FFF7B4
:104A100002FA2168296000226A602168002914BF17
:104A20004D606560256001B0BDE83040FFF714BA05
:104A300030B581B004460D46FFF7EDF929686A6884
:104A400000290CBF62604A6069682A6800290CBFAF
:104A500022600A6001B0BDE83040FFF7FDB930B414
:104A6000002513E050F8042BD30744BFA9F101033C
:104A70009A18091F042942F8045BFAD213468C07DE
:104A800044BF15809B1CC90748BF1D7050F8041B0C
:104A90000029E7D130BC704738B5DFF83C01DFF8BA
:104AA0003C51048814F0010403D14FF00121296026
:104AB0000088DFF82C010168884714B14FF080713D
:104AC000296031BD10B54B4A13685C680121012093
:104AD000A047454845490068886010BD38B5414C3D
:104AE000E16B0A680120904701281AD024683A48EF
:104AF000E568002301223C21A84798B1FFF7CCFFCD
:104B000039483A4B0268996839481C68DA60A4EB66
:104B10009404521A4243120C1A60A24238BF224631
:104B20001A60012032BD38B5324C2268536800212A
:104B30000120984721680A680120904708B1FFF7D3
:104B4000ABFF2948294D00686860E0680168884724
:104B5000286131BD30B5284BB3F90240B3F9045098
:104B6000A0F11B01B3F9000001FB01F24C435143DA
:104B700000EBE4005543B3F9062000EBA5205143B8
:104B800000EBA14030BD10B51C49002882B081FB6C
:104B9000002304D412F5001043F1000103E0B2F544
:104BA000001063F100014FF48002002300F030FD9B
:104BB00000F1377000F5DE404FF4C061B0FBF1F258
:104BC00000230020402100F023FD0D4B1C68616C88
:104BD000BDE81C400847000000A00C4004A40C40A5
:104BE00080000010A401001030200940BC520020B9
:104BF00040420F00E001001020530020006CDC0256
:104C0000F0010010DFF800F0E5EB0210DFF800F033
:104C1000C1DD0210DFF800F0B1BF0210DFF800F0D4
:104C200021CD0210DFF800F0FDE6021030B589B0AA
:104C300004460D460823242200216846FFF7E2FFC0
:104C400001218DF818106A4629462046FFF7DEFF3D
:104C5000204609B030BDFFF7E5BF00B581B0FFF7D2
:104C6000D9FF00280CBF4FF0FF30002001B000BD7D
:104C7000FFF7D4BF2F480068000C00F0070006289B
:104C800028BF4FF0FF3070472B490968C1F30F313F
:104C90004BF641324FF0FF30914208BF042070477D
:104CA00010B5FFF7F1FF23490A68D30D04284FF030
:104CB000FF34C2F340611AD1120B02F00F02082A2E
:104CC00014D0092A0DD00F2A11D1D80704D50029F4
:104CD0000CBF0D240E240AE000290CBF0B240F2466
:104CE00005E000290CBF09240A2400E00C2420461A
:104CF00010BD00001048114970B505680E682D0FF1
:104D000006F0FF06802E28BF0026FFF7BDFF04280F
:104D10004FF0FF340CD1032D0AD8DFE805F0020272
:104D200004070A2404E006F10B0401E006F115046F
:104D300060B270BD9412005018130050A0100050C3
:104D400080B5FFF7A1FF042804D1FFF7D3FF142893
:104D500000DB01BDFEE70000DFF800F021D4021007
:104D6000F8B504460B480C4F0668F8690D4650F834
:104D70002510B1420AD10948009029462046FFF784
:104D8000EBFFF86950F82510B14201D10020F2BDC7
:104D90002046F2BD1C120000501100209007002098
:104DA000102803D302491038C1F8000F704700BF24
:104DB00000E000E0DFF800F019D7021010B504465B
:104DC000034BFFF7F7FFA06800B90024204610BD91
:104DD0009007002001488068704700BFE410002061
:104DE000DFF800F091D8021038B504460D4600F007
:104DF0006BFD616A0D43656200F067FD2046BDE80A
:104E00003240FFF7EDBF0000DFF800F011DC0210C8
:104E100070B5044600F04CFD0646A08A0025012826
:104E200008D1FFF7F1FF0546E068A168451BA942DC
:104E300038BF0025304600F03CFD284670BD00001C
:104E4000DFF800F04DEA0210DFF800F045DF021055
:104E500030BF704770B500F029F92E4C20694168C9
:104E60008847FFF733F9054605F00C000C2838D0C9
:104E7000680721D400F068FD064601210120FFF7F4
:104E800029F92549096801FB06F2904214D2F02065
:104E9000B0FBF1F0214C311A04F10C00FFF7B6F829
:104EA00004F10C00FFF7B6F80120FFF7DFFA04F178
:104EB0000C00FFF7B3F816E0280712D42168184851
:104EC0008A6890470428F9D0E90600D408B901207F
:104ED00000E0002000F02AF812480121016000687B
:104EE00001E0FFF7B5FFBDE8704000F0E3B810B592
:104EF0000D4CFFF7A5FF2060FFF746F8606010BD7E
:104F000010B5094C6068FFF743F82068BDE8104011
:104F1000FFF79ABFD80100104CA4000094090020AC
:104F2000004003402C2009401853002010B54F4981
:104F30004F4C08604F48016841F003010160202098
:104F400021688A6990474C4801682168886BBDE8F0
:104F5000104000472DE9F843054688469146002059
:104F600000F05DF8424C454A434F454E0021116028
:104F7000386821688A692720904771694148014053
:104F80007161F06D20F48070F0654FF480602168ED
:104F90000A6B904721680A6B4FF481609047216843
:104FA0000A6B4FF4C06090473749012008602F49D1
:104FB0003648C1F800800121016035480268910738
:104FC00048BF002104D419F1010F03D14FF0404133
:104FD000C16001E0C0F80C90386830688007FCD5EB
:104FE00021684A6B072090470228F9D195B9216AB8
:104FF000284D8A68284690470428F8D0012804D113
:10500000226A53680321284698471A48016889088C
:10501000890001602068816BBDE8F143084710B545
:105020001D480468A10220D41C4801680A68904702
:105030002417C0F13E00641CC0100728C8BF072019
:105040008442B8BF044616480068C0F30320041B1E
:105050000F2CC8BF0F2402DC012CB8BF012411485B
:1050600044F0F00404701048017810BD8C21084011
:10507000B8010010242208402C2009400C400940AF
:1050800028200840FFFFFEFE28200860800104431E
:105090001000094000400340B44F0050EC010010E4
:1050A0000C1300505A6208400D620840EFF3108064
:1050B00072B67047EFF3108062B670470138FDD1C9
:1050C0007047704730B5DFF8085595F8D9000024CF
:1050D00081B0002802BFDFF8FC14887B00280CD0C8
:1050E000FEF799FE95F8DB10002906BF012285F82E
:1050F000DB200124FEF7B0FE14B1002001B030BD6A
:105100000220FFF74BF90E20FFF75DF9DFF8C81416
:10511000086810B1012001B030BDDFF8C0044022A2
:10512000026042600120C861002185F8DA10002089
:1051300001B030BDF0B5DFF8A81481B000200860E0
:10514000DFF88C4494F8DA00002841D001284BD1D4
:10515000DFF890140D68DFF890140A684BF2F52020
:1051600045432D0A02F44022B2F5802F13D1DFF817
:105170007C0401688A030ED4DFF87464B06C0168A3
:105180008847FFF7E7FCF16BCA6890472F09C0100A
:10519000474305EBE73594F8E00018B1002184F8A7
:1051A000E01006E0DFF84C04006820F07F402D1886
:1051B0006D08DFF84404DFF81C24056001212D0C84
:1051C00045608160907B58B10221C4F8DC1000BFBB
:1051D00000F06CF80028FBD0401E012858D9FEE7EB
:1051E0000620C4F8DC00F3E702280BD1DFF8F40353
:1051F0000568284600F042F9A5F2FF55022DEFD9C7
:105200000421E2E70328E3D1DFF8D8030068D4F8EB
:10521000B010A0F5C0600029C4F8CC0048BF4942D6
:10522000002848BF40428142A8BF00202ADADFF8A8
:10523000C053D4F8B400DFF8C46380B200900823F0
:105240002F68D7F804C04FF47F4230213046E04742
:10525000D4F8B80080B2009012232F68D7F804C0A9
:105260004FF4F80204213046E047D4F8C80080B279
:10527000009030462D686E680A234FF4406220216A
:10528000B047012084F8D0000620C4F8DC009FE776
:1052900001B0F0BD00B581B000F008F80028FBD0E7
:1052A000401E012801D801B000BDFEE72DE9F04302
:1052B000C74CD4F8DC00062881B000F2C480DFE8D7
:1052C00000F00443515E7582A300CD4DCD4EC84F12
:1052D000DFF82883012129600F20F06042F62A219F
:1052E0003161022000900723D7F800C0DCF8049059
:1052F0004FF4C07200214046C8473F68D7F80CC041
:1053000007234FF4C07200214046E0470120286087
:1053100029688807FCD50121F16194F8D90028B1EA
:10532000002129630120C4F8DC0002E00321C4F855
:10533000DC10032030600021696068688107FCD4BC
:10534000002001B0BDE8F083A94D0120022184F8BE
:10535000DA00009104232E68A848776870220021A3
:10536000B84746E00320C4F8DC000021A4484160AF
:1053700041688A07FCD4002001B0BDE8F083022018
:105380009B4D9E4E84F8DA0004230020009070228A
:105390002F68D7F804C000213046E0472D6830461A
:1053A000EE68702370220021B04722E00520C4F887
:1053B000DC0000219248416041688A07FCD400204B
:1053C00001B0BDE8F0830320894D8C4E84F8DA00EB
:1053D00004230020009070222F68D7F804C0002119
:1053E0003046E0472D683046EE6870237022002179
:1053F000B04783490120486004F13000FEF75EFEAB
:10540000012001B0BDE8F0837D48002101604160CA
:1054100001688A07FCD441688A07FCD400207049DF
:105420006D4B086001221A600E20FEF764FF022017
:10543000FEF748FF0020C4F8DC0084F8DB0001B070
:105440000220BDE8F083032001B0BDE8F0836E4880
:1054500001688A07FCD55E496A48D1F8DC20012A38
:1054600007BF2021816101228261002101600822A1
:105470005A490A604A60012101607047F0B56349EA
:10548000534C81B0CA6AC2F30722C4F8B420B0F505
:10549000C0600A68C2F38442C4F8B820C969C4F87D
:1054A000B000C1F38121C4F8C81008BF84F8D0004F
:1054B00000F08C80D4F8C02094F8D01059B9D4F8FA
:1054C000B410D4F8C830D4F8B820C4F8BC10C4F86C
:1054D000C430C4F8CC00D4F8CC0000284CBF6FF026
:1054E0000101022100EB40000818411000EB91700F
:1054F00002EBA002D4F8B410C4F8BC10002A18DCE7
:10550000D4F8C400032808D1012015329042A8BF66
:1055100001220021C4F8C41023E001200B32904284
:10552000A8BF0122491E48BF0021C4F8BC100320B7
:1055300015E01E2A15DDD4F8C40028B9153A1E2A34
:10554000C8BF1E2203200AE00B3A1E2AC8BF1E2233
:10555000491C3F29C8BF3F21C4F8BC100020C4F833
:10556000C400D4F8BC70224D244EC4F8C020BFB291
:10557000009708232F68D7F804C04FF47F423021EA
:105580003046E0470120009011232F68D7F804C06F
:105590004FF4003204213046E047D4F8C00080B216
:1055A000009012232F68D7F804C04FF4F8020421AA
:1055B0003046E047D4F8C40080B200900A232C683B
:1055C00065684FF4406220213046A84701B0F0BD25
:1055D00094090020BCA3000004800C4038500C400B
:1055E0003C500C4008400C40B44F00508C1300500D
:1055F000A4010010102009407C600C4000A00C4069
:1056000054600C4000400C4058600C4004A00C401A
:1056100013F0004C03D55B42524263F100039CEA55
:10562000210C00F0178010B5644603D34942404274
:1056300061F1000100F00EF8640004D349424042D9
:1056400061F10001244203D55B42524263F1000341
:1056500010BD0000BBBBE1B1B2F5803F80F07E80A1
:10566000022A1ED98C46B1FBF2F102FB11C31B04C6
:1056700043EA1043B3FBF2FC02FB1C3380B240EA66
:105680000343B3FBF2F002FB103240EA0C4000236C
:105690007047022A05D98446B0FBF2F002FB10C223
:1056A00070474AB105D100F0010249085FEA3000B5
:1056B000704700220023704700F05EB90B00020023
:1056C000002100207047904271EB030CF6D3B3F534
:1056D000803F2FD2F0B5B3FA83F7B1FA81F4A7F186
:1056E0000F0E3D1B5340CEF1200602FA0EF2F3419D
:1056F0005340B5F10F0746D80F3C2C444140C4F14C
:105700002006A040F1414140B1FBF3F603FB161126
:10571000A2FB0645001BA94102D2761E8018594102
:1057200080EA010221FA0EF362FA0EF200215A40D9
:105730003046F0BD30B4B1FBF3FC03FB1C11A2FBFF
:105740000C45001BA94103D2ACF1010C8018594152
:1057500030BC02460B46604600217047B2F1807FA4
:1057600065D3F0B5B2FA82F7B1FA81F4C7F10F064A
:105770003D1B22FA06F307F1110EF24120355A4083
:10578000B5F10F07B8D94140C4F12006A040F1415E
:105790004140B1FBF3FC03FB1C11A2FB0C45001BB9
:1057A000A94103D2BCF1010C801859410F2F12D32B
:1057B0000F3FC90341EA5041B1FBF3F603FB161159
:1057C000A2FB0645D4EBC030A94102D2761E801858
:1057D000594146EACC3C07B34140C7F12006B840E6
:1057E000F1414140B1FBF3F603FB1611A2FB064564
:1057F000001BA94102D2761E8018594180EA01029D
:1058000021FA0EF3C7F1200462FA0EF20CFA07F047
:105810005A402CFA04F13043F0BD80EA010221FA2B
:105820000EF3002162FA0EF260465A40F0BD8C463B
:10583000B1FBF2F102FB11C31B0243EA1063B3FB9D
:10584000F2FC02FB1C331B024CEA002043EA10630B
:10585000B3FBF2FC02FB1C331B024CEA002043EAC0
:105860001063B3FBF2FC02FB1C331B024CEA00206A
:1058700043EA1063B3FBF2FC02FB1C324CEA00204B
:10588000002370474018491C1CBFB1F1010100F80A
:10589000012DF9D17047FEE7DFF800F075E2021044
:1058A000DFF800F0E7EC0210DFF800F01DF802105E
:1058B00000E006E0EFF31180202181F311887047AA
:1058C000000080F311887047F4E7FAE7F2E7F8E7A1
:1058D0001849C20744BF01230B60820744BF4FF43D
:1058E00080730B60400744BF4FF480320A607047FA
:1058F00010B5114AC30748BF1160840748BF516003
:10590000400748BF916010BDFFF7C6BF10B5044601
:1059100004F11000FFF786F9E06818B104F10C00FB
:10592000FFF7BEFF214605480068BDE8104054223D
:10593000FFF7BABF042009401820094050A4000016
:10594000DFF800F0C5EA021070B5FFF7B1FF094EAD
:105950000446B0680021FFF7F3FF05467069B1699E
:10596000451BA94238BF00252046FFF7A2FF284665
:1059700070BD00BF80100020704770474068CC3079
:10598000FFF776B94068E830FFF772B9F0B581B03B
:105990000C004568876811D0DFF8586B2A6A3368B5
:1059A000117838689A69904740B1286A641E411C92
:1059B000686A2962401C002C6862EFD1204601B061
:1059C000F0BDF0B581B00C004568876812D0DFF8F3
:1059D000246B316838680A69904710F1010F09D0CB
:1059E000296B0870286B421C686B2A63401C641E7C
:1059F0006863EED1204601B0F0BDF0B581B00C0077
:105A00004568866810D0DFF8EC7A396830680A6932
:105A1000904710F1010F07D0C1B205F13C0000F032
:105A2000DCFD641E002CF0D1204601B0F0BD30B585
:105A300081B045680C4605F58270FEF741FB287F72
:105A40006A7FDFF8B41A09681218D21D5443DFF8D0
:105A5000AC0AAA694443B4FBF2F28A186332B2FB7F
:105A6000F1F1491C05F58270FEF726FB05F5827001
:105A700001B0BDE83040FEF721BB10B54468806836
:105A8000016851F8180F000713D5DFF86C2A106869
:105A90004FF4FA71B1FBF0F1012998BF012104F52F
:105AA0008270FEF709FB04F58270BDE81040FEF736
:105AB00005BB04F19800BDE810400221FEF7A2BA30
:105AC00070B505460C46FEF7A6F9216851F8382F47
:105AD00022F020020A60FEF7BFF9217D286E012224
:105AE00001F0AEF8217D286E012201F0CBF8217D76
:105AF000286E002201F0E8F8A17D286E002201F056
:105B0000E3F8A878012805D1216851F8180F00079B
:105B1000FAD405E04FF0FF3105F1CC00FFF79DF816
:105B20002068DFF8DC69217DB042286E0CBF1022AE
:105B3000142201F0C9F8A17DFF291CBFE07DFF28D8
:105B400009D0286E2268B242BDE870400CBF112215
:105B5000152201F0B9B870BD2DE9F04F83B0804631
:105B6000D8F80450D8F80810009100200A6802F113
:105B7000400102F144030E681E602C6C6B6CA96B33
:105B800016F4F06FA4EB03097AD0730540F1C680D8
:105B900052F8040F00F00F0001900020106020293F
:105BA000D8F804A0D8F808B0CCBF20270F46D7B14A
:105BB0004FEA0704DFF83C190A68DBF800001369B4
:105BC000984710F1010F0ED0DAF830100870DAF8AB
:105BD0003000421CDAF83400CAF83020401C641E41
:105BE000CAF83400E6D1C7F120074F45C8BF4F4679
:105BF000394635E0A16B491EA163A16B002900F075
:105C00009080DFF8F018D8F808000A68D8F8045037
:105C100000681369984710F1010F07D0296B0870CD
:105C2000286B421C2A63686B401C68630022396839
:105C300051F8040F0A6000F00F000028DAD001903C
:105C400025460097296B4A1E2A63686B401E6863CD
:105C5000A86B40B9012105F19800FEF7D3F9494638
:105C60004046FFF7CAFE0198E877404600F06BFB1C
:105C70000098426A002A38D001994046904734E0A3
:105C8000700613D500292CD04046FFF79AFEA86372
:105C900095F82D0010B10021A96301E0A86B20BB8D
:105CA000012105F19800FEF7ADF91EE0F0061CD5C4
:105CB000B9B100990FF6C40091F82120845CA86B5B
:105CC000641E844288BF044621464046FFF779FEA1
:105CD000A86B041BAC6308D1012105F19800FEF705
:105CE00091F949464046FFF788FEB00613D5AC6AE5
:105CF0008CB121464046FFF749FEA86258B900988A
:105D00000FF6700190F82020895C6118404603B0BE
:105D1000BDE8F04F8BE603B0BDE8F08F009F2C4646
:105D20006BE701902546009794E72DE9F041054681
:105D3000FEF766F907466C68AE68F80716D5FEF7F9
:105D40006AF8804694F8280128B10220FEF7BAFAD2
:105D5000002084F828014046FEF77EF8626B206B35
:105D6000E36851420144216328469847B80724D587
:105D7000FEF751F8074694F8290128B10220FEF7F2
:105D8000A1FA002084F829013846FEF765F830684A
:105D900000F138010A6822F020020A6050F8301F32
:105DA00021F480710160626A206A236951420144D2
:105DB00021622846BDE8F0411847BDE8F0814068FF
:105DC000002101707047F0B5064685B07468B5686B
:105DD0000F46FEF720F82178012943D001212170D8
:105DE000FEF73AF8387860707978A170786860606A
:105DF000B968A160F868E06039692161387D207573
:105E0000797D6175B87DA075B969A161387F20770A
:105E1000797F61770021B87FA07721622163616279
:105E20006163A162A16384F82C1084F82D1084F8BA
:105E3000281184F829116868FEF7C5FA304600F089
:105E4000B9FA304600F006FB88B9DFF8A8160A68F0
:105E50002868D36898476868FEF74DFAFDF7DBFFBE
:105E600000212170FDF7F8FF002005B0F0BD684665
:105E7000FDF7EAFF00966B46287BDFF88826019045
:105E800004F17C00A968FDF7A3FF6846FEF78CF8D3
:105E900000966A462869DFF87016029004F19800AF
:105EA000FEF78AF8A07838B9002104F1CC00FEF79B
:105EB000BDFEDFF858062061607838B9002104F192
:105EC000E800FEF7B3FEDFF84806E0606846FEF73C
:105ED000EEF8002001908DF8000002966B460A2231
:105EE000DFF8301604F58270FEF7ACF8EA69A969AC
:105EF00004F13C0000F046FB33460FF22962042116
:105F000004F16800FEF7C8F9304605B0F0BD70B581
:105F100006467468B568206E00F081FE2968DFF8D7
:105F2000F80551F8382F02400A60002121703046F0
:105F300000F0E8F8304600F006FA296801F12C007C
:105F4000026822F01002026051F8303FDFF8CC0501
:105F500003400B606868FEF7CEF904F17C00FDF7A2
:105F600058FF04F19800FEF747F8A07818B904F13B
:105F7000CC00FEF770FE607818B904F1E800FEF777
:105F80006AFE04F58270FEF782F804F16800BDE84D
:105F90007040FEF725BBF0B581B0446820296FF052
:105FA00001020AD025D322290BD03EBF002084F85D
:105FB0002D000022104601B0F0BD012084F82D0014
:105FC00016E08668DFF82C75FDF725FF0546396871
:105FD00030680A69904710F1010FF8D1216C002058
:105FE0006064491EE064A063A1642846FDF734FFA5
:105FF0000022104601B0F0BD2DE9F043044681B007
:106000006668A7680D469146FDF705FF396830318F
:1060100080460968307808B1C80501D540465FE080
:1060200006F58270FEF74CF80020F077356270625A
:10603000386850F8301F41F4807101604046FDF728
:106040000BFFFDF7E8FE054696F8290128B9022066
:10605000FEF7A4F9012086F829012846FDF7FCFE89
:1060600049462046FFF792FCB06270B94946204687
:10607000FFF7DDFCB07800283DD1B16806F1CC0017
:10608000FEF7EBFD002832D015E0FDF7C4FE3968BD
:1060900051F8382F42F020020A60FDF7DDFEB0789B
:1060A00048BBB16806F1CC00FEF7D7FDF8B1494610
:1060B0002046FFF7BCFC00201021B062F17730468B
:1060C0003946FFF7FDFCFDF7A6FE044696F82901C8
:1060D00028B10220FEF7F6F8002086F829012046B4
:1060E000FDF7BAFE4FF0FF3001B0BDE8F083706AF3
:1060F00001B0BDE8F083002001B0BDE8F0834FF0AF
:10610000FF307047F0B5044681B06568A668FDF7BA
:1061100082FE0746A86A78B9306800F1180109685C
:106120000A0709D430300068C10505D4384601B0EB
:10613000BDE8F040FDF790BE05F58270FDF7C0FFA9
:106140000020A8623846FDF787FEB07DFF281CBFFF
:10615000F07DFF2803D031462846FFF7B1FCFDF75C
:106160005AFE316801F13802136823F020031360EE
:1061700051F8302F22F480720A60FDF76DFEFDF7B2
:106180004AFE064695F8290128B10220FEF79AF842
:10619000002085F829013046FDF75EFE6A6A286A0C
:1061A0002B69514201442962204601B0BDE8F0400C
:1061B000184700002DE9F041074682B07C68BE68B0
:1061C0002078154608B1A06B20B14FF0FF3002B027
:1061D000BDE8F0812163E0770021C4F83410C5B137
:1061E000FDF719FE8046694604F13C0000F0D3F942
:1061F00000281DD44046FDF72FFE216B9DF80000BE
:106200000870206B421C606B2263401C6D1E606333
:10621000E6D1626B206B637851420144012B21630C
:1062200002D1E36838469847606B02B0BDE8F08160
:10623000A563306800F130010A6842F400720A6018
:1062400050F8381F41F4FA6101604046FDF704FE42
:10625000FDF7E1FD054694F8280128B90220FEF774
:106260009DF8012084F828012846FDF7F5FD6078A7
:10627000002847D1FDF7CFFD94F82D1000291CBF51
:10628000616B002915D0A16B99B10022A263FDF7C3
:10629000E3FDFDF7C0FD054694F8280128B1022072
:1062A000FEF710F8002084F828012846FDF7D4FDF9
:1062B000BAE7FDF7D1FD616804F1E800FEF7CDFC17
:1062C0000028B1D00020A063002104F1E800FEF70F
:1062D000C4FC0028A8D0FDF79EFD054694F82801CF
:1062E00028B10220FDF7EEFF002084F8280128469F
:1062F000FDF7B2FD616B206B494201441020216320
:10630000E07791E7FDF787FD94F82D1000291CBF79
:10631000616B00290ED0A16B61B10022A263FDF771
:106320009BFD012104F19800FDF76CFE002002B0F6
:10633000BDE8F081FDF790FD002002B0BDE8F081DE
:106340004FF0FF307047F0B5044681B06568A7682C
:10635000FDF761FD0646386850F8381F21F4FA61F0
:106360000160FDF758FD074695F8280128B1022085
:10637000FDF7A8FF002085F828013846FDF76CFDE1
:10638000A86B28B9304601B0BDE8F040FDF764BD08
:106390000020A863686B296B40420844286330469C
:1063A000FDF75AFD6A6B296BEB68204601B0BDE82A
:1063B000F0401847F0B54F4E83B0856831684468A7
:1063C0002868CA6890472968534801F1380201F1EA
:1063D000440713680340136040F2F272C7F80020CC
:1063E00095F820005FA31A5C95F821705FA3D85D33
:1063F000024341F8342F6846FDF74BFE4EA0217F43
:1064000050F8213050A0617F50F8210050A2A17FA8
:10641000034352F82100A269346801996668034376
:106420002868B047286800F12C010A6842F0100281
:106430000A6050F8301F41F001010160AA7DFF2A77
:106440001CBFE97DFF2903D0026842F4404202608C
:1064500003B0F0BD70B586B085684468687D40F0D3
:106460000040009069462A7D2D4802434A60082278
:10647000AB7DFF2B1CBFEE7DFF2E06D043F000430B
:106480008B60EA7D104303901022FE238B5004F1B1
:10649000540000F065FA206648B32968184EB142EE
:1064A000697D0CBF0F22132200F00EFC2868297DA5
:1064B000B042206E0CBF1022142200F005FCA97D12
:1064C000FF291CBFE87DFF2810D02A68206EB24249
:1064D0000CBF1122152200F0F7FB2868E97DB042BD
:1064E000206E0CBF1222162200F0EEFB012006B037
:1064F00070BD0000D00100103853002040420F0052
:1065000000100040595B00002B5D00007D59000029
:10651000855900007B5A00000DF8FFFFFEFCFFFFCD
:106520000000C0A000B581B0042804BF1046FFF7EA
:1065300041FF002001B000BD00000000200000006D
:1065400040000000600000000000000008000000A3
:1065500000000000060000000200000086000000AD
:106560008200000000000102030400001000081077
:106570001820000004040810181C00001004081063
:10658000181C0000016042600021521E8160C26040
:1065900001614161704730B581B004460D46FDF799
:1065A0003AFCA16829B9FDF757FC4FF0FF3001B064
:1065B00030BD216822698B5C2B7021696268491C9F
:1065C000B1FBF2F302FB13112161A168491EA16026
:1065D000FDF742FCA06801B030BD30B581B0044683
:1065E0000D46FDF718FC6168A2688A4215D0E26882
:1065F000521CB2FBF1F301FB132122685554E160F8
:10660000A1686269491CA160914238BF114661616D
:10661000FDF722FCA06801B030BDFDF71DFC4FF076
:10662000FF3001B030BD704770B5FDF7E9FC05469D
:106630005FF00006DFF8D04625FA06F0C0070AD55D
:1066400004F10801F2B251F8220020B102681100F1
:106650001CBFF1B29047761C2068F1B28842EBD2A1
:1066600070BDDFF8A806DFF8A8260168DFF8A406E9
:106670001160FDF7C7BC00002DE9F04F8BB0074655
:10668000FDF741FDDFF89C060178FEF709FB0024C9
:106690000F284FF000081ED8DFE800F008081D1D85
:1066A0001D1D1D1D1D1D1D1D08121818FEF7E2FAE7
:1066B000022810D1DFF850160120486001240AE0BA
:1066C000DFF8441603204860072404E0DFF838169A
:1066D000052048601F24DFF85006C168C1F38151CE
:1066E000012903D10068000E81400C43DFF8301609
:1066F000DFF814360A68596802F07F025218521EF9
:1067000043F8882B0020FF25401C824203F8015BE0
:10671000FAD2C146BC46DFF8F0350126DCF80000AD
:1067200000F0FF0EBEF1FE0F00F0F78000F0FF0555
