:1000000000500020D97E000001CA011001CA011071
:1000100001CA011001CA011001CA011001CA011070
:1000200001CA011001CA011001CA011001CA011060
:1000300001CA011001CA01103FCA011030B40025E5
:1000400013E050F8042BD30744BFA9F101039A1819
:10005000091F042942F8045BFAD213468C0744BFF7
:1000600015809B1CC90748BF1D7050F8041B002950
:10007000E7D130BC7047000009490A6848680B683E
:100080009A42FAD1000C40EA0240704710B5044A87
:10009000136850681468A3421946F9D110BD0000D6
:1000A0000820094008467047704702000001000020
:1000B000002203F021BF00000068010701D50420E1
:0800C000704700F003007047D7
:100100003C0000000000000000000000340100007E
:1001100000000000000000000100000000000000DE
:1001200000000000000000000000000001000000CE
:100130000000000008000000000000003400000083
:100140000000000000000000680100000000000046
:10015000000000000100000000000000010000009D
:100160000000000000000000080000000000000087
:1001700030000000000000000000000098010000B6
:10018000040000000000000001000000FFFFFFFF6E
:10019000FF00000001000000080000000000000057
:1001A0002C0000000000000000000000C40100005E
:1001B000040000000000000001000000FFFFFFFF3E
:1001C000FFFFFFFF080000000000000034050000F2
:1001D000E401000099A1011095A70110A5C201102A
:1001E00009B2011045B80110A9BC011089BC011069
:1001F0002F000000280000000000000000000000A8
:10020000140200000000000000000000FFFFFFFFDC
:1002100000000000080000000000000030050000A1
:100220003002000069C201106DC101101FC201102F
:1002300095BA011009BC0110E9BB011033000000A0
:10024000300500005402000075C20110A9B601106B
:100250009DBF011049B60110B9BA011029BC0110A7
:100260003400000024000000000000000000000036
:1002700080020000000000000000000000000000FC
:100280000800000000000000240000000000000042
:1002900000000000A40200000000000000000000B8
:1002A0000000000008000000000000002400000022
:1002B0000000000000000000C80200000000000074
:1002C0000100000000000000080000000000000025
:1002D0000000000094050020040000000000000061
:1002E000000000002000000070010000300000004D
:1002F0001C020000B4050020040000000000000003
:10030000000000000C000000300400001800000095
:1003100040020000BC0500200400000000000000B6
:100320000000000024000000480400001800000045
:10033000000000001806002004000000000000007B
:100340000000000010000000A00100002C000000D0
:10035000CC01000020060020040000000000000086
:1003600000000000200000006402000024000000E3
:10037000FFFFFFFF40060020040000000000000017
:100380000000000028000000880200002400000097
:10039000FFFFFFFF700600200400000000000000C7
:1003A00000000000580000003C0100003400000084
:1003B000FFFFFFFF7806002004000000000000009F
:1003C00000000000100000006004000018000000A1
:1003D000FFFFFFFF80060020040000000000000077
:1003E000000000001C000000AC020000240000001F
:1003F000FFFFFFFF8806002004000000000000004F
:100400000000000038000000F40100002800000097
:10041000FFFFFFFFF00600200400000000000000C6
:100420000000000054000000000100003C0000003B
:100430001800000000000000000000004004000060
:10044000080000000000000018000000000000008C
:100450000000000058040000080000000000000038
:100460001800000000000000000000007004000000
:100470000800000000000000020000007C7F000077
:10048000704770470100000000000E0000000F00E0
:1004900032000000010000009C0500200002000066
:1004A0000000000001CA0110000000000000000070
:1004B0000800000000002200E0050020010000000C
:1004C00028060020080000000000000000000000D6
:1004D000000000000000000000000000010000001B
:1004E000900600200600000001000000F806002031
:1004F00000000000000000000002000000000000FA
:0F050200290001002400330034002F0001000104
:1005140004000000547F0000000000000000000000
:100524000000010000000300A134000038050000B1
:10053400380500000000000090000000900000005A
:100544000000000028060020856D00002000000047
:10055400F07E0000A07C00000DC30110E534000013
:10056400E734000099C801109BC801100200000084
:10057400AC000000787E0000907E0000607E0000E9
:090584000800090001000000015B
:10059000000000000000000000000000000000005B
:1005A00099330000B73300008F320000E1330000C0
:1005B000ED320000AD3200001F3300000F340000A8
:1005C000FD6C0000556E0000596E00000800000030
:1005D0002400000018000000280000002000000097
:1005E0003C0000000C0000003400000021B109694B
:1005F000814201D10120704700207047F8B50546BF
:100600000C4601F088FD0646002705E021462846F5
:10061000FFF7ECFF00B127462468002CF6D100F06C
:1006200033FE3846F2BD00213822DFF8380A4A434B
:10063000104490F83720130603D5491C0829F3D33A
:10064000002070472DE9F84380468946164600276A
:100650003821DFF8100A7943441804F13405B5F95C
:100660000000484508D1214600F0D5F920B13000FE
:1006700008D0E878304205D17F1C082FE8D300204D
:10068000BDE8F2832046FBE710B50129044698BF78
:10069000012101F0A6FD2046BDE8104001F0A3BDF8
:1006A00038B504460D4601F069FBA04231BF241A5B
:1006B000641E241A641CA40805F57A70A04238BF91
:1006C000B4F1405F05D2641B012C98BF0124204681
:1006D00032BD002032BD70B50446DFF88C09406998
:1006E0000025E8B1C268117B012501F00F01022944
:1006F00015D10069DFF87439C168408A93F86260E7
:100700004118192000FB06119068FFF7C9FFDFF8B8
:10071000301A20600A68B0FBF2F2226001E000208B
:100720002060284670BDDFF8B4190A680020D3079E
:1007300005D5DFF8100A0068C00900F00100704715
:10074000F8B500F0CDF90546002C1CBFA07A0028B2
:100750002AD094F909600127FFF7E5FF07FA06F6AA
:1007600058B194F90900DFF878194A68113007FA8E
:1007700000F0C04302404A6008600020A07220726E
:1007800020606060C4E90400DFF8BC19A06194F93E
:1007900009000A788740174388780F7008B1401E17
:1007A0008870F0B200F09FF92FE1032804DADFF837
:1007B000BC1801EB40107047002070472DE9F0474E
:1007C0000027DFF88889DFF8A4A8DFF8145911267C
:1007D0004FF00109F8B2FFF7E8FF040034D0A07A27
:1007E000012831D194F90900113009FA00F0C14310
:1007F000296069680843686094F9090009FA00F003
:10080000C0B200F061F9002104F1100001F084F998
:1008100081280AD1A2691AB10021104601F07CF9A1
:10082000812802D10220A0720EE081280CD09AF813
:10083000610094F9091006FA01F108438AF8610091
:100840000021404601F01CFD7F1C032FC2D3BDE8F0
:10085000F0872DE9FE4F0446884691461F4601F079
:100860005AFC019700976FF0010B02900025DFF80A
:10087000D878012697F800A0AE401AEA060F0DD0EE
:10088000009810F1010F1CBF0199A94206D1E8B2EE
:10089000FFF78BFF10B1817A002947D06D1C032D23
:1008A000E7D33DE0022818D140F20360208294F99A
:1008B0000900618A401D60F30B2161825079618AD1
:1008C00060F3C70161829079618A60F34E31618281
:1008D000D079618A60F30C31618200220D9878B181
:1008E0000278417894F90900520142EA8102401DE0
:1008F00042EA00224FF6FC710A40DFF88809024301
:10090000A2615FEA0900DFF8601718BFC4F804901D
:10091000486B08B922684A6300F04BF994F909B0B2
:10092000029801F008FC5846BDE8FE8F0C9A2AEAAE
:1009300006063E700123837245722146BB785B1C1C
:100940000446BB70216084F808800FF2E5606060A7
:10095000207A0128A6D10A20208294F90900401D9E
:10096000A07490686061B8E738B504281BD1DFF83F
:10097000F84604F1E405284601F027FC98B1284622
:1009800001F021FCDFF8B8170A685043B0F5967FF4
:1009900009D2284601F029FC052001F097FD01202D
:1009A000607300F030F9002032BDF8B500F098F81F
:1009B000DFF8B87607F190060546307B20EA04049C
:1009C00034730024B86E20B19C3001F0FEFB00B1FE
:1009D0000124F86E20B19C3001F0F7FB044314D1E0
:1009E000307B002808BF002C0FD1306868B190F828
:1009F00020108A0709D5C46901F038F9306800224F
:100A00000221A04700203060F1BD2846BDE8F24039
:100A100001F091BB29464046E8E538B5DFF8AC4A1D
:100A2000DFF844566069002161610022E068E160FE
:100A300005F178000FF2396101F073FB0020C04628
:100A4000C046FFF723FBA96B814231BF401A401E0D
:100A5000401A401CA9684FF0FF32A2EB10328A42C4
:100A600034BF4FF0FF3001EB1030A860287B20B17D
:100A7000296CA868C90281421FD2FFF754FEC0B199
:100A8000DFF84C0A40F60901018000220021418074
:100A9000417B01F0F00141F001014173017B01F064
:100AA000F00101734260E2612060418811F4406FFF
:100AB000FBD0012028730020A86001F0C7FFDFF8F9
:100AC000141A0020086031BD10B500F009F8DFF8F5
:100AD00098150A7C14430C74BDE8104001F02BBB40
:100AE000044601F018BB38B5FFF7FAFF0546DFF8FA
:100AF0007805017C21EA04040474017C0A0703D40C
:100B00000821443001F0BCFB2846BDE8324001F02A
:100B100012BB2DE9FE4F05460020286000266846DE
:100B2000FFF7D9FD0446DFF81806DFF840B5DFF817
:100B3000388501904FF0FF3A00274FF01909F8B2BD
:100B4000FFF733FE00281CBF817A002916D0017AF6
:100B50000126022921D0D8F83420D168528A406970
:100B600051189BF8622009FB0211FFF799FD0199CA
:100B70000A68B0FBF2F0504598BF82467F1C032FF5
:100B8000DDD330460CE0296002E008B1C5F800A0D2
:100B9000204318BF0120BDE8FE8F01204FF0000A5E
:100BA000002CF2D000280099EDD05145EBD95146E8
:100BB000E9E77CB5DFF8B0442078022803D119209A
:100BC00001F0ADFA73BD012818BF04281AD001F056
:100BD000A2FA05466846FFF79CFF04F1E40660B1FF
:100BE000009820B101463046FFF74EFD08E0304640
:100BF00001F0FBFA00F007F802E0304601F0F5FAE8
:100C000001F034F873BD042104F1440001F038BB55
:100C1000DFF854345A6A996A5869002A00D170473B
:100C200010B581B978B190F83710CC060BD51169A1
:100C30000069814207D1BDE810404FF4004103F143
:100C4000440001F01DBB10BD10B5014600228B68A9
:100C5000487C5A8040F602041A88121B09D041F2DF
:100C60001E04121B05D041F6E674121B012A11D98D
:100C700020E01C8A4FF6FF3214401C8220B14FF650
:100C80000F4004401C8215E02D20224660F309121B
:100C90001A820FE01C8B4FF6FF3214401C8320B1E8
:100CA0004FF60F4004401C8304E02D20224660F3E1
:100CB00009121A830020487410BD38B5DFF8A85314
:100CC0006C699CB1A86A002865D12169686A38B14D
:100CD0006A6A106988425ED194F83700C2065AD514
:100CE000686B814206D04FF4806100E0022100F081
:100CF00054FD31BD6846FFF7EEFC00281CBF00988C
:100D0000002809D0696A002904BFA86A002803D115
:100D10000820FFF7E8FE31BD0820FFF7D5FE94F864
:100D20003700C10605F1140003D501F0F4FEA862F6
:100D300002E001F0F0FE6862D4E90601C143DFF889
:100D4000A023916093680342FBD1D368D4E90601E4
:100D50000343D360D4E90601C94311605368D4E961
:100D600006010B435360E468204601F062FE2088D0
:100D700040F60201401A08D041F21E01401A04D088
:100D800041F6E671401A012803D82146012000F0FF
:100D90003EF9FFF73DFF31BDB348416B8A6801F171
:100DA0002803506830B1984218BF0246F9D101E0DB
:100DB00000207047507B10F00F0F02BF488D40F6A7
:100DC00009018842F4D101207047F8B5A64EDFF83A
:100DD000D00B746A01F066FE0546DFF8C80B0268A6
:100DE000076802F020022A4018BF002C07F4602791
:100DF0000BD0F462D4E908011143C4E908014FF4AF
:100E0000005106F1440001F03BFA3D400DD09748F7
:100E100090F8611041EA554580F8615006F1940060
:100E2000BDE8F440002101F02BBAF1BD2DE9F843F3
:100E3000DFF8388298F86100002450B100260120C4
:100E400098F8611000FA06F211420DD1761C032EBB
:100E5000F6D398F8610028B1BDE8F4430021BB48FF
:100E600001F00EBABDE8F18398F861101020B0408F
:100E7000014218BF012401F04EF998F861101122C7
:100E8000B240914388F8611001F055F9F0B2FFF7D4
:100E90008CFC02001CBF907A0028DAD092F90990ED
:100EA000DFF8C81C01EB8901002C0F681668556833
:100EB00004BF137A022B03D1D2E90401C3000CD47E
:100EC0001046FFF73DFC44B10020009000224FF097
:100ED000007349463046A847BBE7009700224FF011
:100EE0000063F6E72DE9FC410FF2A801DFF87881F5
:100EF000DFF8B05AD1E90023CDE900230024002611
:100F00005DF826703868A0B33A68D2E9060101F0AE
:100F100087FD84463868816A4CEA010181621CF0D1
:100F20000A0F3968D1E9082342EA0C00C1E9080335
:100F300017D03A68AB68D2E9060120F0020083437B
:100F4000AB6044F002043A682B68D2E906018B4397
:100F50002B6008F11C00396801F0EFFD00203860BB
:100F600007E0BCF1000F04D03868C8F82C0044F446
:100F70008044761C012EC3D921001CBF08F1440017
:100F800001F07EF9FFF71AFCFFF797FEBDE8F38149
:100F900000000000EC2D0020F02D0020DFF8D00B29
:100FA000B0F93010B0F93200814204BF0820FFF7D9
:100FB0009ABD70470720FFF7F8BCF8B506460F4604
:100FC000D6F868C014461D46BCF1000F18BFE047B4
:100FD000D6E9180104400D400020854208BF844234
:100FE00014D000F0A1FFC6E91C4538B1D0E90823B0
:100FF000A243AB43C0E90823B16E81600020B06614
:1010000006F14000BDE8F24001F0F7BDF1BD10B5BA
:101010000A46DFF8601B4B681C001CBF8968014250
:1010200005D0114C0146606BBDE81040184710BD5B
:10103000704780B501F022F9DFF8342B0146506B80
:101040005268BDE808401047DFF8240B0FF28D42CC
:101050004168914208BFFFF7ACBD0421443001F064
:101060000FB90000E02A0020C82D002078320020AF
:1010700038B54FF0FF3001F0D3FCDFF8F45A0FF22F
:101080005D410446686888420AD100F07FFB022077
:101090002870FFF781FE18B9FFF790FBFFF70DFEF0
:1010A000DFF8D00C044207D005F14400BDE834401D
:1010B0004FF0005101F0E4B831BD80B54FF0FF3082
:1010C00001F0AEFC810707D5BDE804404FF4805124
:1010D000DFF8A40C01F0D4B801BD000040210840A5
:1010E000081004401CB5DFF8884A616B4A685168F3
:1010F00039B1012808BF01F0C3FC606B4168486842
:101100008047606B42689068002804BFD16800295E
:1011100014D0DFF8541B08680028FAD000230B60B5
:10112000906800B18047606B4168C86800B1804733
:10113000BDE81640DFF89C0C01F07BBC13BD00003D
:101140007C34002000000440D83200205C2E0020B7
:1011500070B5DFF81C5AEC69002C77D0E1682020CC
:1011600040F6040240F6030300291CBFC6B2002E5D
:1011700072D00E889E421EBF96424968401EF3D12F
:1011800065E000224FF0804304E000224FF08053DE
:1011900000E0002394F83700010706D594F83700E3
:1011A00010F0070F18BF43F08073B4F934102069B2
:1011B000A668B04700F0AFFF0646688E401CC0F33B
:1011C0000B006886002084F8370005F11C0001F050
:1011D000A2FC00F059F8B5F93200B5F93010884298
:1011E00034D1226992F8C010052001B10720FFF721
:1011F000DCFBDFF8D00B2369826E934208BFC26E1E
:1012000093F8C000002100B91968002583F8C05088
:101210004AB192F8C00010B182F8C05003E01068E3
:10122000884228BF014619B9BDE8704008205AE439
:1012300011F1010F0AD0A8480268B1FBF2F122694E
:10124000BDE8704002F17800FFF71EBA70BD20695A
:101250001822283001F0E4FCA26A0020A062A068F5
:101260000028A7D094F8371001F00701012904D015
:10127000022986D0042988D08BE700224FF0005342
:1012800088E7000001000406304600F054BF38B57E
:101290000D46A807DFF8D8480ED5FFF759FFE069DB
:1012A00038B145F0020104F14400BDE8344000F0DB
:1012B000E7BFBDE831407CE4680750D5FEF7E6FEA5
:1012C000A063606988B10569606B002818BFA842F7
:1012D0000AD095F82000410704D5EB6900220421CB
:1012E00028469847012068746563606B4168DFF8A1
:1012F000740B0A780260022001F0E8F8112001F076
:10130000FAF801202070DFF86C18887810B90E20E8
:1013100001F0F1F8606B6D4A40688168002904BFF4
:10132000C068002804D00021D161DFF83C0B1060B8
:1013300007206849086000205169506100219069C8
:10134000916150690FF2190140F0804040F00200B5
:10135000506161601920BDE8324000F0DEBE31BD51
:10136000890000D470472DE9F843804684B00020FE
:10137000FFF7B8FE554DDFF8F40A554F0021E9613B
:10138000286040F60A060120C046C0463E80002084
:1013900078800021387B00F0F00038737960787B2A
:1013A00000F082FA78734046FFF74EFCD8F80890B8
:1013B0004C4640F6040140F60302606800281CBF5A
:1013C0000388B34218BF93424BD08B4218BF0446E8
:1013D000F3D146E0B8F82800B8B10021A8F82A10E7
:1013E000C8F82C1008F134004278017802F0F002BD
:1013F00001F0F00142F001020170427008F1280092
:101400007860787B00F0F00078736946484601F018
:101410004FFB684601F05AFB00F04BFA0FF2BD009B
:101420007060707B30B101F0D4F90028FBD001F07E
:10143000E1F90BE0012001F05DFC012806D0607BA2
:1014400000F032FA60730FF2410070600020E86132
:10145000C5F8009049460120FFF7D9FD05B0BDE869
:10146000F0836760607BDFF8086700F0F00060736E
:1014700070690028AED0C0680088904218BF8842CA
:10148000A8D10021B163C0E7DFF8982A114200D14A
:101490007047012010B501F02DFC0128DFF8D0467F
:1014A00008D10FF23901094861600021C161084982
:1014B000016010BD08490A683220B0FBF2F104F166
:1014C000E400BDE81040FFF7DFB800000010044062
:1014D000E8330020000004607C3400202DE9F8434C
:1014E0000C466104DFF888561ED500F014FEEF6A42
:1014F000AFB1B96A8A0712D4BE6AB96AB143B96298
:1015000000F019FEB868002818BF002E09D0B7F9FE
:10151000341038693246BE680023B04701E000F05D
:101520000AFE24F480442BE10646A0006FF4807785
:1015300049D500F0F0FD8046042001F0DBFB0028D7
:101540001CBF307C002820D0A86BF0B18146FEF78C
:101550009DFD8145F16831BFA0EB0909401EA0EB5C
:10156000090000F101094FEA19308842F06002D207
:1015700001444908F16040F69901F068A0F59670C1
:10158000884224BF40F6C411F160404600F0D3FD0C
:10159000FFF702FC68B13946B76900224FF00073CB
:1015A0003046B847686910B1FFF703FB01E044F02B
:1015B00002043046766900224FF080630021B04774
:1015C00024F00054DCE0A00707D5FFF7C1FDE8696F
:1015D000002801D124F00204D2E0600523D500F0F8
:1015E0009AFD6E690746C6B1696A002904BFA86AF8
:1015F000002812D104212970686B0FF2A9116960CB
:1016000010B1783000F0F1FD30696863FEF73EFDFF
:10161000E8634FF4006100F0C0F8384600F08BFD3D
:1016200024F48064ACE0A0040FD5EE6A002E1CBF49
:10163000B068002806D0B6F934103069B6680022C8
:101640002023B04724F400549AE0E00429D5FFF7A2
:10165000A3FB30B13046B66900224FF00073394623
:10166000B04700F093F802202870EE6BFEF70EFDF5
:10167000DFF850276B6B976E0421BB4208BF002137
:1016800046B1864231BF861B401E861B761C501811
:10169000360B06670020E86324F48054FFF789FACC
:1016A0006EE020040ED5696A39B1CA6850880028F6
:1016B000FBD0CA6850880128F7D0FFF77AFA24F4E3
:1016C00000445DE020075BD5287C010754D4287CCA
:1016D000010651D46846FFF71CFA10B100980028A3
:1016E0004AD000260127F0B2FFF75FF800281CBFA0
:1016F000817A002907D0877290F9090007FA00F073
:10170000C0B2FFF7F0F9761C022EECD90320287046
:10171000686B783000F069FDFFF77FF90021022047
:10172000FFF775FC022000F06CFE112000F07FFE38
:10173000687C20B9696B01F1400001F05EFADFF8C6
:101740003424907810B90E2000F071FE687B20B12F
:1017500000216973052000F054FEDFF8BC086860C2
:10176000002028700220B5F93210B5F930209142DE
:1017700008BF0720FFF719F9FFF71BFA24F0080448
:1017800014B1214600F009F8BDE8F1830022DFF82A
:101790008C1805F1780000F0C4BC05F1440000F09D
:1017A0006FBD0000F8B50446080584B06AD5DFF8BF
:1017B000C063706B90F820104A0703D5C3690022FC
:1017C000042198470022DFF8D017DFF8545806F1BB
:1017D000780000F0A6FCDFF84C087060706B406881
:1017E0008168002904BFC068002804D00021E96195
:1017F000DFF8740628600120FFF774FC0020E86120
:10180000DFF868062860012060742046FFF71CFAA4
:10181000A768394640F6040240F6030340F60A0C76
:10182000486888B3B0F800E0E6451CBF9E45964581
:101830002AD00146F4E7208DA8B100226285E26239
:1018400004F134004378027803F0F00302F0F00270
:1018500043F001030270437004F128004860487BA4
:1018600000F0F00048736946384601F021F96846F7
:1018700001F02CF900F01DF8E9612F6039460120D4
:10188000FFF7C5FB05B0F0BD00204860487B00F0C5
:101890000BF848737069C0680088984218BF90427E
:1018A000C9D10020F063DEE700F0F00040F0010055
:1018B0007047E8690028FCD00021E9617047AC4915
:1018C000486A002808BFFFF774B9FFF7A1B938B517
:1018D00084B000F002FDDFF85007A64D0168A44C6B
:1018E00041F002010160684600F09DFC6878DFF875
:1018F0003C1702906A4604F1440000F09CFC6A46E2
:10190000DFF82C1704F1940000F095FC684600F015
:101910000AFC2878DFF81C2701906B46192104F196
:10192000780000F0D6FB6B46DFF80C271A2104F193
:10193000C80000F0CEFB00230022DFF8001704F1FE
:10194000E40000F01AFC0023DFF8F426042104F57B
:10195000847000F044FDA878012804BF0E2000F038
:10196000CAFD04F11C0001F0CBF804F1140001F0F1
:10197000C7F800202070A081A0600721DFF8C4060E
:1019800001700021A163052121640021217405B0AB
:101990004FF4FA7101614161DFF87C06606030BD8F
:1019A00020000E000C1004402DE9F84FDFF8987667
:1019B0007D698046894692469B46002600E02D6858
:1019C0004DB34D45FBD135B32C68FFF723F8E8B193
:1019D00095F8370040F00400BBF1000F85F83700A0
:1019E00009D095F8370040F0080085F83700D9F89D
:1019F000101000F089F8294607F1140001F0B3F83F
:101A0000294607F11C0001F098F8761CBAF1000F86
:101A100018BF2546D7D121E22DE9FC4780460C4668
:101A200017469946032500F076FB14F1010F824614
:101A30004F4E0DD1716AFEF7EEFF08B1746A0DE0EA
:101A4000B16AFEF7E8FF00280CBF7469B46A05E0CC
:101A5000002221464046FEF7F5FD0446002C4DD0FD
:101A600094F83700010648D50A9D706A84421CBF6D
:101A7000B06A84422ED10121706AB94028B1706ADF
:101A800090F837200A4380F83720B06A28B1B06A4E
:101A900090F83720114380F83710002F14BFDFF87B
:101AA000AC05DFF8AC0500F0C4FF280008D094F8BE
:101AB000370040F0080084F83700216900F024F86E
:101AC000B9F1000F17D071692B464A464046FFF71F
:101AD0006BFF10E02B464A4621464046FFF764FF65
:101AE00058B13078012818BF042804D0022106F12B
:101AF000440000F0C5FB832500E00425504600F0BB
:101B00001AFB2846BDE8F687DFF848050160017B2F
:101B100041F001010173704710B50C4600F054F913
:101B20000BD100F086FF04B1206000F0FF00012817
:101B300001D1812010BD022010BD012010BDF8B5DB
:101B400004460D46164600F0E6FA07460848416B83
:101B50008C4218BF032404D131462846FFF7DCFF2E
:101B60000446384600F0E7FA2046F2BD94300440BF
:101B7000C82D0020647F0000F8B50746DFF8D804C0
:101B80008AB00E001546006818BF002D1C4668D0AC
:101B90003278D040C00764D5002128460020C046D6
:101BA0007E60BD6000F0B7FADFF89C640546707C8B
:101BB000022854DA08B9FFF78AFE707C814901EBEC
:101BC0008001401C8F66707400F050F834B903A88F
:101BD0000FF2AC411C2201F023F803AC20683860FE
:101BE000A0693862208A78820120787460680028B1
:101BF00012BF002140F6C41001213974F860DFF8EB
:101C00005C14E0680A460B4600B10146B9616069A0
:101C100000B10246FA61A06800B103467B61A021D1
:101C200007F12800FEF744FA002107F1400000F018
:101C3000C6FF684600F0D0FA02976B460022DFF834
:101C4000201407F1780000F098FA6B460022DFF8C4
:101C5000141407F19C0000F090FA384602E000F0FE
:101C600005F800200BB0F0BD1C100440284600F021
:101C700062BA70B5DFF8D043617C002978D00546A0
:101C8000B4F93000B4F9321088421AD004F11401CA
:101C90002846FEF7B3FC58B9616A2846FEF7A6FC51
:101CA000002811BF606A04F11C012846FEF7A6FC5B
:101CB00038B1B0F9341000224FF0E043284600F06C
:101CC000D7F800F028FA06463E48816E8D4207BFDD
:101CD000002181660021C166607C401E6074C0B234
:101CE00088BB2078656302280DD10820FEF7FBFE33
:101CF000FFF7CAFA4FF0FF3105F1400000F074FF22
:101D000000F009FA064604F1440000F0B3FA04F1C9
:101D1000780000F0FEF904F1940000F0ABFA04F151
:101D2000C80000F0F6F904F1E40000F048FA04F508
:101D3000847000F018FDDFF830038178012904BFBA
:101D40000E2000F074FB606BA84204BF00206063AB
:101D5000FFF79AFA05F1400000F044FF05F1780022
:101D600000F02DFA05F19C00BDE8704000F027BAA4
:101D700070BD0000020000400C2E002070B500F085
:101D8000CAF900F021F805D1DFF8E0321C6800F054
:101D9000D2F914E000F0CFF9FEF778F910F5003031
:101DA000DFF8CC22DFF8CC6241F10001A2FB004554
:101DB00002FB01553169002024184D412C46204674
:101DC00070BD000078320020DFF87C120A78022A09
:101DD00070470000010007062DE9F84F80468B464A
:101DE0001546994600F097F98246FEF71CFC040060
:101DF0006FF001062FD0DDE90A6708F1780000F0E6
:101E0000F4F9DFF84402018E491CC1F30B0101868D
:101E1000C4F80CB004F1360120230D70C4F808900A
:101E20003B40028EA286C4F810801430DFF84822AE
:101E3000324042F00205C4E9065380220025C4E97D
:101E400008554A7088F8C050214600F076FEFFF72A
:101E500036FDB4F93460504600F06DF93046BDE807
:101E6000F28F0000D02108405100070601010E0446
:101E70002DE9F0410F46390014461D4601D50020DA
:101E80001BE0064600F0F8F9804600F04DF8070028
:101E900003D097F83700010602D400F04AF80BE0AF
:101EA00097F8370010F00F0F09D000F042F897F8BC
:101EB000370010F00F0FFAD1022000212FE0D7E9F0
:101EC000080144F00A04204029400022914208BF42
:101ED000904210D000F02DF8D7E9080120402940A9
:101EE000C6E91C01D7E9082322EA000023EA010120
:101EF000C7E9080111E0B968DFF88001814202D02A
:101F0000B968B166B860C6E9184500F012F84FF03C
:101F1000FF3106F1400000F067FED6E91C01BDE884
:101F2000F081000004000020802239463046FEF790
:101F300089BB404600F0A6B9DCB500F00CF8FFF70D
:101F40004BFFFFE70146204602B0BDE8D04000222B
:101F50004FF0E0438CE7DDE90667CDE90067044612
:101F6000704780B5930803F001030093530803F012
:101F7000010302F0010207E080B5930803F00103BA
:101F8000009302F001020123FFF746FD02BD0FF2AC
:101F9000F0011C2200F044BEBB100000E0B500F0D0
:101FA00005F80121FFE7FEF754FC0EBD01920091F8
:101FB00091F904300A687047F8B505460C4600F000
:101FC000AAF80746E0B2FEF7F0FB802604001CBF2B
:101FD000A07A00281AD0FFF7F7FE11D194F9091062
:101FE000491D0906090C41F08161002241F00101FF
:101FF0002846FFF7A4FD06462046FEF7A1FB05E0B4
:102000002046FEF79DFBFEF7D4FD8126384600F002
:1020100092F83046F2BD00008F120000E50E00007D
:1020200000100440DD1400000020094033100000BF
:102030002D0E000071100000CB0D000049100000B3
:1020400069090000D8320020C82D002001000204D8
:102050000100010408330020D421084031100000A1
:102060009D0F0000B50F0000647F000004300440A5
:1020700000093D00E8330020FFEFFF9FBB0F000089
:10208000FFFFFFFF00000000000000000000000054
:102090003A0100000000000000000000DFF800F03E
:1020A00049C10110DFF800F019C20110DFF800F09B
:1020B0003DC10110DFF800F061C20110DFF800F04F
:1020C000DDB2011020B1082330220021FFF7EEBF5E
:1020D0007047F8B51C008CB005460E46174603D174
:1020E000002301F07FF80CE06846FFF7EBFF206863
:1020F00005906B46606808903A4600F004F801F0DD
:1021000071F80DB0F0BD207AADF8180031462846C0
:102110007047FFF7CFBFFFF7C1BFFFF7CFBF01F099
:1021200082B801F07DB8002101604FF0FF314160BD
:10213000012101727047FFF7B5BF0000DFF800F022
:10214000C1C20110DFF800F0E3BF0110DFF800F0BA
:1021500085C10110DFF800F079B50110DFF800F05B
:10216000B9C20110DFF800F0F9BF011020B1082357
:1021700024220021FFF7EABF7047F0B51C0089B0A8
:1021800005460E46174603D10023FFF7E3FF0FE095
:102190006846FFF7EBFFA06806906B462178ADF824
:1021A00010103A466068059031462846FFF7D2FF86
:1021B0000F48104A01681160284609B0F0BDFFF7CA
:1021C000CDBFFFF7CFBF00F0E0BE80B500F0F4FE5A
:1021D00000B10120C0B202BD0021816001704160E8
:1021E0007047FFF7ABBFFFF7ADBF00F0C0BE000008
:1021F000B07F00007C340020DFF800F0D5C0011073
:10220000DFF800F0E1B50110DFF800F0CDC10110FA
:10221000DFF800F0E9C2011020B1082328220021D4
:10222000FFF7F2BF7047002101604160C1604FF0CD
:10223000FF318160704770B514008AB005460E46C4
:1022400003D1002200F0A8FF0CE06846FFF7E4FF8E
:10225000206804906A4660680590314600F004F8F2
:1022600000F09AFF0AB070BDE0680790A068069081
:1022700028467047FFF7CCBFFFF7BEBF00F086BF10
:1022800000F096BFFFF7BCBF80B5002301223421C8
:10229000DFF8F00601F0B3F900B10120C0B202BDD1
:1022A000DFF8E4068068704702460020022904D166
:1022B000012A06D140F2EE207047012A08BF4FF4F0
:1022C0007A707047DFF8C01691F8E60020B1D1F8B7
:1022D0001001002818BF004770472DE9FE43DFF8C2
:1022E000A88608F1E106B079002875D10121DFF850
:1022F0009C76DFF89C56DFF89C96B171F87C707183
:102300007868C8F810016846FFF766FF0021019160
:102310008DF8001002916B4600220FF2E14108F1A6
:102320000C00FFF72AFF6B4600220FF29D5108F1C7
:102330003000FFF722FF6B4600220FF2ED4108F15B
:102340005400FFF71AFFB96801208847DFF84806F4
:1023500001786868C0F38154387D20B1032C02D124
:102360000121317003E0032C18BF022C0DD1022093
:1023700000F0ACF8032CD9F800100CBF4FF47A70C1
:1023800042F21070B0FBF1F118E0012C02D100F024
:1023900036FA1BE0D4B9022000F098F8042000F0CF
:1023A000A9FC012803D1002000F029FA0EE0D9F899
:1023B00000003221B1FBF0F1B1FBF0F108F1540063
:1023C000FFF70FFF08F15400FFF70DFF28684007E3
:1023D0005CBF002000F07AF80020BDE8FE8338B52D
:1023E000002408B1150002D16FF0020407E08160FB
:1023F000C26003610146DFF8900500F09EFB2046B5
:1024000032BD10B50446FFF786FEDFF87C150A19C9
:1024100092F8E8305B1E82F8E830DBB233B98A68A4
:10242000012303FA04F422EA04048C605FE0F8B5A7
:102430000546FFF770FE0446DFF84C15481990F882
:10244000EF20521E80F8EF20D2B27ABB0FF28450F8
:10245000DFF8487500EB850210F8255056882806ED
:1024600015D539680A6A304690473A68916A30460D
:10247000884739680A6B30469047DFF824150120F9
:102480000860DFF8200501688907FCD507E06806C9
:1024900011D501EB86010020D1F80421904705F009
:1024A0003F05132DBCBF2846FFF7C1FF2046FFF7AD
:1024B00042FE0020F2BD39688A69304690473A688A
:1024C000516B304688470228F9D1E8E710B5044639
:1024D000FFF721FEDFF8B0148A680123A3401A43F6
:1024E0008A60214491F8E820521C81F8E820FFF727
:1024F00022FE002010BD2DE9F0410646FFF70BFE3D
:102500000446DFF88454A81990F8EF104A1C80F8AC
:10251000EF2049BB0FF2BC4818F8260000F03F003E
:102520001328B8BFFFF7E7FF08EB8600478818F8C5
:102530002600DFF8686401060ED53168CA6938469E
:1025400090473268516A384688473168CA6A3846C7
:10255000904700F01AF807E040060BD505EB87011D
:102560000120D1F8042190472046FFF7E4FD002028
:10257000BDE8F08131684A69384690473268516B4E
:10258000384688470128F9D1EEE7DFF81414012016
:102590000860DFF8100401688907FCD570472DE951
:1025A000FE4F002600240128A24618BF6FF0010844
:1025B0005AD1DFF8D49309F1DC073868012851D1EA
:1025C0000221396001F094F8012000F05FF95FEA20
:1025D00000084AD1FFF750FEDFF8D01301900C60DD
:1025E000012000F087FB012803D1002000F0A0F9B2
:1025F0000124DFF8BC130E60DFF8AC130A6809F1A0
:10260000FE02907808B14FF0010A517809B14AF002
:10261000020A107808B14AF0040AB87FDFF87C5348
:1026200020B129680A6B4FF480609047787F20B111
:1026300029680A6B4FF481609047DFF86413DFF874
:1026400074B3012008604AF0200029688A69904725
:10265000DFF864130120086099F80800C10709D564
:1026600001261AE06FF004087AE00120386001F0DA
:102670004AF875E05846FDF71FFD0428FAD00128F6
:10268000009004D12A6A5368032158469847DFF81E
:102690002C030168890889000160002001F05AF8C4
:1026A000DFF80493D9F800002868816B88476EB979
:1026B0000098012804D12A6A536801215846984796
:1026C000DFF8F802016841F0030101600120B84A17
:1026D0001060504629684A699047B87F20B1296840
:1026E000CA6A4FF480609047787F20B12968CA6A2F
:1026F0004FF481609047AA49AF4A01200860002149
:102700001160032038602A68516B504688470128C1
:10271000F9D1D9F80000042000F0B8F80646A34922
:1027200001200860D9F80010A54801688906FCD589
:1027300014B1012000F0FCF801F05CF9082000F071
:10274000A5F80643012038600198FFF79BFD8F48EC
:10275000008A01F0D2F800F0D6FF0EB14FF0FF383A
:102760004046BDE8FE8F38B50446FFF7D4FC054669
:102770002146854800F0F7F92846BDE83240FFF7CA
:10278000DABC3EB50024012804D020D303281CD095
:1027900017D31CE06846FFF71FFD7B4D8949019464
:1027A0008DF8004002946B46012205F17800FFF796
:1027B000E4FC0023844A2C2105F19C00FFF789FCEE
:1027C00005E001F033F9044601E001F0DDF92046AF
:1027D0003EBD38B5FFF79FFC6B49054691F8E00018
:1027E000012410B1FFF750FD04462846FFF7A3FC73
:1027F000204632BD002067E00000000070471CB595
:10280000032000901C235F4C4FF0405200212046D3
:1028100000F0E1FE0120009009234FF40072002136
:10282000204600F0D8FE13BD10B5042000F062FA77
:10283000022818BF032805D1FFF7E1FFBDE81040CB
:102840000220DEE5012802D1BDE81040D7E75F484D
:102850000168C1F38150032808BF4FF47A7004D097
:1028600002280CBF41F2883032204A49464C0A689F
:10287000B0FBF2F104F15400FFF7B3FC04F1540093
:10288000BDE81040FFF7AFBC0020704738B50546E3
:102890003D4804685CB1A068284205D02269E3681D
:1028A00000212846984720B92468002CF3D1002045
:1028B00032BD4FF0FF3032BD454901280CBF072023
:1028C00000200860002070477CB5FFF724FC2E4DE7
:1028D0002E4E044695F8E00050B1287A410613D4F4
:1028E000FFF7D2FC80B100F01FFA002085F8E0006D
:1028F0000220B568A84706461020FFF7C7FF012E43
:1029000011D10320A8470EE022490A683220B0FB0B
:10291000F2F101B9012105F13000FFF762FC05F188
:102920003000FFF760FC2046BDE87640FFF703BCAF
:1029300038B5012821D100F0DDF901281DD000F0C3
:10294000E9F9114D012085F8E000287A810616D4B6
:10295000104802683221B1FBF2F404B9012405F1F8
:102960003000FFF742FC214605F13000FFF739FC4B
:1029700005F13000FFF737FC01E000F0F7F9002027
:1029800032BD000000A00C4078070020487E000007
:10299000B03F00507C34002084340020B801001087
:1029A00028200860282008402C2009400C400940BD
:1029B00000022243004003408001044324220840D7
:1029C00014100940BD3C00008D3A0000B43F005097
:1029D000000004608F0000008F0001008F000200E3
:1029E0008F000300900000018F00010190000002A1
:1029F000900000038F0001048F0000058F00080481
:102A00008F0000048A000006510000007F000100D2
:102A10003F0004003F0002003F0001007F00020071
:102A20002D490A681040C2430A600A680242FAD17E
:102A300070472A4A11680029FCD10023D361106035
:102A4000D0690028FCD0D1615068704724480168E3
:102A500021F0020141F400710160032121488160ED
:102A600041F2300141610121C160502141610121E8
:102A7000C1604FF4CA6141610121C16001607047CA
:102A800080B5FF227821184801F0EEF9002017499F
:102A9000174B31F8102003EBC003401C0B285A6081
:102AA000F6D301BD13490A681040C2430A6070475B
:102AB000114802680A6082684A60C2688A60406B96
:102AC00020F0784040F08050C860704701461022E6
:102AD0000A4800F095B800001010044000100440AF
:102AE000000004600041044034030021A87E00007F
:102AF000AC030021081004404C13005018000021C2
:102B000010B50446FFF707FB002161602160BDE8B6
:102B10001040FFF710BB38B50546FFF7FCFA2C68EC
:102B20003CB121682960216800291ABF00224A604F
:102B30006960FFF700FB204632BD38B500F00FF8A2
:102B400000212960616869606168002914BF0D6017
:102B500025606560FFE7BDE83240FFF7ECBA044648
:102B60000D46FFF7D8BA38B5FFF7F9FF29686A684C
:102B700000290CBF62604A6069682A6800290CBF9E
:102B800022600A60E7E70000DFF800F0C1C1011031
:102B9000DFF800F009B70110DFF800F0CDA0011058
:102BA000DFF800F041AC0110DFF800F0E1C20110E5
:102BB00020B1082324220021FFF7E6BF704730B57B
:102BC00089B004460D4600F00BF801218DF818106D
:102BD0006A4629462046FFF7DBFF204609B030BD94
:102BE0006846E5E7FFF7E0BF80B5FFF7D5FF10B90E
:102BF0004FF0FF3002BD002002BDFFF7D1BF000043
:102C000062B38B0708D0521E11F8013B00F8013B5C
:102C100000F024808B07F6D1830740F0208000BFAE
:102C2000103A07D330B4B1E83810103AA0E83810A1
:102C3000F9D230BC530724BFB1E80810A0E808104F
:102C400044BF51F8043B40F8043BD20724BF31F89D
:102C5000022B20F8022B44BF0B7803707047121F21
:102C600017D35B0009D151F8043B20F8023B1B0C41
:102C7000121F20F8023BF6D20BE051F8043B00F89B
:102C8000013B1B0A20F8023B1B0C121F00F8013B02
:102C9000F3D238BF121D521E24BF11F8013B00F8B9
:102CA000013BF8D8704700004A48006801F0FAB8C4
:102CB00070B50446E00782B00D46474E05D5A8B270
:102CC00000900023012200F011F8A00705D5A8B25A
:102CD00000900123022200F009F8600705D5ADB28B
:102CE000009502230C2200F001F873BD002130464C
:102CF00000F071BC10B5384C04282046BDE81040E7
:102D000007BF1D234FF0C0421C234FF080523421D7
:102D100000F075BC80B501210320FFF7C9FFFDF766
:102D2000ABF92E49886001BD10B50120FFF7E2FF25
:102D3000012819D0002301223421274800F05FFC2C
:102D400098B1FFF7B1FFFDF797F9244B9A68244932
:102D50001C68D860A4EB9404801A4843000C1860E7
:102D6000A04238BF20461860012010BD10B50021D8
:102D70000320FFF79DFF0120FFF7BCFF08B1FFF71D
:102D800093FF164CFDF778F9606001F0A1F820611F
:102D900010BD10B501461348134B02681B681004A0
:102DA00000161B394843C01000EB2240120601FBFD
:102DB00001F412161B06624361431B1600EBA220AE
:102DC000594300EBA14010BD00FB00F1C0EBA15046
:102DD00000B270478000001000A00C40FC330020BF
:102DE00040420F0090130050A4100050DFF800F094
:102DF000F5C00110DFF800F049BA0110DFF800F06B
:102E000021B30110DFF800F095C00110DFF800F0E9
:102E10000DA80110DFF800F0BDBE0110DFF800F0D2
:102E2000D9B60110DFF800F0F5B80110DFF800F0B6
:102E300021C10110DFF800F0A5B90110DFF800F0A2
:102E400021BA0110DFF800F0E5C10110DFF800F051
:102E5000BDC20110DFF800F0B5C10110DFF800F0CD
:102E600015B60110DFF800F019A70110DFF800F027
:102E700013C10110DFF800F0D5C20110DFF800F037
:102E800085B00110DFF800F029AF0110DFF800F085
:102E900071B80110DFF800F005C10110DFF800F093
:102EA00001C30110DFF800F001C80110FEE788E05F
:102EB00091E070B5FFF7FBFFDFF8F0620446B06801
:102EC0000021FFF79FFF05467069B169451BA942C4
:102ED00038BF002520466BE02DE9F041FFF7E7FF02
:102EE000DFF8C8420746A0680121FFF78BFF0022E8
:102EF0000121E283A183656922682168461B401A8B
:102F0000AA1A904203D20020A08338462CE038460B
:102F1000FFF7CEFF002706E07D1929460120FFF7C5
:102F200075FFF61B0746BE42F6D2FFF7C0FF80468C
:102F3000E08B012804D129460020FFF767FF0746F0
:102F4000A06917F1010F08BF064603D0BE1BB042AF
:102F500038BF064671193046FFF75CFF012000219B
:102F60002084A18325604046BDE8F041A0E7002110
:102F70008182DFF82012C0684A69904204D1DFF8EC
:102F800050120868FFF7DEB8704770B50446FFF7C7
:102F90008EFF0646A08A0025012808D1FFF73EFFD4
:102FA0000546E068A168451BA94238BF00253046A8
:102FB000FFF77EFF284670BD808A7047704700008B
:102FC00000BFEFF31180DFF80C120A6882F311885A
:102FD0007047000000BF80F31188704710B50022D1
:102FE000DFF8F831026000211C682044BDE8104081
:102FF000FFF718BF38B50446FFF7E2FF0546207C0F
:10300000022808D12046FFF711FF0020207429462E
:10301000A068FFF70FFF2846BDE83240DAE710B599
:10302000036804681A400C408C4208BF0A4312B17E
:10303000016891430160104610BD2DE9F8411C461E
:1030400014F1010F18BF002C91B006460D4617462B
:103050000AD06B462246DFF8801108A8FFF7EEFE83
:1030600008A90391022202E00021039103228DF8B6
:10307000102006950797FFF7E5FE0290FFF7A0FFE7
:1030800080463A4629463046FFF7C9FF05000AD078
:10309000039818B1FFF7DAFE002003904046FFF7CF
:1030A00099FF284635E024B94046FFF793FF0020FA
:1030B0002FE0FFF79BFE04460299DFF82001C1F8DC
:1030C00018D069460268B018FFF7C4FE0298FFF7EF
:1030D000C5FE9DF81000022804BF0398FFF7C2FE4A
:1030E0004046FFF777FF2046FFF784FEFFF768FFB3
:1030F0000446039818B1FFF7A9FE002003900020B2
:10310000029988612046FFF765FF9DF8100000B125
:10311000059800F014BAF8B50446DFF8C0000E4672
:1031200001686718FFF74CFF0546206806432660D4
:103130003846FFF79BFE18B12846BDE8F24049E744
:10314000FFF754FE06463846FFF794FE0746FA6935
:10315000B9692046FFF763FF786160B13846FFF731
:1031600065FE01203874F86808B1FFF700FFB86801
:103170002946FFF75FFE2846FFF72CFF3046BDE8E3
:10318000F240FFF737BE1CE725E70000DFF85000EC
:10319000806870477801002010B50446DFF87C3065
:1031A000FFF76CFEA06800B1204610BD780100203A
:1031B00038B504460D46FFF7E6FF616A0D436562C8
:1031C000FFF7E2FF2046BDE83240FFF717BE0000E0
:1031D000B47F00009C7F0000F52F0000B87F000046
:1031E000C8010020F8B50446DFF85000DFF8487049
:1031F0000668F8690D4650F82510B1420AD1074813
:10320000009029462046FFF73DFEF86950F825104A
:10321000B14201D10020F2BD2046F2BD740500206C
:10322000816042607047102804D3DFF844101038E2
:10323000C1F8000F7047000044010020A404000002
:1032400000F064BEFFF7BDBEFFF7C5BEDFF8301269
:10325000C20744BF01230B60820744BF4FF4807351
:103260000B60400744BF4FF480320A607047000093
:1032700000E000E010B5DFF80C22C30748BF116082
:10328000840748BF5160400748BF916010BD30B50A
:1032900004460020D4E90A2347F6906100F0E2FEDC
:1032A0000125A94228BF4FF0FF3030BD38B50C468C
:1032B00000F09CFB050018BF0125FCF7DDFE811D19
:1032C000201AB0F1004F05D8081BB0F1004F38BFED
:1032D0008C4200D20C4621460120FFF7CBFFADB255
:1032E0001DB9BDE8314000F085BB31BD2DE9F84C7A
:1032F00005460C46D5E90AABD5E90C67AAFB0401E3
:103300000BFB041136184F41340C002244EA0741EC
:103310002846FFF7CBFFC5E90E67BDE8F18C2DE924
:10332000F0410746FFF78EFF8046DFF85C51DFF87B
:103330005C410120E8610126FFF788FFE16A0A6A23
:10334000142090473969B1F5802F34BF0421090C4E
:103350000120FFF78FFF2268136823210020984780
:10336000DFF82C21DFF82C311660186800B1032635
:10337000DFF82411086808B146F00406DFF84001C0
:10338000016821F4E02141EA064101600120286042
:103390004046BDE8F04157E7FCF778BE10B5DFF8CE
:1033A000FC104C680120FFF751FF6069A169BDE87E
:1033B000104008470000F8B504460D46FCF766FECD
:1033C000D4E90A6732463B4600F04CFE3DB1A6FB0D
:1033D000002306FB013307FB0033C4E90C23F2BDD5
:1033E00010B5DFF8A400DFF8DC4000210160012205
:1033F000C2610121216001202268FFF727FFDFF869
:10340000C8100A68136A14209847206810BD80B558
:10341000DFF8B8100868FFF7BFFF000C40EA014072
:1034200002BDFFF733BD70B50026DFF8A45018E0E9
:1034300031460020FFF7F5FF0024816821B9DFF84D
:10344000942011688160012400F011F834B12B68D8
:103450004269591AB1FBF2F14A430261FFF71AFDC2
:10346000761CDFF8740001688E42E1DB70BD4168B4
:1034700082688A18521E491E22EA01018160704743
:103480000420094018200940000024438401001052
:1034900080022443947F0000987F0000E401002014
:1034A00000281EBFDFF844201178002900D1FEE774
:1034B000DFF8342090421CBF0099C16070470000C3
:1034C000002009402C200940B0010010EC01002030
:1034D000AC7F0000A87F0000BC040000DFF81000F3
:1034E000C0887047FEE77047740500208C05000017
:1034F000F001002010B5FFF779FCDFF854100C68DC
:103500000CB122680A60FFF775FC1CB12046BDE8CB
:10351000104000E010BD10B5044604F11000FFF7A4
:1035200043FBE06818B104F10C00FFF7B7FC00F0B2
:1035300009F8BDE810405422FFF7B4BC000012B0F7
:10354000BDE8F0812146014800687047BC7F00005B
:103550007834002070B504460D46164600F046FA51
:1035600000F02AF8012E02D0022E02D003E02570CE
:1035700002E0258000E025600123136019B1BDE859
:10358000704000F037BA70BD38B504460D4600F003
:103590002DFA00F011F8012D02D0022D02D003E027
:1035A000247802E0248800E024680120106009B13A
:1035B00000F020FA204632BD411E8941C90F024A5F
:1035C00010680028FCD0704700800C400B46114664
:1035D00004221818BEE710B500EB4100102B14466A
:1035E00000F5007002D3103B001D240C029901FA73
:1035F00003F343EA0441BDE810400422AAE738B5CA
:103600001D460818102D144602D3103D801C240CB2
:103610000221FFF7B9FF0440A4B224FA05F032BD3D
:1036200030BF7047FCE738B500F0E0F900F092F9E0
:10363000FEF736FE054605F00C000C2852D0680750
:1036400029D4FFF736FC044601210120FEF72CFEA9
:103650003349096801FB04F290421CD2F020B0FB10
:10366000F1F03049241A887C18B1C868A04238BFEC
:1036700004462D4D214605F10C00FEF75FFD05F1D6
:103680000C00FEF75FFD0120FEF789FF05F10C003D
:10369000FFF76DFC28E0280724D42448FCF70CFD34
:1036A0000428FAD0EA06224900D420B9086840F07C
:1036B0000100086003E00A68520852000A601D48D1
:1036C0001D4C01681D4D41F003010160202021685F
:1036D0008A69904728682068816B884701212960A2
:1036E000286801E0FFF79EFFBDE8314000F082B995
:1036F00010B5134CFFF77AFB20601248006808B140
:103700008047606010BD10B50F480D4C016809B1CD
:10371000606888472068BDE81040FFF76BBB000079
:10372000B07F0000487E0000780700200040034082
:103730008C21084024220840B80100102C200940A8
:103740005C340020A07F0000A47F00001628A8BFE2
:10375000203870472DE9F84F80469548DFF854929D
:103760000168954E8A0705D50820B0719348C9F8BD
:103770000000C0E000F0ACFB8246914805682F17BE
:1037800000247F1CA80208D4CAF13E00C0100828FB
:10379000C8BF08208742B8BF07468A480168C1F3FE
:1037A0000460FFF7D3FF834687480168C1F30440F4
:1037B000FFF7CCFF5F44152F0146C8BF152704DC77
:1037C0006FF009008742B8BF074607F01F007F4A25
:1037D00040F4F85010807E4A106810F0030F18BFB4
:1037E0000124400748BF44F0020496F90700B8F1ED
:1037F000000F18BF44F00404AAEB0000042802DC08
:10380000B27994425DD0AAF10F084FF0000BB8F1E5
:10381000000FDC4604F004006E4B24D408EB0818BB
:103820004FEA282CBCF1070F88BF4FF0070CE64683
:10383000BEF1070F28BF4FF0060E1A1D52F82E20BA
:1038400053F82EE0A2EB0E0E0EF0FF0B10B1CEF3EC
:1038500007229344A20744BFCEF307429344E207F2
:1038600048BF0BEB1E6B53F82C2002F0FF0310B186
:10387000C2F30720C318A00744BFC2F30740C31810
:10388000E007A8EB0C2048BF03EB126300FB0BF032
:10389000CF1B8030002F03EB1023D8BF012734202B
:1038A00005F0FF0547437D43B5FBF3F04FF6FF718D
:1038B000884288BF08460AF3070AB08086F807A046
:1038C000B47145480168B088316000211F2804D2D6
:1038D0001F20B08004E04008491CB0F5007FFAD2F8
:1038E0000F38000941EAC0013C480143C9F8001003
:1038F0000020C9F80400BDE8F18F38B50546384806
:103900000468A4B22CB300F0E3FA2B4991F9072024
:10391000904205DA6FF07F029042B8BF1046C8713E
:10392000A542888834BF641B0124844210D32A4AEC
:1039300013680A689A1A921C1F2A88BF1F22241A29
:103940005208D4402418B4F5803F28BF4FF6FF74C6
:103950008C8031BD2348006800B9704730B52249DA
:103960008A6802F04063B3F1406F1FD0104B1C68AF
:10397000A5071BD44C68A50718D41C680968C1F3B7
:1039800003511C31090114F0050F04D088420DD2F7
:1039900024F0050409E0814208D2100158BF44F028
:1039A0000104500158BF44F004041C6030BD000005
:1039B000000009403010094064340020FDFDA400DF
:1039C000B43F0050B81200503C1100506E620840E5
:1039D000242208409C1300500820094000E7A480DE
:1039E0003410094028500940AC3F0050EFF31080DC
:1039F00072B67047EFF3108062B670470138FDD1A0
:103A00007047704710B50C18FFF7F0FF411E894151
:103A1000C90FDFF8F82310680028FCD024680123C0
:103A2000136009B1FFF7E6FF204610BD38B5DFF897
:103A3000E05328780024002802BFDFF8D813487D1F
:103A400000280AD0FEF767FBA978002906BF0122EB
:103A5000AA700124FEF76FFB0CB1002032BD0220DA
:103A6000FEF734FD0E20FEF746FDDFF8AC130868C4
:103A700008B1012032BDDFF8A4034022C260026019
:103A80000120C8610020687032BD00007CB5DFF8FD
:103A90008C1300200860DFF8881301F1D804A07AA5
:103AA00000286ED00128DFF87C2330D1DFF87813AE
:103AB00015684BF2F520454308682D0AC0F3814094
:103AC00001280AD100F004FAFFF763F9FFF77CF947
:103AD0002E09C010464305EBE635607B10B100218E
:103AE000617306E0DFF84403006820F07F402D1882
:103AF0006D08DFF83C0305602D0C456001218160F5
:103B0000C449487D00283AD00521217339E00228B4
:103B100009D11568284600F0F4F8A5F2FF55032DE9
:103B20002DD308202CE003282BD1106801F1B80513
:103B3000A0F5C0602968E861002948BF4942002813
:103B400048BF40428142A8BF002017DA6868B94EDA
:103B500080B2009008234FF47F4230213046FFF7B7
:103B60003AFDA86800F078F93046FFF734FDA869FF
:103B700000F06BF93046FFF72EFD012020700B207E
:103B80002073BDE8734000BF2DE9FC41A44CDFF871
:103B9000A482A94FA94EA14804F1E105E9784A1E83
:103BA0000B2A00F28480DFE802F0062A3B51663BD4
:103BB00051663B516D72A2490A68136820209847EC
:103BC0000F20F860072341F61D5038614FF4C07292
:103BD0000220009000F06EF807234FF4C07200211D
:103BE0004046FFF70CFD012030600220E87004F130
:103BF0007800BDE8F641FEF7F6BABDE8F381012092
:103C0000F861287800281DBF0021316103200620BB
:103C1000E870032038600020706070688107E6D487
:103C2000E878032805D10221009100F041F8042032
:103C300008E00020009000F03BF8E87806280CBF70
:103C400007200A20E87001207060D0E7042903D122
:103C50002021B961012105E001220A29BA610CBFC6
:103C6000032102216970002139600821C1600160CF
:103C700001203860C1E705290CBF06200920E87043
:103C80000020E1E70020306070600C20AEE70021EA
:103C900001600120604908600E20FEF7C8FB022089
:103CA000FEF7AFFB0120E8700020A870A5E7FEE753
:103CB0000523602200214046FFF78DBC58495F482C
:103CC00091F8E420921E0A2A1AD8DFE802F0060AC8
:103CD0000E190A0E190A0E19120002689107FCD576
:103CE00052E741688A07FCD4FAE741688A07FCD5A5
:103CF000F6E702689107FCD441688A07FCD4EFE735
:103D0000FEE7F8B504464B4D30212846FFF77AFE12
:103D1000434F07F1B806C0F307207060042128461E
:103D2000FFF770FEC0F38440B06020212846FFF703
:103D300069FEC0F38120B4F5C064B061346003D182
:103D4000002087F8D800F1BD316997F8D80028B96C
:103D50007068B168F060F461B0697061F069002862
:103D60004CBF6FF00102022200EB4000101842101D
:103D700000EB927001EBA0017268F260002912DC86
:103D80007069032805D10120153188421EDB01210D
:103D90001CE001200B318842A8BF0121521E48BF00
:103DA0000022F26007E01E2912DD706928B915397A
:103DB0001E29C8BF1E21032009E00B391E29C8BFD8
:103DC0001E21521C3F2AC8BF3F22F26000207061B2
:103DD00031610823F06880B200904FF47F423021B7
:103DE00000F030F80120009011234FF4003204213C
:103DF00000F028F8306900F02FF800F023F870691F
:103E000000F023F800F01EF8F1BD000000800C4027
:103E100059080020487E000004800C402C500C40C3
:103E20007807002008400C40B43F005010200940A3
:103E30003C600C4000A00C4000400C4034600C4042
:103E4000A00100102846FFF7C6BB80B200900A23ED
:103E50004FF440622021704780B2009012234FF44B
:103E6000F80204217047000062F30F2262F31F4240
:103E700000B500BF130096469446103928BFA0E84D
:103E80000C50FAD85FEA417C28BF0CC048BF40F80C
:103E9000042BC90728BF20F8022B48BF00F8012BCC
:103EA00000BD000070B50446FFF7A0FD451EAD4102
:103EB000ED0F064E30680028FCD0A047012131608C
:103EC0001DB1BDE87040FFF795BD70BD00800C408E
:103ED0000749084A886812780968C00352B2A1F5F8
:103EE0004071C0134A43A0EB22108030001270478B
:103EF000285009400C1300504018491C1CBFB1F158
:103F0000010100F8012DF9D17047000010B54048BB
:103F1000046814F1010F08BF002400F093F93D4933
:103F20003D4A00200860012111603C4A116000F008
:103F300052FB3B4A116821B13A4B1868204600F009
:103F40001CF8394900200860384939480A686FF37D
:103F50001B4202430A6037490868C0F30130012858
:103F600006D10A683448024042F4003008600A6012
:103F7000324908680028FBD110BD70B505463049AC
:103F8000304A0120086010680028FCD0C0222E4C66
:103F90002E4822602E4A53689E0705D41668360CB8
:103FA00046F0F006067001E07223037000200863FB
:103FB0009668304600F050F93146284600F07FF907
:103FC0002448816D89B240F20F22914212D20168D9
:103FD000C1F30360C1F3034100B1401E072905D0BE
:103FE00006290EBF0721891C01F00F0140EA0110CC
:103FF00019490870304600F0D0F918490A68D368AA
:10400000022098474020206001201549086070BDBB
:104010001C130050840460425C600C40082204437E
:1040200080012843000120438C21084048200340A0
:104030000000390104000940FFFFFCFC0C0068424D
:10404000101009409402224300600C405662084060
:10405000AC3F0050BC12005002600840A0010010AC
:1040600094046042D3BBD9B1B2F5803F5BD2022A3F
:104070001ED98C46B1FBF2F102FB11C31B0443EACB
:104080001043B3FBF2FC02FB1C3380B240EA034353
:10409000B3FBF2F002FB103240EA0C400023704701
:1040A000022A05D98446B0FBF2F002FB10C2704729
:1040B0004AB105D100F0010249085FEA30007047BB
:1040C000002200237047FCF7DBB90B00020000213F
:1040D00000207047F7D3002200237047904271EB15
:1040E000030CF2D370B5B1FA81F4B3FA83F52C1B4B
:1040F000A340C4F1200532FA05F63343A2405FF035
:104100000046E64002E05B085FEA3202841A71EB87
:10411000030524BF204629467641F4D302000B0054
:104120003000002170BD70B5B1FA81F4B2FA82F5A9
:10413000C4F120046419B4F12006DAD3B2405FF070
:104140000044F440002502E052085FEA3303C61A37
:1041500071EB020E24BF3046714664416D41F3D3CA
:1041600002000B002000290070BD000032480068EA
:10417000000C00F00700062828BF4FF0FF30704702
:104180002E490A68C2F30F324BF69A139A424FF047
:10419000FF3006D10868000F0B2801D103207047BB
:1041A0000020704710B5FFF7EBFF234909684FF077
:1041B000FF34E0B9080B00F00F0001280ED00228F0
:1041C00008D0042808D0092808D00C2804D00F28CB
:1041D00009D00CE002240AE0032408E004240802C9
:1041E00005D5072403E00524C80148BF062420465E
:1041F00010BD1248124970B505680E682D0F06F003
:10420000FF06802E28BF0026FFF7BAFF4FF0FF34CD
:1042100078B9012D08D0032D08D0072D08D0082D1E
:1042200008BF06F1160404E00A2402E0142400E0AA
:10423000152460B270BD0000941200501813005095
:10424000A010005080B5FFF79BFF20B9FFF7D1FF0A
:10425000162800DB01BDFEE7DFF8DC130968C1F3B7
:1042600004611529C8BF203901EB2071491C1529AB
:10427000C8BF152104DC6FF009029142B8BF114696
:1042800001F01F01DFF8B42341F4F8511180DFF889
:10429000B0130A6893074FBF40F040600021DFF879
:1042A000A4231160DFF8A013C0F3C06282F0010202
:1042B000C0F380600A6080F001008860704770B5CC
:1042C000044682B0084600F0E7F80246DFF87C5367
:1042D000182100F05FF800F00BF980B20090002385
:1042E00040F2FF322C212846FFF775F9DFF86063B2
:1042F000F268C2F30D021C2100F04CF8726822F043
:104300000332142100F046F83268DFF84803DFF882
:1043100048630240102100F03DF8204600F0F2F81A
:1043200002460C2100F036F8204600F016F9400055
:1043300040F020003072204600F018F940F01000E4
:104340003072204600F01BF90246282100F022F8C6
:10435000204600F0F9F8400040F06000F07220467E
:1043600000F027F9C00040F080003070204600F0D7
:1043700029F98100B94841F47C410180204600F0D0
:104380000BF90246082100F005F8B5494FF480000A
:10439000086073BD2846FFF719B9F8B5810C01F024
:1043A00003010129AF4CAE4D02D0022928D024E0F0
:1043B000226A910321D44FF48041AB4B2960510A0A
:1043C000D3F8026026F08F0601F080010E43C2F39D
:1043D00003310E43C3F80260C2F30321D3F8016036
:1043E000360941EA0616C3F8016002F0E7021968CF
:1043F00021F0E7010A431A6002E04FF000422A6010
:104400009A4EB1680A075CBF4022AA624FF400715D
:104410002964800D216A964AC90C01F0030141F01C
:10442000300110F00300117003D0022826D008D309
:1044300026E001210420FEF73BFC8E4800F0EDF859
:1044400022E00120FEF756FC074639460420FEF71D
:104450002FFC0420FEF74EFCB842FAD1366826F055
:104460007F4000F0DAF8844B300E1E6837684FF05A
:1044700060220721B8474FF480602860032100E0E4
:1044800002210420FEF714FC20687C4900F03F0064
:1044900008707B490868F1BD02467A480068C0F39D
:1044A00083619303C0F38F201FD4120412164FF6BA
:1044B000FF7307E0400804D11846490804BF0121F2
:1044C0000120521C002AF5D4002A0EDD400040F0E5
:1044D0000100984281BF0120490041F001010F29EC
:1044E00084BF0F211846521EEEE740EA0140704794
:1044F0006448016800680002C1F3870100F440705D
:104500000843704770B501465F4C604803686568B2
:10451000EE07C3F30352C3F303400AD4246825050E
:1045200002EB2572240482F3040200EB247080F372
:104530000400000440EA02509AB21043222924BF2A
:1045400003F08043184370BD01460020202903D3A7
:104550004F480168C1F301507047014601202229EC
:1045600003D34C480168C1F3007070470146012035
:10457000222903D347480168C1F3407070470146C0
:104580000020202907D342480168C80C00F440707D
:10459000C1F3845108437047014620293E4807D3A0
:1045A0003B4801683D488A0A00EA013040EA8250EF
:1045B000704701460020222903D336480168C1F321
:1045C000C060704701460020222903D331480168AA
:1045D000C1F34550704710B5314908680028FCD137
:1045E0003048314A416813688908890041F0005118
:1045F00041F004015C0748BF41F001010BD402689F
:1046000012F0030F07D041F003034360026802F089
:104610000302032AFAD1416010BD244982B20A6024
:10462000C0F30740486001208860214A10680028D4
:10463000FCD000238B607047B81200506E620840B7
:104640000000094094042A430000204300A00C40CD
:1046500070130050FFFFFC0041A10C40DCA10C4096
:1046600040A00C406C1300500A600840A83F005066
:1046700008A10C40BD378600B40100100BB00C40FF
:104680002C20094050130050AC3F005078130050CC
:10469000981300508C13005000803F4000F03F0002
:1046A0000C00684200400340B03F00503C600C40AA
:1046B00084088C4350F8382F11430160704750F83C
:1046C000382F22EA010101607047817DFF291CBF5C
:1046D000C07DFF2801D0012070470020704738B509
:1046E0000446FDF718FD0546207820B90220FDF7A5
:1046F000EDFE012020700BE038B50446FDF70BFD00
:104700000546207820B10220FDF77BFE00202070B6
:104710002846BDE83240FDF70EBD4068CC30FEF7BC
:104720006CBA4068E830FEF768BAF8B500F029F8CE
:1047300074B12A6A3368117838689A69904738B139
:10474000286A411C686A2962401C641E6862EFE79F
:104750002046F2BDF8B500F014F884B1316838682D
:104760000A69904710F1010F09D0296B0870641E87
:10477000286B411C686B2963401C6863EDE7204689
:10478000F2BD45688768DFF8D0680C467047F8B519
:1047900045688668DFF8C0780C466CB139683068C7
:1047A0000A69904710F1010F06D0C1B205F13C0033
:1047B00000F0C4FC641EF0E72046F2BD70B5466808
:1047C00006F582750C462846FDF70FFDDFF88C08CC
:1047D000337F717F0268DFF88808CB18DB1D5C43EC
:1047E0004443B069B4FBF0F010186330B0FBF2F151
:1047F000491C2846FDF7F5FC2846BDE87040FDF74A
:10480000F2BC10B542688068016851F8180F0007C3
:1048100013D5DFF848180B684FF4FA70B0FBF3F1CA
:10482000012902F5827498BF01212046FDF7D9FCC9
:104830002046BDE81040FDF7D6BCBDE8104002217F
:1048400002F19800FDF71CBD38B504460D46202145
:104850002868FFF734FF297D206E012200F06EFEEC
:10486000297D206E012200F083FE297D206E00222A
:1048700000F0B0FEA97D206E002200F0ABFEA07813
:10488000012805D1296851F8180F0007FAD405E06E
:104890004FF0FF3104F1CC00FEF7A6F900F0F4FB75
:1048A00000F09FFB30B1A97D206EBDE83840112299
:1048B00000F090BE31BD2DE9F84F82460020DAF8B5
:1048C00008B0DBF80020DAF8045002F1400102F1F0
:1048D00044030E681E6005F130073B697C69B968C6
:1048E00016F4F06FA3EB040805F1980941D07305A5
:1048F00014D52029CCBF20270F463946C7F1200701
:1049000052F8044F106004F00F0400F078F84745A7
:10491000C8BF474639461DE0491EB960B96800293D
:104920006BD0012100F06BF8DBF8001051F8040F98
:10493000002200F00F000A600028B968ECD004469D
:104940003868421E3A607A68521E7A6029B900F0CF
:1049500058F841465046FFF71AFFEC77504600F0F2
:10496000C8FADBF82420002A31D02146504690476F
:104970002DE070060FD5002925D000F040F8B86072
:1049800095F82D0010B10021B96001E0B868F0B9C8
:1049900000F037F81BE0F00619D5A1B19BF8211003
:1049A0000FF24470445C05F13000641E81688C4253
:1049B00088BF0C46214600F022F8B868041BBC6092
:1049C00005D100F01EF841465046FFF7E0FEB00664
:1049D00011D5AE6A7EB131465046FFF7A6FEA862F9
:1049E00048B99BF820200FF2F861885C8119504685
:1049F000BDE8F44FE2E6BDE8F18F0446A7E7504674
:104A0000A8E601214846FDF73BBC2DE9FC410546DF
:104A1000FDF734FC06466C68AF68DFF84886F0079F
:104A20000AD54046FFF768FE626B206BE36851428F
:104A30000144216328469847B00715D508F10100C5
:104A4000FFF75AFE38682021FFF739FE386800F07A
:104A5000C1F9626A206A23695142014421622846F1
:104A600002B0BDE8F0411847BDE8F381406800217D
:104A70000170DFF8F005017041707047F8B5064627
:104A800084B07468B5680F46FDF745FB21780129AD
:104A900040D001212170FDF74EFB38786070002175
:104AA0007878A07078686060B868A060F868E060A6
:104AB00038692061387D2075787D6075B87DA07576
:104AC000B869A061387F2077787F6077B87FA0775A
:104AD0000020206204F12C00416061628160A162CB
:104AE000C160017041706868FDF705FD304600F057
:104AF00029FA304600F078FA80B9DFF85C150A68C8
:104B00002868D36898476868FDF791FCFDF703FBB8
:104B100000212170FDF70FFB00204DE06846FDF7F6
:104B200002FB00966B46287BDFF83C25019004F1E0
:104B30007C00A968FDF7CDFA6846FDF774FB009686
:104B40006A462869DFF82415029004F19800FDF701
:104B500072FBA07838B9002104F1CC00FEF72FF8E1
:104B6000DFF80C052061607838B9002104F1E80015
:104B7000FEF725F8DFF8FC04E0606846FDF72CFB43
:104B8000002001908DF8000002966B460A22DFF8A3
:104B9000E81404F58270FDF7F0FAEA69A96904F1F6
:104BA0003C0000F0A5FA33460FF2E942042104F17B
:104BB0006800FDF714FC304605B0F0BD70B5064640
:104BC0007468B568206E00F0ACFC286840F2F271A1
:104BD000FFF775FD00202070304600F0C4F8304625
:104BE00000F087F9296801F12C00026822F0100218
:104BF000026051F8303FDFF8840403400B606868BE
:104C0000FDF715FC04F17C00FDF783FA04F1980030
:104C1000FDF730FBA07818B904F1CC00FDF7E2FFF6
:104C2000607818B904F1E800FDF7DCFF04F5827044
:104C3000FDF7C5FA04F16800BDE87040FDF793BDCB
:104C4000F8B5446820296FF0010208D026D3222944
:104C500009D03EBF002084F82D0000221EE0012074
:104C600084F82D0019E08668DFF8EC73FDF753FA3D
:104C70000546396830680A69904710F1010FF8D18C
:104C800004F138000021C160002281684261491EA0
:104C9000016102602846FDF74EFA00221046F2BD7F
:104CA0002DE9F84306467468B56888469146FDF7D5
:104CB00032FA2968303107460968207808B1C905F9
:104CC00003D53846FDF737FA44E004F58270FDF766
:104CD0008CFA0020E0776062C4F820803846FDF747
:104CE0002AFADFF88073781CFFF7F9FC286850F87F
:104CF000301F41F48071016030464946FFF715FDD1
:104D0000A06204F1CC0858B949463046FFF756FD79
:104D1000A07820BBA1684046FDF766FFE8B10EE031
:104D200028682021FFF7C6FCA078C0B9A1684046DA
:104D3000FDF75AFF88B149463046FFF73FFD002096
:104D4000A06229461020E0772046FFF77DFD781C01
:104D5000FFF7D2FC4FF0FF3002E0606A00E0002075
:104D6000BDE8F283C2E0F8B504466568A668FDF7C1
:104D7000D2F90746A86A58B9306800F118010968E5
:104D80000A0705D430300068C10501D43846D5E0A3
:104D900005F58270FDF729FA0020A8623846FDF774
:104DA000CAF93046FFF791FC18B131462846FFF7A3
:104DB0004BFD30682021FFF782FC306800F00AF8D4
:104DC000AF48FFF799FC6A6A286A2B69514201448F
:104DD0002962AEE050F8301F21F480710160704705
:104DE0002DE9F843074614467E68D7F808803078E6
:104DF00018B106F13005A86810B14FF0FF3072E02D
:104E00000022F277296068600DE04846FDF793F9CB
:104E100029689DF800000870641E2868411C2960FC
:104E20006968491C6960002C51D0FDF774F981460E
:104E3000694606F13C0000F064F90028E5D5AC6055
:104E40004846FDF778F9874C2046FFF748FCD8F82C
:104E5000000000F130010A6842F400720A604FF469
:104E6000FA61FFF727FC7078C0B906F1E8077168AE
:104E70003846FDF7B9FEA8B30020A86000213846E7
:104E8000FDF7B2FE70B32046FFF736FC696828686C
:104E90004942084428601020F07723E0FDF73BF9F1
:104EA00096F82D1000291CBF6A68002A0BD0A9684B
:104EB00049B10022AA60FDF73EF9012106F19800F0
:104EC000FDF7DEF901E0FDF736F900200BE06A6836
:104ED00028685142014429607078012802D1F368A2
:104EE000384698476868BDE8F28300BF4FF0FF304E
:104EF0007047F8B504466568A768FDF70CF90646E3
:104F000038684FF4FA61FFF7DAFB5648FFF7F4FB15
:104F1000A86B08B9304611E00021A963696B286BC2
:104F20004942084428633046FDF705F96A6B296B4E
:104F3000EB68204601B0BDE8F0401847BDE8F240FC
:104F4000FDF7F9B8FEB5444E8568316844682868B5
:104F5000CA68904740F2F27728683946FFF7AFFBFE
:104F6000296801F14400076095F820200FF26010D5
:104F7000835C95F821200FF26010805C034341F8B8
:104F8000343F6846FDF71DF90FF21810217F50F8E5
:104F900021300FF22010617F50F821000FF21C1217
:104FA000A17F034352F82100A26934680199666821
:104FB00003432868B047286800F12C010A6842F0D2
:104FC00010020A6050F8301F41F00101016000F04A
:104FD00008F828B1286850F8301F41F440410160BA
:104FE000F7BD2846FFF771BBF0B585B0856844680A
:104FF000687D244E40F0004000900827287D304313
:105000000190FFF7EEFF38B1A87D40F0004002901C
:105010001027E87D06430396FE204DF807006946F9
:1050200004F1540000F00EFA206698B1697D0F2259
:1050300000F0D0FA00F028F8FFF7D3FF48B1A97DBF
:10504000206E112200F0C6FAE97D206E122200F0D7
:10505000C1FA012005B0F0BDD00100107C34002061
:1050600040420F0041340020B74800000B4A0000C6
:105070001B4700002347000003480000FEFCFFFF21
:10508000423400200000C0A0297D206E102200F0D4
:10509000A1BA000080B5042804BF1046FFF752FFF4
:1050A000002002BD000000002000000040000000C1
:1050B0006000000000000000080000000000000088
:1050C00006000000020000008600000082000000D0
:1050D0000000010203040000100008101820000066
:1050E00004040810181C000010040810181C00000C
:1050F000016042600021521E8160C2600161416115
:10510000704738B500F016F8A16801B92FE02168A2
:105110002269895C297021696268491CB1FBF2F33C
:1051200002FB13112161A168491EA160FDF703F87C
:10513000A06832BD04460D46FCF7EDBF38B5FFF759
:10514000F9FF6168A2688A4211D0E268521CB2FB82
:10515000F1F301FB132122685554E160A1686269F3
:10516000491CA160914238BF11466161DEE7FCF73E
:10517000E2FF4FF0FF3032BD90FAA0F0B0FA80F0BD
:10518000704770B5FDF77AF805460026DFF87444DD
:105190000DE025FA06F0C00708D5201D50F82100C3
:1051A00020B1026811001CBFF1B29047761C206844
:1051B000F1B28842EDD270BDDFF84C04DFF84C2428
:1051C0000168DFF84C041160FDF75AB82DE9FC477F
:1051D0005FEA0108DFF83C1406465FFA88F401EB49
:1051E000840144BF88F0204080F4C0480B68DFF899
:1051F000280406EA080788EA0302B343074032405E
:105200003B4306F4E020120EB0F5E02F02F001025D
:1052100002D1DA0105D411E016F4E02F08BF002A0C
:105220000CD003F4E020B0F5A02F04D0B0F5C02FCF
:1052300004D1052000E0062060F31243DFF8DC73A0
:105240000B6004F180403D68E54000F5083915F039
:1052500001054FEA985000F0010A03D1700248BFDF
:1052600089F800A030020FD5FCF755FF012202FAA1
:1052700004F439685FEA08224CBF22460022A143A9
:1052800011433960FCF757FF1DB1700248BF89F820
:1052900000A0BDE8F387DFF87C2302EB8002002941
:1052A000106848BF0021800901F03F0141EA8011E8
:1052B000116070472DE9F84787B08146FDF70DF87A
:1052C000DFF86003DFF860630178FEF76BFF00240E
:1052D00000281CBF01280C284FF0000A07D00D2819
:1052E0000DD00E2802BF052030621F240AE0FEF711
:1052F0003DFF022806D101203062012402E0032094
:1053000030620724DFF82403C2680121C2F381520E
:10531000012A04D10068000E01FA00F00443DFF80E
:105320000023DFF8E0721368326A03F07F039B18F2
:105330005B1E3B600020FF253554401C8342FBD29E
:10534000D44659F82C0000F0FF05FE2D3AD000F0AD
:10535000FF08B8F1FF0F0ED0AB4228BF95423FD3F4
:1053600024FA00F85FEAC8783AD401FA00F006F8A7
:1053700005C040EA0A0A0CF1010CE2E72AFA05F03E
:10538000C00759BF05F0FF0141F4C041705D59F8F5
:1053900020104046FFF71AFF4FF0FF31E8B2FFF749
:1053A0007AFF391D002041F825006D1C3868A8429D
:1053B00018D324FA05F0C007E0D53A1D042142F8BD
:1053C0002510F2E70920FDF796F8C7F88090012133
:1053D00007F1B800FDF7F3FB0025DFF85482E5E79D
:1053E00002202CE06846FCF79EFEDFF84842DFF81A
:1053F0004822207801906B46102106F12400FCF72A
:1054000068FE03A8FCF70FFF606805900021069175
:1054100003AADFF8281207F18400FCF70CFFDFF87D
:105420002002DFF82022016821F47C5141F4005170
:1054300001600120DFF8101208601060002008B041
:10544000BDE8F0872DE9F04BDFF8B85107460C4670
:1054500005F1B8094FF0FF314846FDF7C5FB0021C3
:105460005CBB002038607860B8600126DFF8C0813E
:105470004CB319E0FF2806D02A68824222D32A1DA5
:1054800052F82000F0B9491C17E02A1D42F821709B
:1054900006FA01F17A6811437960414654F82020F8
:1054A000384600F082F8584614F82010FE290AD039
:1054B000FF2900F1010BE8D1F5E714F82100FE28DF
:1054C000D8D1CEE700274846FDF797FB3846BDE820
:1054D000F08B1CB50C4610B3416821FA04F2D207D8
:1054E0001DD50122A24091434160204645490B1D34
:1054F000002243F820204C4A125C4D48FF2A0EBF80
:1055000044F02041D1F8801051F82210FFF75EFEE0
:105510004FF0FF312046FFF7BEFE002016BD0220EF
:1055200016BD10B5044605E0FFF726FEC1B22046C1
:10553000FFF7CFFF60680028F6D110BD38B50D46E3
:10554000304914460A68AA4204D301EB85014A682F
:10555000824201D0022032BDFCF7DDFD2F490A68EE
:105560000123AB409A4304FA05F515430D6044E06E
:1055700010B5244B1C688C4204D303EB81035C6898
:10558000844201D0022010BD01F18041100001F5DC
:10559000083118BF01200870002010BD01462B48BB
:1055A0000068C84000F00100704738B5154C256808
:1055B0000B46114601F0FF02954204D304EB820230
:1055C0005468844201D0022032BD1846FFF7FEFD28
:1055D000002032BD0B4610B511460A4A14689C42A1
:1055E00004D302EB83025468844201D0022010BD30
:1055F0001846FFF750FE002010BDFCF79CFD002070
:1056000032BD0000DC300020E0200240E0200260DB
:105610006031002000100840007F077FD02002404A
:10562000441300508434002060330020A83F005011
:10563000007FC767847F0000B951000083510000DC
:1056400000300940080009400C4009408020024019
:105650002DE9F047064606F108007478DFF8C855D2
:1056600004F03F0400EB040830198A46807900F00A
:105670003F09E87F60B1287E012802D1B9F1240FEB
:105680000DDD00F0DCFB0020C04628640020E87738
:10569000287E012803D0022800F0998032E130787A
:1056A00000F00F01052908BF222C40F02B81810654
:1056B00000F1288195F82000D0B1B078297888428F
:1056C00002BFF0786978884240F01C813079A9786F
:1056D000884202BF7079E978884240F01381B0793E
:1056E0002979884202BFF0796979884240F00A81BD
:1056F00000F0BDFC404600F005FD800800F5A070FC
:105700000021C5E90E01DFF824450122227000F0D6
:1057100096FB074606F10E0000F0F4FC0146384601
:10572000C046C0460120E87706F1120000F0EAFC0E
:1057300020F07F413846C046C04606F1160000F012
:10574000EDFC688406F1180000F0E8FCA88406F17E
:105750001C0000F0E3FCE88406F11E0000F0F3F802
:1057600096F8230000F01F00687638460020C046F7
:1057700060700020287700F00DF901463846C046D9
:10578000C0460020E86440F2EE20AA8C50434FF45B
:105790007A7390FBF3F36B64D5E90E016B8CD2182E
:1057A000521C40F2E24101FB02022A65104600F061
:1057B00080F90120A8776877D5E90E01AA8C1146F7
:1057C00000F08DF902222A7600F058FC9AE0DFF80A
:1057D0005C7438780028404607D000F0B0FCA98CF3
:1057E00000F07DF90020387011E000F0A8FC0746B9
:1057F000E98C42F2107000FB0177012000F0C1FC3F
:105800003946012000F0ACFC012000F0AEFC40461F
:1058100000F095FC07462146404600F03CF92A7E00
:105820000146687F012A08BF002311D060B92B7C94
:10583000032B0CD06A69BF1AFB2F08D2012B08BFBB
:10584000022202D0022B04D101226A7401E0032358
:105850006B746A7C2A74696188B3D5E90E4140464D
:1058600000F06DFC0146A88C40F2E242002302FBEE
:1058700000106B77AA7F012A03D1AB772865AB6450
:105880001BE0D5F844C0AB6C4FEA4C0203FB0C2C78
:105890000CF5F0720C1BA24209D240F24130834257
:1058A0003CBF5B1CAB6403206874287407E0296D5F
:1058B000884204D000222865AA6400F0FAF8307803
:1058C00000F0030003281DD1B078C0B1022801D038
:1058D00003D317E000F06FF914E0F0782872317903
:1058E00069727079A872B179E972F0792873317AA6
:1058F000707A41EA002129850121A97602E0F01C95
:1059000000F079F95FEA0A00B04608D006EB0A0019
:10591000411E50460A780A72491E401EFAD108F804
:10592000019B4046E96C89B200F0FDFB687C88F879
:10593000020008F10300296C00F0F9FB0AF10801EC
:1059400088B2BDE8F087F0B4B94900220A72047841
:105950000C7043784B7084788C700124C378CB70C2
:105960000079B44B08710020851000EB5575ED10DF
:10597000EEB2A0EBC5058F5D04FA05F52F4203D00A
:105980000D7A5A556D1C0D72521C401C2528EBDBFC
:10599000F0BC704730B4A44A137F507EC31825244E
:1059A00098B2B0FBF4F080B204FB10300106C90ECF
:1059B0009F4B1077C2B25C5C0125A2EBC1018D4008
:1059C0002C4218BFC0B207D1187A92FBF0F100FB4D
:1059D0001122D2B29748805C30BC704781B09249A6
:1059E00002780A7042788DF800204A7082788DF82B
:1059F00000208A70C2788DF80020CA7002798DF874
:105A000000200A7142794A71012081F8200001B01A
:105A1000704770B500F013FA0446834D01202876D4
:105A200000218348698469626976A983017200262E
:105A3000C5E90E61E9642965A9776964A964A96269
:105A40006983E96229860160A960017129732421B3
:105A5000784800F0A3FB78492046C046C0460120A4
:105A6000E87720467549C046C04625212046C046F5
:105A7000C046002085F820002860A8802882686140
:105A80000FF2850100F068FBBDE870400FF22511B0
:105A9000012000F061BB10B50C4600F033FB01465D
:105AA000A41D6748674A444394FBF2F000EB910061
:105AB00010BD10B504465C48416C826C641A00202D
:105AC00001FB124400F05DFBA4F5D77421460020D1
:105AD00000F046FBBDE81040002000F046BB38B5A2
:105AE00004460D46012000F04CFB41F64C5000FBF3
:105AF00005442146012000F033FBBDE8324001207F
:105B000000F033BB0000000070B5474C217E022935
:105B10004FD100F019FB0021C4E90E0100F0A7FAF3
